{
  "address": "0xD17E9680CCD6815D1dA351e9Ca951d7A9E94D6b0",
  "abi": [
    {
      "inputs": [
        {
          "internalType": "string",
          "name": "_name",
          "type": "string"
        },
        {
          "internalType": "string",
          "name": "_symbol",
          "type": "string"
        },
        {
          "internalType": "address",
          "name": "_artistAddress",
          "type": "address"
        },
        {
          "internalType": "address",
          "name": "_projectRegistry",
          "type": "address"
        },
        {
          "internalType": "uint96",
          "name": "_royaltyFeeNumerator",
          "type": "uint96"
        },
        {
          "internalType": "address[]",
          "name": "_royaltyPayees",
          "type": "address[]"
        },
        {
          "internalType": "uint256[]",
          "name": "_royaltyShares",
          "type": "uint256[]"
        },
        {
          "components": [
            {
              "internalType": "uint8",
              "name": "stringStorageSlot",
              "type": "uint8"
            },
            {
              "internalType": "address",
              "name": "stringStorageAddress",
              "type": "address"
            }
          ],
          "internalType": "struct IArtwork.StringStorageData",
          "name": "_metadataJSONStringStorage",
          "type": "tuple"
        },
        {
          "components": [
            {
              "internalType": "uint8",
              "name": "stringStorageSlot",
              "type": "uint8"
            },
            {
              "internalType": "address",
              "name": "stringStorageAddress",
              "type": "address"
            }
          ],
          "internalType": "struct IArtwork.StringStorageData",
          "name": "_scriptStringStorage",
          "type": "tuple"
        }
      ],
      "stateMutability": "nonpayable",
      "type": "constructor"
    },
    {
      "inputs": [],
      "name": "AlreadySetup",
      "type": "error"
    },
    {
      "inputs": [],
      "name": "AuctionIsLive",
      "type": "error"
    },
    {
      "inputs": [],
      "name": "DuplicatePayee",
      "type": "error"
    },
    {
      "inputs": [],
      "name": "HashAlreadyUsed",
      "type": "error"
    },
    {
      "inputs": [],
      "name": "InvalidArrayLengths",
      "type": "error"
    },
    {
      "inputs": [],
      "name": "NoPayees",
      "type": "error"
    },
    {
      "inputs": [],
      "name": "NoPaymentDue",
      "type": "error"
    },
    {
      "inputs": [],
      "name": "NoShares",
      "type": "error"
    },
    {
      "inputs": [],
      "name": "NoWhitelistMints",
      "type": "error"
    },
    {
      "inputs": [],
      "name": "OnlyArtist",
      "type": "error"
    },
    {
      "inputs": [],
      "name": "OnlyArtistOrProjectRegistry",
      "type": "error"
    },
    {
      "inputs": [],
      "name": "OnlyArtworkOwner",
      "type": "error"
    },
    {
      "inputs": [],
      "name": "OnlyProjectRegistry",
      "type": "error"
    },
    {
      "inputs": [],
      "name": "ProofAlreadyMinted",
      "type": "error"
    },
    {
      "inputs": [],
      "name": "TraitsAlreadySet",
      "type": "error"
    },
    {
      "inputs": [],
      "name": "TraitsNotSet",
      "type": "error"
    },
    {
      "inputs": [],
      "name": "WhitelistStartTime",
      "type": "error"
    },
    {
      "inputs": [],
      "name": "ZeroAddress",
      "type": "error"
    },
    {
      "inputs": [],
      "name": "ZeroShares",
      "type": "error"
    },
    {
      "anonymous": false,
      "inputs": [
        {
          "indexed": true,
          "internalType": "address",
          "name": "owner",
          "type": "address"
        },
        {
          "indexed": true,
          "internalType": "address",
          "name": "approved",
          "type": "address"
        },
        {
          "indexed": true,
          "internalType": "uint256",
          "name": "tokenId",
          "type": "uint256"
        }
      ],
      "name": "Approval",
      "type": "event"
    },
    {
      "anonymous": false,
      "inputs": [
        {
          "indexed": true,
          "internalType": "address",
          "name": "owner",
          "type": "address"
        },
        {
          "indexed": true,
          "internalType": "address",
          "name": "operator",
          "type": "address"
        },
        {
          "indexed": false,
          "internalType": "bool",
          "name": "approved",
          "type": "bool"
        }
      ],
      "name": "ApprovalForAll",
      "type": "event"
    },
    {
      "anonymous": false,
      "inputs": [
        {
          "indexed": true,
          "internalType": "uint256",
          "name": "artworkTokenId",
          "type": "uint256"
        },
        {
          "indexed": false,
          "internalType": "uint256[]",
          "name": "traitTokenIds",
          "type": "uint256[]"
        },
        {
          "indexed": false,
          "internalType": "bytes32",
          "name": "hash",
          "type": "bytes32"
        },
        {
          "indexed": true,
          "internalType": "address",
          "name": "creator",
          "type": "address"
        }
      ],
      "name": "ArtworkMinted",
      "type": "event"
    },
    {
      "anonymous": false,
      "inputs": [
        {
          "indexed": true,
          "internalType": "contract IERC20",
          "name": "token",
          "type": "address"
        },
        {
          "indexed": false,
          "internalType": "address",
          "name": "to",
          "type": "address"
        },
        {
          "indexed": false,
          "internalType": "uint256",
          "name": "amount",
          "type": "uint256"
        }
      ],
      "name": "ERC20PaymentReleased",
      "type": "event"
    },
    {
      "anonymous": false,
      "inputs": [
        {
          "indexed": false,
          "internalType": "address",
          "name": "account",
          "type": "address"
        },
        {
          "indexed": false,
          "internalType": "uint256",
          "name": "shares",
          "type": "uint256"
        }
      ],
      "name": "PayeeAdded",
      "type": "event"
    },
    {
      "anonymous": false,
      "inputs": [
        {
          "indexed": false,
          "internalType": "address",
          "name": "to",
          "type": "address"
        },
        {
          "indexed": false,
          "internalType": "uint256",
          "name": "amount",
          "type": "uint256"
        }
      ],
      "name": "PaymentReleased",
      "type": "event"
    },
    {
      "anonymous": false,
      "inputs": [
        {
          "indexed": true,
          "internalType": "uint256",
          "name": "tokenId",
          "type": "uint256"
        },
        {
          "indexed": true,
          "internalType": "address",
          "name": "caller",
          "type": "address"
        }
      ],
      "name": "ProofArtworkMinted",
      "type": "event"
    },
    {
      "anonymous": false,
      "inputs": [
        {
          "indexed": true,
          "internalType": "uint256",
          "name": "artworkTokenId",
          "type": "uint256"
        },
        {
          "indexed": true,
          "internalType": "address",
          "name": "caller",
          "type": "address"
        }
      ],
      "name": "TraitsReclaimed",
      "type": "event"
    },
    {
      "anonymous": false,
      "inputs": [
        {
          "indexed": true,
          "internalType": "address",
          "name": "from",
          "type": "address"
        },
        {
          "indexed": true,
          "internalType": "address",
          "name": "to",
          "type": "address"
        },
        {
          "indexed": true,
          "internalType": "uint256",
          "name": "tokenId",
          "type": "uint256"
        }
      ],
      "name": "Transfer",
      "type": "event"
    },
    {
      "anonymous": false,
      "inputs": [
        {
          "indexed": true,
          "internalType": "uint256",
          "name": "tokenId",
          "type": "uint256"
        },
        {
          "indexed": true,
          "internalType": "address",
          "name": "caller",
          "type": "address"
        }
      ],
      "name": "WhitelistArtworkMinted",
      "type": "event"
    },
    {
      "anonymous": false,
      "inputs": [
        {
          "indexed": false,
          "internalType": "uint256",
          "name": "whitelistStartTime",
          "type": "uint256"
        },
        {
          "indexed": false,
          "internalType": "address[]",
          "name": "whitelistAddresses",
          "type": "address[]"
        },
        {
          "indexed": false,
          "internalType": "uint256[]",
          "name": "whitelistAmounts",
          "type": "uint256[]"
        }
      ],
      "name": "WhitelistUpdated",
      "type": "event"
    },
    {
      "inputs": [],
      "name": "VERSION",
      "outputs": [
        {
          "internalType": "string",
          "name": "",
          "type": "string"
        }
      ],
      "stateMutability": "view",
      "type": "function"
    },
    {
      "inputs": [
        {
          "internalType": "address",
          "name": "to",
          "type": "address"
        },
        {
          "internalType": "uint256",
          "name": "tokenId",
          "type": "uint256"
        }
      ],
      "name": "approve",
      "outputs": [],
      "stateMutability": "nonpayable",
      "type": "function"
    },
    {
      "inputs": [],
      "name": "artistAddress",
      "outputs": [
        {
          "internalType": "address",
          "name": "",
          "type": "address"
        }
      ],
      "stateMutability": "view",
      "type": "function"
    },
    {
      "inputs": [
        {
          "internalType": "uint256",
          "name": "_artworkTokenId",
          "type": "uint256"
        }
      ],
      "name": "artwork",
      "outputs": [
        {
          "internalType": "uint256[]",
          "name": "_traitTokenIds",
          "type": "uint256[]"
        },
        {
          "internalType": "string[]",
          "name": "_traitNames",
          "type": "string[]"
        },
        {
          "internalType": "string[]",
          "name": "_traitValues",
          "type": "string[]"
        },
        {
          "internalType": "string[]",
          "name": "_traitTypeNames",
          "type": "string[]"
        },
        {
          "internalType": "string[]",
          "name": "_traitTypeValues",
          "type": "string[]"
        },
        {
          "internalType": "bytes32",
          "name": "_hash",
          "type": "bytes32"
        }
      ],
      "stateMutability": "view",
      "type": "function"
    },
    {
      "inputs": [
        {
          "internalType": "address",
          "name": "owner",
          "type": "address"
        }
      ],
      "name": "balanceOf",
      "outputs": [
        {
          "internalType": "uint256",
          "name": "",
          "type": "uint256"
        }
      ],
      "stateMutability": "view",
      "type": "function"
    },
    {
      "inputs": [
        {
          "internalType": "uint256",
          "name": "tokenId",
          "type": "uint256"
        }
      ],
      "name": "getApproved",
      "outputs": [
        {
          "internalType": "address",
          "name": "",
          "type": "address"
        }
      ],
      "stateMutability": "view",
      "type": "function"
    },
    {
      "inputs": [
        {
          "internalType": "address",
          "name": "owner",
          "type": "address"
        },
        {
          "internalType": "address",
          "name": "operator",
          "type": "address"
        }
      ],
      "name": "isApprovedForAll",
      "outputs": [
        {
          "internalType": "bool",
          "name": "",
          "type": "bool"
        }
      ],
      "stateMutability": "view",
      "type": "function"
    },
    {
      "inputs": [
        {
          "internalType": "bytes32",
          "name": "_hash",
          "type": "bytes32"
        }
      ],
      "name": "isHashUsed",
      "outputs": [
        {
          "internalType": "bool",
          "name": "",
          "type": "bool"
        }
      ],
      "stateMutability": "view",
      "type": "function"
    },
    {
      "inputs": [],
      "name": "metadataJSON",
      "outputs": [
        {
          "internalType": "string",
          "name": "",
          "type": "string"
        }
      ],
      "stateMutability": "view",
      "type": "function"
    },
    {
      "inputs": [],
      "name": "metadataJSONStringStorage",
      "outputs": [
        {
          "internalType": "uint8",
          "name": "stringStorageSlot",
          "type": "uint8"
        },
        {
          "internalType": "address",
          "name": "stringStorageAddress",
          "type": "address"
        }
      ],
      "stateMutability": "view",
      "type": "function"
    },
    {
      "inputs": [
        {
          "internalType": "uint256[]",
          "name": "_traitTokenIds",
          "type": "uint256[]"
        },
        {
          "internalType": "uint256",
          "name": "_saltNonce",
          "type": "uint256"
        }
      ],
      "name": "mintArtwork",
      "outputs": [
        {
          "internalType": "uint256",
          "name": "_artworkTokenId",
          "type": "uint256"
        }
      ],
      "stateMutability": "nonpayable",
      "type": "function"
    },
    {
      "inputs": [
        {
          "internalType": "uint256[]",
          "name": "_traitTokenIds",
          "type": "uint256[]"
        },
        {
          "internalType": "uint256",
          "name": "_saltNonce",
          "type": "uint256"
        }
      ],
      "name": "mintArtworkProof",
      "outputs": [],
      "stateMutability": "nonpayable",
      "type": "function"
    },
    {
      "inputs": [
        {
          "internalType": "uint256[]",
          "name": "_traitTokenIds",
          "type": "uint256[]"
        },
        {
          "internalType": "uint256",
          "name": "_saltNonce",
          "type": "uint256"
        }
      ],
      "name": "mintArtworkWhitelist",
      "outputs": [],
      "stateMutability": "nonpayable",
      "type": "function"
    },
    {
      "inputs": [
        {
          "internalType": "uint256[]",
          "name": "_traitTokenIdsToBuy",
          "type": "uint256[]"
        },
        {
          "internalType": "uint256[]",
          "name": "_traitAmountsToBuy",
          "type": "uint256[]"
        },
        {
          "internalType": "uint256[]",
          "name": "_traitTokenIdsToCreateArtwork",
          "type": "uint256[]"
        },
        {
          "internalType": "uint256",
          "name": "_saltNonce",
          "type": "uint256"
        }
      ],
      "name": "mintTraitsAndArtwork",
      "outputs": [],
      "stateMutability": "payable",
      "type": "function"
    },
    {
      "inputs": [],
      "name": "name",
      "outputs": [
        {
          "internalType": "string",
          "name": "",
          "type": "string"
        }
      ],
      "stateMutability": "view",
      "type": "function"
    },
    {
      "inputs": [],
      "name": "nextTokenId",
      "outputs": [
        {
          "internalType": "uint256",
          "name": "",
          "type": "uint256"
        }
      ],
      "stateMutability": "view",
      "type": "function"
    },
    {
      "inputs": [
        {
          "internalType": "address",
          "name": "",
          "type": "address"
        },
        {
          "internalType": "address",
          "name": "",
          "type": "address"
        },
        {
          "internalType": "uint256[]",
          "name": "",
          "type": "uint256[]"
        },
        {
          "internalType": "uint256[]",
          "name": "",
          "type": "uint256[]"
        },
        {
          "internalType": "bytes",
          "name": "",
          "type": "bytes"
        }
      ],
      "name": "onERC1155BatchReceived",
      "outputs": [
        {
          "internalType": "bytes4",
          "name": "",
          "type": "bytes4"
        }
      ],
      "stateMutability": "nonpayable",
      "type": "function"
    },
    {
      "inputs": [
        {
          "internalType": "address",
          "name": "",
          "type": "address"
        },
        {
          "internalType": "address",
          "name": "",
          "type": "address"
        },
        {
          "internalType": "uint256",
          "name": "",
          "type": "uint256"
        },
        {
          "internalType": "uint256",
          "name": "",
          "type": "uint256"
        },
        {
          "internalType": "bytes",
          "name": "",
          "type": "bytes"
        }
      ],
      "name": "onERC1155Received",
      "outputs": [
        {
          "internalType": "bytes4",
          "name": "",
          "type": "bytes4"
        }
      ],
      "stateMutability": "nonpayable",
      "type": "function"
    },
    {
      "inputs": [
        {
          "internalType": "uint256",
          "name": "tokenId",
          "type": "uint256"
        }
      ],
      "name": "ownerOf",
      "outputs": [
        {
          "internalType": "address",
          "name": "",
          "type": "address"
        }
      ],
      "stateMutability": "view",
      "type": "function"
    },
    {
      "inputs": [
        {
          "internalType": "uint256",
          "name": "index",
          "type": "uint256"
        }
      ],
      "name": "payee",
      "outputs": [
        {
          "internalType": "address",
          "name": "",
          "type": "address"
        }
      ],
      "stateMutability": "view",
      "type": "function"
    },
    {
      "inputs": [],
      "name": "payees",
      "outputs": [
        {
          "internalType": "address[]",
          "name": "payees_",
          "type": "address[]"
        },
        {
          "internalType": "uint256[]",
          "name": "shares_",
          "type": "uint256[]"
        }
      ],
      "stateMutability": "view",
      "type": "function"
    },
    {
      "inputs": [],
      "name": "projectRegistry",
      "outputs": [
        {
          "internalType": "contract IProjectRegistry",
          "name": "",
          "type": "address"
        }
      ],
      "stateMutability": "view",
      "type": "function"
    },
    {
      "inputs": [],
      "name": "proofMinted",
      "outputs": [
        {
          "internalType": "bool",
          "name": "",
          "type": "bool"
        }
      ],
      "stateMutability": "view",
      "type": "function"
    },
    {
      "inputs": [
        {
          "internalType": "uint256",
          "name": "_artworkTokenId",
          "type": "uint256"
        }
      ],
      "name": "reclaimTraits",
      "outputs": [],
      "stateMutability": "nonpayable",
      "type": "function"
    },
    {
      "inputs": [
        {
          "internalType": "contract IERC20",
          "name": "token",
          "type": "address"
        },
        {
          "internalType": "address",
          "name": "account",
          "type": "address"
        }
      ],
      "name": "releasableERC20",
      "outputs": [
        {
          "internalType": "uint256",
          "name": "",
          "type": "uint256"
        }
      ],
      "stateMutability": "view",
      "type": "function"
    },
    {
      "inputs": [
        {
          "internalType": "address",
          "name": "account",
          "type": "address"
        }
      ],
      "name": "releasableETH",
      "outputs": [
        {
          "internalType": "uint256",
          "name": "",
          "type": "uint256"
        }
      ],
      "stateMutability": "view",
      "type": "function"
    },
    {
      "inputs": [
        {
          "internalType": "contract IERC20",
          "name": "token",
          "type": "address"
        }
      ],
      "name": "releaseERC20",
      "outputs": [],
      "stateMutability": "nonpayable",
      "type": "function"
    },
    {
      "inputs": [],
      "name": "releaseETH",
      "outputs": [],
      "stateMutability": "nonpayable",
      "type": "function"
    },
    {
      "inputs": [
        {
          "internalType": "contract IERC20",
          "name": "token",
          "type": "address"
        },
        {
          "internalType": "address",
          "name": "account",
          "type": "address"
        }
      ],
      "name": "releasedERC20",
      "outputs": [
        {
          "internalType": "uint256",
          "name": "",
          "type": "uint256"
        }
      ],
      "stateMutability": "view",
      "type": "function"
    },
    {
      "inputs": [
        {
          "internalType": "address",
          "name": "account",
          "type": "address"
        }
      ],
      "name": "releasedETH",
      "outputs": [
        {
          "internalType": "uint256",
          "name": "",
          "type": "uint256"
        }
      ],
      "stateMutability": "view",
      "type": "function"
    },
    {
      "inputs": [
        {
          "internalType": "uint256",
          "name": "_tokenId",
          "type": "uint256"
        },
        {
          "internalType": "uint256",
          "name": "_salePrice",
          "type": "uint256"
        }
      ],
      "name": "royaltyInfo",
      "outputs": [
        {
          "internalType": "address",
          "name": "",
          "type": "address"
        },
        {
          "internalType": "uint256",
          "name": "",
          "type": "uint256"
        }
      ],
      "stateMutability": "view",
      "type": "function"
    },
    {
      "inputs": [
        {
          "internalType": "address",
          "name": "from",
          "type": "address"
        },
        {
          "internalType": "address",
          "name": "to",
          "type": "address"
        },
        {
          "internalType": "uint256",
          "name": "tokenId",
          "type": "uint256"
        }
      ],
      "name": "safeTransferFrom",
      "outputs": [],
      "stateMutability": "nonpayable",
      "type": "function"
    },
    {
      "inputs": [
        {
          "internalType": "address",
          "name": "from",
          "type": "address"
        },
        {
          "internalType": "address",
          "name": "to",
          "type": "address"
        },
        {
          "internalType": "uint256",
          "name": "tokenId",
          "type": "uint256"
        },
        {
          "internalType": "bytes",
          "name": "data",
          "type": "bytes"
        }
      ],
      "name": "safeTransferFrom",
      "outputs": [],
      "stateMutability": "nonpayable",
      "type": "function"
    },
    {
      "inputs": [],
      "name": "script",
      "outputs": [
        {
          "internalType": "string",
          "name": "",
          "type": "string"
        }
      ],
      "stateMutability": "view",
      "type": "function"
    },
    {
      "inputs": [],
      "name": "scriptStringStorage",
      "outputs": [
        {
          "internalType": "uint8",
          "name": "stringStorageSlot",
          "type": "uint8"
        },
        {
          "internalType": "address",
          "name": "stringStorageAddress",
          "type": "address"
        }
      ],
      "stateMutability": "view",
      "type": "function"
    },
    {
      "inputs": [
        {
          "internalType": "address",
          "name": "operator",
          "type": "address"
        },
        {
          "internalType": "bool",
          "name": "approved",
          "type": "bool"
        }
      ],
      "name": "setApprovalForAll",
      "outputs": [],
      "stateMutability": "nonpayable",
      "type": "function"
    },
    {
      "inputs": [
        {
          "internalType": "bytes",
          "name": "_data",
          "type": "bytes"
        }
      ],
      "name": "setup",
      "outputs": [],
      "stateMutability": "nonpayable",
      "type": "function"
    },
    {
      "inputs": [
        {
          "internalType": "address",
          "name": "account",
          "type": "address"
        }
      ],
      "name": "shares",
      "outputs": [
        {
          "internalType": "uint256",
          "name": "",
          "type": "uint256"
        }
      ],
      "stateMutability": "view",
      "type": "function"
    },
    {
      "inputs": [
        {
          "internalType": "bytes4",
          "name": "interfaceId",
          "type": "bytes4"
        }
      ],
      "name": "supportsInterface",
      "outputs": [
        {
          "internalType": "bool",
          "name": "",
          "type": "bool"
        }
      ],
      "stateMutability": "view",
      "type": "function"
    },
    {
      "inputs": [],
      "name": "symbol",
      "outputs": [
        {
          "internalType": "string",
          "name": "",
          "type": "string"
        }
      ],
      "stateMutability": "view",
      "type": "function"
    },
    {
      "inputs": [
        {
          "internalType": "uint256",
          "name": "_tokenId",
          "type": "uint256"
        }
      ],
      "name": "tokenURI",
      "outputs": [
        {
          "internalType": "string",
          "name": "",
          "type": "string"
        }
      ],
      "stateMutability": "view",
      "type": "function"
    },
    {
      "inputs": [
        {
          "internalType": "contract IERC20",
          "name": "token",
          "type": "address"
        }
      ],
      "name": "totalReleasedERC20",
      "outputs": [
        {
          "internalType": "uint256",
          "name": "",
          "type": "uint256"
        }
      ],
      "stateMutability": "view",
      "type": "function"
    },
    {
      "inputs": [],
      "name": "totalReleasedETH",
      "outputs": [
        {
          "internalType": "uint256",
          "name": "",
          "type": "uint256"
        }
      ],
      "stateMutability": "view",
      "type": "function"
    },
    {
      "inputs": [],
      "name": "totalShares",
      "outputs": [
        {
          "internalType": "uint256",
          "name": "",
          "type": "uint256"
        }
      ],
      "stateMutability": "view",
      "type": "function"
    },
    {
      "inputs": [],
      "name": "traits",
      "outputs": [
        {
          "internalType": "contract ITraits",
          "name": "",
          "type": "address"
        }
      ],
      "stateMutability": "view",
      "type": "function"
    },
    {
      "inputs": [
        {
          "internalType": "address",
          "name": "from",
          "type": "address"
        },
        {
          "internalType": "address",
          "name": "to",
          "type": "address"
        },
        {
          "internalType": "uint256",
          "name": "tokenId",
          "type": "uint256"
        }
      ],
      "name": "transferFrom",
      "outputs": [],
      "stateMutability": "nonpayable",
      "type": "function"
    },
    {
      "inputs": [
        {
          "internalType": "uint256",
          "name": "_whitelistStartTime",
          "type": "uint256"
        },
        {
          "internalType": "address[]",
          "name": "_whitelistAddresses",
          "type": "address[]"
        },
        {
          "internalType": "uint256[]",
          "name": "_whitelistAmounts",
          "type": "uint256[]"
        }
      ],
      "name": "updateWhitelist",
      "outputs": [],
      "stateMutability": "nonpayable",
      "type": "function"
    },
    {
      "inputs": [
        {
          "internalType": "address",
          "name": "",
          "type": "address"
        }
      ],
      "name": "whitelistMintsRemaining",
      "outputs": [
        {
          "internalType": "uint256",
          "name": "",
          "type": "uint256"
        }
      ],
      "stateMutability": "view",
      "type": "function"
    },
    {
      "inputs": [],
      "name": "whitelistStartTime",
      "outputs": [
        {
          "internalType": "uint256",
          "name": "",
          "type": "uint256"
        }
      ],
      "stateMutability": "view",
      "type": "function"
    },
    {
      "stateMutability": "payable",
      "type": "receive"
    }
  ],
  "transactionHash": "0x9b82ba0066cdb5935f8913ed9cda27b093c5a5ec0174a7d91711969e1a3bc7f0",
  "args": [
    "Metta",
    "METTA",
    "0x6bd62FeB486Bf699Ac04eD6DC09dE36D11720509",
    "0xF5802C958c53b4aDD1fc3C584BF5C39935214B56",
    "750",
    [
      "0xA6a4Fe416F8Bf46bc3bCA068aC8b1fC4DF760653",
      "0xAa9D46AE079851116967c6573f961B304095C34a"
    ],
    [
      "500",
      "250"
    ],
    {
      "stringStorageSlot": 0,
      "stringStorageAddress": "0x41600099F04f2dBd5a0116837a805Fcc18d1259b"
    },
    {
      "stringStorageSlot": 1,
      "stringStorageAddress": "0x41600099F04f2dBd5a0116837a805Fcc18d1259b"
    }
  ],
  "numDeployments": 1,
  "solcInputHash": "fe94db9a202475b075801c7069468270",
  "bytecode": "0x60806040523480156200001157600080fd5b5060405162004c5138038062004c5183398101604081905262000034916200065d565b83838a8a600262000046838262000805565b50600362000055828262000805565b50505080518251146200007b5760405163a9854bc960e01b815260040160405180910390fd5b81516000036200009e57604051637b21919d60e01b815260040160405180910390fd5b60005b8251811015620000fe57620000f5838281518110620000c457620000c4620008d1565b6020026020010151838381518110620000e157620000e1620008d1565b6020026020010151620001a660201b60201c565b600101620000a1565b5050600f8054610100600160a81b0319166101006001600160a01b038b81169190910291909117909155601080546001600160a01b031916918916919091179055506200014c3086620002db565b8151601380546020948501516001600160a01b039081166101009081026001600160a81b031993841660ff968716171790935584516014805496909701519091169092029316911617179055506200090f95505050505050565b6001600160a01b038216620001ce5760405163d92e233d60e01b815260040160405180910390fd5b80600003620001f057604051639811e0c760e01b815260040160405180910390fd5b6001600160a01b0382166000908152600b60205260409020541562000228576040516307513e0760e21b815260040160405180910390fd5b600a8054600181019091557fc65a7bb8d6351c1cf70c95a316cc6a92839c986682d98bc35f958f4883f9d2a80180546001600160a01b0319166001600160a01b0384169081179091556000908152600b6020526040902081905560085462000292908290620008e7565b600855604080516001600160a01b0384168152602081018390527f40c340f65e17194d14ddddb073d3c9f888e3cb52b5aae0c6c7706b4fbc905fac910160405180910390a15050565b6127106001600160601b03821611156200034f5760405162461bcd60e51b815260206004820152602a60248201527f455243323938313a20726f79616c7479206665652077696c6c206578636565646044820152692073616c65507269636560b01b60648201526084015b60405180910390fd5b6001600160a01b038216620003a75760405162461bcd60e51b815260206004820152601960248201527f455243323938313a20696e76616c696420726563656976657200000000000000604482015260640162000346565b604080518082019091526001600160a01b039092168083526001600160601b039091166020909201829052600160a01b90910217600055565b634e487b7160e01b600052604160045260246000fd5b604051601f8201601f191681016001600160401b0381118282101715620004215762000421620003e0565b604052919050565b600082601f8301126200043b57600080fd5b81516001600160401b03811115620004575762000457620003e0565b60206200046d601f8301601f19168201620003f6565b82815285828487010111156200048257600080fd5b60005b83811015620004a257858101830151828201840152820162000485565b506000928101909101919091529392505050565b80516001600160a01b0381168114620004ce57600080fd5b919050565b80516001600160601b0381168114620004ce57600080fd5b60006001600160401b03821115620005075762000507620003e0565b5060051b60200190565b600082601f8301126200052357600080fd5b815160206200053c6200053683620004eb565b620003f6565b82815260059290921b840181019181810190868411156200055c57600080fd5b8286015b8481101562000582576200057481620004b6565b835291830191830162000560565b509695505050505050565b600082601f8301126200059f57600080fd5b81516020620005b26200053683620004eb565b82815260059290921b84018101918181019086841115620005d257600080fd5b8286015b84811015620005825780518352918301918301620005d6565b6000604082840312156200060257600080fd5b604080519081016001600160401b0381118282101715620006275762000627620003e0565b8060405250809150825160ff811681146200064157600080fd5b81526200065160208401620004b6565b60208201525092915050565b60008060008060008060008060006101608a8c0312156200067d57600080fd5b89516001600160401b03808211156200069557600080fd5b620006a38d838e0162000429565b9a5060208c0151915080821115620006ba57600080fd5b620006c88d838e0162000429565b9950620006d860408d01620004b6565b9850620006e860608d01620004b6565b9750620006f860808d01620004d3565b965060a08c01519150808211156200070f57600080fd5b6200071d8d838e0162000511565b955060c08c01519150808211156200073457600080fd5b50620007438c828d016200058d565b935050620007558b60e08c01620005ef565b9150620007678b6101208c01620005ef565b90509295985092959850929598565b600181811c908216806200078b57607f821691505b602082108103620007ac57634e487b7160e01b600052602260045260246000fd5b50919050565b601f8211156200080057600081815260208120601f850160051c81016020861015620007db5750805b601f850160051c820191505b81811015620007fc57828155600101620007e7565b5050505b505050565b81516001600160401b03811115620008215762000821620003e0565b620008398162000832845462000776565b84620007b2565b602080601f831160018114620008715760008415620008585750858301515b600019600386901b1c1916600185901b178555620007fc565b600085815260208120601f198616915b82811015620008a25788860151825594840194600190910190840162000881565b5085821015620008c15787850151600019600388901b60f8161c191681555b5050505050600190811b01905550565b634e487b7160e01b600052603260045260246000fd5b808201808211156200090957634e487b7160e01b600052601160045260246000fd5b92915050565b614332806200091f6000396000f3fe6080604052600436106103225760003560e01c806370a08231116101a5578063c87b56dd116100ec578063e985e9c511610095578063f4e95c6b1161006f578063f4e95c6b14610a21578063fbb4010414610a36578063ffa1ad7414610a56578063ffc1613a14610a9f57600080fd5b8063e985e9c51461097e578063ebe9eb9f146109c7578063f23a6e61146109dc57600080fd5b8063d2f4e60f116100c6578063d2f4e60f14610903578063d7eb3f3a14610939578063e1fc334f1461095e57600080fd5b8063c87b56dd14610867578063cdd9ac3814610887578063ce7c2ac2146108cd57600080fd5b806395d89b411161014e578063a22cb46511610128578063a22cb465146107c9578063b88d4fde146107e9578063bc197c811461080957600080fd5b806395d89b411461077a5780639ded06df1461078f578063a1ee0544146107af57600080fd5b806384bba6a61161017f57806384bba6a61461072f5780638b83209b146107445780639292caaf1461076457600080fd5b806370a08231146106d957806375794a3c146106f9578063820042aa1461070f57600080fd5b806342842e0e116102695780635dcb49c5116102125780636639016b116101ec5780636639016b1461069157806368ae2546146106a65780636f7e674d146106c657600080fd5b80635dcb49c5146106275780636352211e146106515780636548a7621461067157600080fd5b80634e8086aa116102435780634e8086aa146105b257806354682d72146105d55780635a33d8dc1461060757600080fd5b806342842e0e146105525780634408536514610572578063466bc0571461059257600080fd5b806320021d8b116102cb57806328798723116102a557806328798723146104b35780632a55205a146104fe5780633a98ef391461053d57600080fd5b806320021d8b1461044357806323b872dd146104735780632437abfa1461049357600080fd5b806308fd8493116102fc57806308fd8493146103bd578063095ea7b3146103df57806319766c48146103ff57600080fd5b806301ffc9a71461032e57806306fdde0314610363578063081812fc1461038557600080fd5b3661032957005b600080fd5b34801561033a57600080fd5b5061034e610349366004613580565b610acc565b60405190151581526020015b60405180910390f35b34801561036f57600080fd5b50610378610b10565b60405161035a91906135ed565b34801561039157600080fd5b506103a56103a0366004613600565b610ba2565b6040516001600160a01b03909116815260200161035a565b3480156103c957600080fd5b506103dd6103d8366004613600565b610bc9565b005b3480156103eb57600080fd5b506103dd6103fa36600461362e565b610e1d565b34801561040b57600080fd5b5061043561041a36600461365a565b6001600160a01b03166000908152600d602052604090205490565b60405190815260200161035a565b34801561044f57600080fd5b5061034e61045e366004613600565b60009081526017602052604090205460ff1690565b34801561047f57600080fd5b506103dd61048e366004613677565b610f53565b34801561049f57600080fd5b506103dd6104ae36600461365a565b610fca565b3480156104bf57600080fd5b506014546104dd9060ff81169061010090046001600160a01b031682565b6040805160ff90931683526001600160a01b0390911660208301520161035a565b34801561050a57600080fd5b5061051e6105193660046136b8565b6110d3565b604080516001600160a01b03909316835260208301919091520161035a565b34801561054957600080fd5b50600854610435565b34801561055e57600080fd5b506103dd61056d366004613677565b611190565b34801561057e57600080fd5b506103dd61058d36600461371f565b6111ab565b34801561059e57600080fd5b506104356105ad36600461376b565b6112f8565b3480156105be57600080fd5b506105c76113e1565b60405161035a929190613818565b3480156105e157600080fd5b506105f56105f0366004613600565b611500565b60405161035a9695949392919061389e565b34801561061357600080fd5b506010546103a5906001600160a01b031681565b34801561063357600080fd5b506013546104dd9060ff81169061010090046001600160a01b031682565b34801561065d57600080fd5b506103a561066c366004613600565b6117e6565b34801561067d57600080fd5b5061043561068c36600461365a565b61184b565b34801561069d57600080fd5b506103dd61188e565b3480156106b257600080fd5b506104356106c136600461371f565b61195d565b6103dd6106d4366004613913565b611b1d565b3480156106e557600080fd5b506104356106f436600461365a565b611bb7565b34801561070557600080fd5b5061043560125481565b34801561071b57600080fd5b506103dd61072a366004613af0565b611c51565b34801561073b57600080fd5b50600954610435565b34801561075057600080fd5b506103a561075f366004613600565b611d44565b34801561077057600080fd5b5061043560155481565b34801561078657600080fd5b50610378611d74565b34801561079b57600080fd5b506103dd6107aa366004613b5d565b611d83565b3480156107bb57600080fd5b50600f5461034e9060ff1681565b3480156107d557600080fd5b506103dd6107e4366004613bdd565b611e3a565b3480156107f557600080fd5b506103dd610804366004613c84565b611e49565b34801561081557600080fd5b5061084e610824366004613cf0565b7fbc197c810000000000000000000000000000000000000000000000000000000095945050505050565b6040516001600160e01b0319909116815260200161035a565b34801561087357600080fd5b50610378610882366004613600565b611ec7565b34801561089357600080fd5b506104356108a236600461376b565b6001600160a01b039182166000908152600e6020908152604080832093909416825291909152205490565b3480156108d957600080fd5b506104356108e836600461365a565b6001600160a01b03166000908152600b602052604090205490565b34801561090f57600080fd5b5061043561091e36600461365a565b6001600160a01b03166000908152600c602052604090205490565b34801561094557600080fd5b50600f546103a59061010090046001600160a01b031681565b34801561096a57600080fd5b506011546103a5906001600160a01b031681565b34801561098a57600080fd5b5061034e61099936600461376b565b6001600160a01b03918216600090815260076020908152604080832093909416825291909152205460ff1690565b3480156109d357600080fd5b50610378611fa1565b3480156109e857600080fd5b5061084e6109f7366004613d9e565b7ff23a6e610000000000000000000000000000000000000000000000000000000095945050505050565b348015610a2d57600080fd5b50610378612020565b348015610a4257600080fd5b506103dd610a5136600461371f565b612059565b348015610a6257600080fd5b506103786040518060400160405280600381526020017f312e30000000000000000000000000000000000000000000000000000000000081525081565b348015610aab57600080fd5b50610435610aba36600461365a565b60186020526000908152604090205481565b60006001600160e01b031982167ff253a9c1000000000000000000000000000000000000000000000000000000001480610b0a5750610b0a826121ae565b92915050565b606060028054610b1f90613e07565b80601f0160208091040260200160405190810160405280929190818152602001828054610b4b90613e07565b8015610b985780601f10610b6d57610100808354040283529160200191610b98565b820191906000526020600020905b815481529060010190602001808311610b7b57829003601f168201915b5050505050905090565b6000610bad826121ec565b506000908152600660205260409020546001600160a01b031690565b6000818152600460205260409020546001600160a01b03163314610c19576040517f1002a8dd00000000000000000000000000000000000000000000000000000000815260040160405180910390fd5b600081815260166020908152604080832060010180548251818502810185019093528083529192909190830182828015610c7257602002820191906000526020600020905b815481526020019060010190808311610c5e575b5050506000858152601660205260408120819055929350610c91915050565b604051908082528060200260200182016040528015610cba578160200160208202803683370190505b50601660008481526020019081526020016000206001019080519060200190610ce49291906134cf565b506000815167ffffffffffffffff811115610d0157610d016139b6565b604051908082528060200260200182016040528015610d2a578160200160208202803683370190505b50905060005b8151811015610d60576001828281518110610d4d57610d4d613e41565b6020908102919091010152600101610d30565b50610d6a83612253565b6011546040517f2eb2c2d60000000000000000000000000000000000000000000000000000000081526001600160a01b0390911690632eb2c2d690610db9903090339087908790600401613e57565b600060405180830381600087803b158015610dd357600080fd5b505af1158015610de7573d6000803e3d6000fd5b50506040513392508591507f3a68f3980ec5280d87be81c5fa8cd81617be9bbf157acbe71d9321dca391e6a890600090a3505050565b6000610e28826117e6565b9050806001600160a01b0316836001600160a01b031603610eb65760405162461bcd60e51b815260206004820152602160248201527f4552433732313a20617070726f76616c20746f2063757272656e74206f776e6560448201527f720000000000000000000000000000000000000000000000000000000000000060648201526084015b60405180910390fd5b336001600160a01b0382161480610ed25750610ed28133610999565b610f445760405162461bcd60e51b815260206004820152603d60248201527f4552433732313a20617070726f76652063616c6c6572206973206e6f7420746f60448201527f6b656e206f776e6572206f7220617070726f76656420666f7220616c6c0000006064820152608401610ead565b610f4e83836122f6565b505050565b610f5d3382612364565b610fbf5760405162461bcd60e51b815260206004820152602d60248201527f4552433732313a2063616c6c6572206973206e6f7420746f6b656e206f776e6560448201526c1c881bdc88185c1c1c9bdd9959609a1b6064820152608401610ead565b610f4e8383836123e2565b336000908152600b60205260408120549003610ff95760405163b317087b60e01b815260040160405180910390fd5b600061100582336112f8565b9050806000036110285760405163589b68c960e01b815260040160405180910390fd5b6001600160a01b0382166000908152600d602052604081208054839290611050908490613ec8565b90915550506001600160a01b0382166000908152600e6020908152604080832033808552925290912080548301905561108b908390836125e8565b60408051338152602081018390526001600160a01b038416917f3be5b7a71e84ed12875d241991c70855ac5817d847039e17a9d895c1ceb0f18a910160405180910390a25050565b60008281526001602090815260408083208151808301909252546001600160a01b038116808352600160a01b9091046bffffffffffffffffffffffff169282019290925282916111525750604080518082019091526000546001600160a01b0381168252600160a01b90046bffffffffffffffffffffffff1660208201525b602081015160009061271090611176906bffffffffffffffffffffffff1687613edb565b6111809190613ef2565b91519350909150505b9250929050565b610f4e83838360405180602001604052806000815250611e49565b6015544210156111e7576040517f0ad21f0100000000000000000000000000000000000000000000000000000000815260040160405180910390fd5b33600090815260186020526040812054900361122f576040517f52a14acc00000000000000000000000000000000000000000000000000000000815260040160405180910390fd5b33600090815260186020526040812080549161124a83613f14565b9091555050601154604051630f512fe360e41b81526001600160a01b039091169063f512fe309061128390339087908790600401613f76565b600060405180830381600087803b15801561129d57600080fd5b505af11580156112b1573d6000803e3d6000fd5b5050505060006112c284848461195d565b604051909150339082907f25f077b95d0a6da5ca8514e48fced92d2e9975e1efafa3bb33d1417bdb335c5990600090a350505050565b6001600160a01b0382166000908152600d602052604081205481906040517f70a082310000000000000000000000000000000000000000000000000000000081523060048201526001600160a01b038616906370a0823190602401602060405180830381865afa158015611370573d6000803e3d6000fd5b505050506040513d601f19601f820116820180604052508101906113949190613f99565b61139e9190613ec8565b6001600160a01b038086166000908152600e60209081526040808320938816835292905220549091506113d99084908390612668565b612668565b949350505050565b606080600a80548060200260200160405190810160405280929190818152602001828054801561143a57602002820191906000526020600020905b81546001600160a01b0316815260019091019060200180831161141c575b5050600a54939550839250505067ffffffffffffffff81111561145f5761145f6139b6565b604051908082528060200260200182016040528015611488578160200160208202803683370190505b50915060005b818110156114fa57600b60008583815181106114ac576114ac613e41565b60200260200101516001600160a01b03166001600160a01b03168152602001908152602001600020548382815181106114e7576114e7613e41565b602090810291909101015260010161148e565b50509091565b60608060608060606000611513876121ec565b60008781526016602090815260409182902060010180548351818402810184019094528084529291839083018282801561156c57602002820191906000526020600020905b815481526020019060010190808311611558575b505050505096508067ffffffffffffffff81111561158c5761158c6139b6565b6040519080825280602002602001820160405280156115bf57816020015b60608152602001906001900390816115aa5790505b5095508067ffffffffffffffff8111156115db576115db6139b6565b60405190808252806020026020018201604052801561160e57816020015b60608152602001906001900390816115f95790505b5094508067ffffffffffffffff81111561162a5761162a6139b6565b60405190808252806020026020018201604052801561165d57816020015b60608152602001906001900390816116485790505b5093508067ffffffffffffffff811115611679576116796139b6565b6040519080825280602002602001820160405280156116ac57816020015b60608152602001906001900390816116975790505b50925060005b818110156117c95760115488516001600160a01b039091169063f3457fdf908a90849081106116e3576116e3613e41565b60200260200101516040518263ffffffff1660e01b815260040161170991815260200190565b600060405180830381865afa158015611726573d6000803e3d6000fd5b505050506040513d6000823e601f3d908101601f1916820160405261174e9190810190613ff7565b8a858151811061176057611760613e41565b602002602001018a868151811061177957611779613e41565b602002602001018a878151811061179257611792613e41565b602002602001018a88815181106117ab576117ab613e41565b602090810291909101019390935292909152919052526001016116b2565b505050600095865260166020526040909520549395929491939092565b6000818152600460205260408120546001600160a01b031680610b0a5760405162461bcd60e51b815260206004820152601860248201527f4552433732313a20696e76616c696420746f6b656e20494400000000000000006044820152606401610ead565b60008061185760095490565b6118619047613ec8565b905061188783826113d4866001600160a01b03166000908152600c602052604090205490565b9392505050565b336000908152600b602052604081205490036118bd5760405163b317087b60e01b815260040160405180910390fd5b60006118c83361184b565b9050806000036118eb5760405163589b68c960e01b815260040160405180910390fd5b80600960008282546118fd9190613ec8565b9091555050336000818152600c6020526040902080548301905561192190826126a6565b60408051338152602081018390527fdf20fd1e76bc69d672e4814fafb2c449bba3a5369d8359adf9e05e6fde87b056910160405180910390a150565b6040516bffffffffffffffffffffffff1930606090811b8216602084015233901b16603482015260488101829052600090819060680160408051601f1981840301815291815281516020928301206000818152601790935291205490915060ff16156119f5576040517f3f73465400000000000000000000000000000000000000000000000000000000815260040160405180910390fd5b60128054906000611a0583614098565b909155506000818152601660205260409020828155909250611a2b90600101868661351a565b5060008181526017602052604090819020805460ff1916600117905560115490517f37b2383f0000000000000000000000000000000000000000000000000000000081526001600160a01b03909116906337b2383f90611a9390339089908990600401613f76565b600060405180830381600087803b158015611aad57600080fd5b505af1158015611ac1573d6000803e3d6000fd5b50505050611acf33836127bf565b336001600160a01b0316827f61e13485a36a1bab49bdef2c6884595827c2f5caf9160aff3047f78fae8d01e9878785604051611b0d939291906140b1565b60405180910390a3509392505050565b6011546040517f5bf1af440000000000000000000000000000000000000000000000000000000081526001600160a01b0390911690635bf1af44903490611b709033908c908c908c908c906004016140d5565b6000604051808303818588803b158015611b8957600080fd5b505af1158015611b9d573d6000803e3d6000fd5b5050505050611bad83838361195d565b5050505050505050565b60006001600160a01b038216611c355760405162461bcd60e51b815260206004820152602960248201527f4552433732313a2061646472657373207a65726f206973206e6f74206120766160448201527f6c6964206f776e657200000000000000000000000000000000000000000000006064820152608401610ead565b506001600160a01b031660009081526005602052604090205490565b6010546001600160a01b03163314611c7c57604051630b35571f60e21b815260040160405180910390fd5b601154604080517feb54f9ec000000000000000000000000000000000000000000000000000000008152905142926001600160a01b03169163eb54f9ec9160048083019260209291908290030181865afa158015611cde573d6000803e3d6000fd5b505050506040513d601f19601f82011682018060405250810190611d029190613f99565b11611d39576040517f6fce86a800000000000000000000000000000000000000000000000000000000815260040160405180910390fd5b610f4e8383836127d9565b6000600a8281548110611d5957611d59613e41565b6000918252602090912001546001600160a01b031692915050565b606060038054610b1f90613e07565b6010546001600160a01b03163314611dae57604051630b35571f60e21b815260040160405180910390fd5b6011546001600160a01b031615611df1576040517f7735869100000000000000000000000000000000000000000000000000000000815260040160405180910390fd5b6000808080611e0285870187614117565b601180546001600160a01b0319166001600160a01b03861617905592965090945092509050611e328383836127d9565b505050505050565b611e453383836128c2565b5050565b611e533383612364565b611eb55760405162461bcd60e51b815260206004820152602d60248201527f4552433732313a2063616c6c6572206973206e6f7420746f6b656e206f776e6560448201526c1c881bdc88185c1c1c9bdd9959609a1b6064820152608401610ead565b611ec184848484612990565b50505050565b60606000601060009054906101000a90046001600160a01b03166001600160a01b0316636c0360eb6040518163ffffffff1660e01b8152600401600060405180830381865afa158015611f1e573d6000803e3d6000fd5b505050506040513d6000823e601f3d908101601f19168201604052611f46919081019061418b565b90508051600003611f665760405180602001604052806000815250611887565b80611f7030612a0e565b611f7985612a24565b604051602001611f8b939291906141c0565b6040516020818303038152906040529392505050565b60145460405163181957f960e21b815260ff8216600482015260609161010090046001600160a01b0316906360655fe4906024015b600060405180830381865afa158015611ff3573d6000803e3d6000fd5b505050506040513d6000823e601f3d908101601f1916820160405261201b919081019061418b565b905090565b60135460405163181957f960e21b815260ff8216600482015260609161010090046001600160a01b0316906360655fe490602401611fd6565b600f5460ff1615612096576040517f4f05cdd500000000000000000000000000000000000000000000000000000000815260040160405180910390fd5b600f5461010090046001600160a01b031633148015906120c157506010546001600160a01b03163314155b156120f8576040517f3ec0dfc600000000000000000000000000000000000000000000000000000000815260040160405180910390fd5b600f805460ff19166001179055601154604051630f512fe360e41b81526001600160a01b039091169063f512fe309061213990339087908790600401613f76565b600060405180830381600087803b15801561215357600080fd5b505af1158015612167573d6000803e3d6000fd5b50505050600061217884848461195d565b604051909150339082907f7a2cdd235113f89f2624bfbea5174a8f5d8340424b1e1bab1c66079b6a69649290600090a350505050565b60006001600160e01b031982167f4e2312e0000000000000000000000000000000000000000000000000000000001480610b0a5750610b0a82612ac4565b6000818152600460205260409020546001600160a01b03166122505760405162461bcd60e51b815260206004820152601860248201527f4552433732313a20696e76616c696420746f6b656e20494400000000000000006044820152606401610ead565b50565b600061225e826117e6565b905061226e816000846001612b36565b612277826117e6565b600083815260066020908152604080832080546001600160a01b03199081169091556001600160a01b0385168085526005845282852080546000190190558785526004909352818420805490911690555192935084927fddf252ad1be2c89b69c2b068fc378daa952ba7f163c4a11628f55a4df523b3ef908390a45050565b600081815260066020526040902080546001600160a01b0319166001600160a01b038416908117909155819061232b826117e6565b6001600160a01b03167f8c5be1e5ebec7d5bd14f71427d1e84f3dd0314c0f7b2291e5b200ac8c7c3b92560405160405180910390a45050565b600080612370836117e6565b9050806001600160a01b0316846001600160a01b031614806123b757506001600160a01b0380821660009081526007602090815260408083209388168352929052205460ff165b806113d95750836001600160a01b03166123d084610ba2565b6001600160a01b031614949350505050565b826001600160a01b03166123f5826117e6565b6001600160a01b0316146124595760405162461bcd60e51b815260206004820152602560248201527f4552433732313a207472616e736665722066726f6d20696e636f72726563742060448201526437bbb732b960d91b6064820152608401610ead565b6001600160a01b0382166124d45760405162461bcd60e51b8152602060048201526024808201527f4552433732313a207472616e7366657220746f20746865207a65726f2061646460448201527f72657373000000000000000000000000000000000000000000000000000000006064820152608401610ead565b6124e18383836001612b36565b826001600160a01b03166124f4826117e6565b6001600160a01b0316146125585760405162461bcd60e51b815260206004820152602560248201527f4552433732313a207472616e736665722066726f6d20696e636f72726563742060448201526437bbb732b960d91b6064820152608401610ead565b600081815260066020908152604080832080546001600160a01b03199081169091556001600160a01b0387811680865260058552838620805460001901905590871680865283862080546001019055868652600490945282852080549092168417909155905184937fddf252ad1be2c89b69c2b068fc378daa952ba7f163c4a11628f55a4df523b3ef91a4505050565b604080516001600160a01b038416602482015260448082018490528251808303909101815260649091019091526020810180517bffffffffffffffffffffffffffffffffffffffffffffffffffffffff167fa9059cbb00000000000000000000000000000000000000000000000000000000179052610f4e908490612bbe565b6008546001600160a01b0384166000908152600b6020526040812054909183916126929086613edb565b61269c9190613ef2565b6113d9919061422c565b804710156126f65760405162461bcd60e51b815260206004820152601d60248201527f416464726573733a20696e73756666696369656e742062616c616e63650000006044820152606401610ead565b6000826001600160a01b03168260405160006040518083038185875af1925050503d8060008114612743576040519150601f19603f3d011682016040523d82523d6000602084013e612748565b606091505b5050905080610f4e5760405162461bcd60e51b815260206004820152603a60248201527f416464726573733a20756e61626c6520746f2073656e642076616c75652c207260448201527f6563697069656e74206d617920686176652072657665727465640000000000006064820152608401610ead565b611e45828260405180602001604052806000815250612ca3565b8051825114612814576040517fa9854bc900000000000000000000000000000000000000000000000000000000815260040160405180910390fd5b601583905560005b82518110156128815781818151811061283757612837613e41565b60200260200101516018600085848151811061285557612855613e41565b6020908102919091018101516001600160a01b031682528101919091526040016000205560010161281c565b507f8ff5bb8f2bb6921b8d5aa3dca0c2d14f8b69e4213541990edc835862e5f578098383836040516128b59392919061423f565b60405180910390a1505050565b816001600160a01b0316836001600160a01b0316036129235760405162461bcd60e51b815260206004820152601960248201527f4552433732313a20617070726f766520746f2063616c6c6572000000000000006044820152606401610ead565b6001600160a01b03838116600081815260076020908152604080832094871680845294825291829020805460ff191686151590811790915591519182527f17307eab39ab6107e8899845ad3d59bd9653f200f220920489ca2b5937696c31910160405180910390a3505050565b61299b8484846123e2565b6129a784848484612d21565b611ec15760405162461bcd60e51b815260206004820152603260248201527f4552433732313a207472616e7366657220746f206e6f6e20455243373231526560448201527131b2b4bb32b91034b6b83632b6b2b73a32b960711b6064820152608401610ead565b6060610b0a6001600160a01b0383166014612e6d565b60606000612a318361304e565b600101905060008167ffffffffffffffff811115612a5157612a516139b6565b6040519080825280601f01601f191660200182016040528015612a7b576020820181803683370190505b5090508181016020015b600019017f3031323334353637383961626364656600000000000000000000000000000000600a86061a8153600a8504945084612a8557509392505050565b60006001600160e01b031982167f80ac58cd000000000000000000000000000000000000000000000000000000001480612b2757506001600160e01b031982167f5b5e139f00000000000000000000000000000000000000000000000000000000145b80610b0a5750610b0a82613130565b6001811115611ec1576001600160a01b03841615612b7c576001600160a01b03841660009081526005602052604081208054839290612b7690849061422c565b90915550505b6001600160a01b03831615611ec1576001600160a01b03831660009081526005602052604081208054839290612bb3908490613ec8565b909155505050505050565b6000612c13826040518060400160405280602081526020017f5361666545524332303a206c6f772d6c6576656c2063616c6c206661696c6564815250856001600160a01b03166131979092919063ffffffff16565b805190915015610f4e5780806020019051810190612c319190614274565b610f4e5760405162461bcd60e51b815260206004820152602a60248201527f5361666545524332303a204552433230206f7065726174696f6e20646964206e60448201527f6f742073756363656564000000000000000000000000000000000000000000006064820152608401610ead565b612cad83836131a6565b612cba6000848484612d21565b610f4e5760405162461bcd60e51b815260206004820152603260248201527f4552433732313a207472616e7366657220746f206e6f6e20455243373231526560448201527131b2b4bb32b91034b6b83632b6b2b73a32b960711b6064820152608401610ead565b60006001600160a01b0384163b15612e6257604051630a85bd0160e11b81526001600160a01b0385169063150b7a0290612d65903390899088908890600401614291565b6020604051808303816000875af1925050508015612da0575060408051601f3d908101601f19168201909252612d9d918101906142c3565b60015b612e48573d808015612dce576040519150601f19603f3d011682016040523d82523d6000602084013e612dd3565b606091505b508051600003612e405760405162461bcd60e51b815260206004820152603260248201527f4552433732313a207472616e7366657220746f206e6f6e20455243373231526560448201527131b2b4bb32b91034b6b83632b6b2b73a32b960711b6064820152608401610ead565b805181602001fd5b6001600160e01b031916630a85bd0160e11b1490506113d9565b506001949350505050565b60606000612e7c836002613edb565b612e87906002613ec8565b67ffffffffffffffff811115612e9f57612e9f6139b6565b6040519080825280601f01601f191660200182016040528015612ec9576020820181803683370190505b5090507f300000000000000000000000000000000000000000000000000000000000000081600081518110612f0057612f00613e41565b60200101906001600160f81b031916908160001a9053507f780000000000000000000000000000000000000000000000000000000000000081600181518110612f4b57612f4b613e41565b60200101906001600160f81b031916908160001a9053506000612f6f846002613edb565b612f7a906001613ec8565b90505b6001811115612fff577f303132333435363738396162636465660000000000000000000000000000000085600f1660108110612fbb57612fbb613e41565b1a60f81b828281518110612fd157612fd1613e41565b60200101906001600160f81b031916908160001a90535060049490941c93612ff881613f14565b9050612f7d565b5083156118875760405162461bcd60e51b815260206004820181905260248201527f537472696e67733a20686578206c656e67746820696e73756666696369656e746044820152606401610ead565b6000807a184f03e93ff9f4daa797ed6e38ed64bf6a1f0100000000000000008310613097577a184f03e93ff9f4daa797ed6e38ed64bf6a1f010000000000000000830492506040015b6d04ee2d6d415b85acef810000000083106130c3576d04ee2d6d415b85acef8100000000830492506020015b662386f26fc1000083106130e157662386f26fc10000830492506010015b6305f5e10083106130f9576305f5e100830492506008015b612710831061310d57612710830492506004015b6064831061311f576064830492506002015b600a8310610b0a5760010192915050565b60006001600160e01b031982167f2a55205a000000000000000000000000000000000000000000000000000000001480610b0a57507f01ffc9a7000000000000000000000000000000000000000000000000000000006001600160e01b0319831614610b0a565b60606113d9848460008561333f565b6001600160a01b0382166131fc5760405162461bcd60e51b815260206004820181905260248201527f4552433732313a206d696e7420746f20746865207a65726f20616464726573736044820152606401610ead565b6000818152600460205260409020546001600160a01b0316156132615760405162461bcd60e51b815260206004820152601c60248201527f4552433732313a20746f6b656e20616c7265616479206d696e746564000000006044820152606401610ead565b61326f600083836001612b36565b6000818152600460205260409020546001600160a01b0316156132d45760405162461bcd60e51b815260206004820152601c60248201527f4552433732313a20746f6b656e20616c7265616479206d696e746564000000006044820152606401610ead565b6001600160a01b038216600081815260056020908152604080832080546001019055848352600490915280822080546001600160a01b0319168417905551839291907fddf252ad1be2c89b69c2b068fc378daa952ba7f163c4a11628f55a4df523b3ef908290a45050565b6060824710156133b75760405162461bcd60e51b815260206004820152602660248201527f416464726573733a20696e73756666696369656e742062616c616e636520666f60448201527f722063616c6c00000000000000000000000000000000000000000000000000006064820152608401610ead565b600080866001600160a01b031685876040516133d391906142e0565b60006040518083038185875af1925050503d8060008114613410576040519150601f19603f3d011682016040523d82523d6000602084013e613415565b606091505b509150915061342687838387613431565b979650505050505050565b606083156134a0578251600003613499576001600160a01b0385163b6134995760405162461bcd60e51b815260206004820152601d60248201527f416464726573733a2063616c6c20746f206e6f6e2d636f6e74726163740000006044820152606401610ead565b50816113d9565b6113d983838151156134b55781518083602001fd5b8060405162461bcd60e51b8152600401610ead91906135ed565b82805482825590600052602060002090810192821561350a579160200282015b8281111561350a5782518255916020019190600101906134ef565b50613516929150613555565b5090565b82805482825590600052602060002090810192821561350a579160200282015b8281111561350a57823582559160200191906001019061353a565b5b808211156135165760008155600101613556565b6001600160e01b03198116811461225057600080fd5b60006020828403121561359257600080fd5b81356118878161356a565b60005b838110156135b85781810151838201526020016135a0565b50506000910152565b600081518084526135d981602086016020860161359d565b601f01601f19169290920160200192915050565b60208152600061188760208301846135c1565b60006020828403121561361257600080fd5b5035919050565b6001600160a01b038116811461225057600080fd5b6000806040838503121561364157600080fd5b823561364c81613619565b946020939093013593505050565b60006020828403121561366c57600080fd5b813561188781613619565b60008060006060848603121561368c57600080fd5b833561369781613619565b925060208401356136a781613619565b929592945050506040919091013590565b600080604083850312156136cb57600080fd5b50508035926020909101359150565b60008083601f8401126136ec57600080fd5b50813567ffffffffffffffff81111561370457600080fd5b6020830191508360208260051b850101111561118957600080fd5b60008060006040848603121561373457600080fd5b833567ffffffffffffffff81111561374b57600080fd5b613757868287016136da565b909790965060209590950135949350505050565b6000806040838503121561377e57600080fd5b823561378981613619565b9150602083013561379981613619565b809150509250929050565b600081518084526020808501945080840160005b838110156137dd5781516001600160a01b0316875295820195908201906001016137b8565b509495945050505050565b600081518084526020808501945080840160005b838110156137dd578151875295820195908201906001016137fc565b60408152600061382b60408301856137a4565b828103602084015261383d81856137e8565b95945050505050565b600082825180855260208086019550808260051b84010181860160005b8481101561389157601f1986840301895261387f8383516135c1565b98840198925090830190600101613863565b5090979650505050505050565b60c0815260006138b160c08301896137e8565b82810360208401526138c38189613846565b905082810360408401526138d78188613846565b905082810360608401526138eb8187613846565b905082810360808401526138ff8186613846565b9150508260a0830152979650505050505050565b60008060008060008060006080888a03121561392e57600080fd5b873567ffffffffffffffff8082111561394657600080fd5b6139528b838c016136da565b909950975060208a013591508082111561396b57600080fd5b6139778b838c016136da565b909750955060408a013591508082111561399057600080fd5b5061399d8a828b016136da565b989b979a50959894979596606090950135949350505050565b634e487b7160e01b600052604160045260246000fd5b604051601f8201601f1916810167ffffffffffffffff811182821017156139f5576139f56139b6565b604052919050565b600067ffffffffffffffff821115613a1757613a176139b6565b5060051b60200190565b600082601f830112613a3257600080fd5b81356020613a47613a42836139fd565b6139cc565b82815260059290921b84018101918181019086841115613a6657600080fd5b8286015b84811015613a8a578035613a7d81613619565b8352918301918301613a6a565b509695505050505050565b600082601f830112613aa657600080fd5b81356020613ab6613a42836139fd565b82815260059290921b84018101918181019086841115613ad557600080fd5b8286015b84811015613a8a5780358352918301918301613ad9565b600080600060608486031215613b0557600080fd5b83359250602084013567ffffffffffffffff80821115613b2457600080fd5b613b3087838801613a21565b93506040860135915080821115613b4657600080fd5b50613b5386828701613a95565b9150509250925092565b60008060208385031215613b7057600080fd5b823567ffffffffffffffff80821115613b8857600080fd5b818501915085601f830112613b9c57600080fd5b813581811115613bab57600080fd5b866020828501011115613bbd57600080fd5b60209290920196919550909350505050565b801515811461225057600080fd5b60008060408385031215613bf057600080fd5b8235613bfb81613619565b9150602083013561379981613bcf565b600067ffffffffffffffff821115613c2557613c256139b6565b50601f01601f191660200190565b600082601f830112613c4457600080fd5b8135613c52613a4282613c0b565b818152846020838601011115613c6757600080fd5b816020850160208301376000918101602001919091529392505050565b60008060008060808587031215613c9a57600080fd5b8435613ca581613619565b93506020850135613cb581613619565b925060408501359150606085013567ffffffffffffffff811115613cd857600080fd5b613ce487828801613c33565b91505092959194509250565b600080600080600060a08688031215613d0857600080fd5b8535613d1381613619565b94506020860135613d2381613619565b9350604086013567ffffffffffffffff80821115613d4057600080fd5b613d4c89838a01613a95565b94506060880135915080821115613d6257600080fd5b613d6e89838a01613a95565b93506080880135915080821115613d8457600080fd5b50613d9188828901613c33565b9150509295509295909350565b600080600080600060a08688031215613db657600080fd5b8535613dc181613619565b94506020860135613dd181613619565b93506040860135925060608601359150608086013567ffffffffffffffff811115613dfb57600080fd5b613d9188828901613c33565b600181811c90821680613e1b57607f821691505b602082108103613e3b57634e487b7160e01b600052602260045260246000fd5b50919050565b634e487b7160e01b600052603260045260246000fd5b60006001600160a01b03808716835280861660208401525060a06040830152613e8360a08301856137e8565b8281036060840152613e9581856137e8565b838103608090940193909352505060008152602001949350505050565b634e487b7160e01b600052601160045260246000fd5b80820180821115610b0a57610b0a613eb2565b8082028115828204841417610b0a57610b0a613eb2565b600082613f0f57634e487b7160e01b600052601260045260246000fd5b500490565b600081613f2357613f23613eb2565b506000190190565b81835260007f07ffffffffffffffffffffffffffffffffffffffffffffffffffffffffffffff831115613f5d57600080fd5b8260051b80836020870137939093016020019392505050565b6001600160a01b038416815260406020820152600061383d604083018486613f2b565b600060208284031215613fab57600080fd5b5051919050565b600082601f830112613fc357600080fd5b8151613fd1613a4282613c0b565b818152846020838601011115613fe657600080fd5b6113d982602083016020870161359d565b6000806000806080858703121561400d57600080fd5b845167ffffffffffffffff8082111561402557600080fd5b61403188838901613fb2565b9550602087015191508082111561404757600080fd5b61405388838901613fb2565b9450604087015191508082111561406957600080fd5b61407588838901613fb2565b9350606087015191508082111561408b57600080fd5b50613ce487828801613fb2565b6000600182016140aa576140aa613eb2565b5060010190565b6040815260006140c5604083018587613f2b565b9050826020830152949350505050565b6001600160a01b03861681526060602082015260006140f8606083018688613f2b565b828103604084015261410b818587613f2b565b98975050505050505050565b6000806000806080858703121561412d57600080fd5b843561413881613619565b935060208501359250604085013567ffffffffffffffff8082111561415c57600080fd5b61416888838901613a21565b9350606087013591508082111561417e57600080fd5b50613ce487828801613a95565b60006020828403121561419d57600080fd5b815167ffffffffffffffff8111156141b457600080fd5b6113d984828501613fb2565b600084516141d281846020890161359d565b8451908301906141e681836020890161359d565b7f2f000000000000000000000000000000000000000000000000000000000000009101908152835161421f81600184016020880161359d565b0160010195945050505050565b81810381811115610b0a57610b0a613eb2565b83815260606020820152600061425860608301856137a4565b828103604084015261426a81856137e8565b9695505050505050565b60006020828403121561428657600080fd5b815161188781613bcf565b60006001600160a01b0380871683528086166020840152508360408301526080606083015261426a60808301846135c1565b6000602082840312156142d557600080fd5b81516118878161356a565b600082516142f281846020870161359d565b919091019291505056fea2646970667358221220403ca7ff291c5add4a5cfb384c1b79bc07cab86ca7aaa43caabe26c851c8694064736f6c63430008130033",
  "devdoc": {
    "events": {
      "Approval(address,address,uint256)": {
        "details": "Emitted when `owner` enables `approved` to manage the `tokenId` token."
      },
      "ApprovalForAll(address,address,bool)": {
        "details": "Emitted when `owner` enables or disables (`approved`) `operator` to manage all of its assets."
      },
      "Transfer(address,address,uint256)": {
        "details": "Emitted when `tokenId` token is transferred from `from` to `to`."
      }
    },
    "kind": "dev",
    "methods": {
      "approve(address,uint256)": {
        "details": "See {IERC721-approve}."
      },
      "artwork(uint256)": {
        "params": {
          "_artworkTokenId": "token ID of the artwork"
        },
        "returns": {
          "_hash": "the artwork hash",
          "_traitNames": "the human readable trait names contained in the artwork",
          "_traitTokenIds": "the token IDs of the traits the artwork contains",
          "_traitTypeNames": "the human readable trait type names",
          "_traitTypeValues": "the trait type values used by the generative script",
          "_traitValues": "the trait values used by the generative script"
        }
      },
      "balanceOf(address)": {
        "details": "See {IERC721-balanceOf}."
      },
      "getApproved(uint256)": {
        "details": "See {IERC721-getApproved}."
      },
      "isApprovedForAll(address,address)": {
        "details": "See {IERC721-isApprovedForAll}."
      },
      "isHashUsed(bytes32)": {
        "params": {
          "_hash": "the artwork seed hash"
        },
        "returns": {
          "_0": "bool whether the hash has been used"
        }
      },
      "metadataJSON()": {
        "returns": {
          "_0": "string the project metadata in JSON format"
        }
      },
      "mintArtwork(uint256[],uint256)": {
        "params": {
          "_saltNonce": "salt number that is used to generate the artwork hash",
          "_traitTokenIds": "the trait token IDs to create the artwork with"
        },
        "returns": {
          "_artworkTokenId": "the token ID of the newly minted artwork"
        }
      },
      "mintArtworkProof(uint256[],uint256)": {
        "params": {
          "_saltNonce": "salt number that is used to generate the artwork hash",
          "_traitTokenIds": "token IDs of the traits to use to create the artwork"
        }
      },
      "mintArtworkWhitelist(uint256[],uint256)": {
        "params": {
          "_saltNonce": "salt number that is used to generate the artwork hash",
          "_traitTokenIds": "token IDs of the traits to use to create the artwork"
        }
      },
      "mintTraitsAndArtwork(uint256[],uint256[],uint256[],uint256)": {
        "params": {
          "_saltNonce": "salt number that is used to generate the artwork hash",
          "_traitAmountsToBuy": "amounts of each trait to buy",
          "_traitTokenIdsToBuy": "token IDs of the traits to buy",
          "_traitTokenIdsToCreateArtwork": "token IDs of the traits to use to create the artwork"
        }
      },
      "name()": {
        "details": "See {IERC721Metadata-name}."
      },
      "ownerOf(uint256)": {
        "details": "See {IERC721-ownerOf}."
      },
      "payee(uint256)": {
        "returns": {
          "_0": "address the address of the payee"
        }
      },
      "payees()": {
        "returns": {
          "payees_": "array of all payee addresses",
          "shares_": "array of all payee share amounts"
        }
      },
      "reclaimTraits(uint256)": {
        "params": {
          "_artworkTokenId": "the token ID of the artwork being reclaimed"
        }
      },
      "releasableERC20(address,address)": {
        "params": {
          "account": "the address of the payee",
          "token": "the address of the token"
        },
        "returns": {
          "_0": "uint256 the amount of token releasable to the payee"
        }
      },
      "releasableETH(address)": {
        "returns": {
          "_0": "uint256 amount of releasable ETH"
        }
      },
      "releasedERC20(address,address)": {
        "returns": {
          "_0": "uint256 amount of the specified token released to a payee"
        }
      },
      "releasedETH(address)": {
        "returns": {
          "_0": "uint256 amount of ETH released to the specified account"
        }
      },
      "royaltyInfo(uint256,uint256)": {
        "details": "Returns how much royalty is owed and to whom, based on a sale price that may be denominated in any unit of exchange. The royalty amount is denominated and should be paid in that same unit of exchange."
      },
      "safeTransferFrom(address,address,uint256)": {
        "details": "See {IERC721-safeTransferFrom}."
      },
      "safeTransferFrom(address,address,uint256,bytes)": {
        "details": "See {IERC721-safeTransferFrom}."
      },
      "script()": {
        "returns": {
          "_0": "string the generative art javascript"
        }
      },
      "setApprovalForAll(address,bool)": {
        "details": "See {IERC721-setApprovalForAll}."
      },
      "setup(bytes)": {
        "params": {
          "_data": "bytes containing address of the traits contract and whitelist data"
        }
      },
      "shares(address)": {
        "returns": {
          "_0": "uint256 amount of shares held by the account"
        }
      },
      "supportsInterface(bytes4)": {
        "params": {
          "interfaceId": "the interface ID to check"
        },
        "returns": {
          "_0": "bool True if the interface is supported, otherwise False"
        }
      },
      "symbol()": {
        "details": "See {IERC721Metadata-symbol}."
      },
      "tokenURI(uint256)": {
        "params": {
          "_tokenId": "token ID to get URI for"
        },
        "returns": {
          "_0": "string the token URI"
        }
      },
      "totalReleasedERC20(address)": {
        "returns": {
          "_0": "uint256 total amount of specified token released"
        }
      },
      "totalReleasedETH()": {
        "returns": {
          "_0": "uint256 total amount of ETH released"
        }
      },
      "totalShares()": {
        "returns": {
          "_0": "uint256 total shares held by payees"
        }
      },
      "transferFrom(address,address,uint256)": {
        "details": "See {IERC721-transferFrom}."
      },
      "updateWhitelist(uint256,address[],uint256[])": {
        "params": {
          "_whitelistAddresses": "addresses to be whitelisted",
          "_whitelistAmounts": "amount of whitelist mints for each address",
          "_whitelistStartTime": "timestamp at which whitelisted users can start minting"
        }
      }
    },
    "stateVariables": {
      "whitelistMintsRemaining": {
        "return": "uint256 the number of whitelist mints remaining",
        "returns": {
          "_0": "uint256 the number of whitelist mints remaining"
        }
      }
    },
    "version": 1
  },
  "userdoc": {
    "kind": "user",
    "methods": {
      "artwork(uint256)": {
        "notice": "Returns info about the specified artwork token"
      },
      "isHashUsed(bytes32)": {
        "notice": "Returns whether the specified hash has been used to mint an artwork"
      },
      "metadataJSON()": {
        "notice": "Returns a string containing the project metadata in JSON format"
      },
      "mintArtwork(uint256[],uint256)": {
        "notice": "Mints a new artwork with the specified trait token IDs The caller must own the specified traits"
      },
      "mintArtworkProof(uint256[],uint256)": {
        "notice": "Allows the artist or project registry to mint the proof mint"
      },
      "mintArtworkWhitelist(uint256[],uint256)": {
        "notice": "Allows an address on the whitelist to mint an artwork for free"
      },
      "mintTraitsAndArtwork(uint256[],uint256[],uint256[],uint256)": {
        "notice": "Mints traits with specified amounts, and mints an artwork in a single transaction ETH amount needed for trait mints must be sent"
      },
      "payee(uint256)": {
        "notice": "Getter for the address of the payee for the specified index"
      },
      "payees()": {
        "notice": "Getter for all payees and their respective shares"
      },
      "reclaimTraits(uint256)": {
        "notice": "Reclaims the traits the specified artwork token into the traits its composed of The artwork token is burned, and the token ID will never be reused The traits are transferred to the caller's address"
      },
      "releasableERC20(address,address)": {
        "notice": "Getter for the amount of specified token releasable for the account"
      },
      "releasableETH(address)": {
        "notice": "Getter for the amount of payee's releasable ETH"
      },
      "releaseERC20(address)": {
        "notice": "Triggers a transfer to msg.sender of the amount of the specified token they are owed"
      },
      "releaseETH()": {
        "notice": "Triggers a transfer to msg.sender of the amount of Ether they are owed"
      },
      "releasedERC20(address,address)": {
        "notice": "Getter for the amount of the specified token released to a payee"
      },
      "releasedETH(address)": {
        "notice": "Getter for the amount of ETH already released to a payee"
      },
      "script()": {
        "notice": "Returns the string that contains the generative art javascript"
      },
      "setup(bytes)": {
        "notice": "Sets up the contract"
      },
      "shares(address)": {
        "notice": "Getter for the amount of shares held by an account"
      },
      "supportsInterface(bytes4)": {
        "notice": "Returns whether the specified interface ID is supported by the contract"
      },
      "tokenURI(uint256)": {
        "notice": "Returns the URI of the specified token ID"
      },
      "totalReleasedERC20(address)": {
        "notice": "Getter for the total amount of specified token released"
      },
      "totalReleasedETH()": {
        "notice": "Getter for the total amount of ETH already released"
      },
      "totalShares()": {
        "notice": "Getter for the total shares held by payees"
      },
      "updateWhitelist(uint256,address[],uint256[])": {
        "notice": "Updates the whitelisted addresses and amounts they can claim"
      },
      "whitelistMintsRemaining(address)": {
        "notice": "Returns how many more whitelist mints the specified address has"
      }
    },
    "notice": "Implements ERC-721 standard for artwork tokens, and functionality for minting artwork and reclaiming traits",
    "version": 1
  },
  "storageLayout": {
    "storage": [
      {
        "astId": 3375,
        "contract": "contracts/Artwork.sol:Artwork",
        "label": "_defaultRoyaltyInfo",
        "offset": 0,
        "slot": "0",
        "type": "t_struct(RoyaltyInfo)3372_storage"
      },
      {
        "astId": 3380,
        "contract": "contracts/Artwork.sol:Artwork",
        "label": "_tokenRoyaltyInfo",
        "offset": 0,
        "slot": "1",
        "type": "t_mapping(t_uint256,t_struct(RoyaltyInfo)3372_storage)"
      },
      {
        "astId": 2278,
        "contract": "contracts/Artwork.sol:Artwork",
        "label": "_name",
        "offset": 0,
        "slot": "2",
        "type": "t_string_storage"
      },
      {
        "astId": 2280,
        "contract": "contracts/Artwork.sol:Artwork",
        "label": "_symbol",
        "offset": 0,
        "slot": "3",
        "type": "t_string_storage"
      },
      {
        "astId": 2284,
        "contract": "contracts/Artwork.sol:Artwork",
        "label": "_owners",
        "offset": 0,
        "slot": "4",
        "type": "t_mapping(t_uint256,t_address)"
      },
      {
        "astId": 2288,
        "contract": "contracts/Artwork.sol:Artwork",
        "label": "_balances",
        "offset": 0,
        "slot": "5",
        "type": "t_mapping(t_address,t_uint256)"
      },
      {
        "astId": 2292,
        "contract": "contracts/Artwork.sol:Artwork",
        "label": "_tokenApprovals",
        "offset": 0,
        "slot": "6",
        "type": "t_mapping(t_uint256,t_address)"
      },
      {
        "astId": 2298,
        "contract": "contracts/Artwork.sol:Artwork",
        "label": "_operatorApprovals",
        "offset": 0,
        "slot": "7",
        "type": "t_mapping(t_address,t_mapping(t_address,t_bool))"
      },
      {
        "astId": 5866,
        "contract": "contracts/Artwork.sol:Artwork",
        "label": "_totalShares",
        "offset": 0,
        "slot": "8",
        "type": "t_uint256"
      },
      {
        "astId": 5868,
        "contract": "contracts/Artwork.sol:Artwork",
        "label": "_totalReleased",
        "offset": 0,
        "slot": "9",
        "type": "t_uint256"
      },
      {
        "astId": 5871,
        "contract": "contracts/Artwork.sol:Artwork",
        "label": "_payees",
        "offset": 0,
        "slot": "10",
        "type": "t_array(t_address)dyn_storage"
      },
      {
        "astId": 5875,
        "contract": "contracts/Artwork.sol:Artwork",
        "label": "_shares",
        "offset": 0,
        "slot": "11",
        "type": "t_mapping(t_address,t_uint256)"
      },
      {
        "astId": 5879,
        "contract": "contracts/Artwork.sol:Artwork",
        "label": "_released",
        "offset": 0,
        "slot": "12",
        "type": "t_mapping(t_address,t_uint256)"
      },
      {
        "astId": 5884,
        "contract": "contracts/Artwork.sol:Artwork",
        "label": "_erc20TotalReleased",
        "offset": 0,
        "slot": "13",
        "type": "t_mapping(t_contract(IERC20)1935,t_uint256)"
      },
      {
        "astId": 5891,
        "contract": "contracts/Artwork.sol:Artwork",
        "label": "_erc20Released",
        "offset": 0,
        "slot": "14",
        "type": "t_mapping(t_contract(IERC20)1935,t_mapping(t_address,t_uint256))"
      },
      {
        "astId": 5029,
        "contract": "contracts/Artwork.sol:Artwork",
        "label": "proofMinted",
        "offset": 0,
        "slot": "15",
        "type": "t_bool"
      },
      {
        "astId": 5034,
        "contract": "contracts/Artwork.sol:Artwork",
        "label": "artistAddress",
        "offset": 1,
        "slot": "15",
        "type": "t_address"
      },
      {
        "astId": 5037,
        "contract": "contracts/Artwork.sol:Artwork",
        "label": "projectRegistry",
        "offset": 0,
        "slot": "16",
        "type": "t_contract(IProjectRegistry)8374"
      },
      {
        "astId": 5040,
        "contract": "contracts/Artwork.sol:Artwork",
        "label": "traits",
        "offset": 0,
        "slot": "17",
        "type": "t_contract(ITraits)8613"
      },
      {
        "astId": 5042,
        "contract": "contracts/Artwork.sol:Artwork",
        "label": "nextTokenId",
        "offset": 0,
        "slot": "18",
        "type": "t_uint256"
      },
      {
        "astId": 5045,
        "contract": "contracts/Artwork.sol:Artwork",
        "label": "metadataJSONStringStorage",
        "offset": 0,
        "slot": "19",
        "type": "t_struct(StringStorageData)7954_storage"
      },
      {
        "astId": 5048,
        "contract": "contracts/Artwork.sol:Artwork",
        "label": "scriptStringStorage",
        "offset": 0,
        "slot": "20",
        "type": "t_struct(StringStorageData)7954_storage"
      },
      {
        "astId": 5050,
        "contract": "contracts/Artwork.sol:Artwork",
        "label": "whitelistStartTime",
        "offset": 0,
        "slot": "21",
        "type": "t_uint256"
      },
      {
        "astId": 5055,
        "contract": "contracts/Artwork.sol:Artwork",
        "label": "artworkData",
        "offset": 0,
        "slot": "22",
        "type": "t_mapping(t_uint256,t_struct(ArtworkData)7949_storage)"
      },
      {
        "astId": 5059,
        "contract": "contracts/Artwork.sol:Artwork",
        "label": "hashUsed",
        "offset": 0,
        "slot": "23",
        "type": "t_mapping(t_bytes32,t_bool)"
      },
      {
        "astId": 5063,
        "contract": "contracts/Artwork.sol:Artwork",
        "label": "whitelistMintsRemaining",
        "offset": 0,
        "slot": "24",
        "type": "t_mapping(t_address,t_uint256)"
      }
    ],
    "types": {
      "t_address": {
        "encoding": "inplace",
        "label": "address",
        "numberOfBytes": "20"
      },
      "t_array(t_address)dyn_storage": {
        "base": "t_address",
        "encoding": "dynamic_array",
        "label": "address[]",
        "numberOfBytes": "32"
      },
      "t_array(t_uint256)dyn_storage": {
        "base": "t_uint256",
        "encoding": "dynamic_array",
        "label": "uint256[]",
        "numberOfBytes": "32"
      },
      "t_bool": {
        "encoding": "inplace",
        "label": "bool",
        "numberOfBytes": "1"
      },
      "t_bytes32": {
        "encoding": "inplace",
        "label": "bytes32",
        "numberOfBytes": "32"
      },
      "t_contract(IERC20)1935": {
        "encoding": "inplace",
        "label": "contract IERC20",
        "numberOfBytes": "20"
      },
      "t_contract(IProjectRegistry)8374": {
        "encoding": "inplace",
        "label": "contract IProjectRegistry",
        "numberOfBytes": "20"
      },
      "t_contract(ITraits)8613": {
        "encoding": "inplace",
        "label": "contract ITraits",
        "numberOfBytes": "20"
      },
      "t_mapping(t_address,t_bool)": {
        "encoding": "mapping",
        "key": "t_address",
        "label": "mapping(address => bool)",
        "numberOfBytes": "32",
        "value": "t_bool"
      },
      "t_mapping(t_address,t_mapping(t_address,t_bool))": {
        "encoding": "mapping",
        "key": "t_address",
        "label": "mapping(address => mapping(address => bool))",
        "numberOfBytes": "32",
        "value": "t_mapping(t_address,t_bool)"
      },
      "t_mapping(t_address,t_uint256)": {
        "encoding": "mapping",
        "key": "t_address",
        "label": "mapping(address => uint256)",
        "numberOfBytes": "32",
        "value": "t_uint256"
      },
      "t_mapping(t_bytes32,t_bool)": {
        "encoding": "mapping",
        "key": "t_bytes32",
        "label": "mapping(bytes32 => bool)",
        "numberOfBytes": "32",
        "value": "t_bool"
      },
      "t_mapping(t_contract(IERC20)1935,t_mapping(t_address,t_uint256))": {
        "encoding": "mapping",
        "key": "t_contract(IERC20)1935",
        "label": "mapping(contract IERC20 => mapping(address => uint256))",
        "numberOfBytes": "32",
        "value": "t_mapping(t_address,t_uint256)"
      },
      "t_mapping(t_contract(IERC20)1935,t_uint256)": {
        "encoding": "mapping",
        "key": "t_contract(IERC20)1935",
        "label": "mapping(contract IERC20 => uint256)",
        "numberOfBytes": "32",
        "value": "t_uint256"
      },
      "t_mapping(t_uint256,t_address)": {
        "encoding": "mapping",
        "key": "t_uint256",
        "label": "mapping(uint256 => address)",
        "numberOfBytes": "32",
        "value": "t_address"
      },
      "t_mapping(t_uint256,t_struct(ArtworkData)7949_storage)": {
        "encoding": "mapping",
        "key": "t_uint256",
        "label": "mapping(uint256 => struct IArtwork.ArtworkData)",
        "numberOfBytes": "32",
        "value": "t_struct(ArtworkData)7949_storage"
      },
      "t_mapping(t_uint256,t_struct(RoyaltyInfo)3372_storage)": {
        "encoding": "mapping",
        "key": "t_uint256",
        "label": "mapping(uint256 => struct ERC2981.RoyaltyInfo)",
        "numberOfBytes": "32",
        "value": "t_struct(RoyaltyInfo)3372_storage"
      },
      "t_string_storage": {
        "encoding": "bytes",
        "label": "string",
        "numberOfBytes": "32"
      },
      "t_struct(ArtworkData)7949_storage": {
        "encoding": "inplace",
        "label": "struct IArtwork.ArtworkData",
        "members": [
          {
            "astId": 7945,
            "contract": "contracts/Artwork.sol:Artwork",
            "label": "hash",
            "offset": 0,
            "slot": "0",
            "type": "t_bytes32"
          },
          {
            "astId": 7948,
            "contract": "contracts/Artwork.sol:Artwork",
            "label": "traitTokenIds",
            "offset": 0,
            "slot": "1",
            "type": "t_array(t_uint256)dyn_storage"
          }
        ],
        "numberOfBytes": "64"
      },
      "t_struct(RoyaltyInfo)3372_storage": {
        "encoding": "inplace",
        "label": "struct ERC2981.RoyaltyInfo",
        "members": [
          {
            "astId": 3369,
            "contract": "contracts/Artwork.sol:Artwork",
            "label": "receiver",
            "offset": 0,
            "slot": "0",
            "type": "t_address"
          },
          {
            "astId": 3371,
            "contract": "contracts/Artwork.sol:Artwork",
            "label": "royaltyFraction",
            "offset": 20,
            "slot": "0",
            "type": "t_uint96"
          }
        ],
        "numberOfBytes": "32"
      },
      "t_struct(StringStorageData)7954_storage": {
        "encoding": "inplace",
        "label": "struct IArtwork.StringStorageData",
        "members": [
          {
            "astId": 7951,
            "contract": "contracts/Artwork.sol:Artwork",
            "label": "stringStorageSlot",
            "offset": 0,
            "slot": "0",
            "type": "t_uint8"
          },
          {
            "astId": 7953,
            "contract": "contracts/Artwork.sol:Artwork",
            "label": "stringStorageAddress",
            "offset": 1,
            "slot": "0",
            "type": "t_address"
          }
        ],
        "numberOfBytes": "32"
      },
      "t_uint256": {
        "encoding": "inplace",
        "label": "uint256",
        "numberOfBytes": "32"
      },
      "t_uint8": {
        "encoding": "inplace",
        "label": "uint8",
        "numberOfBytes": "1"
      },
      "t_uint96": {
        "encoding": "inplace",
        "label": "uint96",
        "numberOfBytes": "12"
      }
    }
  }
}