{
  "address": "0x9261E0475d5a641fe199Ecf77425fc21C868e09b",
  "abi": [
    {
      "inputs": [],
      "name": "EmptySlot",
      "type": "error"
    },
    {
      "inputs": [
        {
          "internalType": "uint8",
          "name": "_slot",
          "type": "uint8"
        }
      ],
      "name": "stringAtSlot",
      "outputs": [
        {
          "internalType": "string",
          "name": "",
          "type": "string"
        }
      ],
      "stateMutability": "pure",
      "type": "function"
    }
  ],
  "transactionHash": "0x071eaad7ebbe90bf117733ef2624f53a3fd55238abde9ddd3d19347d3d997412",
  "args": [],
  "numDeployments": 1,
  "solcInputHash": "1bee7751f3ca71a0dd596fbfa28066de",
  "bytecode": "0x608060405234801561001057600080fd5b506113cd806100206000396000f3fe608060405234801561001057600080fd5b506004361061002b5760003560e01c806360655fe414610030575b600080fd5b61004361003e3660046100e7565b610059565b6040516100509190610111565b60405180910390f35b60608160ff1660000361008857604051806104c001604052806104848152602001610f14610484913992915050565b8160ff166001036100b55760405180610de00160405280610db48152602001610160610db4913992915050565b6040517f3477dcda00000000000000000000000000000000000000000000000000000000815260040160405180910390fd5b6000602082840312156100f957600080fd5b813560ff8116811461010a57600080fd5b9392505050565b600060208083528351808285015260005b8181101561013e57858101830151858201604001528201610122565b506000604082860101526040601f19601f830116850101925050509291505056fe636c6173732052647b636f6e7374727563746f7228297b746869732e757365413d21313b6c657420723d66756e6374696f6e2872297b6c657420743d7061727365496e7428722e73756273747228302c38292c3136292c733d7061727365496e7428722e73756273747228382c38292c3136292c653d7061727365496e7428722e7375627374722831362c38292c3136292c6f3d7061727365496e7428722e7375627374722832342c38292c3136293b72657475726e2066756e6374696f6e28297b747c3d302c737c3d302c657c3d302c6f7c3d303b6c657420723d28742b737c30292b6f7c303b72657475726e206f3d6f2b317c302c743d735e733e3e3e392c733d652b28653c3c33297c302c653d653c3c32317c653e3e3e31312c653d652b727c302c28723e3e3e30292f343239343936373239367d7d3b746869732e70726e67413d6e6577207228617274776f726b2e736565642e73756273747228322c333229292c746869732e70726e67423d6e6577207228617274776f726b2e736565642e7375627374722833342c333229293b666f72286c657420723d303b723c3165363b722b3d3229746869732e70726e674128292c746869732e70726e674228297d724428297b72657475726e20746869732e757365413d21746869732e757365412c746869732e757365413f746869732e70726e674128293a746869732e70726e674228297d724e28722c74297b72657475726e20722b28742d72292a746869732e724428297d724928722c74297b72657475726e204d6174682e666c6f6f7228746869732e724e28722c742b3129297d7d66756e6374696f6e20725728722c74297b6c657420732c653d5b5d3b666f7228733d303b733c722e6c656e6774683b732b2b29655b735d3d725b735d2e772b28655b732d315d7c7c30293b6c6574206f3d742a655b652e6c656e6774682d315d3b666f7228733d303b733c652e6c656e67746826262128655b735d3e6f293b732b2b293b72657475726e20725b735d2e767d6c657420736565643d617274776f726b2e736565642c523d6e65772052642873656564293b636f6e73742070483d7061727365466c6f617428617274776f726b2e7472616974732e7048292c70543d7061727365466c6f617428617274776f726b2e7472616974732e7054292c623d7257285b7b763a312c773a32357d2c7b763a322c773a31357d2c7b763a332c773a32357d2c7b763a342c773a31307d2c7b763a352c773a31307d2c7b763a362c773a31307d2c7b763a372c773a32357d2c7b763a382c773a357d2c7b763a392c773a357d2c7b763a31302c773a357d2c7b763a31312c773a357d2c7b763a31322c773a357d5d2c522e72442829292c733d7257285b7b763a2e312c773a31307d2c7b763a2e322c773a31357d2c7b763a2e33352c773a32357d2c7b763a2e352c773a33357d2c7b763a2e36352c773a32357d2c7b763a2e382c773a31357d2c7b763a2e39322c773a31307d5d2c522e72442829292c73743d7257285b7b763a302c773a37347d2c7b763a312c773a3137317d2c7b763a322c773a34397d5d2c522e72442829292c737461573d5b7b763a2e30332c773a31307d2c7b763a2e312c773a31307d2c7b763a2e332c773a34307d2c7b763a2e352c773a34307d2c7b763a2e372c773a34307d2c7b763a312c773a34307d5d2c737461503d5b725728737461572c522e72442829292c725728737461572c522e72442829295d2c67723d7257285b7b763a302c773a33357d2c7b763a31352c773a32357d2c7b763a33302c773a31307d2c7b763a3138302c773a357d5d2c522e72442829292c7273563d7257285b7b763a352c773a31357d2c7b763a31302c773a33307d2c7b763a33302c773a33307d2c7b763a36302c773a31307d2c7b763a3138302c773a357d5d2c522e72442829292c74573d5b7b763a5b33302c39305d2c773a31307d2c7b763a5b35302c3130305d2c773a377d2c7b763a5b37302c38305d2c773a377d2c7b763a5b3130302c37305d2c773a377d2c7b763a5b39302c35305d2c773a377d2c7b763a5b38302c33305d2c773a31307d2c7b763a5b352c3130305d2c773a337d2c7b763a5b3130302c31305d2c773a337d5d2c61543d73743e30262672572874572c522e72442829292c62483d66756e6374696f6e28297b72657475726e207257285b7b763a302c773a33307d2c7b763a312c773a31307d2c7b763a322c773a317d2c7b763a332c773a337d2c7b763a342c773a357d2c7b763a352c773a317d2c7b763a362c773a31307d2c7b763a372c773a317d2c7b763a382c773a357d2c7b763a392c773a337d2c7b763a31302c773a317d2c7b763a31312c773a31307d5d2c522e72442829297d2c62543d72572874572c522e72442829292c77683d66756e6374696f6e2872297b72657475726e283336302b522e7249282d31302c3130292b33302a7229253336307d2c62673d5b77682870482b62482829292c62545b305d2c62545b315d5d2c636f3d5b5b7768287048292c74575b70545d2e765b305d2c74575b70545d2e765b315d2c352a28312b322a522e724928302c3429295d2c73743e3026265b77682870482b62482829292c61545b305d2c61545b315d2c352a28312b322a522e724928302c3429295d5d2c72513d3365332c483d77696e646f772e696e6e65724865696768742c573d77696e646f772e696e6e657257696474682c48593d4d6174682e6879706f7428572c48292c70443d4d6174682e6d696e28482c57293c313038303f333a4d6174682e6d696e28482c57293c313434303f323a312c706f733d66756e6374696f6e28722c74297b72657475726e2d2e3030352a722a48592b2e30312a722a48592a747d3b636f6e736f6c652e6c6f6728224261636b67726f756e643a20222b6267292c636f6e736f6c652e6c6f6728225072696d6172792072696e673a20222b636f5b305d292c636f6e736f6c652e6c6f6728225374796c653a20222b28303d3d3d73743f2253696d706c65223a313d3d3d73743f22537461636b6564223a225a656272612229292c636f6e736f6c652e6c6f672822416363656e742072696e673a20222b636f5b315d293b6c657420743d302c72733d5b5d2c73703d313b636f6e736f6c652e6c6f67282253706565643a20222b7370293b666f72286c657420723d303b723c72513b722b2b29783d706f7328312c522e72442829292c793d706f7328312c522e72442829292c72613d722a28312d732f622a2e35292a48592f72512c70723d212872252872512f62293c732a72512f62292c72563d522e724928302c727356292c7072262672732e70757368285b782c792c72612c72565d293b66756e6374696f6e20645228722c742c652c6f297b636f6e7374206e3d652b28323d3d737426264d6174682e666c6f6f7228742f2872732e6c656e6774682f62292925323d3d313f313a30292c773d636f5b6e5d5b305d2c613d4d6174682e666c6f6f7228742f2872512f622a28312d732929252872512f6229292a2867722f6229253336302c763d28772b725b335d2b6129253336303b6f2e7374726f6b6528762c636f5b6e5d5b315d2c636f5b6e5d5b325d2c636f5b6e5d5b335d292c6f2e636972636c652848592b725b305d2c48592b725b315d2c725b325d297d66756e6374696f6e20736574757028297b66756e6374696f6e207228722c74297b722e636f6c6f724d6f646528722e4853422c3336302c3130302c313030292c722e6e6f46696c6c28292c722e7374726f6b65576569676874282e303031322a4859292c72732e666f7245616368282828732c65293d3e645228732c652c742c722929297d636f6c6f724d6f6465284853422c3336302c3130302c3130302c313030292c706978656c44656e73697479287044292c616e676c654d6f64652844454752454553292c6672616d6552617465283330292c696d6167654d6f64652843454e544552292c63473d637265617465477261706869637328322a48592c322a4859292c6347323d313d3d73742626637265617465477261706869637328322a48592c322a4859292c722863472c30292c634732262672286347322c31297d66756e6374696f6e206472617728297b63726561746543616e76617328572c48292e706f736974696f6e28302c30292c6261636b67726f756e64286267292c7472616e736c61746528572f322c482f32292c313d3d73742626287472616e736c61746528706f7328352c737461505b305d292c706f7328352c737461505b315d29292c726f74617465282d74292c696d616765286347322c302c30292c726f746174652874292c7472616e736c617465282d706f7328352c737461505b305d292c2d706f7328352c737461505b315d2929292c726f746174652874292c696d6167652863472c302c30292c742b3d73707d66756e6374696f6e2077696e646f77526573697a656428297b6c6f636174696f6e2e72656c6f616428297d6b6579507265737365643d66756e6374696f6e28297b2273223d3d6b65793f7361766543616e76617328226f6e6572696e67222c22706e6722293a2267223d3d6b65793f7361766547696628226f6e6572696e67222c73703e313f3336302f73703a3336302c7b756e6974733a226672616d6573227d293a2230223d3d6b65793f73703d303a2231223d3d6b65793f73703d2e313a2232223d3d6b65793f73703d2e353a2233223d3d6b65793f73703d313a2234223d3d6b65793f73703d333a2235223d3d6b65793f73703d383a2236223d3d6b65793f73703d34303a2237223d3d6b657926262873703d313230297d3b7b20202020226e616d65223a20224f6e652052696e67222c20202020226465736372697074696f6e223a20224166746572206375726174696e672054796c657220486f626273202620496e6469676f27732051514c20657874656e736976656c79207468726f75676820596561722031202836206d696e7465642051514c732c2068756e6472656473206f6620686f757273207370656e7420696e2074686520616c676f726974686d2026206d696c6c696f6e73206f66206f7574707574732067656e657261746564292c20666f7220596561722032206f662051514c2049277665206265656e206578706c6f72696e67206120646966666572656e742051514c20636f6e636570742065616368206d6f6e74682e5c6e447572696e67204e6f76656d6265722c204920666f6375736564206f6e205c227374756479696e675c222073696e676c652072696e67732e20416e642074686174277320776865726520612067656e6572617469766520617274776f726b2c204f6e652052696e672c2077617320626f726e652e2049742773206d792072656e646974696f6e2028616c6c206f726967696e616c20636f64652920746f207468652051514c20616c676f726974686d20616e6420697473206e75636c65617220656c656d656e742e204f6e652072696e6720706f72747261797320612073696e676c652072696e6720696e20646966666572656e7420666f726d61747320627574207375627472616374656420656e6f7567682066726f6d2051514c20746861742069742068617320697473206f776e2073696e67756c6172206c6966652e5c6e596f75276c6c2066696e642072696e677320696e206d6f74696f6e207769746820757020746f2031322062616e64732c20756e757375616c2072696e6720666f726d6174696f6e20616e6420756e7365656e20636f6c6f7220636f6d62696e6174696f6e732e5c6e43616e76617320697320616461707461626c6520746f20616e79207265736f6c7574696f6e20616e642072696e67732077696c6c2070726573656e74207468656d73656c766573206173206120636c6f736520757020616e642028616c6d6f737429206e6576657220696e2066756c6c2e5c6e5468726f75676820496e7472696e7369632c20636f6c6c6563746f72732077696c6c2062652061626c6520746f2067656e6572617465207468656972205c224f6e652052696e675c222062792063686f6f73696e6720636f6c6f7273207468617420726570726573656e74207468656d2c20696e7370697265207468656d206f7220746861742073696d706c792063726561746520612062656175746966756c2072696e672e2020222c20202020226172746973744e616d65223a20224865656579222c202020202277656273697465223a202268747470733a2f2f6578706c6f72696e6771716c2e636f6d2f236f6e652d72696e67222c20202020226c6963656e7365223a20224e4654204c6963656e7365222c20202020227363726970744c696272617279223a202270352e6a7340312e302e30222c2020202022617370656374526174696f223a2022313a31227da2646970667358221220c4f042173712484d6be650a804bf05e3dd144fa00f5e80f21cef67881b00e6d864736f6c63430008130033",
  "devdoc": {
    "kind": "dev",
    "methods": {
      "stringAtSlot(uint8)": {
        "params": {
          "_slot": "the slot to get the string at"
        },
        "returns": {
          "_0": "string the string stored at the specified slot"
        }
      }
    },
    "version": 1
  },
  "userdoc": {
    "kind": "user",
    "methods": {
      "stringAtSlot(uint8)": {
        "notice": "Returns the string stored at the specific slot Reverts if an invalid slot is provided"
      }
    },
    "version": 1
  },
  "storageLayout": {
    "storage": [],
    "types": null
  }
}