{
  "address": "0xEB9f254CD8598411122665DDFaa528964f3e1be1",
  "abi": [
    {
      "inputs": [
        {
          "internalType": "address",
          "name": "_projectRegistry",
          "type": "address"
        },
        {
          "components": [
            {
              "internalType": "string[]",
              "name": "traitTypeNames",
              "type": "string[]"
            },
            {
              "internalType": "string[]",
              "name": "traitTypeValues",
              "type": "string[]"
            },
            {
              "internalType": "string[]",
              "name": "traitNames",
              "type": "string[]"
            },
            {
              "internalType": "string[]",
              "name": "traitValues",
              "type": "string[]"
            },
            {
              "internalType": "uint256[]",
              "name": "traitTypeIndexes",
              "type": "uint256[]"
            },
            {
              "internalType": "uint256[]",
              "name": "traitMaxSupplys",
              "type": "uint256[]"
            }
          ],
          "internalType": "struct ITraits.TraitsSetup",
          "name": "_traitsSetup",
          "type": "tuple"
        },
        {
          "internalType": "address[]",
          "name": "_primarySalesPayees",
          "type": "address[]"
        },
        {
          "internalType": "uint256[]",
          "name": "_primarySalesShares",
          "type": "uint256[]"
        }
      ],
      "stateMutability": "nonpayable",
      "type": "constructor"
    },
    {
      "inputs": [],
      "name": "AlreadySetup",
      "type": "error"
    },
    {
      "inputs": [],
      "name": "AuctionIsLive",
      "type": "error"
    },
    {
      "inputs": [],
      "name": "AuctionNotLive",
      "type": "error"
    },
    {
      "inputs": [],
      "name": "DuplicatePayee",
      "type": "error"
    },
    {
      "inputs": [],
      "name": "InvalidArrayLengths",
      "type": "error"
    },
    {
      "inputs": [],
      "name": "InvalidAuction",
      "type": "error"
    },
    {
      "inputs": [],
      "name": "InvalidEthAmount",
      "type": "error"
    },
    {
      "inputs": [],
      "name": "InvalidTokenId",
      "type": "error"
    },
    {
      "inputs": [],
      "name": "InvalidTraits",
      "type": "error"
    },
    {
      "inputs": [],
      "name": "MaxSupply",
      "type": "error"
    },
    {
      "inputs": [],
      "name": "NoPayees",
      "type": "error"
    },
    {
      "inputs": [],
      "name": "NoPaymentDue",
      "type": "error"
    },
    {
      "inputs": [],
      "name": "NoShares",
      "type": "error"
    },
    {
      "inputs": [],
      "name": "OnlyArtwork",
      "type": "error"
    },
    {
      "inputs": [],
      "name": "OnlyProjectRegistry",
      "type": "error"
    },
    {
      "inputs": [],
      "name": "TraitsSaleStartTime",
      "type": "error"
    },
    {
      "inputs": [],
      "name": "ZeroAddress",
      "type": "error"
    },
    {
      "inputs": [],
      "name": "ZeroShares",
      "type": "error"
    },
    {
      "anonymous": false,
      "inputs": [
        {
          "indexed": true,
          "internalType": "address",
          "name": "account",
          "type": "address"
        },
        {
          "indexed": true,
          "internalType": "address",
          "name": "operator",
          "type": "address"
        },
        {
          "indexed": false,
          "internalType": "bool",
          "name": "approved",
          "type": "bool"
        }
      ],
      "name": "ApprovalForAll",
      "type": "event"
    },
    {
      "anonymous": false,
      "inputs": [
        {
          "indexed": false,
          "internalType": "uint256",
          "name": "auctionStartTime",
          "type": "uint256"
        },
        {
          "indexed": false,
          "internalType": "uint256",
          "name": "auctionEndTime",
          "type": "uint256"
        },
        {
          "indexed": false,
          "internalType": "uint256",
          "name": "auctionStartPrice",
          "type": "uint256"
        },
        {
          "indexed": false,
          "internalType": "uint256",
          "name": "auctionEndPrice",
          "type": "uint256"
        },
        {
          "indexed": false,
          "internalType": "uint256",
          "name": "auctionPriceSteps",
          "type": "uint256"
        },
        {
          "indexed": false,
          "internalType": "bool",
          "name": "auctionExponential",
          "type": "bool"
        },
        {
          "indexed": false,
          "internalType": "uint256",
          "name": "traitsSaleStartTime",
          "type": "uint256"
        }
      ],
      "name": "AuctionUpdated",
      "type": "event"
    },
    {
      "anonymous": false,
      "inputs": [
        {
          "indexed": true,
          "internalType": "contract IERC20",
          "name": "token",
          "type": "address"
        },
        {
          "indexed": false,
          "internalType": "address",
          "name": "to",
          "type": "address"
        },
        {
          "indexed": false,
          "internalType": "uint256",
          "name": "amount",
          "type": "uint256"
        }
      ],
      "name": "ERC20PaymentReleased",
      "type": "event"
    },
    {
      "anonymous": false,
      "inputs": [
        {
          "indexed": false,
          "internalType": "address",
          "name": "account",
          "type": "address"
        },
        {
          "indexed": false,
          "internalType": "uint256",
          "name": "shares",
          "type": "uint256"
        }
      ],
      "name": "PayeeAdded",
      "type": "event"
    },
    {
      "anonymous": false,
      "inputs": [
        {
          "indexed": false,
          "internalType": "address",
          "name": "to",
          "type": "address"
        },
        {
          "indexed": false,
          "internalType": "uint256",
          "name": "amount",
          "type": "uint256"
        }
      ],
      "name": "PaymentReleased",
      "type": "event"
    },
    {
      "anonymous": false,
      "inputs": [
        {
          "indexed": true,
          "internalType": "address",
          "name": "operator",
          "type": "address"
        },
        {
          "indexed": true,
          "internalType": "address",
          "name": "from",
          "type": "address"
        },
        {
          "indexed": true,
          "internalType": "address",
          "name": "to",
          "type": "address"
        },
        {
          "indexed": false,
          "internalType": "uint256[]",
          "name": "ids",
          "type": "uint256[]"
        },
        {
          "indexed": false,
          "internalType": "uint256[]",
          "name": "values",
          "type": "uint256[]"
        }
      ],
      "name": "TransferBatch",
      "type": "event"
    },
    {
      "anonymous": false,
      "inputs": [
        {
          "indexed": true,
          "internalType": "address",
          "name": "operator",
          "type": "address"
        },
        {
          "indexed": true,
          "internalType": "address",
          "name": "from",
          "type": "address"
        },
        {
          "indexed": true,
          "internalType": "address",
          "name": "to",
          "type": "address"
        },
        {
          "indexed": false,
          "internalType": "uint256",
          "name": "id",
          "type": "uint256"
        },
        {
          "indexed": false,
          "internalType": "uint256",
          "name": "value",
          "type": "uint256"
        }
      ],
      "name": "TransferSingle",
      "type": "event"
    },
    {
      "anonymous": false,
      "inputs": [
        {
          "indexed": false,
          "internalType": "string",
          "name": "value",
          "type": "string"
        },
        {
          "indexed": true,
          "internalType": "uint256",
          "name": "id",
          "type": "uint256"
        }
      ],
      "name": "URI",
      "type": "event"
    },
    {
      "inputs": [],
      "name": "VERSION",
      "outputs": [
        {
          "internalType": "string",
          "name": "",
          "type": "string"
        }
      ],
      "stateMutability": "view",
      "type": "function"
    },
    {
      "inputs": [],
      "name": "artwork",
      "outputs": [
        {
          "internalType": "contract IArtwork",
          "name": "",
          "type": "address"
        }
      ],
      "stateMutability": "view",
      "type": "function"
    },
    {
      "inputs": [],
      "name": "auctionEndPrice",
      "outputs": [
        {
          "internalType": "uint256",
          "name": "",
          "type": "uint256"
        }
      ],
      "stateMutability": "view",
      "type": "function"
    },
    {
      "inputs": [],
      "name": "auctionEndTime",
      "outputs": [
        {
          "internalType": "uint256",
          "name": "",
          "type": "uint256"
        }
      ],
      "stateMutability": "view",
      "type": "function"
    },
    {
      "inputs": [],
      "name": "auctionExponential",
      "outputs": [
        {
          "internalType": "bool",
          "name": "",
          "type": "bool"
        }
      ],
      "stateMutability": "view",
      "type": "function"
    },
    {
      "inputs": [],
      "name": "auctionPriceSteps",
      "outputs": [
        {
          "internalType": "uint256",
          "name": "",
          "type": "uint256"
        }
      ],
      "stateMutability": "view",
      "type": "function"
    },
    {
      "inputs": [],
      "name": "auctionStartPrice",
      "outputs": [
        {
          "internalType": "uint256",
          "name": "",
          "type": "uint256"
        }
      ],
      "stateMutability": "view",
      "type": "function"
    },
    {
      "inputs": [],
      "name": "auctionStartTime",
      "outputs": [
        {
          "internalType": "uint256",
          "name": "",
          "type": "uint256"
        }
      ],
      "stateMutability": "view",
      "type": "function"
    },
    {
      "inputs": [
        {
          "internalType": "address",
          "name": "account",
          "type": "address"
        },
        {
          "internalType": "uint256",
          "name": "id",
          "type": "uint256"
        }
      ],
      "name": "balanceOf",
      "outputs": [
        {
          "internalType": "uint256",
          "name": "",
          "type": "uint256"
        }
      ],
      "stateMutability": "view",
      "type": "function"
    },
    {
      "inputs": [
        {
          "internalType": "address[]",
          "name": "accounts",
          "type": "address[]"
        },
        {
          "internalType": "uint256[]",
          "name": "ids",
          "type": "uint256[]"
        }
      ],
      "name": "balanceOfBatch",
      "outputs": [
        {
          "internalType": "uint256[]",
          "name": "",
          "type": "uint256[]"
        }
      ],
      "stateMutability": "view",
      "type": "function"
    },
    {
      "inputs": [
        {
          "internalType": "uint256",
          "name": "id",
          "type": "uint256"
        }
      ],
      "name": "exists",
      "outputs": [
        {
          "internalType": "bool",
          "name": "",
          "type": "bool"
        }
      ],
      "stateMutability": "view",
      "type": "function"
    },
    {
      "inputs": [
        {
          "internalType": "address",
          "name": "account",
          "type": "address"
        },
        {
          "internalType": "address",
          "name": "operator",
          "type": "address"
        }
      ],
      "name": "isApprovedForAll",
      "outputs": [
        {
          "internalType": "bool",
          "name": "",
          "type": "bool"
        }
      ],
      "stateMutability": "view",
      "type": "function"
    },
    {
      "inputs": [
        {
          "internalType": "uint256",
          "name": "_tokenId",
          "type": "uint256"
        }
      ],
      "name": "maxSupply",
      "outputs": [
        {
          "internalType": "uint256",
          "name": "_maxSupply",
          "type": "uint256"
        }
      ],
      "stateMutability": "view",
      "type": "function"
    },
    {
      "inputs": [
        {
          "internalType": "address",
          "name": "_recipient",
          "type": "address"
        },
        {
          "internalType": "uint256[]",
          "name": "_traitTokenIds",
          "type": "uint256[]"
        },
        {
          "internalType": "uint256[]",
          "name": "_traitAmounts",
          "type": "uint256[]"
        }
      ],
      "name": "mintTraits",
      "outputs": [],
      "stateMutability": "payable",
      "type": "function"
    },
    {
      "inputs": [
        {
          "internalType": "address",
          "name": "_recipient",
          "type": "address"
        },
        {
          "internalType": "uint256[]",
          "name": "_traitTokenIds",
          "type": "uint256[]"
        }
      ],
      "name": "mintTraitsWhitelistOrProof",
      "outputs": [],
      "stateMutability": "nonpayable",
      "type": "function"
    },
    {
      "inputs": [
        {
          "internalType": "uint256",
          "name": "index",
          "type": "uint256"
        }
      ],
      "name": "payee",
      "outputs": [
        {
          "internalType": "address",
          "name": "",
          "type": "address"
        }
      ],
      "stateMutability": "view",
      "type": "function"
    },
    {
      "inputs": [],
      "name": "payees",
      "outputs": [
        {
          "internalType": "address[]",
          "name": "payees_",
          "type": "address[]"
        },
        {
          "internalType": "uint256[]",
          "name": "shares_",
          "type": "uint256[]"
        }
      ],
      "stateMutability": "view",
      "type": "function"
    },
    {
      "inputs": [],
      "name": "projectRegistry",
      "outputs": [
        {
          "internalType": "contract IProjectRegistry",
          "name": "",
          "type": "address"
        }
      ],
      "stateMutability": "view",
      "type": "function"
    },
    {
      "inputs": [
        {
          "internalType": "contract IERC20",
          "name": "token",
          "type": "address"
        },
        {
          "internalType": "address",
          "name": "account",
          "type": "address"
        }
      ],
      "name": "releasableERC20",
      "outputs": [
        {
          "internalType": "uint256",
          "name": "",
          "type": "uint256"
        }
      ],
      "stateMutability": "view",
      "type": "function"
    },
    {
      "inputs": [
        {
          "internalType": "address",
          "name": "account",
          "type": "address"
        }
      ],
      "name": "releasableETH",
      "outputs": [
        {
          "internalType": "uint256",
          "name": "",
          "type": "uint256"
        }
      ],
      "stateMutability": "view",
      "type": "function"
    },
    {
      "inputs": [
        {
          "internalType": "contract IERC20",
          "name": "token",
          "type": "address"
        }
      ],
      "name": "releaseERC20",
      "outputs": [],
      "stateMutability": "nonpayable",
      "type": "function"
    },
    {
      "inputs": [],
      "name": "releaseETH",
      "outputs": [],
      "stateMutability": "nonpayable",
      "type": "function"
    },
    {
      "inputs": [
        {
          "internalType": "contract IERC20",
          "name": "token",
          "type": "address"
        },
        {
          "internalType": "address",
          "name": "account",
          "type": "address"
        }
      ],
      "name": "releasedERC20",
      "outputs": [
        {
          "internalType": "uint256",
          "name": "",
          "type": "uint256"
        }
      ],
      "stateMutability": "view",
      "type": "function"
    },
    {
      "inputs": [
        {
          "internalType": "address",
          "name": "account",
          "type": "address"
        }
      ],
      "name": "releasedETH",
      "outputs": [
        {
          "internalType": "uint256",
          "name": "",
          "type": "uint256"
        }
      ],
      "stateMutability": "view",
      "type": "function"
    },
    {
      "inputs": [
        {
          "internalType": "uint256",
          "name": "tokenId",
          "type": "uint256"
        },
        {
          "internalType": "uint256",
          "name": "salePrice",
          "type": "uint256"
        }
      ],
      "name": "royaltyInfo",
      "outputs": [
        {
          "internalType": "address",
          "name": "",
          "type": "address"
        },
        {
          "internalType": "uint256",
          "name": "",
          "type": "uint256"
        }
      ],
      "stateMutability": "view",
      "type": "function"
    },
    {
      "inputs": [
        {
          "internalType": "address",
          "name": "from",
          "type": "address"
        },
        {
          "internalType": "address",
          "name": "to",
          "type": "address"
        },
        {
          "internalType": "uint256[]",
          "name": "ids",
          "type": "uint256[]"
        },
        {
          "internalType": "uint256[]",
          "name": "amounts",
          "type": "uint256[]"
        },
        {
          "internalType": "bytes",
          "name": "data",
          "type": "bytes"
        }
      ],
      "name": "safeBatchTransferFrom",
      "outputs": [],
      "stateMutability": "nonpayable",
      "type": "function"
    },
    {
      "inputs": [
        {
          "internalType": "address",
          "name": "from",
          "type": "address"
        },
        {
          "internalType": "address",
          "name": "to",
          "type": "address"
        },
        {
          "internalType": "uint256",
          "name": "id",
          "type": "uint256"
        },
        {
          "internalType": "uint256",
          "name": "amount",
          "type": "uint256"
        },
        {
          "internalType": "bytes",
          "name": "data",
          "type": "bytes"
        }
      ],
      "name": "safeTransferFrom",
      "outputs": [],
      "stateMutability": "nonpayable",
      "type": "function"
    },
    {
      "inputs": [
        {
          "internalType": "address",
          "name": "operator",
          "type": "address"
        },
        {
          "internalType": "bool",
          "name": "approved",
          "type": "bool"
        }
      ],
      "name": "setApprovalForAll",
      "outputs": [],
      "stateMutability": "nonpayable",
      "type": "function"
    },
    {
      "inputs": [
        {
          "internalType": "bytes",
          "name": "_data",
          "type": "bytes"
        }
      ],
      "name": "setup",
      "outputs": [],
      "stateMutability": "nonpayable",
      "type": "function"
    },
    {
      "inputs": [
        {
          "internalType": "address",
          "name": "account",
          "type": "address"
        }
      ],
      "name": "shares",
      "outputs": [
        {
          "internalType": "uint256",
          "name": "",
          "type": "uint256"
        }
      ],
      "stateMutability": "view",
      "type": "function"
    },
    {
      "inputs": [
        {
          "internalType": "bytes4",
          "name": "interfaceId",
          "type": "bytes4"
        }
      ],
      "name": "supportsInterface",
      "outputs": [
        {
          "internalType": "bool",
          "name": "",
          "type": "bool"
        }
      ],
      "stateMutability": "view",
      "type": "function"
    },
    {
      "inputs": [
        {
          "internalType": "contract IERC20",
          "name": "token",
          "type": "address"
        }
      ],
      "name": "totalReleasedERC20",
      "outputs": [
        {
          "internalType": "uint256",
          "name": "",
          "type": "uint256"
        }
      ],
      "stateMutability": "view",
      "type": "function"
    },
    {
      "inputs": [],
      "name": "totalReleasedETH",
      "outputs": [
        {
          "internalType": "uint256",
          "name": "",
          "type": "uint256"
        }
      ],
      "stateMutability": "view",
      "type": "function"
    },
    {
      "inputs": [],
      "name": "totalShares",
      "outputs": [
        {
          "internalType": "uint256",
          "name": "",
          "type": "uint256"
        }
      ],
      "stateMutability": "view",
      "type": "function"
    },
    {
      "inputs": [
        {
          "internalType": "uint256",
          "name": "id",
          "type": "uint256"
        }
      ],
      "name": "totalSupply",
      "outputs": [
        {
          "internalType": "uint256",
          "name": "",
          "type": "uint256"
        }
      ],
      "stateMutability": "view",
      "type": "function"
    },
    {
      "inputs": [
        {
          "internalType": "uint256",
          "name": "_tokenId",
          "type": "uint256"
        }
      ],
      "name": "trait",
      "outputs": [
        {
          "internalType": "string",
          "name": "_traitName",
          "type": "string"
        },
        {
          "internalType": "string",
          "name": "_traitValue",
          "type": "string"
        },
        {
          "internalType": "string",
          "name": "_traitTypeName",
          "type": "string"
        },
        {
          "internalType": "string",
          "name": "_traitTypeValue",
          "type": "string"
        }
      ],
      "stateMutability": "view",
      "type": "function"
    },
    {
      "inputs": [],
      "name": "traitPrice",
      "outputs": [
        {
          "internalType": "uint256",
          "name": "",
          "type": "uint256"
        }
      ],
      "stateMutability": "view",
      "type": "function"
    },
    {
      "inputs": [],
      "name": "traitPriceStep",
      "outputs": [
        {
          "internalType": "uint256",
          "name": "",
          "type": "uint256"
        }
      ],
      "stateMutability": "view",
      "type": "function"
    },
    {
      "inputs": [],
      "name": "traitTypes",
      "outputs": [
        {
          "internalType": "string[]",
          "name": "_traitTypeNames",
          "type": "string[]"
        },
        {
          "internalType": "string[]",
          "name": "_traitTypeValues",
          "type": "string[]"
        }
      ],
      "stateMutability": "view",
      "type": "function"
    },
    {
      "inputs": [],
      "name": "traits",
      "outputs": [
        {
          "internalType": "uint256[]",
          "name": "_traitTokenIds",
          "type": "uint256[]"
        },
        {
          "internalType": "string[]",
          "name": "_traitNames",
          "type": "string[]"
        },
        {
          "internalType": "string[]",
          "name": "_traitValues",
          "type": "string[]"
        },
        {
          "internalType": "uint256[]",
          "name": "_traitTypeIndexes",
          "type": "uint256[]"
        },
        {
          "internalType": "string[]",
          "name": "_traitTypeNames",
          "type": "string[]"
        },
        {
          "internalType": "string[]",
          "name": "_traitTypeValues",
          "type": "string[]"
        },
        {
          "internalType": "uint256[]",
          "name": "_traitTotalSupplys",
          "type": "uint256[]"
        },
        {
          "internalType": "uint256[]",
          "name": "_traitMaxSupplys",
          "type": "uint256[]"
        }
      ],
      "stateMutability": "view",
      "type": "function"
    },
    {
      "inputs": [],
      "name": "traitsSaleStartTime",
      "outputs": [
        {
          "internalType": "uint256",
          "name": "",
          "type": "uint256"
        }
      ],
      "stateMutability": "view",
      "type": "function"
    },
    {
      "inputs": [
        {
          "internalType": "address",
          "name": "_caller",
          "type": "address"
        },
        {
          "internalType": "uint256[]",
          "name": "_traitTokenIds",
          "type": "uint256[]"
        }
      ],
      "name": "transferTraitsToMintArtwork",
      "outputs": [],
      "stateMutability": "nonpayable",
      "type": "function"
    },
    {
      "inputs": [
        {
          "internalType": "uint256",
          "name": "_auctionStartTime",
          "type": "uint256"
        },
        {
          "internalType": "uint256",
          "name": "_auctionEndTime",
          "type": "uint256"
        },
        {
          "internalType": "uint256",
          "name": "_auctionStartPrice",
          "type": "uint256"
        },
        {
          "internalType": "uint256",
          "name": "_auctionEndPrice",
          "type": "uint256"
        },
        {
          "internalType": "uint256",
          "name": "_auctionPriceSteps",
          "type": "uint256"
        },
        {
          "internalType": "bool",
          "name": "_auctionExponential",
          "type": "bool"
        },
        {
          "internalType": "uint256",
          "name": "_traitsSaleStartTime",
          "type": "uint256"
        }
      ],
      "name": "updateAuction",
      "outputs": [],
      "stateMutability": "nonpayable",
      "type": "function"
    },
    {
      "inputs": [
        {
          "internalType": "uint256",
          "name": "_tokenId",
          "type": "uint256"
        }
      ],
      "name": "uri",
      "outputs": [
        {
          "internalType": "string",
          "name": "",
          "type": "string"
        }
      ],
      "stateMutability": "view",
      "type": "function"
    },
    {
      "stateMutability": "payable",
      "type": "receive"
    }
  ],
  "transactionHash": "0xd0ccde8b15c6c4ca42c818a799fcbbeb5e9a2e741b3a81c5f2aef0023423e6a3",
  "args": [
    "0xF5802C958c53b4aDD1fc3C584BF5C39935214B56",
    {
      "traitTypeNames": [
        "Background Hue",
        "Background Tone",
        "Ring Hue",
        "Ring Tone",
        "Ring Opacity"
      ],
      "traitTypeValues": [
        "bH",
        "bT",
        "pH",
        "pT",
        "p0"
      ],
      "traitNames": [
        "Red",
        "Orange",
        "Yellow",
        "Chartreuse",
        "Green",
        "Turquoise",
        "Cyan",
        "Cobalt",
        "Blue",
        "Violet",
        "Magenta",
        "Fuchsia",
        "Lighter",
        "Light",
        "Bright",
        "Brighter",
        "Dark",
        "Darker",
        "White",
        "Black",
        "Red",
        "Orange",
        "Yellow",
        "Chartreuse",
        "Green",
        "Turquoise",
        "Cyan",
        "Cobalt",
        "Blue",
        "Violet",
        "Magenta",
        "Fuchsia",
        "Lighter",
        "Light",
        "Bright",
        "Brighter",
        "Dark",
        "Darker",
        "White",
        "Black",
        "Transparent",
        "Semi-transparent",
        "Mid",
        "Semi-opaque",
        "Opaque"
      ],
      "traitValues": [
        "0",
        "1",
        "2",
        "3",
        "4",
        "5",
        "6",
        "7",
        "8",
        "9",
        "10",
        "11",
        "0",
        "1",
        "2",
        "3",
        "4",
        "5",
        "6",
        "7",
        "0",
        "1",
        "2",
        "3",
        "4",
        "5",
        "6",
        "7",
        "8",
        "9",
        "10",
        "11",
        "0",
        "1",
        "2",
        "3",
        "4",
        "5",
        "6",
        "7",
        "0",
        "1",
        "2",
        "3",
        "4"
      ],
      "traitTypeIndexes": [
        0,
        0,
        0,
        0,
        0,
        0,
        0,
        0,
        0,
        0,
        0,
        0,
        1,
        1,
        1,
        1,
        1,
        1,
        1,
        1,
        2,
        2,
        2,
        2,
        2,
        2,
        2,
        2,
        2,
        2,
        2,
        2,
        3,
        3,
        3,
        3,
        3,
        3,
        3,
        3,
        4,
        4,
        4,
        4,
        4
      ],
      "traitMaxSupplys": [
        "100",
        "100",
        "100",
        "100",
        "100",
        "100",
        "100",
        "100",
        "100",
        "100",
        "100",
        "100",
        "150",
        "100",
        "100",
        "100",
        "100",
        "150",
        "250",
        "250",
        "100",
        "100",
        "100",
        "100",
        "100",
        "100",
        "100",
        "100",
        "100",
        "100",
        "100",
        "100",
        "100",
        "100",
        "200",
        "300",
        "100",
        "100",
        "50",
        "50",
        "200",
        "200",
        "200",
        "200",
        "200"
      ]
    },
    [
      "0xAa9D46AE079851116967c6573f961B304095C34a"
    ],
    [
      "100"
    ]
  ],
  "numDeployments": 1,
  "solcInputHash": "fe94db9a202475b075801c7069468270",
  "bytecode": "0x60806040523480156200001157600080fd5b50604051620055bd380380620055bd833981016040819052620000349162000754565b81816040518060200160405280600081525062000057816200015160201b60201c565b5080518251146200007b5760405163a9854bc960e01b815260040160405180910390fd5b81516000036200009e57604051637b21919d60e01b815260040160405180910390fd5b60005b8251811015620000fe57620000f5838281518110620000c457620000c4620008ef565b6020026020010151838381518110620000e157620000e1620008ef565b60200260200101516200016360201b60201c565b600101620000a1565b5050600e80546001600160a01b0319166001600160a01b038716179055508251602084015160408501516060860151608087015160a08801516200014795949392919062000298565b5050505062000a88565b60046200015f828262000994565b5050565b6001600160a01b0382166200018b5760405163d92e233d60e01b815260040160405180910390fd5b80600003620001ad57604051639811e0c760e01b815260040160405180910390fd5b6001600160a01b03821660009081526009602052604090205415620001e5576040516307513e0760e21b815260040160405180910390fd5b60088054600181019091557ff3f7a9fe364faab93b216da50a3214154f22a0a2b415b23a84c8169e8b636ee30180546001600160a01b0319166001600160a01b03841690811790915560009081526009602052604090208190556006546200024f90829062000a60565b600655604080516001600160a01b0384168152602081018390527f40c340f65e17194d14ddddb073d3c9f888e3cb52b5aae0c6c7706b4fbc905fac910160405180910390a15050565b85511580620002a657508351155b80620002b457508451865114155b80620002c257508251845114155b80620002d057508151845114155b80620002de57508051845114155b15620002fd5760405163a9854bc960e01b815260040160405180910390fd5b60005b8651811015620003a957601560405180604001604052808984815181106200032c576200032c620008ef565b602002602001015181526020018884815181106200034e576200034e620008ef565b602090810291909101810151909152825460018101845560009384529220815191926002020190819062000383908262000994565b50602082015160018201906200039a908262000994565b50505080600101905062000300565b5060005b8451811015620004ab5760166040518060800160405280878481518110620003d957620003d9620008ef565b60200260200101518152602001868481518110620003fb57620003fb620008ef565b602002602001015181526020018584815181106200041d576200041d620008ef565b602002602001015181526020018484815181106200043f576200043f620008ef565b602090810291909101810151909152825460018101845560009384529220815191926004020190819062000474908262000994565b50602082015160018201906200048b908262000994565b5060408201516002820155606090910151600390910155600101620003ad565b50505050505050565b80516001600160a01b0381168114620004cc57600080fd5b919050565b634e487b7160e01b600052604160045260246000fd5b60405160c081016001600160401b03811182821017156200050c576200050c620004d1565b60405290565b604051601f8201601f191681016001600160401b03811182821017156200053d576200053d620004d1565b604052919050565b60006001600160401b03821115620005615762000561620004d1565b5060051b60200190565b6000601f83818401126200057e57600080fd5b8251602062000597620005918362000545565b62000512565b82815260059290921b85018101918181019087841115620005b757600080fd5b8287015b84811015620006705780516001600160401b0380821115620005dd5760008081fd5b818a0191508a603f830112620005f35760008081fd5b85820151818111156200060a576200060a620004d1565b6200061d818a01601f1916880162000512565b915080825260408c81838601011115620006375760008081fd5b60005b8281101562000657578481018201518482018a015288016200063a565b50506000908201870152845250918301918301620005bb565b50979650505050505050565b600082601f8301126200068e57600080fd5b81516020620006a1620005918362000545565b82815260059290921b84018101918181019086841115620006c157600080fd5b8286015b84811015620006de5780518352918301918301620006c5565b509695505050505050565b600082601f830112620006fb57600080fd5b815160206200070e620005918362000545565b82815260059290921b840181019181810190868411156200072e57600080fd5b8286015b84811015620006de576200074681620004b4565b835291830191830162000732565b600080600080608085870312156200076b57600080fd5b6200077685620004b4565b60208601519094506001600160401b03808211156200079457600080fd5b9086019060c08289031215620007a957600080fd5b620007b3620004e7565b825182811115620007c357600080fd5b620007d18a8286016200056b565b825250602083015182811115620007e757600080fd5b620007f58a8286016200056b565b6020830152506040830151828111156200080e57600080fd5b6200081c8a8286016200056b565b6040830152506060830151828111156200083557600080fd5b620008438a8286016200056b565b6060830152506080830151828111156200085c57600080fd5b6200086a8a8286016200067c565b60808301525060a0830151828111156200088357600080fd5b620008918a8286016200067c565b60a0830152506040880151909550915080821115620008af57600080fd5b620008bd88838901620006e9565b93506060870151915080821115620008d457600080fd5b50620008e3878288016200067c565b91505092959194509250565b634e487b7160e01b600052603260045260246000fd5b600181811c908216806200091a57607f821691505b6020821081036200093b57634e487b7160e01b600052602260045260246000fd5b50919050565b601f8211156200098f57600081815260208120601f850160051c810160208610156200096a5750805b601f850160051c820191505b818110156200098b5782815560010162000976565b5050505b505050565b81516001600160401b03811115620009b057620009b0620004d1565b620009c881620009c1845462000905565b8462000941565b602080601f83116001811462000a005760008415620009e75750858301515b600019600386901b1c1916600185901b1785556200098b565b600085815260208120601f198616915b8281101562000a315788860151825594840194600190910190840162000a10565b508582101562000a505787850151600019600388901b60f8161c191681555b5050505050600190811b01905550565b8082018082111562000a8257634e487b7160e01b600052601160045260246000fd5b92915050565b614b258062000a986000396000f3fe6080604052600436106102e95760003560e01c80636639016b11610184578063d2f4e60f116100d6578063edeb832a1161008a578063f512fe3011610064578063f512fe30146108e1578063fb37f91f14610901578063ffa1ad741461091657600080fd5b8063edeb832a14610877578063f242432a14610891578063f3457fdf146108b157600080fd5b8063e1fc334f116100bb578063e1fc334f146107ef578063e985e9c514610818578063eb54f9ec1461086157600080fd5b8063d2f4e60f146107a3578063d756985b146107d957600080fd5b80639ded06df11610138578063bd85b03911610112578063bd85b039146106fa578063cdd9ac3814610727578063ce7c2ac21461076d57600080fd5b80639ded06df146106a4578063a04a6ac8146106c4578063a22cb465146106da57600080fd5b8063869f759411610169578063869f75941461064e57806388392b5d1461066e5780638b83209b1461068457600080fd5b80636639016b1461062457806384bba6a61461063957600080fd5b80633a98ef391161023d5780634e8086aa116101f15780635a33d8dc116101cb5780635a33d8dc146105d15780635bf1af44146105f15780636548a7621461060457600080fd5b80634e8086aa1461055f5780634f558e7914610582578063503492aa146105b157600080fd5b8063466bc05711610222578063466bc057146104fc5780634b449cba1461051c5780634e1273f41461053257600080fd5b80633a98ef39146104d157806341a1f7f5146104e657600080fd5b80631f0a595b1161029f5780632a55205a116102795780632a55205a146104525780632eb2c2d61461049157806337b2383f146104b157600080fd5b80631f0a595b146103d05780632437abfa146103f357806326cc133e1461041557600080fd5b806301ffc9a7116102d057806301ffc9a71461033d5780630e89341c1461036d57806319766c481461039a57600080fd5b8062a9bb01146102f5578062fdd58e1461031d57600080fd5b366102f057005b600080fd5b34801561030157600080fd5b5061030a61095f565b6040519081526020015b60405180910390f35b34801561032957600080fd5b5061030a610338366004613ccf565b610a33565b34801561034957600080fd5b5061035d610358366004613d11565b610ae1565b6040519015158152602001610314565b34801561037957600080fd5b5061038d610388366004613d2e565b610b1f565b6040516103149190613d97565b3480156103a657600080fd5b5061030a6103b5366004613daa565b6001600160a01b03166000908152600b602052604090205490565b3480156103dc57600080fd5b506103e5610c2a565b604051610314929190613e1c565b3480156103ff57600080fd5b5061041361040e366004613daa565b610e7d565b005b34801561042157600080fd5b50600d5461043a9061010090046001600160a01b031681565b6040516001600160a01b039091168152602001610314565b34801561045e57600080fd5b5061047261046d366004613e4a565b610f86565b604080516001600160a01b039093168352602083019190915201610314565b34801561049d57600080fd5b506104136104ac366004613fc8565b61100e565b3480156104bd57600080fd5b506104136104cc3660046140bb565b6110b0565b3480156104dd57600080fd5b5060065461030a565b3480156104f257600080fd5b5061030a60135481565b34801561050857600080fd5b5061030a610517366004614110565b611241565b34801561052857600080fd5b5061030a60105481565b34801561053e57600080fd5b5061055261054d366004614149565b61132a565b6040516103149190614251565b34801561056b57600080fd5b50610574611468565b604051610314929190614264565b34801561058e57600080fd5b5061035d61059d366004613d2e565b600090815260056020526040902054151590565b3480156105bd57600080fd5b506104136105cc3660046142d2565b611581565b3480156105dd57600080fd5b50600e5461043a906001600160a01b031681565b6104136105ff366004614332565b6115ff565b34801561061057600080fd5b5061030a61061f366004613daa565b61182e565b34801561063057600080fd5b5061041361186a565b34801561064557600080fd5b5060075461030a565b34801561065a57600080fd5b5061030a610669366004613d2e565b611939565b34801561067a57600080fd5b5061030a60145481565b34801561069057600080fd5b5061043a61069f366004613d2e565b611967565b3480156106b057600080fd5b506104136106bf3660046143b5565b611997565b3480156106d057600080fd5b5061030a60125481565b3480156106e657600080fd5b506104136106f5366004614427565b611a85565b34801561070657600080fd5b5061030a610715366004613d2e565b60009081526005602052604090205490565b34801561073357600080fd5b5061030a610742366004614110565b6001600160a01b039182166000908152600c6020908152604080832093909416825291909152205490565b34801561077957600080fd5b5061030a610788366004613daa565b6001600160a01b031660009081526009602052604090205490565b3480156107af57600080fd5b5061030a6107be366004613daa565b6001600160a01b03166000908152600a602052604090205490565b3480156107e557600080fd5b5061030a60115481565b3480156107fb57600080fd5b50610804611a94565b604051610314989796959493929190614455565b34801561082457600080fd5b5061035d610833366004614110565b6001600160a01b03918216600090815260036020908152604080832093909416825291909152205460ff1690565b34801561086d57600080fd5b5061030a600f5481565b34801561088357600080fd5b50600d5461035d9060ff1681565b34801561089d57600080fd5b506104136108ac366004614504565b612161565b3480156108bd57600080fd5b506108d16108cc366004613d2e565b6121fc565b604051610314949392919061456d565b3480156108ed57600080fd5b506104136108fc3660046140bb565b612532565b34801561090d57600080fd5b5061030a612723565b34801561092257600080fd5b5061038d6040518060400160405280600381526020017f312e30000000000000000000000000000000000000000000000000000000000081525081565b600d5460009060ff16156109eb576012546002600160135461098191906145d0565b61098b91906146c7565b60026001610997612723565b6013546109a491906145d0565b6109ae91906145d0565b6109b891906146c7565b6012546011546109c891906145d0565b6109d291906146d6565b6109dc91906146ed565b6109e6919061470f565b905090565b60016013546109fa91906145d0565b601254601154610a0a91906145d0565b610a12612723565b610a1c91906146d6565b610a2691906146ed565b6011546109e691906145d0565b60006001600160a01b038316610ab65760405162461bcd60e51b815260206004820152602a60248201527f455243313135353a2061646472657373207a65726f206973206e6f742061207660448201527f616c6964206f776e65720000000000000000000000000000000000000000000060648201526084015b60405180910390fd5b5060008181526002602090815260408083206001600160a01b03861684529091529020545b92915050565b60006001600160e01b031982167fc018db28000000000000000000000000000000000000000000000000000000001480610adb5750610adb826127ad565b6016546060908210610b44576040516307ed98ed60e31b815260040160405180910390fd5b600e54604080517f6c0360eb00000000000000000000000000000000000000000000000000000000815290516000926001600160a01b031691636c0360eb91600480830192869291908290030181865afa158015610ba6573d6000803e3d6000fd5b505050506040513d6000823e601f3d908101601f19168201604052610bce9190810190614722565b90508051600003610bee5760405180602001604052806000815250610c23565b80610bf83061281f565b610c0185612835565b604051602001610c139392919061479a565b6040516020818303038152906040525b9392505050565b60155460609081908067ffffffffffffffff811115610c4b57610c4b613e6c565b604051908082528060200260200182016040528015610c7e57816020015b6060815260200190600190039081610c695790505b5092508067ffffffffffffffff811115610c9a57610c9a613e6c565b604051908082528060200260200182016040528015610ccd57816020015b6060815260200190600190039081610cb85790505b50915060005b81811015610e775760158181548110610cee57610cee614806565b90600052602060002090600202016000018054610d0a9061481c565b80601f0160208091040260200160405190810160405280929190818152602001828054610d369061481c565b8015610d835780601f10610d5857610100808354040283529160200191610d83565b820191906000526020600020905b815481529060010190602001808311610d6657829003601f168201915b5050505050848281518110610d9a57610d9a614806565b602002602001018190525060158181548110610db857610db8614806565b90600052602060002090600202016001018054610dd49061481c565b80601f0160208091040260200160405190810160405280929190818152602001828054610e009061481c565b8015610e4d5780601f10610e2257610100808354040283529160200191610e4d565b820191906000526020600020905b815481529060010190602001808311610e3057829003601f168201915b5050505050838281518110610e6457610e64614806565b6020908102919091010152600101610cd3565b50509091565b336000908152600960205260408120549003610eac5760405163b317087b60e01b815260040160405180910390fd5b6000610eb88233611241565b905080600003610edb5760405163589b68c960e01b815260040160405180910390fd5b6001600160a01b0382166000908152600b602052604081208054839290610f0390849061470f565b90915550506001600160a01b0382166000908152600c60209081526040808320338085529252909120805483019055610f3e908390836128d5565b60408051338152602081018390526001600160a01b038416917f3be5b7a71e84ed12875d241991c70855ac5817d847039e17a9d895c1ceb0f18a910160405180910390a25050565b600d5460405163152a902d60e11b8152600481018490526024810183905260009182916101009091046001600160a01b031690632a55205a906044016040805180830381865afa158015610fde573d6000803e3d6000fd5b505050506040513d601f19601f820116820180604052508101906110029190614856565b915091505b9250929050565b6001600160a01b03851633148061102a575061102a8533610833565b61109c5760405162461bcd60e51b815260206004820152602e60248201527f455243313135353a2063616c6c6572206973206e6f7420746f6b656e206f776e60448201527f6572206f7220617070726f7665640000000000000000000000000000000000006064820152608401610aad565b6110a9858585858561295a565b5050505050565b600d5461010090046001600160a01b031633146110e057604051636447134960e01b815260040160405180910390fd5b60155481146111025760405163a9854bc960e01b815260040160405180910390fd5b60008167ffffffffffffffff81111561111d5761111d613e6c565b604051908082528060200260200182016040528015611146578160200160208202803683370190505b50905060005b828110156111d75780601685858481811061116957611169614806565b905060200201358154811061118057611180614806565b906000526020600020906004020160020154146111b057604051633221911d60e21b815260040160405180910390fd5b60018282815181106111c4576111c4614806565b602090810291909101015260010161114c565b5061123b84600d60019054906101000a90046001600160a01b031685858080602002602001604051908101604052809392919081815260200183836020028082843760009201829052506040805160208101909152908152889350915061295a9050565b50505050565b6001600160a01b0382166000908152600b602052604081205481906040517f70a082310000000000000000000000000000000000000000000000000000000081523060048201526001600160a01b038616906370a0823190602401602060405180830381865afa1580156112b9573d6000803e3d6000fd5b505050506040513d601f19601f820116820180604052508101906112dd9190614884565b6112e7919061470f565b6001600160a01b038086166000908152600c60209081526040808320938816835292905220549091506113229084908390612bc1565b612bc1565b949350505050565b606081518351146113a35760405162461bcd60e51b815260206004820152602960248201527f455243313135353a206163636f756e747320616e6420696473206c656e67746860448201527f206d69736d6174636800000000000000000000000000000000000000000000006064820152608401610aad565b6000835167ffffffffffffffff8111156113bf576113bf613e6c565b6040519080825280602002602001820160405280156113e8578160200160208202803683370190505b50905060005b84518110156114605761143385828151811061140c5761140c614806565b602002602001015185838151811061142657611426614806565b6020026020010151610a33565b82828151811061144557611445614806565b60209081029190910101526114598161489d565b90506113ee565b509392505050565b60608060088054806020026020016040519081016040528092919081815260200182805480156114c157602002820191906000526020600020905b81546001600160a01b031681526001909101906020018083116114a3575b5050600854939550839250505067ffffffffffffffff8111156114e6576114e6613e6c565b60405190808252806020026020018201604052801561150f578160200160208202803683370190505b50915060005b81811015610e77576009600085838151811061153357611533614806565b60200260200101516001600160a01b03166001600160a01b031681526020019081526020016000205483828151811061156e5761156e614806565b6020908102919091010152600101611515565b600e546001600160a01b031633146115ac57604051630b35571f60e21b815260040160405180910390fd5b42600f54116115e7576040517f6fce86a800000000000000000000000000000000000000000000000000000000815260040160405180910390fd5b6115f687878787878787612bff565b50505050505050565b82811461161f5760405163a9854bc960e01b815260040160405180910390fd5b600d5461010090046001600160a01b03163314801590611640575060145442105b15611677576040517fac3d4d3900000000000000000000000000000000000000000000000000000000815260040160405180910390fd5b6000805b8281101561175e5783838281811061169557611695614806565b90506020020135826116a7919061470f565b915060168686838181106116bd576116bd614806565b90506020020135815481106116d4576116d4614806565b9060005260206000209060040201600301548484838181106116f8576116f8614806565b9050602002013561172d88888581811061171457611714614806565b9050602002013560009081526005602052604090205490565b611737919061470f565b111561175657604051632cdb04a160e21b815260040160405180910390fd5b60010161167b565b5061176761095f565b61177190826146d6565b3410156117aa576040517f0772327b00000000000000000000000000000000000000000000000000000000815260040160405180910390fd5b6118268686868080602002602001604051908101604052809392919081815260200183836020028082843760009201919091525050604080516020808a02828101820190935289825290935089925088918291850190849080828437600092018290525060408051602081019091529081529250612cf8915050565b505050505050565b60008061183a60075490565b611844904761470f565b9050610c23838261131d866001600160a01b03166000908152600a602052604090205490565b3360009081526009602052604081205490036118995760405163b317087b60e01b815260040160405180910390fd5b60006118a43361182e565b9050806000036118c75760405163589b68c960e01b815260040160405180910390fd5b80600760008282546118d9919061470f565b9091555050336000818152600a602052604090208054830190556118fd9082612eea565b60408051338152602081018390527fdf20fd1e76bc69d672e4814fafb2c449bba3a5369d8359adf9e05e6fde87b056910160405180910390a150565b60006016828154811061194e5761194e614806565b9060005260206000209060040201600301549050919050565b60006008828154811061197c5761197c614806565b6000918252602090912001546001600160a01b031692915050565b600e546001600160a01b031633146119c257604051630b35571f60e21b815260040160405180910390fd5b600d5461010090046001600160a01b031615611a0a576040517f7735869100000000000000000000000000000000000000000000000000000000815260040160405180910390fd5b600080808080808080611a1f898b018b6148b6565b600d80547fffffffffffffffffffffff0000000000000000000000000000000000000000ff166101006001600160a01b038b1602179055969e50949c50929a509098509650945092509050611a7986868686868c87612bff565b50505050505050505050565b611a90338383613003565b5050565b606080606080606080606080600060168054905090508067ffffffffffffffff811115611ac357611ac3613e6c565b604051908082528060200260200182016040528015611aec578160200160208202803683370190505b5098508067ffffffffffffffff811115611b0857611b08613e6c565b604051908082528060200260200182016040528015611b3b57816020015b6060815260200190600190039081611b265790505b5097508067ffffffffffffffff811115611b5757611b57613e6c565b604051908082528060200260200182016040528015611b8a57816020015b6060815260200190600190039081611b755790505b5096508067ffffffffffffffff811115611ba657611ba6613e6c565b604051908082528060200260200182016040528015611bcf578160200160208202803683370190505b5095508067ffffffffffffffff811115611beb57611beb613e6c565b604051908082528060200260200182016040528015611c1e57816020015b6060815260200190600190039081611c095790505b5094508067ffffffffffffffff811115611c3a57611c3a613e6c565b604051908082528060200260200182016040528015611c6d57816020015b6060815260200190600190039081611c585790505b5093508067ffffffffffffffff811115611c8957611c89613e6c565b604051908082528060200260200182016040528015611cb2578160200160208202803683370190505b5092508067ffffffffffffffff811115611cce57611cce613e6c565b604051908082528060200260200182016040528015611cf7578160200160208202803683370190505b50915060005b8181101561215557808a8281518110611d1857611d18614806565b60200260200101818152505060168181548110611d3757611d37614806565b90600052602060002090600402016000018054611d539061481c565b80601f0160208091040260200160405190810160405280929190818152602001828054611d7f9061481c565b8015611dcc5780601f10611da157610100808354040283529160200191611dcc565b820191906000526020600020905b815481529060010190602001808311611daf57829003601f168201915b5050505050898281518110611de357611de3614806565b602002602001018190525060168181548110611e0157611e01614806565b90600052602060002090600402016001018054611e1d9061481c565b80601f0160208091040260200160405190810160405280929190818152602001828054611e499061481c565b8015611e965780601f10611e6b57610100808354040283529160200191611e96565b820191906000526020600020905b815481529060010190602001808311611e7957829003601f168201915b5050505050888281518110611ead57611ead614806565b602002602001018190525060168181548110611ecb57611ecb614806565b906000526020600020906004020160020154878281518110611eef57611eef614806565b602002602001018181525050601560168281548110611f1057611f10614806565b90600052602060002090600402016002015481548110611f3257611f32614806565b90600052602060002090600202016000018054611f4e9061481c565b80601f0160208091040260200160405190810160405280929190818152602001828054611f7a9061481c565b8015611fc75780601f10611f9c57610100808354040283529160200191611fc7565b820191906000526020600020905b815481529060010190602001808311611faa57829003601f168201915b5050505050868281518110611fde57611fde614806565b6020026020010181905250601560168281548110611ffe57611ffe614806565b9060005260206000209060040201600201548154811061202057612020614806565b9060005260206000209060020201600101805461203c9061481c565b80601f01602080910402602001604051908101604052809291908181526020018280546120689061481c565b80156120b55780601f1061208a576101008083540402835291602001916120b5565b820191906000526020600020905b81548152906001019060200180831161209857829003601f168201915b50505050508582815181106120cc576120cc614806565b60200260200101819052506120ed8160009081526005602052604090205490565b8482815181106120ff576120ff614806565b6020026020010181815250506016818154811061211e5761211e614806565b90600052602060002090600402016003015483828151811061214257612142614806565b6020908102919091010152600101611cfd565b50509091929394959697565b6001600160a01b03851633148061217d575061217d8533610833565b6121ef5760405162461bcd60e51b815260206004820152602e60248201527f455243313135353a2063616c6c6572206973206e6f7420746f6b656e206f776e60448201527f6572206f7220617070726f7665640000000000000000000000000000000000006064820152608401610aad565b6110a985858585856130f7565b6060806060806016805490508510612227576040516307ed98ed60e31b815260040160405180910390fd5b6016858154811061223a5761223a614806565b906000526020600020906004020160000180546122569061481c565b80601f01602080910402602001604051908101604052809291908181526020018280546122829061481c565b80156122cf5780601f106122a4576101008083540402835291602001916122cf565b820191906000526020600020905b8154815290600101906020018083116122b257829003601f168201915b50505050509350601685815481106122e9576122e9614806565b906000526020600020906004020160010180546123059061481c565b80601f01602080910402602001604051908101604052809291908181526020018280546123319061481c565b801561237e5780601f106123535761010080835404028352916020019161237e565b820191906000526020600020905b81548152906001019060200180831161236157829003601f168201915b5050505050925060156016868154811061239a5761239a614806565b906000526020600020906004020160020154815481106123bc576123bc614806565b906000526020600020906002020160000180546123d89061481c565b80601f01602080910402602001604051908101604052809291908181526020018280546124049061481c565b80156124515780601f1061242657610100808354040283529160200191612451565b820191906000526020600020905b81548152906001019060200180831161243457829003601f168201915b5050505050915060156016868154811061246d5761246d614806565b9060005260206000209060040201600201548154811061248f5761248f614806565b906000526020600020906002020160010180546124ab9061481c565b80601f01602080910402602001604051908101604052809291908181526020018280546124d79061481c565b80156125245780601f106124f957610100808354040283529160200191612524565b820191906000526020600020905b81548152906001019060200180831161250757829003601f168201915b505050505090509193509193565b600d5461010090046001600160a01b0316331461256257604051636447134960e01b815260040160405180910390fd5b60155481146125845760405163a9854bc960e01b815260040160405180910390fd5b60008167ffffffffffffffff81111561259f5761259f613e6c565b6040519080825280602002602001820160405280156125c8578160200160208202803683370190505b50905060005b828110156126d5578060168585848181106125eb576125eb614806565b905060200201358154811061260257612602614806565b9060005260206000209060040201600201541461263257604051633221911d60e21b815260040160405180910390fd5b601684848381811061264657612646614806565b905060200201358154811061265d5761265d614806565b90600052602060002090600402016003015461268485858481811061171457611714614806565b61268f90600161470f565b11156126ae57604051632cdb04a160e21b815260040160405180910390fd5b60018282815181106126c2576126c2614806565b60209081029190910101526001016125ce565b5061123b84848480806020026020016040519081016040528093929190818152602001838360200280828437600092018290525060408051602081019091529081528793509150612cf89050565b6000600f54421015612761576040517f58fd8d1100000000000000000000000000000000000000000000000000000000815260040160405180910390fd5b60105442106127795760016013546109e691906145d0565b600f5460105461278991906145d0565b600f5461279690426145d0565b6013546127a391906146d6565b6109e691906146ed565b60006001600160e01b031982167fd9b67a2600000000000000000000000000000000000000000000000000000000148061281057506001600160e01b031982167f0e89341c00000000000000000000000000000000000000000000000000000000145b80610adb5750610adb826132b4565b6060610adb6001600160a01b0383166014613302565b60606000612842836134e3565b600101905060008167ffffffffffffffff81111561286257612862613e6c565b6040519080825280601f01601f19166020018201604052801561288c576020820181803683370190505b5090508181016020015b600019017f3031323334353637383961626364656600000000000000000000000000000000600a86061a8153600a850494508461289657509392505050565b604080516001600160a01b038416602482015260448082018490528251808303909101815260649091019091526020810180517bffffffffffffffffffffffffffffffffffffffffffffffffffffffff167fa9059cbb000000000000000000000000000000000000000000000000000000001790526129559084906135c5565b505050565b81518351146129bc5760405162461bcd60e51b815260206004820152602860248201527f455243313135353a2069647320616e6420616d6f756e7473206c656e677468206044820152670dad2e6dac2e8c6d60c31b6064820152608401610aad565b6001600160a01b038416612a205760405162461bcd60e51b815260206004820152602560248201527f455243313135353a207472616e7366657220746f20746865207a65726f206164604482015264647265737360d81b6064820152608401610aad565b33612a2f8187878787876136aa565b60005b8451811015612b5b576000858281518110612a4f57612a4f614806565b602002602001015190506000858381518110612a6d57612a6d614806565b60209081029190910181015160008481526002835260408082206001600160a01b038e168352909352919091205490915081811015612b015760405162461bcd60e51b815260206004820152602a60248201527f455243313135353a20696e73756666696369656e742062616c616e636520666f60448201526939103a3930b739b332b960b11b6064820152608401610aad565b60008381526002602090815260408083206001600160a01b038e8116855292528083208585039055908b16825281208054849290612b4090849061470f565b9250508190555050505080612b549061489d565b9050612a32565b50846001600160a01b0316866001600160a01b0316826001600160a01b03167f4a39dc06d4c0dbc64b70af90fd698a233a518aa5d07e595d983b8c0526c8f7fb8787604051612bab929190614921565b60405180910390a46118268187878787876136b8565b6006546001600160a01b03841660009081526009602052604081205490918391612beb90866146d6565b612bf591906146ed565b61132291906145d0565b86861080612c0c57508484115b80612c1657508681105b80612c2057504287105b80612c2b5750600283105b15612c62576040517f2156216000000000000000000000000000000000000000000000000000000000815260040160405180910390fd5b600f8790556010869055601185905560128490556013839055600d805460ff191683151590811790915560148290556040805189815260208101899052908101879052606081018690526080810185905260a081019190915260c081018290527f67d6b1cc23fa4bc51d9b54cd449808062dd794b2de35e59e14affb0abfda5b459060e00160405180910390a150505050505050565b6001600160a01b038416612d745760405162461bcd60e51b815260206004820152602160248201527f455243313135353a206d696e7420746f20746865207a65726f2061646472657360448201527f73000000000000000000000000000000000000000000000000000000000000006064820152608401610aad565b8151835114612dd65760405162461bcd60e51b815260206004820152602860248201527f455243313135353a2069647320616e6420616d6f756e7473206c656e677468206044820152670dad2e6dac2e8c6d60c31b6064820152608401610aad565b33612de6816000878787876136aa565b60005b8451811015612e8257838181518110612e0457612e04614806565b602002602001015160026000878481518110612e2257612e22614806565b602002602001015181526020019081526020016000206000886001600160a01b03166001600160a01b031681526020019081526020016000206000828254612e6a919061470f565b90915550819050612e7a8161489d565b915050612de9565b50846001600160a01b031660006001600160a01b0316826001600160a01b03167f4a39dc06d4c0dbc64b70af90fd698a233a518aa5d07e595d983b8c0526c8f7fb8787604051612ed3929190614921565b60405180910390a46110a9816000878787876136b8565b80471015612f3a5760405162461bcd60e51b815260206004820152601d60248201527f416464726573733a20696e73756666696369656e742062616c616e63650000006044820152606401610aad565b6000826001600160a01b03168260405160006040518083038185875af1925050503d8060008114612f87576040519150601f19603f3d011682016040523d82523d6000602084013e612f8c565b606091505b50509050806129555760405162461bcd60e51b815260206004820152603a60248201527f416464726573733a20756e61626c6520746f2073656e642076616c75652c207260448201527f6563697069656e74206d617920686176652072657665727465640000000000006064820152608401610aad565b816001600160a01b0316836001600160a01b03160361308a5760405162461bcd60e51b815260206004820152602960248201527f455243313135353a2073657474696e6720617070726f76616c2073746174757360448201527f20666f722073656c6600000000000000000000000000000000000000000000006064820152608401610aad565b6001600160a01b03838116600081815260036020908152604080832094871680845294825291829020805460ff191686151590811790915591519182527f17307eab39ab6107e8899845ad3d59bd9653f200f220920489ca2b5937696c31910160405180910390a3505050565b6001600160a01b03841661315b5760405162461bcd60e51b815260206004820152602560248201527f455243313135353a207472616e7366657220746f20746865207a65726f206164604482015264647265737360d81b6064820152608401610aad565b3360006131678561385d565b905060006131748561385d565b90506131848389898585896136aa565b60008681526002602090815260408083206001600160a01b038c1684529091529020548581101561320a5760405162461bcd60e51b815260206004820152602a60248201527f455243313135353a20696e73756666696369656e742062616c616e636520666f60448201526939103a3930b739b332b960b11b6064820152608401610aad565b60008781526002602090815260408083206001600160a01b038d8116855292528083208985039055908a1682528120805488929061324990849061470f565b909155505060408051888152602081018890526001600160a01b03808b16928c821692918816917fc3d58168c5ae7397731d063d5bbf3d657854427343f4c083240f7aacaa2d0f62910160405180910390a46132a9848a8a8a8a8a6138a8565b505050505050505050565b60006001600160e01b0319821663152a902d60e11b1480610adb57507f01ffc9a7000000000000000000000000000000000000000000000000000000006001600160e01b0319831614610adb565b606060006133118360026146d6565b61331c90600261470f565b67ffffffffffffffff81111561333457613334613e6c565b6040519080825280601f01601f19166020018201604052801561335e576020820181803683370190505b5090507f30000000000000000000000000000000000000000000000000000000000000008160008151811061339557613395614806565b60200101906001600160f81b031916908160001a9053507f7800000000000000000000000000000000000000000000000000000000000000816001815181106133e0576133e0614806565b60200101906001600160f81b031916908160001a90535060006134048460026146d6565b61340f90600161470f565b90505b6001811115613494577f303132333435363738396162636465660000000000000000000000000000000085600f166010811061345057613450614806565b1a60f81b82828151811061346657613466614806565b60200101906001600160f81b031916908160001a90535060049490941c9361348d81614946565b9050613412565b508315610c235760405162461bcd60e51b815260206004820181905260248201527f537472696e67733a20686578206c656e67746820696e73756666696369656e746044820152606401610aad565b6000807a184f03e93ff9f4daa797ed6e38ed64bf6a1f010000000000000000831061352c577a184f03e93ff9f4daa797ed6e38ed64bf6a1f010000000000000000830492506040015b6d04ee2d6d415b85acef81000000008310613558576d04ee2d6d415b85acef8100000000830492506020015b662386f26fc10000831061357657662386f26fc10000830492506010015b6305f5e100831061358e576305f5e100830492506008015b61271083106135a257612710830492506004015b606483106135b4576064830492506002015b600a8310610adb5760010192915050565b600061361a826040518060400160405280602081526020017f5361666545524332303a206c6f772d6c6576656c2063616c6c206661696c6564815250856001600160a01b03166139a49092919063ffffffff16565b8051909150156129555780806020019051810190613638919061495d565b6129555760405162461bcd60e51b815260206004820152602a60248201527f5361666545524332303a204552433230206f7065726174696f6e20646964206e60448201527f6f742073756363656564000000000000000000000000000000000000000000006064820152608401610aad565b6118268686868686866139b3565b6001600160a01b0384163b156118265760405163bc197c8160e01b81526001600160a01b0385169063bc197c81906136fc908990899088908890889060040161497a565b6020604051808303816000875af1925050508015613737575060408051601f3d908101601f19168201909252613734918101906149d8565b60015b6137ec576137436149f5565b806308c379a00361377c5750613757614a11565b80613762575061377e565b8060405162461bcd60e51b8152600401610aad9190613d97565b505b60405162461bcd60e51b815260206004820152603460248201527f455243313135353a207472616e7366657220746f206e6f6e2d4552433131353560448201527f526563656976657220696d706c656d656e7465720000000000000000000000006064820152608401610aad565b6001600160e01b0319811663bc197c8160e01b146115f65760405162461bcd60e51b815260206004820152602860248201527f455243313135353a204552433131353552656365697665722072656a656374656044820152676420746f6b656e7360c01b6064820152608401610aad565b6040805160018082528183019092526060916000919060208083019080368337019050509050828160008151811061389757613897614806565b602090810291909101015292915050565b6001600160a01b0384163b156118265760405163f23a6e6160e01b81526001600160a01b0385169063f23a6e61906138ec9089908990889088908890600401614a9b565b6020604051808303816000875af1925050508015613927575060408051601f3d908101601f19168201909252613924918101906149d8565b60015b613933576137436149f5565b6001600160e01b0319811663f23a6e6160e01b146115f65760405162461bcd60e51b815260206004820152602860248201527f455243313135353a204552433131353552656365697665722072656a656374656044820152676420746f6b656e7360c01b6064820152608401610aad565b60606113228484600085613b41565b6001600160a01b038516613a3a5760005b8351811015613a38578281815181106139df576139df614806565b6020026020010151600560008684815181106139fd576139fd614806565b602002602001015181526020019081526020016000206000828254613a22919061470f565b90915550613a3190508161489d565b90506139c4565b505b6001600160a01b0384166118265760005b83518110156115f6576000848281518110613a6857613a68614806565b602002602001015190506000848381518110613a8657613a86614806565b6020026020010151905060006005600084815260200190815260200160002054905081811015613b1e5760405162461bcd60e51b815260206004820152602860248201527f455243313135353a206275726e20616d6f756e74206578636565647320746f7460448201527f616c537570706c790000000000000000000000000000000000000000000000006064820152608401610aad565b60009283526005602052604090922091039055613b3a8161489d565b9050613a4b565b606082471015613bb95760405162461bcd60e51b815260206004820152602660248201527f416464726573733a20696e73756666696369656e742062616c616e636520666f60448201527f722063616c6c00000000000000000000000000000000000000000000000000006064820152608401610aad565b600080866001600160a01b03168587604051613bd59190614ad3565b60006040518083038185875af1925050503d8060008114613c12576040519150601f19603f3d011682016040523d82523d6000602084013e613c17565b606091505b5091509150613c2887838387613c33565b979650505050505050565b60608315613ca2578251600003613c9b576001600160a01b0385163b613c9b5760405162461bcd60e51b815260206004820152601d60248201527f416464726573733a2063616c6c20746f206e6f6e2d636f6e74726163740000006044820152606401610aad565b5081611322565b61132283838151156137625781518083602001fd5b6001600160a01b0381168114613ccc57600080fd5b50565b60008060408385031215613ce257600080fd5b8235613ced81613cb7565b946020939093013593505050565b6001600160e01b031981168114613ccc57600080fd5b600060208284031215613d2357600080fd5b8135610c2381613cfb565b600060208284031215613d4057600080fd5b5035919050565b60005b83811015613d62578181015183820152602001613d4a565b50506000910152565b60008151808452613d83816020860160208601613d47565b601f01601f19169290920160200192915050565b602081526000610c236020830184613d6b565b600060208284031215613dbc57600080fd5b8135610c2381613cb7565b600081518084526020808501808196508360051b8101915082860160005b85811015613e0f578284038952613dfd848351613d6b565b98850198935090840190600101613de5565b5091979650505050505050565b604081526000613e2f6040830185613dc7565b8281036020840152613e418185613dc7565b95945050505050565b60008060408385031215613e5d57600080fd5b50508035926020909101359150565b634e487b7160e01b600052604160045260246000fd5b601f8201601f1916810167ffffffffffffffff81118282101715613ea857613ea8613e6c565b6040525050565b600067ffffffffffffffff821115613ec957613ec9613e6c565b5060051b60200190565b600082601f830112613ee457600080fd5b81356020613ef182613eaf565b604051613efe8282613e82565b83815260059390931b8501820192828101915086841115613f1e57600080fd5b8286015b84811015613f395780358352918301918301613f22565b509695505050505050565b600067ffffffffffffffff821115613f5e57613f5e613e6c565b50601f01601f191660200190565b600082601f830112613f7d57600080fd5b8135613f8881613f44565b604051613f958282613e82565b828152856020848701011115613faa57600080fd5b82602086016020830137600092810160200192909252509392505050565b600080600080600060a08688031215613fe057600080fd5b8535613feb81613cb7565b94506020860135613ffb81613cb7565b9350604086013567ffffffffffffffff8082111561401857600080fd5b61402489838a01613ed3565b9450606088013591508082111561403a57600080fd5b61404689838a01613ed3565b9350608088013591508082111561405c57600080fd5b5061406988828901613f6c565b9150509295509295909350565b60008083601f84011261408857600080fd5b50813567ffffffffffffffff8111156140a057600080fd5b6020830191508360208260051b850101111561100757600080fd5b6000806000604084860312156140d057600080fd5b83356140db81613cb7565b9250602084013567ffffffffffffffff8111156140f757600080fd5b61410386828701614076565b9497909650939450505050565b6000806040838503121561412357600080fd5b823561412e81613cb7565b9150602083013561413e81613cb7565b809150509250929050565b6000806040838503121561415c57600080fd5b823567ffffffffffffffff8082111561417457600080fd5b818501915085601f83011261418857600080fd5b8135602061419582613eaf565b6040516141a28282613e82565b83815260059390931b85018201928281019150898411156141c257600080fd5b948201945b838610156141e95785356141da81613cb7565b825294820194908201906141c7565b965050860135925050808211156141ff57600080fd5b5061420c85828601613ed3565b9150509250929050565b600081518084526020808501945080840160005b838110156142465781518752958201959082019060010161422a565b509495945050505050565b602081526000610c236020830184614216565b604080825283519082018190526000906020906060840190828701845b828110156142a65781516001600160a01b031684529284019290840190600101614281565b505050838103828501526142ba8186614216565b9695505050505050565b8015158114613ccc57600080fd5b600080600080600080600060e0888a0312156142ed57600080fd5b873596506020880135955060408801359450606088013593506080880135925060a088013561431b816142c4565b8092505060c0880135905092959891949750929550565b60008060008060006060868803121561434a57600080fd5b853561435581613cb7565b9450602086013567ffffffffffffffff8082111561437257600080fd5b61437e89838a01614076565b9096509450604088013591508082111561439757600080fd5b506143a488828901614076565b969995985093965092949392505050565b600080602083850312156143c857600080fd5b823567ffffffffffffffff808211156143e057600080fd5b818501915085601f8301126143f457600080fd5b81358181111561440357600080fd5b86602082850101111561441557600080fd5b60209290920196919550909350505050565b6000806040838503121561443a57600080fd5b823561444581613cb7565b9150602083013561413e816142c4565b60006101008083526144698184018c614216565b9050828103602084015261447d818b613dc7565b90508281036040840152614491818a613dc7565b905082810360608401526144a58189614216565b905082810360808401526144b98188613dc7565b905082810360a08401526144cd8187613dc7565b905082810360c08401526144e18186614216565b905082810360e08401526144f58185614216565b9b9a5050505050505050505050565b600080600080600060a0868803121561451c57600080fd5b853561452781613cb7565b9450602086013561453781613cb7565b93506040860135925060608601359150608086013567ffffffffffffffff81111561456157600080fd5b61406988828901613f6c565b6080815260006145806080830187613d6b565b82810360208401526145928187613d6b565b905082810360408401526145a68186613d6b565b90508281036060840152613c288185613d6b565b634e487b7160e01b600052601160045260246000fd5b81810381811115610adb57610adb6145ba565b600181815b8085111561461e578160001904821115614604576146046145ba565b8085161561461157918102915b93841c93908002906145e8565b509250929050565b60008261463557506001610adb565b8161464257506000610adb565b816001811461465857600281146146625761467e565b6001915050610adb565b60ff841115614673576146736145ba565b50506001821b610adb565b5060208310610133831016604e8410600b84101617156146a1575081810a610adb565b6146ab83836145e3565b80600019048211156146bf576146bf6145ba565b029392505050565b6000610c2360ff841683614626565b8082028115828204841417610adb57610adb6145ba565b60008261470a57634e487b7160e01b600052601260045260246000fd5b500490565b80820180821115610adb57610adb6145ba565b60006020828403121561473457600080fd5b815167ffffffffffffffff81111561474b57600080fd5b8201601f8101841361475c57600080fd5b805161476781613f44565b6040516147748282613e82565b82815286602084860101111561478957600080fd5b6142ba836020830160208701613d47565b600084516147ac818460208901613d47565b8451908301906147c0818360208901613d47565b7f2f00000000000000000000000000000000000000000000000000000000000000910190815283516147f9816001840160208801613d47565b0160010195945050505050565b634e487b7160e01b600052603260045260246000fd5b600181811c9082168061483057607f821691505b60208210810361485057634e487b7160e01b600052602260045260246000fd5b50919050565b6000806040838503121561486957600080fd5b825161487481613cb7565b6020939093015192949293505050565b60006020828403121561489657600080fd5b5051919050565b6000600182016148af576148af6145ba565b5060010190565b600080600080600080600080610100898b0312156148d357600080fd5b88356148de81613cb7565b975060208901356148ee816142c4565b979a9799505050506040860135956060810135956080820135955060a0820135945060c0820135935060e0909101359150565b6040815260006149346040830185614216565b8281036020840152613e418185614216565b600081614955576149556145ba565b506000190190565b60006020828403121561496f57600080fd5b8151610c23816142c4565b60006001600160a01b03808816835280871660208401525060a060408301526149a660a0830186614216565b82810360608401526149b88186614216565b905082810360808401526149cc8185613d6b565b98975050505050505050565b6000602082840312156149ea57600080fd5b8151610c2381613cfb565b600060033d1115614a0e5760046000803e5060005160e01c5b90565b600060443d1015614a1f5790565b6040516003193d81016004833e81513d67ffffffffffffffff8160248401118184111715614a4f57505050505090565b8285019150815181811115614a675750505050505090565b843d8701016020828501011115614a815750505050505090565b614a9060208286010187613e82565b509095945050505050565b60006001600160a01b03808816835280871660208401525084604083015283606083015260a06080830152613c2860a0830184613d6b565b60008251614ae5818460208701613d47565b919091019291505056fea264697066735822122095b844d0d05f8316a5ecd2746e6d5109a6f8953644bca31501cf22fbaca7e6f664736f6c63430008130033",
  "devdoc": {
    "events": {
      "ApprovalForAll(address,address,bool)": {
        "details": "Emitted when `account` grants or revokes permission to `operator` to transfer their tokens, according to `approved`."
      },
      "TransferBatch(address,address,address,uint256[],uint256[])": {
        "details": "Equivalent to multiple {TransferSingle} events, where `operator`, `from` and `to` are the same for all transfers."
      },
      "TransferSingle(address,address,address,uint256,uint256)": {
        "details": "Emitted when `value` tokens of token type `id` are transferred from `from` to `to` by `operator`."
      },
      "URI(string,uint256)": {
        "details": "Emitted when the URI for token type `id` changes to `value`, if it is a non-programmatic URI. If an {URI} event was emitted for `id`, the standard https://eips.ethereum.org/EIPS/eip-1155#metadata-extensions[guarantees] that `value` will equal the value returned by {IERC1155MetadataURI-uri}."
      }
    },
    "kind": "dev",
    "methods": {
      "balanceOf(address,uint256)": {
        "details": "See {IERC1155-balanceOf}. Requirements: - `account` cannot be the zero address."
      },
      "balanceOfBatch(address[],uint256[])": {
        "details": "See {IERC1155-balanceOfBatch}. Requirements: - `accounts` and `ids` must have the same length."
      },
      "exists(uint256)": {
        "details": "Indicates whether any token exist with a given id, or not."
      },
      "isApprovedForAll(address,address)": {
        "details": "See {IERC1155-isApprovedForAll}."
      },
      "maxSupply(uint256)": {
        "returns": {
          "_maxSupply": "the max supply of the token"
        }
      },
      "mintTraits(address,uint256[],uint256[])": {
        "params": {
          "_recipient": "the address to receive the trait tokens",
          "_traitAmounts": "the amounts of each token ID to buy",
          "_traitTokenIds": "the trait token IDs to buy"
        }
      },
      "mintTraitsWhitelistOrProof(address,uint256[])": {
        "params": {
          "_recipient": "address to receive the minted traits",
          "_traitTokenIds": "trait token IDs to mint"
        }
      },
      "payee(uint256)": {
        "returns": {
          "_0": "address the address of the payee"
        }
      },
      "payees()": {
        "returns": {
          "payees_": "array of all payee addresses",
          "shares_": "array of all payee share amounts"
        }
      },
      "releasableERC20(address,address)": {
        "params": {
          "account": "the address of the payee",
          "token": "the address of the token"
        },
        "returns": {
          "_0": "uint256 the amount of token releasable to the payee"
        }
      },
      "releasableETH(address)": {
        "returns": {
          "_0": "uint256 amount of releasable ETH"
        }
      },
      "releasedERC20(address,address)": {
        "returns": {
          "_0": "uint256 amount of the specified token released to a payee"
        }
      },
      "releasedETH(address)": {
        "returns": {
          "_0": "uint256 amount of ETH released to the specified account"
        }
      },
      "royaltyInfo(uint256,uint256)": {
        "details": "Returns how much royalty is owed and to whom, based on a sale price that may be denominated in any unit of exchange. The royalty amount is denominated and should be paid in that same unit of exchange."
      },
      "safeBatchTransferFrom(address,address,uint256[],uint256[],bytes)": {
        "details": "See {IERC1155-safeBatchTransferFrom}."
      },
      "safeTransferFrom(address,address,uint256,uint256,bytes)": {
        "details": "See {IERC1155-safeTransferFrom}."
      },
      "setApprovalForAll(address,bool)": {
        "details": "See {IERC1155-setApprovalForAll}."
      },
      "setup(bytes)": {
        "params": {
          "_data": "bytes data containt the artwork contract address and auction data"
        }
      },
      "shares(address)": {
        "returns": {
          "_0": "uint256 amount of shares held by the account"
        }
      },
      "supportsInterface(bytes4)": {
        "params": {
          "interfaceId": "the interface ID to check"
        },
        "returns": {
          "_0": "bool True if the interface is supported, otherwise False"
        }
      },
      "totalReleasedERC20(address)": {
        "returns": {
          "_0": "uint256 total amount of specified token released"
        }
      },
      "totalReleasedETH()": {
        "returns": {
          "_0": "uint256 total amount of ETH released"
        }
      },
      "totalShares()": {
        "returns": {
          "_0": "uint256 total shares held by payees"
        }
      },
      "totalSupply(uint256)": {
        "details": "Total amount of tokens in with a given id."
      },
      "trait(uint256)": {
        "params": {
          "_tokenId": "token ID to get info about"
        },
        "returns": {
          "_traitName": "human readable trait name",
          "_traitTypeName": "human readable trait type name",
          "_traitTypeValue": "trait type value used in the generative script",
          "_traitValue": "trait type value used in the generative script"
        }
      },
      "traitPrice()": {
        "returns": {
          "_0": "the current trait price in ether"
        }
      },
      "traitPriceStep()": {
        "returns": {
          "_0": "the current price step"
        }
      },
      "traitTypes()": {
        "returns": {
          "_traitTypeNames": "human readable trait type names",
          "_traitTypeValues": "trait type values used in the generative script"
        }
      },
      "traits()": {
        "returns": {
          "_traitMaxSupplys": "max supply of each trait",
          "_traitNames": "human readable trait names",
          "_traitTokenIds": "token IDs of the traits",
          "_traitTotalSupplys": "total supply of each trait",
          "_traitTypeIndexes": "trait type index each trait belongs to",
          "_traitTypeNames": "human readable trait type names",
          "_traitTypeValues": "trait type values used in the generative script",
          "_traitValues": "trait type values used in the generative script"
        }
      },
      "transferTraitsToMintArtwork(address,uint256[])": {
        "params": {
          "_caller": "the address creating the artwork",
          "_traitTokenIds": "the trait token IDs used to create the artwork"
        }
      },
      "updateAuction(uint256,uint256,uint256,uint256,uint256,bool,uint256)": {
        "params": {
          "_auctionEndPrice": "trait price the auction ends at",
          "_auctionEndTime": "timestamp the auction ends at",
          "_auctionExponential": "true indicates auction curve is exponential, otherwise linear",
          "_auctionPriceSteps": "number of different prices auction steps through",
          "_auctionStartPrice": "trait price the auction begins at",
          "_auctionStartTime": "timestamp the auction begins at",
          "_traitsSaleStartTime": "timestamp at which traits can be bought individually"
        }
      },
      "uri(uint256)": {
        "params": {
          "_tokenId": "the token ID to get the URI for"
        },
        "returns": {
          "_0": "string the token specific URI"
        }
      }
    },
    "stateVariables": {
      "auctionStartTime": {
        "return": "uint256 the timestamp the auction starts",
        "returns": {
          "_0": "uint256 the timestamp the auction starts"
        }
      }
    },
    "version": 1
  },
  "userdoc": {
    "kind": "user",
    "methods": {
      "auctionStartTime()": {
        "notice": "Returns the auction start timestamp"
      },
      "maxSupply(uint256)": {
        "notice": "Returns the max supply of the specified token ID"
      },
      "mintTraits(address,uint256[],uint256[])": {
        "notice": "Allows a user to mint any number of traits and amounts using ether"
      },
      "mintTraitsWhitelistOrProof(address,uint256[])": {
        "notice": "Mints traits for artist proof and for whitelisted mints"
      },
      "payee(uint256)": {
        "notice": "Getter for the address of the payee for the specified index"
      },
      "payees()": {
        "notice": "Getter for all payees and their respective shares"
      },
      "releasableERC20(address,address)": {
        "notice": "Getter for the amount of specified token releasable for the account"
      },
      "releasableETH(address)": {
        "notice": "Getter for the amount of payee's releasable ETH"
      },
      "releaseERC20(address)": {
        "notice": "Triggers a transfer to msg.sender of the amount of the specified token they are owed"
      },
      "releaseETH()": {
        "notice": "Triggers a transfer to msg.sender of the amount of Ether they are owed"
      },
      "releasedERC20(address,address)": {
        "notice": "Getter for the amount of the specified token released to a payee"
      },
      "releasedETH(address)": {
        "notice": "Getter for the amount of ETH already released to a payee"
      },
      "setup(bytes)": {
        "notice": "Sets the address of the Artwork contract and the auction configuration"
      },
      "shares(address)": {
        "notice": "Getter for the amount of shares held by an account"
      },
      "supportsInterface(bytes4)": {
        "notice": "Returns whether the specified interface ID is supported by the contract"
      },
      "totalReleasedERC20(address)": {
        "notice": "Getter for the total amount of specified token released"
      },
      "totalReleasedETH()": {
        "notice": "Getter for the total amount of ETH already released"
      },
      "totalShares()": {
        "notice": "Getter for the total shares held by payees"
      },
      "trait(uint256)": {
        "notice": "Returns info about an individual trait"
      },
      "traitPrice()": {
        "notice": "Returns the current trait price"
      },
      "traitPriceStep()": {
        "notice": "Returns which price step the auction is currently on"
      },
      "traitTypes()": {
        "notice": "Returns the trait types"
      },
      "traits()": {
        "notice": "Returns info about all traits"
      },
      "transferTraitsToMintArtwork(address,uint256[])": {
        "notice": "Called by the Artwork contract to transfer traits from the caller to the Artwork contract to create a new Artwork token"
      },
      "updateAuction(uint256,uint256,uint256,uint256,uint256,bool,uint256)": {
        "notice": "Updates the schedule of the dutch auction, can only be called if the dutch auction hasn't started yet, and can only update the auction to a later time, not sooner"
      },
      "uri(uint256)": {
        "notice": "Returns the URI of the specified token ID"
      }
    },
    "notice": "Implements ERC-1155 standard for trait tokens, and provides Dutch Auction functionality for initial trait sales",
    "version": 1
  },
  "storageLayout": {
    "storage": [
      {
        "astId": 3375,
        "contract": "contracts/Traits.sol:Traits",
        "label": "_defaultRoyaltyInfo",
        "offset": 0,
        "slot": "0",
        "type": "t_struct(RoyaltyInfo)3372_storage"
      },
      {
        "astId": 3380,
        "contract": "contracts/Traits.sol:Traits",
        "label": "_tokenRoyaltyInfo",
        "offset": 0,
        "slot": "1",
        "type": "t_mapping(t_uint256,t_struct(RoyaltyInfo)3372_storage)"
      },
      {
        "astId": 240,
        "contract": "contracts/Traits.sol:Traits",
        "label": "_balances",
        "offset": 0,
        "slot": "2",
        "type": "t_mapping(t_uint256,t_mapping(t_address,t_uint256))"
      },
      {
        "astId": 246,
        "contract": "contracts/Traits.sol:Traits",
        "label": "_operatorApprovals",
        "offset": 0,
        "slot": "3",
        "type": "t_mapping(t_address,t_mapping(t_address,t_bool))"
      },
      {
        "astId": 248,
        "contract": "contracts/Traits.sol:Traits",
        "label": "_uri",
        "offset": 0,
        "slot": "4",
        "type": "t_string_storage"
      },
      {
        "astId": 1610,
        "contract": "contracts/Traits.sol:Traits",
        "label": "_totalSupply",
        "offset": 0,
        "slot": "5",
        "type": "t_mapping(t_uint256,t_uint256)"
      },
      {
        "astId": 5866,
        "contract": "contracts/Traits.sol:Traits",
        "label": "_totalShares",
        "offset": 0,
        "slot": "6",
        "type": "t_uint256"
      },
      {
        "astId": 5868,
        "contract": "contracts/Traits.sol:Traits",
        "label": "_totalReleased",
        "offset": 0,
        "slot": "7",
        "type": "t_uint256"
      },
      {
        "astId": 5871,
        "contract": "contracts/Traits.sol:Traits",
        "label": "_payees",
        "offset": 0,
        "slot": "8",
        "type": "t_array(t_address)dyn_storage"
      },
      {
        "astId": 5875,
        "contract": "contracts/Traits.sol:Traits",
        "label": "_shares",
        "offset": 0,
        "slot": "9",
        "type": "t_mapping(t_address,t_uint256)"
      },
      {
        "astId": 5879,
        "contract": "contracts/Traits.sol:Traits",
        "label": "_released",
        "offset": 0,
        "slot": "10",
        "type": "t_mapping(t_address,t_uint256)"
      },
      {
        "astId": 5884,
        "contract": "contracts/Traits.sol:Traits",
        "label": "_erc20TotalReleased",
        "offset": 0,
        "slot": "11",
        "type": "t_mapping(t_contract(IERC20)1935,t_uint256)"
      },
      {
        "astId": 5891,
        "contract": "contracts/Traits.sol:Traits",
        "label": "_erc20Released",
        "offset": 0,
        "slot": "12",
        "type": "t_mapping(t_contract(IERC20)1935,t_mapping(t_address,t_uint256))"
      },
      {
        "astId": 6713,
        "contract": "contracts/Traits.sol:Traits",
        "label": "auctionExponential",
        "offset": 0,
        "slot": "13",
        "type": "t_bool"
      },
      {
        "astId": 6719,
        "contract": "contracts/Traits.sol:Traits",
        "label": "artwork",
        "offset": 1,
        "slot": "13",
        "type": "t_contract(IArtwork)8153"
      },
      {
        "astId": 6722,
        "contract": "contracts/Traits.sol:Traits",
        "label": "projectRegistry",
        "offset": 0,
        "slot": "14",
        "type": "t_contract(IProjectRegistry)8374"
      },
      {
        "astId": 6724,
        "contract": "contracts/Traits.sol:Traits",
        "label": "auctionStartTime",
        "offset": 0,
        "slot": "15",
        "type": "t_uint256"
      },
      {
        "astId": 6726,
        "contract": "contracts/Traits.sol:Traits",
        "label": "auctionEndTime",
        "offset": 0,
        "slot": "16",
        "type": "t_uint256"
      },
      {
        "astId": 6728,
        "contract": "contracts/Traits.sol:Traits",
        "label": "auctionStartPrice",
        "offset": 0,
        "slot": "17",
        "type": "t_uint256"
      },
      {
        "astId": 6730,
        "contract": "contracts/Traits.sol:Traits",
        "label": "auctionEndPrice",
        "offset": 0,
        "slot": "18",
        "type": "t_uint256"
      },
      {
        "astId": 6732,
        "contract": "contracts/Traits.sol:Traits",
        "label": "auctionPriceSteps",
        "offset": 0,
        "slot": "19",
        "type": "t_uint256"
      },
      {
        "astId": 6734,
        "contract": "contracts/Traits.sol:Traits",
        "label": "traitsSaleStartTime",
        "offset": 0,
        "slot": "20",
        "type": "t_uint256"
      },
      {
        "astId": 6738,
        "contract": "contracts/Traits.sol:Traits",
        "label": "_traitTypes",
        "offset": 0,
        "slot": "21",
        "type": "t_array(t_struct(TraitType)8398_storage)dyn_storage"
      },
      {
        "astId": 6742,
        "contract": "contracts/Traits.sol:Traits",
        "label": "_traits",
        "offset": 0,
        "slot": "22",
        "type": "t_array(t_struct(Trait)8407_storage)dyn_storage"
      }
    ],
    "types": {
      "t_address": {
        "encoding": "inplace",
        "label": "address",
        "numberOfBytes": "20"
      },
      "t_array(t_address)dyn_storage": {
        "base": "t_address",
        "encoding": "dynamic_array",
        "label": "address[]",
        "numberOfBytes": "32"
      },
      "t_array(t_struct(Trait)8407_storage)dyn_storage": {
        "base": "t_struct(Trait)8407_storage",
        "encoding": "dynamic_array",
        "label": "struct ITraits.Trait[]",
        "numberOfBytes": "32"
      },
      "t_array(t_struct(TraitType)8398_storage)dyn_storage": {
        "base": "t_struct(TraitType)8398_storage",
        "encoding": "dynamic_array",
        "label": "struct ITraits.TraitType[]",
        "numberOfBytes": "32"
      },
      "t_bool": {
        "encoding": "inplace",
        "label": "bool",
        "numberOfBytes": "1"
      },
      "t_contract(IArtwork)8153": {
        "encoding": "inplace",
        "label": "contract IArtwork",
        "numberOfBytes": "20"
      },
      "t_contract(IERC20)1935": {
        "encoding": "inplace",
        "label": "contract IERC20",
        "numberOfBytes": "20"
      },
      "t_contract(IProjectRegistry)8374": {
        "encoding": "inplace",
        "label": "contract IProjectRegistry",
        "numberOfBytes": "20"
      },
      "t_mapping(t_address,t_bool)": {
        "encoding": "mapping",
        "key": "t_address",
        "label": "mapping(address => bool)",
        "numberOfBytes": "32",
        "value": "t_bool"
      },
      "t_mapping(t_address,t_mapping(t_address,t_bool))": {
        "encoding": "mapping",
        "key": "t_address",
        "label": "mapping(address => mapping(address => bool))",
        "numberOfBytes": "32",
        "value": "t_mapping(t_address,t_bool)"
      },
      "t_mapping(t_address,t_uint256)": {
        "encoding": "mapping",
        "key": "t_address",
        "label": "mapping(address => uint256)",
        "numberOfBytes": "32",
        "value": "t_uint256"
      },
      "t_mapping(t_contract(IERC20)1935,t_mapping(t_address,t_uint256))": {
        "encoding": "mapping",
        "key": "t_contract(IERC20)1935",
        "label": "mapping(contract IERC20 => mapping(address => uint256))",
        "numberOfBytes": "32",
        "value": "t_mapping(t_address,t_uint256)"
      },
      "t_mapping(t_contract(IERC20)1935,t_uint256)": {
        "encoding": "mapping",
        "key": "t_contract(IERC20)1935",
        "label": "mapping(contract IERC20 => uint256)",
        "numberOfBytes": "32",
        "value": "t_uint256"
      },
      "t_mapping(t_uint256,t_mapping(t_address,t_uint256))": {
        "encoding": "mapping",
        "key": "t_uint256",
        "label": "mapping(uint256 => mapping(address => uint256))",
        "numberOfBytes": "32",
        "value": "t_mapping(t_address,t_uint256)"
      },
      "t_mapping(t_uint256,t_struct(RoyaltyInfo)3372_storage)": {
        "encoding": "mapping",
        "key": "t_uint256",
        "label": "mapping(uint256 => struct ERC2981.RoyaltyInfo)",
        "numberOfBytes": "32",
        "value": "t_struct(RoyaltyInfo)3372_storage"
      },
      "t_mapping(t_uint256,t_uint256)": {
        "encoding": "mapping",
        "key": "t_uint256",
        "label": "mapping(uint256 => uint256)",
        "numberOfBytes": "32",
        "value": "t_uint256"
      },
      "t_string_storage": {
        "encoding": "bytes",
        "label": "string",
        "numberOfBytes": "32"
      },
      "t_struct(RoyaltyInfo)3372_storage": {
        "encoding": "inplace",
        "label": "struct ERC2981.RoyaltyInfo",
        "members": [
          {
            "astId": 3369,
            "contract": "contracts/Traits.sol:Traits",
            "label": "receiver",
            "offset": 0,
            "slot": "0",
            "type": "t_address"
          },
          {
            "astId": 3371,
            "contract": "contracts/Traits.sol:Traits",
            "label": "royaltyFraction",
            "offset": 20,
            "slot": "0",
            "type": "t_uint96"
          }
        ],
        "numberOfBytes": "32"
      },
      "t_struct(Trait)8407_storage": {
        "encoding": "inplace",
        "label": "struct ITraits.Trait",
        "members": [
          {
            "astId": 8400,
            "contract": "contracts/Traits.sol:Traits",
            "label": "name",
            "offset": 0,
            "slot": "0",
            "type": "t_string_storage"
          },
          {
            "astId": 8402,
            "contract": "contracts/Traits.sol:Traits",
            "label": "value",
            "offset": 0,
            "slot": "1",
            "type": "t_string_storage"
          },
          {
            "astId": 8404,
            "contract": "contracts/Traits.sol:Traits",
            "label": "typeIndex",
            "offset": 0,
            "slot": "2",
            "type": "t_uint256"
          },
          {
            "astId": 8406,
            "contract": "contracts/Traits.sol:Traits",
            "label": "maxSupply",
            "offset": 0,
            "slot": "3",
            "type": "t_uint256"
          }
        ],
        "numberOfBytes": "128"
      },
      "t_struct(TraitType)8398_storage": {
        "encoding": "inplace",
        "label": "struct ITraits.TraitType",
        "members": [
          {
            "astId": 8395,
            "contract": "contracts/Traits.sol:Traits",
            "label": "name",
            "offset": 0,
            "slot": "0",
            "type": "t_string_storage"
          },
          {
            "astId": 8397,
            "contract": "contracts/Traits.sol:Traits",
            "label": "value",
            "offset": 0,
            "slot": "1",
            "type": "t_string_storage"
          }
        ],
        "numberOfBytes": "64"
      },
      "t_uint256": {
        "encoding": "inplace",
        "label": "uint256",
        "numberOfBytes": "32"
      },
      "t_uint96": {
        "encoding": "inplace",
        "label": "uint96",
        "numberOfBytes": "12"
      }
    }
  }
}