{
  "address": "0xe8d2E5c01E614aA28dBa519323062a5201F30326",
  "abi": [
    {
      "inputs": [
        {
          "internalType": "string",
          "name": "_name",
          "type": "string"
        },
        {
          "internalType": "string",
          "name": "_symbol",
          "type": "string"
        },
        {
          "internalType": "address",
          "name": "_artistAddress",
          "type": "address"
        },
        {
          "internalType": "address",
          "name": "_projectRegistry",
          "type": "address"
        },
        {
          "internalType": "address",
          "name": "_royaltyReceiver",
          "type": "address"
        },
        {
          "components": [
            {
              "internalType": "uint8",
              "name": "stringStorageSlot",
              "type": "uint8"
            },
            {
              "internalType": "address",
              "name": "stringStorageAddress",
              "type": "address"
            }
          ],
          "internalType": "struct IArtwork.StringStorageData",
          "name": "_metadataJSONStringStorage",
          "type": "tuple"
        },
        {
          "components": [
            {
              "internalType": "uint8",
              "name": "stringStorageSlot",
              "type": "uint8"
            },
            {
              "internalType": "address",
              "name": "stringStorageAddress",
              "type": "address"
            }
          ],
          "internalType": "struct IArtwork.StringStorageData",
          "name": "_scriptStringStorage",
          "type": "tuple"
        }
      ],
      "stateMutability": "nonpayable",
      "type": "constructor"
    },
    {
      "inputs": [],
      "name": "AlreadySetup",
      "type": "error"
    },
    {
      "inputs": [],
      "name": "AuctionIsLive",
      "type": "error"
    },
    {
      "inputs": [],
      "name": "Cancelled",
      "type": "error"
    },
    {
      "inputs": [],
      "name": "HashAlreadyUsed",
      "type": "error"
    },
    {
      "inputs": [],
      "name": "InvalidArrayLengths",
      "type": "error"
    },
    {
      "inputs": [],
      "name": "NoWhitelistMints",
      "type": "error"
    },
    {
      "inputs": [],
      "name": "OnlyArtist",
      "type": "error"
    },
    {
      "inputs": [],
      "name": "OnlyArtistOrProjectRegistry",
      "type": "error"
    },
    {
      "inputs": [],
      "name": "OnlyArtworkOwner",
      "type": "error"
    },
    {
      "inputs": [],
      "name": "OnlyProjectRegistry",
      "type": "error"
    },
    {
      "inputs": [],
      "name": "ProofAlreadyMinted",
      "type": "error"
    },
    {
      "inputs": [],
      "name": "TraitsAlreadySet",
      "type": "error"
    },
    {
      "inputs": [],
      "name": "TraitsNotSet",
      "type": "error"
    },
    {
      "inputs": [],
      "name": "WhitelistStartTime",
      "type": "error"
    },
    {
      "anonymous": false,
      "inputs": [
        {
          "indexed": true,
          "internalType": "address",
          "name": "owner",
          "type": "address"
        },
        {
          "indexed": true,
          "internalType": "address",
          "name": "approved",
          "type": "address"
        },
        {
          "indexed": true,
          "internalType": "uint256",
          "name": "tokenId",
          "type": "uint256"
        }
      ],
      "name": "Approval",
      "type": "event"
    },
    {
      "anonymous": false,
      "inputs": [
        {
          "indexed": true,
          "internalType": "address",
          "name": "owner",
          "type": "address"
        },
        {
          "indexed": true,
          "internalType": "address",
          "name": "operator",
          "type": "address"
        },
        {
          "indexed": false,
          "internalType": "bool",
          "name": "approved",
          "type": "bool"
        }
      ],
      "name": "ApprovalForAll",
      "type": "event"
    },
    {
      "anonymous": false,
      "inputs": [
        {
          "indexed": true,
          "internalType": "uint256",
          "name": "artworkTokenId",
          "type": "uint256"
        },
        {
          "indexed": false,
          "internalType": "uint256[]",
          "name": "traitTokenIds",
          "type": "uint256[]"
        },
        {
          "indexed": false,
          "internalType": "bytes32",
          "name": "hash",
          "type": "bytes32"
        },
        {
          "indexed": true,
          "internalType": "address",
          "name": "creator",
          "type": "address"
        }
      ],
      "name": "ArtworkMinted",
      "type": "event"
    },
    {
      "anonymous": false,
      "inputs": [
        {
          "indexed": true,
          "internalType": "uint256",
          "name": "tokenId",
          "type": "uint256"
        },
        {
          "indexed": true,
          "internalType": "address",
          "name": "caller",
          "type": "address"
        }
      ],
      "name": "ProofArtworkMinted",
      "type": "event"
    },
    {
      "anonymous": false,
      "inputs": [
        {
          "indexed": true,
          "internalType": "uint256",
          "name": "artworkTokenId",
          "type": "uint256"
        },
        {
          "indexed": true,
          "internalType": "address",
          "name": "caller",
          "type": "address"
        }
      ],
      "name": "TraitsReclaimed",
      "type": "event"
    },
    {
      "anonymous": false,
      "inputs": [
        {
          "indexed": true,
          "internalType": "address",
          "name": "from",
          "type": "address"
        },
        {
          "indexed": true,
          "internalType": "address",
          "name": "to",
          "type": "address"
        },
        {
          "indexed": true,
          "internalType": "uint256",
          "name": "tokenId",
          "type": "uint256"
        }
      ],
      "name": "Transfer",
      "type": "event"
    },
    {
      "anonymous": false,
      "inputs": [
        {
          "indexed": true,
          "internalType": "uint256",
          "name": "tokenId",
          "type": "uint256"
        },
        {
          "indexed": true,
          "internalType": "address",
          "name": "caller",
          "type": "address"
        }
      ],
      "name": "WhitelistArtworkMinted",
      "type": "event"
    },
    {
      "anonymous": false,
      "inputs": [
        {
          "indexed": false,
          "internalType": "uint256",
          "name": "whitelistStartTime",
          "type": "uint256"
        },
        {
          "indexed": false,
          "internalType": "address[]",
          "name": "whitelistAddresses",
          "type": "address[]"
        },
        {
          "indexed": false,
          "internalType": "uint256[]",
          "name": "whitelistAmounts",
          "type": "uint256[]"
        }
      ],
      "name": "WhitelistUpdated",
      "type": "event"
    },
    {
      "inputs": [],
      "name": "VERSION",
      "outputs": [
        {
          "internalType": "string",
          "name": "",
          "type": "string"
        }
      ],
      "stateMutability": "view",
      "type": "function"
    },
    {
      "inputs": [
        {
          "internalType": "address",
          "name": "to",
          "type": "address"
        },
        {
          "internalType": "uint256",
          "name": "tokenId",
          "type": "uint256"
        }
      ],
      "name": "approve",
      "outputs": [],
      "stateMutability": "nonpayable",
      "type": "function"
    },
    {
      "inputs": [],
      "name": "artistAddress",
      "outputs": [
        {
          "internalType": "address",
          "name": "",
          "type": "address"
        }
      ],
      "stateMutability": "view",
      "type": "function"
    },
    {
      "inputs": [
        {
          "internalType": "uint256",
          "name": "_artworkTokenId",
          "type": "uint256"
        }
      ],
      "name": "artwork",
      "outputs": [
        {
          "internalType": "uint256[]",
          "name": "_traitTokenIds",
          "type": "uint256[]"
        },
        {
          "internalType": "string[]",
          "name": "_traitNames",
          "type": "string[]"
        },
        {
          "internalType": "string[]",
          "name": "_traitValues",
          "type": "string[]"
        },
        {
          "internalType": "string[]",
          "name": "_traitTypeNames",
          "type": "string[]"
        },
        {
          "internalType": "string[]",
          "name": "_traitTypeValues",
          "type": "string[]"
        },
        {
          "internalType": "bytes32",
          "name": "_hash",
          "type": "bytes32"
        }
      ],
      "stateMutability": "view",
      "type": "function"
    },
    {
      "inputs": [
        {
          "internalType": "address",
          "name": "owner",
          "type": "address"
        }
      ],
      "name": "balanceOf",
      "outputs": [
        {
          "internalType": "uint256",
          "name": "",
          "type": "uint256"
        }
      ],
      "stateMutability": "view",
      "type": "function"
    },
    {
      "inputs": [],
      "name": "cancel",
      "outputs": [],
      "stateMutability": "nonpayable",
      "type": "function"
    },
    {
      "inputs": [],
      "name": "cancelled",
      "outputs": [
        {
          "internalType": "bool",
          "name": "",
          "type": "bool"
        }
      ],
      "stateMutability": "view",
      "type": "function"
    },
    {
      "inputs": [
        {
          "internalType": "uint256",
          "name": "tokenId",
          "type": "uint256"
        }
      ],
      "name": "getApproved",
      "outputs": [
        {
          "internalType": "address",
          "name": "",
          "type": "address"
        }
      ],
      "stateMutability": "view",
      "type": "function"
    },
    {
      "inputs": [
        {
          "internalType": "address",
          "name": "owner",
          "type": "address"
        },
        {
          "internalType": "address",
          "name": "operator",
          "type": "address"
        }
      ],
      "name": "isApprovedForAll",
      "outputs": [
        {
          "internalType": "bool",
          "name": "",
          "type": "bool"
        }
      ],
      "stateMutability": "view",
      "type": "function"
    },
    {
      "inputs": [
        {
          "internalType": "bytes32",
          "name": "_hash",
          "type": "bytes32"
        }
      ],
      "name": "isHashUsed",
      "outputs": [
        {
          "internalType": "bool",
          "name": "",
          "type": "bool"
        }
      ],
      "stateMutability": "view",
      "type": "function"
    },
    {
      "inputs": [],
      "name": "metadataJSON",
      "outputs": [
        {
          "internalType": "string",
          "name": "",
          "type": "string"
        }
      ],
      "stateMutability": "view",
      "type": "function"
    },
    {
      "inputs": [],
      "name": "metadataJSONStringStorage",
      "outputs": [
        {
          "internalType": "uint8",
          "name": "stringStorageSlot",
          "type": "uint8"
        },
        {
          "internalType": "address",
          "name": "stringStorageAddress",
          "type": "address"
        }
      ],
      "stateMutability": "view",
      "type": "function"
    },
    {
      "inputs": [
        {
          "internalType": "uint256[]",
          "name": "_traitTokenIds",
          "type": "uint256[]"
        },
        {
          "internalType": "uint256",
          "name": "_saltNonce",
          "type": "uint256"
        }
      ],
      "name": "mintArtwork",
      "outputs": [
        {
          "internalType": "uint256",
          "name": "_artworkTokenId",
          "type": "uint256"
        }
      ],
      "stateMutability": "nonpayable",
      "type": "function"
    },
    {
      "inputs": [
        {
          "internalType": "uint256[]",
          "name": "_traitTokenIds",
          "type": "uint256[]"
        },
        {
          "internalType": "uint256",
          "name": "_saltNonce",
          "type": "uint256"
        }
      ],
      "name": "mintArtworkProof",
      "outputs": [],
      "stateMutability": "nonpayable",
      "type": "function"
    },
    {
      "inputs": [
        {
          "internalType": "uint256[]",
          "name": "_traitTokenIds",
          "type": "uint256[]"
        },
        {
          "internalType": "uint256",
          "name": "_saltNonce",
          "type": "uint256"
        }
      ],
      "name": "mintArtworkWhitelist",
      "outputs": [],
      "stateMutability": "nonpayable",
      "type": "function"
    },
    {
      "inputs": [
        {
          "internalType": "uint256[]",
          "name": "_traitTokenIdsToBuy",
          "type": "uint256[]"
        },
        {
          "internalType": "uint256[]",
          "name": "_traitAmountsToBuy",
          "type": "uint256[]"
        },
        {
          "internalType": "uint256[]",
          "name": "_traitTokenIdsToCreateArtwork",
          "type": "uint256[]"
        },
        {
          "internalType": "uint256",
          "name": "_saltNonce",
          "type": "uint256"
        }
      ],
      "name": "mintTraitsAndArtwork",
      "outputs": [],
      "stateMutability": "payable",
      "type": "function"
    },
    {
      "inputs": [],
      "name": "name",
      "outputs": [
        {
          "internalType": "string",
          "name": "",
          "type": "string"
        }
      ],
      "stateMutability": "view",
      "type": "function"
    },
    {
      "inputs": [],
      "name": "nextTokenId",
      "outputs": [
        {
          "internalType": "uint256",
          "name": "",
          "type": "uint256"
        }
      ],
      "stateMutability": "view",
      "type": "function"
    },
    {
      "inputs": [
        {
          "internalType": "address",
          "name": "",
          "type": "address"
        },
        {
          "internalType": "address",
          "name": "",
          "type": "address"
        },
        {
          "internalType": "uint256[]",
          "name": "",
          "type": "uint256[]"
        },
        {
          "internalType": "uint256[]",
          "name": "",
          "type": "uint256[]"
        },
        {
          "internalType": "bytes",
          "name": "",
          "type": "bytes"
        }
      ],
      "name": "onERC1155BatchReceived",
      "outputs": [
        {
          "internalType": "bytes4",
          "name": "",
          "type": "bytes4"
        }
      ],
      "stateMutability": "nonpayable",
      "type": "function"
    },
    {
      "inputs": [
        {
          "internalType": "address",
          "name": "",
          "type": "address"
        },
        {
          "internalType": "address",
          "name": "",
          "type": "address"
        },
        {
          "internalType": "uint256",
          "name": "",
          "type": "uint256"
        },
        {
          "internalType": "uint256",
          "name": "",
          "type": "uint256"
        },
        {
          "internalType": "bytes",
          "name": "",
          "type": "bytes"
        }
      ],
      "name": "onERC1155Received",
      "outputs": [
        {
          "internalType": "bytes4",
          "name": "",
          "type": "bytes4"
        }
      ],
      "stateMutability": "nonpayable",
      "type": "function"
    },
    {
      "inputs": [
        {
          "internalType": "uint256",
          "name": "tokenId",
          "type": "uint256"
        }
      ],
      "name": "ownerOf",
      "outputs": [
        {
          "internalType": "address",
          "name": "",
          "type": "address"
        }
      ],
      "stateMutability": "view",
      "type": "function"
    },
    {
      "inputs": [],
      "name": "projectRegistry",
      "outputs": [
        {
          "internalType": "contract IProjectRegistry",
          "name": "",
          "type": "address"
        }
      ],
      "stateMutability": "view",
      "type": "function"
    },
    {
      "inputs": [],
      "name": "proofMinted",
      "outputs": [
        {
          "internalType": "bool",
          "name": "",
          "type": "bool"
        }
      ],
      "stateMutability": "view",
      "type": "function"
    },
    {
      "inputs": [
        {
          "internalType": "uint256",
          "name": "_artworkTokenId",
          "type": "uint256"
        }
      ],
      "name": "reclaimTraits",
      "outputs": [],
      "stateMutability": "nonpayable",
      "type": "function"
    },
    {
      "inputs": [
        {
          "internalType": "uint256",
          "name": "_tokenId",
          "type": "uint256"
        },
        {
          "internalType": "uint256",
          "name": "_salePrice",
          "type": "uint256"
        }
      ],
      "name": "royaltyInfo",
      "outputs": [
        {
          "internalType": "address",
          "name": "",
          "type": "address"
        },
        {
          "internalType": "uint256",
          "name": "",
          "type": "uint256"
        }
      ],
      "stateMutability": "view",
      "type": "function"
    },
    {
      "inputs": [
        {
          "internalType": "address",
          "name": "from",
          "type": "address"
        },
        {
          "internalType": "address",
          "name": "to",
          "type": "address"
        },
        {
          "internalType": "uint256",
          "name": "tokenId",
          "type": "uint256"
        }
      ],
      "name": "safeTransferFrom",
      "outputs": [],
      "stateMutability": "nonpayable",
      "type": "function"
    },
    {
      "inputs": [
        {
          "internalType": "address",
          "name": "from",
          "type": "address"
        },
        {
          "internalType": "address",
          "name": "to",
          "type": "address"
        },
        {
          "internalType": "uint256",
          "name": "tokenId",
          "type": "uint256"
        },
        {
          "internalType": "bytes",
          "name": "data",
          "type": "bytes"
        }
      ],
      "name": "safeTransferFrom",
      "outputs": [],
      "stateMutability": "nonpayable",
      "type": "function"
    },
    {
      "inputs": [],
      "name": "script",
      "outputs": [
        {
          "internalType": "string",
          "name": "",
          "type": "string"
        }
      ],
      "stateMutability": "view",
      "type": "function"
    },
    {
      "inputs": [],
      "name": "scriptStringStorage",
      "outputs": [
        {
          "internalType": "uint8",
          "name": "stringStorageSlot",
          "type": "uint8"
        },
        {
          "internalType": "address",
          "name": "stringStorageAddress",
          "type": "address"
        }
      ],
      "stateMutability": "view",
      "type": "function"
    },
    {
      "inputs": [
        {
          "internalType": "address",
          "name": "operator",
          "type": "address"
        },
        {
          "internalType": "bool",
          "name": "approved",
          "type": "bool"
        }
      ],
      "name": "setApprovalForAll",
      "outputs": [],
      "stateMutability": "nonpayable",
      "type": "function"
    },
    {
      "inputs": [
        {
          "internalType": "bytes",
          "name": "_data",
          "type": "bytes"
        }
      ],
      "name": "setup",
      "outputs": [],
      "stateMutability": "nonpayable",
      "type": "function"
    },
    {
      "inputs": [
        {
          "internalType": "bytes4",
          "name": "interfaceId",
          "type": "bytes4"
        }
      ],
      "name": "supportsInterface",
      "outputs": [
        {
          "internalType": "bool",
          "name": "",
          "type": "bool"
        }
      ],
      "stateMutability": "view",
      "type": "function"
    },
    {
      "inputs": [],
      "name": "symbol",
      "outputs": [
        {
          "internalType": "string",
          "name": "",
          "type": "string"
        }
      ],
      "stateMutability": "view",
      "type": "function"
    },
    {
      "inputs": [
        {
          "internalType": "uint256",
          "name": "_tokenId",
          "type": "uint256"
        }
      ],
      "name": "tokenURI",
      "outputs": [
        {
          "internalType": "string",
          "name": "",
          "type": "string"
        }
      ],
      "stateMutability": "view",
      "type": "function"
    },
    {
      "inputs": [],
      "name": "traits",
      "outputs": [
        {
          "internalType": "contract ITraits",
          "name": "",
          "type": "address"
        }
      ],
      "stateMutability": "view",
      "type": "function"
    },
    {
      "inputs": [
        {
          "internalType": "address",
          "name": "from",
          "type": "address"
        },
        {
          "internalType": "address",
          "name": "to",
          "type": "address"
        },
        {
          "internalType": "uint256",
          "name": "tokenId",
          "type": "uint256"
        }
      ],
      "name": "transferFrom",
      "outputs": [],
      "stateMutability": "nonpayable",
      "type": "function"
    },
    {
      "inputs": [
        {
          "internalType": "uint256",
          "name": "_whitelistStartTime",
          "type": "uint256"
        },
        {
          "internalType": "address[]",
          "name": "_whitelistAddresses",
          "type": "address[]"
        },
        {
          "internalType": "uint256[]",
          "name": "_whitelistAmounts",
          "type": "uint256[]"
        }
      ],
      "name": "updateWhitelist",
      "outputs": [],
      "stateMutability": "nonpayable",
      "type": "function"
    },
    {
      "inputs": [
        {
          "internalType": "address",
          "name": "",
          "type": "address"
        }
      ],
      "name": "whitelistMintsRemaining",
      "outputs": [
        {
          "internalType": "uint256",
          "name": "",
          "type": "uint256"
        }
      ],
      "stateMutability": "view",
      "type": "function"
    },
    {
      "inputs": [],
      "name": "whitelistStartTime",
      "outputs": [
        {
          "internalType": "uint256",
          "name": "",
          "type": "uint256"
        }
      ],
      "stateMutability": "view",
      "type": "function"
    }
  ],
  "transactionHash": "0x278f30422f874490c55534cf823362ba86b9aebda40e51085a251fdf06a40937",
  "args": [
    "One Ring",
    "ONE-RING",
    "0x02d53D2C706252814D7264edb7FAf15686939702",
    "0x54Ad28b7008a71a1a3D1416BDD0c58E0911d0E3B",
    "0x6bd62FeB486Bf699Ac04eD6DC09dE36D11720509",
    {
      "stringStorageSlot": 0,
      "stringStorageAddress": "0x0e51179aBf34583333eb934D55EFbA4CC8C6593f"
    },
    {
      "stringStorageSlot": 1,
      "stringStorageAddress": "0x0e51179aBf34583333eb934D55EFbA4CC8C6593f"
    }
  ],
  "numDeployments": 1,
  "solcInputHash": "fccc592d57fad7ff1314d2db1aa417cc",
  "bytecode": "0x60806040523480156200001157600080fd5b5060405162003e2e38038062003e2e833981016040819052620000349162000363565b86866002620000448382620004bc565b506003620000538282620004bc565b50506008805462010000600160b01b031916620100006001600160a01b038981169190910291909117909155600980546001600160a01b03191691871691909117905550620000a5836102ee620000fd565b8151600c80546020948501516001600160a01b039081166101009081026001600160a81b031993841660ff96871617179093558451600d80549690970151909116909202931691161717905550620005889350505050565b6127106001600160601b0382161115620001715760405162461bcd60e51b815260206004820152602a60248201527f455243323938313a20726f79616c7479206665652077696c6c206578636565646044820152692073616c65507269636560b01b60648201526084015b60405180910390fd5b6001600160a01b038216620001c95760405162461bcd60e51b815260206004820152601960248201527f455243323938313a20696e76616c696420726563656976657200000000000000604482015260640162000168565b604080518082019091526001600160a01b039092168083526001600160601b039091166020909201829052600160a01b90910217600055565b634e487b7160e01b600052604160045260246000fd5b604051601f8201601f191681016001600160401b038111828210171562000243576200024362000202565b604052919050565b600082601f8301126200025d57600080fd5b81516001600160401b0381111562000279576200027962000202565b60206200028f601f8301601f1916820162000218565b8281528582848701011115620002a457600080fd5b60005b83811015620002c4578581018301518282018401528201620002a7565b506000928101909101919091529392505050565b80516001600160a01b0381168114620002f057600080fd5b919050565b6000604082840312156200030857600080fd5b604080519081016001600160401b03811182821017156200032d576200032d62000202565b8060405250809150825160ff811681146200034757600080fd5b81526200035760208401620002d8565b60208201525092915050565b6000806000806000806000610120888a0312156200038057600080fd5b87516001600160401b03808211156200039857600080fd5b620003a68b838c016200024b565b985060208a0151915080821115620003bd57600080fd5b50620003cc8a828b016200024b565b965050620003dd60408901620002d8565b9450620003ed60608901620002d8565b9350620003fd60808901620002d8565b92506200040e8960a08a01620002f5565b91506200041f8960e08a01620002f5565b905092959891949750929550565b600181811c908216806200044257607f821691505b6020821081036200046357634e487b7160e01b600052602260045260246000fd5b50919050565b601f821115620004b757600081815260208120601f850160051c81016020861015620004925750805b601f850160051c820191505b81811015620004b3578281556001016200049e565b5050505b505050565b81516001600160401b03811115620004d857620004d862000202565b620004f081620004e984546200042d565b8462000469565b602080601f8311600181146200052857600084156200050f5750858301515b600019600386901b1c1916600185901b178555620004b3565b600085815260208120601f198616915b82811015620005595788860151825594840194600190910190840162000538565b5085821015620005785787850151600019600388901b60f8161c191681555b5050505050600190811b01905550565b61389680620005986000396000f3fe6080604052600436106102a05760003560e01c8063820042aa1161016e578063d7eb3f3a116100cb578063f23a6e611161007f578063fbb4010411610064578063fbb4010414610818578063ffa1ad7414610838578063ffc1613a1461088157600080fd5b8063f23a6e61146107be578063f4e95c6b1461080357600080fd5b8063e985e9c5116100b0578063e985e9c51461074b578063ea8a1af014610794578063ebe9eb9f146107a957600080fd5b8063d7eb3f3a14610705578063e1fc334f1461072b57600080fd5b8063a1ee054411610122578063b88d4fde11610107578063b88d4fde14610667578063bc197c8114610687578063c87b56dd146106e557600080fd5b8063a1ee05441461062d578063a22cb4651461064757600080fd5b806395d89b411161015357806395d89b41146105d95780639a82a09a146105ee5780639ded06df1461060d57600080fd5b8063820042aa146105a35780639292caaf146105c357600080fd5b806342842e0e1161021c5780636352211e116101d05780636f7e674d116101b55780636f7e674d1461055a57806370a082311461056d57806375794a3c1461058d57600080fd5b80636352211e1461050c57806368ae25461461052c57600080fd5b806354682d721161020157806354682d72146104905780635a33d8dc146104c25780635dcb49c5146104e257600080fd5b806342842e0e14610450578063440853651461047057600080fd5b8063095ea7b31161027357806323b872dd1161025857806323b872dd146103a657806328798723146103c65780632a55205a1461041157600080fd5b8063095ea7b31461035657806320021d8b1461037657600080fd5b806301ffc9a7146102a557806306fdde03146102da578063081812fc146102fc57806308fd849314610334575b600080fd5b3480156102b157600080fd5b506102c56102c0366004612b54565b6108ae565b60405190151581526020015b60405180910390f35b3480156102e657600080fd5b506102ef6108f2565b6040516102d19190612bc1565b34801561030857600080fd5b5061031c610317366004612bd4565b610984565b6040516001600160a01b0390911681526020016102d1565b34801561034057600080fd5b5061035461034f366004612bd4565b6109ab565b005b34801561036257600080fd5b50610354610371366004612c02565b610bff565b34801561038257600080fd5b506102c5610391366004612bd4565b60009081526010602052604090205460ff1690565b3480156103b257600080fd5b506103546103c1366004612c2e565b610d53565b3480156103d257600080fd5b50600d546103f09060ff81169061010090046001600160a01b031682565b6040805160ff90931683526001600160a01b039091166020830152016102d1565b34801561041d57600080fd5b5061043161042c366004612c6f565b610dca565b604080516001600160a01b0390931683526020830191909152016102d1565b34801561045c57600080fd5b5061035461046b366004612c2e565b610e87565b34801561047c57600080fd5b5061035461048b366004612cd6565b610ea2565b34801561049c57600080fd5b506104b06104ab366004612bd4565b610fef565b6040516102d196959493929190612db2565b3480156104ce57600080fd5b5060095461031c906001600160a01b031681565b3480156104ee57600080fd5b50600c546103f09060ff81169061010090046001600160a01b031682565b34801561051857600080fd5b5061031c610527366004612bd4565b6112d5565b34801561053857600080fd5b5061054c610547366004612cd6565b61133a565b6040519081526020016102d1565b610354610568366004612e27565b61153d565b34801561057957600080fd5b5061054c610588366004612eca565b6115d7565b34801561059957600080fd5b5061054c600b5481565b3480156105af57600080fd5b506103546105be366004613021565b611671565b3480156105cf57600080fd5b5061054c600e5481565b3480156105e557600080fd5b506102ef611764565b3480156105fa57600080fd5b506008546102c590610100900460ff1681565b34801561061957600080fd5b5061035461062836600461308e565b611773565b34801561063957600080fd5b506008546102c59060ff1681565b34801561065357600080fd5b50610354610662366004613100565b61182a565b34801561067357600080fd5b506103546106823660046131b7565b611839565b34801561069357600080fd5b506106cc6106a2366004613223565b7fbc197c810000000000000000000000000000000000000000000000000000000095945050505050565b6040516001600160e01b031990911681526020016102d1565b3480156106f157600080fd5b506102ef610700366004612bd4565b6118b7565b34801561071157600080fd5b5060085461031c906201000090046001600160a01b031681565b34801561073757600080fd5b50600a5461031c906001600160a01b031681565b34801561075757600080fd5b506102c56107663660046132d1565b6001600160a01b03918216600090815260076020908152604080832093909416825291909152205460ff1690565b3480156107a057600080fd5b50610354611992565b3480156107b557600080fd5b506102ef6119ce565b3480156107ca57600080fd5b506106cc6107d93660046132ff565b7ff23a6e610000000000000000000000000000000000000000000000000000000095945050505050565b34801561080f57600080fd5b506102ef611a4d565b34801561082457600080fd5b50610354610833366004612cd6565b611a86565b34801561084457600080fd5b506102ef6040518060400160405280600381526020017f312e30000000000000000000000000000000000000000000000000000000000081525081565b34801561088d57600080fd5b5061054c61089c366004612eca565b60116020526000908152604090205481565b60006001600160e01b031982167f6fbeaf1e0000000000000000000000000000000000000000000000000000000014806108ec57506108ec82611bdc565b92915050565b60606002805461090190613368565b80601f016020809104026020016040519081016040528092919081815260200182805461092d90613368565b801561097a5780601f1061094f5761010080835404028352916020019161097a565b820191906000526020600020905b81548152906001019060200180831161095d57829003601f168201915b5050505050905090565b600061098f82611c1a565b506000908152600660205260409020546001600160a01b031690565b6000818152600460205260409020546001600160a01b031633146109fb576040517f1002a8dd00000000000000000000000000000000000000000000000000000000815260040160405180910390fd5b6000818152600f6020908152604080832060010180548251818502810185019093528083529192909190830182828015610a5457602002820191906000526020600020905b815481526020019060010190808311610a40575b5050506000858152600f60205260408120819055929350610a73915050565b604051908082528060200260200182016040528015610a9c578160200160208202803683370190505b50600f60008481526020019081526020016000206001019080519060200190610ac6929190612aa3565b506000815167ffffffffffffffff811115610ae357610ae3612ee7565b604051908082528060200260200182016040528015610b0c578160200160208202803683370190505b50905060005b8151811015610b42576001828281518110610b2f57610b2f6133a2565b6020908102919091010152600101610b12565b50610b4c83611c81565b600a546040517f2eb2c2d60000000000000000000000000000000000000000000000000000000081526001600160a01b0390911690632eb2c2d690610b9b9030903390879087906004016133b8565b600060405180830381600087803b158015610bb557600080fd5b505af1158015610bc9573d6000803e3d6000fd5b50506040513392508591507f3a68f3980ec5280d87be81c5fa8cd81617be9bbf157acbe71d9321dca391e6a890600090a3505050565b6000610c0a826112d5565b9050806001600160a01b0316836001600160a01b031603610c985760405162461bcd60e51b815260206004820152602160248201527f4552433732313a20617070726f76616c20746f2063757272656e74206f776e6560448201527f720000000000000000000000000000000000000000000000000000000000000060648201526084015b60405180910390fd5b336001600160a01b0382161480610cd257506001600160a01b038116600090815260076020908152604080832033845290915290205460ff165b610d445760405162461bcd60e51b815260206004820152603d60248201527f4552433732313a20617070726f76652063616c6c6572206973206e6f7420746f60448201527f6b656e206f776e6572206f7220617070726f76656420666f7220616c6c0000006064820152608401610c8f565b610d4e8383611d24565b505050565b610d5d3382611d92565b610dbf5760405162461bcd60e51b815260206004820152602d60248201527f4552433732313a2063616c6c6572206973206e6f7420746f6b656e206f776e6560448201526c1c881bdc88185c1c1c9bdd9959609a1b6064820152608401610c8f565b610d4e838383611e11565b60008281526001602090815260408083208151808301909252546001600160a01b038116808352600160a01b9091046bffffffffffffffffffffffff16928201929092528291610e495750604080518082019091526000546001600160a01b0381168252600160a01b90046bffffffffffffffffffffffff1660208201525b602081015160009061271090610e6d906bffffffffffffffffffffffff1687613429565b610e779190613440565b91519350909150505b9250929050565b610d4e83838360405180602001604052806000815250611839565b600e54421015610ede576040517f0ad21f0100000000000000000000000000000000000000000000000000000000815260040160405180910390fd5b336000908152601160205260408120549003610f26576040517f52a14acc00000000000000000000000000000000000000000000000000000000815260040160405180910390fd5b336000908152601160205260408120805491610f4183613462565b9091555050600a54604051630f512fe360e41b81526001600160a01b039091169063f512fe3090610f7a903390879087906004016134c4565b600060405180830381600087803b158015610f9457600080fd5b505af1158015610fa8573d6000803e3d6000fd5b505050506000610fb984848461133a565b604051909150339082907f25f077b95d0a6da5ca8514e48fced92d2e9975e1efafa3bb33d1417bdb335c5990600090a350505050565b6060806060806060600061100287611c1a565b6000878152600f602090815260409182902060010180548351818402810184019094528084529291839083018282801561105b57602002820191906000526020600020905b815481526020019060010190808311611047575b505050505096508067ffffffffffffffff81111561107b5761107b612ee7565b6040519080825280602002602001820160405280156110ae57816020015b60608152602001906001900390816110995790505b5095508067ffffffffffffffff8111156110ca576110ca612ee7565b6040519080825280602002602001820160405280156110fd57816020015b60608152602001906001900390816110e85790505b5094508067ffffffffffffffff81111561111957611119612ee7565b60405190808252806020026020018201604052801561114c57816020015b60608152602001906001900390816111375790505b5093508067ffffffffffffffff81111561116857611168612ee7565b60405190808252806020026020018201604052801561119b57816020015b60608152602001906001900390816111865790505b50925060005b818110156112b857600a5488516001600160a01b039091169063f3457fdf908a90849081106111d2576111d26133a2565b60200260200101516040518263ffffffff1660e01b81526004016111f891815260200190565b600060405180830381865afa158015611215573d6000803e3d6000fd5b505050506040513d6000823e601f3d908101601f1916820160405261123d9190810190613535565b8a858151811061124f5761124f6133a2565b602002602001018a8681518110611268576112686133a2565b602002602001018a8781518110611281576112816133a2565b602002602001018a888151811061129a5761129a6133a2565b602090810291909101019390935292909152919052526001016111a1565b5050506000958652600f6020526040909520549395929491939092565b6000818152600460205260408120546001600160a01b0316806108ec5760405162461bcd60e51b815260206004820152601860248201527f4552433732313a20696e76616c696420746f6b656e20494400000000000000006044820152606401610c8f565b600854600090610100900460ff161561137f576040517f63b9588400000000000000000000000000000000000000000000000000000000815260040160405180910390fd5b6040516bffffffffffffffffffffffff1930606090811b8216602084015233901b1660348201526048810183905260009060680160408051601f1981840301815291815281516020928301206000818152601090935291205490915060ff1615611415576040517f3f73465400000000000000000000000000000000000000000000000000000000815260040160405180910390fd5b600b8054906000611425836135d6565b909155506000818152600f6020526040902082815590925061144b906001018686612aee565b5060008181526010602052604090819020805460ff19166001179055600a5490517f37b2383f0000000000000000000000000000000000000000000000000000000081526001600160a01b03909116906337b2383f906114b3903390899089906004016134c4565b600060405180830381600087803b1580156114cd57600080fd5b505af11580156114e1573d6000803e3d6000fd5b505050506114ef3383612017565b336001600160a01b0316827f61e13485a36a1bab49bdef2c6884595827c2f5caf9160aff3047f78fae8d01e987878560405161152d939291906135ef565b60405180910390a3509392505050565b600a546040517f5bf1af440000000000000000000000000000000000000000000000000000000081526001600160a01b0390911690635bf1af449034906115909033908c908c908c908c90600401613613565b6000604051808303818588803b1580156115a957600080fd5b505af11580156115bd573d6000803e3d6000fd5b50505050506115cd83838361133a565b5050505050505050565b60006001600160a01b0382166116555760405162461bcd60e51b815260206004820152602960248201527f4552433732313a2061646472657373207a65726f206973206e6f74206120766160448201527f6c6964206f776e657200000000000000000000000000000000000000000000006064820152608401610c8f565b506001600160a01b031660009081526005602052604090205490565b6009546001600160a01b0316331461169c57604051630b35571f60e21b815260040160405180910390fd5b600a54604080517feb54f9ec000000000000000000000000000000000000000000000000000000008152905142926001600160a01b03169163eb54f9ec9160048083019260209291908290030181865afa1580156116fe573d6000803e3d6000fd5b505050506040513d601f19601f820116820180604052508101906117229190613655565b11611759576040517f6fce86a800000000000000000000000000000000000000000000000000000000815260040160405180910390fd5b610d4e838383612031565b60606003805461090190613368565b6009546001600160a01b0316331461179e57604051630b35571f60e21b815260040160405180910390fd5b600a546001600160a01b0316156117e1576040517f7735869100000000000000000000000000000000000000000000000000000000815260040160405180910390fd5b60008080806117f28587018761366e565b600a80546001600160a01b0319166001600160a01b03861617905592965090945092509050611822838383612031565b505050505050565b61183533838361211a565b5050565b6118433383611d92565b6118a55760405162461bcd60e51b815260206004820152602d60248201527f4552433732313a2063616c6c6572206973206e6f7420746f6b656e206f776e6560448201526c1c881bdc88185c1c1c9bdd9959609a1b6064820152608401610c8f565b6118b1848484846121e8565b50505050565b60606000600960009054906101000a90046001600160a01b03166001600160a01b0316636c0360eb6040518163ffffffff1660e01b8152600401600060405180830381865afa15801561190e573d6000803e3d6000fd5b505050506040513d6000823e601f3d908101601f1916820160405261193691908101906136e2565b90508051600003611956576040518060200160405280600081525061198b565b8061196030612266565b6119698561227c565b60405160200161197b93929190613717565b6040516020818303038152906040525b9392505050565b6009546001600160a01b031633146119bd57604051630b35571f60e21b815260040160405180910390fd5b6008805461ff001916610100179055565b600d5460405163181957f960e21b815260ff8216600482015260609161010090046001600160a01b0316906360655fe4906024015b600060405180830381865afa158015611a20573d6000803e3d6000fd5b505050506040513d6000823e601f3d908101601f19168201604052611a4891908101906136e2565b905090565b600c5460405163181957f960e21b815260ff8216600482015260609161010090046001600160a01b0316906360655fe490602401611a03565b60085460ff1615611ac3576040517f4f05cdd500000000000000000000000000000000000000000000000000000000815260040160405180910390fd5b6008546201000090046001600160a01b03163314801590611aef57506009546001600160a01b03163314155b15611b26576040517f3ec0dfc600000000000000000000000000000000000000000000000000000000815260040160405180910390fd5b6008805460ff19166001179055600a54604051630f512fe360e41b81526001600160a01b039091169063f512fe3090611b67903390879087906004016134c4565b600060405180830381600087803b158015611b8157600080fd5b505af1158015611b95573d6000803e3d6000fd5b505050506000611ba684848461133a565b604051909150339082907f7a2cdd235113f89f2624bfbea5174a8f5d8340424b1e1bab1c66079b6a69649290600090a350505050565b60006001600160e01b031982167f4e2312e00000000000000000000000000000000000000000000000000000000014806108ec57506108ec8261231c565b6000818152600460205260409020546001600160a01b0316611c7e5760405162461bcd60e51b815260206004820152601860248201527f4552433732313a20696e76616c696420746f6b656e20494400000000000000006044820152606401610c8f565b50565b6000611c8c826112d5565b9050611c9c81600084600161238e565b611ca5826112d5565b600083815260066020908152604080832080546001600160a01b03199081169091556001600160a01b0385168085526005845282852080546000190190558785526004909352818420805490911690555192935084927fddf252ad1be2c89b69c2b068fc378daa952ba7f163c4a11628f55a4df523b3ef908390a45050565b600081815260066020526040902080546001600160a01b0319166001600160a01b0384169081179091558190611d59826112d5565b6001600160a01b03167f8c5be1e5ebec7d5bd14f71427d1e84f3dd0314c0f7b2291e5b200ac8c7c3b92560405160405180910390a45050565b600080611d9e836112d5565b9050806001600160a01b0316846001600160a01b03161480611de557506001600160a01b0380821660009081526007602090815260408083209388168352929052205460ff165b80611e095750836001600160a01b0316611dfe84610984565b6001600160a01b0316145b949350505050565b826001600160a01b0316611e24826112d5565b6001600160a01b031614611e885760405162461bcd60e51b815260206004820152602560248201527f4552433732313a207472616e736665722066726f6d20696e636f72726563742060448201526437bbb732b960d91b6064820152608401610c8f565b6001600160a01b038216611f035760405162461bcd60e51b8152602060048201526024808201527f4552433732313a207472616e7366657220746f20746865207a65726f2061646460448201527f72657373000000000000000000000000000000000000000000000000000000006064820152608401610c8f565b611f10838383600161238e565b826001600160a01b0316611f23826112d5565b6001600160a01b031614611f875760405162461bcd60e51b815260206004820152602560248201527f4552433732313a207472616e736665722066726f6d20696e636f72726563742060448201526437bbb732b960d91b6064820152608401610c8f565b600081815260066020908152604080832080546001600160a01b03199081169091556001600160a01b0387811680865260058552838620805460001901905590871680865283862080546001019055868652600490945282852080549092168417909155905184937fddf252ad1be2c89b69c2b068fc378daa952ba7f163c4a11628f55a4df523b3ef91a4505050565b611835828260405180602001604052806000815250612416565b805182511461206c576040517fa9854bc900000000000000000000000000000000000000000000000000000000815260040160405180910390fd5b600e83905560005b82518110156120d95781818151811061208f5761208f6133a2565b6020026020010151601160008584815181106120ad576120ad6133a2565b6020908102919091018101516001600160a01b0316825281019190915260400160002055600101612074565b507f8ff5bb8f2bb6921b8d5aa3dca0c2d14f8b69e4213541990edc835862e5f5780983838360405161210d93929190613783565b60405180910390a1505050565b816001600160a01b0316836001600160a01b03160361217b5760405162461bcd60e51b815260206004820152601960248201527f4552433732313a20617070726f766520746f2063616c6c6572000000000000006044820152606401610c8f565b6001600160a01b03838116600081815260076020908152604080832094871680845294825291829020805460ff191686151590811790915591519182527f17307eab39ab6107e8899845ad3d59bd9653f200f220920489ca2b5937696c31910160405180910390a3505050565b6121f3848484611e11565b6121ff84848484612494565b6118b15760405162461bcd60e51b815260206004820152603260248201527f4552433732313a207472616e7366657220746f206e6f6e20455243373231526560448201527131b2b4bb32b91034b6b83632b6b2b73a32b960711b6064820152608401610c8f565b60606108ec6001600160a01b03831660146125e0565b60606000612289836127c1565b600101905060008167ffffffffffffffff8111156122a9576122a9612ee7565b6040519080825280601f01601f1916602001820160405280156122d3576020820181803683370190505b5090508181016020015b600019017f3031323334353637383961626364656600000000000000000000000000000000600a86061a8153600a85049450846122dd57509392505050565b60006001600160e01b031982167f80ac58cd00000000000000000000000000000000000000000000000000000000148061237f57506001600160e01b031982167f5b5e139f00000000000000000000000000000000000000000000000000000000145b806108ec57506108ec826128a3565b60018111156118b1576001600160a01b038416156123d4576001600160a01b038416600090815260056020526040812080548392906123ce9084906137e1565b90915550505b6001600160a01b038316156118b1576001600160a01b0383166000908152600560205260408120805483929061240b9084906137f4565b909155505050505050565b612420838361290a565b61242d6000848484612494565b610d4e5760405162461bcd60e51b815260206004820152603260248201527f4552433732313a207472616e7366657220746f206e6f6e20455243373231526560448201527131b2b4bb32b91034b6b83632b6b2b73a32b960711b6064820152608401610c8f565b60006001600160a01b0384163b156125d557604051630a85bd0160e11b81526001600160a01b0385169063150b7a02906124d8903390899088908890600401613807565b6020604051808303816000875af1925050508015612513575060408051601f3d908101601f1916820190925261251091810190613843565b60015b6125bb573d808015612541576040519150601f19603f3d011682016040523d82523d6000602084013e612546565b606091505b5080516000036125b35760405162461bcd60e51b815260206004820152603260248201527f4552433732313a207472616e7366657220746f206e6f6e20455243373231526560448201527131b2b4bb32b91034b6b83632b6b2b73a32b960711b6064820152608401610c8f565b805181602001fd5b6001600160e01b031916630a85bd0160e11b149050611e09565b506001949350505050565b606060006125ef836002613429565b6125fa9060026137f4565b67ffffffffffffffff81111561261257612612612ee7565b6040519080825280601f01601f19166020018201604052801561263c576020820181803683370190505b5090507f300000000000000000000000000000000000000000000000000000000000000081600081518110612673576126736133a2565b60200101906001600160f81b031916908160001a9053507f7800000000000000000000000000000000000000000000000000000000000000816001815181106126be576126be6133a2565b60200101906001600160f81b031916908160001a90535060006126e2846002613429565b6126ed9060016137f4565b90505b6001811115612772577f303132333435363738396162636465660000000000000000000000000000000085600f166010811061272e5761272e6133a2565b1a60f81b828281518110612744576127446133a2565b60200101906001600160f81b031916908160001a90535060049490941c9361276b81613462565b90506126f0565b50831561198b5760405162461bcd60e51b815260206004820181905260248201527f537472696e67733a20686578206c656e67746820696e73756666696369656e746044820152606401610c8f565b6000807a184f03e93ff9f4daa797ed6e38ed64bf6a1f010000000000000000831061280a577a184f03e93ff9f4daa797ed6e38ed64bf6a1f010000000000000000830492506040015b6d04ee2d6d415b85acef81000000008310612836576d04ee2d6d415b85acef8100000000830492506020015b662386f26fc10000831061285457662386f26fc10000830492506010015b6305f5e100831061286c576305f5e100830492506008015b612710831061288057612710830492506004015b60648310612892576064830492506002015b600a83106108ec5760010192915050565b60006001600160e01b031982167f2a55205a0000000000000000000000000000000000000000000000000000000014806108ec57507f01ffc9a7000000000000000000000000000000000000000000000000000000006001600160e01b03198316146108ec565b6001600160a01b0382166129605760405162461bcd60e51b815260206004820181905260248201527f4552433732313a206d696e7420746f20746865207a65726f20616464726573736044820152606401610c8f565b6000818152600460205260409020546001600160a01b0316156129c55760405162461bcd60e51b815260206004820152601c60248201527f4552433732313a20746f6b656e20616c7265616479206d696e746564000000006044820152606401610c8f565b6129d360008383600161238e565b6000818152600460205260409020546001600160a01b031615612a385760405162461bcd60e51b815260206004820152601c60248201527f4552433732313a20746f6b656e20616c7265616479206d696e746564000000006044820152606401610c8f565b6001600160a01b038216600081815260056020908152604080832080546001019055848352600490915280822080546001600160a01b0319168417905551839291907fddf252ad1be2c89b69c2b068fc378daa952ba7f163c4a11628f55a4df523b3ef908290a45050565b828054828255906000526020600020908101928215612ade579160200282015b82811115612ade578251825591602001919060010190612ac3565b50612aea929150612b29565b5090565b828054828255906000526020600020908101928215612ade579160200282015b82811115612ade578235825591602001919060010190612b0e565b5b80821115612aea5760008155600101612b2a565b6001600160e01b031981168114611c7e57600080fd5b600060208284031215612b6657600080fd5b813561198b81612b3e565b60005b83811015612b8c578181015183820152602001612b74565b50506000910152565b60008151808452612bad816020860160208601612b71565b601f01601f19169290920160200192915050565b60208152600061198b6020830184612b95565b600060208284031215612be657600080fd5b5035919050565b6001600160a01b0381168114611c7e57600080fd5b60008060408385031215612c1557600080fd5b8235612c2081612bed565b946020939093013593505050565b600080600060608486031215612c4357600080fd5b8335612c4e81612bed565b92506020840135612c5e81612bed565b929592945050506040919091013590565b60008060408385031215612c8257600080fd5b50508035926020909101359150565b60008083601f840112612ca357600080fd5b50813567ffffffffffffffff811115612cbb57600080fd5b6020830191508360208260051b8501011115610e8057600080fd5b600080600060408486031215612ceb57600080fd5b833567ffffffffffffffff811115612d0257600080fd5b612d0e86828701612c91565b909790965060209590950135949350505050565b600081518084526020808501945080840160005b83811015612d5257815187529582019590820190600101612d36565b509495945050505050565b600081518084526020808501808196508360051b8101915082860160005b85811015612da5578284038952612d93848351612b95565b98850198935090840190600101612d7b565b5091979650505050505050565b60c081526000612dc560c0830189612d22565b8281036020840152612dd78189612d5d565b90508281036040840152612deb8188612d5d565b90508281036060840152612dff8187612d5d565b90508281036080840152612e138186612d5d565b9150508260a0830152979650505050505050565b60008060008060008060006080888a031215612e4257600080fd5b873567ffffffffffffffff80821115612e5a57600080fd5b612e668b838c01612c91565b909950975060208a0135915080821115612e7f57600080fd5b612e8b8b838c01612c91565b909750955060408a0135915080821115612ea457600080fd5b50612eb18a828b01612c91565b989b979a50959894979596606090950135949350505050565b600060208284031215612edc57600080fd5b813561198b81612bed565b634e487b7160e01b600052604160045260246000fd5b604051601f8201601f1916810167ffffffffffffffff81118282101715612f2657612f26612ee7565b604052919050565b600067ffffffffffffffff821115612f4857612f48612ee7565b5060051b60200190565b600082601f830112612f6357600080fd5b81356020612f78612f7383612f2e565b612efd565b82815260059290921b84018101918181019086841115612f9757600080fd5b8286015b84811015612fbb578035612fae81612bed565b8352918301918301612f9b565b509695505050505050565b600082601f830112612fd757600080fd5b81356020612fe7612f7383612f2e565b82815260059290921b8401810191818101908684111561300657600080fd5b8286015b84811015612fbb578035835291830191830161300a565b60008060006060848603121561303657600080fd5b83359250602084013567ffffffffffffffff8082111561305557600080fd5b61306187838801612f52565b9350604086013591508082111561307757600080fd5b5061308486828701612fc6565b9150509250925092565b600080602083850312156130a157600080fd5b823567ffffffffffffffff808211156130b957600080fd5b818501915085601f8301126130cd57600080fd5b8135818111156130dc57600080fd5b8660208285010111156130ee57600080fd5b60209290920196919550909350505050565b6000806040838503121561311357600080fd5b823561311e81612bed565b91506020830135801515811461313357600080fd5b809150509250929050565b600067ffffffffffffffff82111561315857613158612ee7565b50601f01601f191660200190565b600082601f83011261317757600080fd5b8135613185612f738261313e565b81815284602083860101111561319a57600080fd5b816020850160208301376000918101602001919091529392505050565b600080600080608085870312156131cd57600080fd5b84356131d881612bed565b935060208501356131e881612bed565b925060408501359150606085013567ffffffffffffffff81111561320b57600080fd5b61321787828801613166565b91505092959194509250565b600080600080600060a0868803121561323b57600080fd5b853561324681612bed565b9450602086013561325681612bed565b9350604086013567ffffffffffffffff8082111561327357600080fd5b61327f89838a01612fc6565b9450606088013591508082111561329557600080fd5b6132a189838a01612fc6565b935060808801359150808211156132b757600080fd5b506132c488828901613166565b9150509295509295909350565b600080604083850312156132e457600080fd5b82356132ef81612bed565b9150602083013561313381612bed565b600080600080600060a0868803121561331757600080fd5b853561332281612bed565b9450602086013561333281612bed565b93506040860135925060608601359150608086013567ffffffffffffffff81111561335c57600080fd5b6132c488828901613166565b600181811c9082168061337c57607f821691505b60208210810361339c57634e487b7160e01b600052602260045260246000fd5b50919050565b634e487b7160e01b600052603260045260246000fd5b60006001600160a01b03808716835280861660208401525060a060408301526133e460a0830185612d22565b82810360608401526133f68185612d22565b838103608090940193909352505060008152602001949350505050565b634e487b7160e01b600052601160045260246000fd5b80820281158282048414176108ec576108ec613413565b60008261345d57634e487b7160e01b600052601260045260246000fd5b500490565b60008161347157613471613413565b506000190190565b81835260007f07ffffffffffffffffffffffffffffffffffffffffffffffffffffffffffffff8311156134ab57600080fd5b8260051b80836020870137939093016020019392505050565b6001600160a01b03841681526040602082015260006134e7604083018486613479565b95945050505050565b600082601f83011261350157600080fd5b815161350f612f738261313e565b81815284602083860101111561352457600080fd5b611e09826020830160208701612b71565b6000806000806080858703121561354b57600080fd5b845167ffffffffffffffff8082111561356357600080fd5b61356f888389016134f0565b9550602087015191508082111561358557600080fd5b613591888389016134f0565b945060408701519150808211156135a757600080fd5b6135b3888389016134f0565b935060608701519150808211156135c957600080fd5b50613217878288016134f0565b6000600182016135e8576135e8613413565b5060010190565b604081526000613603604083018587613479565b9050826020830152949350505050565b6001600160a01b0386168152606060208201526000613636606083018688613479565b8281036040840152613649818587613479565b98975050505050505050565b60006020828403121561366757600080fd5b5051919050565b6000806000806080858703121561368457600080fd5b843561368f81612bed565b935060208501359250604085013567ffffffffffffffff808211156136b357600080fd5b6136bf88838901612f52565b935060608701359150808211156136d557600080fd5b5061321787828801612fc6565b6000602082840312156136f457600080fd5b815167ffffffffffffffff81111561370b57600080fd5b611e09848285016134f0565b60008451613729818460208901612b71565b84519083019061373d818360208901612b71565b7f2f0000000000000000000000000000000000000000000000000000000000000091019081528351613776816001840160208801612b71565b0160010195945050505050565b6000606082018583526020606081850152818651808452608086019150828801935060005b818110156137cd5784516001600160a01b0316835293830193918301916001016137a8565b505084810360408601526136498187612d22565b818103818111156108ec576108ec613413565b808201808211156108ec576108ec613413565b60006001600160a01b038087168352808616602084015250836040830152608060608301526138396080830184612b95565b9695505050505050565b60006020828403121561385557600080fd5b815161198b81612b3e56fea264697066735822122041367d3b1b576010bbb7adb4949f179572e110a20ed9ee67042de8e19f378c7f64736f6c63430008130033",
  "devdoc": {
    "events": {
      "Approval(address,address,uint256)": {
        "details": "Emitted when `owner` enables `approved` to manage the `tokenId` token."
      },
      "ApprovalForAll(address,address,bool)": {
        "details": "Emitted when `owner` enables or disables (`approved`) `operator` to manage all of its assets."
      },
      "Transfer(address,address,uint256)": {
        "details": "Emitted when `tokenId` token is transferred from `from` to `to`."
      }
    },
    "kind": "dev",
    "methods": {
      "approve(address,uint256)": {
        "details": "See {IERC721-approve}."
      },
      "artwork(uint256)": {
        "params": {
          "_artworkTokenId": "token ID of the artwork"
        },
        "returns": {
          "_hash": "the artwork hash",
          "_traitNames": "the human readable trait names contained in the artwork",
          "_traitTokenIds": "the token IDs of the traits the artwork contains",
          "_traitTypeNames": "the human readable trait type names",
          "_traitTypeValues": "the trait type values used by the generative script",
          "_traitValues": "the trait values used by the generative script"
        }
      },
      "balanceOf(address)": {
        "details": "See {IERC721-balanceOf}."
      },
      "getApproved(uint256)": {
        "details": "See {IERC721-getApproved}."
      },
      "isApprovedForAll(address,address)": {
        "details": "See {IERC721-isApprovedForAll}."
      },
      "isHashUsed(bytes32)": {
        "params": {
          "_hash": "the artwork seed hash"
        },
        "returns": {
          "_0": "bool whether the hash has been used"
        }
      },
      "metadataJSON()": {
        "returns": {
          "_0": "string the project metadata in JSON format"
        }
      },
      "mintArtwork(uint256[],uint256)": {
        "params": {
          "_saltNonce": "salt number that is used to generate the artwork hash",
          "_traitTokenIds": "the trait token IDs to create the artwork with"
        },
        "returns": {
          "_artworkTokenId": "the token ID of the newly minted artwork"
        }
      },
      "mintArtworkProof(uint256[],uint256)": {
        "params": {
          "_saltNonce": "salt number that is used to generate the artwork hash",
          "_traitTokenIds": "token IDs of the traits to use to create the artwork"
        }
      },
      "mintArtworkWhitelist(uint256[],uint256)": {
        "params": {
          "_saltNonce": "salt number that is used to generate the artwork hash",
          "_traitTokenIds": "token IDs of the traits to use to create the artwork"
        }
      },
      "mintTraitsAndArtwork(uint256[],uint256[],uint256[],uint256)": {
        "params": {
          "_saltNonce": "salt number that is used to generate the artwork hash",
          "_traitAmountsToBuy": "amounts of each trait to buy",
          "_traitTokenIdsToBuy": "token IDs of the traits to buy",
          "_traitTokenIdsToCreateArtwork": "token IDs of the traits to use to create the artwork"
        }
      },
      "name()": {
        "details": "See {IERC721Metadata-name}."
      },
      "ownerOf(uint256)": {
        "details": "See {IERC721-ownerOf}."
      },
      "reclaimTraits(uint256)": {
        "params": {
          "_artworkTokenId": "the token ID of the artwork being reclaimed"
        }
      },
      "royaltyInfo(uint256,uint256)": {
        "details": "Returns how much royalty is owed and to whom, based on a sale price that may be denominated in any unit of exchange. The royalty amount is denominated and should be paid in that same unit of exchange."
      },
      "safeTransferFrom(address,address,uint256)": {
        "details": "See {IERC721-safeTransferFrom}."
      },
      "safeTransferFrom(address,address,uint256,bytes)": {
        "details": "See {IERC721-safeTransferFrom}."
      },
      "script()": {
        "returns": {
          "_0": "string the generative art javascript"
        }
      },
      "setApprovalForAll(address,bool)": {
        "details": "See {IERC721-setApprovalForAll}."
      },
      "setup(bytes)": {
        "params": {
          "_data": "bytes containing setup data for initializing contract"
        }
      },
      "supportsInterface(bytes4)": {
        "params": {
          "interfaceId": "the interface ID to check"
        },
        "returns": {
          "_0": "bool True if the interface is supported, otherwise False"
        }
      },
      "symbol()": {
        "details": "See {IERC721Metadata-symbol}."
      },
      "tokenURI(uint256)": {
        "params": {
          "_tokenId": "token ID to get URI for"
        },
        "returns": {
          "_0": "string the token URI"
        }
      },
      "transferFrom(address,address,uint256)": {
        "details": "See {IERC721-transferFrom}."
      },
      "updateWhitelist(uint256,address[],uint256[])": {
        "params": {
          "_whitelistAddresses": "addresses to be whitelisted",
          "_whitelistAmounts": "amount of whitelist mints for each address",
          "_whitelistStartTime": "timestamp at which whitelisted users can start minting"
        }
      }
    },
    "stateVariables": {
      "whitelistMintsRemaining": {
        "return": "uint256 the number of whitelist mints remaining",
        "returns": {
          "_0": "uint256 the number of whitelist mints remaining"
        }
      }
    },
    "version": 1
  },
  "userdoc": {
    "kind": "user",
    "methods": {
      "artwork(uint256)": {
        "notice": "Returns info about the specified artwork token"
      },
      "cancel()": {
        "notice": "Cancels a project and its auction Contracts should revert if this is called and the auction has already started."
      },
      "isHashUsed(bytes32)": {
        "notice": "Returns whether the specified hash has been used to mint an artwork"
      },
      "metadataJSON()": {
        "notice": "Returns a string containing the project metadata in JSON format"
      },
      "mintArtwork(uint256[],uint256)": {
        "notice": "Mints a new artwork with the specified trait token IDs The caller must own the specified traits"
      },
      "mintArtworkProof(uint256[],uint256)": {
        "notice": "Allows the artist or project registry to mint the proof mint"
      },
      "mintArtworkWhitelist(uint256[],uint256)": {
        "notice": "Allows an address on the whitelist to mint an artwork for free"
      },
      "mintTraitsAndArtwork(uint256[],uint256[],uint256[],uint256)": {
        "notice": "Mints traits with specified amounts, and mints an artwork in a single transaction ETH amount needed for trait mints must be sent"
      },
      "reclaimTraits(uint256)": {
        "notice": "Reclaims the traits the specified artwork token into the traits its composed of The artwork token is burned, and the token ID will never be reused The traits are transferred to the caller's address"
      },
      "script()": {
        "notice": "Returns the string that contains the generative art javascript"
      },
      "setup(bytes)": {
        "notice": "Sets up the contract"
      },
      "supportsInterface(bytes4)": {
        "notice": "Returns whether the specified interface ID is supported by the contract"
      },
      "tokenURI(uint256)": {
        "notice": "Returns the URI of the specified token ID"
      },
      "updateWhitelist(uint256,address[],uint256[])": {
        "notice": "Updates the whitelisted addresses and amounts they can claim"
      },
      "whitelistMintsRemaining(address)": {
        "notice": "Returns how many more whitelist mints the specified address has"
      }
    },
    "notice": "Implements ERC-721 standard for artwork tokens, and functionality for minting artwork and reclaiming traits",
    "version": 1
  },
  "storageLayout": {
    "storage": [
      {
        "astId": 2980,
        "contract": "contracts/Artwork.sol:Artwork",
        "label": "_defaultRoyaltyInfo",
        "offset": 0,
        "slot": "0",
        "type": "t_struct(RoyaltyInfo)2977_storage"
      },
      {
        "astId": 2985,
        "contract": "contracts/Artwork.sol:Artwork",
        "label": "_tokenRoyaltyInfo",
        "offset": 0,
        "slot": "1",
        "type": "t_mapping(t_uint256,t_struct(RoyaltyInfo)2977_storage)"
      },
      {
        "astId": 1883,
        "contract": "contracts/Artwork.sol:Artwork",
        "label": "_name",
        "offset": 0,
        "slot": "2",
        "type": "t_string_storage"
      },
      {
        "astId": 1885,
        "contract": "contracts/Artwork.sol:Artwork",
        "label": "_symbol",
        "offset": 0,
        "slot": "3",
        "type": "t_string_storage"
      },
      {
        "astId": 1889,
        "contract": "contracts/Artwork.sol:Artwork",
        "label": "_owners",
        "offset": 0,
        "slot": "4",
        "type": "t_mapping(t_uint256,t_address)"
      },
      {
        "astId": 1893,
        "contract": "contracts/Artwork.sol:Artwork",
        "label": "_balances",
        "offset": 0,
        "slot": "5",
        "type": "t_mapping(t_address,t_uint256)"
      },
      {
        "astId": 1897,
        "contract": "contracts/Artwork.sol:Artwork",
        "label": "_tokenApprovals",
        "offset": 0,
        "slot": "6",
        "type": "t_mapping(t_uint256,t_address)"
      },
      {
        "astId": 1903,
        "contract": "contracts/Artwork.sol:Artwork",
        "label": "_operatorApprovals",
        "offset": 0,
        "slot": "7",
        "type": "t_mapping(t_address,t_mapping(t_address,t_bool))"
      },
      {
        "astId": 4631,
        "contract": "contracts/Artwork.sol:Artwork",
        "label": "proofMinted",
        "offset": 0,
        "slot": "8",
        "type": "t_bool"
      },
      {
        "astId": 4633,
        "contract": "contracts/Artwork.sol:Artwork",
        "label": "cancelled",
        "offset": 1,
        "slot": "8",
        "type": "t_bool"
      },
      {
        "astId": 4638,
        "contract": "contracts/Artwork.sol:Artwork",
        "label": "artistAddress",
        "offset": 2,
        "slot": "8",
        "type": "t_address"
      },
      {
        "astId": 4641,
        "contract": "contracts/Artwork.sol:Artwork",
        "label": "projectRegistry",
        "offset": 0,
        "slot": "9",
        "type": "t_contract(IProjectRegistry)7465"
      },
      {
        "astId": 4644,
        "contract": "contracts/Artwork.sol:Artwork",
        "label": "traits",
        "offset": 0,
        "slot": "10",
        "type": "t_contract(ITraits)7706"
      },
      {
        "astId": 4646,
        "contract": "contracts/Artwork.sol:Artwork",
        "label": "nextTokenId",
        "offset": 0,
        "slot": "11",
        "type": "t_uint256"
      },
      {
        "astId": 4649,
        "contract": "contracts/Artwork.sol:Artwork",
        "label": "metadataJSONStringStorage",
        "offset": 0,
        "slot": "12",
        "type": "t_struct(StringStorageData)7158_storage"
      },
      {
        "astId": 4652,
        "contract": "contracts/Artwork.sol:Artwork",
        "label": "scriptStringStorage",
        "offset": 0,
        "slot": "13",
        "type": "t_struct(StringStorageData)7158_storage"
      },
      {
        "astId": 4654,
        "contract": "contracts/Artwork.sol:Artwork",
        "label": "whitelistStartTime",
        "offset": 0,
        "slot": "14",
        "type": "t_uint256"
      },
      {
        "astId": 4659,
        "contract": "contracts/Artwork.sol:Artwork",
        "label": "artworkData",
        "offset": 0,
        "slot": "15",
        "type": "t_mapping(t_uint256,t_struct(ArtworkData)7153_storage)"
      },
      {
        "astId": 4663,
        "contract": "contracts/Artwork.sol:Artwork",
        "label": "hashUsed",
        "offset": 0,
        "slot": "16",
        "type": "t_mapping(t_bytes32,t_bool)"
      },
      {
        "astId": 4667,
        "contract": "contracts/Artwork.sol:Artwork",
        "label": "whitelistMintsRemaining",
        "offset": 0,
        "slot": "17",
        "type": "t_mapping(t_address,t_uint256)"
      }
    ],
    "types": {
      "t_address": {
        "encoding": "inplace",
        "label": "address",
        "numberOfBytes": "20"
      },
      "t_array(t_uint256)dyn_storage": {
        "base": "t_uint256",
        "encoding": "dynamic_array",
        "label": "uint256[]",
        "numberOfBytes": "32"
      },
      "t_bool": {
        "encoding": "inplace",
        "label": "bool",
        "numberOfBytes": "1"
      },
      "t_bytes32": {
        "encoding": "inplace",
        "label": "bytes32",
        "numberOfBytes": "32"
      },
      "t_contract(IProjectRegistry)7465": {
        "encoding": "inplace",
        "label": "contract IProjectRegistry",
        "numberOfBytes": "20"
      },
      "t_contract(ITraits)7706": {
        "encoding": "inplace",
        "label": "contract ITraits",
        "numberOfBytes": "20"
      },
      "t_mapping(t_address,t_bool)": {
        "encoding": "mapping",
        "key": "t_address",
        "label": "mapping(address => bool)",
        "numberOfBytes": "32",
        "value": "t_bool"
      },
      "t_mapping(t_address,t_mapping(t_address,t_bool))": {
        "encoding": "mapping",
        "key": "t_address",
        "label": "mapping(address => mapping(address => bool))",
        "numberOfBytes": "32",
        "value": "t_mapping(t_address,t_bool)"
      },
      "t_mapping(t_address,t_uint256)": {
        "encoding": "mapping",
        "key": "t_address",
        "label": "mapping(address => uint256)",
        "numberOfBytes": "32",
        "value": "t_uint256"
      },
      "t_mapping(t_bytes32,t_bool)": {
        "encoding": "mapping",
        "key": "t_bytes32",
        "label": "mapping(bytes32 => bool)",
        "numberOfBytes": "32",
        "value": "t_bool"
      },
      "t_mapping(t_uint256,t_address)": {
        "encoding": "mapping",
        "key": "t_uint256",
        "label": "mapping(uint256 => address)",
        "numberOfBytes": "32",
        "value": "t_address"
      },
      "t_mapping(t_uint256,t_struct(ArtworkData)7153_storage)": {
        "encoding": "mapping",
        "key": "t_uint256",
        "label": "mapping(uint256 => struct IArtwork.ArtworkData)",
        "numberOfBytes": "32",
        "value": "t_struct(ArtworkData)7153_storage"
      },
      "t_mapping(t_uint256,t_struct(RoyaltyInfo)2977_storage)": {
        "encoding": "mapping",
        "key": "t_uint256",
        "label": "mapping(uint256 => struct ERC2981.RoyaltyInfo)",
        "numberOfBytes": "32",
        "value": "t_struct(RoyaltyInfo)2977_storage"
      },
      "t_string_storage": {
        "encoding": "bytes",
        "label": "string",
        "numberOfBytes": "32"
      },
      "t_struct(ArtworkData)7153_storage": {
        "encoding": "inplace",
        "label": "struct IArtwork.ArtworkData",
        "members": [
          {
            "astId": 7149,
            "contract": "contracts/Artwork.sol:Artwork",
            "label": "hash",
            "offset": 0,
            "slot": "0",
            "type": "t_bytes32"
          },
          {
            "astId": 7152,
            "contract": "contracts/Artwork.sol:Artwork",
            "label": "traitTokenIds",
            "offset": 0,
            "slot": "1",
            "type": "t_array(t_uint256)dyn_storage"
          }
        ],
        "numberOfBytes": "64"
      },
      "t_struct(RoyaltyInfo)2977_storage": {
        "encoding": "inplace",
        "label": "struct ERC2981.RoyaltyInfo",
        "members": [
          {
            "astId": 2974,
            "contract": "contracts/Artwork.sol:Artwork",
            "label": "receiver",
            "offset": 0,
            "slot": "0",
            "type": "t_address"
          },
          {
            "astId": 2976,
            "contract": "contracts/Artwork.sol:Artwork",
            "label": "royaltyFraction",
            "offset": 20,
            "slot": "0",
            "type": "t_uint96"
          }
        ],
        "numberOfBytes": "32"
      },
      "t_struct(StringStorageData)7158_storage": {
        "encoding": "inplace",
        "label": "struct IArtwork.StringStorageData",
        "members": [
          {
            "astId": 7155,
            "contract": "contracts/Artwork.sol:Artwork",
            "label": "stringStorageSlot",
            "offset": 0,
            "slot": "0",
            "type": "t_uint8"
          },
          {
            "astId": 7157,
            "contract": "contracts/Artwork.sol:Artwork",
            "label": "stringStorageAddress",
            "offset": 1,
            "slot": "0",
            "type": "t_address"
          }
        ],
        "numberOfBytes": "32"
      },
      "t_uint256": {
        "encoding": "inplace",
        "label": "uint256",
        "numberOfBytes": "32"
      },
      "t_uint8": {
        "encoding": "inplace",
        "label": "uint8",
        "numberOfBytes": "1"
      },
      "t_uint96": {
        "encoding": "inplace",
        "label": "uint96",
        "numberOfBytes": "12"
      }
    }
  }
}