{
  "address": "0xB0CbaDc6D7183Bc13f9A306e7CC927f098522729",
  "abi": [
    {
      "inputs": [
        {
          "internalType": "address",
          "name": "_owner",
          "type": "address"
        },
        {
          "internalType": "address[]",
          "name": "_admins",
          "type": "address[]"
        },
        {
          "internalType": "string",
          "name": "_baseURI",
          "type": "string"
        }
      ],
      "stateMutability": "nonpayable",
      "type": "constructor"
    },
    {
      "inputs": [],
      "name": "InvalidAddress",
      "type": "error"
    },
    {
      "inputs": [],
      "name": "InvalidArrayLengths",
      "type": "error"
    },
    {
      "inputs": [],
      "name": "OnlyAdmin",
      "type": "error"
    },
    {
      "anonymous": false,
      "inputs": [
        {
          "indexed": true,
          "internalType": "address",
          "name": "account",
          "type": "address"
        }
      ],
      "name": "AdminAdded",
      "type": "event"
    },
    {
      "anonymous": false,
      "inputs": [
        {
          "indexed": true,
          "internalType": "address",
          "name": "account",
          "type": "address"
        }
      ],
      "name": "AdminRemoved",
      "type": "event"
    },
    {
      "anonymous": false,
      "inputs": [
        {
          "indexed": false,
          "internalType": "string",
          "name": "baseURI",
          "type": "string"
        }
      ],
      "name": "BaseURIUpdated",
      "type": "event"
    },
    {
      "anonymous": false,
      "inputs": [
        {
          "indexed": true,
          "internalType": "address",
          "name": "previousOwner",
          "type": "address"
        },
        {
          "indexed": true,
          "internalType": "address",
          "name": "newOwner",
          "type": "address"
        }
      ],
      "name": "OwnershipTransferStarted",
      "type": "event"
    },
    {
      "anonymous": false,
      "inputs": [
        {
          "indexed": true,
          "internalType": "address",
          "name": "previousOwner",
          "type": "address"
        },
        {
          "indexed": true,
          "internalType": "address",
          "name": "newOwner",
          "type": "address"
        }
      ],
      "name": "OwnershipTransferred",
      "type": "event"
    },
    {
      "anonymous": false,
      "inputs": [
        {
          "indexed": true,
          "internalType": "uint256",
          "name": "projectId",
          "type": "uint256"
        },
        {
          "indexed": true,
          "internalType": "address",
          "name": "artwork",
          "type": "address"
        },
        {
          "indexed": true,
          "internalType": "address",
          "name": "traits",
          "type": "address"
        }
      ],
      "name": "ProjectRegistered",
      "type": "event"
    },
    {
      "inputs": [],
      "name": "acceptOwnership",
      "outputs": [],
      "stateMutability": "nonpayable",
      "type": "function"
    },
    {
      "inputs": [
        {
          "internalType": "address[]",
          "name": "_admins",
          "type": "address[]"
        }
      ],
      "name": "addAdmins",
      "outputs": [],
      "stateMutability": "nonpayable",
      "type": "function"
    },
    {
      "inputs": [
        {
          "internalType": "address",
          "name": "",
          "type": "address"
        }
      ],
      "name": "admins",
      "outputs": [
        {
          "internalType": "bool",
          "name": "",
          "type": "bool"
        }
      ],
      "stateMutability": "view",
      "type": "function"
    },
    {
      "inputs": [],
      "name": "baseURI",
      "outputs": [
        {
          "internalType": "string",
          "name": "",
          "type": "string"
        }
      ],
      "stateMutability": "view",
      "type": "function"
    },
    {
      "inputs": [
        {
          "internalType": "address[]",
          "name": "_targets",
          "type": "address[]"
        },
        {
          "internalType": "uint256[]",
          "name": "_values",
          "type": "uint256[]"
        },
        {
          "internalType": "bytes[]",
          "name": "_calldatas",
          "type": "bytes[]"
        }
      ],
      "name": "execute",
      "outputs": [],
      "stateMutability": "nonpayable",
      "type": "function"
    },
    {
      "inputs": [],
      "name": "owner",
      "outputs": [
        {
          "internalType": "address",
          "name": "",
          "type": "address"
        }
      ],
      "stateMutability": "view",
      "type": "function"
    },
    {
      "inputs": [],
      "name": "pendingOwner",
      "outputs": [
        {
          "internalType": "address",
          "name": "",
          "type": "address"
        }
      ],
      "stateMutability": "view",
      "type": "function"
    },
    {
      "inputs": [],
      "name": "projectCount",
      "outputs": [
        {
          "internalType": "uint256",
          "name": "",
          "type": "uint256"
        }
      ],
      "stateMutability": "view",
      "type": "function"
    },
    {
      "inputs": [
        {
          "internalType": "uint256",
          "name": "",
          "type": "uint256"
        }
      ],
      "name": "projects",
      "outputs": [
        {
          "internalType": "address",
          "name": "artwork",
          "type": "address"
        },
        {
          "internalType": "address",
          "name": "traits",
          "type": "address"
        }
      ],
      "stateMutability": "view",
      "type": "function"
    },
    {
      "inputs": [
        {
          "internalType": "address",
          "name": "_artwork",
          "type": "address"
        },
        {
          "internalType": "bytes",
          "name": "_artworkData",
          "type": "bytes"
        },
        {
          "internalType": "address",
          "name": "_traits",
          "type": "address"
        },
        {
          "internalType": "bytes",
          "name": "_traitsData",
          "type": "bytes"
        }
      ],
      "name": "registerProject",
      "outputs": [],
      "stateMutability": "nonpayable",
      "type": "function"
    },
    {
      "inputs": [
        {
          "internalType": "address[]",
          "name": "_admins",
          "type": "address[]"
        }
      ],
      "name": "removeAdmins",
      "outputs": [],
      "stateMutability": "nonpayable",
      "type": "function"
    },
    {
      "inputs": [],
      "name": "renounceOwnership",
      "outputs": [],
      "stateMutability": "nonpayable",
      "type": "function"
    },
    {
      "inputs": [
        {
          "internalType": "address",
          "name": "newOwner",
          "type": "address"
        }
      ],
      "name": "transferOwnership",
      "outputs": [],
      "stateMutability": "nonpayable",
      "type": "function"
    },
    {
      "inputs": [
        {
          "internalType": "string",
          "name": "_baseURI",
          "type": "string"
        }
      ],
      "name": "updateBaseURI",
      "outputs": [],
      "stateMutability": "nonpayable",
      "type": "function"
    }
  ],
  "transactionHash": "0x09a664d861c0769ffe4f683a436d8ea3ee9b78162d249302ad6f5af9fef20228",
  "args": [
    "0x6bd62FeB486Bf699Ac04eD6DC09dE36D11720509",
    [
      "0x6bd62FeB486Bf699Ac04eD6DC09dE36D11720509"
    ],
    "https://base-sepolia-api.intrinsic.art/"
  ],
  "numDeployments": 1,
  "solcInputHash": "fe94db9a202475b075801c7069468270",
  "bytecode": "0x60806040523480156200001157600080fd5b50604051620015eb380380620015eb833981016040819052620000349162000294565b6200003f336200006d565b6200004a836200006d565b62000055826200008b565b600362000063828262000418565b50505050620004fa565b600180546001600160a01b0319169055620000888162000151565b50565b60005b81518110156200014d57600160046000848481518110620000b357620000b3620004e4565b60200260200101516001600160a01b03166001600160a01b0316815260200190815260200160002060006101000a81548160ff021916908315150217905550818181518110620001075762000107620004e4565b60200260200101516001600160a01b03167f44d6d25963f097ad14f29f06854a01f575648a1ef82f30e562ccd3889717e33960405160405180910390a26001016200008e565b5050565b600080546001600160a01b038381166001600160a01b0319831681178455604051919092169283917f8be0079c531659141344cd1fd0a4f28419497f9722a3daafe3b4186f6b6457e09190a35050565b80516001600160a01b0381168114620001b957600080fd5b919050565b634e487b7160e01b600052604160045260246000fd5b604051601f8201601f191681016001600160401b0381118282101715620001ff57620001ff620001be565b604052919050565b600082601f8301126200021957600080fd5b81516001600160401b03811115620002355762000235620001be565b60206200024b601f8301601f19168201620001d4565b82815285828487010111156200026057600080fd5b60005b838110156200028057858101830151828201840152820162000263565b506000928101909101919091529392505050565b600080600060608486031215620002aa57600080fd5b620002b584620001a1565b602085810151919450906001600160401b0380821115620002d557600080fd5b818701915087601f830112620002ea57600080fd5b815181811115620002ff57620002ff620001be565b8060051b62000310858201620001d4565b918252838101850191858101908b8411156200032b57600080fd5b948601945b8386101562000354576200034486620001a1565b8252948601949086019062000330565b60408b01519098509550505050808311156200036f57600080fd5b50506200037f8682870162000207565b9150509250925092565b600181811c908216806200039e57607f821691505b602082108103620003bf57634e487b7160e01b600052602260045260246000fd5b50919050565b601f8211156200041357600081815260208120601f850160051c81016020861015620003ee5750805b601f850160051c820191505b818110156200040f57828155600101620003fa565b5050505b505050565b81516001600160401b03811115620004345762000434620001be565b6200044c8162000445845462000389565b84620003c5565b602080601f8311600181146200048457600084156200046b5750858301515b600019600386901b1c1916600185901b1785556200040f565b600085815260208120601f198616915b82811015620004b55788860151825594840194600190910190840162000494565b5085821015620004d45787850151600019600388901b60f8161c191681555b5050505050600190811b01905550565b634e487b7160e01b600052603260045260246000fd5b6110e1806200050a6000396000f3fe608060405234801561001057600080fd5b50600436106100ea5760003560e01c80638da5cb5b1161008c578063a516a5bf11610066578063a516a5bf14610217578063d19d47521461022a578063e30c39781461023d578063f2fde38b1461024e57600080fd5b80638da5cb5b146101cc578063931688cb146101f15780639c54df641461020457600080fd5b8063429b62e5116100c8578063429b62e5146101745780636c0360eb146101a7578063715018a6146101bc57806379ba5097146101c457600080fd5b8063107046bd146100ef57806336fbad2614610148578063377e11e01461015f575b600080fd5b6101236100fd366004610ace565b600560205260009081526040902080546001909101546001600160a01b03918216911682565b604080516001600160a01b039384168152929091166020830152015b60405180910390f35b61015160025481565b60405190815260200161013f565b61017261016d366004610b4a565b610261565b005b610197610182366004610bf7565b60046020526000908152604090205460ff1681565b604051901515815260200161013f565b6101af610275565b60405161013f9190610c12565b610172610303565b610172610317565b6000546001600160a01b03165b6040516001600160a01b03909116815260200161013f565b6101726101ff366004610c60565b6103a7565b610172610212366004610b4a565b61041e565b610172610225366004610d41565b61042f565b610172610238366004610e1d565b6105cc565b6001546001600160a01b03166101d9565b61017261025c366004610bf7565b6107b1565b61026961082f565b61027281610889565b50565b6003805461028290610e9f565b80601f01602080910402602001604051908101604052809291908181526020018280546102ae90610e9f565b80156102fb5780601f106102d0576101008083540402835291602001916102fb565b820191906000526020600020905b8154815290600101906020018083116102de57829003601f168201915b505050505081565b61030b61082f565b6103156000610947565b565b60015433906001600160a01b0316811461039e5760405162461bcd60e51b815260206004820152602960248201527f4f776e61626c6532537465703a2063616c6c6572206973206e6f74207468652060448201527f6e6577206f776e6572000000000000000000000000000000000000000000000060648201526084015b60405180910390fd5b61027281610947565b3360009081526004602052604090205460ff166103d757604051634755657960e01b815260040160405180910390fd5b60036103e38282610f28565b507f6741b2fc379fad678116fe3d4d4b9a1a184ab53ba36b86ad0fa66340b1ab41ad816040516104139190610c12565b60405180910390a150565b61042661082f565b6102728161096d565b3360009081526004602052604090205460ff1661045f57604051634755657960e01b815260040160405180910390fd5b848314158061046e5750848114155b156104a5576040517fa9854bc900000000000000000000000000000000000000000000000000000000815260040160405180910390fd5b60408051808201909152601e81527f50726f6a65637452656769737472793a2063616c6c2072657665727465640000602082015260005b868110156105c2576000808989848181106104f9576104f9610fe8565b905060200201602081019061050e9190610bf7565b6001600160a01b031688888581811061052957610529610fe8565b9050602002013587878681811061054257610542610fe8565b90506020028101906105549190610ffe565b604051610562929190611045565b60006040518083038185875af1925050503d806000811461059f576040519150601f19603f3d011682016040523d82523d6000602084013e6105a4565b606091505b50915091506105b4828286610a27565b5082600101925050506104dc565b5050505050505050565b3360009081526004602052604090205460ff166105fc57604051634755657960e01b815260040160405180910390fd5b6001600160a01b038616158061061957506001600160a01b038316155b15610650576040517fe6c4247b00000000000000000000000000000000000000000000000000000000815260040160405180910390fd5b6002805490600061066083611055565b909155505060028054600090815260056020526040808220805473ffffffffffffffffffffffffffffffffffffffff199081166001600160a01b038c8116918217909355945484529282902060010180549093169087161790915551639ded06df60e01b8152639ded06df906106dc908890889060040161107c565b600060405180830381600087803b1580156106f657600080fd5b505af115801561070a573d6000803e3d6000fd5b5050604051639ded06df60e01b81526001600160a01b0386169250639ded06df915061073c908590859060040161107c565b600060405180830381600087803b15801561075657600080fd5b505af115801561076a573d6000803e3d6000fd5b50506002546040516001600160a01b0380881694508a1692507f7024d444707bcd36a8b0a076e120d984b0f8431dc1aa0513f728193d34a630dd90600090a4505050505050565b6107b961082f565b600180546001600160a01b03831673ffffffffffffffffffffffffffffffffffffffff1990911681179091556107f76000546001600160a01b031690565b6001600160a01b03167f38d16b8cac22d99fc7c124b9cd0de2d3fa1faef420bfe791d8c362d765e2270060405160405180910390a350565b6000546001600160a01b031633146103155760405162461bcd60e51b815260206004820181905260248201527f4f776e61626c653a2063616c6c6572206973206e6f7420746865206f776e65726044820152606401610395565b60005b8151811015610943576000600460008484815181106108ad576108ad610fe8565b60200260200101516001600160a01b03166001600160a01b0316815260200190815260200160002060006101000a81548160ff0219169083151502179055508181815181106108fe576108fe610fe8565b60200260200101516001600160a01b03167fa3b62bc36326052d97ea62d63c3d60308ed4c3ea8ac079dd8499f1e9c4f80c0f60405160405180910390a260010161088c565b5050565b6001805473ffffffffffffffffffffffffffffffffffffffff1916905561027281610a47565b60005b81518110156109435760016004600084848151811061099157610991610fe8565b60200260200101516001600160a01b03166001600160a01b0316815260200190815260200160002060006101000a81548160ff0219169083151502179055508181815181106109e2576109e2610fe8565b60200260200101516001600160a01b03167f44d6d25963f097ad14f29f06854a01f575648a1ef82f30e562ccd3889717e33960405160405180910390a2600101610970565b60608315610a36575081610a40565b610a408383610aa4565b9392505050565b600080546001600160a01b0383811673ffffffffffffffffffffffffffffffffffffffff19831681178455604051919092169283917f8be0079c531659141344cd1fd0a4f28419497f9722a3daafe3b4186f6b6457e09190a35050565b815115610ab45781518083602001fd5b8060405162461bcd60e51b81526004016103959190610c12565b600060208284031215610ae057600080fd5b5035919050565b634e487b7160e01b600052604160045260246000fd5b604051601f8201601f1916810167ffffffffffffffff81118282101715610b2657610b26610ae7565b604052919050565b80356001600160a01b0381168114610b4557600080fd5b919050565b60006020808385031215610b5d57600080fd5b823567ffffffffffffffff80821115610b7557600080fd5b818501915085601f830112610b8957600080fd5b813581811115610b9b57610b9b610ae7565b8060051b9150610bac848301610afd565b8181529183018401918481019088841115610bc657600080fd5b938501935b83851015610beb57610bdc85610b2e565b82529385019390850190610bcb565b98975050505050505050565b600060208284031215610c0957600080fd5b610a4082610b2e565b600060208083528351808285015260005b81811015610c3f57858101830151858201604001528201610c23565b506000604082860101526040601f19601f8301168501019250505092915050565b60006020808385031215610c7357600080fd5b823567ffffffffffffffff80821115610c8b57600080fd5b818501915085601f830112610c9f57600080fd5b813581811115610cb157610cb1610ae7565b610cc3601f8201601f19168501610afd565b91508082528684828501011115610cd957600080fd5b8084840185840137600090820190930192909252509392505050565b60008083601f840112610d0757600080fd5b50813567ffffffffffffffff811115610d1f57600080fd5b6020830191508360208260051b8501011115610d3a57600080fd5b9250929050565b60008060008060008060608789031215610d5a57600080fd5b863567ffffffffffffffff80821115610d7257600080fd5b610d7e8a838b01610cf5565b90985096506020890135915080821115610d9757600080fd5b610da38a838b01610cf5565b90965094506040890135915080821115610dbc57600080fd5b50610dc989828a01610cf5565b979a9699509497509295939492505050565b60008083601f840112610ded57600080fd5b50813567ffffffffffffffff811115610e0557600080fd5b602083019150836020828501011115610d3a57600080fd5b60008060008060008060808789031215610e3657600080fd5b610e3f87610b2e565b9550602087013567ffffffffffffffff80821115610e5c57600080fd5b610e688a838b01610ddb565b9097509550859150610e7c60408a01610b2e565b94506060890135915080821115610e9257600080fd5b50610dc989828a01610ddb565b600181811c90821680610eb357607f821691505b602082108103610ed357634e487b7160e01b600052602260045260246000fd5b50919050565b601f821115610f2357600081815260208120601f850160051c81016020861015610f005750805b601f850160051c820191505b81811015610f1f57828155600101610f0c565b5050505b505050565b815167ffffffffffffffff811115610f4257610f42610ae7565b610f5681610f508454610e9f565b84610ed9565b602080601f831160018114610f8b5760008415610f735750858301515b600019600386901b1c1916600185901b178555610f1f565b600085815260208120601f198616915b82811015610fba57888601518255948401946001909101908401610f9b565b5085821015610fd85787850151600019600388901b60f8161c191681555b5050505050600190811b01905550565b634e487b7160e01b600052603260045260246000fd5b6000808335601e1984360301811261101557600080fd5b83018035915067ffffffffffffffff82111561103057600080fd5b602001915036819003821315610d3a57600080fd5b8183823760009101908152919050565b60006001820161107557634e487b7160e01b600052601160045260246000fd5b5060010190565b60208152816020820152818360408301376000818301604090810191909152601f909201601f1916010191905056fea2646970667358221220e527711a49f228bcd0c4a8c567fc14caa0d8fddf67871f38b2033263f7eb01c764736f6c63430008130033",
  "devdoc": {
    "kind": "dev",
    "methods": {
      "acceptOwnership()": {
        "details": "The new owner accepts the ownership transfer."
      },
      "addAdmins(address[])": {
        "params": {
          "_admins": "the addresses to make admins"
        }
      },
      "execute(address[],uint256[],bytes[])": {
        "params": {
          "_calldatas": "array of transaction calldata bytes",
          "_targets": "the array of addresses to call",
          "_values": "array of Ether amounts for each transaction"
        }
      },
      "owner()": {
        "details": "Returns the address of the current owner."
      },
      "pendingOwner()": {
        "details": "Returns the address of the pending owner."
      },
      "registerProject(address,bytes,address,bytes)": {
        "params": {
          "_artwork": "the address of the Artwork contract",
          "_artworkData": "data to pass to setup function of the Artwork contract",
          "_traits": "the address of the Traits contract",
          "_traitsData": "data to pass to setup function of the Traits contract"
        }
      },
      "removeAdmins(address[])": {
        "params": {
          "_admins": "the addresses remove from being admins"
        }
      },
      "renounceOwnership()": {
        "details": "Leaves the contract without owner. It will not be possible to call `onlyOwner` functions anymore. Can only be called by the current owner. NOTE: Renouncing ownership will leave the contract without an owner, thereby removing any functionality that is only available to the owner."
      },
      "transferOwnership(address)": {
        "details": "Starts the ownership transfer of the contract to a new account. Replaces the pending transfer if there is one. Can only be called by the current owner."
      },
      "updateBaseURI(string)": {
        "params": {
          "_baseURI": "the updated base URI string"
        }
      }
    },
    "stateVariables": {
      "baseURI": {
        "return": "the base URI string",
        "returns": {
          "_0": "the base URI string"
        }
      }
    },
    "version": 1
  },
  "userdoc": {
    "kind": "user",
    "methods": {
      "addAdmins(address[])": {
        "notice": "Adds multiple addresses to be made admins"
      },
      "baseURI()": {
        "notice": "Returns the base URI string"
      },
      "execute(address[],uint256[],bytes[])": {
        "notice": "Executes an arbitrary number of external function calls"
      },
      "registerProject(address,bytes,address,bytes)": {
        "notice": "Registers a project by storing the Artwork and Traits contract addresses, and calls setup on both contracts with the corresponding bytes data"
      },
      "removeAdmins(address[])": {
        "notice": "Removes multiple addresses from being admins"
      },
      "updateBaseURI(string)": {
        "notice": "Updates the URI base string"
      }
    },
    "notice": "Provides functionality for registering the Traits and Artwork contract addresses for each project",
    "version": 1
  },
  "storageLayout": {
    "storage": [
      {
        "astId": 7,
        "contract": "contracts/ProjectRegistry.sol:ProjectRegistry",
        "label": "_owner",
        "offset": 0,
        "slot": "0",
        "type": "t_address"
      },
      {
        "astId": 120,
        "contract": "contracts/ProjectRegistry.sol:ProjectRegistry",
        "label": "_pendingOwner",
        "offset": 0,
        "slot": "1",
        "type": "t_address"
      },
      {
        "astId": 6371,
        "contract": "contracts/ProjectRegistry.sol:ProjectRegistry",
        "label": "projectCount",
        "offset": 0,
        "slot": "2",
        "type": "t_uint256"
      },
      {
        "astId": 6373,
        "contract": "contracts/ProjectRegistry.sol:ProjectRegistry",
        "label": "baseURI",
        "offset": 0,
        "slot": "3",
        "type": "t_string_storage"
      },
      {
        "astId": 6377,
        "contract": "contracts/ProjectRegistry.sol:ProjectRegistry",
        "label": "admins",
        "offset": 0,
        "slot": "4",
        "type": "t_mapping(t_address,t_bool)"
      },
      {
        "astId": 6382,
        "contract": "contracts/ProjectRegistry.sol:ProjectRegistry",
        "label": "projects",
        "offset": 0,
        "slot": "5",
        "type": "t_mapping(t_uint256,t_struct(Project)8296_storage)"
      }
    ],
    "types": {
      "t_address": {
        "encoding": "inplace",
        "label": "address",
        "numberOfBytes": "20"
      },
      "t_bool": {
        "encoding": "inplace",
        "label": "bool",
        "numberOfBytes": "1"
      },
      "t_mapping(t_address,t_bool)": {
        "encoding": "mapping",
        "key": "t_address",
        "label": "mapping(address => bool)",
        "numberOfBytes": "32",
        "value": "t_bool"
      },
      "t_mapping(t_uint256,t_struct(Project)8296_storage)": {
        "encoding": "mapping",
        "key": "t_uint256",
        "label": "mapping(uint256 => struct IProjectRegistry.Project)",
        "numberOfBytes": "32",
        "value": "t_struct(Project)8296_storage"
      },
      "t_string_storage": {
        "encoding": "bytes",
        "label": "string",
        "numberOfBytes": "32"
      },
      "t_struct(Project)8296_storage": {
        "encoding": "inplace",
        "label": "struct IProjectRegistry.Project",
        "members": [
          {
            "astId": 8293,
            "contract": "contracts/ProjectRegistry.sol:ProjectRegistry",
            "label": "artwork",
            "offset": 0,
            "slot": "0",
            "type": "t_address"
          },
          {
            "astId": 8295,
            "contract": "contracts/ProjectRegistry.sol:ProjectRegistry",
            "label": "traits",
            "offset": 0,
            "slot": "1",
            "type": "t_address"
          }
        ],
        "numberOfBytes": "64"
      },
      "t_uint256": {
        "encoding": "inplace",
        "label": "uint256",
        "numberOfBytes": "32"
      }
    }
  }
}