{
  "address": "0x348C5f7460E38761D11821c04D84006648EcA2ec",
  "abi": [
    {
      "inputs": [
        {
          "internalType": "address",
          "name": "_owner",
          "type": "address"
        },
        {
          "internalType": "address[]",
          "name": "_admins",
          "type": "address[]"
        },
        {
          "internalType": "string",
          "name": "_baseURI",
          "type": "string"
        }
      ],
      "stateMutability": "nonpayable",
      "type": "constructor"
    },
    {
      "inputs": [],
      "name": "InvalidAddress",
      "type": "error"
    },
    {
      "inputs": [],
      "name": "InvalidArrayLengths",
      "type": "error"
    },
    {
      "inputs": [],
      "name": "OnlyAdmin",
      "type": "error"
    },
    {
      "inputs": [],
      "name": "OnlyDeregisterLastProject",
      "type": "error"
    },
    {
      "anonymous": false,
      "inputs": [
        {
          "indexed": true,
          "internalType": "address",
          "name": "account",
          "type": "address"
        }
      ],
      "name": "AdminAdded",
      "type": "event"
    },
    {
      "anonymous": false,
      "inputs": [
        {
          "indexed": true,
          "internalType": "address",
          "name": "account",
          "type": "address"
        }
      ],
      "name": "AdminRemoved",
      "type": "event"
    },
    {
      "anonymous": false,
      "inputs": [
        {
          "indexed": false,
          "internalType": "string",
          "name": "baseURI",
          "type": "string"
        }
      ],
      "name": "BaseURIUpdated",
      "type": "event"
    },
    {
      "anonymous": false,
      "inputs": [
        {
          "indexed": true,
          "internalType": "address",
          "name": "previousOwner",
          "type": "address"
        },
        {
          "indexed": true,
          "internalType": "address",
          "name": "newOwner",
          "type": "address"
        }
      ],
      "name": "OwnershipTransferStarted",
      "type": "event"
    },
    {
      "anonymous": false,
      "inputs": [
        {
          "indexed": true,
          "internalType": "address",
          "name": "previousOwner",
          "type": "address"
        },
        {
          "indexed": true,
          "internalType": "address",
          "name": "newOwner",
          "type": "address"
        }
      ],
      "name": "OwnershipTransferred",
      "type": "event"
    },
    {
      "anonymous": false,
      "inputs": [
        {
          "indexed": true,
          "internalType": "uint256",
          "name": "projectId",
          "type": "uint256"
        }
      ],
      "name": "ProjectDeregistered",
      "type": "event"
    },
    {
      "anonymous": false,
      "inputs": [
        {
          "indexed": true,
          "internalType": "uint256",
          "name": "projectId",
          "type": "uint256"
        },
        {
          "indexed": true,
          "internalType": "address",
          "name": "artwork",
          "type": "address"
        },
        {
          "indexed": true,
          "internalType": "address",
          "name": "traits",
          "type": "address"
        }
      ],
      "name": "ProjectRegistered",
      "type": "event"
    },
    {
      "inputs": [],
      "name": "acceptOwnership",
      "outputs": [],
      "stateMutability": "nonpayable",
      "type": "function"
    },
    {
      "inputs": [
        {
          "internalType": "address[]",
          "name": "_admins",
          "type": "address[]"
        }
      ],
      "name": "addAdmins",
      "outputs": [],
      "stateMutability": "nonpayable",
      "type": "function"
    },
    {
      "inputs": [
        {
          "internalType": "address",
          "name": "",
          "type": "address"
        }
      ],
      "name": "admins",
      "outputs": [
        {
          "internalType": "bool",
          "name": "",
          "type": "bool"
        }
      ],
      "stateMutability": "view",
      "type": "function"
    },
    {
      "inputs": [],
      "name": "baseURI",
      "outputs": [
        {
          "internalType": "string",
          "name": "",
          "type": "string"
        }
      ],
      "stateMutability": "view",
      "type": "function"
    },
    {
      "inputs": [
        {
          "internalType": "uint256",
          "name": "_projectId",
          "type": "uint256"
        }
      ],
      "name": "deregisterProject",
      "outputs": [],
      "stateMutability": "nonpayable",
      "type": "function"
    },
    {
      "inputs": [
        {
          "internalType": "address[]",
          "name": "_targets",
          "type": "address[]"
        },
        {
          "internalType": "uint256[]",
          "name": "_values",
          "type": "uint256[]"
        },
        {
          "internalType": "bytes[]",
          "name": "_calldatas",
          "type": "bytes[]"
        }
      ],
      "name": "execute",
      "outputs": [],
      "stateMutability": "nonpayable",
      "type": "function"
    },
    {
      "inputs": [],
      "name": "owner",
      "outputs": [
        {
          "internalType": "address",
          "name": "",
          "type": "address"
        }
      ],
      "stateMutability": "view",
      "type": "function"
    },
    {
      "inputs": [],
      "name": "pendingOwner",
      "outputs": [
        {
          "internalType": "address",
          "name": "",
          "type": "address"
        }
      ],
      "stateMutability": "view",
      "type": "function"
    },
    {
      "inputs": [],
      "name": "projectCount",
      "outputs": [
        {
          "internalType": "uint256",
          "name": "",
          "type": "uint256"
        }
      ],
      "stateMutability": "view",
      "type": "function"
    },
    {
      "inputs": [
        {
          "internalType": "uint256",
          "name": "",
          "type": "uint256"
        }
      ],
      "name": "projects",
      "outputs": [
        {
          "internalType": "address",
          "name": "artwork",
          "type": "address"
        },
        {
          "internalType": "address",
          "name": "traits",
          "type": "address"
        }
      ],
      "stateMutability": "view",
      "type": "function"
    },
    {
      "inputs": [
        {
          "internalType": "address",
          "name": "_artwork",
          "type": "address"
        },
        {
          "internalType": "bytes",
          "name": "_artworkData",
          "type": "bytes"
        },
        {
          "internalType": "address",
          "name": "_traits",
          "type": "address"
        },
        {
          "internalType": "bytes",
          "name": "_traitsData",
          "type": "bytes"
        }
      ],
      "name": "registerProject",
      "outputs": [],
      "stateMutability": "nonpayable",
      "type": "function"
    },
    {
      "inputs": [
        {
          "internalType": "address[]",
          "name": "_admins",
          "type": "address[]"
        }
      ],
      "name": "removeAdmins",
      "outputs": [],
      "stateMutability": "nonpayable",
      "type": "function"
    },
    {
      "inputs": [],
      "name": "renounceOwnership",
      "outputs": [],
      "stateMutability": "nonpayable",
      "type": "function"
    },
    {
      "inputs": [
        {
          "internalType": "address",
          "name": "newOwner",
          "type": "address"
        }
      ],
      "name": "transferOwnership",
      "outputs": [],
      "stateMutability": "nonpayable",
      "type": "function"
    },
    {
      "inputs": [
        {
          "internalType": "string",
          "name": "_baseURI",
          "type": "string"
        }
      ],
      "name": "updateBaseURI",
      "outputs": [],
      "stateMutability": "nonpayable",
      "type": "function"
    }
  ],
  "transactionHash": "0xcf9a76e42572b0c9a1b1b456e1a4a0450386cbb1684da9de76741ce6de5a0c30",
  "args": [
    "0x6bd62FeB486Bf699Ac04eD6DC09dE36D11720509",
    [
      "0x6bd62FeB486Bf699Ac04eD6DC09dE36D11720509"
    ],
    "https://base-sepolia-api.intrinsic.art/"
  ],
  "numDeployments": 1,
  "solcInputHash": "1bee7751f3ca71a0dd596fbfa28066de",
  "bytecode": "0x60806040523480156200001157600080fd5b506040516200179638038062001796833981016040819052620000349162000294565b6200003f336200006d565b6200004a836200006d565b62000055826200008b565b600362000063828262000418565b50505050620004fa565b600180546001600160a01b0319169055620000888162000151565b50565b60005b81518110156200014d57600160046000848481518110620000b357620000b3620004e4565b60200260200101516001600160a01b03166001600160a01b0316815260200190815260200160002060006101000a81548160ff021916908315150217905550818181518110620001075762000107620004e4565b60200260200101516001600160a01b03167f44d6d25963f097ad14f29f06854a01f575648a1ef82f30e562ccd3889717e33960405160405180910390a26001016200008e565b5050565b600080546001600160a01b038381166001600160a01b0319831681178455604051919092169283917f8be0079c531659141344cd1fd0a4f28419497f9722a3daafe3b4186f6b6457e09190a35050565b80516001600160a01b0381168114620001b957600080fd5b919050565b634e487b7160e01b600052604160045260246000fd5b604051601f8201601f191681016001600160401b0381118282101715620001ff57620001ff620001be565b604052919050565b600082601f8301126200021957600080fd5b81516001600160401b03811115620002355762000235620001be565b60206200024b601f8301601f19168201620001d4565b82815285828487010111156200026057600080fd5b60005b838110156200028057858101830151828201840152820162000263565b506000928101909101919091529392505050565b600080600060608486031215620002aa57600080fd5b620002b584620001a1565b602085810151919450906001600160401b0380821115620002d557600080fd5b818701915087601f830112620002ea57600080fd5b815181811115620002ff57620002ff620001be565b8060051b62000310858201620001d4565b918252838101850191858101908b8411156200032b57600080fd5b948601945b8386101562000354576200034486620001a1565b8252948601949086019062000330565b60408b01519098509550505050808311156200036f57600080fd5b50506200037f8682870162000207565b9150509250925092565b600181811c908216806200039e57607f821691505b602082108103620003bf57634e487b7160e01b600052602260045260246000fd5b50919050565b601f8211156200041357600081815260208120601f850160051c81016020861015620003ee5750805b601f850160051c820191505b818110156200040f57828155600101620003fa565b5050505b505050565b81516001600160401b03811115620004345762000434620001be565b6200044c8162000445845462000389565b84620003c5565b602080601f8311600181146200048457600084156200046b5750858301515b600019600386901b1c1916600185901b1785556200040f565b600085815260208120601f198616915b82811015620004b55788860151825594840194600190910190840162000494565b5085821015620004d45787850151600019600388901b60f8161c191681555b5050505050600190811b01905550565b634e487b7160e01b600052603260045260246000fd5b61128c806200050a6000396000f3fe608060405234801561001057600080fd5b50600436106100f55760003560e01c806379ba509711610097578063a516a5bf11610066578063a516a5bf14610235578063d19d475214610248578063e30c39781461025b578063f2fde38b1461026c57600080fd5b806379ba5097146101e25780638da5cb5b146101ea578063931688cb1461020f5780639c54df641461022257600080fd5b8063377e11e0116100d3578063377e11e01461017f578063429b62e5146101925780636c0360eb146101c5578063715018a6146101da57600080fd5b8063107046bd146100fa578063309820931461015357806336fbad2614610168575b600080fd5b61012e610108366004610c5a565b600560205260009081526040902080546001909101546001600160a01b03918216911682565b604080516001600160a01b039384168152929091166020830152015b60405180910390f35b610166610161366004610c5a565b61027f565b005b61017160025481565b60405190815260200161014a565b61016661018d366004610cd6565b610421565b6101b56101a0366004610d83565b60046020526000908152604090205460ff1681565b604051901515815260200161014a565b6101cd610435565b60405161014a9190610d9e565b6101666104c3565b6101666104d7565b6000546001600160a01b03165b6040516001600160a01b03909116815260200161014a565b61016661021d366004610dec565b610567565b610166610230366004610cd6565b6105de565b610166610243366004610ecd565b6105ef565b610166610256366004610fa9565b61078c565b6001546001600160a01b03166101f7565b61016661027a366004610d83565b610964565b3360009081526004602052604090205460ff166102af57604051634755657960e01b815260040160405180910390fd5b60025481146102ea576040517f15e44efe00000000000000000000000000000000000000000000000000000000815260040160405180910390fd5b600081815260056020526040808220548151630ea8a1af60e41b815291516001600160a01b039091169263ea8a1af0926004808201939182900301818387803b15801561033657600080fd5b505af115801561034a573d6000803e3d6000fd5b505050600082815260056020526040808220600101548151630ea8a1af60e41b815291516001600160a01b03909116935063ea8a1af09260048084019391929182900301818387803b15801561039f57600080fd5b505af11580156103b3573d6000803e3d6000fd5b50505060008281526005602052604080822080546001600160a01b03199081168255600190910180549091169055518392507f08ac9aae7f731214c7527e47e95c67ff8264e61889819f5d850a7f577e2b0c259190a26002805490600061041983611041565b919050555050565b6104296109d5565b61043281610a2f565b50565b6003805461044290611058565b80601f016020809104026020016040519081016040528092919081815260200182805461046e90611058565b80156104bb5780601f10610490576101008083540402835291602001916104bb565b820191906000526020600020905b81548152906001019060200180831161049e57829003601f168201915b505050505081565b6104cb6109d5565b6104d56000610aed565b565b60015433906001600160a01b0316811461055e5760405162461bcd60e51b815260206004820152602960248201527f4f776e61626c6532537465703a2063616c6c6572206973206e6f74207468652060448201527f6e6577206f776e6572000000000000000000000000000000000000000000000060648201526084015b60405180910390fd5b61043281610aed565b3360009081526004602052604090205460ff1661059757604051634755657960e01b815260040160405180910390fd5b60036105a382826110e1565b507f6741b2fc379fad678116fe3d4d4b9a1a184ab53ba36b86ad0fa66340b1ab41ad816040516105d39190610d9e565b60405180910390a150565b6105e66109d5565b61043281610b06565b3360009081526004602052604090205460ff1661061f57604051634755657960e01b815260040160405180910390fd5b848314158061062e5750848114155b15610665576040517fa9854bc900000000000000000000000000000000000000000000000000000000815260040160405180910390fd5b60408051808201909152601e81527f50726f6a65637452656769737472793a2063616c6c2072657665727465640000602082015260005b86811015610782576000808989848181106106b9576106b96111a1565b90506020020160208101906106ce9190610d83565b6001600160a01b03168888858181106106e9576106e96111a1565b90506020020135878786818110610702576107026111a1565b905060200281019061071491906111b7565b6040516107229291906111fe565b60006040518083038185875af1925050503d806000811461075f576040519150601f19603f3d011682016040523d82523d6000602084013e610764565b606091505b5091509150610774828286610bc0565b50826001019250505061069c565b5050505050505050565b3360009081526004602052604090205460ff166107bc57604051634755657960e01b815260040160405180910390fd5b6001600160a01b03861615806107d957506001600160a01b038316155b15610810576040517fe6c4247b00000000000000000000000000000000000000000000000000000000815260040160405180910390fd5b600280549060006108208361120e565b90915550506002805460009081526005602052604080822080546001600160a01b03199081166001600160a01b038c8116918217909355945484529282902060010180549093169087161790915551639ded06df60e01b8152639ded06df9061088f9088908890600401611227565b600060405180830381600087803b1580156108a957600080fd5b505af11580156108bd573d6000803e3d6000fd5b5050604051639ded06df60e01b81526001600160a01b0386169250639ded06df91506108ef9085908590600401611227565b600060405180830381600087803b15801561090957600080fd5b505af115801561091d573d6000803e3d6000fd5b50506002546040516001600160a01b0380881694508a1692507f7024d444707bcd36a8b0a076e120d984b0f8431dc1aa0513f728193d34a630dd90600090a4505050505050565b61096c6109d5565b600180546001600160a01b0383166001600160a01b0319909116811790915561099d6000546001600160a01b031690565b6001600160a01b03167f38d16b8cac22d99fc7c124b9cd0de2d3fa1faef420bfe791d8c362d765e2270060405160405180910390a350565b6000546001600160a01b031633146104d55760405162461bcd60e51b815260206004820181905260248201527f4f776e61626c653a2063616c6c6572206973206e6f7420746865206f776e65726044820152606401610555565b60005b8151811015610ae957600060046000848481518110610a5357610a536111a1565b60200260200101516001600160a01b03166001600160a01b0316815260200190815260200160002060006101000a81548160ff021916908315150217905550818181518110610aa457610aa46111a1565b60200260200101516001600160a01b03167fa3b62bc36326052d97ea62d63c3d60308ed4c3ea8ac079dd8499f1e9c4f80c0f60405160405180910390a2600101610a32565b5050565b600180546001600160a01b031916905561043281610be0565b60005b8151811015610ae957600160046000848481518110610b2a57610b2a6111a1565b60200260200101516001600160a01b03166001600160a01b0316815260200190815260200160002060006101000a81548160ff021916908315150217905550818181518110610b7b57610b7b6111a1565b60200260200101516001600160a01b03167f44d6d25963f097ad14f29f06854a01f575648a1ef82f30e562ccd3889717e33960405160405180910390a2600101610b09565b60608315610bcf575081610bd9565b610bd98383610c30565b9392505050565b600080546001600160a01b038381166001600160a01b0319831681178455604051919092169283917f8be0079c531659141344cd1fd0a4f28419497f9722a3daafe3b4186f6b6457e09190a35050565b815115610c405781518083602001fd5b8060405162461bcd60e51b81526004016105559190610d9e565b600060208284031215610c6c57600080fd5b5035919050565b634e487b7160e01b600052604160045260246000fd5b604051601f8201601f1916810167ffffffffffffffff81118282101715610cb257610cb2610c73565b604052919050565b80356001600160a01b0381168114610cd157600080fd5b919050565b60006020808385031215610ce957600080fd5b823567ffffffffffffffff80821115610d0157600080fd5b818501915085601f830112610d1557600080fd5b813581811115610d2757610d27610c73565b8060051b9150610d38848301610c89565b8181529183018401918481019088841115610d5257600080fd5b938501935b83851015610d7757610d6885610cba565b82529385019390850190610d57565b98975050505050505050565b600060208284031215610d9557600080fd5b610bd982610cba565b600060208083528351808285015260005b81811015610dcb57858101830151858201604001528201610daf565b506000604082860101526040601f19601f8301168501019250505092915050565b60006020808385031215610dff57600080fd5b823567ffffffffffffffff80821115610e1757600080fd5b818501915085601f830112610e2b57600080fd5b813581811115610e3d57610e3d610c73565b610e4f601f8201601f19168501610c89565b91508082528684828501011115610e6557600080fd5b8084840185840137600090820190930192909252509392505050565b60008083601f840112610e9357600080fd5b50813567ffffffffffffffff811115610eab57600080fd5b6020830191508360208260051b8501011115610ec657600080fd5b9250929050565b60008060008060008060608789031215610ee657600080fd5b863567ffffffffffffffff80821115610efe57600080fd5b610f0a8a838b01610e81565b90985096506020890135915080821115610f2357600080fd5b610f2f8a838b01610e81565b90965094506040890135915080821115610f4857600080fd5b50610f5589828a01610e81565b979a9699509497509295939492505050565b60008083601f840112610f7957600080fd5b50813567ffffffffffffffff811115610f9157600080fd5b602083019150836020828501011115610ec657600080fd5b60008060008060008060808789031215610fc257600080fd5b610fcb87610cba565b9550602087013567ffffffffffffffff80821115610fe857600080fd5b610ff48a838b01610f67565b909750955085915061100860408a01610cba565b9450606089013591508082111561101e57600080fd5b50610f5589828a01610f67565b634e487b7160e01b600052601160045260246000fd5b6000816110505761105061102b565b506000190190565b600181811c9082168061106c57607f821691505b60208210810361108c57634e487b7160e01b600052602260045260246000fd5b50919050565b601f8211156110dc57600081815260208120601f850160051c810160208610156110b95750805b601f850160051c820191505b818110156110d8578281556001016110c5565b5050505b505050565b815167ffffffffffffffff8111156110fb576110fb610c73565b61110f816111098454611058565b84611092565b602080601f831160018114611144576000841561112c5750858301515b600019600386901b1c1916600185901b1785556110d8565b600085815260208120601f198616915b8281101561117357888601518255948401946001909101908401611154565b50858210156111915787850151600019600388901b60f8161c191681555b5050505050600190811b01905550565b634e487b7160e01b600052603260045260246000fd5b6000808335601e198436030181126111ce57600080fd5b83018035915067ffffffffffffffff8211156111e957600080fd5b602001915036819003821315610ec657600080fd5b8183823760009101908152919050565b6000600182016112205761122061102b565b5060010190565b60208152816020820152818360408301376000818301604090810191909152601f909201601f1916010191905056fea2646970667358221220da3070bcfdce3ea64a2e7b7abf772e5d62d88928e4a778dbd596e5f6c92fe09964736f6c63430008130033",
  "devdoc": {
    "kind": "dev",
    "methods": {
      "acceptOwnership()": {
        "details": "The new owner accepts the ownership transfer."
      },
      "addAdmins(address[])": {
        "params": {
          "_admins": "the addresses to make admins"
        }
      },
      "deregisterProject(uint256)": {
        "params": {
          "_projectId": "the ID of the project"
        }
      },
      "execute(address[],uint256[],bytes[])": {
        "params": {
          "_calldatas": "array of transaction calldata bytes",
          "_targets": "the array of addresses to call",
          "_values": "array of Ether amounts for each transaction"
        }
      },
      "owner()": {
        "details": "Returns the address of the current owner."
      },
      "pendingOwner()": {
        "details": "Returns the address of the pending owner."
      },
      "registerProject(address,bytes,address,bytes)": {
        "params": {
          "_artwork": "the address of the Artwork contract",
          "_artworkData": "data to pass to setup function of the Artwork contract",
          "_traits": "the address of the Traits contract",
          "_traitsData": "data to pass to setup function of the Traits contract"
        }
      },
      "removeAdmins(address[])": {
        "params": {
          "_admins": "the addresses remove from being admins"
        }
      },
      "renounceOwnership()": {
        "details": "Leaves the contract without owner. It will not be possible to call `onlyOwner` functions anymore. Can only be called by the current owner. NOTE: Renouncing ownership will leave the contract without an owner, thereby removing any functionality that is only available to the owner."
      },
      "transferOwnership(address)": {
        "details": "Starts the ownership transfer of the contract to a new account. Replaces the pending transfer if there is one. Can only be called by the current owner."
      },
      "updateBaseURI(string)": {
        "params": {
          "_baseURI": "the updated base URI string"
        }
      }
    },
    "stateVariables": {
      "baseURI": {
        "return": "the base URI string",
        "returns": {
          "_0": "the base URI string"
        }
      }
    },
    "version": 1
  },
  "userdoc": {
    "kind": "user",
    "methods": {
      "addAdmins(address[])": {
        "notice": "Adds multiple addresses to be made admins"
      },
      "baseURI()": {
        "notice": "Returns the base URI string"
      },
      "deregisterProject(uint256)": {
        "notice": "Deregisters a project and zeroes out the addresses in the project mapping Will revert if called after a projects auction has started"
      },
      "execute(address[],uint256[],bytes[])": {
        "notice": "Executes an arbitrary number of external function calls"
      },
      "registerProject(address,bytes,address,bytes)": {
        "notice": "Registers a project by storing the Artwork and Traits contract addresses, and calls setup on both contracts with the corresponding bytes data"
      },
      "removeAdmins(address[])": {
        "notice": "Removes multiple addresses from being admins"
      },
      "updateBaseURI(string)": {
        "notice": "Updates the URI base string"
      }
    },
    "notice": "Provides functionality for registering the Traits and Artwork contract addresses for each project",
    "version": 1
  },
  "storageLayout": {
    "storage": [
      {
        "astId": 7,
        "contract": "contracts/ProjectRegistry.sol:ProjectRegistry",
        "label": "_owner",
        "offset": 0,
        "slot": "0",
        "type": "t_address"
      },
      {
        "astId": 120,
        "contract": "contracts/ProjectRegistry.sol:ProjectRegistry",
        "label": "_pendingOwner",
        "offset": 0,
        "slot": "1",
        "type": "t_address"
      },
      {
        "astId": 5469,
        "contract": "contracts/ProjectRegistry.sol:ProjectRegistry",
        "label": "projectCount",
        "offset": 0,
        "slot": "2",
        "type": "t_uint256"
      },
      {
        "astId": 5471,
        "contract": "contracts/ProjectRegistry.sol:ProjectRegistry",
        "label": "baseURI",
        "offset": 0,
        "slot": "3",
        "type": "t_string_storage"
      },
      {
        "astId": 5475,
        "contract": "contracts/ProjectRegistry.sol:ProjectRegistry",
        "label": "admins",
        "offset": 0,
        "slot": "4",
        "type": "t_mapping(t_address,t_bool)"
      },
      {
        "astId": 5480,
        "contract": "contracts/ProjectRegistry.sol:ProjectRegistry",
        "label": "projects",
        "offset": 0,
        "slot": "5",
        "type": "t_mapping(t_uint256,t_struct(Project)7375_storage)"
      }
    ],
    "types": {
      "t_address": {
        "encoding": "inplace",
        "label": "address",
        "numberOfBytes": "20"
      },
      "t_bool": {
        "encoding": "inplace",
        "label": "bool",
        "numberOfBytes": "1"
      },
      "t_mapping(t_address,t_bool)": {
        "encoding": "mapping",
        "key": "t_address",
        "label": "mapping(address => bool)",
        "numberOfBytes": "32",
        "value": "t_bool"
      },
      "t_mapping(t_uint256,t_struct(Project)7375_storage)": {
        "encoding": "mapping",
        "key": "t_uint256",
        "label": "mapping(uint256 => struct IProjectRegistry.Project)",
        "numberOfBytes": "32",
        "value": "t_struct(Project)7375_storage"
      },
      "t_string_storage": {
        "encoding": "bytes",
        "label": "string",
        "numberOfBytes": "32"
      },
      "t_struct(Project)7375_storage": {
        "encoding": "inplace",
        "label": "struct IProjectRegistry.Project",
        "members": [
          {
            "astId": 7372,
            "contract": "contracts/ProjectRegistry.sol:ProjectRegistry",
            "label": "artwork",
            "offset": 0,
            "slot": "0",
            "type": "t_address"
          },
          {
            "astId": 7374,
            "contract": "contracts/ProjectRegistry.sol:ProjectRegistry",
            "label": "traits",
            "offset": 0,
            "slot": "1",
            "type": "t_address"
          }
        ],
        "numberOfBytes": "64"
      },
      "t_uint256": {
        "encoding": "inplace",
        "label": "uint256",
        "numberOfBytes": "32"
      }
    }
  }
}