{
  "address": "0x656db0EF185D866918Ab6a594064E6972CDB9514",
  "abi": [
    {
      "inputs": [
        {
          "internalType": "string",
          "name": "_name",
          "type": "string"
        },
        {
          "internalType": "string",
          "name": "_symbol",
          "type": "string"
        },
        {
          "internalType": "address",
          "name": "_artistAddress",
          "type": "address"
        },
        {
          "internalType": "address",
          "name": "_projectRegistry",
          "type": "address"
        },
        {
          "internalType": "uint96",
          "name": "_royaltyFeeNumerator",
          "type": "uint96"
        },
        {
          "internalType": "address[]",
          "name": "_royaltyPayees",
          "type": "address[]"
        },
        {
          "internalType": "uint256[]",
          "name": "_royaltyShares",
          "type": "uint256[]"
        },
        {
          "components": [
            {
              "internalType": "uint8",
              "name": "stringStorageSlot",
              "type": "uint8"
            },
            {
              "internalType": "address",
              "name": "stringStorageAddress",
              "type": "address"
            }
          ],
          "internalType": "struct IArtwork.StringStorageData",
          "name": "_metadataJSONStringStorage",
          "type": "tuple"
        },
        {
          "components": [
            {
              "internalType": "uint8",
              "name": "stringStorageSlot",
              "type": "uint8"
            },
            {
              "internalType": "address",
              "name": "stringStorageAddress",
              "type": "address"
            }
          ],
          "internalType": "struct IArtwork.StringStorageData",
          "name": "_scriptStringStorage",
          "type": "tuple"
        }
      ],
      "stateMutability": "nonpayable",
      "type": "constructor"
    },
    {
      "inputs": [],
      "name": "AlreadySetup",
      "type": "error"
    },
    {
      "inputs": [],
      "name": "AuctionIsLive",
      "type": "error"
    },
    {
      "inputs": [],
      "name": "DuplicatePayee",
      "type": "error"
    },
    {
      "inputs": [],
      "name": "InvalidArrayLengths",
      "type": "error"
    },
    {
      "inputs": [],
      "name": "NoPayees",
      "type": "error"
    },
    {
      "inputs": [],
      "name": "NoPaymentDue",
      "type": "error"
    },
    {
      "inputs": [],
      "name": "NoShares",
      "type": "error"
    },
    {
      "inputs": [],
      "name": "NoWhitelistMints",
      "type": "error"
    },
    {
      "inputs": [],
      "name": "OnlyArtist",
      "type": "error"
    },
    {
      "inputs": [],
      "name": "OnlyArtistOrProjectRegistry",
      "type": "error"
    },
    {
      "inputs": [],
      "name": "OnlyArtworkOwner",
      "type": "error"
    },
    {
      "inputs": [],
      "name": "OnlyProjectRegistry",
      "type": "error"
    },
    {
      "inputs": [],
      "name": "ProofAlreadyMinted",
      "type": "error"
    },
    {
      "inputs": [],
      "name": "TraitsAlreadySet",
      "type": "error"
    },
    {
      "inputs": [],
      "name": "TraitsNotSet",
      "type": "error"
    },
    {
      "inputs": [],
      "name": "WhitelistStartTime",
      "type": "error"
    },
    {
      "inputs": [],
      "name": "ZeroAddress",
      "type": "error"
    },
    {
      "inputs": [],
      "name": "ZeroShares",
      "type": "error"
    },
    {
      "anonymous": false,
      "inputs": [
        {
          "indexed": true,
          "internalType": "address",
          "name": "owner",
          "type": "address"
        },
        {
          "indexed": true,
          "internalType": "address",
          "name": "approved",
          "type": "address"
        },
        {
          "indexed": true,
          "internalType": "uint256",
          "name": "tokenId",
          "type": "uint256"
        }
      ],
      "name": "Approval",
      "type": "event"
    },
    {
      "anonymous": false,
      "inputs": [
        {
          "indexed": true,
          "internalType": "address",
          "name": "owner",
          "type": "address"
        },
        {
          "indexed": true,
          "internalType": "address",
          "name": "operator",
          "type": "address"
        },
        {
          "indexed": false,
          "internalType": "bool",
          "name": "approved",
          "type": "bool"
        }
      ],
      "name": "ApprovalForAll",
      "type": "event"
    },
    {
      "anonymous": false,
      "inputs": [
        {
          "indexed": true,
          "internalType": "uint256",
          "name": "artworkTokenId",
          "type": "uint256"
        },
        {
          "indexed": false,
          "internalType": "uint256[]",
          "name": "traitTokenIds",
          "type": "uint256[]"
        },
        {
          "indexed": false,
          "internalType": "bytes32",
          "name": "hash",
          "type": "bytes32"
        },
        {
          "indexed": true,
          "internalType": "address",
          "name": "creator",
          "type": "address"
        }
      ],
      "name": "ArtworkMinted",
      "type": "event"
    },
    {
      "anonymous": false,
      "inputs": [
        {
          "indexed": true,
          "internalType": "contract IERC20",
          "name": "token",
          "type": "address"
        },
        {
          "indexed": false,
          "internalType": "address",
          "name": "to",
          "type": "address"
        },
        {
          "indexed": false,
          "internalType": "uint256",
          "name": "amount",
          "type": "uint256"
        }
      ],
      "name": "ERC20PaymentReleased",
      "type": "event"
    },
    {
      "anonymous": false,
      "inputs": [
        {
          "indexed": false,
          "internalType": "address",
          "name": "account",
          "type": "address"
        },
        {
          "indexed": false,
          "internalType": "uint256",
          "name": "shares",
          "type": "uint256"
        }
      ],
      "name": "PayeeAdded",
      "type": "event"
    },
    {
      "anonymous": false,
      "inputs": [
        {
          "indexed": false,
          "internalType": "address",
          "name": "to",
          "type": "address"
        },
        {
          "indexed": false,
          "internalType": "uint256",
          "name": "amount",
          "type": "uint256"
        }
      ],
      "name": "PaymentReleased",
      "type": "event"
    },
    {
      "anonymous": false,
      "inputs": [
        {
          "indexed": true,
          "internalType": "uint256",
          "name": "tokenId",
          "type": "uint256"
        },
        {
          "indexed": true,
          "internalType": "address",
          "name": "caller",
          "type": "address"
        }
      ],
      "name": "ProofArtworkMinted",
      "type": "event"
    },
    {
      "anonymous": false,
      "inputs": [
        {
          "indexed": true,
          "internalType": "uint256",
          "name": "artworkTokenId",
          "type": "uint256"
        },
        {
          "indexed": true,
          "internalType": "address",
          "name": "caller",
          "type": "address"
        }
      ],
      "name": "TraitsReclaimed",
      "type": "event"
    },
    {
      "anonymous": false,
      "inputs": [
        {
          "indexed": true,
          "internalType": "address",
          "name": "from",
          "type": "address"
        },
        {
          "indexed": true,
          "internalType": "address",
          "name": "to",
          "type": "address"
        },
        {
          "indexed": true,
          "internalType": "uint256",
          "name": "tokenId",
          "type": "uint256"
        }
      ],
      "name": "Transfer",
      "type": "event"
    },
    {
      "anonymous": false,
      "inputs": [
        {
          "indexed": true,
          "internalType": "uint256",
          "name": "tokenId",
          "type": "uint256"
        },
        {
          "indexed": true,
          "internalType": "address",
          "name": "caller",
          "type": "address"
        }
      ],
      "name": "WhitelistArtworkMinted",
      "type": "event"
    },
    {
      "anonymous": false,
      "inputs": [
        {
          "indexed": false,
          "internalType": "uint256",
          "name": "whitelistStartTime",
          "type": "uint256"
        },
        {
          "indexed": false,
          "internalType": "address[]",
          "name": "whitelistAddresses",
          "type": "address[]"
        },
        {
          "indexed": false,
          "internalType": "uint256[]",
          "name": "whitelistAmounts",
          "type": "uint256[]"
        }
      ],
      "name": "WhitelistUpdated",
      "type": "event"
    },
    {
      "inputs": [],
      "name": "VERSION",
      "outputs": [
        {
          "internalType": "string",
          "name": "",
          "type": "string"
        }
      ],
      "stateMutability": "view",
      "type": "function"
    },
    {
      "inputs": [
        {
          "internalType": "address",
          "name": "to",
          "type": "address"
        },
        {
          "internalType": "uint256",
          "name": "tokenId",
          "type": "uint256"
        }
      ],
      "name": "approve",
      "outputs": [],
      "stateMutability": "nonpayable",
      "type": "function"
    },
    {
      "inputs": [],
      "name": "artistAddress",
      "outputs": [
        {
          "internalType": "address",
          "name": "",
          "type": "address"
        }
      ],
      "stateMutability": "view",
      "type": "function"
    },
    {
      "inputs": [
        {
          "internalType": "uint256",
          "name": "_artworkTokenId",
          "type": "uint256"
        }
      ],
      "name": "artwork",
      "outputs": [
        {
          "internalType": "uint256[]",
          "name": "_traitTokenIds",
          "type": "uint256[]"
        },
        {
          "internalType": "string[]",
          "name": "_traitNames",
          "type": "string[]"
        },
        {
          "internalType": "string[]",
          "name": "_traitValues",
          "type": "string[]"
        },
        {
          "internalType": "string[]",
          "name": "_traitTypeNames",
          "type": "string[]"
        },
        {
          "internalType": "string[]",
          "name": "_traitTypeValues",
          "type": "string[]"
        },
        {
          "internalType": "bytes32",
          "name": "_hash",
          "type": "bytes32"
        }
      ],
      "stateMutability": "view",
      "type": "function"
    },
    {
      "inputs": [
        {
          "internalType": "address",
          "name": "owner",
          "type": "address"
        }
      ],
      "name": "balanceOf",
      "outputs": [
        {
          "internalType": "uint256",
          "name": "",
          "type": "uint256"
        }
      ],
      "stateMutability": "view",
      "type": "function"
    },
    {
      "inputs": [
        {
          "internalType": "uint256",
          "name": "tokenId",
          "type": "uint256"
        }
      ],
      "name": "getApproved",
      "outputs": [
        {
          "internalType": "address",
          "name": "",
          "type": "address"
        }
      ],
      "stateMutability": "view",
      "type": "function"
    },
    {
      "inputs": [
        {
          "internalType": "address",
          "name": "owner",
          "type": "address"
        },
        {
          "internalType": "address",
          "name": "operator",
          "type": "address"
        }
      ],
      "name": "isApprovedForAll",
      "outputs": [
        {
          "internalType": "bool",
          "name": "",
          "type": "bool"
        }
      ],
      "stateMutability": "view",
      "type": "function"
    },
    {
      "inputs": [],
      "name": "metadataJSON",
      "outputs": [
        {
          "internalType": "string",
          "name": "",
          "type": "string"
        }
      ],
      "stateMutability": "view",
      "type": "function"
    },
    {
      "inputs": [],
      "name": "metadataJSONStringStorage",
      "outputs": [
        {
          "internalType": "uint8",
          "name": "stringStorageSlot",
          "type": "uint8"
        },
        {
          "internalType": "address",
          "name": "stringStorageAddress",
          "type": "address"
        }
      ],
      "stateMutability": "view",
      "type": "function"
    },
    {
      "inputs": [
        {
          "internalType": "uint256[]",
          "name": "_traitTokenIds",
          "type": "uint256[]"
        },
        {
          "internalType": "uint256",
          "name": "_saltNonce",
          "type": "uint256"
        }
      ],
      "name": "mintArtwork",
      "outputs": [
        {
          "internalType": "uint256",
          "name": "_artworkTokenId",
          "type": "uint256"
        }
      ],
      "stateMutability": "nonpayable",
      "type": "function"
    },
    {
      "inputs": [
        {
          "internalType": "uint256[]",
          "name": "_traitTokenIds",
          "type": "uint256[]"
        },
        {
          "internalType": "uint256",
          "name": "_saltNonce",
          "type": "uint256"
        }
      ],
      "name": "mintArtworkProof",
      "outputs": [],
      "stateMutability": "nonpayable",
      "type": "function"
    },
    {
      "inputs": [
        {
          "internalType": "uint256[]",
          "name": "_traitTokenIds",
          "type": "uint256[]"
        },
        {
          "internalType": "uint256",
          "name": "_saltNonce",
          "type": "uint256"
        }
      ],
      "name": "mintArtworkWhitelist",
      "outputs": [],
      "stateMutability": "nonpayable",
      "type": "function"
    },
    {
      "inputs": [
        {
          "internalType": "uint256[]",
          "name": "_traitTokenIdsToBuy",
          "type": "uint256[]"
        },
        {
          "internalType": "uint256[]",
          "name": "_traitAmountsToBuy",
          "type": "uint256[]"
        },
        {
          "internalType": "uint256[]",
          "name": "_traitTokenIdsToCreateArtwork",
          "type": "uint256[]"
        },
        {
          "internalType": "uint256",
          "name": "_saltNonce",
          "type": "uint256"
        }
      ],
      "name": "mintTraitsAndArtwork",
      "outputs": [],
      "stateMutability": "payable",
      "type": "function"
    },
    {
      "inputs": [],
      "name": "name",
      "outputs": [
        {
          "internalType": "string",
          "name": "",
          "type": "string"
        }
      ],
      "stateMutability": "view",
      "type": "function"
    },
    {
      "inputs": [],
      "name": "nextTokenId",
      "outputs": [
        {
          "internalType": "uint256",
          "name": "",
          "type": "uint256"
        }
      ],
      "stateMutability": "view",
      "type": "function"
    },
    {
      "inputs": [
        {
          "internalType": "address",
          "name": "",
          "type": "address"
        },
        {
          "internalType": "address",
          "name": "",
          "type": "address"
        },
        {
          "internalType": "uint256[]",
          "name": "",
          "type": "uint256[]"
        },
        {
          "internalType": "uint256[]",
          "name": "",
          "type": "uint256[]"
        },
        {
          "internalType": "bytes",
          "name": "",
          "type": "bytes"
        }
      ],
      "name": "onERC1155BatchReceived",
      "outputs": [
        {
          "internalType": "bytes4",
          "name": "",
          "type": "bytes4"
        }
      ],
      "stateMutability": "nonpayable",
      "type": "function"
    },
    {
      "inputs": [
        {
          "internalType": "address",
          "name": "",
          "type": "address"
        },
        {
          "internalType": "address",
          "name": "",
          "type": "address"
        },
        {
          "internalType": "uint256",
          "name": "",
          "type": "uint256"
        },
        {
          "internalType": "uint256",
          "name": "",
          "type": "uint256"
        },
        {
          "internalType": "bytes",
          "name": "",
          "type": "bytes"
        }
      ],
      "name": "onERC1155Received",
      "outputs": [
        {
          "internalType": "bytes4",
          "name": "",
          "type": "bytes4"
        }
      ],
      "stateMutability": "nonpayable",
      "type": "function"
    },
    {
      "inputs": [
        {
          "internalType": "uint256",
          "name": "tokenId",
          "type": "uint256"
        }
      ],
      "name": "ownerOf",
      "outputs": [
        {
          "internalType": "address",
          "name": "",
          "type": "address"
        }
      ],
      "stateMutability": "view",
      "type": "function"
    },
    {
      "inputs": [
        {
          "internalType": "uint256",
          "name": "index",
          "type": "uint256"
        }
      ],
      "name": "payee",
      "outputs": [
        {
          "internalType": "address",
          "name": "",
          "type": "address"
        }
      ],
      "stateMutability": "view",
      "type": "function"
    },
    {
      "inputs": [],
      "name": "payees",
      "outputs": [
        {
          "internalType": "address[]",
          "name": "payees_",
          "type": "address[]"
        },
        {
          "internalType": "uint256[]",
          "name": "shares_",
          "type": "uint256[]"
        }
      ],
      "stateMutability": "view",
      "type": "function"
    },
    {
      "inputs": [],
      "name": "projectRegistry",
      "outputs": [
        {
          "internalType": "contract IProjectRegistry",
          "name": "",
          "type": "address"
        }
      ],
      "stateMutability": "view",
      "type": "function"
    },
    {
      "inputs": [],
      "name": "proofMinted",
      "outputs": [
        {
          "internalType": "bool",
          "name": "",
          "type": "bool"
        }
      ],
      "stateMutability": "view",
      "type": "function"
    },
    {
      "inputs": [
        {
          "internalType": "uint256",
          "name": "_artworkTokenId",
          "type": "uint256"
        }
      ],
      "name": "reclaimTraits",
      "outputs": [],
      "stateMutability": "nonpayable",
      "type": "function"
    },
    {
      "inputs": [
        {
          "internalType": "contract IERC20",
          "name": "token",
          "type": "address"
        },
        {
          "internalType": "address",
          "name": "account",
          "type": "address"
        }
      ],
      "name": "releasableERC20",
      "outputs": [
        {
          "internalType": "uint256",
          "name": "",
          "type": "uint256"
        }
      ],
      "stateMutability": "view",
      "type": "function"
    },
    {
      "inputs": [
        {
          "internalType": "address",
          "name": "account",
          "type": "address"
        }
      ],
      "name": "releasableETH",
      "outputs": [
        {
          "internalType": "uint256",
          "name": "",
          "type": "uint256"
        }
      ],
      "stateMutability": "view",
      "type": "function"
    },
    {
      "inputs": [
        {
          "internalType": "contract IERC20",
          "name": "token",
          "type": "address"
        }
      ],
      "name": "releaseERC20",
      "outputs": [],
      "stateMutability": "nonpayable",
      "type": "function"
    },
    {
      "inputs": [],
      "name": "releaseETH",
      "outputs": [],
      "stateMutability": "nonpayable",
      "type": "function"
    },
    {
      "inputs": [
        {
          "internalType": "contract IERC20",
          "name": "token",
          "type": "address"
        },
        {
          "internalType": "address",
          "name": "account",
          "type": "address"
        }
      ],
      "name": "releasedERC20",
      "outputs": [
        {
          "internalType": "uint256",
          "name": "",
          "type": "uint256"
        }
      ],
      "stateMutability": "view",
      "type": "function"
    },
    {
      "inputs": [
        {
          "internalType": "address",
          "name": "account",
          "type": "address"
        }
      ],
      "name": "releasedETH",
      "outputs": [
        {
          "internalType": "uint256",
          "name": "",
          "type": "uint256"
        }
      ],
      "stateMutability": "view",
      "type": "function"
    },
    {
      "inputs": [
        {
          "internalType": "uint256",
          "name": "_tokenId",
          "type": "uint256"
        },
        {
          "internalType": "uint256",
          "name": "_salePrice",
          "type": "uint256"
        }
      ],
      "name": "royaltyInfo",
      "outputs": [
        {
          "internalType": "address",
          "name": "",
          "type": "address"
        },
        {
          "internalType": "uint256",
          "name": "",
          "type": "uint256"
        }
      ],
      "stateMutability": "view",
      "type": "function"
    },
    {
      "inputs": [
        {
          "internalType": "address",
          "name": "from",
          "type": "address"
        },
        {
          "internalType": "address",
          "name": "to",
          "type": "address"
        },
        {
          "internalType": "uint256",
          "name": "tokenId",
          "type": "uint256"
        }
      ],
      "name": "safeTransferFrom",
      "outputs": [],
      "stateMutability": "nonpayable",
      "type": "function"
    },
    {
      "inputs": [
        {
          "internalType": "address",
          "name": "from",
          "type": "address"
        },
        {
          "internalType": "address",
          "name": "to",
          "type": "address"
        },
        {
          "internalType": "uint256",
          "name": "tokenId",
          "type": "uint256"
        },
        {
          "internalType": "bytes",
          "name": "data",
          "type": "bytes"
        }
      ],
      "name": "safeTransferFrom",
      "outputs": [],
      "stateMutability": "nonpayable",
      "type": "function"
    },
    {
      "inputs": [],
      "name": "script",
      "outputs": [
        {
          "internalType": "string",
          "name": "",
          "type": "string"
        }
      ],
      "stateMutability": "view",
      "type": "function"
    },
    {
      "inputs": [],
      "name": "scriptStringStorage",
      "outputs": [
        {
          "internalType": "uint8",
          "name": "stringStorageSlot",
          "type": "uint8"
        },
        {
          "internalType": "address",
          "name": "stringStorageAddress",
          "type": "address"
        }
      ],
      "stateMutability": "view",
      "type": "function"
    },
    {
      "inputs": [
        {
          "internalType": "address",
          "name": "operator",
          "type": "address"
        },
        {
          "internalType": "bool",
          "name": "approved",
          "type": "bool"
        }
      ],
      "name": "setApprovalForAll",
      "outputs": [],
      "stateMutability": "nonpayable",
      "type": "function"
    },
    {
      "inputs": [
        {
          "internalType": "bytes",
          "name": "_data",
          "type": "bytes"
        }
      ],
      "name": "setup",
      "outputs": [],
      "stateMutability": "nonpayable",
      "type": "function"
    },
    {
      "inputs": [
        {
          "internalType": "address",
          "name": "account",
          "type": "address"
        }
      ],
      "name": "shares",
      "outputs": [
        {
          "internalType": "uint256",
          "name": "",
          "type": "uint256"
        }
      ],
      "stateMutability": "view",
      "type": "function"
    },
    {
      "inputs": [
        {
          "internalType": "bytes4",
          "name": "interfaceId",
          "type": "bytes4"
        }
      ],
      "name": "supportsInterface",
      "outputs": [
        {
          "internalType": "bool",
          "name": "",
          "type": "bool"
        }
      ],
      "stateMutability": "view",
      "type": "function"
    },
    {
      "inputs": [],
      "name": "symbol",
      "outputs": [
        {
          "internalType": "string",
          "name": "",
          "type": "string"
        }
      ],
      "stateMutability": "view",
      "type": "function"
    },
    {
      "inputs": [
        {
          "internalType": "uint256",
          "name": "_tokenId",
          "type": "uint256"
        }
      ],
      "name": "tokenURI",
      "outputs": [
        {
          "internalType": "string",
          "name": "",
          "type": "string"
        }
      ],
      "stateMutability": "view",
      "type": "function"
    },
    {
      "inputs": [
        {
          "internalType": "contract IERC20",
          "name": "token",
          "type": "address"
        }
      ],
      "name": "totalReleasedERC20",
      "outputs": [
        {
          "internalType": "uint256",
          "name": "",
          "type": "uint256"
        }
      ],
      "stateMutability": "view",
      "type": "function"
    },
    {
      "inputs": [],
      "name": "totalReleasedETH",
      "outputs": [
        {
          "internalType": "uint256",
          "name": "",
          "type": "uint256"
        }
      ],
      "stateMutability": "view",
      "type": "function"
    },
    {
      "inputs": [],
      "name": "totalShares",
      "outputs": [
        {
          "internalType": "uint256",
          "name": "",
          "type": "uint256"
        }
      ],
      "stateMutability": "view",
      "type": "function"
    },
    {
      "inputs": [],
      "name": "traits",
      "outputs": [
        {
          "internalType": "contract ITraits",
          "name": "",
          "type": "address"
        }
      ],
      "stateMutability": "view",
      "type": "function"
    },
    {
      "inputs": [
        {
          "internalType": "address",
          "name": "from",
          "type": "address"
        },
        {
          "internalType": "address",
          "name": "to",
          "type": "address"
        },
        {
          "internalType": "uint256",
          "name": "tokenId",
          "type": "uint256"
        }
      ],
      "name": "transferFrom",
      "outputs": [],
      "stateMutability": "nonpayable",
      "type": "function"
    },
    {
      "inputs": [
        {
          "internalType": "uint256",
          "name": "_whitelistStartTime",
          "type": "uint256"
        },
        {
          "internalType": "address[]",
          "name": "_whitelistAddresses",
          "type": "address[]"
        },
        {
          "internalType": "uint256[]",
          "name": "_whitelistAmounts",
          "type": "uint256[]"
        }
      ],
      "name": "updateWhitelist",
      "outputs": [],
      "stateMutability": "nonpayable",
      "type": "function"
    },
    {
      "inputs": [
        {
          "internalType": "address",
          "name": "_user",
          "type": "address"
        }
      ],
      "name": "userNonce",
      "outputs": [
        {
          "internalType": "uint256",
          "name": "",
          "type": "uint256"
        }
      ],
      "stateMutability": "view",
      "type": "function"
    },
    {
      "inputs": [
        {
          "internalType": "address",
          "name": "",
          "type": "address"
        }
      ],
      "name": "whitelistMintsRemaining",
      "outputs": [
        {
          "internalType": "uint256",
          "name": "",
          "type": "uint256"
        }
      ],
      "stateMutability": "view",
      "type": "function"
    },
    {
      "inputs": [],
      "name": "whitelistStartTime",
      "outputs": [
        {
          "internalType": "uint256",
          "name": "",
          "type": "uint256"
        }
      ],
      "stateMutability": "view",
      "type": "function"
    },
    {
      "stateMutability": "payable",
      "type": "receive"
    }
  ],
  "transactionHash": "0xd067058c57b77834399a20c7edd93bbe845ff8827049f8307c7b3bcb7a492107",
  "args": [
    "Metta",
    "METTA",
    "0xA6a4Fe416F8Bf46bc3bCA068aC8b1fC4DF760653",
    "0x05d7Df02474940ab60d4f267fCd5EBb3989eb803",
    "750",
    [
      "0xA6a4Fe416F8Bf46bc3bCA068aC8b1fC4DF760653",
      "0xAa9D46AE079851116967c6573f961B304095C34a"
    ],
    [
      "500",
      "250"
    ],
    {
      "stringStorageSlot": 0,
      "stringStorageAddress": "0xF08F85E9DbD355eed92b8521AB069e4ec61b99aA"
    },
    {
      "stringStorageSlot": 1,
      "stringStorageAddress": "0xF08F85E9DbD355eed92b8521AB069e4ec61b99aA"
    }
  ],
  "numDeployments": 1,
  "solcInputHash": "b683675f8419b8a01ad0d5d026eab275",
  "bytecode": "0x60806040523480156200001157600080fd5b5060405162004c3338038062004c3383398101604081905262000034916200065d565b83838a8a600262000046838262000805565b50600362000055828262000805565b50505080518251146200007b5760405163a9854bc960e01b815260040160405180910390fd5b81516000036200009e57604051637b21919d60e01b815260040160405180910390fd5b60005b8251811015620000fe57620000f5838281518110620000c457620000c4620008d1565b6020026020010151838381518110620000e157620000e1620008d1565b6020026020010151620001a660201b60201c565b600101620000a1565b5050600f8054610100600160a81b0319166101006001600160a01b038b81169190910291909117909155601080546001600160a01b031916918916919091179055506200014c3086620002db565b8151601380546020948501516001600160a01b039081166101009081026001600160a81b031993841660ff968716171790935584516014805496909701519091169092029316911617179055506200090f95505050505050565b6001600160a01b038216620001ce5760405163d92e233d60e01b815260040160405180910390fd5b80600003620001f057604051639811e0c760e01b815260040160405180910390fd5b6001600160a01b0382166000908152600b60205260409020541562000228576040516307513e0760e21b815260040160405180910390fd5b600a8054600181019091557fc65a7bb8d6351c1cf70c95a316cc6a92839c986682d98bc35f958f4883f9d2a80180546001600160a01b0319166001600160a01b0384169081179091556000908152600b6020526040902081905560085462000292908290620008e7565b600855604080516001600160a01b0384168152602081018390527f40c340f65e17194d14ddddb073d3c9f888e3cb52b5aae0c6c7706b4fbc905fac910160405180910390a15050565b6127106001600160601b03821611156200034f5760405162461bcd60e51b815260206004820152602a60248201527f455243323938313a20726f79616c7479206665652077696c6c206578636565646044820152692073616c65507269636560b01b60648201526084015b60405180910390fd5b6001600160a01b038216620003a75760405162461bcd60e51b815260206004820152601960248201527f455243323938313a20696e76616c696420726563656976657200000000000000604482015260640162000346565b604080518082019091526001600160a01b039092168083526001600160601b039091166020909201829052600160a01b90910217600055565b634e487b7160e01b600052604160045260246000fd5b604051601f8201601f191681016001600160401b0381118282101715620004215762000421620003e0565b604052919050565b600082601f8301126200043b57600080fd5b81516001600160401b03811115620004575762000457620003e0565b60206200046d601f8301601f19168201620003f6565b82815285828487010111156200048257600080fd5b60005b83811015620004a257858101830151828201840152820162000485565b506000928101909101919091529392505050565b80516001600160a01b0381168114620004ce57600080fd5b919050565b80516001600160601b0381168114620004ce57600080fd5b60006001600160401b03821115620005075762000507620003e0565b5060051b60200190565b600082601f8301126200052357600080fd5b815160206200053c6200053683620004eb565b620003f6565b82815260059290921b840181019181810190868411156200055c57600080fd5b8286015b8481101562000582576200057481620004b6565b835291830191830162000560565b509695505050505050565b600082601f8301126200059f57600080fd5b81516020620005b26200053683620004eb565b82815260059290921b84018101918181019086841115620005d257600080fd5b8286015b84811015620005825780518352918301918301620005d6565b6000604082840312156200060257600080fd5b604080519081016001600160401b0381118282101715620006275762000627620003e0565b8060405250809150825160ff811681146200064157600080fd5b81526200065160208401620004b6565b60208201525092915050565b60008060008060008060008060006101608a8c0312156200067d57600080fd5b89516001600160401b03808211156200069557600080fd5b620006a38d838e0162000429565b9a5060208c0151915080821115620006ba57600080fd5b620006c88d838e0162000429565b9950620006d860408d01620004b6565b9850620006e860608d01620004b6565b9750620006f860808d01620004d3565b965060a08c01519150808211156200070f57600080fd5b6200071d8d838e0162000511565b955060c08c01519150808211156200073457600080fd5b50620007438c828d016200058d565b935050620007558b60e08c01620005ef565b9150620007678b6101208c01620005ef565b90509295985092959850929598565b600181811c908216806200078b57607f821691505b602082108103620007ac57634e487b7160e01b600052602260045260246000fd5b50919050565b601f8211156200080057600081815260208120601f850160051c81016020861015620007db5750805b601f850160051c820191505b81811015620007fc57828155600101620007e7565b5050505b505050565b81516001600160401b03811115620008215762000821620003e0565b620008398162000832845462000776565b84620007b2565b602080601f831160018114620008715760008415620008585750858301515b600019600386901b1c1916600185901b178555620007fc565b600085815260208120601f198616915b82811015620008a25788860151825594840194600190910190840162000881565b5085821015620008c15787850151600019600388901b60f8161c191681555b5050505050600190811b01905550565b634e487b7160e01b600052603260045260246000fd5b808201808211156200090957634e487b7160e01b600052601160045260246000fd5b92915050565b614314806200091f6000396000f3fe6080604052600436106103225760003560e01c806370a08231116101a5578063c87b56dd116100ec578063e985e9c511610095578063f4e95c6b1161006f578063f4e95c6b14610a27578063fbb4010414610a3c578063ffa1ad7414610a5c578063ffc1613a14610aa557600080fd5b8063e985e9c514610984578063ebe9eb9f146109cd578063f23a6e61146109e257600080fd5b8063d2f4e60f116100c6578063d2f4e60f14610909578063d7eb3f3a1461093f578063e1fc334f1461096457600080fd5b8063c87b56dd1461086d578063cdd9ac381461088d578063ce7c2ac2146108d357600080fd5b806395d89b411161014e578063a22cb46511610128578063a22cb465146107cf578063b88d4fde146107ef578063bc197c811461080f57600080fd5b806395d89b41146107805780639ded06df14610795578063a1ee0544146107b557600080fd5b806384bba6a61161017f57806384bba6a6146107355780638b83209b1461074a5780639292caaf1461076a57600080fd5b806370a08231146106df57806375794a3c146106ff578063820042aa1461071557600080fd5b806342842e0e116102695780635dcb49c5116102125780636639016b116101ec5780636639016b1461069757806368ae2546146106ac5780636f7e674d146106cc57600080fd5b80635dcb49c51461062d5780636352211e146106575780636548a7621461067757600080fd5b80634e8086aa116102435780634e8086aa146105b857806354682d72146105db5780635a33d8dc1461060d57600080fd5b806342842e0e146105585780634408536514610578578063466bc0571461059857600080fd5b806323b872dd116102cb5780632a55205a116102a55780632a55205a146104ce5780632e04b8e71461050d5780633a98ef391461054357600080fd5b806323b872dd146104435780632437abfa14610463578063287987231461048357600080fd5b806308fd8493116102fc57806308fd8493146103bd578063095ea7b3146103df57806319766c48146103ff57600080fd5b806301ffc9a71461032e57806306fdde0314610363578063081812fc1461038557600080fd5b3661032957005b600080fd5b34801561033a57600080fd5b5061034e610349366004613565565b610ad2565b60405190151581526020015b60405180910390f35b34801561036f57600080fd5b50610378610b16565b60405161035a91906135d2565b34801561039157600080fd5b506103a56103a03660046135e5565b610ba8565b6040516001600160a01b03909116815260200161035a565b3480156103c957600080fd5b506103dd6103d83660046135e5565b610bcf565b005b3480156103eb57600080fd5b506103dd6103fa366004613613565b610e23565b34801561040b57600080fd5b5061043561041a36600461363f565b6001600160a01b03166000908152600d602052604090205490565b60405190815260200161035a565b34801561044f57600080fd5b506103dd61045e36600461365c565b610f59565b34801561046f57600080fd5b506103dd61047e36600461363f565b610fd0565b34801561048f57600080fd5b506014546104ad9060ff81169061010090046001600160a01b031682565b6040805160ff90931683526001600160a01b0390911660208301520161035a565b3480156104da57600080fd5b506104ee6104e936600461369d565b6110d9565b604080516001600160a01b03909316835260208301919091520161035a565b34801561051957600080fd5b5061043561052836600461363f565b6001600160a01b031660009081526017602052604090205490565b34801561054f57600080fd5b50600854610435565b34801561056457600080fd5b506103dd61057336600461365c565b611196565b34801561058457600080fd5b506103dd610593366004613704565b6111b1565b3480156105a457600080fd5b506104356105b3366004613750565b6112fe565b3480156105c457600080fd5b506105cd6113e7565b60405161035a9291906137fd565b3480156105e757600080fd5b506105fb6105f63660046135e5565b611506565b60405161035a96959493929190613880565b34801561061957600080fd5b506010546103a5906001600160a01b031681565b34801561063957600080fd5b506013546104ad9060ff81169061010090046001600160a01b031682565b34801561066357600080fd5b506103a56106723660046135e5565b6117ec565b34801561068357600080fd5b5061043561069236600461363f565b611851565b3480156106a357600080fd5b506103dd611894565b3480156106b857600080fd5b506104356106c7366004613704565b611963565b6103dd6106da3660046138f5565b611b02565b3480156106eb57600080fd5b506104356106fa36600461363f565b611b9c565b34801561070b57600080fd5b5061043560125481565b34801561072157600080fd5b506103dd610730366004613ad2565b611c36565b34801561074157600080fd5b50600954610435565b34801561075657600080fd5b506103a56107653660046135e5565b611d29565b34801561077657600080fd5b5061043560155481565b34801561078c57600080fd5b50610378611d59565b3480156107a157600080fd5b506103dd6107b0366004613b3f565b611d68565b3480156107c157600080fd5b50600f5461034e9060ff1681565b3480156107db57600080fd5b506103dd6107ea366004613bbf565b611e1f565b3480156107fb57600080fd5b506103dd61080a366004613c66565b611e2e565b34801561081b57600080fd5b5061085461082a366004613cd2565b7fbc197c810000000000000000000000000000000000000000000000000000000095945050505050565b6040516001600160e01b0319909116815260200161035a565b34801561087957600080fd5b506103786108883660046135e5565b611eac565b34801561089957600080fd5b506104356108a8366004613750565b6001600160a01b039182166000908152600e6020908152604080832093909416825291909152205490565b3480156108df57600080fd5b506104356108ee36600461363f565b6001600160a01b03166000908152600b602052604090205490565b34801561091557600080fd5b5061043561092436600461363f565b6001600160a01b03166000908152600c602052604090205490565b34801561094b57600080fd5b50600f546103a59061010090046001600160a01b031681565b34801561097057600080fd5b506011546103a5906001600160a01b031681565b34801561099057600080fd5b5061034e61099f366004613750565b6001600160a01b03918216600090815260076020908152604080832093909416825291909152205460ff1690565b3480156109d957600080fd5b50610378611f86565b3480156109ee57600080fd5b506108546109fd366004613d80565b7ff23a6e610000000000000000000000000000000000000000000000000000000095945050505050565b348015610a3357600080fd5b50610378612005565b348015610a4857600080fd5b506103dd610a57366004613704565b61203e565b348015610a6857600080fd5b506103786040518060400160405280600381526020017f312e30000000000000000000000000000000000000000000000000000000000081525081565b348015610ab157600080fd5b50610435610ac036600461363f565b60186020526000908152604090205481565b60006001600160e01b031982167ffc550cad000000000000000000000000000000000000000000000000000000001480610b105750610b1082612193565b92915050565b606060028054610b2590613de9565b80601f0160208091040260200160405190810160405280929190818152602001828054610b5190613de9565b8015610b9e5780601f10610b7357610100808354040283529160200191610b9e565b820191906000526020600020905b815481529060010190602001808311610b8157829003601f168201915b5050505050905090565b6000610bb3826121d1565b506000908152600660205260409020546001600160a01b031690565b6000818152600460205260409020546001600160a01b03163314610c1f576040517f1002a8dd00000000000000000000000000000000000000000000000000000000815260040160405180910390fd5b600081815260166020908152604080832060010180548251818502810185019093528083529192909190830182828015610c7857602002820191906000526020600020905b815481526020019060010190808311610c64575b5050506000858152601660205260408120819055929350610c97915050565b604051908082528060200260200182016040528015610cc0578160200160208202803683370190505b50601660008481526020019081526020016000206001019080519060200190610cea9291906134b4565b506000815167ffffffffffffffff811115610d0757610d07613998565b604051908082528060200260200182016040528015610d30578160200160208202803683370190505b50905060005b8151811015610d66576001828281518110610d5357610d53613e23565b6020908102919091010152600101610d36565b50610d7083612238565b6011546040517f2eb2c2d60000000000000000000000000000000000000000000000000000000081526001600160a01b0390911690632eb2c2d690610dbf903090339087908790600401613e39565b600060405180830381600087803b158015610dd957600080fd5b505af1158015610ded573d6000803e3d6000fd5b50506040513392508591507f3a68f3980ec5280d87be81c5fa8cd81617be9bbf157acbe71d9321dca391e6a890600090a3505050565b6000610e2e826117ec565b9050806001600160a01b0316836001600160a01b031603610ebc5760405162461bcd60e51b815260206004820152602160248201527f4552433732313a20617070726f76616c20746f2063757272656e74206f776e6560448201527f720000000000000000000000000000000000000000000000000000000000000060648201526084015b60405180910390fd5b336001600160a01b0382161480610ed85750610ed8813361099f565b610f4a5760405162461bcd60e51b815260206004820152603d60248201527f4552433732313a20617070726f76652063616c6c6572206973206e6f7420746f60448201527f6b656e206f776e6572206f7220617070726f76656420666f7220616c6c0000006064820152608401610eb3565b610f5483836122db565b505050565b610f633382612349565b610fc55760405162461bcd60e51b815260206004820152602d60248201527f4552433732313a2063616c6c6572206973206e6f7420746f6b656e206f776e6560448201526c1c881bdc88185c1c1c9bdd9959609a1b6064820152608401610eb3565b610f548383836123c7565b336000908152600b60205260408120549003610fff5760405163b317087b60e01b815260040160405180910390fd5b600061100b82336112fe565b90508060000361102e5760405163589b68c960e01b815260040160405180910390fd5b6001600160a01b0382166000908152600d602052604081208054839290611056908490613eaa565b90915550506001600160a01b0382166000908152600e60209081526040808320338085529252909120805483019055611091908390836125cd565b60408051338152602081018390526001600160a01b038416917f3be5b7a71e84ed12875d241991c70855ac5817d847039e17a9d895c1ceb0f18a910160405180910390a25050565b60008281526001602090815260408083208151808301909252546001600160a01b038116808352600160a01b9091046bffffffffffffffffffffffff169282019290925282916111585750604080518082019091526000546001600160a01b0381168252600160a01b90046bffffffffffffffffffffffff1660208201525b60208101516000906127109061117c906bffffffffffffffffffffffff1687613ebd565b6111869190613ed4565b91519350909150505b9250929050565b610f5483838360405180602001604052806000815250611e2e565b6015544210156111ed576040517f0ad21f0100000000000000000000000000000000000000000000000000000000815260040160405180910390fd5b336000908152601860205260408120549003611235576040517f52a14acc00000000000000000000000000000000000000000000000000000000815260040160405180910390fd5b33600090815260186020526040812080549161125083613ef6565b9091555050601154604051630f512fe360e41b81526001600160a01b039091169063f512fe309061128990339087908790600401613f58565b600060405180830381600087803b1580156112a357600080fd5b505af11580156112b7573d6000803e3d6000fd5b5050505060006112c8848484611963565b604051909150339082907f25f077b95d0a6da5ca8514e48fced92d2e9975e1efafa3bb33d1417bdb335c5990600090a350505050565b6001600160a01b0382166000908152600d602052604081205481906040517f70a082310000000000000000000000000000000000000000000000000000000081523060048201526001600160a01b038616906370a0823190602401602060405180830381865afa158015611376573d6000803e3d6000fd5b505050506040513d601f19601f8201168201806040525081019061139a9190613f7b565b6113a49190613eaa565b6001600160a01b038086166000908152600e60209081526040808320938816835292905220549091506113df908490839061264d565b61264d565b949350505050565b606080600a80548060200260200160405190810160405280929190818152602001828054801561144057602002820191906000526020600020905b81546001600160a01b03168152600190910190602001808311611422575b5050600a54939550839250505067ffffffffffffffff81111561146557611465613998565b60405190808252806020026020018201604052801561148e578160200160208202803683370190505b50915060005b8181101561150057600b60008583815181106114b2576114b2613e23565b60200260200101516001600160a01b03166001600160a01b03168152602001908152602001600020548382815181106114ed576114ed613e23565b6020908102919091010152600101611494565b50509091565b60608060608060606000611519876121d1565b60008781526016602090815260409182902060010180548351818402810184019094528084529291839083018282801561157257602002820191906000526020600020905b81548152602001906001019080831161155e575b505050505096508067ffffffffffffffff81111561159257611592613998565b6040519080825280602002602001820160405280156115c557816020015b60608152602001906001900390816115b05790505b5095508067ffffffffffffffff8111156115e1576115e1613998565b60405190808252806020026020018201604052801561161457816020015b60608152602001906001900390816115ff5790505b5094508067ffffffffffffffff81111561163057611630613998565b60405190808252806020026020018201604052801561166357816020015b606081526020019060019003908161164e5790505b5093508067ffffffffffffffff81111561167f5761167f613998565b6040519080825280602002602001820160405280156116b257816020015b606081526020019060019003908161169d5790505b50925060005b818110156117cf5760115488516001600160a01b039091169063f3457fdf908a90849081106116e9576116e9613e23565b60200260200101516040518263ffffffff1660e01b815260040161170f91815260200190565b600060405180830381865afa15801561172c573d6000803e3d6000fd5b505050506040513d6000823e601f3d908101601f191682016040526117549190810190613fd9565b8a858151811061176657611766613e23565b602002602001018a868151811061177f5761177f613e23565b602002602001018a878151811061179857611798613e23565b602002602001018a88815181106117b1576117b1613e23565b602090810291909101019390935292909152919052526001016116b8565b505050600095865260166020526040909520549395929491939092565b6000818152600460205260408120546001600160a01b031680610b105760405162461bcd60e51b815260206004820152601860248201527f4552433732313a20696e76616c696420746f6b656e20494400000000000000006044820152606401610eb3565b60008061185d60095490565b6118679047613eaa565b905061188d83826113da866001600160a01b03166000908152600c602052604090205490565b9392505050565b336000908152600b602052604081205490036118c35760405163b317087b60e01b815260040160405180910390fd5b60006118ce33611851565b9050806000036118f15760405163589b68c960e01b815260040160405180910390fd5b80600960008282546119039190613eaa565b9091555050336000818152600c60205260409020805483019055611927908261268b565b60408051338152602081018390527fdf20fd1e76bc69d672e4814fafb2c449bba3a5369d8359adf9e05e6fde87b056910160405180910390a150565b336000818152601760209081526040808320549051929384936119ba93309391889101606094851b6bffffffffffffffffffffffff1990811682529390941b90921660148401526028830152604882015260680190565b60408051601f1981840301815291905280516020909101206012805491925060006119e48361407a565b909155506000818152601660205260409020828155909250611a0a9060010186866134ff565b50336000908152601760205260408120805491611a268361407a565b90915550506011546040517f37b2383f0000000000000000000000000000000000000000000000000000000081526001600160a01b03909116906337b2383f90611a7890339089908990600401613f58565b600060405180830381600087803b158015611a9257600080fd5b505af1158015611aa6573d6000803e3d6000fd5b50505050611ab433836127a4565b336001600160a01b0316827f61e13485a36a1bab49bdef2c6884595827c2f5caf9160aff3047f78fae8d01e9878785604051611af293929190614093565b60405180910390a3509392505050565b6011546040517f5bf1af440000000000000000000000000000000000000000000000000000000081526001600160a01b0390911690635bf1af44903490611b559033908c908c908c908c906004016140b7565b6000604051808303818588803b158015611b6e57600080fd5b505af1158015611b82573d6000803e3d6000fd5b5050505050611b92838383611963565b5050505050505050565b60006001600160a01b038216611c1a5760405162461bcd60e51b815260206004820152602960248201527f4552433732313a2061646472657373207a65726f206973206e6f74206120766160448201527f6c6964206f776e657200000000000000000000000000000000000000000000006064820152608401610eb3565b506001600160a01b031660009081526005602052604090205490565b6010546001600160a01b03163314611c6157604051630b35571f60e21b815260040160405180910390fd5b601154604080517feb54f9ec000000000000000000000000000000000000000000000000000000008152905142926001600160a01b03169163eb54f9ec9160048083019260209291908290030181865afa158015611cc3573d6000803e3d6000fd5b505050506040513d601f19601f82011682018060405250810190611ce79190613f7b565b11611d1e576040517f6fce86a800000000000000000000000000000000000000000000000000000000815260040160405180910390fd5b610f548383836127be565b6000600a8281548110611d3e57611d3e613e23565b6000918252602090912001546001600160a01b031692915050565b606060038054610b2590613de9565b6010546001600160a01b03163314611d9357604051630b35571f60e21b815260040160405180910390fd5b6011546001600160a01b031615611dd6576040517f7735869100000000000000000000000000000000000000000000000000000000815260040160405180910390fd5b6000808080611de7858701876140f9565b601180546001600160a01b0319166001600160a01b03861617905592965090945092509050611e178383836127be565b505050505050565b611e2a3383836128a7565b5050565b611e383383612349565b611e9a5760405162461bcd60e51b815260206004820152602d60248201527f4552433732313a2063616c6c6572206973206e6f7420746f6b656e206f776e6560448201526c1c881bdc88185c1c1c9bdd9959609a1b6064820152608401610eb3565b611ea684848484612975565b50505050565b60606000601060009054906101000a90046001600160a01b03166001600160a01b0316636c0360eb6040518163ffffffff1660e01b8152600401600060405180830381865afa158015611f03573d6000803e3d6000fd5b505050506040513d6000823e601f3d908101601f19168201604052611f2b919081019061416d565b90508051600003611f4b576040518060200160405280600081525061188d565b80611f55306129f3565b611f5e85612a09565b604051602001611f70939291906141a2565b6040516020818303038152906040529392505050565b60145460405163181957f960e21b815260ff8216600482015260609161010090046001600160a01b0316906360655fe4906024015b600060405180830381865afa158015611fd8573d6000803e3d6000fd5b505050506040513d6000823e601f3d908101601f19168201604052612000919081019061416d565b905090565b60135460405163181957f960e21b815260ff8216600482015260609161010090046001600160a01b0316906360655fe490602401611fbb565b600f5460ff161561207b576040517f4f05cdd500000000000000000000000000000000000000000000000000000000815260040160405180910390fd5b600f5461010090046001600160a01b031633148015906120a657506010546001600160a01b03163314155b156120dd576040517f3ec0dfc600000000000000000000000000000000000000000000000000000000815260040160405180910390fd5b600f805460ff19166001179055601154604051630f512fe360e41b81526001600160a01b039091169063f512fe309061211e90339087908790600401613f58565b600060405180830381600087803b15801561213857600080fd5b505af115801561214c573d6000803e3d6000fd5b50505050600061215d848484611963565b604051909150339082907f7a2cdd235113f89f2624bfbea5174a8f5d8340424b1e1bab1c66079b6a69649290600090a350505050565b60006001600160e01b031982167f4e2312e0000000000000000000000000000000000000000000000000000000001480610b105750610b1082612aa9565b6000818152600460205260409020546001600160a01b03166122355760405162461bcd60e51b815260206004820152601860248201527f4552433732313a20696e76616c696420746f6b656e20494400000000000000006044820152606401610eb3565b50565b6000612243826117ec565b9050612253816000846001612b1b565b61225c826117ec565b600083815260066020908152604080832080546001600160a01b03199081169091556001600160a01b0385168085526005845282852080546000190190558785526004909352818420805490911690555192935084927fddf252ad1be2c89b69c2b068fc378daa952ba7f163c4a11628f55a4df523b3ef908390a45050565b600081815260066020526040902080546001600160a01b0319166001600160a01b0384169081179091558190612310826117ec565b6001600160a01b03167f8c5be1e5ebec7d5bd14f71427d1e84f3dd0314c0f7b2291e5b200ac8c7c3b92560405160405180910390a45050565b600080612355836117ec565b9050806001600160a01b0316846001600160a01b0316148061239c57506001600160a01b0380821660009081526007602090815260408083209388168352929052205460ff165b806113df5750836001600160a01b03166123b584610ba8565b6001600160a01b031614949350505050565b826001600160a01b03166123da826117ec565b6001600160a01b03161461243e5760405162461bcd60e51b815260206004820152602560248201527f4552433732313a207472616e736665722066726f6d20696e636f72726563742060448201526437bbb732b960d91b6064820152608401610eb3565b6001600160a01b0382166124b95760405162461bcd60e51b8152602060048201526024808201527f4552433732313a207472616e7366657220746f20746865207a65726f2061646460448201527f72657373000000000000000000000000000000000000000000000000000000006064820152608401610eb3565b6124c68383836001612b1b565b826001600160a01b03166124d9826117ec565b6001600160a01b03161461253d5760405162461bcd60e51b815260206004820152602560248201527f4552433732313a207472616e736665722066726f6d20696e636f72726563742060448201526437bbb732b960d91b6064820152608401610eb3565b600081815260066020908152604080832080546001600160a01b03199081169091556001600160a01b0387811680865260058552838620805460001901905590871680865283862080546001019055868652600490945282852080549092168417909155905184937fddf252ad1be2c89b69c2b068fc378daa952ba7f163c4a11628f55a4df523b3ef91a4505050565b604080516001600160a01b038416602482015260448082018490528251808303909101815260649091019091526020810180517bffffffffffffffffffffffffffffffffffffffffffffffffffffffff167fa9059cbb00000000000000000000000000000000000000000000000000000000179052610f54908490612ba3565b6008546001600160a01b0384166000908152600b6020526040812054909183916126779086613ebd565b6126819190613ed4565b6113df919061420e565b804710156126db5760405162461bcd60e51b815260206004820152601d60248201527f416464726573733a20696e73756666696369656e742062616c616e63650000006044820152606401610eb3565b6000826001600160a01b03168260405160006040518083038185875af1925050503d8060008114612728576040519150601f19603f3d011682016040523d82523d6000602084013e61272d565b606091505b5050905080610f545760405162461bcd60e51b815260206004820152603a60248201527f416464726573733a20756e61626c6520746f2073656e642076616c75652c207260448201527f6563697069656e74206d617920686176652072657665727465640000000000006064820152608401610eb3565b611e2a828260405180602001604052806000815250612c88565b80518251146127f9576040517fa9854bc900000000000000000000000000000000000000000000000000000000815260040160405180910390fd5b601583905560005b82518110156128665781818151811061281c5761281c613e23565b60200260200101516018600085848151811061283a5761283a613e23565b6020908102919091018101516001600160a01b0316825281019190915260400160002055600101612801565b507f8ff5bb8f2bb6921b8d5aa3dca0c2d14f8b69e4213541990edc835862e5f5780983838360405161289a93929190614221565b60405180910390a1505050565b816001600160a01b0316836001600160a01b0316036129085760405162461bcd60e51b815260206004820152601960248201527f4552433732313a20617070726f766520746f2063616c6c6572000000000000006044820152606401610eb3565b6001600160a01b03838116600081815260076020908152604080832094871680845294825291829020805460ff191686151590811790915591519182527f17307eab39ab6107e8899845ad3d59bd9653f200f220920489ca2b5937696c31910160405180910390a3505050565b6129808484846123c7565b61298c84848484612d06565b611ea65760405162461bcd60e51b815260206004820152603260248201527f4552433732313a207472616e7366657220746f206e6f6e20455243373231526560448201527131b2b4bb32b91034b6b83632b6b2b73a32b960711b6064820152608401610eb3565b6060610b106001600160a01b0383166014612e52565b60606000612a1683613033565b600101905060008167ffffffffffffffff811115612a3657612a36613998565b6040519080825280601f01601f191660200182016040528015612a60576020820181803683370190505b5090508181016020015b600019017f3031323334353637383961626364656600000000000000000000000000000000600a86061a8153600a8504945084612a6a57509392505050565b60006001600160e01b031982167f80ac58cd000000000000000000000000000000000000000000000000000000001480612b0c57506001600160e01b031982167f5b5e139f00000000000000000000000000000000000000000000000000000000145b80610b105750610b1082613115565b6001811115611ea6576001600160a01b03841615612b61576001600160a01b03841660009081526005602052604081208054839290612b5b90849061420e565b90915550505b6001600160a01b03831615611ea6576001600160a01b03831660009081526005602052604081208054839290612b98908490613eaa565b909155505050505050565b6000612bf8826040518060400160405280602081526020017f5361666545524332303a206c6f772d6c6576656c2063616c6c206661696c6564815250856001600160a01b031661317c9092919063ffffffff16565b805190915015610f545780806020019051810190612c169190614256565b610f545760405162461bcd60e51b815260206004820152602a60248201527f5361666545524332303a204552433230206f7065726174696f6e20646964206e60448201527f6f742073756363656564000000000000000000000000000000000000000000006064820152608401610eb3565b612c92838361318b565b612c9f6000848484612d06565b610f545760405162461bcd60e51b815260206004820152603260248201527f4552433732313a207472616e7366657220746f206e6f6e20455243373231526560448201527131b2b4bb32b91034b6b83632b6b2b73a32b960711b6064820152608401610eb3565b60006001600160a01b0384163b15612e4757604051630a85bd0160e11b81526001600160a01b0385169063150b7a0290612d4a903390899088908890600401614273565b6020604051808303816000875af1925050508015612d85575060408051601f3d908101601f19168201909252612d82918101906142a5565b60015b612e2d573d808015612db3576040519150601f19603f3d011682016040523d82523d6000602084013e612db8565b606091505b508051600003612e255760405162461bcd60e51b815260206004820152603260248201527f4552433732313a207472616e7366657220746f206e6f6e20455243373231526560448201527131b2b4bb32b91034b6b83632b6b2b73a32b960711b6064820152608401610eb3565b805181602001fd5b6001600160e01b031916630a85bd0160e11b1490506113df565b506001949350505050565b60606000612e61836002613ebd565b612e6c906002613eaa565b67ffffffffffffffff811115612e8457612e84613998565b6040519080825280601f01601f191660200182016040528015612eae576020820181803683370190505b5090507f300000000000000000000000000000000000000000000000000000000000000081600081518110612ee557612ee5613e23565b60200101906001600160f81b031916908160001a9053507f780000000000000000000000000000000000000000000000000000000000000081600181518110612f3057612f30613e23565b60200101906001600160f81b031916908160001a9053506000612f54846002613ebd565b612f5f906001613eaa565b90505b6001811115612fe4577f303132333435363738396162636465660000000000000000000000000000000085600f1660108110612fa057612fa0613e23565b1a60f81b828281518110612fb657612fb6613e23565b60200101906001600160f81b031916908160001a90535060049490941c93612fdd81613ef6565b9050612f62565b50831561188d5760405162461bcd60e51b815260206004820181905260248201527f537472696e67733a20686578206c656e67746820696e73756666696369656e746044820152606401610eb3565b6000807a184f03e93ff9f4daa797ed6e38ed64bf6a1f010000000000000000831061307c577a184f03e93ff9f4daa797ed6e38ed64bf6a1f010000000000000000830492506040015b6d04ee2d6d415b85acef810000000083106130a8576d04ee2d6d415b85acef8100000000830492506020015b662386f26fc1000083106130c657662386f26fc10000830492506010015b6305f5e10083106130de576305f5e100830492506008015b61271083106130f257612710830492506004015b60648310613104576064830492506002015b600a8310610b105760010192915050565b60006001600160e01b031982167f2a55205a000000000000000000000000000000000000000000000000000000001480610b1057507f01ffc9a7000000000000000000000000000000000000000000000000000000006001600160e01b0319831614610b10565b60606113df8484600085613324565b6001600160a01b0382166131e15760405162461bcd60e51b815260206004820181905260248201527f4552433732313a206d696e7420746f20746865207a65726f20616464726573736044820152606401610eb3565b6000818152600460205260409020546001600160a01b0316156132465760405162461bcd60e51b815260206004820152601c60248201527f4552433732313a20746f6b656e20616c7265616479206d696e746564000000006044820152606401610eb3565b613254600083836001612b1b565b6000818152600460205260409020546001600160a01b0316156132b95760405162461bcd60e51b815260206004820152601c60248201527f4552433732313a20746f6b656e20616c7265616479206d696e746564000000006044820152606401610eb3565b6001600160a01b038216600081815260056020908152604080832080546001019055848352600490915280822080546001600160a01b0319168417905551839291907fddf252ad1be2c89b69c2b068fc378daa952ba7f163c4a11628f55a4df523b3ef908290a45050565b60608247101561339c5760405162461bcd60e51b815260206004820152602660248201527f416464726573733a20696e73756666696369656e742062616c616e636520666f60448201527f722063616c6c00000000000000000000000000000000000000000000000000006064820152608401610eb3565b600080866001600160a01b031685876040516133b891906142c2565b60006040518083038185875af1925050503d80600081146133f5576040519150601f19603f3d011682016040523d82523d6000602084013e6133fa565b606091505b509150915061340b87838387613416565b979650505050505050565b6060831561348557825160000361347e576001600160a01b0385163b61347e5760405162461bcd60e51b815260206004820152601d60248201527f416464726573733a2063616c6c20746f206e6f6e2d636f6e74726163740000006044820152606401610eb3565b50816113df565b6113df838381511561349a5781518083602001fd5b8060405162461bcd60e51b8152600401610eb391906135d2565b8280548282559060005260206000209081019282156134ef579160200282015b828111156134ef5782518255916020019190600101906134d4565b506134fb92915061353a565b5090565b8280548282559060005260206000209081019282156134ef579160200282015b828111156134ef57823582559160200191906001019061351f565b5b808211156134fb576000815560010161353b565b6001600160e01b03198116811461223557600080fd5b60006020828403121561357757600080fd5b813561188d8161354f565b60005b8381101561359d578181015183820152602001613585565b50506000910152565b600081518084526135be816020860160208601613582565b601f01601f19169290920160200192915050565b60208152600061188d60208301846135a6565b6000602082840312156135f757600080fd5b5035919050565b6001600160a01b038116811461223557600080fd5b6000806040838503121561362657600080fd5b8235613631816135fe565b946020939093013593505050565b60006020828403121561365157600080fd5b813561188d816135fe565b60008060006060848603121561367157600080fd5b833561367c816135fe565b9250602084013561368c816135fe565b929592945050506040919091013590565b600080604083850312156136b057600080fd5b50508035926020909101359150565b60008083601f8401126136d157600080fd5b50813567ffffffffffffffff8111156136e957600080fd5b6020830191508360208260051b850101111561118f57600080fd5b60008060006040848603121561371957600080fd5b833567ffffffffffffffff81111561373057600080fd5b61373c868287016136bf565b909790965060209590950135949350505050565b6000806040838503121561376357600080fd5b823561376e816135fe565b9150602083013561377e816135fe565b809150509250929050565b600081518084526020808501945080840160005b838110156137c25781516001600160a01b03168752958201959082019060010161379d565b509495945050505050565b600081518084526020808501945080840160005b838110156137c2578151875295820195908201906001016137e1565b6040815260006138106040830185613789565b828103602084015261382281856137cd565b95945050505050565b600081518084526020808501808196508360051b8101915082860160005b858110156138735782840389526138618483516135a6565b98850198935090840190600101613849565b5091979650505050505050565b60c08152600061389360c08301896137cd565b82810360208401526138a5818961382b565b905082810360408401526138b9818861382b565b905082810360608401526138cd818761382b565b905082810360808401526138e1818661382b565b9150508260a0830152979650505050505050565b60008060008060008060006080888a03121561391057600080fd5b873567ffffffffffffffff8082111561392857600080fd5b6139348b838c016136bf565b909950975060208a013591508082111561394d57600080fd5b6139598b838c016136bf565b909750955060408a013591508082111561397257600080fd5b5061397f8a828b016136bf565b989b979a50959894979596606090950135949350505050565b634e487b7160e01b600052604160045260246000fd5b604051601f8201601f1916810167ffffffffffffffff811182821017156139d7576139d7613998565b604052919050565b600067ffffffffffffffff8211156139f9576139f9613998565b5060051b60200190565b600082601f830112613a1457600080fd5b81356020613a29613a24836139df565b6139ae565b82815260059290921b84018101918181019086841115613a4857600080fd5b8286015b84811015613a6c578035613a5f816135fe565b8352918301918301613a4c565b509695505050505050565b600082601f830112613a8857600080fd5b81356020613a98613a24836139df565b82815260059290921b84018101918181019086841115613ab757600080fd5b8286015b84811015613a6c5780358352918301918301613abb565b600080600060608486031215613ae757600080fd5b83359250602084013567ffffffffffffffff80821115613b0657600080fd5b613b1287838801613a03565b93506040860135915080821115613b2857600080fd5b50613b3586828701613a77565b9150509250925092565b60008060208385031215613b5257600080fd5b823567ffffffffffffffff80821115613b6a57600080fd5b818501915085601f830112613b7e57600080fd5b813581811115613b8d57600080fd5b866020828501011115613b9f57600080fd5b60209290920196919550909350505050565b801515811461223557600080fd5b60008060408385031215613bd257600080fd5b8235613bdd816135fe565b9150602083013561377e81613bb1565b600067ffffffffffffffff821115613c0757613c07613998565b50601f01601f191660200190565b600082601f830112613c2657600080fd5b8135613c34613a2482613bed565b818152846020838601011115613c4957600080fd5b816020850160208301376000918101602001919091529392505050565b60008060008060808587031215613c7c57600080fd5b8435613c87816135fe565b93506020850135613c97816135fe565b925060408501359150606085013567ffffffffffffffff811115613cba57600080fd5b613cc687828801613c15565b91505092959194509250565b600080600080600060a08688031215613cea57600080fd5b8535613cf5816135fe565b94506020860135613d05816135fe565b9350604086013567ffffffffffffffff80821115613d2257600080fd5b613d2e89838a01613a77565b94506060880135915080821115613d4457600080fd5b613d5089838a01613a77565b93506080880135915080821115613d6657600080fd5b50613d7388828901613c15565b9150509295509295909350565b600080600080600060a08688031215613d9857600080fd5b8535613da3816135fe565b94506020860135613db3816135fe565b93506040860135925060608601359150608086013567ffffffffffffffff811115613ddd57600080fd5b613d7388828901613c15565b600181811c90821680613dfd57607f821691505b602082108103613e1d57634e487b7160e01b600052602260045260246000fd5b50919050565b634e487b7160e01b600052603260045260246000fd5b60006001600160a01b03808716835280861660208401525060a06040830152613e6560a08301856137cd565b8281036060840152613e7781856137cd565b838103608090940193909352505060008152602001949350505050565b634e487b7160e01b600052601160045260246000fd5b80820180821115610b1057610b10613e94565b8082028115828204841417610b1057610b10613e94565b600082613ef157634e487b7160e01b600052601260045260246000fd5b500490565b600081613f0557613f05613e94565b506000190190565b81835260007f07ffffffffffffffffffffffffffffffffffffffffffffffffffffffffffffff831115613f3f57600080fd5b8260051b80836020870137939093016020019392505050565b6001600160a01b0384168152604060208201526000613822604083018486613f0d565b600060208284031215613f8d57600080fd5b5051919050565b600082601f830112613fa557600080fd5b8151613fb3613a2482613bed565b818152846020838601011115613fc857600080fd5b6113df826020830160208701613582565b60008060008060808587031215613fef57600080fd5b845167ffffffffffffffff8082111561400757600080fd5b61401388838901613f94565b9550602087015191508082111561402957600080fd5b61403588838901613f94565b9450604087015191508082111561404b57600080fd5b61405788838901613f94565b9350606087015191508082111561406d57600080fd5b50613cc687828801613f94565b60006001820161408c5761408c613e94565b5060010190565b6040815260006140a7604083018587613f0d565b9050826020830152949350505050565b6001600160a01b03861681526060602082015260006140da606083018688613f0d565b82810360408401526140ed818587613f0d565b98975050505050505050565b6000806000806080858703121561410f57600080fd5b843561411a816135fe565b935060208501359250604085013567ffffffffffffffff8082111561413e57600080fd5b61414a88838901613a03565b9350606087013591508082111561416057600080fd5b50613cc687828801613a77565b60006020828403121561417f57600080fd5b815167ffffffffffffffff81111561419657600080fd5b6113df84828501613f94565b600084516141b4818460208901613582565b8451908301906141c8818360208901613582565b7f2f0000000000000000000000000000000000000000000000000000000000000091019081528351614201816001840160208801613582565b0160010195945050505050565b81810381811115610b1057610b10613e94565b83815260606020820152600061423a6060830185613789565b828103604084015261424c81856137cd565b9695505050505050565b60006020828403121561426857600080fd5b815161188d81613bb1565b60006001600160a01b0380871683528086166020840152508360408301526080606083015261424c60808301846135a6565b6000602082840312156142b757600080fd5b815161188d8161354f565b600082516142d4818460208701613582565b919091019291505056fea26469706673582212200f2d1ba3d4b33ed46f2fe8b29e0441062b0a5f901152b0e6bb07647fe303882764736f6c63430008130033",
  "devdoc": {
    "events": {
      "Approval(address,address,uint256)": {
        "details": "Emitted when `owner` enables `approved` to manage the `tokenId` token."
      },
      "ApprovalForAll(address,address,bool)": {
        "details": "Emitted when `owner` enables or disables (`approved`) `operator` to manage all of its assets."
      },
      "Transfer(address,address,uint256)": {
        "details": "Emitted when `tokenId` token is transferred from `from` to `to`."
      }
    },
    "kind": "dev",
    "methods": {
      "approve(address,uint256)": {
        "details": "See {IERC721-approve}."
      },
      "artwork(uint256)": {
        "params": {
          "_artworkTokenId": "token ID of the artwork"
        },
        "returns": {
          "_hash": "the artwork hash",
          "_traitNames": "the human readable trait names contained in the artwork",
          "_traitTokenIds": "the token IDs of the traits the artwork contains",
          "_traitTypeNames": "the human readable trait type names",
          "_traitTypeValues": "the trait type values used by the generative script",
          "_traitValues": "the trait values used by the generative script"
        }
      },
      "balanceOf(address)": {
        "details": "See {IERC721-balanceOf}."
      },
      "getApproved(uint256)": {
        "details": "See {IERC721-getApproved}."
      },
      "isApprovedForAll(address,address)": {
        "details": "See {IERC721-isApprovedForAll}."
      },
      "metadataJSON()": {
        "returns": {
          "_0": "string the project metadata in JSON format"
        }
      },
      "mintArtwork(uint256[],uint256)": {
        "params": {
          "_saltNonce": "salt number that is used to generate the artwork hash",
          "_traitTokenIds": "the trait token IDs to create the artwork with"
        },
        "returns": {
          "_artworkTokenId": "the token ID of the newly minted artwork"
        }
      },
      "mintArtworkProof(uint256[],uint256)": {
        "params": {
          "_saltNonce": "salt number that is used to generate the artwork hash",
          "_traitTokenIds": "token IDs of the traits to use to create the artwork"
        }
      },
      "mintArtworkWhitelist(uint256[],uint256)": {
        "params": {
          "_saltNonce": "salt number that is used to generate the artwork hash",
          "_traitTokenIds": "token IDs of the traits to use to create the artwork"
        }
      },
      "mintTraitsAndArtwork(uint256[],uint256[],uint256[],uint256)": {
        "params": {
          "_saltNonce": "salt number that is used to generate the artwork hash",
          "_traitAmountsToBuy": "amounts of each trait to buy",
          "_traitTokenIdsToBuy": "token IDs of the traits to buy",
          "_traitTokenIdsToCreateArtwork": "token IDs of the traits to use to create the artwork"
        }
      },
      "name()": {
        "details": "See {IERC721Metadata-name}."
      },
      "ownerOf(uint256)": {
        "details": "See {IERC721-ownerOf}."
      },
      "payee(uint256)": {
        "returns": {
          "_0": "address the address of the payee"
        }
      },
      "payees()": {
        "returns": {
          "payees_": "array of all payee addresses",
          "shares_": "array of all payee share amounts"
        }
      },
      "reclaimTraits(uint256)": {
        "params": {
          "_artworkTokenId": "the token ID of the artwork being reclaimed"
        }
      },
      "releasableERC20(address,address)": {
        "params": {
          "account": "the address of the payee",
          "token": "the address of the token"
        },
        "returns": {
          "_0": "uint256 the amount of token releasable to the payee"
        }
      },
      "releasableETH(address)": {
        "returns": {
          "_0": "uint256 amount of releasable ETH"
        }
      },
      "releasedERC20(address,address)": {
        "returns": {
          "_0": "uint256 amount of the specified token released to a payee"
        }
      },
      "releasedETH(address)": {
        "returns": {
          "_0": "uint256 amount of ETH released to the specified account"
        }
      },
      "royaltyInfo(uint256,uint256)": {
        "details": "Returns how much royalty is owed and to whom, based on a sale price that may be denominated in any unit of exchange. The royalty amount is denominated and should be paid in that same unit of exchange."
      },
      "safeTransferFrom(address,address,uint256)": {
        "details": "See {IERC721-safeTransferFrom}."
      },
      "safeTransferFrom(address,address,uint256,bytes)": {
        "details": "See {IERC721-safeTransferFrom}."
      },
      "script()": {
        "returns": {
          "_0": "string the generative art javascript"
        }
      },
      "setApprovalForAll(address,bool)": {
        "details": "See {IERC721-setApprovalForAll}."
      },
      "setup(bytes)": {
        "params": {
          "_data": "bytes containing address of the traits contract and whitelist data"
        }
      },
      "shares(address)": {
        "returns": {
          "_0": "uint256 amount of shares held by the account"
        }
      },
      "supportsInterface(bytes4)": {
        "params": {
          "interfaceId": "the interface ID to check"
        },
        "returns": {
          "_0": "bool True if the interface is supported, otherwise False"
        }
      },
      "symbol()": {
        "details": "See {IERC721Metadata-symbol}."
      },
      "tokenURI(uint256)": {
        "params": {
          "_tokenId": "token ID to get URI for"
        },
        "returns": {
          "_0": "string the token URI"
        }
      },
      "totalReleasedERC20(address)": {
        "returns": {
          "_0": "uint256 total amount of specified token released"
        }
      },
      "totalReleasedETH()": {
        "returns": {
          "_0": "uint256 total amount of ETH released"
        }
      },
      "totalShares()": {
        "returns": {
          "_0": "uint256 total shares held by payees"
        }
      },
      "transferFrom(address,address,uint256)": {
        "details": "See {IERC721-transferFrom}."
      },
      "updateWhitelist(uint256,address[],uint256[])": {
        "params": {
          "_whitelistAddresses": "addresses to be whitelisted",
          "_whitelistAmounts": "amount of whitelist mints for each address",
          "_whitelistStartTime": "timestamp at which whitelisted users can start minting"
        }
      },
      "userNonce(address)": {
        "params": {
          "_user": "the address of the user"
        },
        "returns": {
          "_0": "uint256 the user's nonce"
        }
      }
    },
    "stateVariables": {
      "whitelistMintsRemaining": {
        "return": "uint256 the number of whitelist mints remaining",
        "returns": {
          "_0": "uint256 the number of whitelist mints remaining"
        }
      }
    },
    "version": 1
  },
  "userdoc": {
    "kind": "user",
    "methods": {
      "artwork(uint256)": {
        "notice": "Returns info about the specified artwork token"
      },
      "metadataJSON()": {
        "notice": "Returns a string containing the project metadata in JSON format"
      },
      "mintArtwork(uint256[],uint256)": {
        "notice": "Mints a new artwork with the specified trait token IDs The caller must own the specified traits"
      },
      "mintArtworkProof(uint256[],uint256)": {
        "notice": "Allows the artist or project registry to mint the proof mint"
      },
      "mintArtworkWhitelist(uint256[],uint256)": {
        "notice": "Allows an address on the whitelist to mint an artwork for free"
      },
      "mintTraitsAndArtwork(uint256[],uint256[],uint256[],uint256)": {
        "notice": "Mints traits with specified amounts, and mints an artwork in a single transaction ETH amount needed for trait mints must be sent"
      },
      "payee(uint256)": {
        "notice": "Getter for the address of the payee for the specified index"
      },
      "payees()": {
        "notice": "Getter for all payees and their respective shares"
      },
      "reclaimTraits(uint256)": {
        "notice": "Reclaims the traits the specified artwork token into the traits its composed of The artwork token is burned, and the token ID will never be reused The traits are transferred to the caller's address"
      },
      "releasableERC20(address,address)": {
        "notice": "Getter for the amount of specified token releasable for the account"
      },
      "releasableETH(address)": {
        "notice": "Getter for the amount of payee's releasable ETH"
      },
      "releaseERC20(address)": {
        "notice": "Triggers a transfer to msg.sender of the amount of the specified token they are owed"
      },
      "releaseETH()": {
        "notice": "Triggers a transfer to msg.sender of the amount of Ether they are owed"
      },
      "releasedERC20(address,address)": {
        "notice": "Getter for the amount of the specified token released to a payee"
      },
      "releasedETH(address)": {
        "notice": "Getter for the amount of ETH already released to a payee"
      },
      "script()": {
        "notice": "Returns the string that contains the generative art javascript"
      },
      "setup(bytes)": {
        "notice": "Sets up the contract"
      },
      "shares(address)": {
        "notice": "Getter for the amount of shares held by an account"
      },
      "supportsInterface(bytes4)": {
        "notice": "Returns whether the specified interface ID is supported by the contract"
      },
      "tokenURI(uint256)": {
        "notice": "Returns the URI of the specified token ID"
      },
      "totalReleasedERC20(address)": {
        "notice": "Getter for the total amount of specified token released"
      },
      "totalReleasedETH()": {
        "notice": "Getter for the total amount of ETH already released"
      },
      "totalShares()": {
        "notice": "Getter for the total shares held by payees"
      },
      "updateWhitelist(uint256,address[],uint256[])": {
        "notice": "Updates the whitelisted addresses and amounts they can claim"
      },
      "userNonce(address)": {
        "notice": "Returns the specified user's nonce, which is used to generate artwork hashes"
      },
      "whitelistMintsRemaining(address)": {
        "notice": "Returns how many more whitelist mints the specified address has"
      }
    },
    "notice": "Implements ERC-721 standard for artwork tokens, and functionality for minting artwork and reclaiming traits",
    "version": 1
  },
  "storageLayout": {
    "storage": [
      {
        "astId": 3375,
        "contract": "contracts/Artwork.sol:Artwork",
        "label": "_defaultRoyaltyInfo",
        "offset": 0,
        "slot": "0",
        "type": "t_struct(RoyaltyInfo)3372_storage"
      },
      {
        "astId": 3380,
        "contract": "contracts/Artwork.sol:Artwork",
        "label": "_tokenRoyaltyInfo",
        "offset": 0,
        "slot": "1",
        "type": "t_mapping(t_uint256,t_struct(RoyaltyInfo)3372_storage)"
      },
      {
        "astId": 2278,
        "contract": "contracts/Artwork.sol:Artwork",
        "label": "_name",
        "offset": 0,
        "slot": "2",
        "type": "t_string_storage"
      },
      {
        "astId": 2280,
        "contract": "contracts/Artwork.sol:Artwork",
        "label": "_symbol",
        "offset": 0,
        "slot": "3",
        "type": "t_string_storage"
      },
      {
        "astId": 2284,
        "contract": "contracts/Artwork.sol:Artwork",
        "label": "_owners",
        "offset": 0,
        "slot": "4",
        "type": "t_mapping(t_uint256,t_address)"
      },
      {
        "astId": 2288,
        "contract": "contracts/Artwork.sol:Artwork",
        "label": "_balances",
        "offset": 0,
        "slot": "5",
        "type": "t_mapping(t_address,t_uint256)"
      },
      {
        "astId": 2292,
        "contract": "contracts/Artwork.sol:Artwork",
        "label": "_tokenApprovals",
        "offset": 0,
        "slot": "6",
        "type": "t_mapping(t_uint256,t_address)"
      },
      {
        "astId": 2298,
        "contract": "contracts/Artwork.sol:Artwork",
        "label": "_operatorApprovals",
        "offset": 0,
        "slot": "7",
        "type": "t_mapping(t_address,t_mapping(t_address,t_bool))"
      },
      {
        "astId": 5863,
        "contract": "contracts/Artwork.sol:Artwork",
        "label": "_totalShares",
        "offset": 0,
        "slot": "8",
        "type": "t_uint256"
      },
      {
        "astId": 5865,
        "contract": "contracts/Artwork.sol:Artwork",
        "label": "_totalReleased",
        "offset": 0,
        "slot": "9",
        "type": "t_uint256"
      },
      {
        "astId": 5868,
        "contract": "contracts/Artwork.sol:Artwork",
        "label": "_payees",
        "offset": 0,
        "slot": "10",
        "type": "t_array(t_address)dyn_storage"
      },
      {
        "astId": 5872,
        "contract": "contracts/Artwork.sol:Artwork",
        "label": "_shares",
        "offset": 0,
        "slot": "11",
        "type": "t_mapping(t_address,t_uint256)"
      },
      {
        "astId": 5876,
        "contract": "contracts/Artwork.sol:Artwork",
        "label": "_released",
        "offset": 0,
        "slot": "12",
        "type": "t_mapping(t_address,t_uint256)"
      },
      {
        "astId": 5881,
        "contract": "contracts/Artwork.sol:Artwork",
        "label": "_erc20TotalReleased",
        "offset": 0,
        "slot": "13",
        "type": "t_mapping(t_contract(IERC20)1935,t_uint256)"
      },
      {
        "astId": 5888,
        "contract": "contracts/Artwork.sol:Artwork",
        "label": "_erc20Released",
        "offset": 0,
        "slot": "14",
        "type": "t_mapping(t_contract(IERC20)1935,t_mapping(t_address,t_uint256))"
      },
      {
        "astId": 5029,
        "contract": "contracts/Artwork.sol:Artwork",
        "label": "proofMinted",
        "offset": 0,
        "slot": "15",
        "type": "t_bool"
      },
      {
        "astId": 5034,
        "contract": "contracts/Artwork.sol:Artwork",
        "label": "artistAddress",
        "offset": 1,
        "slot": "15",
        "type": "t_address"
      },
      {
        "astId": 5037,
        "contract": "contracts/Artwork.sol:Artwork",
        "label": "projectRegistry",
        "offset": 0,
        "slot": "16",
        "type": "t_contract(IProjectRegistry)8370"
      },
      {
        "astId": 5040,
        "contract": "contracts/Artwork.sol:Artwork",
        "label": "traits",
        "offset": 0,
        "slot": "17",
        "type": "t_contract(ITraits)8609"
      },
      {
        "astId": 5042,
        "contract": "contracts/Artwork.sol:Artwork",
        "label": "nextTokenId",
        "offset": 0,
        "slot": "18",
        "type": "t_uint256"
      },
      {
        "astId": 5045,
        "contract": "contracts/Artwork.sol:Artwork",
        "label": "metadataJSONStringStorage",
        "offset": 0,
        "slot": "19",
        "type": "t_struct(StringStorageData)7952_storage"
      },
      {
        "astId": 5048,
        "contract": "contracts/Artwork.sol:Artwork",
        "label": "scriptStringStorage",
        "offset": 0,
        "slot": "20",
        "type": "t_struct(StringStorageData)7952_storage"
      },
      {
        "astId": 5050,
        "contract": "contracts/Artwork.sol:Artwork",
        "label": "whitelistStartTime",
        "offset": 0,
        "slot": "21",
        "type": "t_uint256"
      },
      {
        "astId": 5055,
        "contract": "contracts/Artwork.sol:Artwork",
        "label": "artworkData",
        "offset": 0,
        "slot": "22",
        "type": "t_mapping(t_uint256,t_struct(ArtworkData)7947_storage)"
      },
      {
        "astId": 5059,
        "contract": "contracts/Artwork.sol:Artwork",
        "label": "userNonces",
        "offset": 0,
        "slot": "23",
        "type": "t_mapping(t_address,t_uint256)"
      },
      {
        "astId": 5063,
        "contract": "contracts/Artwork.sol:Artwork",
        "label": "whitelistMintsRemaining",
        "offset": 0,
        "slot": "24",
        "type": "t_mapping(t_address,t_uint256)"
      }
    ],
    "types": {
      "t_address": {
        "encoding": "inplace",
        "label": "address",
        "numberOfBytes": "20"
      },
      "t_array(t_address)dyn_storage": {
        "base": "t_address",
        "encoding": "dynamic_array",
        "label": "address[]",
        "numberOfBytes": "32"
      },
      "t_array(t_uint256)dyn_storage": {
        "base": "t_uint256",
        "encoding": "dynamic_array",
        "label": "uint256[]",
        "numberOfBytes": "32"
      },
      "t_bool": {
        "encoding": "inplace",
        "label": "bool",
        "numberOfBytes": "1"
      },
      "t_bytes32": {
        "encoding": "inplace",
        "label": "bytes32",
        "numberOfBytes": "32"
      },
      "t_contract(IERC20)1935": {
        "encoding": "inplace",
        "label": "contract IERC20",
        "numberOfBytes": "20"
      },
      "t_contract(IProjectRegistry)8370": {
        "encoding": "inplace",
        "label": "contract IProjectRegistry",
        "numberOfBytes": "20"
      },
      "t_contract(ITraits)8609": {
        "encoding": "inplace",
        "label": "contract ITraits",
        "numberOfBytes": "20"
      },
      "t_mapping(t_address,t_bool)": {
        "encoding": "mapping",
        "key": "t_address",
        "label": "mapping(address => bool)",
        "numberOfBytes": "32",
        "value": "t_bool"
      },
      "t_mapping(t_address,t_mapping(t_address,t_bool))": {
        "encoding": "mapping",
        "key": "t_address",
        "label": "mapping(address => mapping(address => bool))",
        "numberOfBytes": "32",
        "value": "t_mapping(t_address,t_bool)"
      },
      "t_mapping(t_address,t_uint256)": {
        "encoding": "mapping",
        "key": "t_address",
        "label": "mapping(address => uint256)",
        "numberOfBytes": "32",
        "value": "t_uint256"
      },
      "t_mapping(t_contract(IERC20)1935,t_mapping(t_address,t_uint256))": {
        "encoding": "mapping",
        "key": "t_contract(IERC20)1935",
        "label": "mapping(contract IERC20 => mapping(address => uint256))",
        "numberOfBytes": "32",
        "value": "t_mapping(t_address,t_uint256)"
      },
      "t_mapping(t_contract(IERC20)1935,t_uint256)": {
        "encoding": "mapping",
        "key": "t_contract(IERC20)1935",
        "label": "mapping(contract IERC20 => uint256)",
        "numberOfBytes": "32",
        "value": "t_uint256"
      },
      "t_mapping(t_uint256,t_address)": {
        "encoding": "mapping",
        "key": "t_uint256",
        "label": "mapping(uint256 => address)",
        "numberOfBytes": "32",
        "value": "t_address"
      },
      "t_mapping(t_uint256,t_struct(ArtworkData)7947_storage)": {
        "encoding": "mapping",
        "key": "t_uint256",
        "label": "mapping(uint256 => struct IArtwork.ArtworkData)",
        "numberOfBytes": "32",
        "value": "t_struct(ArtworkData)7947_storage"
      },
      "t_mapping(t_uint256,t_struct(RoyaltyInfo)3372_storage)": {
        "encoding": "mapping",
        "key": "t_uint256",
        "label": "mapping(uint256 => struct ERC2981.RoyaltyInfo)",
        "numberOfBytes": "32",
        "value": "t_struct(RoyaltyInfo)3372_storage"
      },
      "t_string_storage": {
        "encoding": "bytes",
        "label": "string",
        "numberOfBytes": "32"
      },
      "t_struct(ArtworkData)7947_storage": {
        "encoding": "inplace",
        "label": "struct IArtwork.ArtworkData",
        "members": [
          {
            "astId": 7943,
            "contract": "contracts/Artwork.sol:Artwork",
            "label": "hash",
            "offset": 0,
            "slot": "0",
            "type": "t_bytes32"
          },
          {
            "astId": 7946,
            "contract": "contracts/Artwork.sol:Artwork",
            "label": "traitTokenIds",
            "offset": 0,
            "slot": "1",
            "type": "t_array(t_uint256)dyn_storage"
          }
        ],
        "numberOfBytes": "64"
      },
      "t_struct(RoyaltyInfo)3372_storage": {
        "encoding": "inplace",
        "label": "struct ERC2981.RoyaltyInfo",
        "members": [
          {
            "astId": 3369,
            "contract": "contracts/Artwork.sol:Artwork",
            "label": "receiver",
            "offset": 0,
            "slot": "0",
            "type": "t_address"
          },
          {
            "astId": 3371,
            "contract": "contracts/Artwork.sol:Artwork",
            "label": "royaltyFraction",
            "offset": 20,
            "slot": "0",
            "type": "t_uint96"
          }
        ],
        "numberOfBytes": "32"
      },
      "t_struct(StringStorageData)7952_storage": {
        "encoding": "inplace",
        "label": "struct IArtwork.StringStorageData",
        "members": [
          {
            "astId": 7949,
            "contract": "contracts/Artwork.sol:Artwork",
            "label": "stringStorageSlot",
            "offset": 0,
            "slot": "0",
            "type": "t_uint8"
          },
          {
            "astId": 7951,
            "contract": "contracts/Artwork.sol:Artwork",
            "label": "stringStorageAddress",
            "offset": 1,
            "slot": "0",
            "type": "t_address"
          }
        ],
        "numberOfBytes": "32"
      },
      "t_uint256": {
        "encoding": "inplace",
        "label": "uint256",
        "numberOfBytes": "32"
      },
      "t_uint8": {
        "encoding": "inplace",
        "label": "uint8",
        "numberOfBytes": "1"
      },
      "t_uint96": {
        "encoding": "inplace",
        "label": "uint96",
        "numberOfBytes": "12"
      }
    }
  }
}