{
  "address": "0xeB56A896A7035033C61D6Fe35F229699F53a3Edb",
  "abi": [
    {
      "inputs": [],
      "name": "EmptySlot",
      "type": "error"
    },
    {
      "inputs": [
        {
          "internalType": "uint8",
          "name": "_slot",
          "type": "uint8"
        }
      ],
      "name": "stringAtSlot",
      "outputs": [
        {
          "internalType": "string",
          "name": "",
          "type": "string"
        }
      ],
      "stateMutability": "pure",
      "type": "function"
    }
  ],
  "transactionHash": "0xb5fb8a02d6e5410a0c3ca0140fc933b11e36536eb2e56a4e92b79fb2d0200d4c",
  "args": [],
  "numDeployments": 1,
  "solcInputHash": "91710114290dca0c547d7cd4877d9d8a",
  "bytecode": "0x608060405234801561001057600080fd5b50611ecb806100206000396000f3fe608060405234801561001057600080fd5b506004361061002b5760003560e01c806360655fe414610030575b600080fd5b61004361003e3660046100e4565b610059565b604051610050919061010e565b60405180910390f35b60608160ff16600003610085576040518060e0016040528060ad8152602001611de960ad913992915050565b8160ff166001036100b25760405180611cc00160405280611c8c815260200161015d611c8c913992915050565b6040517f3477dcda00000000000000000000000000000000000000000000000000000000815260040160405180910390fd5b6000602082840312156100f657600080fd5b813560ff8116811461010757600080fd5b9392505050565b600060208083528351808285015260005b8181101561013b5785810183015185820160400152820161011f565b506000604082860101526040601f19601f830116850101925050509291505056fe636f6e736f6c652e6c6f6728224d657474612076352e322e30205c7861392032303233204d6174746f22292c636f6e736f6c652e6c6f672860544f4b454e2049443a20247b617274776f726b2e746f6b656e49447d2e20544f4b454e20454e54524f50593a20247b617274776f726b2e736565647d2e205452414954533a60292c636f6e736f6c652e6c6f6728617274776f726b2e747261697473293b6c657420746f6b656e456e74726f70793d617274776f726b2e736565642c746f6b656e456e74726f707950616972733d637265617465506169727328746f6b656e456e74726f7079292c736565643d67657456616c756528302c323535292a67657456616c756528302c323535292a67657456616c756528302c323535292a67657456616c756528302c323535292c523d28653d31293d3e4d6174682e666c6f6f72286d52616e646f28292a65293b66756e6374696f6e206d52616e646f28653d31297b72657475726e28736565643d28313636343532352a736565642b31303133393034323233292534323934393637323936292f343239343936373239362a657d6c657420617474726962757465733d5b5d2c703d5b5d2c6d617474653d31362c6875652c77696474682c6865696768742c63616e7661732c752c72616e646f2c6e6f6465732c6d6f64652c6368616f732c667265657a652c7665696c65642c63656c6c44796e616d69632c636f6e6e656374696f6e732c746869636b6e6573732c666164652c63656c6c44657369676e2c636f6c6f724d6f64652c6772616469656e7453686966742c7365656b65724e6f64654d6f643b636f6e73742075726c506172616d733d6e65772055524c536561726368506172616d732877696e646f772e6c6f636174696f6e2e736561726368292c706f7274726169743d75726c506172616d732e6765742822706f72747261697422293b6c6574207061757365643d21302c636f756e743d302c6c61737454696d653d303b66756e6374696f6e20736574757028297b2274727565223d3d706f7274726169743f2877696474683d2e353632352a286865696768743d77696e646f772e696e6e657248656967687429293e77696e646f772e696e6e657257696474682626286865696768743d2877696474683d77696e646f772e696e6e65725769647468292f2e35363235293a286865696768743d2e353632352a2877696474683d77696e646f772e696e6e6572576964746829293e77696e646f772e696e6e657248656967687426262877696474683d286865696768743d77696e646f772e696e6e6572486569676874292f2e35363235292c2863616e7661733d646f63756d656e742e637265617465456c656d656e74282263616e7661732229292e77696474683d77696474682c63616e7661732e6865696768743d6865696768742c646f63756d656e742e717565727953656c6563746f722822626f647922292e617070656e644368696c642863616e766173292c6374783d63616e7661732e676574436f6e746578742822326422292c6875653d32302a67657456616c756528312c3138292c72616e646f3d67657456616c756528302c323535292a67657456616c756528302c323535292c6e6f6465733d7061727365496e7428617274776f726b2e7472616974732e6e6f6465732c3130292c28636f6e6e656374696f6e733d7061727365496e7428617274776f726b2e7472616974732e636f6e6e656374696f6e732c313029293e6e6f646573262628636f6e6e656374696f6e733d6e6f6465732d31292c746869636b6e6573733d7061727365496e7428617274776f726b2e7472616974732e746869636b6e6573732c3130292c666164653d286d6f64653d7061727365496e7428617274776f726b2e7472616974732e6d6f64652c3130292925333d3d302c6368616f733d6d6f64653e322c7665696c65643d323d3d6d6f64652c63656c6c44657369676e3d7061727365496e7428617274776f726b2e7472616974732e63656c6c44657369676e2c3130292c636f6c6f724d6f64653d7061727365496e7428617274776f726b2e7472616974732e636f6c6f724d6f64652c3130292c63656c6c44796e616d69633d7061727365496e7428617274776f726b2e7472616974732e63656c6c44796e616d69632c3130292c726561644f75744174747269627574657328292c6772616469656e7453686966743d67657456616c756528302c333630292c667265657a653d39352c7365656b65724e6f64654d6f643d21303d3d6368616f733f313a353d3d6e6f6465733f333a4d6174682e666c6f6f72286e6f6465732f32292c753d28746869636b6e6573732b31292a2877696e646f772e696e6e65724865696768742b77696e646f772e696e6e65725769647468292f3265332c666164653f286374782e66696c6c5374796c653d2268736c28302c2030252c2031302529222c6374782e66696c6c5265637428302c302c63616e7661732e77696474682c63616e7661732e68656967687429293a286374782e66696c6c5374796c653d22626c61636b222c6374782e66696c6c5265637428302c302c63616e7661732e77696474682c63616e7661732e68656967687429293b666f72286c657420653d303b653c6e6f6465733b652b2b29702e70757368287b783a5228312e352a7769647468292d77696474682f342c793a5228312e352a686569676874292d6865696768742f342c723a302c633a5b52283730292b32302c52283930292b31305d7d292c303d3d65262628303d3d636f6c6f724d6f64657c7c333d3d636f6c6f724d6f64657c7c28636f6e736f6c652e6c6f672822285072696d617279204875653a20222b6875652b222922292c323d3d636f6c6f724d6f64652626636f6e736f6c652e6c6f672822285365636f6e64617279204875653a20222b286875652b31383029253336302b2229222929297d66756e6374696f6e20647261772865297b696628652d6c61737454696d653e28636f756e743c667265657a653f3165332f28667265657a652d636f756e742b33293a3165332f3330292626286c61737454696d653d652c217061757365647c7c636f756e743c667265657a6529297b636f756e742b2b2c666164652626286374782e66696c6c5374796c653d2268736c6128302c2030252c2030252c20322529222c6374782e66696c6c5265637428302c302c63616e7661732e77696474682c63616e7661732e68656967687429293b666f72286c657420743d303b743c3165333b742b2b297b6c6574206f3d52287769647468292c6e3d5228686569676874292c6c3d77696474682a6865696768742c612c723b666f72286c657420733d303b733c702e6c656e6774683b732b2b2928723d4d6174682e7371727428286f2d705b735d2e78292a2a322b286e2d705b735d2e79292a2a3229293c6c2626286c3d722c613d73293b6374782e6c696e6557696474683d2e352a753b6c657420633d6875652c243d705b615d2e635b305d3b303d3d636f6c6f724d6f64653f243d303a323d3d636f6c6f724d6f64653f6125323d3d30262628633d286875652b3138302925333630293a333d3d636f6c6f724d6f6465262628633d72616e646f25323d3d303f705b615d2e782f77696474682a3336302b6772616469656e7453686966743a705b615d2e792f6865696768742a3336302b6772616469656e745368696674292c6374782e7374726f6b655374796c653d6068736c28247b637d2c20247b247d252c20247b705b615d2e635b315d7d2529602c6374782e66696c6c5374796c653d6068736c28247b637d2c20247b247d252c20247b705b615d2e635b315d7d2529603b6c657420643d705b615d2e782d6f2c683d705b615d2e792d6e2c673d32302a4d6174682e7371727428642a642b682a68292c793d705b615d2e782b2e37352a286f2d705b615d2e78292c5f3d705b615d2e792b2e37352a286e2d705b615d2e79292c663d705b615d2e782b312e312a286f2d705b615d2e78292c6d3d705b615d2e792b312e312a286e2d705b615d2e79292c6b3d313d3d63656c6c44657369676e3f672f32303a303d3d63656c6c44657369676e3f672f33303a672f34302c443d6f2b2d682f672a6b2c543d6e2b642f672a6b2c763d6f2b682f672a6b2c773d6e2b2d642f672a6b3b696628303d3d63656c6c44657369676e296374782e626567696e5061746828292c6374782e6d6f7665546f28705b615d2e782c705b615d2e79292c303d3d63656c6c44796e616d69633f6374782e6c696e65546f28792c5f293a313d3d63656c6c44796e616d69633f6374782e6c696e65546f286f2c6e293a6374782e6c696e65546f28662c6d292c6374782e7374726f6b6528292c6374782e626567696e5061746828292c6374782e6d6f7665546f28442c54292c6374782e6c696e65546f28762c77292c6374782e7374726f6b6528293b656c736520696628313d3d63656c6c44657369676e297b6c657420783b783d303d3d63656c6c44796e616d69633f2e37352a6c3a313d3d63656c6c44796e616d69633f6c3a312e32352a6c3b6c6574204d3d4d6174682e6174616e3228542d705b615d2e792c442d705b615d2e78292c623d4d6174682e6174616e3228772d705b615d2e792c762d705b615d2e78293b6374782e626567696e5061746828292c6374782e61726328705b615d2e782c705b615d2e792c782c4d2c62292c6374782e7374726f6b6528297d656c736520696628323d3d63656c6c44657369676e296374782e66696c6c5374796c653d6068736c28247b637d2c20247b247d252c20247b705b615d2e635b315d7d2529602c303d3d63656c6c44796e616d69633f4328792c5f2c312e352a75293a313d3d63656c6c44796e616d69633f43286f2c6e2c312e352a75293a4328662c6d2c312e352a75293b656c736520696628333d3d63656c6c44657369676e297b6c657420503d303d3d63656c6c44796e616d69633f2e373a2e393b63656c6c44796e616d69633c32262628443d705b615d2e782b502a28442d705b615d2e78292c543d705b615d2e792b502a28542d705b615d2e79292c763d705b615d2e782b502a28762d705b615d2e78292c773d705b615d2e792b502a28772d705b615d2e7929292c6374782e626567696e5061746828292c303d3d63656c6c44796e616d69633f286374782e6d6f7665546f28705b615d2e782c705b615d2e79292c6374782e6c696e65546f28442c54292c6374782e6c696e65546f28792c5f292c6374782e6c696e65546f28762c7729293a313d3d63656c6c44796e616d69633f286374782e6d6f7665546f28705b615d2e782c705b615d2e79292c6374782e6c696e65546f28442c54292c6374782e6c696e65546f286f2c6e292c6374782e6c696e65546f28762c7729293a286374782e6d6f7665546f28792c5f292c6374782e6c696e65546f28442c54292c6374782e6c696e65546f28662c6d292c6374782e6c696e65546f28762c7729292c6374782e636c6f73655061746828292c6374782e7374726f6b6528297d6c3e705b615d2e72262628705b615d2e723d6c2c6374782e6c696e6557696474683d35302f705b615d2e722a332a752c636f6c6f724d6f64653c32262628303d3d636f6c6f724d6f64653f6374782e7374726f6b655374796c653d6068736c28302c2030252c20247b705b615d2e635b315d7d2529603a28633d6875652c6374782e7374726f6b655374796c653d6068736c28247b6875657d2c20247b705b615d2e635b305d7d252c20247b705b615d2e635b315d7d252960292c4328705b615d2e782c705b615d2e792c705b615d2e722c302929297d6d6f7665546f776172644e436c6f7365737428636f6e6e656374696f6e73297d72657175657374416e696d6174696f6e4672616d652864726177297d66756e6374696f6e206d6f7665546f776172644e436c6f736573742865297b666f72286c657420743d303b743c702e6c656e6774683b742b2b297b6c6574206f3d5b5d3b666f72286c6574206e3d303b6e3c702e6c656e6774683b6e2b2b2969662874213d3d6e297b6c6574206c3d4d6174682e737172742828705b745d2e782d705b6e5d2e78292a2a322b28705b745d2e792d705b6e5d2e79292a2a32293b6f2e70757368287b646973743a6c2c706f696e743a705b6e5d7d297d6f2e736f72742828652c74293d3e652e646973742d742e64697374293b6c657420613d6f5b305d2e646973743b7665696c65647c7c286374782e6c696e6557696474683d2e352a752c4328705b745d2e782c705b745d2e792c322a7529293b666f72286c657420723d303b723c652626723c6f2e6c656e6774683b722b2b297b6c657420733d752f28332a4d6174682e706f7728312e352c7229293b7665696c65647c7c286374782e626567696e5061746828292c6374782e6d6f7665546f28705b745d2e782c705b745d2e79292c6374782e6c696e65546f286f5b725d2e706f696e742e782c6f5b725d2e706f696e742e79292c6374782e7374726f6b6528292c6374782e6c696e6557696474683d732a75293b6c657420633d312f283530302a4d6174682e706f7728322c7229293b30213d74262674257365656b65724e6f64654d6f643d3d30262628632a3d3130292c705b745d2e782b3d286f5b725d2e706f696e742e782d705b745d2e78292a632c705b745d2e792b3d286f5b725d2e706f696e742e792d705b745d2e79292a637d696628613c3d35297b696628705b745d2e783d5228312e352a7769647468292d77696474682f342c705b745d2e793d5228312e352a686569676874292d6865696768742f342c705b745d2e723d302c303d3d74297b6c657420243d72616e646f25323d3d303f6875652d31303a6875652b31303b243c303f243d3336302b243a243e333630262628242d3d333630292c6875653d242c636f6e736f6c652e6c6f672822284e6577206875653a20222b6875652b222922297d705b745d2e633d5b52283730292b32302c52283930292b31305d7d7d7d66756e6374696f6e204328652c742c6f2c6e297b6c6574206c3d303d3d6e3f3130303a36303b6374782e626567696e5061746828293b666f72286c657420613d303b613c6c3b612b2b297b6c657420723d652b6f2a4d6174682e636f7328322a4d6174682e50492a612f6c292c733d742b6f2a4d6174682e73696e28322a4d6174682e50492a612f6c293b303d3d3d613f6374782e6d6f7665546f28722c73293a6374782e6c696e65546f28722c73297d6374782e636c6f73655061746828292c303d3d6e3f6374782e7374726f6b6528293a6374782e66696c6c28297d66756e6374696f6e2063726561746550616972732865297b6c657420743d5b5d3b666f72286c6574206f3d303b6f3c28652e6c656e6774682d32292f323b6f2b2b29742e70757368287061727365496e7428652e736c69636528322b322a6f2c342b322a6f292c313629293b72657475726e20747d66756e6374696f6e2067657456616c756528652c74297b696628303d3d3d746f6b656e456e74726f707950616972732e6c656e677468297468726f77204572726f7228224e6f20656e74726f70792076616c756573206c65667420696e20746f6b656e456e74726f707950616972732e22293b6c6574206f3d4d6174682e666c6f6f7228746f6b656e456e74726f707950616972735b305d2a2828742d652b31292f323536292b65293b72657475726e20746f6b656e456e74726f707950616972732e736869667428292c6f7d66756e6374696f6e207570646174654d6174746528297b646f63756d656e742e626f64792e7374796c652e6261636b67726f756e64436f6c6f723d6072676228247b31362a6d617474657d2c247b31362a6d617474657d2c247b31362a6d617474657d29607d66756e6374696f6e20726561644f75744174747269627574657328297b666f7228652822436f6c6f72204d6f6465222c303d3d636f6c6f724d6f64653f225472692d58223a313d3d636f6c6f724d6f64653f2253796e63686f6e697a6564223a323d3d636f6c6f724d6f64653f22416772656520746f20446973616767726565223a224772616469656e7422292c65282243656c6c2044657369676e222c303d3d63656c6c44657369676e3f224c696e657320262077616c6c73223a313d3d63656c6c44657369676e3f2253746172747261696c223a323d3d63656c6c44657369676e3f22506f70636f726e223a333d3d63656c6c44657369676e3f22536861726473223a22496e76697369626c6522292c652822436f6e6e656374696f6e73222c323d3d636f6e6e656374696f6e733f224d696e696d616c223a343d3d636f6e6e656374696f6e733f22496e7465726d656469617465223a224162756e64616e7422292c6528224d6f6465222c303d3d6d6f64653f22457068656d6572616c223a313d3d6d6f64653f22456e647572696e67223a323d3d6d6f64653f225665696c6564223a333d3d6d6f64653f22457068656d6572616c204672656e7a79223a22456e647572696e67204672656e7a7922292c65282256696577222c353d3d6e6f6465733f224d6163726f223a32303d3d6e6f6465733f224d656469756d223a36303d3d6e6f6465733f2246756c6c223a225769646522292c65282263656c6c44796e616d6963222c303d3d63656c6c44796e616d69633f224469736372656574223a313d3d63656c6c44796e616d69633f2241646a6163656e74223a22496e746572776f76656e22292c6528225374726f6b65222c303d3d746869636b6e6573733f224c69676874223a313d3d746869636b6e6573733f22526567756c6172223a22426f6c6422292c636f6e736f6c652e6c6f67282222292c636f6e736f6c652e6c6f672822232323232323232323232323232323232323232323232322292c636f6e736f6c652e6c6f672822415454524942555445533a22292c693d303b693c617474726962757465732e6c656e6774683b692b2b29636f6e736f6c652e6c6f6728617474726962757465735b695d2e74726169745f747970652b223a20222b617474726962757465735b695d2e76616c7565293b66756e6374696f6e206528652c74297b22626f6f6c65616e223d3d747970656f662074262628743d742e746f537472696e672829292c617474726962757465732e70757368287b74726169745f747970653a652c76616c75653a747d297d636f6e736f6c652e6c6f672822232323232323232323232323232323232323232323232322292c636f6e736f6c652e6c6f67282222292c73657373696f6e53746f726167652e7365744974656d282261747472696275746573222c4a534f4e2e737472696e67696679286174747269627574657329297d736574757028292c72657175657374416e696d6174696f6e4672616d652864726177292c63616e7661732e6164644576656e744c697374656e6572282264626c636c69636b222c66756e6374696f6e2865297b636f6e736f6c652e6c6f67282243616e76617320646f75626c652d636c69636b65643a222c65292c7061757365643d217061757365647d292c646f63756d656e742e6164644576656e744c697374656e657228226b6579646f776e222c66756e6374696f6e2865297b6966282220223d3d3d652e6b6579297061757365643d217061757365643b656c7365206966282273223d3d3d652e6b65797c7c2253223d3d3d652e6b6579297b6c657420743d646f63756d656e742e637265617465456c656d656e7428226122293b742e646f776e6c6f61643d604d657474612d247b617274776f726b2e746f6b656e49447d2e706e67602c742e687265663d63616e7661732e746f4461746155524c28292c742e636c69636b28297d656c7365223c223d3d3d652e6b65793f2830213d6d617474653f6d617474652d2d3a6d617474653d31362c7570646174654d617474652829293a223e223d3d3d652e6b65792626283136213d6d617474653f6d617474652b2b3a6d617474653d302c7570646174654d617474652829297d297b226e616d65223a20224d65747461222c226465736372697074696f6e223a20224d65747461206279204d6174746f222c226172746973744e616d65223a20224d6174746f222c2277656273697465223a202268747470733a2f2f6d6174746f2e78797a2f222c226c6963656e7365223a202243432042592d4e4320342e30222c227363726970744c696272617279223a20226e61222c22617370656374526174696f223a202231363a39227da2646970667358221220ca944e34895c0fa2e677b0e9d847c337e40ccc743fcec4adbdf03db6e725bbff64736f6c63430008130033",
  "devdoc": {
    "kind": "dev",
    "methods": {
      "stringAtSlot(uint8)": {
        "params": {
          "_slot": "the slot to get the string at"
        },
        "returns": {
          "_0": "string the string stored at the specified slot"
        }
      }
    },
    "version": 1
  },
  "userdoc": {
    "kind": "user",
    "methods": {
      "stringAtSlot(uint8)": {
        "notice": "Returns the string stored at the specific slot Reverts if an invalid slot is provided"
      }
    },
    "version": 1
  },
  "storageLayout": {
    "storage": [],
    "types": null
  }
}