{
  "address": "0xF09D7F5b01a9ef13E386881fA4185296552bE0Ae",
  "abi": [
    {
      "inputs": [
        {
          "internalType": "address",
          "name": "_projectRegistry",
          "type": "address"
        },
        {
          "components": [
            {
              "internalType": "string[]",
              "name": "traitTypeNames",
              "type": "string[]"
            },
            {
              "internalType": "string[]",
              "name": "traitTypeValues",
              "type": "string[]"
            },
            {
              "internalType": "string[]",
              "name": "traitNames",
              "type": "string[]"
            },
            {
              "internalType": "string[]",
              "name": "traitValues",
              "type": "string[]"
            },
            {
              "internalType": "uint256[]",
              "name": "traitTypeIndexes",
              "type": "uint256[]"
            },
            {
              "internalType": "uint256[]",
              "name": "traitMaxSupplys",
              "type": "uint256[]"
            }
          ],
          "internalType": "struct ITraits.TraitsSetup",
          "name": "_traitsSetup",
          "type": "tuple"
        },
        {
          "internalType": "address[]",
          "name": "_primarySalesPayees",
          "type": "address[]"
        },
        {
          "internalType": "uint256[]",
          "name": "_primarySalesShares",
          "type": "uint256[]"
        },
        {
          "internalType": "address[]",
          "name": "_whitelistAddresses",
          "type": "address[]"
        },
        {
          "internalType": "uint256[]",
          "name": "_whitelistAmounts",
          "type": "uint256[]"
        }
      ],
      "stateMutability": "nonpayable",
      "type": "constructor"
    },
    {
      "inputs": [],
      "name": "AlreadySetup",
      "type": "error"
    },
    {
      "inputs": [],
      "name": "AuctionNotLive",
      "type": "error"
    },
    {
      "inputs": [],
      "name": "InvalidArrayLengths",
      "type": "error"
    },
    {
      "inputs": [],
      "name": "InvalidAuction",
      "type": "error"
    },
    {
      "inputs": [],
      "name": "InvalidEthAmount",
      "type": "error"
    },
    {
      "inputs": [],
      "name": "InvalidTokenId",
      "type": "error"
    },
    {
      "inputs": [],
      "name": "InvalidTraits",
      "type": "error"
    },
    {
      "inputs": [],
      "name": "MaxSupply",
      "type": "error"
    },
    {
      "inputs": [],
      "name": "NoWhitelistMints",
      "type": "error"
    },
    {
      "inputs": [],
      "name": "NotSetup",
      "type": "error"
    },
    {
      "inputs": [],
      "name": "OnlyArtwork",
      "type": "error"
    },
    {
      "inputs": [],
      "name": "OnlyProjectRegistry",
      "type": "error"
    },
    {
      "inputs": [],
      "name": "TraitsSaleStartTime",
      "type": "error"
    },
    {
      "inputs": [],
      "name": "WhitelistStartTime",
      "type": "error"
    },
    {
      "anonymous": false,
      "inputs": [
        {
          "indexed": true,
          "internalType": "address",
          "name": "account",
          "type": "address"
        },
        {
          "indexed": true,
          "internalType": "address",
          "name": "operator",
          "type": "address"
        },
        {
          "indexed": false,
          "internalType": "bool",
          "name": "approved",
          "type": "bool"
        }
      ],
      "name": "ApprovalForAll",
      "type": "event"
    },
    {
      "anonymous": false,
      "inputs": [
        {
          "indexed": false,
          "internalType": "uint256",
          "name": "_auctionStartTime",
          "type": "uint256"
        },
        {
          "indexed": false,
          "internalType": "uint256",
          "name": "_auctionEndTime",
          "type": "uint256"
        },
        {
          "indexed": false,
          "internalType": "uint256",
          "name": "_auctionStartPrice",
          "type": "uint256"
        },
        {
          "indexed": false,
          "internalType": "uint256",
          "name": "_auctionEndPrice",
          "type": "uint256"
        },
        {
          "indexed": false,
          "internalType": "uint256",
          "name": "_auctionPriceSteps",
          "type": "uint256"
        },
        {
          "indexed": false,
          "internalType": "bool",
          "name": "_auctionExponential",
          "type": "bool"
        },
        {
          "indexed": false,
          "internalType": "uint256",
          "name": "_traitsSaleStartTime",
          "type": "uint256"
        },
        {
          "indexed": false,
          "internalType": "uint256",
          "name": "_whitelistStartTime",
          "type": "uint256"
        }
      ],
      "name": "AuctionScheduled",
      "type": "event"
    },
    {
      "anonymous": false,
      "inputs": [
        {
          "indexed": true,
          "internalType": "contract IERC20",
          "name": "token",
          "type": "address"
        },
        {
          "indexed": false,
          "internalType": "address",
          "name": "to",
          "type": "address"
        },
        {
          "indexed": false,
          "internalType": "uint256",
          "name": "amount",
          "type": "uint256"
        }
      ],
      "name": "ERC20PaymentReleased",
      "type": "event"
    },
    {
      "anonymous": false,
      "inputs": [
        {
          "indexed": false,
          "internalType": "address",
          "name": "account",
          "type": "address"
        },
        {
          "indexed": false,
          "internalType": "uint256",
          "name": "shares",
          "type": "uint256"
        }
      ],
      "name": "PayeeAdded",
      "type": "event"
    },
    {
      "anonymous": false,
      "inputs": [
        {
          "indexed": false,
          "internalType": "address",
          "name": "from",
          "type": "address"
        },
        {
          "indexed": false,
          "internalType": "uint256",
          "name": "amount",
          "type": "uint256"
        }
      ],
      "name": "PaymentReceived",
      "type": "event"
    },
    {
      "anonymous": false,
      "inputs": [
        {
          "indexed": false,
          "internalType": "address",
          "name": "to",
          "type": "address"
        },
        {
          "indexed": false,
          "internalType": "uint256",
          "name": "amount",
          "type": "uint256"
        }
      ],
      "name": "PaymentReleased",
      "type": "event"
    },
    {
      "anonymous": false,
      "inputs": [
        {
          "indexed": true,
          "internalType": "address",
          "name": "recipient",
          "type": "address"
        },
        {
          "indexed": false,
          "internalType": "uint256[]",
          "name": "traitTokenIds",
          "type": "uint256[]"
        },
        {
          "indexed": false,
          "internalType": "uint256[]",
          "name": "traitAmounts",
          "type": "uint256[]"
        }
      ],
      "name": "TraitsMinted",
      "type": "event"
    },
    {
      "anonymous": false,
      "inputs": [
        {
          "indexed": true,
          "internalType": "address",
          "name": "operator",
          "type": "address"
        },
        {
          "indexed": true,
          "internalType": "address",
          "name": "from",
          "type": "address"
        },
        {
          "indexed": true,
          "internalType": "address",
          "name": "to",
          "type": "address"
        },
        {
          "indexed": false,
          "internalType": "uint256[]",
          "name": "ids",
          "type": "uint256[]"
        },
        {
          "indexed": false,
          "internalType": "uint256[]",
          "name": "values",
          "type": "uint256[]"
        }
      ],
      "name": "TransferBatch",
      "type": "event"
    },
    {
      "anonymous": false,
      "inputs": [
        {
          "indexed": true,
          "internalType": "address",
          "name": "operator",
          "type": "address"
        },
        {
          "indexed": true,
          "internalType": "address",
          "name": "from",
          "type": "address"
        },
        {
          "indexed": true,
          "internalType": "address",
          "name": "to",
          "type": "address"
        },
        {
          "indexed": false,
          "internalType": "uint256",
          "name": "id",
          "type": "uint256"
        },
        {
          "indexed": false,
          "internalType": "uint256",
          "name": "value",
          "type": "uint256"
        }
      ],
      "name": "TransferSingle",
      "type": "event"
    },
    {
      "anonymous": false,
      "inputs": [
        {
          "indexed": false,
          "internalType": "string",
          "name": "value",
          "type": "string"
        },
        {
          "indexed": true,
          "internalType": "uint256",
          "name": "id",
          "type": "uint256"
        }
      ],
      "name": "URI",
      "type": "event"
    },
    {
      "inputs": [],
      "name": "VERSION",
      "outputs": [
        {
          "internalType": "string",
          "name": "",
          "type": "string"
        }
      ],
      "stateMutability": "view",
      "type": "function"
    },
    {
      "inputs": [],
      "name": "artwork",
      "outputs": [
        {
          "internalType": "contract IArtwork",
          "name": "",
          "type": "address"
        }
      ],
      "stateMutability": "view",
      "type": "function"
    },
    {
      "inputs": [],
      "name": "auctionEndPrice",
      "outputs": [
        {
          "internalType": "uint256",
          "name": "",
          "type": "uint256"
        }
      ],
      "stateMutability": "view",
      "type": "function"
    },
    {
      "inputs": [],
      "name": "auctionEndTime",
      "outputs": [
        {
          "internalType": "uint256",
          "name": "",
          "type": "uint256"
        }
      ],
      "stateMutability": "view",
      "type": "function"
    },
    {
      "inputs": [],
      "name": "auctionExponential",
      "outputs": [
        {
          "internalType": "bool",
          "name": "",
          "type": "bool"
        }
      ],
      "stateMutability": "view",
      "type": "function"
    },
    {
      "inputs": [],
      "name": "auctionPriceSteps",
      "outputs": [
        {
          "internalType": "uint256",
          "name": "",
          "type": "uint256"
        }
      ],
      "stateMutability": "view",
      "type": "function"
    },
    {
      "inputs": [],
      "name": "auctionStartPrice",
      "outputs": [
        {
          "internalType": "uint256",
          "name": "",
          "type": "uint256"
        }
      ],
      "stateMutability": "view",
      "type": "function"
    },
    {
      "inputs": [],
      "name": "auctionStartTime",
      "outputs": [
        {
          "internalType": "uint256",
          "name": "",
          "type": "uint256"
        }
      ],
      "stateMutability": "view",
      "type": "function"
    },
    {
      "inputs": [
        {
          "internalType": "address",
          "name": "account",
          "type": "address"
        },
        {
          "internalType": "uint256",
          "name": "id",
          "type": "uint256"
        }
      ],
      "name": "balanceOf",
      "outputs": [
        {
          "internalType": "uint256",
          "name": "",
          "type": "uint256"
        }
      ],
      "stateMutability": "view",
      "type": "function"
    },
    {
      "inputs": [
        {
          "internalType": "address[]",
          "name": "accounts",
          "type": "address[]"
        },
        {
          "internalType": "uint256[]",
          "name": "ids",
          "type": "uint256[]"
        }
      ],
      "name": "balanceOfBatch",
      "outputs": [
        {
          "internalType": "uint256[]",
          "name": "",
          "type": "uint256[]"
        }
      ],
      "stateMutability": "view",
      "type": "function"
    },
    {
      "inputs": [
        {
          "internalType": "uint256",
          "name": "id",
          "type": "uint256"
        }
      ],
      "name": "exists",
      "outputs": [
        {
          "internalType": "bool",
          "name": "",
          "type": "bool"
        }
      ],
      "stateMutability": "view",
      "type": "function"
    },
    {
      "inputs": [
        {
          "internalType": "address",
          "name": "account",
          "type": "address"
        },
        {
          "internalType": "address",
          "name": "operator",
          "type": "address"
        }
      ],
      "name": "isApprovedForAll",
      "outputs": [
        {
          "internalType": "bool",
          "name": "",
          "type": "bool"
        }
      ],
      "stateMutability": "view",
      "type": "function"
    },
    {
      "inputs": [
        {
          "internalType": "uint256",
          "name": "_tokenId",
          "type": "uint256"
        }
      ],
      "name": "maxSupply",
      "outputs": [
        {
          "internalType": "uint256",
          "name": "_maxSupply",
          "type": "uint256"
        }
      ],
      "stateMutability": "view",
      "type": "function"
    },
    {
      "inputs": [
        {
          "internalType": "address",
          "name": "_recipient",
          "type": "address"
        },
        {
          "internalType": "uint256[]",
          "name": "_traitTokenIds",
          "type": "uint256[]"
        },
        {
          "internalType": "uint256[]",
          "name": "_traitAmounts",
          "type": "uint256[]"
        }
      ],
      "name": "mintTraits",
      "outputs": [],
      "stateMutability": "payable",
      "type": "function"
    },
    {
      "inputs": [
        {
          "internalType": "address",
          "name": "_artistAddress",
          "type": "address"
        },
        {
          "internalType": "uint256[]",
          "name": "_traitTokenIds",
          "type": "uint256[]"
        }
      ],
      "name": "mintTraitsArtistProof",
      "outputs": [],
      "stateMutability": "nonpayable",
      "type": "function"
    },
    {
      "inputs": [
        {
          "internalType": "address",
          "name": "_recipient",
          "type": "address"
        },
        {
          "internalType": "uint256[]",
          "name": "_traitTokenIds",
          "type": "uint256[]"
        }
      ],
      "name": "mintTraitsWhitelist",
      "outputs": [],
      "stateMutability": "nonpayable",
      "type": "function"
    },
    {
      "inputs": [
        {
          "internalType": "uint256",
          "name": "index",
          "type": "uint256"
        }
      ],
      "name": "payee",
      "outputs": [
        {
          "internalType": "address",
          "name": "",
          "type": "address"
        }
      ],
      "stateMutability": "view",
      "type": "function"
    },
    {
      "inputs": [],
      "name": "projectRegistry",
      "outputs": [
        {
          "internalType": "contract IProjectRegistry",
          "name": "",
          "type": "address"
        }
      ],
      "stateMutability": "view",
      "type": "function"
    },
    {
      "inputs": [
        {
          "internalType": "address",
          "name": "account",
          "type": "address"
        }
      ],
      "name": "releasable",
      "outputs": [
        {
          "internalType": "uint256",
          "name": "",
          "type": "uint256"
        }
      ],
      "stateMutability": "view",
      "type": "function"
    },
    {
      "inputs": [
        {
          "internalType": "contract IERC20",
          "name": "token",
          "type": "address"
        },
        {
          "internalType": "address",
          "name": "account",
          "type": "address"
        }
      ],
      "name": "releasable",
      "outputs": [
        {
          "internalType": "uint256",
          "name": "",
          "type": "uint256"
        }
      ],
      "stateMutability": "view",
      "type": "function"
    },
    {
      "inputs": [
        {
          "internalType": "address payable",
          "name": "account",
          "type": "address"
        }
      ],
      "name": "release",
      "outputs": [],
      "stateMutability": "nonpayable",
      "type": "function"
    },
    {
      "inputs": [
        {
          "internalType": "contract IERC20",
          "name": "token",
          "type": "address"
        },
        {
          "internalType": "address",
          "name": "account",
          "type": "address"
        }
      ],
      "name": "release",
      "outputs": [],
      "stateMutability": "nonpayable",
      "type": "function"
    },
    {
      "inputs": [
        {
          "internalType": "contract IERC20",
          "name": "token",
          "type": "address"
        },
        {
          "internalType": "address",
          "name": "account",
          "type": "address"
        }
      ],
      "name": "released",
      "outputs": [
        {
          "internalType": "uint256",
          "name": "",
          "type": "uint256"
        }
      ],
      "stateMutability": "view",
      "type": "function"
    },
    {
      "inputs": [
        {
          "internalType": "address",
          "name": "account",
          "type": "address"
        }
      ],
      "name": "released",
      "outputs": [
        {
          "internalType": "uint256",
          "name": "",
          "type": "uint256"
        }
      ],
      "stateMutability": "view",
      "type": "function"
    },
    {
      "inputs": [
        {
          "internalType": "uint256",
          "name": "tokenId",
          "type": "uint256"
        },
        {
          "internalType": "uint256",
          "name": "salePrice",
          "type": "uint256"
        }
      ],
      "name": "royaltyInfo",
      "outputs": [
        {
          "internalType": "address",
          "name": "",
          "type": "address"
        },
        {
          "internalType": "uint256",
          "name": "",
          "type": "uint256"
        }
      ],
      "stateMutability": "view",
      "type": "function"
    },
    {
      "inputs": [
        {
          "internalType": "address",
          "name": "from",
          "type": "address"
        },
        {
          "internalType": "address",
          "name": "to",
          "type": "address"
        },
        {
          "internalType": "uint256[]",
          "name": "ids",
          "type": "uint256[]"
        },
        {
          "internalType": "uint256[]",
          "name": "amounts",
          "type": "uint256[]"
        },
        {
          "internalType": "bytes",
          "name": "data",
          "type": "bytes"
        }
      ],
      "name": "safeBatchTransferFrom",
      "outputs": [],
      "stateMutability": "nonpayable",
      "type": "function"
    },
    {
      "inputs": [
        {
          "internalType": "address",
          "name": "from",
          "type": "address"
        },
        {
          "internalType": "address",
          "name": "to",
          "type": "address"
        },
        {
          "internalType": "uint256",
          "name": "id",
          "type": "uint256"
        },
        {
          "internalType": "uint256",
          "name": "amount",
          "type": "uint256"
        },
        {
          "internalType": "bytes",
          "name": "data",
          "type": "bytes"
        }
      ],
      "name": "safeTransferFrom",
      "outputs": [],
      "stateMutability": "nonpayable",
      "type": "function"
    },
    {
      "inputs": [
        {
          "internalType": "address",
          "name": "operator",
          "type": "address"
        },
        {
          "internalType": "bool",
          "name": "approved",
          "type": "bool"
        }
      ],
      "name": "setApprovalForAll",
      "outputs": [],
      "stateMutability": "nonpayable",
      "type": "function"
    },
    {
      "inputs": [
        {
          "internalType": "bytes",
          "name": "_data",
          "type": "bytes"
        }
      ],
      "name": "setup",
      "outputs": [],
      "stateMutability": "nonpayable",
      "type": "function"
    },
    {
      "inputs": [
        {
          "internalType": "address",
          "name": "account",
          "type": "address"
        }
      ],
      "name": "shares",
      "outputs": [
        {
          "internalType": "uint256",
          "name": "",
          "type": "uint256"
        }
      ],
      "stateMutability": "view",
      "type": "function"
    },
    {
      "inputs": [
        {
          "internalType": "bytes4",
          "name": "interfaceId",
          "type": "bytes4"
        }
      ],
      "name": "supportsInterface",
      "outputs": [
        {
          "internalType": "bool",
          "name": "",
          "type": "bool"
        }
      ],
      "stateMutability": "view",
      "type": "function"
    },
    {
      "inputs": [
        {
          "internalType": "contract IERC20",
          "name": "token",
          "type": "address"
        }
      ],
      "name": "totalReleased",
      "outputs": [
        {
          "internalType": "uint256",
          "name": "",
          "type": "uint256"
        }
      ],
      "stateMutability": "view",
      "type": "function"
    },
    {
      "inputs": [],
      "name": "totalReleased",
      "outputs": [
        {
          "internalType": "uint256",
          "name": "",
          "type": "uint256"
        }
      ],
      "stateMutability": "view",
      "type": "function"
    },
    {
      "inputs": [],
      "name": "totalShares",
      "outputs": [
        {
          "internalType": "uint256",
          "name": "",
          "type": "uint256"
        }
      ],
      "stateMutability": "view",
      "type": "function"
    },
    {
      "inputs": [
        {
          "internalType": "uint256",
          "name": "id",
          "type": "uint256"
        }
      ],
      "name": "totalSupply",
      "outputs": [
        {
          "internalType": "uint256",
          "name": "",
          "type": "uint256"
        }
      ],
      "stateMutability": "view",
      "type": "function"
    },
    {
      "inputs": [
        {
          "internalType": "uint256",
          "name": "_tokenId",
          "type": "uint256"
        }
      ],
      "name": "trait",
      "outputs": [
        {
          "internalType": "string",
          "name": "_traitName",
          "type": "string"
        },
        {
          "internalType": "string",
          "name": "_traitValue",
          "type": "string"
        },
        {
          "internalType": "string",
          "name": "_traitTypeName",
          "type": "string"
        },
        {
          "internalType": "string",
          "name": "_traitTypeValue",
          "type": "string"
        }
      ],
      "stateMutability": "view",
      "type": "function"
    },
    {
      "inputs": [],
      "name": "traitPrice",
      "outputs": [
        {
          "internalType": "uint256",
          "name": "",
          "type": "uint256"
        }
      ],
      "stateMutability": "view",
      "type": "function"
    },
    {
      "inputs": [],
      "name": "traitPriceStep",
      "outputs": [
        {
          "internalType": "uint256",
          "name": "",
          "type": "uint256"
        }
      ],
      "stateMutability": "view",
      "type": "function"
    },
    {
      "inputs": [],
      "name": "traitTypes",
      "outputs": [
        {
          "internalType": "string[]",
          "name": "_traitTypeNames",
          "type": "string[]"
        },
        {
          "internalType": "string[]",
          "name": "_traitTypeValues",
          "type": "string[]"
        }
      ],
      "stateMutability": "view",
      "type": "function"
    },
    {
      "inputs": [],
      "name": "traits",
      "outputs": [
        {
          "internalType": "uint256[]",
          "name": "_traitTokenIds",
          "type": "uint256[]"
        },
        {
          "internalType": "string[]",
          "name": "_traitNames",
          "type": "string[]"
        },
        {
          "internalType": "string[]",
          "name": "_traitValues",
          "type": "string[]"
        },
        {
          "internalType": "uint256[]",
          "name": "_traitTypeIndexes",
          "type": "uint256[]"
        },
        {
          "internalType": "string[]",
          "name": "_traitTypeNames",
          "type": "string[]"
        },
        {
          "internalType": "string[]",
          "name": "_traitTypeValues",
          "type": "string[]"
        },
        {
          "internalType": "uint256[]",
          "name": "_traitTotalSupplys",
          "type": "uint256[]"
        },
        {
          "internalType": "uint256[]",
          "name": "_traitMaxSupplys",
          "type": "uint256[]"
        }
      ],
      "stateMutability": "view",
      "type": "function"
    },
    {
      "inputs": [],
      "name": "traitsSaleStartTime",
      "outputs": [
        {
          "internalType": "uint256",
          "name": "",
          "type": "uint256"
        }
      ],
      "stateMutability": "view",
      "type": "function"
    },
    {
      "inputs": [
        {
          "internalType": "address",
          "name": "_caller",
          "type": "address"
        },
        {
          "internalType": "uint256[]",
          "name": "_traitTokenIds",
          "type": "uint256[]"
        }
      ],
      "name": "transferTraitsToMintArtwork",
      "outputs": [],
      "stateMutability": "nonpayable",
      "type": "function"
    },
    {
      "inputs": [
        {
          "internalType": "uint256",
          "name": "_auctionStartTime",
          "type": "uint256"
        },
        {
          "internalType": "uint256",
          "name": "_auctionEndTime",
          "type": "uint256"
        },
        {
          "internalType": "uint256",
          "name": "_auctionStartPrice",
          "type": "uint256"
        },
        {
          "internalType": "uint256",
          "name": "_auctionEndPrice",
          "type": "uint256"
        },
        {
          "internalType": "uint256",
          "name": "_auctionPriceSteps",
          "type": "uint256"
        },
        {
          "internalType": "bool",
          "name": "_auctionExponential",
          "type": "bool"
        },
        {
          "internalType": "uint256",
          "name": "_traitsSaleStartTime",
          "type": "uint256"
        },
        {
          "internalType": "uint256",
          "name": "_whitelistStartTime",
          "type": "uint256"
        }
      ],
      "name": "updateAuction",
      "outputs": [],
      "stateMutability": "nonpayable",
      "type": "function"
    },
    {
      "inputs": [
        {
          "internalType": "uint256",
          "name": "_tokenId",
          "type": "uint256"
        }
      ],
      "name": "uri",
      "outputs": [
        {
          "internalType": "string",
          "name": "",
          "type": "string"
        }
      ],
      "stateMutability": "view",
      "type": "function"
    },
    {
      "inputs": [
        {
          "internalType": "address",
          "name": "_user",
          "type": "address"
        }
      ],
      "name": "whitelistMintsRemaining",
      "outputs": [
        {
          "internalType": "uint256",
          "name": "",
          "type": "uint256"
        }
      ],
      "stateMutability": "view",
      "type": "function"
    },
    {
      "inputs": [],
      "name": "whitelistStartTime",
      "outputs": [
        {
          "internalType": "uint256",
          "name": "",
          "type": "uint256"
        }
      ],
      "stateMutability": "view",
      "type": "function"
    },
    {
      "stateMutability": "payable",
      "type": "receive"
    }
  ],
  "transactionHash": "0xbe99fc26fee6a457c04713ebacbbce6c3a18861a99147db998c5184bea58ceef",
  "args": [
    "0x73457eA2661d36Acb7879995a738E8853aFC2547",
    {
      "traitTypeNames": [
        "View",
        "Connections",
        "Cell Dynamic",
        "Cell Design",
        "Color Mode",
        "Stroke",
        "Mode"
      ],
      "traitTypeValues": [
        "nodes",
        "connections",
        "cellDynamic",
        "cellDesign",
        "colorMode",
        "thickness",
        "mode"
      ],
      "traitNames": [
        "Macro",
        "Medium",
        "Full",
        "Wide",
        "Minimal",
        "Intermediate",
        "Abundant",
        "Discreet",
        "Adjacent",
        "Interwoven",
        "Lines & Walls",
        "Startrail",
        "Popcorn",
        "Shards",
        "Invisible",
        "Tri-X",
        "Synchronized",
        "Agree To Disagree",
        "Gradient",
        "Light",
        "Regular",
        "Bold",
        "Ephemeral",
        "Enduring",
        "Veiled",
        "Ephemeral Frenzy",
        "Enduring Frenzy"
      ],
      "traitValues": [
        "5",
        "20",
        "60",
        "125",
        "2",
        "4",
        "10",
        "0",
        "1",
        "2",
        "0",
        "1",
        "2",
        "3",
        "4",
        "0",
        "1",
        "2",
        "3",
        "0",
        "1",
        "2",
        "0",
        "1",
        "2",
        "3",
        "4"
      ],
      "traitTypeIndexes": [
        0,
        0,
        0,
        0,
        1,
        1,
        1,
        2,
        2,
        2,
        3,
        3,
        3,
        3,
        3,
        4,
        4,
        4,
        4,
        5,
        5,
        5,
        6,
        6,
        6,
        6,
        6
      ],
      "traitMaxSupplys": [
        "72",
        "128",
        "120",
        "80",
        "104",
        "136",
        "160",
        "96",
        "200",
        "104",
        "120",
        "104",
        "88",
        "48",
        "40",
        "120",
        "120",
        "96",
        "64",
        "104",
        "160",
        "136",
        "128",
        "96",
        "80",
        "64",
        "32"
      ]
    },
    [
      "0xAa9D46AE079851116967c6573f961B304095C34a"
    ],
    [
      "100"
    ],
    [
      "0xAa9D46AE079851116967c6573f961B304095C34a"
    ],
    [
      "100"
    ]
  ],
  "numDeployments": 1,
  "solcInputHash": "91710114290dca0c547d7cd4877d9d8a",
  "bytecode": "0x60806040523480156200001157600080fd5b5060405162005a0938038062005a09833981016040819052620000349162000a46565b83836040518060200160405280600081525062000057816200027260201b60201c565b508051825114620000ca5760405162461bcd60e51b815260206004820152603260248201527f5061796d656e7453706c69747465723a2070617965657320616e6420736861726044820152710cae640d8cadccee8d040dad2e6dac2e8c6d60731b60648201526084015b60405180910390fd5b60008251116200011d5760405162461bcd60e51b815260206004820152601a60248201527f5061796d656e7453706c69747465723a206e6f207061796565730000000000006044820152606401620000c1565b60005b825181101562000189576200017483828151811062000143576200014362000b39565b602002602001015183838151811062000160576200016062000b39565b60200260200101516200028460201b60201c565b80620001808162000b65565b91505062000120565b5050508051825114620001af5760405163a9854bc960e01b815260040160405180910390fd5b600e80546001600160a01b0319166001600160a01b0388161790558451602086015160408701516060880151608089015160a08a0151620001f595949392919062000472565b60005b8251811015620002655781818151811062000217576200021762000b39565b60200260200101516018600085848151811062000238576200023862000b39565b6020908102919091018101516001600160a01b0316825281019190915260400160002055600101620001f8565b5050505050505062000cf8565b600462000280828262000c10565b5050565b6001600160a01b038216620002f15760405162461bcd60e51b815260206004820152602c60248201527f5061796d656e7453706c69747465723a206163636f756e74206973207468652060448201526b7a65726f206164647265737360a01b6064820152608401620000c1565b60008111620003435760405162461bcd60e51b815260206004820152601d60248201527f5061796d656e7453706c69747465723a207368617265732061726520300000006044820152606401620000c1565b6001600160a01b03821660009081526008602052604090205415620003bf5760405162461bcd60e51b815260206004820152602b60248201527f5061796d656e7453706c69747465723a206163636f756e7420616c726561647960448201526a206861732073686172657360a81b6064820152608401620000c1565b600a8054600181019091557fc65a7bb8d6351c1cf70c95a316cc6a92839c986682d98bc35f958f4883f9d2a80180546001600160a01b0319166001600160a01b03841690811790915560009081526008602052604090208190556006546200042990829062000cdc565b600655604080516001600160a01b0384168152602081018390527f40c340f65e17194d14ddddb073d3c9f888e3cb52b5aae0c6c7706b4fbc905fac910160405180910390a15050565b855115806200048057508351155b806200048e57508451865114155b806200049c57508251845114155b80620004aa57508151845114155b80620004b857508051845114155b15620004d75760405163a9854bc960e01b815260040160405180910390fd5b60005b865181101562000583576016604051806040016040528089848151811062000506576200050662000b39565b6020026020010151815260200188848151811062000528576200052862000b39565b60209081029190910181015190915282546001810184556000938452922081519192600202019081906200055d908262000c10565b506020820151600182019062000574908262000c10565b505050806001019050620004da565b5060005b8451811015620006855760176040518060800160405280878481518110620005b357620005b362000b39565b60200260200101518152602001868481518110620005d557620005d562000b39565b60200260200101518152602001858481518110620005f757620005f762000b39565b6020026020010151815260200184848151811062000619576200061962000b39565b60209081029190910181015190915282546001810184556000938452922081519192600402019081906200064e908262000c10565b506020820151600182019062000665908262000c10565b506040820151600282015560609091015160039091015560010162000587565b50505050505050565b80516001600160a01b0381168114620006a657600080fd5b919050565b634e487b7160e01b600052604160045260246000fd5b60405160c081016001600160401b0381118282101715620006e657620006e6620006ab565b60405290565b604051601f8201601f191681016001600160401b0381118282101715620007175762000717620006ab565b604052919050565b60006001600160401b038211156200073b576200073b620006ab565b5060051b60200190565b6000601f83818401126200075857600080fd5b82516020620007716200076b836200071f565b620006ec565b82815260059290921b850181019181810190878411156200079157600080fd5b8287015b848110156200084a5780516001600160401b0380821115620007b75760008081fd5b818a0191508a603f830112620007cd5760008081fd5b8582015181811115620007e457620007e4620006ab565b620007f7818a01601f19168801620006ec565b915080825260408c81838601011115620008115760008081fd5b60005b8281101562000831578481018201518482018a0152880162000814565b5050600090820187015284525091830191830162000795565b50979650505050505050565b600082601f8301126200086857600080fd5b815160206200087b6200076b836200071f565b82815260059290921b840181019181810190868411156200089b57600080fd5b8286015b84811015620008b857805183529183019183016200089f565b509695505050505050565b600060c08284031215620008d657600080fd5b620008e0620006c1565b82519091506001600160401b0380821115620008fb57600080fd5b620009098583860162000745565b835260208401519150808211156200092057600080fd5b6200092e8583860162000745565b602084015260408401519150808211156200094857600080fd5b620009568583860162000745565b604084015260608401519150808211156200097057600080fd5b6200097e8583860162000745565b606084015260808401519150808211156200099857600080fd5b620009a68583860162000856565b608084015260a0840151915080821115620009c057600080fd5b50620009cf8482850162000856565b60a08301525092915050565b600082601f830112620009ed57600080fd5b8151602062000a006200076b836200071f565b82815260059290921b8401810191818101908684111562000a2057600080fd5b8286015b84811015620008b85762000a38816200068e565b835291830191830162000a24565b60008060008060008060c0878903121562000a6057600080fd5b62000a6b876200068e565b60208801519096506001600160401b038082111562000a8957600080fd5b62000a978a838b01620008c3565b9650604089015191508082111562000aae57600080fd5b62000abc8a838b01620009db565b9550606089015191508082111562000ad357600080fd5b62000ae18a838b0162000856565b9450608089015191508082111562000af857600080fd5b62000b068a838b01620009db565b935060a089015191508082111562000b1d57600080fd5b5062000b2c89828a0162000856565b9150509295509295509295565b634e487b7160e01b600052603260045260246000fd5b634e487b7160e01b600052601160045260246000fd5b60006001820162000b7a5762000b7a62000b4f565b5060010190565b600181811c9082168062000b9657607f821691505b60208210810362000bb757634e487b7160e01b600052602260045260246000fd5b50919050565b601f82111562000c0b57600081815260208120601f850160051c8101602086101562000be65750805b601f850160051c820191505b8181101562000c075782815560010162000bf2565b5050505b505050565b81516001600160401b0381111562000c2c5762000c2c620006ab565b62000c448162000c3d845462000b81565b8462000bbd565b602080601f83116001811462000c7c576000841562000c635750858301515b600019600386901b1c1916600185901b17855562000c07565b600085815260208120601f198616915b8281101562000cad5788860151825594840194600190910190840162000c8c565b508582101562000ccc5787850151600019600388901b60f8161c191681555b5050505050600190811b01905550565b8082018082111562000cf25762000cf262000b4f565b92915050565b614d018062000d086000396000f3fe6080604052600436106102ff5760003560e01c80638b83209b1161018f578063d756985b116100e1578063edeb832a1161008a578063fb37f91f11610064578063fb37f91f14610977578063ffa1ad741461098c578063ffc1613a146109d557600080fd5b8063edeb832a1461090d578063f242432a14610927578063f3457fdf1461094757600080fd5b8063e33b7de3116100bb578063e33b7de314610899578063e985e9c5146108ae578063eb54f9ec146108f757600080fd5b8063d756985b14610824578063d79779b21461083a578063e1fc334f1461087057600080fd5b8063a22cb46511610143578063bd85b0391161011d578063bd85b039146107a1578063c45ac050146107ce578063ce7c2ac2146107ee57600080fd5b8063a22cb46514610741578063a3f8eace14610761578063ba1693d11461078157600080fd5b80639852595c116101745780639852595c146106d55780639ded06df1461070b578063a04a6ac81461072b57600080fd5b80638b83209b1461069f5780639292caaf146106bf57600080fd5b80633f2a0f26116102535780634f558e79116101fc57806363a533de116101d657806363a533de14610649578063869f75941461066957806388392b5d1461068957600080fd5b80634f558e79146105e75780635a33d8dc146106165780635bf1af441461063657600080fd5b806348b750441161022d57806348b75044146105845780634b449cba146105a45780634e1273f4146105ba57600080fd5b80633f2a0f2614610508578063406072a91461052857806341a1f7f51461056e57600080fd5b80631f0a595b116102b55780632eb2c2d61161028f5780632eb2c2d6146104b357806337b2383f146104d35780633a98ef39146104f357600080fd5b80631f0a595b1461041457806326cc133e146104375780632a55205a1461047457600080fd5b806301ffc9a7116102e657806301ffc9a7146103955780630e89341c146103c557806319165587146103f257600080fd5b8062a9bb011461034d578062fdd58e1461037557600080fd5b36610348577f6ef95f06320e7a25a04a175ca677b7052bdd97131872c2192525a629f51be77033604080516001600160a01b0390921682523460208301520160405180910390a1005b600080fd5b34801561035957600080fd5b50610362610a0b565b6040519081526020015b60405180910390f35b34801561038157600080fd5b50610362610390366004613e7e565b610b14565b3480156103a157600080fd5b506103b56103b0366004613ec0565b610bc2565b604051901515815260200161036c565b3480156103d157600080fd5b506103e56103e0366004613edd565b610c00565b60405161036c9190613f46565b3480156103fe57600080fd5b5061041261040d366004613f59565b610d0b565b005b34801561042057600080fd5b50610429610e75565b60405161036c929190613fcb565b34801561044357600080fd5b50600d5461045c9061010090046001600160a01b031681565b6040516001600160a01b03909116815260200161036c565b34801561048057600080fd5b5061049461048f366004613ff9565b6110c8565b604080516001600160a01b03909316835260208301919091520161036c565b3480156104bf57600080fd5b506104126104ce366004614177565b611150565b3480156104df57600080fd5b506104126104ee36600461426a565b6111f2565b3480156104ff57600080fd5b50600654610362565b34801561051457600080fd5b5061041261052336600461426a565b611383565b34801561053457600080fd5b506103626105433660046142bf565b6001600160a01b039182166000908152600c6020908152604080832093909416825291909152205490565b34801561057a57600080fd5b5061036260135481565b34801561059057600080fd5b5061041261059f3660046142bf565b6113c3565b3480156105b057600080fd5b5061036260105481565b3480156105c657600080fd5b506105da6105d53660046142f8565b611557565b60405161036c9190614400565b3480156105f357600080fd5b506103b5610602366004613edd565b600090815260056020526040902054151590565b34801561062257600080fd5b50600e5461045c906001600160a01b031681565b610412610644366004614413565b611695565b34801561065557600080fd5b5061041261066436600461426a565b61190b565b34801561067557600080fd5b50610362610684366004613edd565b6119fc565b34801561069557600080fd5b5061036260145481565b3480156106ab57600080fd5b5061045c6106ba366004613edd565b611a2a565b3480156106cb57600080fd5b5061036260155481565b3480156106e157600080fd5b506103626106f0366004613f59565b6001600160a01b031660009081526009602052604090205490565b34801561071757600080fd5b50610412610726366004614496565b611a5a565b34801561073757600080fd5b5061036260125481565b34801561074d57600080fd5b5061041261075c366004614516565b611b39565b34801561076d57600080fd5b5061036261077c366004613f59565b611b48565b34801561078d57600080fd5b5061041261079c366004614544565b611b89565b3480156107ad57600080fd5b506103626107bc366004613edd565b60009081526005602052604090205490565b3480156107da57600080fd5b506103626107e93660046142bf565b611c0a565b3480156107fa57600080fd5b50610362610809366004613f59565b6001600160a01b031660009081526008602052604090205490565b34801561083057600080fd5b5061036260115481565b34801561084657600080fd5b50610362610855366004613f59565b6001600160a01b03166000908152600b602052604090205490565b34801561087c57600080fd5b50610885611cee565b60405161036c9897969594939291906145ac565b3480156108a557600080fd5b50600754610362565b3480156108ba57600080fd5b506103b56108c93660046142bf565b6001600160a01b03918216600090815260036020908152604080832093909416825291909152205460ff1690565b34801561090357600080fd5b50610362600f5481565b34801561091957600080fd5b50600d546103b59060ff1681565b34801561093357600080fd5b5061041261094236600461465b565b6123bb565b34801561095357600080fd5b50610967610962366004613edd565b612456565b60405161036c94939291906146c4565b34801561098357600080fd5b5061036261278c565b34801561099857600080fd5b506103e56040518060400160405280600381526020017f312e30000000000000000000000000000000000000000000000000000000000081525081565b3480156109e157600080fd5b506103626109f0366004613f59565b6001600160a01b031660009081526018602052604090205490565b6000600f54421015610a30576040516358fd8d1160e01b815260040160405180910390fd5b6010544210610a40575060125490565b600d5460ff1615610ac95760125460026001601354610a5f9190614727565b610a69919061481e565b60026001610a7561278c565b601354610a829190614727565b610a8c9190614727565b610a96919061481e565b601254601154610aa69190614727565b610ab0919061482d565b610aba9190614844565b610ac49190614866565b905090565b6001601354610ad89190614727565b601254601154610ae89190614727565b610af061278c565b610afa919061482d565b610b049190614844565b601154610ac49190614727565b90565b60006001600160a01b038316610b975760405162461bcd60e51b815260206004820152602a60248201527f455243313135353a2061646472657373207a65726f206973206e6f742061207660448201527f616c6964206f776e65720000000000000000000000000000000000000000000060648201526084015b60405180910390fd5b5060008181526002602090815260408083206001600160a01b03861684529091529020545b92915050565b60006001600160e01b031982167f9732804d000000000000000000000000000000000000000000000000000000001480610bbc5750610bbc826127fd565b6017546060908210610c25576040516307ed98ed60e31b815260040160405180910390fd5b600e54604080517f6c0360eb00000000000000000000000000000000000000000000000000000000815290516000926001600160a01b031691636c0360eb91600480830192869291908290030181865afa158015610c87573d6000803e3d6000fd5b505050506040513d6000823e601f3d908101601f19168201604052610caf9190810190614879565b90508051600003610ccf5760405180602001604052806000815250610d04565b80610cd93061286f565b610ce285612885565b604051602001610cf4939291906148fb565b6040516020818303038152906040525b9392505050565b6001600160a01b038116600090815260086020526040902054610d7f5760405162461bcd60e51b815260206004820152602660248201527f5061796d656e7453706c69747465723a206163636f756e7420686173206e6f2060448201526573686172657360d01b6064820152608401610b8e565b6000610d8a82611b48565b905080600003610df05760405162461bcd60e51b815260206004820152602b60248201527f5061796d656e7453706c69747465723a206163636f756e74206973206e6f742060448201526a191d59481c185e5b595b9d60aa1b6064820152608401610b8e565b8060076000828254610e029190614866565b90915550506001600160a01b0382166000908152600960205260409020805482019055610e2f8282612925565b604080516001600160a01b0384168152602081018390527fdf20fd1e76bc69d672e4814fafb2c449bba3a5369d8359adf9e05e6fde87b056910160405180910390a15050565b60165460609081908067ffffffffffffffff811115610e9657610e9661401b565b604051908082528060200260200182016040528015610ec957816020015b6060815260200190600190039081610eb45790505b5092508067ffffffffffffffff811115610ee557610ee561401b565b604051908082528060200260200182016040528015610f1857816020015b6060815260200190600190039081610f035790505b50915060005b818110156110c25760168181548110610f3957610f39614967565b90600052602060002090600202016000018054610f559061497d565b80601f0160208091040260200160405190810160405280929190818152602001828054610f819061497d565b8015610fce5780601f10610fa357610100808354040283529160200191610fce565b820191906000526020600020905b815481529060010190602001808311610fb157829003601f168201915b5050505050848281518110610fe557610fe5614967565b60200260200101819052506016818154811061100357611003614967565b9060005260206000209060020201600101805461101f9061497d565b80601f016020809104026020016040519081016040528092919081815260200182805461104b9061497d565b80156110985780601f1061106d57610100808354040283529160200191611098565b820191906000526020600020905b81548152906001019060200180831161107b57829003601f168201915b50505050508382815181106110af576110af614967565b6020908102919091010152600101610f1e565b50509091565b600d5460405163152a902d60e11b8152600481018490526024810183905260009182916101009091046001600160a01b031690632a55205a906044016040805180830381865afa158015611120573d6000803e3d6000fd5b505050506040513d601f19601f8201168201806040525081019061114491906149b7565b915091505b9250929050565b6001600160a01b03851633148061116c575061116c85336108c9565b6111de5760405162461bcd60e51b815260206004820152602e60248201527f455243313135353a2063616c6c6572206973206e6f7420746f6b656e206f776e60448201527f6572206f7220617070726f7665640000000000000000000000000000000000006064820152608401610b8e565b6111eb8585858585612a3e565b5050505050565b600d5461010090046001600160a01b0316331461122257604051636447134960e01b815260040160405180910390fd5b60165481146112445760405163a9854bc960e01b815260040160405180910390fd5b60008167ffffffffffffffff81111561125f5761125f61401b565b604051908082528060200260200182016040528015611288578160200160208202803683370190505b50905060005b82811015611319578060178585848181106112ab576112ab614967565b90506020020135815481106112c2576112c2614967565b906000526020600020906004020160020154146112f257604051633221911d60e21b815260040160405180910390fd5b600182828151811061130657611306614967565b602090810291909101015260010161128e565b5061137d84600d60019054906101000a90046001600160a01b0316858580806020026020016040519081016040528093929190818152602001838360200280828437600092018290525060408051602081019091529081528893509150612a3e9050565b50505050565b600d5461010090046001600160a01b031633146113b357604051636447134960e01b815260040160405180910390fd5b6113be838383612cad565b505050565b6001600160a01b0381166000908152600860205260409020546114375760405162461bcd60e51b815260206004820152602660248201527f5061796d656e7453706c69747465723a206163636f756e7420686173206e6f2060448201526573686172657360d01b6064820152608401610b8e565b60006114438383611c0a565b9050806000036114a95760405162461bcd60e51b815260206004820152602b60248201527f5061796d656e7453706c69747465723a206163636f756e74206973206e6f742060448201526a191d59481c185e5b595b9d60aa1b6064820152608401610b8e565b6001600160a01b0383166000908152600b6020526040812080548392906114d1908490614866565b90915550506001600160a01b038084166000908152600c6020908152604080832093861683529290522080548201905561150c838383612e6e565b604080516001600160a01b038481168252602082018490528516917f3be5b7a71e84ed12875d241991c70855ac5817d847039e17a9d895c1ceb0f18a910160405180910390a2505050565b606081518351146115d05760405162461bcd60e51b815260206004820152602960248201527f455243313135353a206163636f756e747320616e6420696473206c656e67746860448201527f206d69736d6174636800000000000000000000000000000000000000000000006064820152608401610b8e565b6000835167ffffffffffffffff8111156115ec576115ec61401b565b604051908082528060200260200182016040528015611615578160200160208202803683370190505b50905060005b845181101561168d5761166085828151811061163957611639614967565b602002602001015185838151811061165357611653614967565b6020026020010151610b14565b82828151811061167257611672614967565b6020908102919091010152611686816149e5565b905061161b565b509392505050565b8281146116b55760405163a9854bc960e01b815260040160405180910390fd5b600d5461010090046001600160a01b031633148015906116d6575060145442105b1561170d576040517fac3d4d3900000000000000000000000000000000000000000000000000000000815260040160405180910390fd5b6000805b828110156117f45783838281811061172b5761172b614967565b905060200201358261173d9190614866565b9150601786868381811061175357611753614967565b905060200201358154811061176a5761176a614967565b90600052602060002090600402016003015484848381811061178e5761178e614967565b905060200201356117c38888858181106117aa576117aa614967565b9050602002013560009081526005602052604090205490565b6117cd9190614866565b11156117ec57604051632cdb04a160e21b815260040160405180910390fd5b600101611711565b506117fd610a0b565b611807908261482d565b341015611840576040517f0772327b00000000000000000000000000000000000000000000000000000000815260040160405180910390fd5b6118bc8686868080602002602001604051908101604052809392919081815260200183836020028082843760009201919091525050604080516020808a02828101820190935289825290935089925088918291850190849080828437600092018290525060408051602081019091529081529250612eee915050565b856001600160a01b03167fcc92feddd651a5b2e45503e7d581b25712d631a27c2ddb440cbfd1a2beb17278868686866040516118fb9493929190614a49565b60405180910390a2505050505050565b600d5461010090046001600160a01b0316331461193b57604051636447134960e01b815260040160405180910390fd5b601554421015611977576040517f0ad21f0100000000000000000000000000000000000000000000000000000000815260040160405180910390fd5b6001600160a01b03831660009081526018602052604081205490036119c8576040517f52a14acc00000000000000000000000000000000000000000000000000000000815260040160405180910390fd5b6001600160a01b03831660009081526018602052604081208054916119ec83614a70565b91905055506113be838383612cad565b600060178281548110611a1157611a11614967565b9060005260206000209060040201600301549050919050565b6000600a8281548110611a3f57611a3f614967565b6000918252602090912001546001600160a01b031692915050565b600e546001600160a01b03163314611a8557604051630b35571f60e21b815260040160405180910390fd5b600d5461010090046001600160a01b031615611acd576040517f7735869100000000000000000000000000000000000000000000000000000000815260040160405180910390fd5b60008080808080808080611ae38a8c018c614a87565b98509850985098509850985098509850985088600d60016101000a8154816001600160a01b0302191690836001600160a01b03160217905550611b2c87878787878d88886130e0565b5050505050505050505050565b611b443383836131e7565b5050565b600080611b5460075490565b611b5e9047614866565b9050610d048382611b84866001600160a01b031660009081526009602052604090205490565b6132db565b600e546001600160a01b03163314611bb457604051630b35571f60e21b815260040160405180910390fd5b600f54600003611bf0576040517fb09c99c000000000000000000000000000000000000000000000000000000000815260040160405180910390fd5b611c0088888888888888886130e0565b5050505050505050565b6001600160a01b0382166000908152600b602052604081205481906040517f70a082310000000000000000000000000000000000000000000000000000000081523060048201526001600160a01b038616906370a0823190602401602060405180830381865afa158015611c82573d6000803e3d6000fd5b505050506040513d601f19601f82011682018060405250810190611ca69190614afc565b611cb09190614866565b6001600160a01b038086166000908152600c6020908152604080832093881683529290522054909150611ce690849083906132db565b949350505050565b606080606080606080606080600060178054905090508067ffffffffffffffff811115611d1d57611d1d61401b565b604051908082528060200260200182016040528015611d46578160200160208202803683370190505b5098508067ffffffffffffffff811115611d6257611d6261401b565b604051908082528060200260200182016040528015611d9557816020015b6060815260200190600190039081611d805790505b5097508067ffffffffffffffff811115611db157611db161401b565b604051908082528060200260200182016040528015611de457816020015b6060815260200190600190039081611dcf5790505b5096508067ffffffffffffffff811115611e0057611e0061401b565b604051908082528060200260200182016040528015611e29578160200160208202803683370190505b5095508067ffffffffffffffff811115611e4557611e4561401b565b604051908082528060200260200182016040528015611e7857816020015b6060815260200190600190039081611e635790505b5094508067ffffffffffffffff811115611e9457611e9461401b565b604051908082528060200260200182016040528015611ec757816020015b6060815260200190600190039081611eb25790505b5093508067ffffffffffffffff811115611ee357611ee361401b565b604051908082528060200260200182016040528015611f0c578160200160208202803683370190505b5092508067ffffffffffffffff811115611f2857611f2861401b565b604051908082528060200260200182016040528015611f51578160200160208202803683370190505b50915060005b818110156123af57808a8281518110611f7257611f72614967565b60200260200101818152505060178181548110611f9157611f91614967565b90600052602060002090600402016000018054611fad9061497d565b80601f0160208091040260200160405190810160405280929190818152602001828054611fd99061497d565b80156120265780601f10611ffb57610100808354040283529160200191612026565b820191906000526020600020905b81548152906001019060200180831161200957829003601f168201915b505050505089828151811061203d5761203d614967565b60200260200101819052506017818154811061205b5761205b614967565b906000526020600020906004020160010180546120779061497d565b80601f01602080910402602001604051908101604052809291908181526020018280546120a39061497d565b80156120f05780601f106120c5576101008083540402835291602001916120f0565b820191906000526020600020905b8154815290600101906020018083116120d357829003601f168201915b505050505088828151811061210757612107614967565b60200260200101819052506017818154811061212557612125614967565b90600052602060002090600402016002015487828151811061214957612149614967565b60200260200101818152505060166017828154811061216a5761216a614967565b9060005260206000209060040201600201548154811061218c5761218c614967565b906000526020600020906002020160000180546121a89061497d565b80601f01602080910402602001604051908101604052809291908181526020018280546121d49061497d565b80156122215780601f106121f657610100808354040283529160200191612221565b820191906000526020600020905b81548152906001019060200180831161220457829003601f168201915b505050505086828151811061223857612238614967565b602002602001018190525060166017828154811061225857612258614967565b9060005260206000209060040201600201548154811061227a5761227a614967565b906000526020600020906002020160010180546122969061497d565b80601f01602080910402602001604051908101604052809291908181526020018280546122c29061497d565b801561230f5780601f106122e45761010080835404028352916020019161230f565b820191906000526020600020905b8154815290600101906020018083116122f257829003601f168201915b505050505085828151811061232657612326614967565b60200260200101819052506123478160009081526005602052604090205490565b84828151811061235957612359614967565b6020026020010181815250506017818154811061237857612378614967565b90600052602060002090600402016003015483828151811061239c5761239c614967565b6020908102919091010152600101611f57565b50509091929394959697565b6001600160a01b0385163314806123d757506123d785336108c9565b6124495760405162461bcd60e51b815260206004820152602e60248201527f455243313135353a2063616c6c6572206973206e6f7420746f6b656e206f776e60448201527f6572206f7220617070726f7665640000000000000000000000000000000000006064820152608401610b8e565b6111eb8585858585613319565b6060806060806017805490508510612481576040516307ed98ed60e31b815260040160405180910390fd5b6017858154811061249457612494614967565b906000526020600020906004020160000180546124b09061497d565b80601f01602080910402602001604051908101604052809291908181526020018280546124dc9061497d565b80156125295780601f106124fe57610100808354040283529160200191612529565b820191906000526020600020905b81548152906001019060200180831161250c57829003601f168201915b505050505093506017858154811061254357612543614967565b9060005260206000209060040201600101805461255f9061497d565b80601f016020809104026020016040519081016040528092919081815260200182805461258b9061497d565b80156125d85780601f106125ad576101008083540402835291602001916125d8565b820191906000526020600020905b8154815290600101906020018083116125bb57829003601f168201915b505050505092506016601786815481106125f4576125f4614967565b9060005260206000209060040201600201548154811061261657612616614967565b906000526020600020906002020160000180546126329061497d565b80601f016020809104026020016040519081016040528092919081815260200182805461265e9061497d565b80156126ab5780601f10612680576101008083540402835291602001916126ab565b820191906000526020600020905b81548152906001019060200180831161268e57829003601f168201915b505050505091506016601786815481106126c7576126c7614967565b906000526020600020906004020160020154815481106126e9576126e9614967565b906000526020600020906002020160010180546127059061497d565b80601f01602080910402602001604051908101604052809291908181526020018280546127319061497d565b801561277e5780601f106127535761010080835404028352916020019161277e565b820191906000526020600020905b81548152906001019060200180831161276157829003601f168201915b505050505090509193509193565b6000600f544210156127b1576040516358fd8d1160e01b815260040160405180910390fd5b60105442106127c9576001601354610ac49190614727565b600f546010546127d99190614727565b600f546127e69042614727565b6013546127f3919061482d565b610ac49190614844565b60006001600160e01b031982167fd9b67a2600000000000000000000000000000000000000000000000000000000148061286057506001600160e01b031982167f0e89341c00000000000000000000000000000000000000000000000000000000145b80610bbc5750610bbc826134d6565b6060610bbc6001600160a01b0383166014613524565b6060600061289283613705565b600101905060008167ffffffffffffffff8111156128b2576128b261401b565b6040519080825280601f01601f1916602001820160405280156128dc576020820181803683370190505b5090508181016020015b600019017f3031323334353637383961626364656600000000000000000000000000000000600a86061a8153600a85049450846128e657509392505050565b804710156129755760405162461bcd60e51b815260206004820152601d60248201527f416464726573733a20696e73756666696369656e742062616c616e63650000006044820152606401610b8e565b6000826001600160a01b03168260405160006040518083038185875af1925050503d80600081146129c2576040519150601f19603f3d011682016040523d82523d6000602084013e6129c7565b606091505b50509050806113be5760405162461bcd60e51b815260206004820152603a60248201527f416464726573733a20756e61626c6520746f2073656e642076616c75652c207260448201527f6563697069656e74206d617920686176652072657665727465640000000000006064820152608401610b8e565b8151835114612aa05760405162461bcd60e51b815260206004820152602860248201527f455243313135353a2069647320616e6420616d6f756e7473206c656e677468206044820152670dad2e6dac2e8c6d60c31b6064820152608401610b8e565b6001600160a01b038416612b045760405162461bcd60e51b815260206004820152602560248201527f455243313135353a207472616e7366657220746f20746865207a65726f206164604482015264647265737360d81b6064820152608401610b8e565b33612b138187878787876137e7565b60005b8451811015612c3f576000858281518110612b3357612b33614967565b602002602001015190506000858381518110612b5157612b51614967565b60209081029190910181015160008481526002835260408082206001600160a01b038e168352909352919091205490915081811015612be55760405162461bcd60e51b815260206004820152602a60248201527f455243313135353a20696e73756666696369656e742062616c616e636520666f60448201526939103a3930b739b332b960b11b6064820152608401610b8e565b60008381526002602090815260408083206001600160a01b038e8116855292528083208585039055908b16825281208054849290612c24908490614866565b9250508190555050505080612c38906149e5565b9050612b16565b50846001600160a01b0316866001600160a01b0316826001600160a01b03167f4a39dc06d4c0dbc64b70af90fd698a233a518aa5d07e595d983b8c0526c8f7fb8787604051612c8f929190614b15565b60405180910390a4612ca58187878787876137f5565b505050505050565b6016548114612ccf5760405163a9854bc960e01b815260040160405180910390fd5b60008167ffffffffffffffff811115612cea57612cea61401b565b604051908082528060200260200182016040528015612d13578160200160208202803683370190505b50905060005b82811015612e2057806017858584818110612d3657612d36614967565b9050602002013581548110612d4d57612d4d614967565b90600052602060002090600402016002015414612d7d57604051633221911d60e21b815260040160405180910390fd5b6017848483818110612d9157612d91614967565b9050602002013581548110612da857612da8614967565b906000526020600020906004020160030154612dcf8585848181106117aa576117aa614967565b612dda906001614866565b1115612df957604051632cdb04a160e21b815260040160405180910390fd5b6001828281518110612e0d57612e0d614967565b6020908102919091010152600101612d19565b5061137d84848480806020026020016040519081016040528093929190818152602001838360200280828437600092018290525060408051602081019091529081528793509150612eee9050565b604080516001600160a01b038416602482015260448082018490528251808303909101815260649091019091526020810180517bffffffffffffffffffffffffffffffffffffffffffffffffffffffff167fa9059cbb000000000000000000000000000000000000000000000000000000001790526113be9084906139a3565b6001600160a01b038416612f6a5760405162461bcd60e51b815260206004820152602160248201527f455243313135353a206d696e7420746f20746865207a65726f2061646472657360448201527f73000000000000000000000000000000000000000000000000000000000000006064820152608401610b8e565b8151835114612fcc5760405162461bcd60e51b815260206004820152602860248201527f455243313135353a2069647320616e6420616d6f756e7473206c656e677468206044820152670dad2e6dac2e8c6d60c31b6064820152608401610b8e565b33612fdc816000878787876137e7565b60005b845181101561307857838181518110612ffa57612ffa614967565b60200260200101516002600087848151811061301857613018614967565b602002602001015181526020019081526020016000206000886001600160a01b03166001600160a01b0316815260200190815260200160002060008282546130609190614866565b90915550819050613070816149e5565b915050612fdf565b50846001600160a01b031660006001600160a01b0316826001600160a01b03167f4a39dc06d4c0dbc64b70af90fd698a233a518aa5d07e595d983b8c0526c8f7fb87876040516130c9929190614b15565b60405180910390a46111eb816000878787876137f5565b878710806130ed57508585115b806130f757508782105b8061310157504288105b8061310c5750600284105b15613143576040517f2156216000000000000000000000000000000000000000000000000000000000815260040160405180910390fd5b600f8890556010879055601186905560128590556013849055600d805460ff191684151590811790915560148390556015829055604080518a8152602081018a9052908101889052606081018790526080810186905260a081019190915260c0810183905260e081018290527f741f68979ac8d34093a453410adc90a9081503f2ce2ae3020f4755424497892b906101000160405180910390a15050505050505050565b816001600160a01b0316836001600160a01b03160361326e5760405162461bcd60e51b815260206004820152602960248201527f455243313135353a2073657474696e6720617070726f76616c2073746174757360448201527f20666f722073656c6600000000000000000000000000000000000000000000006064820152608401610b8e565b6001600160a01b03838116600081815260036020908152604080832094871680845294825291829020805460ff191686151590811790915591519182527f17307eab39ab6107e8899845ad3d59bd9653f200f220920489ca2b5937696c31910160405180910390a3505050565b6006546001600160a01b03841660009081526008602052604081205490918391613305908661482d565b61330f9190614844565b611ce69190614727565b6001600160a01b03841661337d5760405162461bcd60e51b815260206004820152602560248201527f455243313135353a207472616e7366657220746f20746865207a65726f206164604482015264647265737360d81b6064820152608401610b8e565b33600061338985613a88565b9050600061339685613a88565b90506133a68389898585896137e7565b60008681526002602090815260408083206001600160a01b038c1684529091529020548581101561342c5760405162461bcd60e51b815260206004820152602a60248201527f455243313135353a20696e73756666696369656e742062616c616e636520666f60448201526939103a3930b739b332b960b11b6064820152608401610b8e565b60008781526002602090815260408083206001600160a01b038d8116855292528083208985039055908a1682528120805488929061346b908490614866565b909155505060408051888152602081018890526001600160a01b03808b16928c821692918816917fc3d58168c5ae7397731d063d5bbf3d657854427343f4c083240f7aacaa2d0f62910160405180910390a46134cb848a8a8a8a8a613ad3565b505050505050505050565b60006001600160e01b0319821663152a902d60e11b1480610bbc57507f01ffc9a7000000000000000000000000000000000000000000000000000000006001600160e01b0319831614610bbc565b6060600061353383600261482d565b61353e906002614866565b67ffffffffffffffff8111156135565761355661401b565b6040519080825280601f01601f191660200182016040528015613580576020820181803683370190505b5090507f3000000000000000000000000000000000000000000000000000000000000000816000815181106135b7576135b7614967565b60200101906001600160f81b031916908160001a9053507f78000000000000000000000000000000000000000000000000000000000000008160018151811061360257613602614967565b60200101906001600160f81b031916908160001a905350600061362684600261482d565b613631906001614866565b90505b60018111156136b6577f303132333435363738396162636465660000000000000000000000000000000085600f166010811061367257613672614967565b1a60f81b82828151811061368857613688614967565b60200101906001600160f81b031916908160001a90535060049490941c936136af81614a70565b9050613634565b508315610d045760405162461bcd60e51b815260206004820181905260248201527f537472696e67733a20686578206c656e67746820696e73756666696369656e746044820152606401610b8e565b6000807a184f03e93ff9f4daa797ed6e38ed64bf6a1f010000000000000000831061374e577a184f03e93ff9f4daa797ed6e38ed64bf6a1f010000000000000000830492506040015b6d04ee2d6d415b85acef8100000000831061377a576d04ee2d6d415b85acef8100000000830492506020015b662386f26fc10000831061379857662386f26fc10000830492506010015b6305f5e10083106137b0576305f5e100830492506008015b61271083106137c457612710830492506004015b606483106137d6576064830492506002015b600a8310610bbc5760010192915050565b612ca5868686868686613bcf565b6001600160a01b0384163b15612ca55760405163bc197c8160e01b81526001600160a01b0385169063bc197c81906138399089908990889088908890600401614b3a565b6020604051808303816000875af1925050508015613874575060408051601f3d908101601f1916820190925261387191810190614b98565b60015b61392957613880614bb5565b806308c379a0036138b95750613894614bd0565b8061389f57506138bb565b8060405162461bcd60e51b8152600401610b8e9190613f46565b505b60405162461bcd60e51b815260206004820152603460248201527f455243313135353a207472616e7366657220746f206e6f6e2d4552433131353560448201527f526563656976657220696d706c656d656e7465720000000000000000000000006064820152608401610b8e565b6001600160e01b0319811663bc197c8160e01b1461399a5760405162461bcd60e51b815260206004820152602860248201527f455243313135353a204552433131353552656365697665722072656a656374656044820152676420746f6b656e7360c01b6064820152608401610b8e565b50505050505050565b60006139f8826040518060400160405280602081526020017f5361666545524332303a206c6f772d6c6576656c2063616c6c206661696c6564815250856001600160a01b0316613d5d9092919063ffffffff16565b8051909150156113be5780806020019051810190613a169190614c5a565b6113be5760405162461bcd60e51b815260206004820152602a60248201527f5361666545524332303a204552433230206f7065726174696f6e20646964206e60448201527f6f742073756363656564000000000000000000000000000000000000000000006064820152608401610b8e565b60408051600180825281830190925260609160009190602080830190803683370190505090508281600081518110613ac257613ac2614967565b602090810291909101015292915050565b6001600160a01b0384163b15612ca55760405163f23a6e6160e01b81526001600160a01b0385169063f23a6e6190613b179089908990889088908890600401614c77565b6020604051808303816000875af1925050508015613b52575060408051601f3d908101601f19168201909252613b4f91810190614b98565b60015b613b5e57613880614bb5565b6001600160e01b0319811663f23a6e6160e01b1461399a5760405162461bcd60e51b815260206004820152602860248201527f455243313135353a204552433131353552656365697665722072656a656374656044820152676420746f6b656e7360c01b6064820152608401610b8e565b6001600160a01b038516613c565760005b8351811015613c5457828181518110613bfb57613bfb614967565b602002602001015160056000868481518110613c1957613c19614967565b602002602001015181526020019081526020016000206000828254613c3e9190614866565b90915550613c4d9050816149e5565b9050613be0565b505b6001600160a01b038416612ca55760005b835181101561399a576000848281518110613c8457613c84614967565b602002602001015190506000848381518110613ca257613ca2614967565b6020026020010151905060006005600084815260200190815260200160002054905081811015613d3a5760405162461bcd60e51b815260206004820152602860248201527f455243313135353a206275726e20616d6f756e74206578636565647320746f7460448201527f616c537570706c790000000000000000000000000000000000000000000000006064820152608401610b8e565b60009283526005602052604090922091039055613d56816149e5565b9050613c67565b6060611ce6848460008585600080866001600160a01b03168587604051613d849190614caf565b60006040518083038185875af1925050503d8060008114613dc1576040519150601f19603f3d011682016040523d82523d6000602084013e613dc6565b606091505b5091509150613dd787838387613de2565b979650505050505050565b60608315613e51578251600003613e4a576001600160a01b0385163b613e4a5760405162461bcd60e51b815260206004820152601d60248201527f416464726573733a2063616c6c20746f206e6f6e2d636f6e74726163740000006044820152606401610b8e565b5081611ce6565b611ce6838381511561389f5781518083602001fd5b6001600160a01b0381168114613e7b57600080fd5b50565b60008060408385031215613e9157600080fd5b8235613e9c81613e66565b946020939093013593505050565b6001600160e01b031981168114613e7b57600080fd5b600060208284031215613ed257600080fd5b8135610d0481613eaa565b600060208284031215613eef57600080fd5b5035919050565b60005b83811015613f11578181015183820152602001613ef9565b50506000910152565b60008151808452613f32816020860160208601613ef6565b601f01601f19169290920160200192915050565b602081526000610d046020830184613f1a565b600060208284031215613f6b57600080fd5b8135610d0481613e66565b600081518084526020808501808196508360051b8101915082860160005b85811015613fbe578284038952613fac848351613f1a565b98850198935090840190600101613f94565b5091979650505050505050565b604081526000613fde6040830185613f76565b8281036020840152613ff08185613f76565b95945050505050565b6000806040838503121561400c57600080fd5b50508035926020909101359150565b634e487b7160e01b600052604160045260246000fd5b601f8201601f1916810167ffffffffffffffff811182821017156140575761405761401b565b6040525050565b600067ffffffffffffffff8211156140785761407861401b565b5060051b60200190565b600082601f83011261409357600080fd5b813560206140a08261405e565b6040516140ad8282614031565b83815260059390931b85018201928281019150868411156140cd57600080fd5b8286015b848110156140e857803583529183019183016140d1565b509695505050505050565b600067ffffffffffffffff82111561410d5761410d61401b565b50601f01601f191660200190565b600082601f83011261412c57600080fd5b8135614137816140f3565b6040516141448282614031565b82815285602084870101111561415957600080fd5b82602086016020830137600092810160200192909252509392505050565b600080600080600060a0868803121561418f57600080fd5b853561419a81613e66565b945060208601356141aa81613e66565b9350604086013567ffffffffffffffff808211156141c757600080fd5b6141d389838a01614082565b945060608801359150808211156141e957600080fd5b6141f589838a01614082565b9350608088013591508082111561420b57600080fd5b506142188882890161411b565b9150509295509295909350565b60008083601f84011261423757600080fd5b50813567ffffffffffffffff81111561424f57600080fd5b6020830191508360208260051b850101111561114957600080fd5b60008060006040848603121561427f57600080fd5b833561428a81613e66565b9250602084013567ffffffffffffffff8111156142a657600080fd5b6142b286828701614225565b9497909650939450505050565b600080604083850312156142d257600080fd5b82356142dd81613e66565b915060208301356142ed81613e66565b809150509250929050565b6000806040838503121561430b57600080fd5b823567ffffffffffffffff8082111561432357600080fd5b818501915085601f83011261433757600080fd5b813560206143448261405e565b6040516143518282614031565b83815260059390931b850182019282810191508984111561437157600080fd5b948201945b8386101561439857853561438981613e66565b82529482019490820190614376565b965050860135925050808211156143ae57600080fd5b506143bb85828601614082565b9150509250929050565b600081518084526020808501945080840160005b838110156143f5578151875295820195908201906001016143d9565b509495945050505050565b602081526000610d0460208301846143c5565b60008060008060006060868803121561442b57600080fd5b853561443681613e66565b9450602086013567ffffffffffffffff8082111561445357600080fd5b61445f89838a01614225565b9096509450604088013591508082111561447857600080fd5b5061448588828901614225565b969995985093965092949392505050565b600080602083850312156144a957600080fd5b823567ffffffffffffffff808211156144c157600080fd5b818501915085601f8301126144d557600080fd5b8135818111156144e457600080fd5b8660208285010111156144f657600080fd5b60209290920196919550909350505050565b8015158114613e7b57600080fd5b6000806040838503121561452957600080fd5b823561453481613e66565b915060208301356142ed81614508565b600080600080600080600080610100898b03121561456157600080fd5b883597506020890135965060408901359550606089013594506080890135935060a089013561458f81614508565b979a969950949793969295929450505060c08201359160e0013590565b60006101008083526145c08184018c6143c5565b905082810360208401526145d4818b613f76565b905082810360408401526145e8818a613f76565b905082810360608401526145fc81896143c5565b905082810360808401526146108188613f76565b905082810360a08401526146248187613f76565b905082810360c084015261463881866143c5565b905082810360e084015261464c81856143c5565b9b9a5050505050505050505050565b600080600080600060a0868803121561467357600080fd5b853561467e81613e66565b9450602086013561468e81613e66565b93506040860135925060608601359150608086013567ffffffffffffffff8111156146b857600080fd5b6142188882890161411b565b6080815260006146d76080830187613f1a565b82810360208401526146e98187613f1a565b905082810360408401526146fd8186613f1a565b90508281036060840152613dd78185613f1a565b634e487b7160e01b600052601160045260246000fd5b81810381811115610bbc57610bbc614711565b600181815b8085111561477557816000190482111561475b5761475b614711565b8085161561476857918102915b93841c939080029061473f565b509250929050565b60008261478c57506001610bbc565b8161479957506000610bbc565b81600181146147af57600281146147b9576147d5565b6001915050610bbc565b60ff8411156147ca576147ca614711565b50506001821b610bbc565b5060208310610133831016604e8410600b84101617156147f8575081810a610bbc565b614802838361473a565b806000190482111561481657614816614711565b029392505050565b6000610d0460ff84168361477d565b8082028115828204841417610bbc57610bbc614711565b60008261486157634e487b7160e01b600052601260045260246000fd5b500490565b80820180821115610bbc57610bbc614711565b60006020828403121561488b57600080fd5b815167ffffffffffffffff8111156148a257600080fd5b8201601f810184136148b357600080fd5b80516148be816140f3565b6040516148cb8282614031565b8281528660208486010111156148e057600080fd5b6148f1836020830160208701613ef6565b9695505050505050565b6000845161490d818460208901613ef6565b845190830190614921818360208901613ef6565b7f2f000000000000000000000000000000000000000000000000000000000000009101908152835161495a816001840160208801613ef6565b0160010195945050505050565b634e487b7160e01b600052603260045260246000fd5b600181811c9082168061499157607f821691505b6020821081036149b157634e487b7160e01b600052602260045260246000fd5b50919050565b600080604083850312156149ca57600080fd5b82516149d581613e66565b6020939093015192949293505050565b6000600182016149f7576149f7614711565b5060010190565b81835260007f07ffffffffffffffffffffffffffffffffffffffffffffffffffffffffffffff831115614a3057600080fd5b8260051b80836020870137939093016020019392505050565b604081526000614a5d6040830186886149fe565b8281036020840152613dd78185876149fe565b600081614a7f57614a7f614711565b506000190190565b60008060008060008060008060006101208a8c031215614aa657600080fd5b8935614ab181613e66565b985060208a0135614ac181614508565b989b989a505050506040870135966060810135966080820135965060a0820135955060c0820135945060e08201359350610100909101359150565b600060208284031215614b0e57600080fd5b5051919050565b604081526000614b2860408301856143c5565b8281036020840152613ff081856143c5565b60006001600160a01b03808816835280871660208401525060a06040830152614b6660a08301866143c5565b8281036060840152614b7881866143c5565b90508281036080840152614b8c8185613f1a565b98975050505050505050565b600060208284031215614baa57600080fd5b8151610d0481613eaa565b600060033d1115610b115760046000803e5060005160e01c90565b600060443d1015614bde5790565b6040516003193d81016004833e81513d67ffffffffffffffff8160248401118184111715614c0e57505050505090565b8285019150815181811115614c265750505050505090565b843d8701016020828501011115614c405750505050505090565b614c4f60208286010187614031565b509095945050505050565b600060208284031215614c6c57600080fd5b8151610d0481614508565b60006001600160a01b03808816835280871660208401525084604083015283606083015260a06080830152613dd760a0830184613f1a565b60008251614cc1818460208701613ef6565b919091019291505056fea264697066735822122029934625536b00402abf3869a9a425b1684620217dabdb3eef0596dcb9f7a50a64736f6c63430008130033",
  "devdoc": {
    "events": {
      "ApprovalForAll(address,address,bool)": {
        "details": "Emitted when `account` grants or revokes permission to `operator` to transfer their tokens, according to `approved`."
      },
      "TransferBatch(address,address,address,uint256[],uint256[])": {
        "details": "Equivalent to multiple {TransferSingle} events, where `operator`, `from` and `to` are the same for all transfers."
      },
      "TransferSingle(address,address,address,uint256,uint256)": {
        "details": "Emitted when `value` tokens of token type `id` are transferred from `from` to `to` by `operator`."
      },
      "URI(string,uint256)": {
        "details": "Emitted when the URI for token type `id` changes to `value`, if it is a non-programmatic URI. If an {URI} event was emitted for `id`, the standard https://eips.ethereum.org/EIPS/eip-1155#metadata-extensions[guarantees] that `value` will equal the value returned by {IERC1155MetadataURI-uri}."
      }
    },
    "kind": "dev",
    "methods": {
      "balanceOf(address,uint256)": {
        "details": "See {IERC1155-balanceOf}. Requirements: - `account` cannot be the zero address."
      },
      "balanceOfBatch(address[],uint256[])": {
        "details": "See {IERC1155-balanceOfBatch}. Requirements: - `accounts` and `ids` must have the same length."
      },
      "exists(uint256)": {
        "details": "Indicates whether any token exist with a given id, or not."
      },
      "isApprovedForAll(address,address)": {
        "details": "See {IERC1155-isApprovedForAll}."
      },
      "maxSupply(uint256)": {
        "returns": {
          "_maxSupply": "the max supply of the token"
        }
      },
      "mintTraits(address,uint256[],uint256[])": {
        "params": {
          "_recipient": "the address to receive the trait tokens",
          "_traitAmounts": "the amounts of each token ID to buy",
          "_traitTokenIds": "the trait token IDs to buy"
        }
      },
      "mintTraitsArtistProof(address,uint256[])": {
        "params": {
          "_artistAddress": "the artist address to receive the trait tokens",
          "_traitTokenIds": "the trait token IDs to mint the artwork with"
        }
      },
      "mintTraitsWhitelist(address,uint256[])": {
        "params": {
          "_recipient": "the address to receive the trait tokens",
          "_traitTokenIds": "the trait token IDs to mint the artwork with"
        }
      },
      "payee(uint256)": {
        "details": "Getter for the address of the payee number `index`."
      },
      "releasable(address)": {
        "details": "Getter for the amount of payee's releasable Ether."
      },
      "releasable(address,address)": {
        "details": "Getter for the amount of payee's releasable `token` tokens. `token` should be the address of an IERC20 contract."
      },
      "release(address)": {
        "details": "Triggers a transfer to `account` of the amount of Ether they are owed, according to their percentage of the total shares and their previous withdrawals."
      },
      "release(address,address)": {
        "details": "Triggers a transfer to `account` of the amount of `token` tokens they are owed, according to their percentage of the total shares and their previous withdrawals. `token` must be the address of an IERC20 contract."
      },
      "released(address)": {
        "details": "Getter for the amount of Ether already released to a payee."
      },
      "released(address,address)": {
        "details": "Getter for the amount of `token` tokens already released to a payee. `token` should be the address of an IERC20 contract."
      },
      "safeBatchTransferFrom(address,address,uint256[],uint256[],bytes)": {
        "details": "See {IERC1155-safeBatchTransferFrom}."
      },
      "safeTransferFrom(address,address,uint256,uint256,bytes)": {
        "details": "See {IERC1155-safeTransferFrom}."
      },
      "setApprovalForAll(address,bool)": {
        "details": "See {IERC1155-setApprovalForAll}."
      },
      "setup(bytes)": {
        "params": {
          "_data": "bytes data containt the artwork contract address and auction data"
        }
      },
      "shares(address)": {
        "details": "Getter for the amount of shares held by an account."
      },
      "supportsInterface(bytes4)": {
        "params": {
          "interfaceId": "the interface ID to check"
        },
        "returns": {
          "_0": "bool True if the interface is supported, otherwise False"
        }
      },
      "totalReleased()": {
        "details": "Getter for the total amount of Ether already released."
      },
      "totalReleased(address)": {
        "details": "Getter for the total amount of `token` already released. `token` should be the address of an IERC20 contract."
      },
      "totalShares()": {
        "details": "Getter for the total shares held by payees."
      },
      "totalSupply(uint256)": {
        "details": "Total amount of tokens in with a given id."
      },
      "trait(uint256)": {
        "params": {
          "_tokenId": "token ID to get info about"
        },
        "returns": {
          "_traitName": "human readable trait name",
          "_traitTypeName": "human readable trait type name",
          "_traitTypeValue": "trait type value used in the generative script",
          "_traitValue": "trait type value used in the generative script"
        }
      },
      "traitPrice()": {
        "returns": {
          "_0": "the current trait price in ether"
        }
      },
      "traitPriceStep()": {
        "returns": {
          "_0": "the current price step"
        }
      },
      "traitTypes()": {
        "returns": {
          "_traitTypeNames": "human readable trait type names",
          "_traitTypeValues": "trait type values used in the generative script"
        }
      },
      "traits()": {
        "returns": {
          "_traitMaxSupplys": "max supply of each trait",
          "_traitNames": "human readable trait names",
          "_traitTokenIds": "token IDs of the traits",
          "_traitTotalSupplys": "total supply of each trait",
          "_traitTypeIndexes": "trait type index each trait belongs to",
          "_traitTypeNames": "human readable trait type names",
          "_traitTypeValues": "trait type values used in the generative script",
          "_traitValues": "trait type values used in the generative script"
        }
      },
      "transferTraitsToMintArtwork(address,uint256[])": {
        "params": {
          "_caller": "the address creating the artwork",
          "_traitTokenIds": "the trait token IDs used to create the artwork"
        }
      },
      "updateAuction(uint256,uint256,uint256,uint256,uint256,bool,uint256,uint256)": {
        "params": {
          "_auctionEndPrice": "trait price the auction ends at",
          "_auctionEndTime": "timestamp the auction ends at",
          "_auctionExponential": "true indicates auction curve is exponential, otherwise linear",
          "_auctionPriceSteps": "number of different prices auction steps through",
          "_auctionStartPrice": "trait price the auction begins at",
          "_auctionStartTime": "timestamp the auction begins at",
          "_traitsSaleStartTime": "timestamp at which traits can be bought individually",
          "_whitelistStartTime": "timestamp at which whitelisted users can start minting"
        }
      },
      "uri(uint256)": {
        "params": {
          "_tokenId": "the token ID to get the URI for"
        },
        "returns": {
          "_0": "string the token specific URI"
        }
      },
      "whitelistMintsRemaining(address)": {
        "returns": {
          "_0": "uint256 the number of whitelist mints remaining"
        }
      }
    },
    "version": 1
  },
  "userdoc": {
    "kind": "user",
    "methods": {
      "maxSupply(uint256)": {
        "notice": "Returns the max supply of the specified token ID"
      },
      "mintTraits(address,uint256[],uint256[])": {
        "notice": "Allows a user to mint any number of traits and amounts using ether"
      },
      "mintTraitsArtistProof(address,uint256[])": {
        "notice": "Allows the artist to mint traits for free for the proof artwork1"
      },
      "mintTraitsWhitelist(address,uint256[])": {
        "notice": "Allows a whitelisted user to mint traits for free"
      },
      "setup(bytes)": {
        "notice": "Sets the address of the Artwork contract and the auction configuration"
      },
      "supportsInterface(bytes4)": {
        "notice": "Returns whether the specified interface ID is supported by the contract"
      },
      "trait(uint256)": {
        "notice": "Returns info about an individual trait"
      },
      "traitPrice()": {
        "notice": "Returns the current trait price"
      },
      "traitPriceStep()": {
        "notice": "Returns which price step the auction is currently on"
      },
      "traitTypes()": {
        "notice": "Returns the trait types"
      },
      "traits()": {
        "notice": "Returns info about all traits"
      },
      "transferTraitsToMintArtwork(address,uint256[])": {
        "notice": "Called by the Artwork contract to transfer traits from the caller to the Artwork contract to create a new Artwork token"
      },
      "updateAuction(uint256,uint256,uint256,uint256,uint256,bool,uint256,uint256)": {
        "notice": "Updates the schedule of the dutch auction, can only be called if the dutch auction hasn't started yet, and can only update the auction to a later time, not sooner"
      },
      "uri(uint256)": {
        "notice": "Returns the URI of the specified token ID"
      },
      "whitelistMintsRemaining(address)": {
        "notice": "Returns how many more whitelist mints the specified address has"
      }
    },
    "notice": "Implements ERC-1155 standard for trait tokens, and provides Dutch Auction functionality for initial trait sales",
    "version": 1
  },
  "storageLayout": {
    "storage": [
      {
        "astId": 3848,
        "contract": "contracts/Traits.sol:Traits",
        "label": "_defaultRoyaltyInfo",
        "offset": 0,
        "slot": "0",
        "type": "t_struct(RoyaltyInfo)3845_storage"
      },
      {
        "astId": 3853,
        "contract": "contracts/Traits.sol:Traits",
        "label": "_tokenRoyaltyInfo",
        "offset": 0,
        "slot": "1",
        "type": "t_mapping(t_uint256,t_struct(RoyaltyInfo)3845_storage)"
      },
      {
        "astId": 713,
        "contract": "contracts/Traits.sol:Traits",
        "label": "_balances",
        "offset": 0,
        "slot": "2",
        "type": "t_mapping(t_uint256,t_mapping(t_address,t_uint256))"
      },
      {
        "astId": 719,
        "contract": "contracts/Traits.sol:Traits",
        "label": "_operatorApprovals",
        "offset": 0,
        "slot": "3",
        "type": "t_mapping(t_address,t_mapping(t_address,t_bool))"
      },
      {
        "astId": 721,
        "contract": "contracts/Traits.sol:Traits",
        "label": "_uri",
        "offset": 0,
        "slot": "4",
        "type": "t_string_storage"
      },
      {
        "astId": 2083,
        "contract": "contracts/Traits.sol:Traits",
        "label": "_totalSupply",
        "offset": 0,
        "slot": "5",
        "type": "t_mapping(t_uint256,t_uint256)"
      },
      {
        "astId": 232,
        "contract": "contracts/Traits.sol:Traits",
        "label": "_totalShares",
        "offset": 0,
        "slot": "6",
        "type": "t_uint256"
      },
      {
        "astId": 234,
        "contract": "contracts/Traits.sol:Traits",
        "label": "_totalReleased",
        "offset": 0,
        "slot": "7",
        "type": "t_uint256"
      },
      {
        "astId": 238,
        "contract": "contracts/Traits.sol:Traits",
        "label": "_shares",
        "offset": 0,
        "slot": "8",
        "type": "t_mapping(t_address,t_uint256)"
      },
      {
        "astId": 242,
        "contract": "contracts/Traits.sol:Traits",
        "label": "_released",
        "offset": 0,
        "slot": "9",
        "type": "t_mapping(t_address,t_uint256)"
      },
      {
        "astId": 245,
        "contract": "contracts/Traits.sol:Traits",
        "label": "_payees",
        "offset": 0,
        "slot": "10",
        "type": "t_array(t_address)dyn_storage"
      },
      {
        "astId": 250,
        "contract": "contracts/Traits.sol:Traits",
        "label": "_erc20TotalReleased",
        "offset": 0,
        "slot": "11",
        "type": "t_mapping(t_contract(IERC20)2408,t_uint256)"
      },
      {
        "astId": 257,
        "contract": "contracts/Traits.sol:Traits",
        "label": "_erc20Released",
        "offset": 0,
        "slot": "12",
        "type": "t_mapping(t_contract(IERC20)2408,t_mapping(t_address,t_uint256))"
      },
      {
        "astId": 6518,
        "contract": "contracts/Traits.sol:Traits",
        "label": "auctionExponential",
        "offset": 0,
        "slot": "13",
        "type": "t_bool"
      },
      {
        "astId": 6524,
        "contract": "contracts/Traits.sol:Traits",
        "label": "artwork",
        "offset": 1,
        "slot": "13",
        "type": "t_contract(IArtwork)8055"
      },
      {
        "astId": 6527,
        "contract": "contracts/Traits.sol:Traits",
        "label": "projectRegistry",
        "offset": 0,
        "slot": "14",
        "type": "t_contract(IProjectRegistry)8140"
      },
      {
        "astId": 6529,
        "contract": "contracts/Traits.sol:Traits",
        "label": "auctionStartTime",
        "offset": 0,
        "slot": "15",
        "type": "t_uint256"
      },
      {
        "astId": 6531,
        "contract": "contracts/Traits.sol:Traits",
        "label": "auctionEndTime",
        "offset": 0,
        "slot": "16",
        "type": "t_uint256"
      },
      {
        "astId": 6533,
        "contract": "contracts/Traits.sol:Traits",
        "label": "auctionStartPrice",
        "offset": 0,
        "slot": "17",
        "type": "t_uint256"
      },
      {
        "astId": 6535,
        "contract": "contracts/Traits.sol:Traits",
        "label": "auctionEndPrice",
        "offset": 0,
        "slot": "18",
        "type": "t_uint256"
      },
      {
        "astId": 6537,
        "contract": "contracts/Traits.sol:Traits",
        "label": "auctionPriceSteps",
        "offset": 0,
        "slot": "19",
        "type": "t_uint256"
      },
      {
        "astId": 6539,
        "contract": "contracts/Traits.sol:Traits",
        "label": "traitsSaleStartTime",
        "offset": 0,
        "slot": "20",
        "type": "t_uint256"
      },
      {
        "astId": 6541,
        "contract": "contracts/Traits.sol:Traits",
        "label": "whitelistStartTime",
        "offset": 0,
        "slot": "21",
        "type": "t_uint256"
      },
      {
        "astId": 6545,
        "contract": "contracts/Traits.sol:Traits",
        "label": "_traitTypes",
        "offset": 0,
        "slot": "22",
        "type": "t_array(t_struct(TraitType)8164_storage)dyn_storage"
      },
      {
        "astId": 6549,
        "contract": "contracts/Traits.sol:Traits",
        "label": "_traits",
        "offset": 0,
        "slot": "23",
        "type": "t_array(t_struct(Trait)8173_storage)dyn_storage"
      },
      {
        "astId": 6553,
        "contract": "contracts/Traits.sol:Traits",
        "label": "_whitelistMintsRemaining",
        "offset": 0,
        "slot": "24",
        "type": "t_mapping(t_address,t_uint256)"
      }
    ],
    "types": {
      "t_address": {
        "encoding": "inplace",
        "label": "address",
        "numberOfBytes": "20"
      },
      "t_array(t_address)dyn_storage": {
        "base": "t_address",
        "encoding": "dynamic_array",
        "label": "address[]",
        "numberOfBytes": "32"
      },
      "t_array(t_struct(Trait)8173_storage)dyn_storage": {
        "base": "t_struct(Trait)8173_storage",
        "encoding": "dynamic_array",
        "label": "struct ITraits.Trait[]",
        "numberOfBytes": "32"
      },
      "t_array(t_struct(TraitType)8164_storage)dyn_storage": {
        "base": "t_struct(TraitType)8164_storage",
        "encoding": "dynamic_array",
        "label": "struct ITraits.TraitType[]",
        "numberOfBytes": "32"
      },
      "t_bool": {
        "encoding": "inplace",
        "label": "bool",
        "numberOfBytes": "1"
      },
      "t_contract(IArtwork)8055": {
        "encoding": "inplace",
        "label": "contract IArtwork",
        "numberOfBytes": "20"
      },
      "t_contract(IERC20)2408": {
        "encoding": "inplace",
        "label": "contract IERC20",
        "numberOfBytes": "20"
      },
      "t_contract(IProjectRegistry)8140": {
        "encoding": "inplace",
        "label": "contract IProjectRegistry",
        "numberOfBytes": "20"
      },
      "t_mapping(t_address,t_bool)": {
        "encoding": "mapping",
        "key": "t_address",
        "label": "mapping(address => bool)",
        "numberOfBytes": "32",
        "value": "t_bool"
      },
      "t_mapping(t_address,t_mapping(t_address,t_bool))": {
        "encoding": "mapping",
        "key": "t_address",
        "label": "mapping(address => mapping(address => bool))",
        "numberOfBytes": "32",
        "value": "t_mapping(t_address,t_bool)"
      },
      "t_mapping(t_address,t_uint256)": {
        "encoding": "mapping",
        "key": "t_address",
        "label": "mapping(address => uint256)",
        "numberOfBytes": "32",
        "value": "t_uint256"
      },
      "t_mapping(t_contract(IERC20)2408,t_mapping(t_address,t_uint256))": {
        "encoding": "mapping",
        "key": "t_contract(IERC20)2408",
        "label": "mapping(contract IERC20 => mapping(address => uint256))",
        "numberOfBytes": "32",
        "value": "t_mapping(t_address,t_uint256)"
      },
      "t_mapping(t_contract(IERC20)2408,t_uint256)": {
        "encoding": "mapping",
        "key": "t_contract(IERC20)2408",
        "label": "mapping(contract IERC20 => uint256)",
        "numberOfBytes": "32",
        "value": "t_uint256"
      },
      "t_mapping(t_uint256,t_mapping(t_address,t_uint256))": {
        "encoding": "mapping",
        "key": "t_uint256",
        "label": "mapping(uint256 => mapping(address => uint256))",
        "numberOfBytes": "32",
        "value": "t_mapping(t_address,t_uint256)"
      },
      "t_mapping(t_uint256,t_struct(RoyaltyInfo)3845_storage)": {
        "encoding": "mapping",
        "key": "t_uint256",
        "label": "mapping(uint256 => struct ERC2981.RoyaltyInfo)",
        "numberOfBytes": "32",
        "value": "t_struct(RoyaltyInfo)3845_storage"
      },
      "t_mapping(t_uint256,t_uint256)": {
        "encoding": "mapping",
        "key": "t_uint256",
        "label": "mapping(uint256 => uint256)",
        "numberOfBytes": "32",
        "value": "t_uint256"
      },
      "t_string_storage": {
        "encoding": "bytes",
        "label": "string",
        "numberOfBytes": "32"
      },
      "t_struct(RoyaltyInfo)3845_storage": {
        "encoding": "inplace",
        "label": "struct ERC2981.RoyaltyInfo",
        "members": [
          {
            "astId": 3842,
            "contract": "contracts/Traits.sol:Traits",
            "label": "receiver",
            "offset": 0,
            "slot": "0",
            "type": "t_address"
          },
          {
            "astId": 3844,
            "contract": "contracts/Traits.sol:Traits",
            "label": "royaltyFraction",
            "offset": 20,
            "slot": "0",
            "type": "t_uint96"
          }
        ],
        "numberOfBytes": "32"
      },
      "t_struct(Trait)8173_storage": {
        "encoding": "inplace",
        "label": "struct ITraits.Trait",
        "members": [
          {
            "astId": 8166,
            "contract": "contracts/Traits.sol:Traits",
            "label": "name",
            "offset": 0,
            "slot": "0",
            "type": "t_string_storage"
          },
          {
            "astId": 8168,
            "contract": "contracts/Traits.sol:Traits",
            "label": "value",
            "offset": 0,
            "slot": "1",
            "type": "t_string_storage"
          },
          {
            "astId": 8170,
            "contract": "contracts/Traits.sol:Traits",
            "label": "typeIndex",
            "offset": 0,
            "slot": "2",
            "type": "t_uint256"
          },
          {
            "astId": 8172,
            "contract": "contracts/Traits.sol:Traits",
            "label": "maxSupply",
            "offset": 0,
            "slot": "3",
            "type": "t_uint256"
          }
        ],
        "numberOfBytes": "128"
      },
      "t_struct(TraitType)8164_storage": {
        "encoding": "inplace",
        "label": "struct ITraits.TraitType",
        "members": [
          {
            "astId": 8161,
            "contract": "contracts/Traits.sol:Traits",
            "label": "name",
            "offset": 0,
            "slot": "0",
            "type": "t_string_storage"
          },
          {
            "astId": 8163,
            "contract": "contracts/Traits.sol:Traits",
            "label": "value",
            "offset": 0,
            "slot": "1",
            "type": "t_string_storage"
          }
        ],
        "numberOfBytes": "64"
      },
      "t_uint256": {
        "encoding": "inplace",
        "label": "uint256",
        "numberOfBytes": "32"
      },
      "t_uint96": {
        "encoding": "inplace",
        "label": "uint96",
        "numberOfBytes": "12"
      }
    }
  }
}