{
  "address": "0xE0bfA1b3aA3CAfAa016D37C1457Cb315885AA54E",
  "abi": [
    {
      "inputs": [
        {
          "internalType": "string",
          "name": "_name",
          "type": "string"
        },
        {
          "internalType": "string",
          "name": "_symbol",
          "type": "string"
        },
        {
          "internalType": "address",
          "name": "_artistAddress",
          "type": "address"
        },
        {
          "internalType": "address",
          "name": "_projectRegistry",
          "type": "address"
        },
        {
          "internalType": "uint96",
          "name": "_royaltyFeeNumerator",
          "type": "uint96"
        },
        {
          "internalType": "address[]",
          "name": "_royaltyPayees",
          "type": "address[]"
        },
        {
          "internalType": "uint256[]",
          "name": "_royaltyShares",
          "type": "uint256[]"
        },
        {
          "components": [
            {
              "internalType": "uint8",
              "name": "stringStorageSlot",
              "type": "uint8"
            },
            {
              "internalType": "address",
              "name": "stringStorageAddress",
              "type": "address"
            }
          ],
          "internalType": "struct IArtwork.StringStorageData",
          "name": "_metadataJSONStringStorage",
          "type": "tuple"
        },
        {
          "components": [
            {
              "internalType": "uint8",
              "name": "stringStorageSlot",
              "type": "uint8"
            },
            {
              "internalType": "address",
              "name": "stringStorageAddress",
              "type": "address"
            }
          ],
          "internalType": "struct IArtwork.StringStorageData",
          "name": "_scriptStringStorage",
          "type": "tuple"
        }
      ],
      "stateMutability": "nonpayable",
      "type": "constructor"
    },
    {
      "inputs": [],
      "name": "AlreadySetup",
      "type": "error"
    },
    {
      "inputs": [],
      "name": "OnlyArtist",
      "type": "error"
    },
    {
      "inputs": [],
      "name": "OnlyArtistOrProjectRegistry",
      "type": "error"
    },
    {
      "inputs": [],
      "name": "OnlyArtworkOwner",
      "type": "error"
    },
    {
      "inputs": [],
      "name": "OnlyProjectRegistry",
      "type": "error"
    },
    {
      "inputs": [],
      "name": "ProofAlreadyMinted",
      "type": "error"
    },
    {
      "inputs": [],
      "name": "TraitsAlreadySet",
      "type": "error"
    },
    {
      "inputs": [],
      "name": "TraitsNotSet",
      "type": "error"
    },
    {
      "anonymous": false,
      "inputs": [
        {
          "indexed": true,
          "internalType": "address",
          "name": "owner",
          "type": "address"
        },
        {
          "indexed": true,
          "internalType": "address",
          "name": "approved",
          "type": "address"
        },
        {
          "indexed": true,
          "internalType": "uint256",
          "name": "tokenId",
          "type": "uint256"
        }
      ],
      "name": "Approval",
      "type": "event"
    },
    {
      "anonymous": false,
      "inputs": [
        {
          "indexed": true,
          "internalType": "address",
          "name": "owner",
          "type": "address"
        },
        {
          "indexed": true,
          "internalType": "address",
          "name": "operator",
          "type": "address"
        },
        {
          "indexed": false,
          "internalType": "bool",
          "name": "approved",
          "type": "bool"
        }
      ],
      "name": "ApprovalForAll",
      "type": "event"
    },
    {
      "anonymous": false,
      "inputs": [
        {
          "indexed": true,
          "internalType": "uint256",
          "name": "artworkTokenId",
          "type": "uint256"
        },
        {
          "indexed": false,
          "internalType": "uint256[]",
          "name": "traitTokenIds",
          "type": "uint256[]"
        },
        {
          "indexed": false,
          "internalType": "bytes32",
          "name": "hash",
          "type": "bytes32"
        },
        {
          "indexed": true,
          "internalType": "address",
          "name": "creator",
          "type": "address"
        }
      ],
      "name": "ArtworkMinted",
      "type": "event"
    },
    {
      "anonymous": false,
      "inputs": [
        {
          "indexed": true,
          "internalType": "uint256",
          "name": "artworkTokenId",
          "type": "uint256"
        },
        {
          "indexed": true,
          "internalType": "address",
          "name": "caller",
          "type": "address"
        }
      ],
      "name": "TraitsReclaimed",
      "type": "event"
    },
    {
      "anonymous": false,
      "inputs": [
        {
          "indexed": true,
          "internalType": "address",
          "name": "from",
          "type": "address"
        },
        {
          "indexed": true,
          "internalType": "address",
          "name": "to",
          "type": "address"
        },
        {
          "indexed": true,
          "internalType": "uint256",
          "name": "tokenId",
          "type": "uint256"
        }
      ],
      "name": "Transfer",
      "type": "event"
    },
    {
      "inputs": [],
      "name": "VERSION",
      "outputs": [
        {
          "internalType": "string",
          "name": "",
          "type": "string"
        }
      ],
      "stateMutability": "view",
      "type": "function"
    },
    {
      "inputs": [
        {
          "internalType": "address",
          "name": "to",
          "type": "address"
        },
        {
          "internalType": "uint256",
          "name": "tokenId",
          "type": "uint256"
        }
      ],
      "name": "approve",
      "outputs": [],
      "stateMutability": "nonpayable",
      "type": "function"
    },
    {
      "inputs": [],
      "name": "artistAddress",
      "outputs": [
        {
          "internalType": "address",
          "name": "",
          "type": "address"
        }
      ],
      "stateMutability": "view",
      "type": "function"
    },
    {
      "inputs": [
        {
          "internalType": "uint256",
          "name": "_artworkTokenId",
          "type": "uint256"
        }
      ],
      "name": "artwork",
      "outputs": [
        {
          "internalType": "uint256[]",
          "name": "_traitTokenIds",
          "type": "uint256[]"
        },
        {
          "internalType": "string[]",
          "name": "_traitNames",
          "type": "string[]"
        },
        {
          "internalType": "string[]",
          "name": "_traitValues",
          "type": "string[]"
        },
        {
          "internalType": "string[]",
          "name": "_traitTypeNames",
          "type": "string[]"
        },
        {
          "internalType": "string[]",
          "name": "_traitTypeValues",
          "type": "string[]"
        },
        {
          "internalType": "bytes32",
          "name": "_hash",
          "type": "bytes32"
        }
      ],
      "stateMutability": "view",
      "type": "function"
    },
    {
      "inputs": [
        {
          "internalType": "address",
          "name": "owner",
          "type": "address"
        }
      ],
      "name": "balanceOf",
      "outputs": [
        {
          "internalType": "uint256",
          "name": "",
          "type": "uint256"
        }
      ],
      "stateMutability": "view",
      "type": "function"
    },
    {
      "inputs": [
        {
          "internalType": "uint256",
          "name": "tokenId",
          "type": "uint256"
        }
      ],
      "name": "getApproved",
      "outputs": [
        {
          "internalType": "address",
          "name": "",
          "type": "address"
        }
      ],
      "stateMutability": "view",
      "type": "function"
    },
    {
      "inputs": [
        {
          "internalType": "address",
          "name": "owner",
          "type": "address"
        },
        {
          "internalType": "address",
          "name": "operator",
          "type": "address"
        }
      ],
      "name": "isApprovedForAll",
      "outputs": [
        {
          "internalType": "bool",
          "name": "",
          "type": "bool"
        }
      ],
      "stateMutability": "view",
      "type": "function"
    },
    {
      "inputs": [],
      "name": "metadataJSON",
      "outputs": [
        {
          "internalType": "string",
          "name": "",
          "type": "string"
        }
      ],
      "stateMutability": "view",
      "type": "function"
    },
    {
      "inputs": [],
      "name": "metadataJSONStringStorage",
      "outputs": [
        {
          "internalType": "uint8",
          "name": "stringStorageSlot",
          "type": "uint8"
        },
        {
          "internalType": "address",
          "name": "stringStorageAddress",
          "type": "address"
        }
      ],
      "stateMutability": "view",
      "type": "function"
    },
    {
      "inputs": [
        {
          "internalType": "uint256[]",
          "name": "_traitTokenIds",
          "type": "uint256[]"
        },
        {
          "internalType": "uint256",
          "name": "_saltNonce",
          "type": "uint256"
        }
      ],
      "name": "mintArtwork",
      "outputs": [
        {
          "internalType": "uint256",
          "name": "_artworkTokenId",
          "type": "uint256"
        }
      ],
      "stateMutability": "nonpayable",
      "type": "function"
    },
    {
      "inputs": [
        {
          "internalType": "uint256[]",
          "name": "_traitTokenIds",
          "type": "uint256[]"
        },
        {
          "internalType": "uint256",
          "name": "_saltNonce",
          "type": "uint256"
        }
      ],
      "name": "mintArtworkProof",
      "outputs": [],
      "stateMutability": "nonpayable",
      "type": "function"
    },
    {
      "inputs": [
        {
          "internalType": "uint256[]",
          "name": "_traitTokenIds",
          "type": "uint256[]"
        },
        {
          "internalType": "uint256",
          "name": "_saltNonce",
          "type": "uint256"
        }
      ],
      "name": "mintArtworkWhitelist",
      "outputs": [],
      "stateMutability": "nonpayable",
      "type": "function"
    },
    {
      "inputs": [
        {
          "internalType": "uint256[]",
          "name": "_traitTokenIdsToBuy",
          "type": "uint256[]"
        },
        {
          "internalType": "uint256[]",
          "name": "_traitAmountsToBuy",
          "type": "uint256[]"
        },
        {
          "internalType": "uint256[]",
          "name": "_traitTokenIdsToCreateArtwork",
          "type": "uint256[]"
        },
        {
          "internalType": "uint256",
          "name": "_saltNonce",
          "type": "uint256"
        }
      ],
      "name": "mintTraitsAndArtwork",
      "outputs": [],
      "stateMutability": "payable",
      "type": "function"
    },
    {
      "inputs": [],
      "name": "name",
      "outputs": [
        {
          "internalType": "string",
          "name": "",
          "type": "string"
        }
      ],
      "stateMutability": "view",
      "type": "function"
    },
    {
      "inputs": [],
      "name": "nextTokenId",
      "outputs": [
        {
          "internalType": "uint256",
          "name": "",
          "type": "uint256"
        }
      ],
      "stateMutability": "view",
      "type": "function"
    },
    {
      "inputs": [
        {
          "internalType": "address",
          "name": "",
          "type": "address"
        },
        {
          "internalType": "address",
          "name": "",
          "type": "address"
        },
        {
          "internalType": "uint256[]",
          "name": "",
          "type": "uint256[]"
        },
        {
          "internalType": "uint256[]",
          "name": "",
          "type": "uint256[]"
        },
        {
          "internalType": "bytes",
          "name": "",
          "type": "bytes"
        }
      ],
      "name": "onERC1155BatchReceived",
      "outputs": [
        {
          "internalType": "bytes4",
          "name": "",
          "type": "bytes4"
        }
      ],
      "stateMutability": "nonpayable",
      "type": "function"
    },
    {
      "inputs": [
        {
          "internalType": "address",
          "name": "",
          "type": "address"
        },
        {
          "internalType": "address",
          "name": "",
          "type": "address"
        },
        {
          "internalType": "uint256",
          "name": "",
          "type": "uint256"
        },
        {
          "internalType": "uint256",
          "name": "",
          "type": "uint256"
        },
        {
          "internalType": "bytes",
          "name": "",
          "type": "bytes"
        }
      ],
      "name": "onERC1155Received",
      "outputs": [
        {
          "internalType": "bytes4",
          "name": "",
          "type": "bytes4"
        }
      ],
      "stateMutability": "nonpayable",
      "type": "function"
    },
    {
      "inputs": [
        {
          "internalType": "uint256",
          "name": "tokenId",
          "type": "uint256"
        }
      ],
      "name": "ownerOf",
      "outputs": [
        {
          "internalType": "address",
          "name": "",
          "type": "address"
        }
      ],
      "stateMutability": "view",
      "type": "function"
    },
    {
      "inputs": [],
      "name": "projectRegistry",
      "outputs": [
        {
          "internalType": "contract IProjectRegistry",
          "name": "",
          "type": "address"
        }
      ],
      "stateMutability": "view",
      "type": "function"
    },
    {
      "inputs": [],
      "name": "proofMinted",
      "outputs": [
        {
          "internalType": "bool",
          "name": "",
          "type": "bool"
        }
      ],
      "stateMutability": "view",
      "type": "function"
    },
    {
      "inputs": [
        {
          "internalType": "uint256",
          "name": "_artworkTokenId",
          "type": "uint256"
        }
      ],
      "name": "reclaimTraits",
      "outputs": [],
      "stateMutability": "nonpayable",
      "type": "function"
    },
    {
      "inputs": [
        {
          "internalType": "uint256",
          "name": "_tokenId",
          "type": "uint256"
        },
        {
          "internalType": "uint256",
          "name": "_salePrice",
          "type": "uint256"
        }
      ],
      "name": "royaltyInfo",
      "outputs": [
        {
          "internalType": "address",
          "name": "",
          "type": "address"
        },
        {
          "internalType": "uint256",
          "name": "",
          "type": "uint256"
        }
      ],
      "stateMutability": "view",
      "type": "function"
    },
    {
      "inputs": [
        {
          "internalType": "address",
          "name": "from",
          "type": "address"
        },
        {
          "internalType": "address",
          "name": "to",
          "type": "address"
        },
        {
          "internalType": "uint256",
          "name": "tokenId",
          "type": "uint256"
        }
      ],
      "name": "safeTransferFrom",
      "outputs": [],
      "stateMutability": "nonpayable",
      "type": "function"
    },
    {
      "inputs": [
        {
          "internalType": "address",
          "name": "from",
          "type": "address"
        },
        {
          "internalType": "address",
          "name": "to",
          "type": "address"
        },
        {
          "internalType": "uint256",
          "name": "tokenId",
          "type": "uint256"
        },
        {
          "internalType": "bytes",
          "name": "data",
          "type": "bytes"
        }
      ],
      "name": "safeTransferFrom",
      "outputs": [],
      "stateMutability": "nonpayable",
      "type": "function"
    },
    {
      "inputs": [],
      "name": "script",
      "outputs": [
        {
          "internalType": "string",
          "name": "",
          "type": "string"
        }
      ],
      "stateMutability": "view",
      "type": "function"
    },
    {
      "inputs": [],
      "name": "scriptStringStorage",
      "outputs": [
        {
          "internalType": "uint8",
          "name": "stringStorageSlot",
          "type": "uint8"
        },
        {
          "internalType": "address",
          "name": "stringStorageAddress",
          "type": "address"
        }
      ],
      "stateMutability": "view",
      "type": "function"
    },
    {
      "inputs": [
        {
          "internalType": "address",
          "name": "operator",
          "type": "address"
        },
        {
          "internalType": "bool",
          "name": "approved",
          "type": "bool"
        }
      ],
      "name": "setApprovalForAll",
      "outputs": [],
      "stateMutability": "nonpayable",
      "type": "function"
    },
    {
      "inputs": [
        {
          "internalType": "bytes",
          "name": "_data",
          "type": "bytes"
        }
      ],
      "name": "setup",
      "outputs": [],
      "stateMutability": "nonpayable",
      "type": "function"
    },
    {
      "inputs": [
        {
          "internalType": "bytes4",
          "name": "interfaceId",
          "type": "bytes4"
        }
      ],
      "name": "supportsInterface",
      "outputs": [
        {
          "internalType": "bool",
          "name": "",
          "type": "bool"
        }
      ],
      "stateMutability": "view",
      "type": "function"
    },
    {
      "inputs": [],
      "name": "symbol",
      "outputs": [
        {
          "internalType": "string",
          "name": "",
          "type": "string"
        }
      ],
      "stateMutability": "view",
      "type": "function"
    },
    {
      "inputs": [
        {
          "internalType": "uint256",
          "name": "_tokenId",
          "type": "uint256"
        }
      ],
      "name": "tokenURI",
      "outputs": [
        {
          "internalType": "string",
          "name": "",
          "type": "string"
        }
      ],
      "stateMutability": "view",
      "type": "function"
    },
    {
      "inputs": [],
      "name": "traits",
      "outputs": [
        {
          "internalType": "contract ITraits",
          "name": "",
          "type": "address"
        }
      ],
      "stateMutability": "view",
      "type": "function"
    },
    {
      "inputs": [
        {
          "internalType": "address",
          "name": "from",
          "type": "address"
        },
        {
          "internalType": "address",
          "name": "to",
          "type": "address"
        },
        {
          "internalType": "uint256",
          "name": "tokenId",
          "type": "uint256"
        }
      ],
      "name": "transferFrom",
      "outputs": [],
      "stateMutability": "nonpayable",
      "type": "function"
    },
    {
      "inputs": [
        {
          "internalType": "address",
          "name": "_user",
          "type": "address"
        }
      ],
      "name": "userNonce",
      "outputs": [
        {
          "internalType": "uint256",
          "name": "",
          "type": "uint256"
        }
      ],
      "stateMutability": "view",
      "type": "function"
    }
  ],
  "transactionHash": "0x9fdd76afdde69dd7c276993271ca2bc7e91cc35b6df56337ddd0bd915425fcb2",
  "args": [
    "Tack Line Torn",
    "TLT",
    "0xAa9D46AE079851116967c6573f961B304095C34a",
    "0xADAeb8c54d477282a68eBFF457158e1bD583Fde6",
    "1000",
    [
      "0xAa9D46AE079851116967c6573f961B304095C34a"
    ],
    [
      "100"
    ],
    {
      "stringStorageSlot": 0,
      "stringStorageAddress": "0xA2a185C00Ff1ceadddcA10640147EaF6B4F2D4f1"
    },
    {
      "stringStorageSlot": 1,
      "stringStorageAddress": "0xA2a185C00Ff1ceadddcA10640147EaF6B4F2D4f1"
    }
  ],
  "numDeployments": 1,
  "solcInputHash": "5b2842188b54615a9ad983be93af906e",
  "bytecode": "0x60806040523480156200001157600080fd5b5060405162004c7638038062004c768339810160408190526200003491620004ce565b8888600262000044838262000676565b50600362000053828262000676565b505060088054610100600160a81b0319166101006001600160a01b038b81169190910291909117909155600980546001600160a01b0319169189169190911790555060405160009085908590620000aa9062000243565b620000b792919062000742565b604051809103906000f080158015620000d4573d6000803e3d6000fd5b509050620000e381876200013e565b508151600c80546020948501516001600160a01b039081166101009081026001600160a81b031993841660ff96871617179093558451600d80549690970151909116909202931691161717905550620007ca95505050505050565b6127106001600160601b0382161115620001b25760405162461bcd60e51b815260206004820152602a60248201527f455243323938313a20726f79616c7479206665652077696c6c206578636565646044820152692073616c65507269636560b01b60648201526084015b60405180910390fd5b6001600160a01b0382166200020a5760405162461bcd60e51b815260206004820152601960248201527f455243323938313a20696e76616c6964207265636569766572000000000000006044820152606401620001a9565b604080518082019091526001600160a01b039092168083526001600160601b039091166020909201829052600160a01b90910217600055565b61128180620039f583390190565b634e487b7160e01b600052604160045260246000fd5b604051601f8201601f191681016001600160401b038111828210171562000292576200029262000251565b604052919050565b600082601f830112620002ac57600080fd5b81516001600160401b03811115620002c857620002c862000251565b6020620002de601f8301601f1916820162000267565b8281528582848701011115620002f357600080fd5b60005b8381101562000313578581018301518282018401528201620002f6565b506000928101909101919091529392505050565b80516001600160a01b03811681146200033f57600080fd5b919050565b80516001600160601b03811681146200033f57600080fd5b60006001600160401b0382111562000378576200037862000251565b5060051b60200190565b600082601f8301126200039457600080fd5b81516020620003ad620003a7836200035c565b62000267565b82815260059290921b84018101918181019086841115620003cd57600080fd5b8286015b84811015620003f357620003e58162000327565b8352918301918301620003d1565b509695505050505050565b600082601f8301126200041057600080fd5b8151602062000423620003a7836200035c565b82815260059290921b840181019181810190868411156200044357600080fd5b8286015b84811015620003f3578051835291830191830162000447565b6000604082840312156200047357600080fd5b604080519081016001600160401b038111828210171562000498576200049862000251565b8060405250809150825160ff81168114620004b257600080fd5b8152620004c26020840162000327565b60208201525092915050565b60008060008060008060008060006101608a8c031215620004ee57600080fd5b89516001600160401b03808211156200050657600080fd5b620005148d838e016200029a565b9a5060208c01519150808211156200052b57600080fd5b620005398d838e016200029a565b99506200054960408d0162000327565b98506200055960608d0162000327565b97506200056960808d0162000344565b965060a08c01519150808211156200058057600080fd5b6200058e8d838e0162000382565b955060c08c0151915080821115620005a557600080fd5b50620005b48c828d01620003fe565b935050620005c68b60e08c0162000460565b9150620005d88b6101208c0162000460565b90509295985092959850929598565b600181811c90821680620005fc57607f821691505b6020821081036200061d57634e487b7160e01b600052602260045260246000fd5b50919050565b601f8211156200067157600081815260208120601f850160051c810160208610156200064c5750805b601f850160051c820191505b818110156200066d5782815560010162000658565b5050505b505050565b81516001600160401b0381111562000692576200069262000251565b620006aa81620006a38454620005e7565b8462000623565b602080601f831160018114620006e25760008415620006c95750858301515b600019600386901b1c1916600185901b1785556200066d565b600085815260208120601f198616915b828110156200071357888601518255948401946001909101908401620006f2565b5085821015620007325787850151600019600388901b60f8161c191681555b5050505050600190811b01905550565b604080825283519082018190526000906020906060840190828701845b82811015620007865781516001600160a01b0316845292840192908401906001016200075f565b5050508381038285015284518082528583019183019060005b81811015620007bd578351835292840192918401916001016200079f565b5090979650505050505050565b61321b80620007da6000396000f3fe6080604052600436106102195760003560e01c806370a082311161011d578063c87b56dd116100b0578063ebe9eb9f1161007f578063f4e95c6b11610064578063f4e95c6b14610717578063fbb401041461072c578063ffa1ad741461074c57600080fd5b8063ebe9eb9f146106bd578063f23a6e61146106d257600080fd5b8063c87b56dd1461060f578063d7eb3f3a1461062f578063e1fc334f14610654578063e985e9c51461067457600080fd5b8063a1ee0544116100ec578063a1ee054414610557578063a22cb46514610571578063b88d4fde14610591578063bc197c81146105b157600080fd5b806370a08231146104ec57806375794a3c1461050c57806395d89b41146105225780639ded06df1461053757600080fd5b80632e04b8e7116101b05780635a33d8dc1161017f5780636352211e116101645780636352211e1461049957806368ae2546146104b95780636f7e674d146104d957600080fd5b80635a33d8dc1461044f5780635dcb49c51461046f57600080fd5b80632e04b8e71461039957806342842e0e146103dd57806344085365146103fd57806354682d721461041d57600080fd5b8063095ea7b3116101ec578063095ea7b3146102cf57806323b872dd146102ef578063287987231461030f5780632a55205a1461035a57600080fd5b806301ffc9a71461021e57806306fdde0314610253578063081812fc1461027557806308fd8493146102ad575b600080fd5b34801561022a57600080fd5b5061023e6102393660046126a2565b610795565b60405190151581526020015b60405180910390f35b34801561025f57600080fd5b506102686107d9565b60405161024a919061270f565b34801561028157600080fd5b50610295610290366004612722565b61086b565b6040516001600160a01b03909116815260200161024a565b3480156102b957600080fd5b506102cd6102c8366004612722565b610892565b005b3480156102db57600080fd5b506102cd6102ea366004612750565b610ae6565b3480156102fb57600080fd5b506102cd61030a36600461277c565b610c3a565b34801561031b57600080fd5b50600d546103399060ff81169061010090046001600160a01b031682565b6040805160ff90931683526001600160a01b0390911660208301520161024a565b34801561036657600080fd5b5061037a6103753660046127bd565b610cb1565b604080516001600160a01b03909316835260208301919091520161024a565b3480156103a557600080fd5b506103cf6103b43660046127df565b6001600160a01b03166000908152600f602052604090205490565b60405190815260200161024a565b3480156103e957600080fd5b506102cd6103f836600461277c565b610d6e565b34801561040957600080fd5b506102cd610418366004612841565b610d89565b34801561042957600080fd5b5061043d610438366004612722565b610e19565b60405161024a9695949392919061291a565b34801561045b57600080fd5b50600954610295906001600160a01b031681565b34801561047b57600080fd5b50600c546103399060ff81169061010090046001600160a01b031682565b3480156104a557600080fd5b506102956104b4366004612722565b6110ff565b3480156104c557600080fd5b506103cf6104d4366004612841565b611164565b6102cd6104e736600461298f565b611303565b3480156104f857600080fd5b506103cf6105073660046127df565b61139d565b34801561051857600080fd5b506103cf600b5481565b34801561052e57600080fd5b50610268611437565b34801561054357600080fd5b506102cd610552366004612a32565b611446565b34801561056357600080fd5b5060085461023e9060ff1681565b34801561057d57600080fd5b506102cd61058c366004612aa4565b611500565b34801561059d57600080fd5b506102cd6105ac366004612ba7565b61150f565b3480156105bd57600080fd5b506105f66105cc366004612c93565b7fbc197c810000000000000000000000000000000000000000000000000000000095945050505050565b6040516001600160e01b0319909116815260200161024a565b34801561061b57600080fd5b5061026861062a366004612722565b611587565b34801561063b57600080fd5b506008546102959061010090046001600160a01b031681565b34801561066057600080fd5b50600a54610295906001600160a01b031681565b34801561068057600080fd5b5061023e61068f366004612d41565b6001600160a01b03918216600090815260076020908152604080832093909416825291909152205460ff1690565b3480156106c957600080fd5b50610268611662565b3480156106de57600080fd5b506105f66106ed366004612d6f565b7ff23a6e610000000000000000000000000000000000000000000000000000000095945050505050565b34801561072357600080fd5b506102686116e1565b34801561073857600080fd5b506102cd610747366004612841565b61171a565b34801561075857600080fd5b506102686040518060400160405280600381526020017f312e30000000000000000000000000000000000000000000000000000000000081525081565b60006001600160e01b031982167f81942f3d0000000000000000000000000000000000000000000000000000000014806107d357506107d382611813565b92915050565b6060600280546107e890612dd8565b80601f016020809104026020016040519081016040528092919081815260200182805461081490612dd8565b80156108615780601f1061083657610100808354040283529160200191610861565b820191906000526020600020905b81548152906001019060200180831161084457829003601f168201915b5050505050905090565b600061087682611851565b506000908152600660205260409020546001600160a01b031690565b6000818152600460205260409020546001600160a01b031633146108e2576040517f1002a8dd00000000000000000000000000000000000000000000000000000000815260040160405180910390fd5b6000818152600e602090815260408083206001018054825181850281018501909352808352919290919083018282801561093b57602002820191906000526020600020905b815481526020019060010190808311610927575b5050506000858152600e6020526040812081905592935061095a915050565b604051908082528060200260200182016040528015610983578160200160208202803683370190505b50600e600084815260200190815260200160002060010190805190602001906109ad9291906125f1565b506000815167ffffffffffffffff8111156109ca576109ca612ae2565b6040519080825280602002602001820160405280156109f3578160200160208202803683370190505b50905060005b8151811015610a29576001828281518110610a1657610a16612e12565b60209081029190910101526001016109f9565b50610a33836118b8565b600a546040517f2eb2c2d60000000000000000000000000000000000000000000000000000000081526001600160a01b0390911690632eb2c2d690610a82903090339087908790600401612e28565b600060405180830381600087803b158015610a9c57600080fd5b505af1158015610ab0573d6000803e3d6000fd5b50506040513392508591507f3a68f3980ec5280d87be81c5fa8cd81617be9bbf157acbe71d9321dca391e6a890600090a3505050565b6000610af1826110ff565b9050806001600160a01b0316836001600160a01b031603610b7f5760405162461bcd60e51b815260206004820152602160248201527f4552433732313a20617070726f76616c20746f2063757272656e74206f776e6560448201527f720000000000000000000000000000000000000000000000000000000000000060648201526084015b60405180910390fd5b336001600160a01b0382161480610bb957506001600160a01b038116600090815260076020908152604080832033845290915290205460ff165b610c2b5760405162461bcd60e51b815260206004820152603d60248201527f4552433732313a20617070726f76652063616c6c6572206973206e6f7420746f60448201527f6b656e206f776e6572206f7220617070726f76656420666f7220616c6c0000006064820152608401610b76565b610c35838361195b565b505050565b610c4433826119c9565b610ca65760405162461bcd60e51b815260206004820152602d60248201527f4552433732313a2063616c6c6572206973206e6f7420746f6b656e206f776e6560448201526c1c881bdc88185c1c1c9bdd9959609a1b6064820152608401610b76565b610c35838383611a48565b60008281526001602090815260408083208151808301909252546001600160a01b038116808352600160a01b9091046bffffffffffffffffffffffff16928201929092528291610d305750604080518082019091526000546001600160a01b0381168252600160a01b90046bffffffffffffffffffffffff1660208201525b602081015160009061271090610d54906bffffffffffffffffffffffff1687612e99565b610d5e9190612eb0565b91519350909150505b9250929050565b610c358383836040518060200160405280600081525061150f565b600a546040517f63a533de0000000000000000000000000000000000000000000000000000000081526001600160a01b03909116906363a533de90610dd690339087908790600401612f1d565b600060405180830381600087803b158015610df057600080fd5b505af1158015610e04573d6000803e3d6000fd5b50505050610e13838383611164565b50505050565b60608060608060606000610e2c87611851565b6000878152600e6020908152604091829020600101805483518184028101840190945280845292918390830182828015610e8557602002820191906000526020600020905b815481526020019060010190808311610e71575b505050505096508067ffffffffffffffff811115610ea557610ea5612ae2565b604051908082528060200260200182016040528015610ed857816020015b6060815260200190600190039081610ec35790505b5095508067ffffffffffffffff811115610ef457610ef4612ae2565b604051908082528060200260200182016040528015610f2757816020015b6060815260200190600190039081610f125790505b5094508067ffffffffffffffff811115610f4357610f43612ae2565b604051908082528060200260200182016040528015610f7657816020015b6060815260200190600190039081610f615790505b5093508067ffffffffffffffff811115610f9257610f92612ae2565b604051908082528060200260200182016040528015610fc557816020015b6060815260200190600190039081610fb05790505b50925060005b818110156110e257600a5488516001600160a01b039091169063f3457fdf908a9084908110610ffc57610ffc612e12565b60200260200101516040518263ffffffff1660e01b815260040161102291815260200190565b600060405180830381865afa15801561103f573d6000803e3d6000fd5b505050506040513d6000823e601f3d908101601f191682016040526110679190810190612f8e565b8a858151811061107957611079612e12565b602002602001018a868151811061109257611092612e12565b602002602001018a87815181106110ab576110ab612e12565b602002602001018a88815181106110c4576110c4612e12565b60209081029190910101939093529290915291905252600101610fcb565b5050506000958652600e6020526040909520549395929491939092565b6000818152600460205260408120546001600160a01b0316806107d35760405162461bcd60e51b815260206004820152601860248201527f4552433732313a20696e76616c696420746f6b656e20494400000000000000006044820152606401610b76565b336000818152600f60209081526040808320549051929384936111bb93309391889101606094851b6bffffffffffffffffffffffff1990811682529390941b90921660148401526028830152604882015260680190565b60408051601f198184030181529190528051602090910120600b805491925060006111e58361302f565b909155506000818152600e6020526040902082815590925061120b90600101868661263c565b50336000908152600f602052604081208054916112278361302f565b9091555050600a546040517f37b2383f0000000000000000000000000000000000000000000000000000000081526001600160a01b03909116906337b2383f9061127990339089908990600401612f1d565b600060405180830381600087803b15801561129357600080fd5b505af11580156112a7573d6000803e3d6000fd5b505050506112b53383611c4e565b336001600160a01b0316827f61e13485a36a1bab49bdef2c6884595827c2f5caf9160aff3047f78fae8d01e98787856040516112f393929190613048565b60405180910390a3509392505050565b600a546040517f5bf1af440000000000000000000000000000000000000000000000000000000081526001600160a01b0390911690635bf1af449034906113569033908c908c908c908c9060040161306c565b6000604051808303818588803b15801561136f57600080fd5b505af1158015611383573d6000803e3d6000fd5b5050505050611393838383611164565b5050505050505050565b60006001600160a01b03821661141b5760405162461bcd60e51b815260206004820152602960248201527f4552433732313a2061646472657373207a65726f206973206e6f74206120766160448201527f6c6964206f776e657200000000000000000000000000000000000000000000006064820152608401610b76565b506001600160a01b031660009081526005602052604090205490565b6060600380546107e890612dd8565b6009546001600160a01b0316331461148a576040517f2cd55c7c00000000000000000000000000000000000000000000000000000000815260040160405180910390fd5b600a546001600160a01b0316156114cd576040517f7735869100000000000000000000000000000000000000000000000000000000815260040160405180910390fd5b60006114db828401846127df565b600a80546001600160a01b0319166001600160a01b0392909216919091179055505050565b61150b338383611c68565b5050565b61151933836119c9565b61157b5760405162461bcd60e51b815260206004820152602d60248201527f4552433732313a2063616c6c6572206973206e6f7420746f6b656e206f776e6560448201526c1c881bdc88185c1c1c9bdd9959609a1b6064820152608401610b76565b610e1384848484611d36565b60606000600960009054906101000a90046001600160a01b03166001600160a01b0316636c0360eb6040518163ffffffff1660e01b8152600401600060405180830381865afa1580156115de573d6000803e3d6000fd5b505050506040513d6000823e601f3d908101601f1916820160405261160691908101906130ae565b90508051600003611626576040518060200160405280600081525061165b565b8061163030611db4565b61163985611dca565b60405160200161164b939291906130e3565b6040516020818303038152906040525b9392505050565b600d5460405163181957f960e21b815260ff8216600482015260609161010090046001600160a01b0316906360655fe4906024015b600060405180830381865afa1580156116b4573d6000803e3d6000fd5b505050506040513d6000823e601f3d908101601f191682016040526116dc91908101906130ae565b905090565b600c5460405163181957f960e21b815260ff8216600482015260609161010090046001600160a01b0316906360655fe490602401611697565b60085460ff1615611757576040517f4f05cdd500000000000000000000000000000000000000000000000000000000815260040160405180910390fd5b60085461010090046001600160a01b0316331480159061178257506009546001600160a01b03163314155b156117b9576040517f3ec0dfc600000000000000000000000000000000000000000000000000000000815260040160405180910390fd5b6008805460ff19166001179055600a546040517f3f2a0f260000000000000000000000000000000000000000000000000000000081526001600160a01b0390911690633f2a0f2690610dd690339087908790600401612f1d565b60006001600160e01b031982167f4e2312e00000000000000000000000000000000000000000000000000000000014806107d357506107d382611e6a565b6000818152600460205260409020546001600160a01b03166118b55760405162461bcd60e51b815260206004820152601860248201527f4552433732313a20696e76616c696420746f6b656e20494400000000000000006044820152606401610b76565b50565b60006118c3826110ff565b90506118d3816000846001611edc565b6118dc826110ff565b600083815260066020908152604080832080546001600160a01b03199081169091556001600160a01b0385168085526005845282852080546000190190558785526004909352818420805490911690555192935084927fddf252ad1be2c89b69c2b068fc378daa952ba7f163c4a11628f55a4df523b3ef908390a45050565b600081815260066020526040902080546001600160a01b0319166001600160a01b0384169081179091558190611990826110ff565b6001600160a01b03167f8c5be1e5ebec7d5bd14f71427d1e84f3dd0314c0f7b2291e5b200ac8c7c3b92560405160405180910390a45050565b6000806119d5836110ff565b9050806001600160a01b0316846001600160a01b03161480611a1c57506001600160a01b0380821660009081526007602090815260408083209388168352929052205460ff165b80611a405750836001600160a01b0316611a358461086b565b6001600160a01b0316145b949350505050565b826001600160a01b0316611a5b826110ff565b6001600160a01b031614611abf5760405162461bcd60e51b815260206004820152602560248201527f4552433732313a207472616e736665722066726f6d20696e636f72726563742060448201526437bbb732b960d91b6064820152608401610b76565b6001600160a01b038216611b3a5760405162461bcd60e51b8152602060048201526024808201527f4552433732313a207472616e7366657220746f20746865207a65726f2061646460448201527f72657373000000000000000000000000000000000000000000000000000000006064820152608401610b76565b611b478383836001611edc565b826001600160a01b0316611b5a826110ff565b6001600160a01b031614611bbe5760405162461bcd60e51b815260206004820152602560248201527f4552433732313a207472616e736665722066726f6d20696e636f72726563742060448201526437bbb732b960d91b6064820152608401610b76565b600081815260066020908152604080832080546001600160a01b03199081169091556001600160a01b0387811680865260058552838620805460001901905590871680865283862080546001019055868652600490945282852080549092168417909155905184937fddf252ad1be2c89b69c2b068fc378daa952ba7f163c4a11628f55a4df523b3ef91a4505050565b61150b828260405180602001604052806000815250611f64565b816001600160a01b0316836001600160a01b031603611cc95760405162461bcd60e51b815260206004820152601960248201527f4552433732313a20617070726f766520746f2063616c6c6572000000000000006044820152606401610b76565b6001600160a01b03838116600081815260076020908152604080832094871680845294825291829020805460ff191686151590811790915591519182527f17307eab39ab6107e8899845ad3d59bd9653f200f220920489ca2b5937696c31910160405180910390a3505050565b611d41848484611a48565b611d4d84848484611fe2565b610e135760405162461bcd60e51b815260206004820152603260248201527f4552433732313a207472616e7366657220746f206e6f6e20455243373231526560448201527131b2b4bb32b91034b6b83632b6b2b73a32b960711b6064820152608401610b76565b60606107d36001600160a01b038316601461212e565b60606000611dd78361230f565b600101905060008167ffffffffffffffff811115611df757611df7612ae2565b6040519080825280601f01601f191660200182016040528015611e21576020820181803683370190505b5090508181016020015b600019017f3031323334353637383961626364656600000000000000000000000000000000600a86061a8153600a8504945084611e2b57509392505050565b60006001600160e01b031982167f80ac58cd000000000000000000000000000000000000000000000000000000001480611ecd57506001600160e01b031982167f5b5e139f00000000000000000000000000000000000000000000000000000000145b806107d357506107d3826123f1565b6001811115610e13576001600160a01b03841615611f22576001600160a01b03841660009081526005602052604081208054839290611f1c90849061314f565b90915550505b6001600160a01b03831615610e13576001600160a01b03831660009081526005602052604081208054839290611f59908490613162565b909155505050505050565b611f6e8383612458565b611f7b6000848484611fe2565b610c355760405162461bcd60e51b815260206004820152603260248201527f4552433732313a207472616e7366657220746f206e6f6e20455243373231526560448201527131b2b4bb32b91034b6b83632b6b2b73a32b960711b6064820152608401610b76565b60006001600160a01b0384163b1561212357604051630a85bd0160e11b81526001600160a01b0385169063150b7a0290612026903390899088908890600401613175565b6020604051808303816000875af1925050508015612061575060408051601f3d908101601f1916820190925261205e918101906131b1565b60015b612109573d80801561208f576040519150601f19603f3d011682016040523d82523d6000602084013e612094565b606091505b5080516000036121015760405162461bcd60e51b815260206004820152603260248201527f4552433732313a207472616e7366657220746f206e6f6e20455243373231526560448201527131b2b4bb32b91034b6b83632b6b2b73a32b960711b6064820152608401610b76565b805181602001fd5b6001600160e01b031916630a85bd0160e11b149050611a40565b506001949350505050565b6060600061213d836002612e99565b612148906002613162565b67ffffffffffffffff81111561216057612160612ae2565b6040519080825280601f01601f19166020018201604052801561218a576020820181803683370190505b5090507f3000000000000000000000000000000000000000000000000000000000000000816000815181106121c1576121c1612e12565b60200101906001600160f81b031916908160001a9053507f78000000000000000000000000000000000000000000000000000000000000008160018151811061220c5761220c612e12565b60200101906001600160f81b031916908160001a9053506000612230846002612e99565b61223b906001613162565b90505b60018111156122c0577f303132333435363738396162636465660000000000000000000000000000000085600f166010811061227c5761227c612e12565b1a60f81b82828151811061229257612292612e12565b60200101906001600160f81b031916908160001a90535060049490941c936122b9816131ce565b905061223e565b50831561165b5760405162461bcd60e51b815260206004820181905260248201527f537472696e67733a20686578206c656e67746820696e73756666696369656e746044820152606401610b76565b6000807a184f03e93ff9f4daa797ed6e38ed64bf6a1f0100000000000000008310612358577a184f03e93ff9f4daa797ed6e38ed64bf6a1f010000000000000000830492506040015b6d04ee2d6d415b85acef81000000008310612384576d04ee2d6d415b85acef8100000000830492506020015b662386f26fc1000083106123a257662386f26fc10000830492506010015b6305f5e10083106123ba576305f5e100830492506008015b61271083106123ce57612710830492506004015b606483106123e0576064830492506002015b600a83106107d35760010192915050565b60006001600160e01b031982167f2a55205a0000000000000000000000000000000000000000000000000000000014806107d357507f01ffc9a7000000000000000000000000000000000000000000000000000000006001600160e01b03198316146107d3565b6001600160a01b0382166124ae5760405162461bcd60e51b815260206004820181905260248201527f4552433732313a206d696e7420746f20746865207a65726f20616464726573736044820152606401610b76565b6000818152600460205260409020546001600160a01b0316156125135760405162461bcd60e51b815260206004820152601c60248201527f4552433732313a20746f6b656e20616c7265616479206d696e746564000000006044820152606401610b76565b612521600083836001611edc565b6000818152600460205260409020546001600160a01b0316156125865760405162461bcd60e51b815260206004820152601c60248201527f4552433732313a20746f6b656e20616c7265616479206d696e746564000000006044820152606401610b76565b6001600160a01b038216600081815260056020908152604080832080546001019055848352600490915280822080546001600160a01b0319168417905551839291907fddf252ad1be2c89b69c2b068fc378daa952ba7f163c4a11628f55a4df523b3ef908290a45050565b82805482825590600052602060002090810192821561262c579160200282015b8281111561262c578251825591602001919060010190612611565b50612638929150612677565b5090565b82805482825590600052602060002090810192821561262c579160200282015b8281111561262c57823582559160200191906001019061265c565b5b808211156126385760008155600101612678565b6001600160e01b0319811681146118b557600080fd5b6000602082840312156126b457600080fd5b813561165b8161268c565b60005b838110156126da5781810151838201526020016126c2565b50506000910152565b600081518084526126fb8160208601602086016126bf565b601f01601f19169290920160200192915050565b60208152600061165b60208301846126e3565b60006020828403121561273457600080fd5b5035919050565b6001600160a01b03811681146118b557600080fd5b6000806040838503121561276357600080fd5b823561276e8161273b565b946020939093013593505050565b60008060006060848603121561279157600080fd5b833561279c8161273b565b925060208401356127ac8161273b565b929592945050506040919091013590565b600080604083850312156127d057600080fd5b50508035926020909101359150565b6000602082840312156127f157600080fd5b813561165b8161273b565b60008083601f84011261280e57600080fd5b50813567ffffffffffffffff81111561282657600080fd5b6020830191508360208260051b8501011115610d6757600080fd5b60008060006040848603121561285657600080fd5b833567ffffffffffffffff81111561286d57600080fd5b612879868287016127fc565b909790965060209590950135949350505050565b600081518084526020808501945080840160005b838110156128bd578151875295820195908201906001016128a1565b509495945050505050565b6000815180845260208085019450848260051b860182860160005b8581101561290d5783830389526128fb8383516126e3565b988501989250908401906001016128e3565b5090979650505050505050565b60c08152600061292d60c083018961288d565b828103602084015261293f81896128c8565b9050828103604084015261295381886128c8565b9050828103606084015261296781876128c8565b9050828103608084015261297b81866128c8565b9150508260a0830152979650505050505050565b60008060008060008060006080888a0312156129aa57600080fd5b873567ffffffffffffffff808211156129c257600080fd5b6129ce8b838c016127fc565b909950975060208a01359150808211156129e757600080fd5b6129f38b838c016127fc565b909750955060408a0135915080821115612a0c57600080fd5b50612a198a828b016127fc565b989b979a50959894979596606090950135949350505050565b60008060208385031215612a4557600080fd5b823567ffffffffffffffff80821115612a5d57600080fd5b818501915085601f830112612a7157600080fd5b813581811115612a8057600080fd5b866020828501011115612a9257600080fd5b60209290920196919550909350505050565b60008060408385031215612ab757600080fd5b8235612ac28161273b565b915060208301358015158114612ad757600080fd5b809150509250929050565b634e487b7160e01b600052604160045260246000fd5b604051601f8201601f1916810167ffffffffffffffff81118282101715612b2157612b21612ae2565b604052919050565b600067ffffffffffffffff821115612b4357612b43612ae2565b50601f01601f191660200190565b600082601f830112612b6257600080fd5b8135612b75612b7082612b29565b612af8565b818152846020838601011115612b8a57600080fd5b816020850160208301376000918101602001919091529392505050565b60008060008060808587031215612bbd57600080fd5b8435612bc88161273b565b93506020850135612bd88161273b565b925060408501359150606085013567ffffffffffffffff811115612bfb57600080fd5b612c0787828801612b51565b91505092959194509250565b600082601f830112612c2457600080fd5b8135602067ffffffffffffffff821115612c4057612c40612ae2565b8160051b612c4f828201612af8565b9283528481018201928281019087851115612c6957600080fd5b83870192505b84831015612c8857823582529183019190830190612c6f565b979650505050505050565b600080600080600060a08688031215612cab57600080fd5b8535612cb68161273b565b94506020860135612cc68161273b565b9350604086013567ffffffffffffffff80821115612ce357600080fd5b612cef89838a01612c13565b94506060880135915080821115612d0557600080fd5b612d1189838a01612c13565b93506080880135915080821115612d2757600080fd5b50612d3488828901612b51565b9150509295509295909350565b60008060408385031215612d5457600080fd5b8235612d5f8161273b565b91506020830135612ad78161273b565b600080600080600060a08688031215612d8757600080fd5b8535612d928161273b565b94506020860135612da28161273b565b93506040860135925060608601359150608086013567ffffffffffffffff811115612dcc57600080fd5b612d3488828901612b51565b600181811c90821680612dec57607f821691505b602082108103612e0c57634e487b7160e01b600052602260045260246000fd5b50919050565b634e487b7160e01b600052603260045260246000fd5b60006001600160a01b03808716835280861660208401525060a06040830152612e5460a083018561288d565b8281036060840152612e66818561288d565b838103608090940193909352505060008152602001949350505050565b634e487b7160e01b600052601160045260246000fd5b80820281158282048414176107d3576107d3612e83565b600082612ecd57634e487b7160e01b600052601260045260246000fd5b500490565b81835260007f07ffffffffffffffffffffffffffffffffffffffffffffffffffffffffffffff831115612f0457600080fd5b8260051b80836020870137939093016020019392505050565b6001600160a01b0384168152604060208201526000612f40604083018486612ed2565b95945050505050565b600082601f830112612f5a57600080fd5b8151612f68612b7082612b29565b818152846020838601011115612f7d57600080fd5b611a408260208301602087016126bf565b60008060008060808587031215612fa457600080fd5b845167ffffffffffffffff80821115612fbc57600080fd5b612fc888838901612f49565b95506020870151915080821115612fde57600080fd5b612fea88838901612f49565b9450604087015191508082111561300057600080fd5b61300c88838901612f49565b9350606087015191508082111561302257600080fd5b50612c0787828801612f49565b60006001820161304157613041612e83565b5060010190565b60408152600061305c604083018587612ed2565b9050826020830152949350505050565b6001600160a01b038616815260606020820152600061308f606083018688612ed2565b82810360408401526130a2818587612ed2565b98975050505050505050565b6000602082840312156130c057600080fd5b815167ffffffffffffffff8111156130d757600080fd5b611a4084828501612f49565b600084516130f58184602089016126bf565b8451908301906131098183602089016126bf565b7f2f00000000000000000000000000000000000000000000000000000000000000910190815283516131428160018401602088016126bf565b0160010195945050505050565b818103818111156107d3576107d3612e83565b808201808211156107d3576107d3612e83565b60006001600160a01b038087168352808616602084015250836040830152608060608301526131a760808301846126e3565b9695505050505050565b6000602082840312156131c357600080fd5b815161165b8161268c565b6000816131dd576131dd612e83565b50600019019056fea2646970667358221220a97189a0354b1b923a5e85c0033978dae2be56a8c0a02b1c8f8dd3be85ad800e64736f6c634300081300336080604052604051620012813803806200128183398101604081905262000026916200042e565b8051825114620000985760405162461bcd60e51b815260206004820152603260248201527f5061796d656e7453706c69747465723a2070617965657320616e6420736861726044820152710cae640d8cadccee8d040dad2e6dac2e8c6d60731b60648201526084015b60405180910390fd5b6000825111620000eb5760405162461bcd60e51b815260206004820152601a60248201527f5061796d656e7453706c69747465723a206e6f2070617965657300000000000060448201526064016200008f565b60005b82518110156200015757620001428382815181106200011157620001116200050c565b60200260200101518383815181106200012e576200012e6200050c565b60200260200101516200016060201b60201c565b806200014e8162000538565b915050620000ee565b50505062000570565b6001600160a01b038216620001cd5760405162461bcd60e51b815260206004820152602c60248201527f5061796d656e7453706c69747465723a206163636f756e74206973207468652060448201526b7a65726f206164647265737360a01b60648201526084016200008f565b600081116200021f5760405162461bcd60e51b815260206004820152601d60248201527f5061796d656e7453706c69747465723a2073686172657320617265203000000060448201526064016200008f565b6001600160a01b038216600090815260026020526040902054156200029b5760405162461bcd60e51b815260206004820152602b60248201527f5061796d656e7453706c69747465723a206163636f756e7420616c726561647960448201526a206861732073686172657360a81b60648201526084016200008f565b60048054600181019091557f8a35acfbc15ff81a39ae7d344fd709f28e8600b4aa8c65c6b64bfe7fe36bd19b0180546001600160a01b0319166001600160a01b0384169081179091556000908152600260205260408120829055546200030390829062000554565b600055604080516001600160a01b0384168152602081018390527f40c340f65e17194d14ddddb073d3c9f888e3cb52b5aae0c6c7706b4fbc905fac910160405180910390a15050565b634e487b7160e01b600052604160045260246000fd5b604051601f8201601f191681016001600160401b03811182821017156200038d576200038d6200034c565b604052919050565b60006001600160401b03821115620003b157620003b16200034c565b5060051b60200190565b600082601f830112620003cd57600080fd5b81516020620003e6620003e08362000395565b62000362565b82815260059290921b840181019181810190868411156200040657600080fd5b8286015b848110156200042357805183529183019183016200040a565b509695505050505050565b600080604083850312156200044257600080fd5b82516001600160401b03808211156200045a57600080fd5b818501915085601f8301126200046f57600080fd5b8151602062000482620003e08362000395565b82815260059290921b84018101918181019089841115620004a257600080fd5b948201945b83861015620004d95785516001600160a01b0381168114620004c95760008081fd5b82529482019490820190620004a7565b91880151919650909350505080821115620004f357600080fd5b506200050285828601620003bb565b9150509250929050565b634e487b7160e01b600052603260045260246000fd5b634e487b7160e01b600052601160045260246000fd5b6000600182016200054d576200054d62000522565b5060010190565b808201808211156200056a576200056a62000522565b92915050565b610d0180620005806000396000f3fe6080604052600436106100c05760003560e01c80639852595c11610074578063ce7c2ac21161004e578063ce7c2ac214610242578063d79779b214610278578063e33b7de3146102ae57600080fd5b80639852595c146101cc578063a3f8eace14610202578063c45ac0501461022257600080fd5b8063406072a9116100a5578063406072a91461015457806348b75044146101745780638b83209b1461019457600080fd5b8063191655871461010e5780633a98ef391461013057600080fd5b36610109577f6ef95f06320e7a25a04a175ca677b7052bdd97131872c2192525a629f51be77033604080516001600160a01b0390921682523460208301520160405180910390a1005b600080fd5b34801561011a57600080fd5b5061012e610129366004610b23565b6102c3565b005b34801561013c57600080fd5b506000545b6040519081526020015b60405180910390f35b34801561016057600080fd5b5061014161016f366004610b40565b610432565b34801561018057600080fd5b5061012e61018f366004610b40565b61045f565b3480156101a057600080fd5b506101b46101af366004610b79565b6105f3565b6040516001600160a01b03909116815260200161014b565b3480156101d857600080fd5b506101416101e7366004610b23565b6001600160a01b031660009081526003602052604090205490565b34801561020e57600080fd5b5061014161021d366004610b23565b610623565b34801561022e57600080fd5b5061014161023d366004610b40565b61066b565b34801561024e57600080fd5b5061014161025d366004610b23565b6001600160a01b031660009081526002602052604090205490565b34801561028457600080fd5b50610141610293366004610b23565b6001600160a01b031660009081526005602052604090205490565b3480156102ba57600080fd5b50600154610141565b6001600160a01b03811660009081526002602052604090205461033c5760405162461bcd60e51b815260206004820152602660248201527f5061796d656e7453706c69747465723a206163636f756e7420686173206e6f2060448201526573686172657360d01b60648201526084015b60405180910390fd5b600061034782610623565b9050806000036103ad5760405162461bcd60e51b815260206004820152602b60248201527f5061796d656e7453706c69747465723a206163636f756e74206973206e6f742060448201526a191d59481c185e5b595b9d60aa1b6064820152608401610333565b80600160008282546103bf9190610ba8565b90915550506001600160a01b03821660009081526003602052604090208054820190556103ec828261072a565b604080516001600160a01b0384168152602081018390527fdf20fd1e76bc69d672e4814fafb2c449bba3a5369d8359adf9e05e6fde87b056910160405180910390a15050565b6001600160a01b038083166000908152600660209081526040808320938516835292905220545b92915050565b6001600160a01b0381166000908152600260205260409020546104d35760405162461bcd60e51b815260206004820152602660248201527f5061796d656e7453706c69747465723a206163636f756e7420686173206e6f2060448201526573686172657360d01b6064820152608401610333565b60006104df838361066b565b9050806000036105455760405162461bcd60e51b815260206004820152602b60248201527f5061796d656e7453706c69747465723a206163636f756e74206973206e6f742060448201526a191d59481c185e5b595b9d60aa1b6064820152608401610333565b6001600160a01b0383166000908152600560205260408120805483929061056d908490610ba8565b90915550506001600160a01b0380841660009081526006602090815260408083209386168352929052208054820190556105a8838383610848565b604080516001600160a01b038481168252602082018490528516917f3be5b7a71e84ed12875d241991c70855ac5817d847039e17a9d895c1ceb0f18a910160405180910390a2505050565b60006004828154811061060857610608610bbb565b6000918252602090912001546001600160a01b031692915050565b60008061062f60015490565b6106399047610ba8565b9050610664838261065f866001600160a01b031660009081526003602052604090205490565b6108c8565b9392505050565b6001600160a01b03821660009081526005602052604081205481906040517f70a082310000000000000000000000000000000000000000000000000000000081523060048201526001600160a01b038616906370a0823190602401602060405180830381865afa1580156106e3573d6000803e3d6000fd5b505050506040513d601f19601f820116820180604052508101906107079190610bd1565b6107119190610ba8565b9050610722838261065f8787610432565b949350505050565b8047101561077a5760405162461bcd60e51b815260206004820152601d60248201527f416464726573733a20696e73756666696369656e742062616c616e63650000006044820152606401610333565b6000826001600160a01b03168260405160006040518083038185875af1925050503d80600081146107c7576040519150601f19603f3d011682016040523d82523d6000602084013e6107cc565b606091505b50509050806108435760405162461bcd60e51b815260206004820152603a60248201527f416464726573733a20756e61626c6520746f2073656e642076616c75652c207260448201527f6563697069656e74206d617920686176652072657665727465640000000000006064820152608401610333565b505050565b604080516001600160a01b038416602482015260448082018490528251808303909101815260649091019091526020810180517bffffffffffffffffffffffffffffffffffffffffffffffffffffffff167fa9059cbb00000000000000000000000000000000000000000000000000000000179052610843908490610903565b600080546001600160a01b0385168252600260205260408220548391906108ef9086610bea565b6108f99190610c01565b6107229190610c23565b6000610958826040518060400160405280602081526020017f5361666545524332303a206c6f772d6c6576656c2063616c6c206661696c6564815250856001600160a01b03166109e89092919063ffffffff16565b80519091501561084357808060200190518101906109769190610c36565b6108435760405162461bcd60e51b815260206004820152602a60248201527f5361666545524332303a204552433230206f7065726174696f6e20646964206e60448201527f6f742073756363656564000000000000000000000000000000000000000000006064820152608401610333565b6060610722848460008585600080866001600160a01b03168587604051610a0f9190610c7c565b60006040518083038185875af1925050503d8060008114610a4c576040519150601f19603f3d011682016040523d82523d6000602084013e610a51565b606091505b5091509150610a6287838387610a6d565b979650505050505050565b60608315610adc578251600003610ad5576001600160a01b0385163b610ad55760405162461bcd60e51b815260206004820152601d60248201527f416464726573733a2063616c6c20746f206e6f6e2d636f6e74726163740000006044820152606401610333565b5081610722565b6107228383815115610af15781518083602001fd5b8060405162461bcd60e51b81526004016103339190610c98565b6001600160a01b0381168114610b2057600080fd5b50565b600060208284031215610b3557600080fd5b813561066481610b0b565b60008060408385031215610b5357600080fd5b8235610b5e81610b0b565b91506020830135610b6e81610b0b565b809150509250929050565b600060208284031215610b8b57600080fd5b5035919050565b634e487b7160e01b600052601160045260246000fd5b8082018082111561045957610459610b92565b634e487b7160e01b600052603260045260246000fd5b600060208284031215610be357600080fd5b5051919050565b808202811582820484141761045957610459610b92565b600082610c1e57634e487b7160e01b600052601260045260246000fd5b500490565b8181038181111561045957610459610b92565b600060208284031215610c4857600080fd5b8151801515811461066457600080fd5b60005b83811015610c73578181015183820152602001610c5b565b50506000910152565b60008251610c8e818460208701610c58565b9190910192915050565b6020815260008251806020840152610cb7816040850160208701610c58565b601f01601f1916919091016040019291505056fea2646970667358221220ce9a6bcd2b43e1c2ba849e49a590b0148fe0d414edba637b9113e5c3ad3c78c364736f6c63430008130033",
  "devdoc": {
    "events": {
      "Approval(address,address,uint256)": {
        "details": "Emitted when `owner` enables `approved` to manage the `tokenId` token."
      },
      "ApprovalForAll(address,address,bool)": {
        "details": "Emitted when `owner` enables or disables (`approved`) `operator` to manage all of its assets."
      },
      "Transfer(address,address,uint256)": {
        "details": "Emitted when `tokenId` token is transferred from `from` to `to`."
      }
    },
    "kind": "dev",
    "methods": {
      "approve(address,uint256)": {
        "details": "See {IERC721-approve}."
      },
      "artwork(uint256)": {
        "params": {
          "_artworkTokenId": "token ID of the artwork"
        },
        "returns": {
          "_hash": "the artwork hash",
          "_traitNames": "the human readable trait names contained in the artwork",
          "_traitTokenIds": "the token IDs of the traits the artwork contains",
          "_traitTypeNames": "the human readable trait type names",
          "_traitTypeValues": "the trait type values used by the generative script",
          "_traitValues": "the trait values used by the generative script"
        }
      },
      "balanceOf(address)": {
        "details": "See {IERC721-balanceOf}."
      },
      "getApproved(uint256)": {
        "details": "See {IERC721-getApproved}."
      },
      "isApprovedForAll(address,address)": {
        "details": "See {IERC721-isApprovedForAll}."
      },
      "metadataJSON()": {
        "returns": {
          "_0": "string the project metadata in JSON format"
        }
      },
      "mintArtwork(uint256[],uint256)": {
        "params": {
          "_saltNonce": "salt number that is used to generate the artwork hash",
          "_traitTokenIds": "the trait token IDs to create the artwork with"
        },
        "returns": {
          "_artworkTokenId": "the token ID of the newly minted artwork"
        }
      },
      "mintArtworkProof(uint256[],uint256)": {
        "params": {
          "_saltNonce": "salt number that is used to generate the artwork hash",
          "_traitTokenIds": "token IDs of the traits to use to create the artwork"
        }
      },
      "mintArtworkWhitelist(uint256[],uint256)": {
        "params": {
          "_saltNonce": "salt number that is used to generate the artwork hash",
          "_traitTokenIds": "token IDs of the traits to use to create the artwork"
        }
      },
      "mintTraitsAndArtwork(uint256[],uint256[],uint256[],uint256)": {
        "params": {
          "_saltNonce": "salt number that is used to generate the artwork hash",
          "_traitAmountsToBuy": "amounts of each trait to buy",
          "_traitTokenIdsToBuy": "token IDs of the traits to buy",
          "_traitTokenIdsToCreateArtwork": "token IDs of the traits to use to create the artwork"
        }
      },
      "name()": {
        "details": "See {IERC721Metadata-name}."
      },
      "ownerOf(uint256)": {
        "details": "See {IERC721-ownerOf}."
      },
      "reclaimTraits(uint256)": {
        "params": {
          "_artworkTokenId": "the token ID of the artwork being reclaimed"
        }
      },
      "royaltyInfo(uint256,uint256)": {
        "details": "Returns how much royalty is owed and to whom, based on a sale price that may be denominated in any unit of exchange. The royalty amount is denominated and should be paid in that same unit of exchange."
      },
      "safeTransferFrom(address,address,uint256)": {
        "details": "See {IERC721-safeTransferFrom}."
      },
      "safeTransferFrom(address,address,uint256,bytes)": {
        "details": "See {IERC721-safeTransferFrom}."
      },
      "script()": {
        "returns": {
          "_0": "string the generative art javascript"
        }
      },
      "setApprovalForAll(address,bool)": {
        "details": "See {IERC721-setApprovalForAll}."
      },
      "setup(bytes)": {
        "params": {
          "_data": "bytes containing address of the traits contract"
        }
      },
      "supportsInterface(bytes4)": {
        "params": {
          "interfaceId": "the interface ID to check"
        },
        "returns": {
          "_0": "bool True if the interface is supported, otherwise False"
        }
      },
      "symbol()": {
        "details": "See {IERC721Metadata-symbol}."
      },
      "tokenURI(uint256)": {
        "params": {
          "_tokenId": "token ID to get URI for"
        },
        "returns": {
          "_0": "string the token URI"
        }
      },
      "transferFrom(address,address,uint256)": {
        "details": "See {IERC721-transferFrom}."
      },
      "userNonce(address)": {
        "params": {
          "_user": "the address of the user"
        },
        "returns": {
          "_0": "uint256 the user's nonce"
        }
      }
    },
    "version": 1
  },
  "userdoc": {
    "kind": "user",
    "methods": {
      "artwork(uint256)": {
        "notice": "Returns info about the specified artwork token"
      },
      "metadataJSON()": {
        "notice": "Returns a string containing the project metadata in JSON format"
      },
      "mintArtwork(uint256[],uint256)": {
        "notice": "Mints a new artwork with the specified trait token IDs The caller must own the specified traits"
      },
      "mintArtworkProof(uint256[],uint256)": {
        "notice": "Allows the artist or project registry to mint the proof mint"
      },
      "mintArtworkWhitelist(uint256[],uint256)": {
        "notice": "Allows an address on the whitelist to mint an artwork for free"
      },
      "mintTraitsAndArtwork(uint256[],uint256[],uint256[],uint256)": {
        "notice": "Mints traits with specified amounts, and mints an artwork in a single transaction ETH amount needed for trait mints must be sent"
      },
      "reclaimTraits(uint256)": {
        "notice": "Reclaims the traits the specified artwork token into the traits its composed of The artwork token is burned, and the token ID will never be reused The traits are transferred to the caller's address"
      },
      "script()": {
        "notice": "Returns the string that contains the generative art javascript"
      },
      "setup(bytes)": {
        "notice": "Sets up the contract"
      },
      "supportsInterface(bytes4)": {
        "notice": "Returns whether the specified interface ID is supported by the contract"
      },
      "tokenURI(uint256)": {
        "notice": "Returns the URI of the specified token ID"
      },
      "userNonce(address)": {
        "notice": "Returns the specified user's nonce, which is used to generate artwork hashes"
      }
    },
    "notice": "Implements ERC-721 standard for artwork tokens, and functionality for minting artwork and reclaiming traits",
    "version": 1
  },
  "storageLayout": {
    "storage": [
      {
        "astId": 3848,
        "contract": "contracts/Artwork.sol:Artwork",
        "label": "_defaultRoyaltyInfo",
        "offset": 0,
        "slot": "0",
        "type": "t_struct(RoyaltyInfo)3845_storage"
      },
      {
        "astId": 3853,
        "contract": "contracts/Artwork.sol:Artwork",
        "label": "_tokenRoyaltyInfo",
        "offset": 0,
        "slot": "1",
        "type": "t_mapping(t_uint256,t_struct(RoyaltyInfo)3845_storage)"
      },
      {
        "astId": 2751,
        "contract": "contracts/Artwork.sol:Artwork",
        "label": "_name",
        "offset": 0,
        "slot": "2",
        "type": "t_string_storage"
      },
      {
        "astId": 2753,
        "contract": "contracts/Artwork.sol:Artwork",
        "label": "_symbol",
        "offset": 0,
        "slot": "3",
        "type": "t_string_storage"
      },
      {
        "astId": 2757,
        "contract": "contracts/Artwork.sol:Artwork",
        "label": "_owners",
        "offset": 0,
        "slot": "4",
        "type": "t_mapping(t_uint256,t_address)"
      },
      {
        "astId": 2761,
        "contract": "contracts/Artwork.sol:Artwork",
        "label": "_balances",
        "offset": 0,
        "slot": "5",
        "type": "t_mapping(t_address,t_uint256)"
      },
      {
        "astId": 2765,
        "contract": "contracts/Artwork.sol:Artwork",
        "label": "_tokenApprovals",
        "offset": 0,
        "slot": "6",
        "type": "t_mapping(t_uint256,t_address)"
      },
      {
        "astId": 2771,
        "contract": "contracts/Artwork.sol:Artwork",
        "label": "_operatorApprovals",
        "offset": 0,
        "slot": "7",
        "type": "t_mapping(t_address,t_mapping(t_address,t_bool))"
      },
      {
        "astId": 5500,
        "contract": "contracts/Artwork.sol:Artwork",
        "label": "proofMinted",
        "offset": 0,
        "slot": "8",
        "type": "t_bool"
      },
      {
        "astId": 5505,
        "contract": "contracts/Artwork.sol:Artwork",
        "label": "artistAddress",
        "offset": 1,
        "slot": "8",
        "type": "t_address"
      },
      {
        "astId": 5508,
        "contract": "contracts/Artwork.sol:Artwork",
        "label": "projectRegistry",
        "offset": 0,
        "slot": "9",
        "type": "t_contract(IProjectRegistry)8140"
      },
      {
        "astId": 5511,
        "contract": "contracts/Artwork.sol:Artwork",
        "label": "traits",
        "offset": 0,
        "slot": "10",
        "type": "t_contract(ITraits)8410"
      },
      {
        "astId": 5513,
        "contract": "contracts/Artwork.sol:Artwork",
        "label": "nextTokenId",
        "offset": 0,
        "slot": "11",
        "type": "t_uint256"
      },
      {
        "astId": 5516,
        "contract": "contracts/Artwork.sol:Artwork",
        "label": "metadataJSONStringStorage",
        "offset": 0,
        "slot": "12",
        "type": "t_struct(StringStorageData)7906_storage"
      },
      {
        "astId": 5519,
        "contract": "contracts/Artwork.sol:Artwork",
        "label": "scriptStringStorage",
        "offset": 0,
        "slot": "13",
        "type": "t_struct(StringStorageData)7906_storage"
      },
      {
        "astId": 5524,
        "contract": "contracts/Artwork.sol:Artwork",
        "label": "artworkData",
        "offset": 0,
        "slot": "14",
        "type": "t_mapping(t_uint256,t_struct(ArtworkData)7901_storage)"
      },
      {
        "astId": 5528,
        "contract": "contracts/Artwork.sol:Artwork",
        "label": "userNonces",
        "offset": 0,
        "slot": "15",
        "type": "t_mapping(t_address,t_uint256)"
      }
    ],
    "types": {
      "t_address": {
        "encoding": "inplace",
        "label": "address",
        "numberOfBytes": "20"
      },
      "t_array(t_uint256)dyn_storage": {
        "base": "t_uint256",
        "encoding": "dynamic_array",
        "label": "uint256[]",
        "numberOfBytes": "32"
      },
      "t_bool": {
        "encoding": "inplace",
        "label": "bool",
        "numberOfBytes": "1"
      },
      "t_bytes32": {
        "encoding": "inplace",
        "label": "bytes32",
        "numberOfBytes": "32"
      },
      "t_contract(IProjectRegistry)8140": {
        "encoding": "inplace",
        "label": "contract IProjectRegistry",
        "numberOfBytes": "20"
      },
      "t_contract(ITraits)8410": {
        "encoding": "inplace",
        "label": "contract ITraits",
        "numberOfBytes": "20"
      },
      "t_mapping(t_address,t_bool)": {
        "encoding": "mapping",
        "key": "t_address",
        "label": "mapping(address => bool)",
        "numberOfBytes": "32",
        "value": "t_bool"
      },
      "t_mapping(t_address,t_mapping(t_address,t_bool))": {
        "encoding": "mapping",
        "key": "t_address",
        "label": "mapping(address => mapping(address => bool))",
        "numberOfBytes": "32",
        "value": "t_mapping(t_address,t_bool)"
      },
      "t_mapping(t_address,t_uint256)": {
        "encoding": "mapping",
        "key": "t_address",
        "label": "mapping(address => uint256)",
        "numberOfBytes": "32",
        "value": "t_uint256"
      },
      "t_mapping(t_uint256,t_address)": {
        "encoding": "mapping",
        "key": "t_uint256",
        "label": "mapping(uint256 => address)",
        "numberOfBytes": "32",
        "value": "t_address"
      },
      "t_mapping(t_uint256,t_struct(ArtworkData)7901_storage)": {
        "encoding": "mapping",
        "key": "t_uint256",
        "label": "mapping(uint256 => struct IArtwork.ArtworkData)",
        "numberOfBytes": "32",
        "value": "t_struct(ArtworkData)7901_storage"
      },
      "t_mapping(t_uint256,t_struct(RoyaltyInfo)3845_storage)": {
        "encoding": "mapping",
        "key": "t_uint256",
        "label": "mapping(uint256 => struct ERC2981.RoyaltyInfo)",
        "numberOfBytes": "32",
        "value": "t_struct(RoyaltyInfo)3845_storage"
      },
      "t_string_storage": {
        "encoding": "bytes",
        "label": "string",
        "numberOfBytes": "32"
      },
      "t_struct(ArtworkData)7901_storage": {
        "encoding": "inplace",
        "label": "struct IArtwork.ArtworkData",
        "members": [
          {
            "astId": 7897,
            "contract": "contracts/Artwork.sol:Artwork",
            "label": "hash",
            "offset": 0,
            "slot": "0",
            "type": "t_bytes32"
          },
          {
            "astId": 7900,
            "contract": "contracts/Artwork.sol:Artwork",
            "label": "traitTokenIds",
            "offset": 0,
            "slot": "1",
            "type": "t_array(t_uint256)dyn_storage"
          }
        ],
        "numberOfBytes": "64"
      },
      "t_struct(RoyaltyInfo)3845_storage": {
        "encoding": "inplace",
        "label": "struct ERC2981.RoyaltyInfo",
        "members": [
          {
            "astId": 3842,
            "contract": "contracts/Artwork.sol:Artwork",
            "label": "receiver",
            "offset": 0,
            "slot": "0",
            "type": "t_address"
          },
          {
            "astId": 3844,
            "contract": "contracts/Artwork.sol:Artwork",
            "label": "royaltyFraction",
            "offset": 20,
            "slot": "0",
            "type": "t_uint96"
          }
        ],
        "numberOfBytes": "32"
      },
      "t_struct(StringStorageData)7906_storage": {
        "encoding": "inplace",
        "label": "struct IArtwork.StringStorageData",
        "members": [
          {
            "astId": 7903,
            "contract": "contracts/Artwork.sol:Artwork",
            "label": "stringStorageSlot",
            "offset": 0,
            "slot": "0",
            "type": "t_uint8"
          },
          {
            "astId": 7905,
            "contract": "contracts/Artwork.sol:Artwork",
            "label": "stringStorageAddress",
            "offset": 1,
            "slot": "0",
            "type": "t_address"
          }
        ],
        "numberOfBytes": "32"
      },
      "t_uint256": {
        "encoding": "inplace",
        "label": "uint256",
        "numberOfBytes": "32"
      },
      "t_uint8": {
        "encoding": "inplace",
        "label": "uint8",
        "numberOfBytes": "1"
      },
      "t_uint96": {
        "encoding": "inplace",
        "label": "uint96",
        "numberOfBytes": "12"
      }
    }
  }
}