{
  "address": "0x177835b21E75ef9df4761E8ec74d7AB098EE43ba",
  "abi": [
    {
      "anonymous": false,
      "inputs": [
        {
          "indexed": true,
          "internalType": "address",
          "name": "recipient",
          "type": "address"
        },
        {
          "indexed": false,
          "internalType": "uint256",
          "name": "revenueClaimed",
          "type": "uint256"
        }
      ],
      "name": "ArtistRevenueClaimed",
      "type": "event"
    },
    {
      "anonymous": false,
      "inputs": [
        {
          "indexed": true,
          "internalType": "uint256",
          "name": "tokenId",
          "type": "uint256"
        },
        {
          "indexed": false,
          "internalType": "uint256",
          "name": "constantA",
          "type": "uint256"
        },
        {
          "indexed": false,
          "internalType": "uint256",
          "name": "constantB",
          "type": "uint256"
        },
        {
          "indexed": true,
          "internalType": "address",
          "name": "artistAddress",
          "type": "address"
        },
        {
          "indexed": false,
          "internalType": "address",
          "name": "erc20Token",
          "type": "address"
        },
        {
          "indexed": false,
          "internalType": "uint256",
          "name": "startTime",
          "type": "uint256"
        }
      ],
      "name": "BondingCurveCreated",
      "type": "event"
    },
    {
      "anonymous": false,
      "inputs": [
        {
          "indexed": true,
          "internalType": "address",
          "name": "bondingCurveCreator",
          "type": "address"
        },
        {
          "indexed": true,
          "internalType": "uint256",
          "name": "tokenId",
          "type": "uint256"
        },
        {
          "indexed": false,
          "internalType": "uint256",
          "name": "erc1155Quantity",
          "type": "uint256"
        },
        {
          "indexed": false,
          "internalType": "uint256",
          "name": "erc20TotalSpent",
          "type": "uint256"
        },
        {
          "indexed": false,
          "internalType": "uint256",
          "name": "erc20TotalFee",
          "type": "uint256"
        },
        {
          "indexed": false,
          "internalType": "uint256",
          "name": "erc20ArtistFee",
          "type": "uint256"
        },
        {
          "indexed": true,
          "internalType": "address",
          "name": "recipient",
          "type": "address"
        }
      ],
      "name": "ElementsBought",
      "type": "event"
    },
    {
      "anonymous": false,
      "inputs": [
        {
          "indexed": true,
          "internalType": "address",
          "name": "bondingCurveCreator",
          "type": "address"
        },
        {
          "indexed": true,
          "internalType": "uint256",
          "name": "tokenId",
          "type": "uint256"
        },
        {
          "indexed": false,
          "internalType": "uint256",
          "name": "erc1155Quantity",
          "type": "uint256"
        },
        {
          "indexed": false,
          "internalType": "uint256",
          "name": "erc20Received",
          "type": "uint256"
        },
        {
          "indexed": true,
          "internalType": "address",
          "name": "recipient",
          "type": "address"
        }
      ],
      "name": "ElementsSold",
      "type": "event"
    },
    {
      "anonymous": false,
      "inputs": [
        {
          "indexed": true,
          "internalType": "address",
          "name": "recipient",
          "type": "address"
        },
        {
          "indexed": false,
          "internalType": "uint256",
          "name": "revenueClaimed",
          "type": "uint256"
        }
      ],
      "name": "PlatformRevenueClaimed",
      "type": "event"
    },
    {
      "inputs": [],
      "name": "artistFeeNumerator",
      "outputs": [
        {
          "internalType": "uint256",
          "name": "",
          "type": "uint256"
        }
      ],
      "stateMutability": "view",
      "type": "function"
    },
    {
      "inputs": [
        {
          "internalType": "address",
          "name": "",
          "type": "address"
        }
      ],
      "name": "artistRevenues",
      "outputs": [
        {
          "internalType": "uint256",
          "name": "",
          "type": "uint256"
        }
      ],
      "stateMutability": "view",
      "type": "function"
    },
    {
      "inputs": [
        {
          "internalType": "uint256[]",
          "name": "_tokenIds",
          "type": "uint256[]"
        },
        {
          "internalType": "uint256[]",
          "name": "_erc1155Quantities",
          "type": "uint256[]"
        },
        {
          "internalType": "uint256[]",
          "name": "_maxERC20sToSpend",
          "type": "uint256[]"
        },
        {
          "internalType": "address",
          "name": "_spender",
          "type": "address"
        },
        {
          "internalType": "address",
          "name": "_recipient",
          "type": "address"
        }
      ],
      "name": "batchBuyElements",
      "outputs": [],
      "stateMutability": "nonpayable",
      "type": "function"
    },
    {
      "inputs": [
        {
          "internalType": "uint256[]",
          "name": "_tokenIds",
          "type": "uint256[]"
        },
        {
          "internalType": "uint256[]",
          "name": "_erc1155Quantities",
          "type": "uint256[]"
        },
        {
          "internalType": "uint256[]",
          "name": "_minERC20sToReceive",
          "type": "uint256[]"
        },
        {
          "internalType": "address",
          "name": "_erc20Recipient",
          "type": "address"
        }
      ],
      "name": "batchSellElements",
      "outputs": [],
      "stateMutability": "nonpayable",
      "type": "function"
    },
    {
      "inputs": [
        {
          "internalType": "uint256",
          "name": "_tokenId",
          "type": "uint256"
        },
        {
          "internalType": "uint256",
          "name": "_erc1155Quantity",
          "type": "uint256"
        },
        {
          "internalType": "uint256",
          "name": "_maxERC20ToSpend",
          "type": "uint256"
        },
        {
          "internalType": "address",
          "name": "_spender",
          "type": "address"
        },
        {
          "internalType": "address",
          "name": "_recipient",
          "type": "address"
        }
      ],
      "name": "buyElements",
      "outputs": [],
      "stateMutability": "nonpayable",
      "type": "function"
    },
    {
      "inputs": [
        {
          "internalType": "uint256",
          "name": "_tokenId",
          "type": "uint256"
        },
        {
          "internalType": "uint256",
          "name": "_constantA",
          "type": "uint256"
        },
        {
          "internalType": "uint256",
          "name": "_constantB",
          "type": "uint256"
        },
        {
          "internalType": "address",
          "name": "_artistAddress",
          "type": "address"
        },
        {
          "internalType": "address",
          "name": "_erc20Token",
          "type": "address"
        },
        {
          "internalType": "uint256",
          "name": "_startTime",
          "type": "uint256"
        }
      ],
      "name": "createBondingCurve",
      "outputs": [],
      "stateMutability": "nonpayable",
      "type": "function"
    },
    {
      "inputs": [
        {
          "internalType": "uint256[]",
          "name": "_tokenIds",
          "type": "uint256[]"
        },
        {
          "internalType": "uint256[]",
          "name": "_constantAs",
          "type": "uint256[]"
        },
        {
          "internalType": "uint256[]",
          "name": "_constantBs",
          "type": "uint256[]"
        },
        {
          "internalType": "address",
          "name": "_artistAddress",
          "type": "address"
        },
        {
          "internalType": "address",
          "name": "_erc20Token",
          "type": "address"
        },
        {
          "internalType": "uint256",
          "name": "_startTime",
          "type": "uint256"
        }
      ],
      "name": "createBondingCurves",
      "outputs": [],
      "stateMutability": "nonpayable",
      "type": "function"
    },
    {
      "inputs": [],
      "name": "element",
      "outputs": [
        {
          "internalType": "contract IERC1155MintBurn",
          "name": "",
          "type": "address"
        }
      ],
      "stateMutability": "view",
      "type": "function"
    },
    {
      "inputs": [
        {
          "internalType": "uint256",
          "name": "_tokenId",
          "type": "uint256"
        },
        {
          "internalType": "uint256",
          "name": "_erc1155Quantity",
          "type": "uint256"
        }
      ],
      "name": "getBuyERC20Amount",
      "outputs": [
        {
          "internalType": "uint256",
          "name": "erc20Amount",
          "type": "uint256"
        }
      ],
      "stateMutability": "view",
      "type": "function"
    },
    {
      "inputs": [
        {
          "internalType": "uint256",
          "name": "_tokenId",
          "type": "uint256"
        },
        {
          "internalType": "uint256",
          "name": "_erc1155Quantity",
          "type": "uint256"
        }
      ],
      "name": "getBuyERC20AmountWithFee",
      "outputs": [
        {
          "internalType": "uint256",
          "name": "erc20TotalAmount",
          "type": "uint256"
        },
        {
          "internalType": "uint256",
          "name": "erc20TotalFee",
          "type": "uint256"
        },
        {
          "internalType": "uint256",
          "name": "erc20ArtistFee",
          "type": "uint256"
        }
      ],
      "stateMutability": "view",
      "type": "function"
    },
    {
      "inputs": [
        {
          "internalType": "uint256",
          "name": "_tokenId",
          "type": "uint256"
        },
        {
          "internalType": "uint256",
          "name": "_erc1155Quantity",
          "type": "uint256"
        }
      ],
      "name": "getSellERC20Amount",
      "outputs": [
        {
          "internalType": "uint256",
          "name": "erc20Amount",
          "type": "uint256"
        }
      ],
      "stateMutability": "view",
      "type": "function"
    },
    {
      "inputs": [
        {
          "internalType": "address",
          "name": "_element",
          "type": "address"
        },
        {
          "internalType": "address",
          "name": "_studio",
          "type": "address"
        },
        {
          "internalType": "uint256",
          "name": "_totalFeeNumerator",
          "type": "uint256"
        },
        {
          "internalType": "uint256",
          "name": "_artistFeeNumerator",
          "type": "uint256"
        }
      ],
      "name": "initialize",
      "outputs": [],
      "stateMutability": "nonpayable",
      "type": "function"
    },
    {
      "inputs": [],
      "name": "platformRevenue",
      "outputs": [
        {
          "internalType": "uint256",
          "name": "",
          "type": "uint256"
        }
      ],
      "stateMutability": "view",
      "type": "function"
    },
    {
      "inputs": [
        {
          "internalType": "uint256",
          "name": "_tokenId",
          "type": "uint256"
        },
        {
          "internalType": "uint256",
          "name": "_erc1155Quantity",
          "type": "uint256"
        },
        {
          "internalType": "uint256",
          "name": "_minERC20ToReceive",
          "type": "uint256"
        },
        {
          "internalType": "address",
          "name": "_erc20Recipient",
          "type": "address"
        }
      ],
      "name": "sellElements",
      "outputs": [],
      "stateMutability": "nonpayable",
      "type": "function"
    },
    {
      "inputs": [],
      "name": "studio",
      "outputs": [
        {
          "internalType": "address",
          "name": "",
          "type": "address"
        }
      ],
      "stateMutability": "view",
      "type": "function"
    },
    {
      "inputs": [
        {
          "internalType": "uint256",
          "name": "",
          "type": "uint256"
        }
      ],
      "name": "tokenIdToBondingCurve",
      "outputs": [
        {
          "internalType": "uint256",
          "name": "constantA",
          "type": "uint256"
        },
        {
          "internalType": "uint256",
          "name": "constantB",
          "type": "uint256"
        },
        {
          "internalType": "uint256",
          "name": "reserves",
          "type": "uint256"
        },
        {
          "internalType": "address",
          "name": "artistAddress",
          "type": "address"
        },
        {
          "internalType": "address",
          "name": "erc20Token",
          "type": "address"
        },
        {
          "internalType": "uint256",
          "name": "startTime",
          "type": "uint256"
        }
      ],
      "stateMutability": "view",
      "type": "function"
    },
    {
      "inputs": [],
      "name": "totalFeeNumerator",
      "outputs": [
        {
          "internalType": "uint256",
          "name": "",
          "type": "uint256"
        }
      ],
      "stateMutability": "view",
      "type": "function"
    }
  ],
  "transactionHash": "0x7084501aed9b5e2c4a42ec36573c6fd90fb3abf3da77c38211240f1be76267ac",
  "args": [],
  "numDeployments": 1,
  "solcInputHash": "087a7cb0e2ad6a30db8c30e9538f1bcb",
  "bytecode": "0x608060405234801561001057600080fd5b50611a87806100206000396000f3fe608060405234801561001057600080fd5b506004361061010b5760003560e01c806394d391fe116100a2578063c7cb00fe11610071578063c7cb00fe146102aa578063ca7ee8a0146102bd578063d282855b146102d0578063eb990c59146102e3578063fd40af0f146102f657600080fd5b806394d391fe146101ef578063ae2f151114610202578063b8d3370b1461028e578063c0c7b5051461029757600080fd5b80638951c8e3116100de5780638951c8e3146101a057806390db5d03146101b357806391a37ced146101bc57806392069f8f146101cf57600080fd5b806324048ba1146101105780632884fd001461012c578063421e56921461015d57806384a18b681461018b575b600080fd5b61011960045481565b6040519081526020015b60405180910390f35b600054610145906201000090046001600160a01b031681565b6040516001600160a01b039091168152602001610123565b61017061016b3660046112cd565b610309565b60408051938452602084019290925290820152606001610123565b61019e6101993660046113b1565b61036d565b005b61019e6101ae36600461145b565b61044c565b61011960035481565b6101196101ca3660046112cd565b6105bd565b6101196101dd36600461149a565b60066020526000908152604090205481565b61019e6101fd3660046114b5565b610814565b6102556102103660046114eb565b60056020819052600091825260409091208054600182015460028301546003840154600485015494909501549294919390926001600160a01b03928316929091169086565b604080519687526020870195909552938501929092526001600160a01b03908116606085015216608083015260a082015260c001610123565b61011960025481565b6101196102a53660046112cd565b61096c565b61019e6102b8366004611504565b610ae4565b600154610145906001600160a01b031681565b61019e6102de3660046115a8565b610d2b565b61019e6102f136600461166c565b610dfe565b61019e6103043660046116ae565b610f05565b600080600080610319868661096c565b9050633b9aca006002548261032e9190611752565b6103389190611771565b9250633b9aca006003548261034d9190611752565b6103579190611771565b91506103638382611793565b9350509250925092565b6001546001600160a01b031633146103a05760405162461bcd60e51b8152600401610397906117ab565b60405180910390fd5b835185511480156103b2575082518551145b6103ce5760405162461bcd60e51b8152600401610397906117fa565b60005b8551811015610444576104328682815181106103ef576103ef611829565b602002602001015186838151811061040957610409611829565b602002602001015186848151811061042357610423611829565b60200260200101518686610814565b8061043c8161183f565b9150506103d1565b505050505050565b6001546001600160a01b031633146104765760405162461bcd60e51b8152600401610397906117ab565b600084815260056020819052604090912001544210156104a85760405162461bcd60e51b815260040161039790611858565b60006104b485856105bd565b9050828110156104fa5760405162461bcd60e51b81526020600482015260116024820152700a6d8d2e0e0c2ceca40e8dede40d0d2ced607b1b6044820152606401610397565b6000858152600560205260408120600201805483929061051b90849061188f565b9091555050600054604051637a94c56560e11b81523360048201526024810187905260448101869052620100009091046001600160a01b03169063f5298aca90606401600060405180830381600087803b15801561057857600080fd5b505af115801561058c573d6000803e3d6000fd5b5050506000868152600560205260409020600401546105b691506001600160a01b03168383610fd2565b5050505050565b6000828152600560208190526040822001544210156105ee5760405162461bcd60e51b815260040161039790611858565b6000838152600560205260409020600301546001600160a01b03166106555760405162461bcd60e51b815260206004820152601d60248201527f426f6e64696e67206375727665206e6f7420696e697469616c697a65640000006044820152606401610397565b60005460405163bd85b03960e01b81526004810185905283916201000090046001600160a01b03169063bd85b03990602401602060405180830381865afa1580156106a4573d6000803e3d6000fd5b505050506040513d601f19601f820116820180604052508101906106c891906118a6565b10156107215760405162461bcd60e51b815260206004820152602260248201527f5175616e746974792067726561746572207468616e20746f74616c20737570706044820152616c7960f01b6064820152608401610397565b6000805460405163bd85b03960e01b81526004810186905284916201000090046001600160a01b03169063bd85b03990602401602060405180830381865afa158015610771573d6000803e3d6000fd5b505050506040513d601f19601f8201168201806040525081019061079591906118a6565b61079f919061188f565b6000858152600560205260409020600101549091506002906107c2908390611752565b6107cc91906119a5565b6000858152600560205260409020546107e6908390611752565b6107f09190611793565b60008581526005602052604090206002015461080c919061188f565b949350505050565b6001546001600160a01b0316331461083e5760405162461bcd60e51b8152600401610397906117ab565b600080600061084d8888610309565b925092509250858311156108975760405162461bcd60e51b81526020600482015260116024820152700a6d8d2e0e0c2ceca40e8dede40d0d2ced607b1b6044820152606401610397565b6000888152600560205260409020600401546108be906001600160a01b031686308661103a565b6108c8828461188f565b600089815260056020526040812060020180549091906108e9908490611793565b9091555050600054604051630ab714fb60e11b81526001600160a01b038681166004830152602482018b9052604482018a9052620100009092049091169063156e29f690606401600060405180830381600087803b15801561094a57600080fd5b505af115801561095e573d6000803e3d6000fd5b505050505050505050505050565b60008281526005602081905260408220015442101561099d5760405162461bcd60e51b815260040161039790611858565b6000838152600560205260409020600301546001600160a01b0316610a045760405162461bcd60e51b815260206004820152601d60248201527f426f6e64696e67206375727665206e6f7420696e697469616c697a65640000006044820152606401610397565b6000805460405163bd85b03960e01b81526004810186905284916201000090046001600160a01b03169063bd85b03990602401602060405180830381865afa158015610a54573d6000803e3d6000fd5b505050506040513d601f19601f82011682018060405250810190610a7891906118a6565b610a829190611793565b60008581526005602052604090206002808201546001909201549293509091610aac908490611752565b610ab691906119a5565b600086815260056020526040902054610ad0908490611752565b610ada9190611793565b61080c919061188f565b6001546001600160a01b03163314610b0e5760405162461bcd60e51b8152600401610397906117ab565b6001600160a01b038316610b725760405162461bcd60e51b815260206004820152602560248201527f41727469737420616464726573732063616e6e6f742062652061646472657373604482015264207a65726f60d81b6064820152608401610397565b6000868152600560205260409020600301546001600160a01b031615610be45760405162461bcd60e51b815260206004820152602160248201527f426f6e64696e6720637572766520616c726561647920696e697469616c697a656044820152601960fa1b6064820152608401610397565b6040518060c0016040528086815260200185815260200160008152602001846001600160a01b03168152602001836001600160a01b03168152602001828152506005600088815260200190815260200160002060008201518160000155602082015181600101556040820151816002015560608201518160030160006101000a8154816001600160a01b0302191690836001600160a01b0316021790555060808201518160040160006101000a8154816001600160a01b0302191690836001600160a01b0316021790555060a08201518160050155905050826001600160a01b0316867fe6dfcb81806ee4e059abaffdf5fb294d228ce3d8f0d57d90a5e853b79ea8fc8687878686604051610d1b949392919093845260208401929092526001600160a01b03166040830152606082015260800190565b60405180910390a3505050505050565b6001546001600160a01b03163314610d555760405162461bcd60e51b8152600401610397906117ab565b8786148015610d6357508784145b610d7f5760405162461bcd60e51b8152600401610397906117fa565b60005b88811015610df257610de08a8a83818110610d9f57610d9f611829565b90506020020135898984818110610db857610db8611829565b90506020020135888885818110610dd157610dd1611829565b90506020020135878787610ae4565b80610dea8161183f565b915050610d82565b50505050505050505050565b600054610100900460ff16610e195760005460ff1615610e1d565b303b155b610e805760405162461bcd60e51b815260206004820152602e60248201527f496e697469616c697a61626c653a20636f6e747261637420697320616c72656160448201526d191e481a5b9a5d1a585b1a5e995960921b6064820152608401610397565b600054610100900460ff16158015610ea2576000805461ffff19166101011790555b6000805462010000600160b01b031916620100006001600160a01b038881169190910291909117909155600180546001600160a01b0319169186169190911790556002839055600382905580156105b6576000805461ff00191690555050505050565b6001546001600160a01b03163314610f2f5760405162461bcd60e51b8152600401610397906117ab565b82518451148015610f41575081518451145b610f5d5760405162461bcd60e51b8152600401610397906117fa565b60005b84518110156105b657610fc0858281518110610f7e57610f7e611829565b6020026020010151858381518110610f9857610f98611829565b6020026020010151858481518110610fb257610fb2611829565b60200260200101518561044c565b80610fca8161183f565b915050610f60565b6040516001600160a01b03831660248201526044810182905261103590849063a9059cbb60e01b906064015b60408051601f198184030181529190526020810180516001600160e01b03166001600160e01b031990931692909217909152611078565b505050565b6040516001600160a01b03808516602483015283166044820152606481018290526110729085906323b872dd60e01b90608401610ffe565b50505050565b60006110cd826040518060400160405280602081526020017f5361666545524332303a206c6f772d6c6576656c2063616c6c206661696c6564815250856001600160a01b031661114a9092919063ffffffff16565b80519091501561103557808060200190518101906110eb91906119b4565b6110355760405162461bcd60e51b815260206004820152602a60248201527f5361666545524332303a204552433230206f7065726174696f6e20646964206e6044820152691bdd081cdd58d8d9595960b21b6064820152608401610397565b60606111598484600085611163565b90505b9392505050565b6060824710156111c45760405162461bcd60e51b815260206004820152602660248201527f416464726573733a20696e73756666696369656e742062616c616e636520666f6044820152651c8818d85b1b60d21b6064820152608401610397565b6001600160a01b0385163b61121b5760405162461bcd60e51b815260206004820152601d60248201527f416464726573733a2063616c6c20746f206e6f6e2d636f6e74726163740000006044820152606401610397565b600080866001600160a01b031685876040516112379190611a02565b60006040518083038185875af1925050503d8060008114611274576040519150601f19603f3d011682016040523d82523d6000602084013e611279565b606091505b5091509150611289828286611294565b979650505050505050565b606083156112a357508161115c565b8251156112b35782518084602001fd5b8160405162461bcd60e51b81526004016103979190611a1e565b600080604083850312156112e057600080fd5b50508035926020909101359150565b634e487b7160e01b600052604160045260246000fd5b600082601f83011261131657600080fd5b8135602067ffffffffffffffff80831115611333576113336112ef565b8260051b604051601f19603f83011681018181108482111715611358576113586112ef565b60405293845285810183019383810192508785111561137657600080fd5b83870191505b848210156112895781358352918301919083019061137c565b80356001600160a01b03811681146113ac57600080fd5b919050565b600080600080600060a086880312156113c957600080fd5b853567ffffffffffffffff808211156113e157600080fd5b6113ed89838a01611305565b9650602088013591508082111561140357600080fd5b61140f89838a01611305565b9550604088013591508082111561142557600080fd5b5061143288828901611305565b93505061144160608701611395565b915061144f60808701611395565b90509295509295909350565b6000806000806080858703121561147157600080fd5b84359350602085013592506040850135915061148f60608601611395565b905092959194509250565b6000602082840312156114ac57600080fd5b61115c82611395565b600080600080600060a086880312156114cd57600080fd5b85359450602086013593506040860135925061144160608701611395565b6000602082840312156114fd57600080fd5b5035919050565b60008060008060008060c0878903121561151d57600080fd5b86359550602087013594506040870135935061153b60608801611395565b925061154960808801611395565b915060a087013590509295509295509295565b60008083601f84011261156e57600080fd5b50813567ffffffffffffffff81111561158657600080fd5b6020830191508360208260051b85010111156115a157600080fd5b9250929050565b600080600080600080600080600060c08a8c0312156115c657600080fd5b893567ffffffffffffffff808211156115de57600080fd5b6115ea8d838e0161155c565b909b50995060208c013591508082111561160357600080fd5b61160f8d838e0161155c565b909950975060408c013591508082111561162857600080fd5b506116358c828d0161155c565b9096509450611648905060608b01611395565b925061165660808b01611395565b915060a08a013590509295985092959850929598565b6000806000806080858703121561168257600080fd5b61168b85611395565b935061169960208601611395565b93969395505050506040820135916060013590565b600080600080608085870312156116c457600080fd5b843567ffffffffffffffff808211156116dc57600080fd5b6116e888838901611305565b955060208701359150808211156116fe57600080fd5b61170a88838901611305565b9450604087013591508082111561172057600080fd5b5061172d87828801611305565b92505061148f60608601611395565b634e487b7160e01b600052601160045260246000fd5b600081600019048311821515161561176c5761176c61173c565b500290565b60008261178e57634e487b7160e01b600052601260045260246000fd5b500490565b600082198211156117a6576117a661173c565b500190565b6020808252602f908201527f4f6e6c79207468652053747564696f20636f6e74726163742063616e2063616c60408201526e36103a3434b990333ab731ba34b7b760891b606082015260800190565b602080825260159082015274496e76616c6964206172726179206c656e6774687360581b604082015260600190565b634e487b7160e01b600052603260045260246000fd5b6000600182016118515761185161173c565b5060010190565b60208082526017908201527f414d4d20686173206e6f74207374617274656420796574000000000000000000604082015260600190565b6000828210156118a1576118a161173c565b500390565b6000602082840312156118b857600080fd5b5051919050565b600181815b808511156118fa5781600019048211156118e0576118e061173c565b808516156118ed57918102915b93841c93908002906118c4565b509250929050565b6000826119115750600161199f565b8161191e5750600061199f565b8160018114611934576002811461193e5761195a565b600191505061199f565b60ff84111561194f5761194f61173c565b50506001821b61199f565b5060208310610133831016604e8410600b841016171561197d575081810a61199f565b61198783836118bf565b806000190482111561199b5761199b61173c565b0290505b92915050565b600061115c60ff841683611902565b6000602082840312156119c657600080fd5b8151801515811461115c57600080fd5b60005b838110156119f15781810151838201526020016119d9565b838111156110725750506000910152565b60008251611a148184602087016119d6565b9190910192915050565b6020815260008251806020840152611a3d8160408501602087016119d6565b601f01601f1916919091016040019291505056fea2646970667358221220bece2b4b9e85fbb58095d0cc68dcbc6927002fcb59600e2f1744e1bdc80f6d1b64736f6c634300080d0033",
  "devdoc": {
    "kind": "dev",
    "methods": {},
    "version": 1
  },
  "userdoc": {
    "kind": "user",
    "methods": {},
    "version": 1
  },
  "storageLayout": {
    "storage": [
      {
        "astId": 6,
        "contract": "contracts/AMM.sol:AMM",
        "label": "_initialized",
        "offset": 0,
        "slot": "0",
        "type": "t_bool"
      },
      {
        "astId": 9,
        "contract": "contracts/AMM.sol:AMM",
        "label": "_initializing",
        "offset": 1,
        "slot": "0",
        "type": "t_bool"
      },
      {
        "astId": 4768,
        "contract": "contracts/AMM.sol:AMM",
        "label": "element",
        "offset": 2,
        "slot": "0",
        "type": "t_contract(IERC1155MintBurn)7781"
      },
      {
        "astId": 4770,
        "contract": "contracts/AMM.sol:AMM",
        "label": "studio",
        "offset": 0,
        "slot": "1",
        "type": "t_address"
      },
      {
        "astId": 4772,
        "contract": "contracts/AMM.sol:AMM",
        "label": "totalFeeNumerator",
        "offset": 0,
        "slot": "2",
        "type": "t_uint256"
      },
      {
        "astId": 4774,
        "contract": "contracts/AMM.sol:AMM",
        "label": "artistFeeNumerator",
        "offset": 0,
        "slot": "3",
        "type": "t_uint256"
      },
      {
        "astId": 4779,
        "contract": "contracts/AMM.sol:AMM",
        "label": "platformRevenue",
        "offset": 0,
        "slot": "4",
        "type": "t_uint256"
      },
      {
        "astId": 4784,
        "contract": "contracts/AMM.sol:AMM",
        "label": "tokenIdToBondingCurve",
        "offset": 0,
        "slot": "5",
        "type": "t_mapping(t_uint256,t_struct(BondingCurve)7409_storage)"
      },
      {
        "astId": 4788,
        "contract": "contracts/AMM.sol:AMM",
        "label": "artistRevenues",
        "offset": 0,
        "slot": "6",
        "type": "t_mapping(t_address,t_uint256)"
      }
    ],
    "types": {
      "t_address": {
        "encoding": "inplace",
        "label": "address",
        "numberOfBytes": "20"
      },
      "t_bool": {
        "encoding": "inplace",
        "label": "bool",
        "numberOfBytes": "1"
      },
      "t_contract(IERC1155MintBurn)7781": {
        "encoding": "inplace",
        "label": "contract IERC1155MintBurn",
        "numberOfBytes": "20"
      },
      "t_mapping(t_address,t_uint256)": {
        "encoding": "mapping",
        "key": "t_address",
        "label": "mapping(address => uint256)",
        "numberOfBytes": "32",
        "value": "t_uint256"
      },
      "t_mapping(t_uint256,t_struct(BondingCurve)7409_storage)": {
        "encoding": "mapping",
        "key": "t_uint256",
        "label": "mapping(uint256 => struct IAMM.BondingCurve)",
        "numberOfBytes": "32",
        "value": "t_struct(BondingCurve)7409_storage"
      },
      "t_struct(BondingCurve)7409_storage": {
        "encoding": "inplace",
        "label": "struct IAMM.BondingCurve",
        "members": [
          {
            "astId": 7398,
            "contract": "contracts/AMM.sol:AMM",
            "label": "constantA",
            "offset": 0,
            "slot": "0",
            "type": "t_uint256"
          },
          {
            "astId": 7400,
            "contract": "contracts/AMM.sol:AMM",
            "label": "constantB",
            "offset": 0,
            "slot": "1",
            "type": "t_uint256"
          },
          {
            "astId": 7402,
            "contract": "contracts/AMM.sol:AMM",
            "label": "reserves",
            "offset": 0,
            "slot": "2",
            "type": "t_uint256"
          },
          {
            "astId": 7404,
            "contract": "contracts/AMM.sol:AMM",
            "label": "artistAddress",
            "offset": 0,
            "slot": "3",
            "type": "t_address"
          },
          {
            "astId": 7406,
            "contract": "contracts/AMM.sol:AMM",
            "label": "erc20Token",
            "offset": 0,
            "slot": "4",
            "type": "t_address"
          },
          {
            "astId": 7408,
            "contract": "contracts/AMM.sol:AMM",
            "label": "startTime",
            "offset": 0,
            "slot": "5",
            "type": "t_uint256"
          }
        ],
        "numberOfBytes": "192"
      },
      "t_uint256": {
        "encoding": "inplace",
        "label": "uint256",
        "numberOfBytes": "32"
      }
    }
  }
}