{
  "address": "0xfD3FB8007037a3fCF8dD03D75827632ef4Db9160",
  "abi": [
    {
      "inputs": [
        {
          "internalType": "uint96",
          "name": "_royaltyFeeNumerator",
          "type": "uint96"
        },
        {
          "internalType": "string",
          "name": "_name",
          "type": "string"
        },
        {
          "internalType": "string",
          "name": "_symbol",
          "type": "string"
        },
        {
          "internalType": "string",
          "name": "_baseURI",
          "type": "string"
        },
        {
          "internalType": "string",
          "name": "_scriptJSON",
          "type": "string"
        },
        {
          "internalType": "address",
          "name": "_owner",
          "type": "address"
        },
        {
          "internalType": "address[]",
          "name": "_royaltyPayees",
          "type": "address[]"
        },
        {
          "internalType": "uint256[]",
          "name": "_royaltyShares",
          "type": "uint256[]"
        }
      ],
      "stateMutability": "nonpayable",
      "type": "constructor"
    },
    {
      "inputs": [],
      "name": "Locked",
      "type": "error"
    },
    {
      "inputs": [],
      "name": "OnlyArtist",
      "type": "error"
    },
    {
      "inputs": [],
      "name": "OnlyArtworkOwner",
      "type": "error"
    },
    {
      "inputs": [],
      "name": "TraitsAlreadySet",
      "type": "error"
    },
    {
      "inputs": [],
      "name": "TraitsNotSet",
      "type": "error"
    },
    {
      "anonymous": false,
      "inputs": [
        {
          "indexed": true,
          "internalType": "address",
          "name": "owner",
          "type": "address"
        },
        {
          "indexed": true,
          "internalType": "address",
          "name": "approved",
          "type": "address"
        },
        {
          "indexed": true,
          "internalType": "uint256",
          "name": "tokenId",
          "type": "uint256"
        }
      ],
      "name": "Approval",
      "type": "event"
    },
    {
      "anonymous": false,
      "inputs": [
        {
          "indexed": true,
          "internalType": "address",
          "name": "owner",
          "type": "address"
        },
        {
          "indexed": true,
          "internalType": "address",
          "name": "operator",
          "type": "address"
        },
        {
          "indexed": false,
          "internalType": "bool",
          "name": "approved",
          "type": "bool"
        }
      ],
      "name": "ApprovalForAll",
      "type": "event"
    },
    {
      "anonymous": false,
      "inputs": [
        {
          "indexed": true,
          "internalType": "uint256",
          "name": "artworkTokenId",
          "type": "uint256"
        },
        {
          "indexed": false,
          "internalType": "uint256[]",
          "name": "traitTokenIds",
          "type": "uint256[]"
        },
        {
          "indexed": false,
          "internalType": "bytes32",
          "name": "hash",
          "type": "bytes32"
        },
        {
          "indexed": true,
          "internalType": "address",
          "name": "creator",
          "type": "address"
        }
      ],
      "name": "ArtworkCreated",
      "type": "event"
    },
    {
      "anonymous": false,
      "inputs": [
        {
          "indexed": true,
          "internalType": "uint256",
          "name": "artworkTokenId",
          "type": "uint256"
        },
        {
          "indexed": true,
          "internalType": "address",
          "name": "caller",
          "type": "address"
        }
      ],
      "name": "ArtworkDecomposed",
      "type": "event"
    },
    {
      "anonymous": false,
      "inputs": [
        {
          "indexed": false,
          "internalType": "string",
          "name": "baseURI",
          "type": "string"
        }
      ],
      "name": "BaseURIUpdated",
      "type": "event"
    },
    {
      "anonymous": false,
      "inputs": [
        {
          "indexed": true,
          "internalType": "address",
          "name": "previousOwner",
          "type": "address"
        },
        {
          "indexed": true,
          "internalType": "address",
          "name": "newOwner",
          "type": "address"
        }
      ],
      "name": "OwnershipTransferred",
      "type": "event"
    },
    {
      "anonymous": false,
      "inputs": [
        {
          "indexed": true,
          "internalType": "address",
          "name": "from",
          "type": "address"
        },
        {
          "indexed": true,
          "internalType": "address",
          "name": "to",
          "type": "address"
        },
        {
          "indexed": true,
          "internalType": "uint256",
          "name": "tokenId",
          "type": "uint256"
        }
      ],
      "name": "Transfer",
      "type": "event"
    },
    {
      "inputs": [],
      "name": "VERSION",
      "outputs": [
        {
          "internalType": "string",
          "name": "",
          "type": "string"
        }
      ],
      "stateMutability": "view",
      "type": "function"
    },
    {
      "inputs": [
        {
          "internalType": "address",
          "name": "to",
          "type": "address"
        },
        {
          "internalType": "uint256",
          "name": "tokenId",
          "type": "uint256"
        }
      ],
      "name": "approve",
      "outputs": [],
      "stateMutability": "nonpayable",
      "type": "function"
    },
    {
      "inputs": [
        {
          "internalType": "uint256",
          "name": "_artworkTokenId",
          "type": "uint256"
        }
      ],
      "name": "artwork",
      "outputs": [
        {
          "internalType": "uint256[]",
          "name": "_traitTokenIds",
          "type": "uint256[]"
        },
        {
          "internalType": "string[]",
          "name": "_traitNames",
          "type": "string[]"
        },
        {
          "internalType": "string[]",
          "name": "_traitValues",
          "type": "string[]"
        },
        {
          "internalType": "string[]",
          "name": "_traitTypeNames",
          "type": "string[]"
        },
        {
          "internalType": "string[]",
          "name": "_traitTypeValues",
          "type": "string[]"
        },
        {
          "internalType": "bytes32",
          "name": "_hash",
          "type": "bytes32"
        }
      ],
      "stateMutability": "view",
      "type": "function"
    },
    {
      "inputs": [
        {
          "internalType": "address",
          "name": "owner",
          "type": "address"
        }
      ],
      "name": "balanceOf",
      "outputs": [
        {
          "internalType": "uint256",
          "name": "",
          "type": "uint256"
        }
      ],
      "stateMutability": "view",
      "type": "function"
    },
    {
      "inputs": [],
      "name": "baseURI",
      "outputs": [
        {
          "internalType": "string",
          "name": "",
          "type": "string"
        }
      ],
      "stateMutability": "view",
      "type": "function"
    },
    {
      "inputs": [
        {
          "internalType": "uint256[]",
          "name": "_traitTokenIdsToBuy",
          "type": "uint256[]"
        },
        {
          "internalType": "uint256[]",
          "name": "_traitAmountsToBuy",
          "type": "uint256[]"
        },
        {
          "internalType": "uint256[]",
          "name": "_traitTokenIdsToCreateArtwork",
          "type": "uint256[]"
        }
      ],
      "name": "buyTraitsCreateArtwork",
      "outputs": [],
      "stateMutability": "payable",
      "type": "function"
    },
    {
      "inputs": [
        {
          "internalType": "uint256[]",
          "name": "_traitTokenIds",
          "type": "uint256[]"
        }
      ],
      "name": "createArtwork",
      "outputs": [
        {
          "internalType": "uint256",
          "name": "_artworkTokenId",
          "type": "uint256"
        }
      ],
      "stateMutability": "nonpayable",
      "type": "function"
    },
    {
      "inputs": [
        {
          "internalType": "uint256",
          "name": "_artworkTokenId",
          "type": "uint256"
        }
      ],
      "name": "decomposeArtwork",
      "outputs": [],
      "stateMutability": "nonpayable",
      "type": "function"
    },
    {
      "inputs": [
        {
          "internalType": "uint256",
          "name": "tokenId",
          "type": "uint256"
        }
      ],
      "name": "getApproved",
      "outputs": [
        {
          "internalType": "address",
          "name": "",
          "type": "address"
        }
      ],
      "stateMutability": "view",
      "type": "function"
    },
    {
      "inputs": [
        {
          "internalType": "address",
          "name": "owner",
          "type": "address"
        },
        {
          "internalType": "address",
          "name": "operator",
          "type": "address"
        }
      ],
      "name": "isApprovedForAll",
      "outputs": [
        {
          "internalType": "bool",
          "name": "",
          "type": "bool"
        }
      ],
      "stateMutability": "view",
      "type": "function"
    },
    {
      "inputs": [],
      "name": "lockProject",
      "outputs": [],
      "stateMutability": "nonpayable",
      "type": "function"
    },
    {
      "inputs": [],
      "name": "locked",
      "outputs": [
        {
          "internalType": "bool",
          "name": "",
          "type": "bool"
        }
      ],
      "stateMutability": "view",
      "type": "function"
    },
    {
      "inputs": [],
      "name": "name",
      "outputs": [
        {
          "internalType": "string",
          "name": "",
          "type": "string"
        }
      ],
      "stateMutability": "view",
      "type": "function"
    },
    {
      "inputs": [],
      "name": "nextTokenId",
      "outputs": [
        {
          "internalType": "uint256",
          "name": "",
          "type": "uint256"
        }
      ],
      "stateMutability": "view",
      "type": "function"
    },
    {
      "inputs": [
        {
          "internalType": "address",
          "name": "",
          "type": "address"
        },
        {
          "internalType": "address",
          "name": "",
          "type": "address"
        },
        {
          "internalType": "uint256[]",
          "name": "",
          "type": "uint256[]"
        },
        {
          "internalType": "uint256[]",
          "name": "",
          "type": "uint256[]"
        },
        {
          "internalType": "bytes",
          "name": "",
          "type": "bytes"
        }
      ],
      "name": "onERC1155BatchReceived",
      "outputs": [
        {
          "internalType": "bytes4",
          "name": "",
          "type": "bytes4"
        }
      ],
      "stateMutability": "nonpayable",
      "type": "function"
    },
    {
      "inputs": [
        {
          "internalType": "address",
          "name": "",
          "type": "address"
        },
        {
          "internalType": "address",
          "name": "",
          "type": "address"
        },
        {
          "internalType": "uint256",
          "name": "",
          "type": "uint256"
        },
        {
          "internalType": "uint256",
          "name": "",
          "type": "uint256"
        },
        {
          "internalType": "bytes",
          "name": "",
          "type": "bytes"
        }
      ],
      "name": "onERC1155Received",
      "outputs": [
        {
          "internalType": "bytes4",
          "name": "",
          "type": "bytes4"
        }
      ],
      "stateMutability": "nonpayable",
      "type": "function"
    },
    {
      "inputs": [],
      "name": "owner",
      "outputs": [
        {
          "internalType": "address",
          "name": "",
          "type": "address"
        }
      ],
      "stateMutability": "view",
      "type": "function"
    },
    {
      "inputs": [
        {
          "internalType": "uint256",
          "name": "tokenId",
          "type": "uint256"
        }
      ],
      "name": "ownerOf",
      "outputs": [
        {
          "internalType": "address",
          "name": "",
          "type": "address"
        }
      ],
      "stateMutability": "view",
      "type": "function"
    },
    {
      "inputs": [],
      "name": "projectScriptCount",
      "outputs": [
        {
          "internalType": "uint256",
          "name": "",
          "type": "uint256"
        }
      ],
      "stateMutability": "view",
      "type": "function"
    },
    {
      "inputs": [],
      "name": "projectScripts",
      "outputs": [
        {
          "internalType": "string[]",
          "name": "_scripts",
          "type": "string[]"
        }
      ],
      "stateMutability": "view",
      "type": "function"
    },
    {
      "inputs": [],
      "name": "renounceOwnership",
      "outputs": [],
      "stateMutability": "nonpayable",
      "type": "function"
    },
    {
      "inputs": [
        {
          "internalType": "uint256",
          "name": "_tokenId",
          "type": "uint256"
        },
        {
          "internalType": "uint256",
          "name": "_salePrice",
          "type": "uint256"
        }
      ],
      "name": "royaltyInfo",
      "outputs": [
        {
          "internalType": "address",
          "name": "",
          "type": "address"
        },
        {
          "internalType": "uint256",
          "name": "",
          "type": "uint256"
        }
      ],
      "stateMutability": "view",
      "type": "function"
    },
    {
      "inputs": [],
      "name": "royaltySplitter",
      "outputs": [
        {
          "internalType": "address",
          "name": "",
          "type": "address"
        }
      ],
      "stateMutability": "view",
      "type": "function"
    },
    {
      "inputs": [
        {
          "internalType": "address",
          "name": "from",
          "type": "address"
        },
        {
          "internalType": "address",
          "name": "to",
          "type": "address"
        },
        {
          "internalType": "uint256",
          "name": "tokenId",
          "type": "uint256"
        }
      ],
      "name": "safeTransferFrom",
      "outputs": [],
      "stateMutability": "nonpayable",
      "type": "function"
    },
    {
      "inputs": [
        {
          "internalType": "address",
          "name": "from",
          "type": "address"
        },
        {
          "internalType": "address",
          "name": "to",
          "type": "address"
        },
        {
          "internalType": "uint256",
          "name": "tokenId",
          "type": "uint256"
        },
        {
          "internalType": "bytes",
          "name": "data",
          "type": "bytes"
        }
      ],
      "name": "safeTransferFrom",
      "outputs": [],
      "stateMutability": "nonpayable",
      "type": "function"
    },
    {
      "inputs": [],
      "name": "scriptJSON",
      "outputs": [
        {
          "internalType": "string",
          "name": "",
          "type": "string"
        }
      ],
      "stateMutability": "view",
      "type": "function"
    },
    {
      "inputs": [
        {
          "internalType": "address",
          "name": "operator",
          "type": "address"
        },
        {
          "internalType": "bool",
          "name": "approved",
          "type": "bool"
        }
      ],
      "name": "setApprovalForAll",
      "outputs": [],
      "stateMutability": "nonpayable",
      "type": "function"
    },
    {
      "inputs": [
        {
          "internalType": "address",
          "name": "_traits",
          "type": "address"
        }
      ],
      "name": "setTraits",
      "outputs": [],
      "stateMutability": "nonpayable",
      "type": "function"
    },
    {
      "inputs": [
        {
          "internalType": "bytes4",
          "name": "interfaceId",
          "type": "bytes4"
        }
      ],
      "name": "supportsInterface",
      "outputs": [
        {
          "internalType": "bool",
          "name": "",
          "type": "bool"
        }
      ],
      "stateMutability": "view",
      "type": "function"
    },
    {
      "inputs": [],
      "name": "symbol",
      "outputs": [
        {
          "internalType": "string",
          "name": "",
          "type": "string"
        }
      ],
      "stateMutability": "view",
      "type": "function"
    },
    {
      "inputs": [
        {
          "internalType": "uint256",
          "name": "_tokenId",
          "type": "uint256"
        }
      ],
      "name": "tokenURI",
      "outputs": [
        {
          "internalType": "string",
          "name": "",
          "type": "string"
        }
      ],
      "stateMutability": "view",
      "type": "function"
    },
    {
      "inputs": [],
      "name": "traits",
      "outputs": [
        {
          "internalType": "contract ITraits",
          "name": "",
          "type": "address"
        }
      ],
      "stateMutability": "view",
      "type": "function"
    },
    {
      "inputs": [
        {
          "internalType": "address",
          "name": "from",
          "type": "address"
        },
        {
          "internalType": "address",
          "name": "to",
          "type": "address"
        },
        {
          "internalType": "uint256",
          "name": "tokenId",
          "type": "uint256"
        }
      ],
      "name": "transferFrom",
      "outputs": [],
      "stateMutability": "nonpayable",
      "type": "function"
    },
    {
      "inputs": [
        {
          "internalType": "address",
          "name": "newOwner",
          "type": "address"
        }
      ],
      "name": "transferOwnership",
      "outputs": [],
      "stateMutability": "nonpayable",
      "type": "function"
    },
    {
      "inputs": [
        {
          "internalType": "string",
          "name": "_baseURI",
          "type": "string"
        }
      ],
      "name": "updateBaseURI",
      "outputs": [],
      "stateMutability": "nonpayable",
      "type": "function"
    },
    {
      "inputs": [
        {
          "internalType": "uint256",
          "name": "_scriptIndex",
          "type": "uint256"
        },
        {
          "internalType": "string",
          "name": "_script",
          "type": "string"
        }
      ],
      "name": "updateScript",
      "outputs": [],
      "stateMutability": "nonpayable",
      "type": "function"
    },
    {
      "inputs": [
        {
          "internalType": "address",
          "name": "_user",
          "type": "address"
        }
      ],
      "name": "userNonce",
      "outputs": [
        {
          "internalType": "uint256",
          "name": "",
          "type": "uint256"
        }
      ],
      "stateMutability": "view",
      "type": "function"
    }
  ],
  "transactionHash": "0xb76ace39f6e1dfa56bfbef43a7eef596772c9b27c98f2237ec693aaa96d9c7fa",
  "args": [
    "1000",
    "intrinsic.art Tack Line Torn",
    "INSC",
    "https://api.intrinsic.art/",
    "{\n        \"name\": \"Tack Line Torn\",\n        \"description\": \"Tack Line Torn is a generative art project that takes the viewer on a visual journey through the chaos of a tearing sail tack line. In sailing, a tack line is crucial to the stability and direction of a vessel, and in this project, the once-reliable line is portrayed as it breaks apart in real-time. The piece is a representation of the unpredictable nature of life, as the path of fragmentation is unique with each viewing. The fragmented line symbolizes the loss of control and the fragility of stability, and invites the viewer to contemplate the beauty that can be found in the midst of destruction. Tack Line Torn is an immersive and thought-provoking generative art project that explores the themes of unpredictability, transience, and the beauty of chaos.\",\n        \"artistName\": \"Phil Smith\",\n        \"website\": \"https://tacklinetorn.com\",\n        \"license\": \"MIT\",\n        \"scriptLibrary\": \"p5.js\",\n        \"scriptLibraryVersion\": \"1.0.0\",\n        \"aspectRatio\": \"1\"\n      }",
    "0xAa9D46AE079851116967c6573f961B304095C34a",
    [
      "0xAa9D46AE079851116967c6573f961B304095C34a"
    ],
    [
      "100"
    ]
  ],
  "numDeployments": 1,
  "solcInputHash": "eb08aa687728c6d7f8f226c2e5c31c6c",
  "bytecode": "0x60806040523480156200001157600080fd5b50604051620050873803806200508783398101604081905262000034916200047e565b868662000041336200010c565b60016200004f83826200063c565b5060026200005e82826200063c565b50600b915062000071905086826200063c565b50600c6200008085826200063c565b506200008c836200010c565b600082826040516200009e9062000261565b620000ab92919062000708565b604051809103906000f080158015620000c8573d6000803e3d6000fd5b509050620000d7818a6200015c565b600980546001600160a01b0390921661010002610100600160a81b031990921691909117905550620007909650505050505050565b600080546001600160a01b038381166001600160a01b0319831681178455604051919092169283917f8be0079c531659141344cd1fd0a4f28419497f9722a3daafe3b4186f6b6457e09190a35050565b6127106001600160601b0382161115620001d05760405162461bcd60e51b815260206004820152602a60248201527f455243323938313a20726f79616c7479206665652077696c6c206578636565646044820152692073616c65507269636560b01b60648201526084015b60405180910390fd5b6001600160a01b038216620002285760405162461bcd60e51b815260206004820152601960248201527f455243323938313a20696e76616c6964207265636569766572000000000000006044820152606401620001c7565b604080518082019091526001600160a01b039092168083526001600160601b039091166020909201829052600160a01b90910217600755565b6112818062003e0683390190565b80516001600160601b03811681146200028757600080fd5b919050565b634e487b7160e01b600052604160045260246000fd5b604051601f8201601f191681016001600160401b0381118282101715620002cd57620002cd6200028c565b604052919050565b600082601f830112620002e757600080fd5b81516001600160401b038111156200030357620003036200028c565b602062000319601f8301601f19168201620002a2565b82815285828487010111156200032e57600080fd5b60005b838110156200034e57858101830151828201840152820162000331565b506000928101909101919091529392505050565b80516001600160a01b03811681146200028757600080fd5b60006001600160401b038211156200039657620003966200028c565b5060051b60200190565b600082601f830112620003b257600080fd5b81516020620003cb620003c5836200037a565b620002a2565b82815260059290921b84018101918181019086841115620003eb57600080fd5b8286015b848110156200041157620004038162000362565b8352918301918301620003ef565b509695505050505050565b600082601f8301126200042e57600080fd5b8151602062000441620003c5836200037a565b82815260059290921b840181019181810190868411156200046157600080fd5b8286015b8481101562000411578051835291830191830162000465565b600080600080600080600080610100898b0312156200049c57600080fd5b620004a7896200026f565b60208a01519098506001600160401b0380821115620004c557600080fd5b620004d38c838d01620002d5565b985060408b0151915080821115620004ea57600080fd5b620004f88c838d01620002d5565b975060608b01519150808211156200050f57600080fd5b6200051d8c838d01620002d5565b965060808b01519150808211156200053457600080fd5b620005428c838d01620002d5565b95506200055260a08c0162000362565b945060c08b01519150808211156200056957600080fd5b620005778c838d01620003a0565b935060e08b01519150808211156200058e57600080fd5b506200059d8b828c016200041c565b9150509295985092959890939650565b600181811c90821680620005c257607f821691505b602082108103620005e357634e487b7160e01b600052602260045260246000fd5b50919050565b601f8211156200063757600081815260208120601f850160051c81016020861015620006125750805b601f850160051c820191505b8181101562000633578281556001016200061e565b5050505b505050565b81516001600160401b038111156200065857620006586200028c565b6200067081620006698454620005ad565b84620005e9565b602080601f831160018114620006a857600084156200068f5750858301515b600019600386901b1c1916600185901b17855562000633565b600085815260208120601f198616915b82811015620006d957888601518255948401946001909101908401620006b8565b5085821015620006f85787850151600019600388901b60f8161c191681555b5050505050600190811b01905550565b604080825283519082018190526000906020906060840190828701845b828110156200074c5781516001600160a01b03168452928401929084019060010162000725565b5050508381038285015284518082528583019183019060005b81811015620007835783518352928401929184019160010162000765565b5090979650505050505050565b61366680620007a06000396000f3fe60806040526004361061026a5760003560e01c806370a0823111610153578063b155d57e116100cb578063e1fc334f1161007f578063f23a6e6111610064578063f23a6e6114610742578063f2fde38b14610787578063ffa1ad74146107a757600080fd5b8063e1fc334f146106d9578063e985e9c5146106f957600080fd5b8063bc197c81116100b0578063bc197c8114610641578063c87b56dd1461069f578063cf309012146106bf57600080fd5b8063b155d57e14610601578063b88d4fde1461062157600080fd5b806390d69fbc1161012257806393d6bb6a1161010757806393d6bb6a146105b757806395d89b41146105cc578063a22cb465146105e157600080fd5b806390d69fbc14610582578063931688cb1461059757600080fd5b806370a0823114610519578063715018a61461053957806375794a3c1461054e5780638da5cb5b1461056457600080fd5b80632e04b8e7116101e657806354682d72116101b55780636352211e1161019a5780636352211e146104c45780636c0360eb146104e45780636f4f7366146104f957600080fd5b806354682d721461047f5780635711c2e6146104b157600080fd5b80632e04b8e7146103e2578063338e599b14610418578063411d8f2f1461043a57806342842e0e1461045f57600080fd5b806314e6d3d41161023d5780632a55205a116102225780632a55205a146103555780632d9bace0146103945780632dafcb22146103b457600080fd5b806314e6d3d41461032057806323b872dd1461033557600080fd5b806301ffc9a71461026f57806306fdde03146102a4578063081812fc146102c6578063095ea7b3146102fe575b600080fd5b34801561027b57600080fd5b5061028f61028a36600461288d565b6107f0565b60405190151581526020015b60405180910390f35b3480156102b057600080fd5b506102b9610834565b60405161029b91906128fa565b3480156102d257600080fd5b506102e66102e136600461290d565b6108c6565b6040516001600160a01b03909116815260200161029b565b34801561030a57600080fd5b5061031e61031936600461293d565b6108ed565b005b34801561032c57600080fd5b5061031e610a41565b34801561034157600080fd5b5061031e610350366004612967565b610abe565b34801561036157600080fd5b506103756103703660046129a3565b610b35565b604080516001600160a01b03909316835260208301919091520161029b565b3480156103a057600080fd5b5061031e6103af36600461290d565b610bf2565b3480156103c057600080fd5b506103d46103cf366004612a0a565b610e46565b60405190815260200161029b565b3480156103ee57600080fd5b506103d46103fd366004612a4c565b6001600160a01b031660009081526010602052604090205490565b34801561042457600080fd5b5061042d610fdf565b60405161029b9190612abf565b34801561044657600080fd5b506009546102e69061010090046001600160a01b031681565b34801561046b57600080fd5b5061031e61047a366004612967565b611108565b34801561048b57600080fd5b5061049f61049a36600461290d565b611123565b60405161029b96959493929190612b0d565b61031e6104bf366004612b82565b611409565b3480156104d057600080fd5b506102e66104df36600461290d565b6114a1565b3480156104f057600080fd5b506102b9611506565b34801561050557600080fd5b5061031e610514366004612a4c565b611594565b34801561052557600080fd5b506103d4610534366004612a4c565b611601565b34801561054557600080fd5b5061031e61169b565b34801561055a57600080fd5b506103d4600d5481565b34801561057057600080fd5b506000546001600160a01b03166102e6565b34801561058e57600080fd5b506102b96116af565b3480156105a357600080fd5b5061031e6105b2366004612cc9565b6116bc565b3480156105c357600080fd5b506103d461170b565b3480156105d857600080fd5b506102b961176e565b3480156105ed57600080fd5b5061031e6105fc366004612d12565b61177d565b34801561060d57600080fd5b5061031e61061c366004612d4e565b61178c565b34801561062d57600080fd5b5061031e61063c366004612dea565b6117d7565b34801561064d57600080fd5b5061068661065c366004612ed2565b7fbc197c810000000000000000000000000000000000000000000000000000000095945050505050565b6040516001600160e01b0319909116815260200161029b565b3480156106ab57600080fd5b506102b96106ba36600461290d565b61184f565b3480156106cb57600080fd5b5060095461028f9060ff1681565b3480156106e557600080fd5b50600a546102e6906001600160a01b031681565b34801561070557600080fd5b5061028f610714366004612f7c565b6001600160a01b03918216600090815260066020908152604080832093909416825291909152205460ff1690565b34801561074e57600080fd5b5061068661075d366004612faf565b7ff23a6e610000000000000000000000000000000000000000000000000000000095945050505050565b34801561079357600080fd5b5061031e6107a2366004612a4c565b6118c0565b3480156107b357600080fd5b506102b96040518060400160405280600581526020017f312e302e3000000000000000000000000000000000000000000000000000000081525081565b60006001600160e01b031982167fd24f202f00000000000000000000000000000000000000000000000000000000148061082e575061082e82611950565b92915050565b60606001805461084390613014565b80601f016020809104026020016040519081016040528092919081815260200182805461086f90613014565b80156108bc5780601f10610891576101008083540402835291602001916108bc565b820191906000526020600020905b81548152906001019060200180831161089f57829003601f168201915b5050505050905090565b60006108d18261198e565b506000908152600560205260409020546001600160a01b031690565b60006108f8826114a1565b9050806001600160a01b0316836001600160a01b0316036109865760405162461bcd60e51b815260206004820152602160248201527f4552433732313a20617070726f76616c20746f2063757272656e74206f776e6560448201527f720000000000000000000000000000000000000000000000000000000000000060648201526084015b60405180910390fd5b336001600160a01b03821614806109c057506001600160a01b038116600090815260066020908152604080832033845290915290205460ff165b610a325760405162461bcd60e51b815260206004820152603d60248201527f4552433732313a20617070726f76652063616c6c6572206973206e6f7420746f60448201527f6b656e206f776e6572206f7220617070726f76656420666f7220616c6c000000606482015260840161097d565b610a3c83836119f2565b505050565b610a49611a60565b60095460ff1615610a6d576040516303cb96db60e21b815260040160405180910390fd5b600a546001600160a01b0316610aaf576040517f04afd4d700000000000000000000000000000000000000000000000000000000815260040160405180910390fd5b6009805460ff19166001179055565b610ac83382611aba565b610b2a5760405162461bcd60e51b815260206004820152602d60248201527f4552433732313a2063616c6c6572206973206e6f7420746f6b656e206f776e6560448201526c1c881bdc88185c1c1c9bdd9959609a1b606482015260840161097d565b610a3c838383611b39565b60008281526008602090815260408083208151808301909252546001600160a01b038116808352600160a01b9091046bffffffffffffffffffffffff16928201929092528291610bb45750604080518082019091526007546001600160a01b0381168252600160a01b90046bffffffffffffffffffffffff1660208201525b602081015160009061271090610bd8906bffffffffffffffffffffffff1687613064565b610be2919061307b565b91519350909150505b9250929050565b6000818152600360205260409020546001600160a01b03163314610c42576040517f1002a8dd00000000000000000000000000000000000000000000000000000000815260040160405180910390fd5b6000818152600f6020908152604080832060010180548251818502810185019093528083529192909190830182828015610c9b57602002820191906000526020600020905b815481526020019060010190808311610c87575b5050506000858152600f60205260408120819055929350610cba915050565b604051908082528060200260200182016040528015610ce3578160200160208202803683370190505b50600f60008481526020019081526020016000206001019080519060200190610d0d9291906127dc565b506000815167ffffffffffffffff811115610d2a57610d2a612c1c565b604051908082528060200260200182016040528015610d53578160200160208202803683370190505b50905060005b8151811015610d89576001828281518110610d7657610d7661309d565b6020908102919091010152600101610d59565b50610d9383611d3f565b600a546040517f2eb2c2d60000000000000000000000000000000000000000000000000000000081526001600160a01b0390911690632eb2c2d690610de29030903390879087906004016130b3565b600060405180830381600087803b158015610dfc57600080fd5b505af1158015610e10573d6000803e3d6000fd5b50506040513392508591507f8d47fd541b28b73f831d6613d064b04739e29e48ec78822fdcfb579cf3c8ecc290600090a3505050565b33600081815260106020908152604080832054905192938493610e969330939101606093841b6bffffffffffffffffffffffff1990811682529290931b9091166014830152602882015260480190565b60408051601f198184030181529190528051602090910120600d8054935090915082906000610ec48361310e565b90915550506000828152600f60205260409020818155610ee8906001018585612827565b50336000908152601060205260408120805491610f048361310e565b9091555050600a546040517f02afd1a10000000000000000000000000000000000000000000000000000000081526001600160a01b03909116906302afd1a190610f5690339088908890600401613172565b600060405180830381600087803b158015610f7057600080fd5b505af1158015610f84573d6000803e3d6000fd5b50505050610f923383611de2565b336001600160a01b0316827feb3e56751a478e501b86e03de5f91f16dfc366ad53198ff6de3ff4e61119e180868685604051610fd09392919061319e565b60405180910390a35092915050565b60606000610feb61170b565b90508067ffffffffffffffff81111561100657611006612c1c565b60405190808252806020026020018201604052801561103957816020015b60608152602001906001900390816110245790505b50915060005b81811015611103576000818152600e60205260409020805461106090613014565b80601f016020809104026020016040519081016040528092919081815260200182805461108c90613014565b80156110d95780601f106110ae576101008083540402835291602001916110d9565b820191906000526020600020905b8154815290600101906020018083116110bc57829003601f168201915b50505050508382815181106110f0576110f061309d565b602090810291909101015260010161103f565b505090565b610a3c838383604051806020016040528060008152506117d7565b606080606080606060006111368761198e565b6000878152600f602090815260409182902060010180548351818402810184019094528084529291839083018282801561118f57602002820191906000526020600020905b81548152602001906001019080831161117b575b505050505096508067ffffffffffffffff8111156111af576111af612c1c565b6040519080825280602002602001820160405280156111e257816020015b60608152602001906001900390816111cd5790505b5095508067ffffffffffffffff8111156111fe576111fe612c1c565b60405190808252806020026020018201604052801561123157816020015b606081526020019060019003908161121c5790505b5094508067ffffffffffffffff81111561124d5761124d612c1c565b60405190808252806020026020018201604052801561128057816020015b606081526020019060019003908161126b5790505b5093508067ffffffffffffffff81111561129c5761129c612c1c565b6040519080825280602002602001820160405280156112cf57816020015b60608152602001906001900390816112ba5790505b50925060005b818110156113ec57600a5488516001600160a01b039091169063f3457fdf908a90849081106113065761130661309d565b60200260200101516040518263ffffffff1660e01b815260040161132c91815260200190565b600060405180830381865afa158015611349573d6000803e3d6000fd5b505050506040513d6000823e601f3d908101601f191682016040526113719190810190613207565b8a85815181106113835761138361309d565b602002602001018a868151811061139c5761139c61309d565b602002602001018a87815181106113b5576113b561309d565b602002602001018a88815181106113ce576113ce61309d565b602090810291909101019390935292909152919052526001016112d5565b5050506000958652600f6020526040909520549395929491939092565b600a546040517f7bedfac00000000000000000000000000000000000000000000000000000000081526001600160a01b0390911690637bedfac090349061145c9033908b908b908b908b906004016132a8565b6000604051808303818588803b15801561147557600080fd5b505af1158015611489573d6000803e3d6000fd5b50505050506114988282610e46565b50505050505050565b6000818152600360205260408120546001600160a01b03168061082e5760405162461bcd60e51b815260206004820152601860248201527f4552433732313a20696e76616c696420746f6b656e2049440000000000000000604482015260640161097d565b600b805461151390613014565b80601f016020809104026020016040519081016040528092919081815260200182805461153f90613014565b801561158c5780601f106115615761010080835404028352916020019161158c565b820191906000526020600020905b81548152906001019060200180831161156f57829003601f168201915b505050505081565b61159c611a60565b600a546001600160a01b0316156115df576040517f4dadc39f00000000000000000000000000000000000000000000000000000000815260040160405180910390fd5b600a80546001600160a01b0319166001600160a01b0392909216919091179055565b60006001600160a01b03821661167f5760405162461bcd60e51b815260206004820152602960248201527f4552433732313a2061646472657373207a65726f206973206e6f74206120766160448201527f6c6964206f776e65720000000000000000000000000000000000000000000000606482015260840161097d565b506001600160a01b031660009081526004602052604090205490565b6116a3611a60565b6116ad6000611dfc565b565b600c805461151390613014565b6116c4611a60565b600b6116d08282613338565b507f6741b2fc379fad678116fe3d4d4b9a1a184ab53ba36b86ad0fa66340b1ab41ad8160405161170091906128fa565b60405180910390a150565b6000805b604080516000808252602080830180855283519020858352600e90915290839020909261173c920161346b565b604051602081830303815290604052805190602001201461176957806117618161310e565b91505061170f565b919050565b60606002805461084390613014565b611788338383611e4c565b5050565b611794611a60565b60095460ff16156117b8576040516303cb96db60e21b815260040160405180910390fd5b6000838152600e602052604090206117d1828483613477565b50505050565b6117e13383611aba565b6118435760405162461bcd60e51b815260206004820152602d60248201527f4552433732313a2063616c6c6572206973206e6f7420746f6b656e206f776e6560448201526c1c881bdc88185c1c1c9bdd9959609a1b606482015260840161097d565b6117d184848484611f1a565b606061185a8261198e565b600b805461186790613014565b9050600003611885576040518060200160405280600081525061082e565b600b61189030611f98565b61189984611fae565b6040516020016118ab93929190613538565b60405160208183030381529060405292915050565b6118c8611a60565b6001600160a01b0381166119445760405162461bcd60e51b815260206004820152602660248201527f4f776e61626c653a206e6577206f776e657220697320746865207a65726f206160448201527f6464726573730000000000000000000000000000000000000000000000000000606482015260840161097d565b61194d81611dfc565b50565b60006001600160e01b031982167f4e2312e000000000000000000000000000000000000000000000000000000000148061082e575061082e8261204e565b6000818152600360205260409020546001600160a01b031661194d5760405162461bcd60e51b815260206004820152601860248201527f4552433732313a20696e76616c696420746f6b656e2049440000000000000000604482015260640161097d565b600081815260056020526040902080546001600160a01b0319166001600160a01b0384169081179091558190611a27826114a1565b6001600160a01b03167f8c5be1e5ebec7d5bd14f71427d1e84f3dd0314c0f7b2291e5b200ac8c7c3b92560405160405180910390a45050565b6000546001600160a01b031633146116ad5760405162461bcd60e51b815260206004820181905260248201527f4f776e61626c653a2063616c6c6572206973206e6f7420746865206f776e6572604482015260640161097d565b600080611ac6836114a1565b9050806001600160a01b0316846001600160a01b03161480611b0d57506001600160a01b0380821660009081526006602090815260408083209388168352929052205460ff165b80611b315750836001600160a01b0316611b26846108c6565b6001600160a01b0316145b949350505050565b826001600160a01b0316611b4c826114a1565b6001600160a01b031614611bb05760405162461bcd60e51b815260206004820152602560248201527f4552433732313a207472616e736665722066726f6d20696e636f72726563742060448201526437bbb732b960d91b606482015260840161097d565b6001600160a01b038216611c2b5760405162461bcd60e51b8152602060048201526024808201527f4552433732313a207472616e7366657220746f20746865207a65726f2061646460448201527f7265737300000000000000000000000000000000000000000000000000000000606482015260840161097d565b611c38838383600161208c565b826001600160a01b0316611c4b826114a1565b6001600160a01b031614611caf5760405162461bcd60e51b815260206004820152602560248201527f4552433732313a207472616e736665722066726f6d20696e636f72726563742060448201526437bbb732b960d91b606482015260840161097d565b600081815260056020908152604080832080546001600160a01b03199081169091556001600160a01b0387811680865260048552838620805460001901905590871680865283862080546001019055868652600390945282852080549092168417909155905184937fddf252ad1be2c89b69c2b068fc378daa952ba7f163c4a11628f55a4df523b3ef91a4505050565b6000611d4a826114a1565b9050611d5a81600084600161208c565b611d63826114a1565b600083815260056020908152604080832080546001600160a01b03199081169091556001600160a01b0385168085526004845282852080546000190190558785526003909352818420805490911690555192935084927fddf252ad1be2c89b69c2b068fc378daa952ba7f163c4a11628f55a4df523b3ef908390a45050565b611788828260405180602001604052806000815250612114565b600080546001600160a01b038381166001600160a01b0319831681178455604051919092169283917f8be0079c531659141344cd1fd0a4f28419497f9722a3daafe3b4186f6b6457e09190a35050565b816001600160a01b0316836001600160a01b031603611ead5760405162461bcd60e51b815260206004820152601960248201527f4552433732313a20617070726f766520746f2063616c6c657200000000000000604482015260640161097d565b6001600160a01b03838116600081815260066020908152604080832094871680845294825291829020805460ff191686151590811790915591519182527f17307eab39ab6107e8899845ad3d59bd9653f200f220920489ca2b5937696c31910160405180910390a3505050565b611f25848484611b39565b611f3184848484612192565b6117d15760405162461bcd60e51b815260206004820152603260248201527f4552433732313a207472616e7366657220746f206e6f6e20455243373231526560448201527131b2b4bb32b91034b6b83632b6b2b73a32b960711b606482015260840161097d565b606061082e6001600160a01b03831660146122de565b60606000611fbb836124c6565b600101905060008167ffffffffffffffff811115611fdb57611fdb612c1c565b6040519080825280601f01601f191660200182016040528015612005576020820181803683370190505b5090508181016020015b600019017f3031323334353637383961626364656600000000000000000000000000000000600a86061a8153600a850494508461200f57509392505050565b60006001600160e01b031982167f2a55205a00000000000000000000000000000000000000000000000000000000148061082e575061082e826125a8565b60018111156117d1576001600160a01b038416156120d2576001600160a01b038416600090815260046020526040812080548392906120cc90849061359a565b90915550505b6001600160a01b038316156117d1576001600160a01b038316600090815260046020526040812080548392906121099084906135ad565b909155505050505050565b61211e8383612643565b61212b6000848484612192565b610a3c5760405162461bcd60e51b815260206004820152603260248201527f4552433732313a207472616e7366657220746f206e6f6e20455243373231526560448201527131b2b4bb32b91034b6b83632b6b2b73a32b960711b606482015260840161097d565b60006001600160a01b0384163b156122d357604051630a85bd0160e11b81526001600160a01b0385169063150b7a02906121d69033908990889088906004016135c0565b6020604051808303816000875af1925050508015612211575060408051601f3d908101601f1916820190925261220e918101906135fc565b60015b6122b9573d80801561223f576040519150601f19603f3d011682016040523d82523d6000602084013e612244565b606091505b5080516000036122b15760405162461bcd60e51b815260206004820152603260248201527f4552433732313a207472616e7366657220746f206e6f6e20455243373231526560448201527131b2b4bb32b91034b6b83632b6b2b73a32b960711b606482015260840161097d565b805181602001fd5b6001600160e01b031916630a85bd0160e11b149050611b31565b506001949350505050565b606060006122ed836002613064565b6122f89060026135ad565b67ffffffffffffffff81111561231057612310612c1c565b6040519080825280601f01601f19166020018201604052801561233a576020820181803683370190505b5090507f3000000000000000000000000000000000000000000000000000000000000000816000815181106123715761237161309d565b60200101906001600160f81b031916908160001a9053507f7800000000000000000000000000000000000000000000000000000000000000816001815181106123bc576123bc61309d565b60200101906001600160f81b031916908160001a90535060006123e0846002613064565b6123eb9060016135ad565b90505b6001811115612470577f303132333435363738396162636465660000000000000000000000000000000085600f166010811061242c5761242c61309d565b1a60f81b8282815181106124425761244261309d565b60200101906001600160f81b031916908160001a90535060049490941c9361246981613619565b90506123ee565b5083156124bf5760405162461bcd60e51b815260206004820181905260248201527f537472696e67733a20686578206c656e67746820696e73756666696369656e74604482015260640161097d565b9392505050565b6000807a184f03e93ff9f4daa797ed6e38ed64bf6a1f010000000000000000831061250f577a184f03e93ff9f4daa797ed6e38ed64bf6a1f010000000000000000830492506040015b6d04ee2d6d415b85acef8100000000831061253b576d04ee2d6d415b85acef8100000000830492506020015b662386f26fc10000831061255957662386f26fc10000830492506010015b6305f5e1008310612571576305f5e100830492506008015b612710831061258557612710830492506004015b60648310612597576064830492506002015b600a831061082e5760010192915050565b60006001600160e01b031982167f80ac58cd00000000000000000000000000000000000000000000000000000000148061260b57506001600160e01b031982167f5b5e139f00000000000000000000000000000000000000000000000000000000145b8061082e57507f01ffc9a7000000000000000000000000000000000000000000000000000000006001600160e01b031983161461082e565b6001600160a01b0382166126995760405162461bcd60e51b815260206004820181905260248201527f4552433732313a206d696e7420746f20746865207a65726f2061646472657373604482015260640161097d565b6000818152600360205260409020546001600160a01b0316156126fe5760405162461bcd60e51b815260206004820152601c60248201527f4552433732313a20746f6b656e20616c7265616479206d696e74656400000000604482015260640161097d565b61270c60008383600161208c565b6000818152600360205260409020546001600160a01b0316156127715760405162461bcd60e51b815260206004820152601c60248201527f4552433732313a20746f6b656e20616c7265616479206d696e74656400000000604482015260640161097d565b6001600160a01b038216600081815260046020908152604080832080546001019055848352600390915280822080546001600160a01b0319168417905551839291907fddf252ad1be2c89b69c2b068fc378daa952ba7f163c4a11628f55a4df523b3ef908290a45050565b828054828255906000526020600020908101928215612817579160200282015b828111156128175782518255916020019190600101906127fc565b50612823929150612862565b5090565b828054828255906000526020600020908101928215612817579160200282015b82811115612817578235825591602001919060010190612847565b5b808211156128235760008155600101612863565b6001600160e01b03198116811461194d57600080fd5b60006020828403121561289f57600080fd5b81356124bf81612877565b60005b838110156128c55781810151838201526020016128ad565b50506000910152565b600081518084526128e68160208601602086016128aa565b601f01601f19169290920160200192915050565b6020815260006124bf60208301846128ce565b60006020828403121561291f57600080fd5b5035919050565b80356001600160a01b038116811461176957600080fd5b6000806040838503121561295057600080fd5b61295983612926565b946020939093013593505050565b60008060006060848603121561297c57600080fd5b61298584612926565b925061299360208501612926565b9150604084013590509250925092565b600080604083850312156129b657600080fd5b50508035926020909101359150565b60008083601f8401126129d757600080fd5b50813567ffffffffffffffff8111156129ef57600080fd5b6020830191508360208260051b8501011115610beb57600080fd5b60008060208385031215612a1d57600080fd5b823567ffffffffffffffff811115612a3457600080fd5b612a40858286016129c5565b90969095509350505050565b600060208284031215612a5e57600080fd5b6124bf82612926565b600082825180855260208086019550808260051b84010181860160005b84811015612ab257601f19868403018952612aa08383516128ce565b98840198925090830190600101612a84565b5090979650505050505050565b6020815260006124bf6020830184612a67565b600081518084526020808501945080840160005b83811015612b0257815187529582019590820190600101612ae6565b509495945050505050565b60c081526000612b2060c0830189612ad2565b8281036020840152612b328189612a67565b90508281036040840152612b468188612a67565b90508281036060840152612b5a8187612a67565b90508281036080840152612b6e8186612a67565b9150508260a0830152979650505050505050565b60008060008060008060608789031215612b9b57600080fd5b863567ffffffffffffffff80821115612bb357600080fd5b612bbf8a838b016129c5565b90985096506020890135915080821115612bd857600080fd5b612be48a838b016129c5565b90965094506040890135915080821115612bfd57600080fd5b50612c0a89828a016129c5565b979a9699509497509295939492505050565b634e487b7160e01b600052604160045260246000fd5b604051601f8201601f1916810167ffffffffffffffff81118282101715612c5b57612c5b612c1c565b604052919050565b600067ffffffffffffffff821115612c7d57612c7d612c1c565b50601f01601f191660200190565b6000612c9e612c9984612c63565b612c32565b9050828152838383011115612cb257600080fd5b828260208301376000602084830101529392505050565b600060208284031215612cdb57600080fd5b813567ffffffffffffffff811115612cf257600080fd5b8201601f81018413612d0357600080fd5b611b3184823560208401612c8b565b60008060408385031215612d2557600080fd5b612d2e83612926565b915060208301358015158114612d4357600080fd5b809150509250929050565b600080600060408486031215612d6357600080fd5b83359250602084013567ffffffffffffffff80821115612d8257600080fd5b818601915086601f830112612d9657600080fd5b813581811115612da557600080fd5b876020828501011115612db757600080fd5b6020830194508093505050509250925092565b600082601f830112612ddb57600080fd5b6124bf83833560208501612c8b565b60008060008060808587031215612e0057600080fd5b612e0985612926565b9350612e1760208601612926565b925060408501359150606085013567ffffffffffffffff811115612e3a57600080fd5b612e4687828801612dca565b91505092959194509250565b600082601f830112612e6357600080fd5b8135602067ffffffffffffffff821115612e7f57612e7f612c1c565b8160051b612e8e828201612c32565b9283528481018201928281019087851115612ea857600080fd5b83870192505b84831015612ec757823582529183019190830190612eae565b979650505050505050565b600080600080600060a08688031215612eea57600080fd5b612ef386612926565b9450612f0160208701612926565b9350604086013567ffffffffffffffff80821115612f1e57600080fd5b612f2a89838a01612e52565b94506060880135915080821115612f4057600080fd5b612f4c89838a01612e52565b93506080880135915080821115612f6257600080fd5b50612f6f88828901612dca565b9150509295509295909350565b60008060408385031215612f8f57600080fd5b612f9883612926565b9150612fa660208401612926565b90509250929050565b600080600080600060a08688031215612fc757600080fd5b612fd086612926565b9450612fde60208701612926565b93506040860135925060608601359150608086013567ffffffffffffffff81111561300857600080fd5b612f6f88828901612dca565b600181811c9082168061302857607f821691505b60208210810361304857634e487b7160e01b600052602260045260246000fd5b50919050565b634e487b7160e01b600052601160045260246000fd5b808202811582820484141761082e5761082e61304e565b60008261309857634e487b7160e01b600052601260045260246000fd5b500490565b634e487b7160e01b600052603260045260246000fd5b60006001600160a01b03808716835280861660208401525060a060408301526130df60a0830185612ad2565b82810360608401526130f18185612ad2565b838103608090940193909352505060008152602001949350505050565b6000600182016131205761312061304e565b5060010190565b81835260007f07ffffffffffffffffffffffffffffffffffffffffffffffffffffffffffffff83111561315957600080fd5b8260051b80836020870137939093016020019392505050565b6001600160a01b0384168152604060208201526000613195604083018486613127565b95945050505050565b6040815260006131b2604083018587613127565b9050826020830152949350505050565b600082601f8301126131d357600080fd5b81516131e1612c9982612c63565b8181528460208386010111156131f657600080fd5b611b318260208301602087016128aa565b6000806000806080858703121561321d57600080fd5b845167ffffffffffffffff8082111561323557600080fd5b613241888389016131c2565b9550602087015191508082111561325757600080fd5b613263888389016131c2565b9450604087015191508082111561327957600080fd5b613285888389016131c2565b9350606087015191508082111561329b57600080fd5b50612e46878288016131c2565b6001600160a01b03861681526060602082015260006132cb606083018688613127565b82810360408401526132de818587613127565b98975050505050505050565b601f821115610a3c57600081815260208120601f850160051c810160208610156133115750805b601f850160051c820191505b818110156133305782815560010161331d565b505050505050565b815167ffffffffffffffff81111561335257613352612c1c565b613366816133608454613014565b846132ea565b602080601f83116001811461339b57600084156133835750858301515b600019600386901b1c1916600185901b178555613330565b600085815260208120601f198616915b828110156133ca578886015182559484019460019091019084016133ab565b50858210156133e85787850151600019600388901b60f8161c191681555b5050505050600190811b01905550565b6000815461340581613014565b6001828116801561341d576001811461343257613461565b60ff1984168752821515830287019450613461565b8560005260208060002060005b858110156134585781548a82015290840190820161343f565b50505082870194505b5050505092915050565b60006124bf82846133f8565b67ffffffffffffffff83111561348f5761348f612c1c565b6134a38361349d8354613014565b836132ea565b6000601f8411600181146134d757600085156134bf5750838201355b600019600387901b1c1916600186901b178355613531565b600083815260209020601f19861690835b8281101561350857868501358255602094850194600190920191016134e8565b50868210156135255760001960f88860031b161c19848701351681555b505060018560011b0183555b5050505050565b600061354482866133f8565b84516135548183602089016128aa565b7f2f000000000000000000000000000000000000000000000000000000000000009101908152835161358d8160018401602088016128aa565b0160010195945050505050565b8181038181111561082e5761082e61304e565b8082018082111561082e5761082e61304e565b60006001600160a01b038087168352808616602084015250836040830152608060608301526135f260808301846128ce565b9695505050505050565b60006020828403121561360e57600080fd5b81516124bf81612877565b6000816136285761362861304e565b50600019019056fea26469706673582212203c7a8429b1184ac3a0aa62a7c0127c0bab8ecd68c7168404b8195caf048de54c64736f6c634300081300336080604052604051620012813803806200128183398101604081905262000026916200042e565b8051825114620000985760405162461bcd60e51b815260206004820152603260248201527f5061796d656e7453706c69747465723a2070617965657320616e6420736861726044820152710cae640d8cadccee8d040dad2e6dac2e8c6d60731b60648201526084015b60405180910390fd5b6000825111620000eb5760405162461bcd60e51b815260206004820152601a60248201527f5061796d656e7453706c69747465723a206e6f2070617965657300000000000060448201526064016200008f565b60005b82518110156200015757620001428382815181106200011157620001116200050c565b60200260200101518383815181106200012e576200012e6200050c565b60200260200101516200016060201b60201c565b806200014e8162000538565b915050620000ee565b50505062000570565b6001600160a01b038216620001cd5760405162461bcd60e51b815260206004820152602c60248201527f5061796d656e7453706c69747465723a206163636f756e74206973207468652060448201526b7a65726f206164647265737360a01b60648201526084016200008f565b600081116200021f5760405162461bcd60e51b815260206004820152601d60248201527f5061796d656e7453706c69747465723a2073686172657320617265203000000060448201526064016200008f565b6001600160a01b038216600090815260026020526040902054156200029b5760405162461bcd60e51b815260206004820152602b60248201527f5061796d656e7453706c69747465723a206163636f756e7420616c726561647960448201526a206861732073686172657360a81b60648201526084016200008f565b60048054600181019091557f8a35acfbc15ff81a39ae7d344fd709f28e8600b4aa8c65c6b64bfe7fe36bd19b0180546001600160a01b0319166001600160a01b0384169081179091556000908152600260205260408120829055546200030390829062000554565b600055604080516001600160a01b0384168152602081018390527f40c340f65e17194d14ddddb073d3c9f888e3cb52b5aae0c6c7706b4fbc905fac910160405180910390a15050565b634e487b7160e01b600052604160045260246000fd5b604051601f8201601f191681016001600160401b03811182821017156200038d576200038d6200034c565b604052919050565b60006001600160401b03821115620003b157620003b16200034c565b5060051b60200190565b600082601f830112620003cd57600080fd5b81516020620003e6620003e08362000395565b62000362565b82815260059290921b840181019181810190868411156200040657600080fd5b8286015b848110156200042357805183529183019183016200040a565b509695505050505050565b600080604083850312156200044257600080fd5b82516001600160401b03808211156200045a57600080fd5b818501915085601f8301126200046f57600080fd5b8151602062000482620003e08362000395565b82815260059290921b84018101918181019089841115620004a257600080fd5b948201945b83861015620004d95785516001600160a01b0381168114620004c95760008081fd5b82529482019490820190620004a7565b91880151919650909350505080821115620004f357600080fd5b506200050285828601620003bb565b9150509250929050565b634e487b7160e01b600052603260045260246000fd5b634e487b7160e01b600052601160045260246000fd5b6000600182016200054d576200054d62000522565b5060010190565b808201808211156200056a576200056a62000522565b92915050565b610d0180620005806000396000f3fe6080604052600436106100c05760003560e01c80639852595c11610074578063ce7c2ac21161004e578063ce7c2ac214610242578063d79779b214610278578063e33b7de3146102ae57600080fd5b80639852595c146101cc578063a3f8eace14610202578063c45ac0501461022257600080fd5b8063406072a9116100a5578063406072a91461015457806348b75044146101745780638b83209b1461019457600080fd5b8063191655871461010e5780633a98ef391461013057600080fd5b36610109577f6ef95f06320e7a25a04a175ca677b7052bdd97131872c2192525a629f51be77033604080516001600160a01b0390921682523460208301520160405180910390a1005b600080fd5b34801561011a57600080fd5b5061012e610129366004610b23565b6102c3565b005b34801561013c57600080fd5b506000545b6040519081526020015b60405180910390f35b34801561016057600080fd5b5061014161016f366004610b40565b610432565b34801561018057600080fd5b5061012e61018f366004610b40565b61045f565b3480156101a057600080fd5b506101b46101af366004610b79565b6105f3565b6040516001600160a01b03909116815260200161014b565b3480156101d857600080fd5b506101416101e7366004610b23565b6001600160a01b031660009081526003602052604090205490565b34801561020e57600080fd5b5061014161021d366004610b23565b610623565b34801561022e57600080fd5b5061014161023d366004610b40565b61066b565b34801561024e57600080fd5b5061014161025d366004610b23565b6001600160a01b031660009081526002602052604090205490565b34801561028457600080fd5b50610141610293366004610b23565b6001600160a01b031660009081526005602052604090205490565b3480156102ba57600080fd5b50600154610141565b6001600160a01b03811660009081526002602052604090205461033c5760405162461bcd60e51b815260206004820152602660248201527f5061796d656e7453706c69747465723a206163636f756e7420686173206e6f2060448201526573686172657360d01b60648201526084015b60405180910390fd5b600061034782610623565b9050806000036103ad5760405162461bcd60e51b815260206004820152602b60248201527f5061796d656e7453706c69747465723a206163636f756e74206973206e6f742060448201526a191d59481c185e5b595b9d60aa1b6064820152608401610333565b80600160008282546103bf9190610ba8565b90915550506001600160a01b03821660009081526003602052604090208054820190556103ec828261072a565b604080516001600160a01b0384168152602081018390527fdf20fd1e76bc69d672e4814fafb2c449bba3a5369d8359adf9e05e6fde87b056910160405180910390a15050565b6001600160a01b038083166000908152600660209081526040808320938516835292905220545b92915050565b6001600160a01b0381166000908152600260205260409020546104d35760405162461bcd60e51b815260206004820152602660248201527f5061796d656e7453706c69747465723a206163636f756e7420686173206e6f2060448201526573686172657360d01b6064820152608401610333565b60006104df838361066b565b9050806000036105455760405162461bcd60e51b815260206004820152602b60248201527f5061796d656e7453706c69747465723a206163636f756e74206973206e6f742060448201526a191d59481c185e5b595b9d60aa1b6064820152608401610333565b6001600160a01b0383166000908152600560205260408120805483929061056d908490610ba8565b90915550506001600160a01b0380841660009081526006602090815260408083209386168352929052208054820190556105a8838383610848565b604080516001600160a01b038481168252602082018490528516917f3be5b7a71e84ed12875d241991c70855ac5817d847039e17a9d895c1ceb0f18a910160405180910390a2505050565b60006004828154811061060857610608610bbb565b6000918252602090912001546001600160a01b031692915050565b60008061062f60015490565b6106399047610ba8565b9050610664838261065f866001600160a01b031660009081526003602052604090205490565b6108c8565b9392505050565b6001600160a01b03821660009081526005602052604081205481906040517f70a082310000000000000000000000000000000000000000000000000000000081523060048201526001600160a01b038616906370a0823190602401602060405180830381865afa1580156106e3573d6000803e3d6000fd5b505050506040513d601f19601f820116820180604052508101906107079190610bd1565b6107119190610ba8565b9050610722838261065f8787610432565b949350505050565b8047101561077a5760405162461bcd60e51b815260206004820152601d60248201527f416464726573733a20696e73756666696369656e742062616c616e63650000006044820152606401610333565b6000826001600160a01b03168260405160006040518083038185875af1925050503d80600081146107c7576040519150601f19603f3d011682016040523d82523d6000602084013e6107cc565b606091505b50509050806108435760405162461bcd60e51b815260206004820152603a60248201527f416464726573733a20756e61626c6520746f2073656e642076616c75652c207260448201527f6563697069656e74206d617920686176652072657665727465640000000000006064820152608401610333565b505050565b604080516001600160a01b038416602482015260448082018490528251808303909101815260649091019091526020810180517bffffffffffffffffffffffffffffffffffffffffffffffffffffffff167fa9059cbb00000000000000000000000000000000000000000000000000000000179052610843908490610903565b600080546001600160a01b0385168252600260205260408220548391906108ef9086610bea565b6108f99190610c01565b6107229190610c23565b6000610958826040518060400160405280602081526020017f5361666545524332303a206c6f772d6c6576656c2063616c6c206661696c6564815250856001600160a01b03166109e89092919063ffffffff16565b80519091501561084357808060200190518101906109769190610c36565b6108435760405162461bcd60e51b815260206004820152602a60248201527f5361666545524332303a204552433230206f7065726174696f6e20646964206e60448201527f6f742073756363656564000000000000000000000000000000000000000000006064820152608401610333565b6060610722848460008585600080866001600160a01b03168587604051610a0f9190610c7c565b60006040518083038185875af1925050503d8060008114610a4c576040519150601f19603f3d011682016040523d82523d6000602084013e610a51565b606091505b5091509150610a6287838387610a6d565b979650505050505050565b60608315610adc578251600003610ad5576001600160a01b0385163b610ad55760405162461bcd60e51b815260206004820152601d60248201527f416464726573733a2063616c6c20746f206e6f6e2d636f6e74726163740000006044820152606401610333565b5081610722565b6107228383815115610af15781518083602001fd5b8060405162461bcd60e51b81526004016103339190610c98565b6001600160a01b0381168114610b2057600080fd5b50565b600060208284031215610b3557600080fd5b813561066481610b0b565b60008060408385031215610b5357600080fd5b8235610b5e81610b0b565b91506020830135610b6e81610b0b565b809150509250929050565b600060208284031215610b8b57600080fd5b5035919050565b634e487b7160e01b600052601160045260246000fd5b8082018082111561045957610459610b92565b634e487b7160e01b600052603260045260246000fd5b600060208284031215610be357600080fd5b5051919050565b808202811582820484141761045957610459610b92565b600082610c1e57634e487b7160e01b600052601260045260246000fd5b500490565b8181038181111561045957610459610b92565b600060208284031215610c4857600080fd5b8151801515811461066457600080fd5b60005b83811015610c73578181015183820152602001610c5b565b50506000910152565b60008251610c8e818460208701610c58565b9190910192915050565b6020815260008251806020840152610cb7816040850160208701610c58565b601f01601f1916919091016040019291505056fea2646970667358221220ce9a6bcd2b43e1c2ba849e49a590b0148fe0d414edba637b9113e5c3ad3c78c364736f6c63430008130033",
  "devdoc": {
    "events": {
      "Approval(address,address,uint256)": {
        "details": "Emitted when `owner` enables `approved` to manage the `tokenId` token."
      },
      "ApprovalForAll(address,address,bool)": {
        "details": "Emitted when `owner` enables or disables (`approved`) `operator` to manage all of its assets."
      },
      "Transfer(address,address,uint256)": {
        "details": "Emitted when `tokenId` token is transferred from `from` to `to`."
      }
    },
    "kind": "dev",
    "methods": {
      "approve(address,uint256)": {
        "details": "See {IERC721-approve}."
      },
      "artwork(uint256)": {
        "params": {
          "_artworkTokenId": "token ID of the artwork"
        },
        "returns": {
          "_hash": "the artwork hash",
          "_traitNames": "the human readable trait names contained in the artwork",
          "_traitTokenIds": "the token IDs of the traits the artwork contains",
          "_traitTypeNames": "the human readable trait type names",
          "_traitTypeValues": "the trait type values used by the generative script",
          "_traitValues": "the trait values used by the generative script"
        }
      },
      "balanceOf(address)": {
        "details": "See {IERC721-balanceOf}."
      },
      "buyTraitsCreateArtwork(uint256[],uint256[],uint256[])": {
        "params": {
          "_traitAmountsToBuy": "amounts of each trait to buy",
          "_traitTokenIdsToBuy": "token IDs of the traits to buy",
          "_traitTokenIdsToCreateArtwork": "token IDs of the traits to use to create the artwork"
        }
      },
      "createArtwork(uint256[])": {
        "params": {
          "_traitTokenIds": "the trait token IDs to create the artwork with"
        },
        "returns": {
          "_artworkTokenId": "the token ID of the newly minted artwork"
        }
      },
      "decomposeArtwork(uint256)": {
        "params": {
          "_artworkTokenId": "the token ID of the artwork being decomposed"
        }
      },
      "getApproved(uint256)": {
        "details": "See {IERC721-getApproved}."
      },
      "isApprovedForAll(address,address)": {
        "details": "See {IERC721-isApprovedForAll}."
      },
      "name()": {
        "details": "See {IERC721Metadata-name}."
      },
      "owner()": {
        "details": "Returns the address of the current owner."
      },
      "ownerOf(uint256)": {
        "details": "See {IERC721-ownerOf}."
      },
      "projectScriptCount()": {
        "returns": {
          "_0": "uint256 the number of script strings"
        }
      },
      "projectScripts()": {
        "returns": {
          "_scripts": "the array of script strings"
        }
      },
      "renounceOwnership()": {
        "details": "Leaves the contract without owner. It will not be possible to call `onlyOwner` functions anymore. Can only be called by the current owner. NOTE: Renouncing ownership will leave the contract without an owner, thereby removing any functionality that is only available to the owner."
      },
      "royaltyInfo(uint256,uint256)": {
        "details": "Returns how much royalty is owed and to whom, based on a sale price that may be denominated in any unit of exchange. The royalty amount is denominated and should be paid in that same unit of exchange."
      },
      "safeTransferFrom(address,address,uint256)": {
        "details": "See {IERC721-safeTransferFrom}."
      },
      "safeTransferFrom(address,address,uint256,bytes)": {
        "details": "See {IERC721-safeTransferFrom}."
      },
      "setApprovalForAll(address,bool)": {
        "details": "See {IERC721-setApprovalForAll}."
      },
      "setTraits(address)": {
        "params": {
          "_traits": "address of the traits contract"
        }
      },
      "supportsInterface(bytes4)": {
        "params": {
          "interfaceId": "the interface ID to check"
        },
        "returns": {
          "_0": "bool True if the interface is supported, otherwise False"
        }
      },
      "symbol()": {
        "details": "See {IERC721Metadata-symbol}."
      },
      "tokenURI(uint256)": {
        "params": {
          "_tokenId": "token ID to get URI for"
        },
        "returns": {
          "_0": "string the token URI"
        }
      },
      "transferFrom(address,address,uint256)": {
        "details": "See {IERC721-transferFrom}."
      },
      "transferOwnership(address)": {
        "details": "Transfers ownership of the contract to a new account (`newOwner`). Can only be called by the current owner."
      },
      "updateBaseURI(string)": {
        "params": {
          "_baseURI": "the updated base URI string"
        }
      },
      "updateScript(uint256,string)": {
        "params": {
          "_script": "updated generative script",
          "_scriptIndex": "index of the script to update"
        }
      },
      "userNonce(address)": {
        "params": {
          "_user": "the address of the user"
        },
        "returns": {
          "_0": "uint256 the user's nonce"
        }
      }
    },
    "stateVariables": {
      "locked": {
        "return": "bool True if the project is locked, otherwise False",
        "returns": {
          "_0": "bool True if the project is locked, otherwise False"
        }
      }
    },
    "version": 1
  },
  "userdoc": {
    "kind": "user",
    "methods": {
      "artwork(uint256)": {
        "notice": "Returns info about the specified artwork token"
      },
      "buyTraitsCreateArtwork(uint256[],uint256[],uint256[])": {
        "notice": "Buys traits with specified amounts, and create an artwork in a single transaction"
      },
      "createArtwork(uint256[])": {
        "notice": "Creates a new artwork with the specified trait token IDs The caller must own the specified traits"
      },
      "decomposeArtwork(uint256)": {
        "notice": "Decomposes the specified artwork token into the traits its composed of The artwork token is burned, and the token ID will never be reused The traits are transferred to the caller's address"
      },
      "lockProject()": {
        "notice": "Locks the project so that project configuration is immutable before the trait auction begins"
      },
      "locked()": {
        "notice": "Returns whether the project has been locked"
      },
      "projectScriptCount()": {
        "notice": "Returns the number of strings contained in the script array"
      },
      "projectScripts()": {
        "notice": "Returns an array of strings to be concatenated together to form the generative script"
      },
      "setTraits(address)": {
        "notice": "Sets the address of the Traits contract"
      },
      "supportsInterface(bytes4)": {
        "notice": "Returns whether the specified interface ID is supported by the contract"
      },
      "tokenURI(uint256)": {
        "notice": "Returns the URI of the specified token ID"
      },
      "updateBaseURI(string)": {
        "notice": "Updates the URI base string"
      },
      "updateScript(uint256,string)": {
        "notice": "Updates the script at the specified index in the scripts array"
      },
      "userNonce(address)": {
        "notice": "Returns the specified user's nonce, which is used to generate artwork hashes"
      }
    },
    "notice": "Implements ERC-721 standard for artwork tokens, and provides functions for creating and decomposing artwork",
    "version": 1
  },
  "storageLayout": {
    "storage": [
      {
        "astId": 7,
        "contract": "contracts/Artwork.sol:Artwork",
        "label": "_owner",
        "offset": 0,
        "slot": "0",
        "type": "t_address"
      },
      {
        "astId": 2668,
        "contract": "contracts/Artwork.sol:Artwork",
        "label": "_name",
        "offset": 0,
        "slot": "1",
        "type": "t_string_storage"
      },
      {
        "astId": 2670,
        "contract": "contracts/Artwork.sol:Artwork",
        "label": "_symbol",
        "offset": 0,
        "slot": "2",
        "type": "t_string_storage"
      },
      {
        "astId": 2674,
        "contract": "contracts/Artwork.sol:Artwork",
        "label": "_owners",
        "offset": 0,
        "slot": "3",
        "type": "t_mapping(t_uint256,t_address)"
      },
      {
        "astId": 2678,
        "contract": "contracts/Artwork.sol:Artwork",
        "label": "_balances",
        "offset": 0,
        "slot": "4",
        "type": "t_mapping(t_address,t_uint256)"
      },
      {
        "astId": 2682,
        "contract": "contracts/Artwork.sol:Artwork",
        "label": "_tokenApprovals",
        "offset": 0,
        "slot": "5",
        "type": "t_mapping(t_uint256,t_address)"
      },
      {
        "astId": 2688,
        "contract": "contracts/Artwork.sol:Artwork",
        "label": "_operatorApprovals",
        "offset": 0,
        "slot": "6",
        "type": "t_mapping(t_address,t_mapping(t_address,t_bool))"
      },
      {
        "astId": 3765,
        "contract": "contracts/Artwork.sol:Artwork",
        "label": "_defaultRoyaltyInfo",
        "offset": 0,
        "slot": "7",
        "type": "t_struct(RoyaltyInfo)3762_storage"
      },
      {
        "astId": 3770,
        "contract": "contracts/Artwork.sol:Artwork",
        "label": "_tokenRoyaltyInfo",
        "offset": 0,
        "slot": "8",
        "type": "t_mapping(t_uint256,t_struct(RoyaltyInfo)3762_storage)"
      },
      {
        "astId": 5417,
        "contract": "contracts/Artwork.sol:Artwork",
        "label": "locked",
        "offset": 0,
        "slot": "9",
        "type": "t_bool"
      },
      {
        "astId": 5419,
        "contract": "contracts/Artwork.sol:Artwork",
        "label": "royaltySplitter",
        "offset": 1,
        "slot": "9",
        "type": "t_address"
      },
      {
        "astId": 5422,
        "contract": "contracts/Artwork.sol:Artwork",
        "label": "traits",
        "offset": 0,
        "slot": "10",
        "type": "t_contract(ITraits)7646"
      },
      {
        "astId": 5424,
        "contract": "contracts/Artwork.sol:Artwork",
        "label": "baseURI",
        "offset": 0,
        "slot": "11",
        "type": "t_string_storage"
      },
      {
        "astId": 5426,
        "contract": "contracts/Artwork.sol:Artwork",
        "label": "scriptJSON",
        "offset": 0,
        "slot": "12",
        "type": "t_string_storage"
      },
      {
        "astId": 5431,
        "contract": "contracts/Artwork.sol:Artwork",
        "label": "nextTokenId",
        "offset": 0,
        "slot": "13",
        "type": "t_uint256"
      },
      {
        "astId": 5435,
        "contract": "contracts/Artwork.sol:Artwork",
        "label": "scripts",
        "offset": 0,
        "slot": "14",
        "type": "t_mapping(t_uint256,t_string_storage)"
      },
      {
        "astId": 5440,
        "contract": "contracts/Artwork.sol:Artwork",
        "label": "artworkData",
        "offset": 0,
        "slot": "15",
        "type": "t_mapping(t_uint256,t_struct(ArtworkData)7248_storage)"
      },
      {
        "astId": 5444,
        "contract": "contracts/Artwork.sol:Artwork",
        "label": "userNonces",
        "offset": 0,
        "slot": "16",
        "type": "t_mapping(t_address,t_uint256)"
      }
    ],
    "types": {
      "t_address": {
        "encoding": "inplace",
        "label": "address",
        "numberOfBytes": "20"
      },
      "t_array(t_uint256)dyn_storage": {
        "base": "t_uint256",
        "encoding": "dynamic_array",
        "label": "uint256[]",
        "numberOfBytes": "32"
      },
      "t_bool": {
        "encoding": "inplace",
        "label": "bool",
        "numberOfBytes": "1"
      },
      "t_bytes32": {
        "encoding": "inplace",
        "label": "bytes32",
        "numberOfBytes": "32"
      },
      "t_contract(ITraits)7646": {
        "encoding": "inplace",
        "label": "contract ITraits",
        "numberOfBytes": "20"
      },
      "t_mapping(t_address,t_bool)": {
        "encoding": "mapping",
        "key": "t_address",
        "label": "mapping(address => bool)",
        "numberOfBytes": "32",
        "value": "t_bool"
      },
      "t_mapping(t_address,t_mapping(t_address,t_bool))": {
        "encoding": "mapping",
        "key": "t_address",
        "label": "mapping(address => mapping(address => bool))",
        "numberOfBytes": "32",
        "value": "t_mapping(t_address,t_bool)"
      },
      "t_mapping(t_address,t_uint256)": {
        "encoding": "mapping",
        "key": "t_address",
        "label": "mapping(address => uint256)",
        "numberOfBytes": "32",
        "value": "t_uint256"
      },
      "t_mapping(t_uint256,t_address)": {
        "encoding": "mapping",
        "key": "t_uint256",
        "label": "mapping(uint256 => address)",
        "numberOfBytes": "32",
        "value": "t_address"
      },
      "t_mapping(t_uint256,t_string_storage)": {
        "encoding": "mapping",
        "key": "t_uint256",
        "label": "mapping(uint256 => string)",
        "numberOfBytes": "32",
        "value": "t_string_storage"
      },
      "t_mapping(t_uint256,t_struct(ArtworkData)7248_storage)": {
        "encoding": "mapping",
        "key": "t_uint256",
        "label": "mapping(uint256 => struct IArtwork.ArtworkData)",
        "numberOfBytes": "32",
        "value": "t_struct(ArtworkData)7248_storage"
      },
      "t_mapping(t_uint256,t_struct(RoyaltyInfo)3762_storage)": {
        "encoding": "mapping",
        "key": "t_uint256",
        "label": "mapping(uint256 => struct ERC2981.RoyaltyInfo)",
        "numberOfBytes": "32",
        "value": "t_struct(RoyaltyInfo)3762_storage"
      },
      "t_string_storage": {
        "encoding": "bytes",
        "label": "string",
        "numberOfBytes": "32"
      },
      "t_struct(ArtworkData)7248_storage": {
        "encoding": "inplace",
        "label": "struct IArtwork.ArtworkData",
        "members": [
          {
            "astId": 7244,
            "contract": "contracts/Artwork.sol:Artwork",
            "label": "hash",
            "offset": 0,
            "slot": "0",
            "type": "t_bytes32"
          },
          {
            "astId": 7247,
            "contract": "contracts/Artwork.sol:Artwork",
            "label": "traitTokenIds",
            "offset": 0,
            "slot": "1",
            "type": "t_array(t_uint256)dyn_storage"
          }
        ],
        "numberOfBytes": "64"
      },
      "t_struct(RoyaltyInfo)3762_storage": {
        "encoding": "inplace",
        "label": "struct ERC2981.RoyaltyInfo",
        "members": [
          {
            "astId": 3759,
            "contract": "contracts/Artwork.sol:Artwork",
            "label": "receiver",
            "offset": 0,
            "slot": "0",
            "type": "t_address"
          },
          {
            "astId": 3761,
            "contract": "contracts/Artwork.sol:Artwork",
            "label": "royaltyFraction",
            "offset": 20,
            "slot": "0",
            "type": "t_uint96"
          }
        ],
        "numberOfBytes": "32"
      },
      "t_uint256": {
        "encoding": "inplace",
        "label": "uint256",
        "numberOfBytes": "32"
      },
      "t_uint96": {
        "encoding": "inplace",
        "label": "uint96",
        "numberOfBytes": "12"
      }
    }
  }
}