{
  "address": "0xaE92614d29a43c0b1B5b0944CC0F9d370a27Ba75",
  "abi": [
    {
      "inputs": [
        {
          "internalType": "string",
          "name": "_name",
          "type": "string"
        },
        {
          "internalType": "string",
          "name": "_symbol",
          "type": "string"
        },
        {
          "internalType": "string",
          "name": "_baseURI",
          "type": "string"
        },
        {
          "internalType": "string",
          "name": "_scriptJSON",
          "type": "string"
        },
        {
          "internalType": "address",
          "name": "_artistAddress",
          "type": "address"
        },
        {
          "internalType": "address",
          "name": "_owner",
          "type": "address"
        }
      ],
      "stateMutability": "nonpayable",
      "type": "constructor"
    },
    {
      "inputs": [],
      "name": "Locked",
      "type": "error"
    },
    {
      "inputs": [],
      "name": "OnlyArtist",
      "type": "error"
    },
    {
      "inputs": [],
      "name": "OnlyArtworkOwner",
      "type": "error"
    },
    {
      "inputs": [],
      "name": "TraitsAlreadySet",
      "type": "error"
    },
    {
      "anonymous": false,
      "inputs": [
        {
          "indexed": true,
          "internalType": "address",
          "name": "owner",
          "type": "address"
        },
        {
          "indexed": true,
          "internalType": "address",
          "name": "approved",
          "type": "address"
        },
        {
          "indexed": true,
          "internalType": "uint256",
          "name": "tokenId",
          "type": "uint256"
        }
      ],
      "name": "Approval",
      "type": "event"
    },
    {
      "anonymous": false,
      "inputs": [
        {
          "indexed": true,
          "internalType": "address",
          "name": "owner",
          "type": "address"
        },
        {
          "indexed": true,
          "internalType": "address",
          "name": "operator",
          "type": "address"
        },
        {
          "indexed": false,
          "internalType": "bool",
          "name": "approved",
          "type": "bool"
        }
      ],
      "name": "ApprovalForAll",
      "type": "event"
    },
    {
      "anonymous": false,
      "inputs": [
        {
          "indexed": true,
          "internalType": "address",
          "name": "artistAddress",
          "type": "address"
        }
      ],
      "name": "ArtistAddressUpdated",
      "type": "event"
    },
    {
      "anonymous": false,
      "inputs": [
        {
          "indexed": true,
          "internalType": "uint256",
          "name": "artworkTokenId",
          "type": "uint256"
        },
        {
          "indexed": false,
          "internalType": "uint256[]",
          "name": "traitTokenIds",
          "type": "uint256[]"
        },
        {
          "indexed": false,
          "internalType": "bytes32",
          "name": "hash",
          "type": "bytes32"
        },
        {
          "indexed": true,
          "internalType": "address",
          "name": "creator",
          "type": "address"
        }
      ],
      "name": "ArtworkCreated",
      "type": "event"
    },
    {
      "anonymous": false,
      "inputs": [
        {
          "indexed": true,
          "internalType": "uint256",
          "name": "artworkTokenId",
          "type": "uint256"
        },
        {
          "indexed": true,
          "internalType": "address",
          "name": "caller",
          "type": "address"
        }
      ],
      "name": "ArtworkDecomposed",
      "type": "event"
    },
    {
      "anonymous": false,
      "inputs": [
        {
          "indexed": false,
          "internalType": "string",
          "name": "baseURI",
          "type": "string"
        }
      ],
      "name": "BaseURIUpdated",
      "type": "event"
    },
    {
      "anonymous": false,
      "inputs": [
        {
          "indexed": true,
          "internalType": "address",
          "name": "previousOwner",
          "type": "address"
        },
        {
          "indexed": true,
          "internalType": "address",
          "name": "newOwner",
          "type": "address"
        }
      ],
      "name": "OwnershipTransferred",
      "type": "event"
    },
    {
      "anonymous": false,
      "inputs": [
        {
          "indexed": true,
          "internalType": "address",
          "name": "from",
          "type": "address"
        },
        {
          "indexed": true,
          "internalType": "address",
          "name": "to",
          "type": "address"
        },
        {
          "indexed": true,
          "internalType": "uint256",
          "name": "tokenId",
          "type": "uint256"
        }
      ],
      "name": "Transfer",
      "type": "event"
    },
    {
      "inputs": [],
      "name": "VERSION",
      "outputs": [
        {
          "internalType": "string",
          "name": "",
          "type": "string"
        }
      ],
      "stateMutability": "view",
      "type": "function"
    },
    {
      "inputs": [
        {
          "internalType": "address",
          "name": "to",
          "type": "address"
        },
        {
          "internalType": "uint256",
          "name": "tokenId",
          "type": "uint256"
        }
      ],
      "name": "approve",
      "outputs": [],
      "stateMutability": "nonpayable",
      "type": "function"
    },
    {
      "inputs": [],
      "name": "artistAddress",
      "outputs": [
        {
          "internalType": "address",
          "name": "",
          "type": "address"
        }
      ],
      "stateMutability": "view",
      "type": "function"
    },
    {
      "inputs": [
        {
          "internalType": "uint256",
          "name": "_artworkTokenId",
          "type": "uint256"
        }
      ],
      "name": "artwork",
      "outputs": [
        {
          "internalType": "uint256[]",
          "name": "_traitTokenIds",
          "type": "uint256[]"
        },
        {
          "internalType": "string[]",
          "name": "_traitNames",
          "type": "string[]"
        },
        {
          "internalType": "string[]",
          "name": "_traitValues",
          "type": "string[]"
        },
        {
          "internalType": "string[]",
          "name": "_traitTypeNames",
          "type": "string[]"
        },
        {
          "internalType": "string[]",
          "name": "_traitTypeValues",
          "type": "string[]"
        },
        {
          "internalType": "bytes32",
          "name": "_hash",
          "type": "bytes32"
        }
      ],
      "stateMutability": "view",
      "type": "function"
    },
    {
      "inputs": [
        {
          "internalType": "address",
          "name": "owner",
          "type": "address"
        }
      ],
      "name": "balanceOf",
      "outputs": [
        {
          "internalType": "uint256",
          "name": "",
          "type": "uint256"
        }
      ],
      "stateMutability": "view",
      "type": "function"
    },
    {
      "inputs": [],
      "name": "baseURI",
      "outputs": [
        {
          "internalType": "string",
          "name": "",
          "type": "string"
        }
      ],
      "stateMutability": "view",
      "type": "function"
    },
    {
      "inputs": [
        {
          "internalType": "uint256[]",
          "name": "_traitTokenIdsToBuy",
          "type": "uint256[]"
        },
        {
          "internalType": "uint256[]",
          "name": "_traitQuantitiesToBuy",
          "type": "uint256[]"
        },
        {
          "internalType": "uint256[]",
          "name": "_traitTokenIdsToCreateArtwork",
          "type": "uint256[]"
        }
      ],
      "name": "buyTraitsCreateArtwork",
      "outputs": [],
      "stateMutability": "payable",
      "type": "function"
    },
    {
      "inputs": [
        {
          "internalType": "uint256[]",
          "name": "_traitTokenIds",
          "type": "uint256[]"
        }
      ],
      "name": "createArtwork",
      "outputs": [
        {
          "internalType": "uint256",
          "name": "_artworkTokenId",
          "type": "uint256"
        }
      ],
      "stateMutability": "nonpayable",
      "type": "function"
    },
    {
      "inputs": [
        {
          "internalType": "uint256",
          "name": "_artworkTokenId",
          "type": "uint256"
        }
      ],
      "name": "decomposeArtwork",
      "outputs": [],
      "stateMutability": "nonpayable",
      "type": "function"
    },
    {
      "inputs": [
        {
          "internalType": "uint256",
          "name": "tokenId",
          "type": "uint256"
        }
      ],
      "name": "getApproved",
      "outputs": [
        {
          "internalType": "address",
          "name": "",
          "type": "address"
        }
      ],
      "stateMutability": "view",
      "type": "function"
    },
    {
      "inputs": [
        {
          "internalType": "address",
          "name": "owner",
          "type": "address"
        },
        {
          "internalType": "address",
          "name": "operator",
          "type": "address"
        }
      ],
      "name": "isApprovedForAll",
      "outputs": [
        {
          "internalType": "bool",
          "name": "",
          "type": "bool"
        }
      ],
      "stateMutability": "view",
      "type": "function"
    },
    {
      "inputs": [],
      "name": "lockProject",
      "outputs": [],
      "stateMutability": "nonpayable",
      "type": "function"
    },
    {
      "inputs": [],
      "name": "locked",
      "outputs": [
        {
          "internalType": "bool",
          "name": "",
          "type": "bool"
        }
      ],
      "stateMutability": "view",
      "type": "function"
    },
    {
      "inputs": [],
      "name": "name",
      "outputs": [
        {
          "internalType": "string",
          "name": "",
          "type": "string"
        }
      ],
      "stateMutability": "view",
      "type": "function"
    },
    {
      "inputs": [],
      "name": "nextTokenId",
      "outputs": [
        {
          "internalType": "uint256",
          "name": "",
          "type": "uint256"
        }
      ],
      "stateMutability": "view",
      "type": "function"
    },
    {
      "inputs": [
        {
          "internalType": "address",
          "name": "",
          "type": "address"
        },
        {
          "internalType": "address",
          "name": "",
          "type": "address"
        },
        {
          "internalType": "uint256[]",
          "name": "",
          "type": "uint256[]"
        },
        {
          "internalType": "uint256[]",
          "name": "",
          "type": "uint256[]"
        },
        {
          "internalType": "bytes",
          "name": "",
          "type": "bytes"
        }
      ],
      "name": "onERC1155BatchReceived",
      "outputs": [
        {
          "internalType": "bytes4",
          "name": "",
          "type": "bytes4"
        }
      ],
      "stateMutability": "nonpayable",
      "type": "function"
    },
    {
      "inputs": [
        {
          "internalType": "address",
          "name": "",
          "type": "address"
        },
        {
          "internalType": "address",
          "name": "",
          "type": "address"
        },
        {
          "internalType": "uint256",
          "name": "",
          "type": "uint256"
        },
        {
          "internalType": "uint256",
          "name": "",
          "type": "uint256"
        },
        {
          "internalType": "bytes",
          "name": "",
          "type": "bytes"
        }
      ],
      "name": "onERC1155Received",
      "outputs": [
        {
          "internalType": "bytes4",
          "name": "",
          "type": "bytes4"
        }
      ],
      "stateMutability": "nonpayable",
      "type": "function"
    },
    {
      "inputs": [],
      "name": "owner",
      "outputs": [
        {
          "internalType": "address",
          "name": "",
          "type": "address"
        }
      ],
      "stateMutability": "view",
      "type": "function"
    },
    {
      "inputs": [
        {
          "internalType": "uint256",
          "name": "tokenId",
          "type": "uint256"
        }
      ],
      "name": "ownerOf",
      "outputs": [
        {
          "internalType": "address",
          "name": "",
          "type": "address"
        }
      ],
      "stateMutability": "view",
      "type": "function"
    },
    {
      "inputs": [],
      "name": "projectScriptCount",
      "outputs": [
        {
          "internalType": "uint256",
          "name": "",
          "type": "uint256"
        }
      ],
      "stateMutability": "view",
      "type": "function"
    },
    {
      "inputs": [],
      "name": "projectScripts",
      "outputs": [
        {
          "internalType": "string[]",
          "name": "_scripts",
          "type": "string[]"
        }
      ],
      "stateMutability": "view",
      "type": "function"
    },
    {
      "inputs": [],
      "name": "projectTraits",
      "outputs": [
        {
          "internalType": "uint256[]",
          "name": "_traitTokenIds",
          "type": "uint256[]"
        },
        {
          "internalType": "string[]",
          "name": "_traitNames",
          "type": "string[]"
        },
        {
          "internalType": "string[]",
          "name": "_traitValues",
          "type": "string[]"
        },
        {
          "internalType": "uint256[]",
          "name": "_traitTypeIndexes",
          "type": "uint256[]"
        },
        {
          "internalType": "string[]",
          "name": "_traitTypeNames",
          "type": "string[]"
        },
        {
          "internalType": "string[]",
          "name": "_traitTypeValues",
          "type": "string[]"
        }
      ],
      "stateMutability": "view",
      "type": "function"
    },
    {
      "inputs": [],
      "name": "renounceOwnership",
      "outputs": [],
      "stateMutability": "nonpayable",
      "type": "function"
    },
    {
      "inputs": [
        {
          "internalType": "address",
          "name": "from",
          "type": "address"
        },
        {
          "internalType": "address",
          "name": "to",
          "type": "address"
        },
        {
          "internalType": "uint256",
          "name": "tokenId",
          "type": "uint256"
        }
      ],
      "name": "safeTransferFrom",
      "outputs": [],
      "stateMutability": "nonpayable",
      "type": "function"
    },
    {
      "inputs": [
        {
          "internalType": "address",
          "name": "from",
          "type": "address"
        },
        {
          "internalType": "address",
          "name": "to",
          "type": "address"
        },
        {
          "internalType": "uint256",
          "name": "tokenId",
          "type": "uint256"
        },
        {
          "internalType": "bytes",
          "name": "data",
          "type": "bytes"
        }
      ],
      "name": "safeTransferFrom",
      "outputs": [],
      "stateMutability": "nonpayable",
      "type": "function"
    },
    {
      "inputs": [],
      "name": "scriptJSON",
      "outputs": [
        {
          "internalType": "string",
          "name": "",
          "type": "string"
        }
      ],
      "stateMutability": "view",
      "type": "function"
    },
    {
      "inputs": [
        {
          "internalType": "address",
          "name": "operator",
          "type": "address"
        },
        {
          "internalType": "bool",
          "name": "approved",
          "type": "bool"
        }
      ],
      "name": "setApprovalForAll",
      "outputs": [],
      "stateMutability": "nonpayable",
      "type": "function"
    },
    {
      "inputs": [
        {
          "internalType": "address",
          "name": "_traits",
          "type": "address"
        }
      ],
      "name": "setTraits",
      "outputs": [],
      "stateMutability": "nonpayable",
      "type": "function"
    },
    {
      "inputs": [
        {
          "internalType": "bytes4",
          "name": "interfaceId",
          "type": "bytes4"
        }
      ],
      "name": "supportsInterface",
      "outputs": [
        {
          "internalType": "bool",
          "name": "",
          "type": "bool"
        }
      ],
      "stateMutability": "view",
      "type": "function"
    },
    {
      "inputs": [],
      "name": "symbol",
      "outputs": [
        {
          "internalType": "string",
          "name": "",
          "type": "string"
        }
      ],
      "stateMutability": "view",
      "type": "function"
    },
    {
      "inputs": [
        {
          "internalType": "uint256",
          "name": "tokenId",
          "type": "uint256"
        }
      ],
      "name": "tokenURI",
      "outputs": [
        {
          "internalType": "string",
          "name": "",
          "type": "string"
        }
      ],
      "stateMutability": "view",
      "type": "function"
    },
    {
      "inputs": [],
      "name": "traits",
      "outputs": [
        {
          "internalType": "contract ITraits",
          "name": "",
          "type": "address"
        }
      ],
      "stateMutability": "view",
      "type": "function"
    },
    {
      "inputs": [
        {
          "internalType": "address",
          "name": "from",
          "type": "address"
        },
        {
          "internalType": "address",
          "name": "to",
          "type": "address"
        },
        {
          "internalType": "uint256",
          "name": "tokenId",
          "type": "uint256"
        }
      ],
      "name": "transferFrom",
      "outputs": [],
      "stateMutability": "nonpayable",
      "type": "function"
    },
    {
      "inputs": [
        {
          "internalType": "address",
          "name": "newOwner",
          "type": "address"
        }
      ],
      "name": "transferOwnership",
      "outputs": [],
      "stateMutability": "nonpayable",
      "type": "function"
    },
    {
      "inputs": [
        {
          "internalType": "address",
          "name": "_artistAddress",
          "type": "address"
        }
      ],
      "name": "updateArtistAddress",
      "outputs": [],
      "stateMutability": "nonpayable",
      "type": "function"
    },
    {
      "inputs": [
        {
          "internalType": "string",
          "name": "_baseURI",
          "type": "string"
        }
      ],
      "name": "updateBaseURI",
      "outputs": [],
      "stateMutability": "nonpayable",
      "type": "function"
    },
    {
      "inputs": [
        {
          "internalType": "uint256",
          "name": "_scriptIndex",
          "type": "uint256"
        },
        {
          "internalType": "string",
          "name": "_script",
          "type": "string"
        }
      ],
      "name": "updateScript",
      "outputs": [],
      "stateMutability": "nonpayable",
      "type": "function"
    },
    {
      "inputs": [
        {
          "internalType": "address",
          "name": "_user",
          "type": "address"
        }
      ],
      "name": "userNonce",
      "outputs": [
        {
          "internalType": "uint256",
          "name": "",
          "type": "uint256"
        }
      ],
      "stateMutability": "view",
      "type": "function"
    }
  ],
  "transactionHash": "0x099536d528f31d3c12c20449c5a2b8d2795ce7836a85413013f5cf6e7cf0d502",
  "args": [
    "intrinsic.art Tack Line Torn",
    "INSC",
    "https://api.intrinsic.art/",
    "{\n        \"name\": \"Tack Line Torn\",\n        \"description\": \"Tack Line Torn is a generative art project that takes the viewer on a visual journey through the chaos of a tearing sail tack line. In sailing, a tack line is crucial to the stability and direction of a vessel, and in this project, the once-reliable line is portrayed as it breaks apart in real-time. The piece is a representation of the unpredictable nature of life, as the path of fragmentation is unique with each viewing. The fragmented line symbolizes the loss of control and the fragility of stability, and invites the viewer to contemplate the beauty that can be found in the midst of destruction. Tack Line Torn is an immersive and thought-provoking generative art project that explores the themes of unpredictability, transience, and the beauty of chaos.\",\n        \"artistName\": \"Phil Smith\",\n        \"website\": \"https://tacklinetorn.com\",\n        \"license\": \"MIT\",\n        \"scriptLibrary\": \"p5.js\",\n        \"scriptLibraryVersion\": \"1.0.0\",\n        \"aspectRatio\": \"1\"\n      }",
    "0xAa9D46AE079851116967c6573f961B304095C34a",
    "0xAa9D46AE079851116967c6573f961B304095C34a"
  ],
  "numDeployments": 1,
  "solcInputHash": "85c0a34fedfad7f77697de3e7385ecea",
  "bytecode": "0x60806040523480156200001157600080fd5b5060405162003cfa38038062003cfa8339810160408190526200003491620001f8565b8585600062000044838262000364565b50600162000053828262000364565b505050620000706200006a620000c060201b60201c565b620000c4565b60096200007e858262000364565b50600a6200008d848262000364565b50600780546001600160a01b0319166001600160a01b038416179055620000b481620000c4565b50505050505062000430565b3390565b600680546001600160a01b038381166001600160a01b0319831681179093556040519116919082907f8be0079c531659141344cd1fd0a4f28419497f9722a3daafe3b4186f6b6457e090600090a35050565b634e487b7160e01b600052604160045260246000fd5b600082601f8301126200013e57600080fd5b81516001600160401b03808211156200015b576200015b62000116565b604051601f8301601f19908116603f0116810190828211818310171562000186576200018662000116565b81604052838152602092508683858801011115620001a357600080fd5b600091505b83821015620001c75785820183015181830184015290820190620001a8565b600093810190920192909252949350505050565b80516001600160a01b0381168114620001f357600080fd5b919050565b60008060008060008060c087890312156200021257600080fd5b86516001600160401b03808211156200022a57600080fd5b620002388a838b016200012c565b975060208901519150808211156200024f57600080fd5b6200025d8a838b016200012c565b965060408901519150808211156200027457600080fd5b620002828a838b016200012c565b955060608901519150808211156200029957600080fd5b50620002a889828a016200012c565b935050620002b960808801620001db565b9150620002c960a08801620001db565b90509295509295509295565b600181811c90821680620002ea57607f821691505b6020821081036200030b57634e487b7160e01b600052602260045260246000fd5b50919050565b601f8211156200035f57600081815260208120601f850160051c810160208610156200033a5750805b601f850160051c820191505b818110156200035b5782815560010162000346565b5050505b505050565b81516001600160401b0381111562000380576200038062000116565b6200039881620003918454620002d5565b8462000311565b602080601f831160018114620003d05760008415620003b75750858301515b600019600386901b1c1916600185901b1785556200035b565b600085815260208120601f198616915b828110156200040157888601518255948401946001909101908401620003e0565b5085821015620004205787850151600019600388901b60f8161c191681555b5050505050600190811b01905550565b6138ba80620004406000396000f3fe6080604052600436106102855760003560e01c80638da5cb5b11610153578063b88d4fde116100cb578063e1fc334f1161007f578063f23a6e6111610064578063f23a6e6114610767578063f2fde38b146107ac578063ffa1ad74146107cc57600080fd5b8063e1fc334f146106fe578063e985e9c51461071e57600080fd5b8063c87b56dd116100b0578063c87b56dd1461069d578063cf309012146106bd578063d7eb3f3a146106de57600080fd5b8063b88d4fde1461061f578063bc197c811461063f57600080fd5b806395d89b4111610122578063a22cb46511610107578063a22cb465146105bf578063b155d57e146105df578063b784c966146105ff57600080fd5b806395d89b41146105835780639733cf421461059857600080fd5b80638da5cb5b1461051b57806390d69fbc14610539578063931688cb1461054e57806393d6bb6a1461056e57600080fd5b8063338e599b116102015780636c0360eb116101b557806370a082311161019a57806370a08231146104d0578063715018a6146104f057806375794a3c1461050557600080fd5b80636c0360eb1461049b5780636f4f7366146104b057600080fd5b806354682d72116101e657806354682d72146104365780635711c2e6146104685780636352211e1461047b57600080fd5b8063338e599b146103f457806342842e0e1461041657600080fd5b806314e6d3d4116102585780632d9bace01161023d5780632d9bace0146103705780632dafcb22146103905780632e04b8e7146103be57600080fd5b806314e6d3d41461033b57806323b872dd1461035057600080fd5b806301ffc9a71461028a57806306fdde03146102bf578063081812fc146102e1578063095ea7b314610319575b600080fd5b34801561029657600080fd5b506102aa6102a53660046128c2565b610815565b60405190151581526020015b60405180910390f35b3480156102cb57600080fd5b506102d4610859565b6040516102b6919061292f565b3480156102ed57600080fd5b506103016102fc366004612942565b6108eb565b6040516001600160a01b0390911681526020016102b6565b34801561032557600080fd5b50610339610334366004612972565b610912565b005b34801561034757600080fd5b50610339610a66565b34801561035c57600080fd5b5061033961036b36600461299c565b610ac9565b34801561037c57600080fd5b5061033961038b366004612942565b610b40565b34801561039c57600080fd5b506103b06103ab366004612a24565b610d94565b6040519081526020016102b6565b3480156103ca57600080fd5b506103b06103d9366004612a66565b6001600160a01b03166000908152600e602052604090205490565b34801561040057600080fd5b50610409610f2d565b6040516102b69190612ad9565b34801561042257600080fd5b5061033961043136600461299c565b611056565b34801561044257600080fd5b50610456610451366004612942565b611071565b6040516102b696959493929190612b27565b610339610476366004612b9c565b611357565b34801561048757600080fd5b50610301610496366004612942565b6113e6565b3480156104a757600080fd5b506102d461144b565b3480156104bc57600080fd5b506103396104cb366004612a66565b6114d9565b3480156104dc57600080fd5b506103b06104eb366004612a66565b611546565b3480156104fc57600080fd5b506103396115e0565b34801561051157600080fd5b506103b0600b5481565b34801561052757600080fd5b506006546001600160a01b0316610301565b34801561054557600080fd5b506102d46115f4565b34801561055a57600080fd5b50610339610569366004612ce3565b611601565b34801561057a57600080fd5b506103b0611650565b34801561058f57600080fd5b506102d46116b3565b3480156105a457600080fd5b506105ad6116c2565b6040516102b696959493929190612d2c565b3480156105cb57600080fd5b506103396105da366004612dae565b611759565b3480156105eb57600080fd5b506103396105fa366004612dea565b611768565b34801561060b57600080fd5b5061033961061a366004612a66565b6117ba565b34801561062b57600080fd5b5061033961063a366004612e86565b611848565b34801561064b57600080fd5b5061068461065a366004612f78565b7fbc197c810000000000000000000000000000000000000000000000000000000095945050505050565b6040516001600160e01b031990911681526020016102b6565b3480156106a957600080fd5b506102d46106b8366004612942565b6118c0565b3480156106c957600080fd5b506006546102aa90600160a01b900460ff1681565b3480156106ea57600080fd5b50600754610301906001600160a01b031681565b34801561070a57600080fd5b50600854610301906001600160a01b031681565b34801561072a57600080fd5b506102aa610739366004613022565b6001600160a01b03918216600090815260056020908152604080832093909416825291909152205460ff1690565b34801561077357600080fd5b50610684610782366004613055565b7ff23a6e610000000000000000000000000000000000000000000000000000000095945050505050565b3480156107b857600080fd5b506103396107c7366004612a66565b611931565b3480156107d857600080fd5b506102d46040518060400160405280600581526020017f312e302e3000000000000000000000000000000000000000000000000000000081525081565b60006001600160e01b031982167f6b78578a0000000000000000000000000000000000000000000000000000000014806108535750610853826119c1565b92915050565b606060008054610868906130ba565b80601f0160208091040260200160405190810160405280929190818152602001828054610894906130ba565b80156108e15780601f106108b6576101008083540402835291602001916108e1565b820191906000526020600020905b8154815290600101906020018083116108c457829003601f168201915b5050505050905090565b60006108f6826119ff565b506000908152600460205260409020546001600160a01b031690565b600061091d826113e6565b9050806001600160a01b0316836001600160a01b0316036109ab5760405162461bcd60e51b815260206004820152602160248201527f4552433732313a20617070726f76616c20746f2063757272656e74206f776e6560448201527f720000000000000000000000000000000000000000000000000000000000000060648201526084015b60405180910390fd5b336001600160a01b03821614806109e557506001600160a01b038116600090815260056020908152604080832033845290915290205460ff165b610a575760405162461bcd60e51b815260206004820152603d60248201527f4552433732313a20617070726f76652063616c6c6572206973206e6f7420746f60448201527f6b656e206f776e6572206f7220617070726f76656420666f7220616c6c00000060648201526084016109a2565b610a618383611a63565b505050565b610a6e611ad1565b600654600160a01b900460ff1615610a99576040516303cb96db60e21b815260040160405180910390fd5b600680547fffffffffffffffffffffff00ffffffffffffffffffffffffffffffffffffffff16600160a01b179055565b610ad33382611b2b565b610b355760405162461bcd60e51b815260206004820152602d60248201527f4552433732313a2063616c6c6572206973206e6f7420746f6b656e206f776e6560448201526c1c881bdc88185c1c1c9bdd9959609a1b60648201526084016109a2565b610a61838383611baa565b6000818152600260205260409020546001600160a01b03163314610b90576040517f1002a8dd00000000000000000000000000000000000000000000000000000000815260040160405180910390fd5b6000818152600d6020908152604080832060010180548251818502810185019093528083529192909190830182828015610be957602002820191906000526020600020905b815481526020019060010190808311610bd5575b5050506000858152600d60205260408120819055929350610c08915050565b604051908082528060200260200182016040528015610c31578160200160208202803683370190505b50600d60008481526020019081526020016000206001019080519060200190610c5b929190612811565b50604051339083907f8d47fd541b28b73f831d6613d064b04739e29e48ec78822fdcfb579cf3c8ecc290600090a36000815167ffffffffffffffff811115610ca557610ca5612c36565b604051908082528060200260200182016040528015610cce578160200160208202803683370190505b50905060005b8151811015610d04576001828281518110610cf157610cf16130f4565b6020908102919091010152600101610cd4565b50610d0e83611db0565b6008546040517f2eb2c2d60000000000000000000000000000000000000000000000000000000081526001600160a01b0390911690632eb2c2d690610d5d90309033908790879060040161310a565b600060405180830381600087803b158015610d7757600080fd5b505af1158015610d8b573d6000803e3d6000fd5b50505050505050565b336000818152600e6020908152604080832054905192938493610de49330939101606093841b6bffffffffffffffffffffffff1990811682529290931b9091166014830152602882015260480190565b60408051601f198184030181529190528051602090910120600b8054935090915082906000610e128361317b565b90915550506000828152600d60205260409020818155610e3690600101858561285c565b50336000908152600e60205260408120805491610e528361317b565b9190505550336001600160a01b0316827feb3e56751a478e501b86e03de5f91f16dfc366ad53198ff6de3ff4e61119e180868685604051610e95939291906131df565b60405180910390a36008546040517f02afd1a10000000000000000000000000000000000000000000000000000000081526001600160a01b03909116906302afd1a190610eea90339088908890600401613203565b600060405180830381600087803b158015610f0457600080fd5b505af1158015610f18573d6000803e3d6000fd5b50505050610f263383611e53565b5092915050565b60606000610f39611650565b90508067ffffffffffffffff811115610f5457610f54612c36565b604051908082528060200260200182016040528015610f8757816020015b6060815260200190600190039081610f725790505b50915060005b81811015611051576000818152600c602052604090208054610fae906130ba565b80601f0160208091040260200160405190810160405280929190818152602001828054610fda906130ba565b80156110275780601f10610ffc57610100808354040283529160200191611027565b820191906000526020600020905b81548152906001019060200180831161100a57829003601f168201915b505050505083828151811061103e5761103e6130f4565b6020908102919091010152600101610f8d565b505090565b610a6183838360405180602001604052806000815250611848565b60608060608060606000611084876119ff565b6000878152600d60209081526040918290206001018054835181840281018401909452808452929183908301828280156110dd57602002820191906000526020600020905b8154815260200190600101908083116110c9575b505050505096508067ffffffffffffffff8111156110fd576110fd612c36565b60405190808252806020026020018201604052801561113057816020015b606081526020019060019003908161111b5790505b5095508067ffffffffffffffff81111561114c5761114c612c36565b60405190808252806020026020018201604052801561117f57816020015b606081526020019060019003908161116a5790505b5094508067ffffffffffffffff81111561119b5761119b612c36565b6040519080825280602002602001820160405280156111ce57816020015b60608152602001906001900390816111b95790505b5093508067ffffffffffffffff8111156111ea576111ea612c36565b60405190808252806020026020018201604052801561121d57816020015b60608152602001906001900390816112085790505b50925060005b8181101561133a5760085488516001600160a01b039091169063f3457fdf908a9084908110611254576112546130f4565b60200260200101516040518263ffffffff1660e01b815260040161127a91815260200190565b600060405180830381865afa158015611297573d6000803e3d6000fd5b505050506040513d6000823e601f3d908101601f191682016040526112bf9190810190613274565b8a85815181106112d1576112d16130f4565b602002602001018a86815181106112ea576112ea6130f4565b602002602001018a8781518110611303576113036130f4565b602002602001018a888151811061131c5761131c6130f4565b60209081029190910101939093529290915291905252600101611223565b5050506000958652600d6020526040909520549395929491939092565b6008546040517f7bedfac00000000000000000000000000000000000000000000000000000000081526001600160a01b0390911690637bedfac09034906113aa9033908b908b908b908b90600401613315565b6000604051808303818588803b1580156113c357600080fd5b505af11580156113d7573d6000803e3d6000fd5b5050505050610d8b8282610d94565b6000818152600260205260408120546001600160a01b0316806108535760405162461bcd60e51b815260206004820152601860248201527f4552433732313a20696e76616c696420746f6b656e204944000000000000000060448201526064016109a2565b60098054611458906130ba565b80601f0160208091040260200160405190810160405280929190818152602001828054611484906130ba565b80156114d15780601f106114a6576101008083540402835291602001916114d1565b820191906000526020600020905b8154815290600101906020018083116114b457829003601f168201915b505050505081565b6114e1611ad1565b6008546001600160a01b031615611524576040517f4dadc39f00000000000000000000000000000000000000000000000000000000815260040160405180910390fd5b600880546001600160a01b0319166001600160a01b0392909216919091179055565b60006001600160a01b0382166115c45760405162461bcd60e51b815260206004820152602960248201527f4552433732313a2061646472657373207a65726f206973206e6f74206120766160448201527f6c6964206f776e6572000000000000000000000000000000000000000000000060648201526084016109a2565b506001600160a01b031660009081526003602052604090205490565b6115e8611ad1565b6115f26000611e6d565b565b600a8054611458906130ba565b611609611ad1565b600961161582826133a5565b507f6741b2fc379fad678116fe3d4d4b9a1a184ab53ba36b86ad0fa66340b1ab41ad81604051611645919061292f565b60405180910390a150565b6000805b604080516000808252602080830180855283519020858352600c90915290839020909261168192016134d8565b60405160208183030381529060405280519060200120146116ae57806116a68161317b565b915050611654565b919050565b606060018054610868906130ba565b606080606080606080600860009054906101000a90046001600160a01b03166001600160a01b031663e1fc334f6040518163ffffffff1660e01b8152600401600060405180830381865afa15801561171e573d6000803e3d6000fd5b505050506040513d6000823e601f3d908101601f1916820160405261174691908101906135bf565b949b939a50919850965094509092509050565b611764338383611ebf565b5050565b611770611ad1565b600654600160a01b900460ff161561179b576040516303cb96db60e21b815260040160405180910390fd5b6000838152600c602052604090206117b48284836136b4565b50505050565b6007546001600160a01b031633146117fe576040517fa1e791ee00000000000000000000000000000000000000000000000000000000815260040160405180910390fd5b600780546001600160a01b0319166001600160a01b0383169081179091556040517f12c79480b32a16bbc67a06e459f3d0ee3f9a3d3935c512bb2a7b32fca33cf75e90600090a250565b6118523383611b2b565b6118b45760405162461bcd60e51b815260206004820152602d60248201527f4552433732313a2063616c6c6572206973206e6f7420746f6b656e206f776e6560448201526c1c881bdc88185c1c1c9bdd9959609a1b60648201526084016109a2565b6117b484848484611f8d565b60606118cb826119ff565b6000600980546118da906130ba565b9050116118f65760405180602001604052806000815250610853565b60096119013061200b565b61190a84612021565b60405160200161191c93929190613775565b60405160208183030381529060405292915050565b611939611ad1565b6001600160a01b0381166119b55760405162461bcd60e51b815260206004820152602660248201527f4f776e61626c653a206e6577206f776e657220697320746865207a65726f206160448201527f646472657373000000000000000000000000000000000000000000000000000060648201526084016109a2565b6119be81611e6d565b50565b60006001600160e01b031982167f4e2312e00000000000000000000000000000000000000000000000000000000014806108535750610853826120c1565b6000818152600260205260409020546001600160a01b03166119be5760405162461bcd60e51b815260206004820152601860248201527f4552433732313a20696e76616c696420746f6b656e204944000000000000000060448201526064016109a2565b600081815260046020526040902080546001600160a01b0319166001600160a01b0384169081179091558190611a98826113e6565b6001600160a01b03167f8c5be1e5ebec7d5bd14f71427d1e84f3dd0314c0f7b2291e5b200ac8c7c3b92560405160405180910390a45050565b6006546001600160a01b031633146115f25760405162461bcd60e51b815260206004820181905260248201527f4f776e61626c653a2063616c6c6572206973206e6f7420746865206f776e657260448201526064016109a2565b600080611b37836113e6565b9050806001600160a01b0316846001600160a01b03161480611b7e57506001600160a01b0380821660009081526005602090815260408083209388168352929052205460ff165b80611ba25750836001600160a01b0316611b97846108eb565b6001600160a01b0316145b949350505050565b826001600160a01b0316611bbd826113e6565b6001600160a01b031614611c215760405162461bcd60e51b815260206004820152602560248201527f4552433732313a207472616e736665722066726f6d20696e636f72726563742060448201526437bbb732b960d91b60648201526084016109a2565b6001600160a01b038216611c9c5760405162461bcd60e51b8152602060048201526024808201527f4552433732313a207472616e7366657220746f20746865207a65726f2061646460448201527f726573730000000000000000000000000000000000000000000000000000000060648201526084016109a2565b611ca9838383600161215c565b826001600160a01b0316611cbc826113e6565b6001600160a01b031614611d205760405162461bcd60e51b815260206004820152602560248201527f4552433732313a207472616e736665722066726f6d20696e636f72726563742060448201526437bbb732b960d91b60648201526084016109a2565b600081815260046020908152604080832080546001600160a01b03199081169091556001600160a01b0387811680865260038552838620805460001901905590871680865283862080546001019055868652600290945282852080549092168417909155905184937fddf252ad1be2c89b69c2b068fc378daa952ba7f163c4a11628f55a4df523b3ef91a4505050565b6000611dbb826113e6565b9050611dcb81600084600161215c565b611dd4826113e6565b600083815260046020908152604080832080546001600160a01b03199081169091556001600160a01b0385168085526003845282852080546000190190558785526002909352818420805490911690555192935084927fddf252ad1be2c89b69c2b068fc378daa952ba7f163c4a11628f55a4df523b3ef908390a45050565b6117648282604051806020016040528060008152506121e4565b600680546001600160a01b038381166001600160a01b0319831681179093556040519116919082907f8be0079c531659141344cd1fd0a4f28419497f9722a3daafe3b4186f6b6457e090600090a35050565b816001600160a01b0316836001600160a01b031603611f205760405162461bcd60e51b815260206004820152601960248201527f4552433732313a20617070726f766520746f2063616c6c65720000000000000060448201526064016109a2565b6001600160a01b03838116600081815260056020908152604080832094871680845294825291829020805460ff191686151590811790915591519182527f17307eab39ab6107e8899845ad3d59bd9653f200f220920489ca2b5937696c31910160405180910390a3505050565b611f98848484611baa565b611fa484848484612262565b6117b45760405162461bcd60e51b815260206004820152603260248201527f4552433732313a207472616e7366657220746f206e6f6e20455243373231526560448201527131b2b4bb32b91034b6b83632b6b2b73a32b960711b60648201526084016109a2565b60606108536001600160a01b03831660146123ae565b6060600061202e83612596565b600101905060008167ffffffffffffffff81111561204e5761204e612c36565b6040519080825280601f01601f191660200182016040528015612078576020820181803683370190505b5090508181016020015b600019017f3031323334353637383961626364656600000000000000000000000000000000600a86061a8153600a850494508461208257509392505050565b60006001600160e01b031982167f80ac58cd00000000000000000000000000000000000000000000000000000000148061212457506001600160e01b031982167f5b5e139f00000000000000000000000000000000000000000000000000000000145b8061085357507f01ffc9a7000000000000000000000000000000000000000000000000000000006001600160e01b0319831614610853565b60018111156117b4576001600160a01b038416156121a2576001600160a01b0384166000908152600360205260408120805483929061219c9084906137d7565b90915550505b6001600160a01b038316156117b4576001600160a01b038316600090815260036020526040812080548392906121d99084906137ea565b909155505050505050565b6121ee8383612678565b6121fb6000848484612262565b610a615760405162461bcd60e51b815260206004820152603260248201527f4552433732313a207472616e7366657220746f206e6f6e20455243373231526560448201527131b2b4bb32b91034b6b83632b6b2b73a32b960711b60648201526084016109a2565b60006001600160a01b0384163b156123a357604051630a85bd0160e11b81526001600160a01b0385169063150b7a02906122a69033908990889088906004016137fd565b6020604051808303816000875af19250505080156122e1575060408051601f3d908101601f191682019092526122de91810190613839565b60015b612389573d80801561230f576040519150601f19603f3d011682016040523d82523d6000602084013e612314565b606091505b5080516000036123815760405162461bcd60e51b815260206004820152603260248201527f4552433732313a207472616e7366657220746f206e6f6e20455243373231526560448201527131b2b4bb32b91034b6b83632b6b2b73a32b960711b60648201526084016109a2565b805181602001fd5b6001600160e01b031916630a85bd0160e11b149050611ba2565b506001949350505050565b606060006123bd836002613856565b6123c89060026137ea565b67ffffffffffffffff8111156123e0576123e0612c36565b6040519080825280601f01601f19166020018201604052801561240a576020820181803683370190505b5090507f300000000000000000000000000000000000000000000000000000000000000081600081518110612441576124416130f4565b60200101906001600160f81b031916908160001a9053507f78000000000000000000000000000000000000000000000000000000000000008160018151811061248c5761248c6130f4565b60200101906001600160f81b031916908160001a90535060006124b0846002613856565b6124bb9060016137ea565b90505b6001811115612540577f303132333435363738396162636465660000000000000000000000000000000085600f16601081106124fc576124fc6130f4565b1a60f81b828281518110612512576125126130f4565b60200101906001600160f81b031916908160001a90535060049490941c936125398161386d565b90506124be565b50831561258f5760405162461bcd60e51b815260206004820181905260248201527f537472696e67733a20686578206c656e67746820696e73756666696369656e7460448201526064016109a2565b9392505050565b6000807a184f03e93ff9f4daa797ed6e38ed64bf6a1f01000000000000000083106125df577a184f03e93ff9f4daa797ed6e38ed64bf6a1f010000000000000000830492506040015b6d04ee2d6d415b85acef8100000000831061260b576d04ee2d6d415b85acef8100000000830492506020015b662386f26fc10000831061262957662386f26fc10000830492506010015b6305f5e1008310612641576305f5e100830492506008015b612710831061265557612710830492506004015b60648310612667576064830492506002015b600a83106108535760010192915050565b6001600160a01b0382166126ce5760405162461bcd60e51b815260206004820181905260248201527f4552433732313a206d696e7420746f20746865207a65726f206164647265737360448201526064016109a2565b6000818152600260205260409020546001600160a01b0316156127335760405162461bcd60e51b815260206004820152601c60248201527f4552433732313a20746f6b656e20616c7265616479206d696e7465640000000060448201526064016109a2565b61274160008383600161215c565b6000818152600260205260409020546001600160a01b0316156127a65760405162461bcd60e51b815260206004820152601c60248201527f4552433732313a20746f6b656e20616c7265616479206d696e7465640000000060448201526064016109a2565b6001600160a01b038216600081815260036020908152604080832080546001019055848352600290915280822080546001600160a01b0319168417905551839291907fddf252ad1be2c89b69c2b068fc378daa952ba7f163c4a11628f55a4df523b3ef908290a45050565b82805482825590600052602060002090810192821561284c579160200282015b8281111561284c578251825591602001919060010190612831565b50612858929150612897565b5090565b82805482825590600052602060002090810192821561284c579160200282015b8281111561284c57823582559160200191906001019061287c565b5b808211156128585760008155600101612898565b6001600160e01b0319811681146119be57600080fd5b6000602082840312156128d457600080fd5b813561258f816128ac565b60005b838110156128fa5781810151838201526020016128e2565b50506000910152565b6000815180845261291b8160208601602086016128df565b601f01601f19169290920160200192915050565b60208152600061258f6020830184612903565b60006020828403121561295457600080fd5b5035919050565b80356001600160a01b03811681146116ae57600080fd5b6000806040838503121561298557600080fd5b61298e8361295b565b946020939093013593505050565b6000806000606084860312156129b157600080fd5b6129ba8461295b565b92506129c86020850161295b565b9150604084013590509250925092565b60008083601f8401126129ea57600080fd5b50813567ffffffffffffffff811115612a0257600080fd5b6020830191508360208260051b8501011115612a1d57600080fd5b9250929050565b60008060208385031215612a3757600080fd5b823567ffffffffffffffff811115612a4e57600080fd5b612a5a858286016129d8565b90969095509350505050565b600060208284031215612a7857600080fd5b61258f8261295b565b600082825180855260208086019550808260051b84010181860160005b84811015612acc57601f19868403018952612aba838351612903565b98840198925090830190600101612a9e565b5090979650505050505050565b60208152600061258f6020830184612a81565b600081518084526020808501945080840160005b83811015612b1c57815187529582019590820190600101612b00565b509495945050505050565b60c081526000612b3a60c0830189612aec565b8281036020840152612b4c8189612a81565b90508281036040840152612b608188612a81565b90508281036060840152612b748187612a81565b90508281036080840152612b888186612a81565b9150508260a0830152979650505050505050565b60008060008060008060608789031215612bb557600080fd5b863567ffffffffffffffff80821115612bcd57600080fd5b612bd98a838b016129d8565b90985096506020890135915080821115612bf257600080fd5b612bfe8a838b016129d8565b90965094506040890135915080821115612c1757600080fd5b50612c2489828a016129d8565b979a9699509497509295939492505050565b634e487b7160e01b600052604160045260246000fd5b604051601f8201601f1916810167ffffffffffffffff81118282101715612c7557612c75612c36565b604052919050565b600067ffffffffffffffff821115612c9757612c97612c36565b50601f01601f191660200190565b6000612cb8612cb384612c7d565b612c4c565b9050828152838383011115612ccc57600080fd5b828260208301376000602084830101529392505050565b600060208284031215612cf557600080fd5b813567ffffffffffffffff811115612d0c57600080fd5b8201601f81018413612d1d57600080fd5b611ba284823560208401612ca5565b60c081526000612d3f60c0830189612aec565b8281036020840152612d518189612a81565b90508281036040840152612d658188612a81565b90508281036060840152612d798187612aec565b90508281036080840152612d8d8186612a81565b905082810360a0840152612da18185612a81565b9998505050505050505050565b60008060408385031215612dc157600080fd5b612dca8361295b565b915060208301358015158114612ddf57600080fd5b809150509250929050565b600080600060408486031215612dff57600080fd5b83359250602084013567ffffffffffffffff80821115612e1e57600080fd5b818601915086601f830112612e3257600080fd5b813581811115612e4157600080fd5b876020828501011115612e5357600080fd5b6020830194508093505050509250925092565b600082601f830112612e7757600080fd5b61258f83833560208501612ca5565b60008060008060808587031215612e9c57600080fd5b612ea58561295b565b9350612eb36020860161295b565b925060408501359150606085013567ffffffffffffffff811115612ed657600080fd5b612ee287828801612e66565b91505092959194509250565b600067ffffffffffffffff821115612f0857612f08612c36565b5060051b60200190565b600082601f830112612f2357600080fd5b81356020612f33612cb383612eee565b82815260059290921b84018101918181019086841115612f5257600080fd5b8286015b84811015612f6d5780358352918301918301612f56565b509695505050505050565b600080600080600060a08688031215612f9057600080fd5b612f998661295b565b9450612fa76020870161295b565b9350604086013567ffffffffffffffff80821115612fc457600080fd5b612fd089838a01612f12565b94506060880135915080821115612fe657600080fd5b612ff289838a01612f12565b9350608088013591508082111561300857600080fd5b5061301588828901612e66565b9150509295509295909350565b6000806040838503121561303557600080fd5b61303e8361295b565b915061304c6020840161295b565b90509250929050565b600080600080600060a0868803121561306d57600080fd5b6130768661295b565b94506130846020870161295b565b93506040860135925060608601359150608086013567ffffffffffffffff8111156130ae57600080fd5b61301588828901612e66565b600181811c908216806130ce57607f821691505b6020821081036130ee57634e487b7160e01b600052602260045260246000fd5b50919050565b634e487b7160e01b600052603260045260246000fd5b60006001600160a01b03808716835280861660208401525060a0604083015261313660a0830185612aec565b82810360608401526131488185612aec565b838103608090940193909352505060008152602001949350505050565b634e487b7160e01b600052601160045260246000fd5b60006001820161318d5761318d613165565b5060010190565b81835260007f07ffffffffffffffffffffffffffffffffffffffffffffffffffffffffffffff8311156131c657600080fd5b8260051b80836020870137939093016020019392505050565b6040815260006131f3604083018587613194565b9050826020830152949350505050565b6001600160a01b0384168152604060208201526000613226604083018486613194565b95945050505050565b600082601f83011261324057600080fd5b815161324e612cb382612c7d565b81815284602083860101111561326357600080fd5b611ba28260208301602087016128df565b6000806000806080858703121561328a57600080fd5b845167ffffffffffffffff808211156132a257600080fd5b6132ae8883890161322f565b955060208701519150808211156132c457600080fd5b6132d08883890161322f565b945060408701519150808211156132e657600080fd5b6132f28883890161322f565b9350606087015191508082111561330857600080fd5b50612ee28782880161322f565b6001600160a01b0386168152606060208201526000613338606083018688613194565b828103604084015261334b818587613194565b98975050505050505050565b601f821115610a6157600081815260208120601f850160051c8101602086101561337e5750805b601f850160051c820191505b8181101561339d5782815560010161338a565b505050505050565b815167ffffffffffffffff8111156133bf576133bf612c36565b6133d3816133cd84546130ba565b84613357565b602080601f83116001811461340857600084156133f05750858301515b600019600386901b1c1916600185901b17855561339d565b600085815260208120601f198616915b8281101561343757888601518255948401946001909101908401613418565b50858210156134555787850151600019600388901b60f8161c191681555b5050505050600190811b01905550565b60008154613472816130ba565b6001828116801561348a576001811461349f576134ce565b60ff19841687528215158302870194506134ce565b8560005260208060002060005b858110156134c55781548a8201529084019082016134ac565b50505082870194505b5050505092915050565b600061258f8284613465565b600082601f8301126134f557600080fd5b81516020613505612cb383612eee565b82815260059290921b8401810191818101908684111561352457600080fd5b8286015b84811015612f6d5780518352918301918301613528565b600082601f83011261355057600080fd5b81516020613560612cb383612eee565b82815260059290921b8401810191818101908684111561357f57600080fd5b8286015b84811015612f6d57805167ffffffffffffffff8111156135a35760008081fd5b6135b18986838b010161322f565b845250918301918301613583565b60008060008060008060c087890312156135d857600080fd5b865167ffffffffffffffff808211156135f057600080fd5b6135fc8a838b016134e4565b9750602089015191508082111561361257600080fd5b61361e8a838b0161353f565b9650604089015191508082111561363457600080fd5b6136408a838b0161353f565b9550606089015191508082111561365657600080fd5b6136628a838b016134e4565b9450608089015191508082111561367857600080fd5b6136848a838b0161353f565b935060a089015191508082111561369a57600080fd5b506136a789828a0161353f565b9150509295509295509295565b67ffffffffffffffff8311156136cc576136cc612c36565b6136e0836136da83546130ba565b83613357565b6000601f84116001811461371457600085156136fc5750838201355b600019600387901b1c1916600186901b17835561376e565b600083815260209020601f19861690835b828110156137455786850135825560209485019460019092019101613725565b50868210156137625760001960f88860031b161c19848701351681555b505060018560011b0183555b5050505050565b60006137818286613465565b84516137918183602089016128df565b7f2f00000000000000000000000000000000000000000000000000000000000000910190815283516137ca8160018401602088016128df565b0160010195945050505050565b8181038181111561085357610853613165565b8082018082111561085357610853613165565b60006001600160a01b0380871683528086166020840152508360408301526080606083015261382f6080830184612903565b9695505050505050565b60006020828403121561384b57600080fd5b815161258f816128ac565b808202811582820484141761085357610853613165565b60008161387c5761387c613165565b50600019019056fea26469706673582212206f4ad5500ecd8add401b9e5d9e082aef6f7b77dff71f48b4e42fa224e8f6369564736f6c63430008130033",
  "devdoc": {
    "events": {
      "Approval(address,address,uint256)": {
        "details": "Emitted when `owner` enables `approved` to manage the `tokenId` token."
      },
      "ApprovalForAll(address,address,bool)": {
        "details": "Emitted when `owner` enables or disables (`approved`) `operator` to manage all of its assets."
      },
      "Transfer(address,address,uint256)": {
        "details": "Emitted when `tokenId` token is transferred from `from` to `to`."
      }
    },
    "kind": "dev",
    "methods": {
      "approve(address,uint256)": {
        "details": "See {IERC721-approve}."
      },
      "balanceOf(address)": {
        "details": "See {IERC721-balanceOf}."
      },
      "getApproved(uint256)": {
        "details": "See {IERC721-getApproved}."
      },
      "isApprovedForAll(address,address)": {
        "details": "See {IERC721-isApprovedForAll}."
      },
      "name()": {
        "details": "See {IERC721Metadata-name}."
      },
      "owner()": {
        "details": "Returns the address of the current owner."
      },
      "ownerOf(uint256)": {
        "details": "See {IERC721-ownerOf}."
      },
      "renounceOwnership()": {
        "details": "Leaves the contract without owner. It will not be possible to call `onlyOwner` functions anymore. Can only be called by the current owner. NOTE: Renouncing ownership will leave the contract without an owner, thereby removing any functionality that is only available to the owner."
      },
      "safeTransferFrom(address,address,uint256)": {
        "details": "See {IERC721-safeTransferFrom}."
      },
      "safeTransferFrom(address,address,uint256,bytes)": {
        "details": "See {IERC721-safeTransferFrom}."
      },
      "setApprovalForAll(address,bool)": {
        "details": "See {IERC721-setApprovalForAll}."
      },
      "symbol()": {
        "details": "See {IERC721Metadata-symbol}."
      },
      "transferFrom(address,address,uint256)": {
        "details": "See {IERC721-transferFrom}."
      },
      "transferOwnership(address)": {
        "details": "Transfers ownership of the contract to a new account (`newOwner`). Can only be called by the current owner."
      }
    },
    "version": 1
  },
  "userdoc": {
    "kind": "user",
    "methods": {},
    "version": 1
  },
  "storageLayout": {
    "storage": [
      {
        "astId": 1781,
        "contract": "contracts/Artwork.sol:Artwork",
        "label": "_name",
        "offset": 0,
        "slot": "0",
        "type": "t_string_storage"
      },
      {
        "astId": 1783,
        "contract": "contracts/Artwork.sol:Artwork",
        "label": "_symbol",
        "offset": 0,
        "slot": "1",
        "type": "t_string_storage"
      },
      {
        "astId": 1787,
        "contract": "contracts/Artwork.sol:Artwork",
        "label": "_owners",
        "offset": 0,
        "slot": "2",
        "type": "t_mapping(t_uint256,t_address)"
      },
      {
        "astId": 1791,
        "contract": "contracts/Artwork.sol:Artwork",
        "label": "_balances",
        "offset": 0,
        "slot": "3",
        "type": "t_mapping(t_address,t_uint256)"
      },
      {
        "astId": 1795,
        "contract": "contracts/Artwork.sol:Artwork",
        "label": "_tokenApprovals",
        "offset": 0,
        "slot": "4",
        "type": "t_mapping(t_uint256,t_address)"
      },
      {
        "astId": 1801,
        "contract": "contracts/Artwork.sol:Artwork",
        "label": "_operatorApprovals",
        "offset": 0,
        "slot": "5",
        "type": "t_mapping(t_address,t_mapping(t_address,t_bool))"
      },
      {
        "astId": 7,
        "contract": "contracts/Artwork.sol:Artwork",
        "label": "_owner",
        "offset": 0,
        "slot": "6",
        "type": "t_address"
      },
      {
        "astId": 4325,
        "contract": "contracts/Artwork.sol:Artwork",
        "label": "locked",
        "offset": 20,
        "slot": "6",
        "type": "t_bool"
      },
      {
        "astId": 4327,
        "contract": "contracts/Artwork.sol:Artwork",
        "label": "artistAddress",
        "offset": 0,
        "slot": "7",
        "type": "t_address"
      },
      {
        "astId": 4330,
        "contract": "contracts/Artwork.sol:Artwork",
        "label": "traits",
        "offset": 0,
        "slot": "8",
        "type": "t_contract(ITraits)6390"
      },
      {
        "astId": 4332,
        "contract": "contracts/Artwork.sol:Artwork",
        "label": "baseURI",
        "offset": 0,
        "slot": "9",
        "type": "t_string_storage"
      },
      {
        "astId": 4334,
        "contract": "contracts/Artwork.sol:Artwork",
        "label": "scriptJSON",
        "offset": 0,
        "slot": "10",
        "type": "t_string_storage"
      },
      {
        "astId": 4339,
        "contract": "contracts/Artwork.sol:Artwork",
        "label": "nextTokenId",
        "offset": 0,
        "slot": "11",
        "type": "t_uint256"
      },
      {
        "astId": 4343,
        "contract": "contracts/Artwork.sol:Artwork",
        "label": "scripts",
        "offset": 0,
        "slot": "12",
        "type": "t_mapping(t_uint256,t_string_storage)"
      },
      {
        "astId": 4348,
        "contract": "contracts/Artwork.sol:Artwork",
        "label": "artworkData",
        "offset": 0,
        "slot": "13",
        "type": "t_mapping(t_uint256,t_struct(ArtworkData)6026_storage)"
      },
      {
        "astId": 4352,
        "contract": "contracts/Artwork.sol:Artwork",
        "label": "userNonces",
        "offset": 0,
        "slot": "14",
        "type": "t_mapping(t_address,t_uint256)"
      }
    ],
    "types": {
      "t_address": {
        "encoding": "inplace",
        "label": "address",
        "numberOfBytes": "20"
      },
      "t_array(t_uint256)dyn_storage": {
        "base": "t_uint256",
        "encoding": "dynamic_array",
        "label": "uint256[]",
        "numberOfBytes": "32"
      },
      "t_bool": {
        "encoding": "inplace",
        "label": "bool",
        "numberOfBytes": "1"
      },
      "t_bytes32": {
        "encoding": "inplace",
        "label": "bytes32",
        "numberOfBytes": "32"
      },
      "t_contract(ITraits)6390": {
        "encoding": "inplace",
        "label": "contract ITraits",
        "numberOfBytes": "20"
      },
      "t_mapping(t_address,t_bool)": {
        "encoding": "mapping",
        "key": "t_address",
        "label": "mapping(address => bool)",
        "numberOfBytes": "32",
        "value": "t_bool"
      },
      "t_mapping(t_address,t_mapping(t_address,t_bool))": {
        "encoding": "mapping",
        "key": "t_address",
        "label": "mapping(address => mapping(address => bool))",
        "numberOfBytes": "32",
        "value": "t_mapping(t_address,t_bool)"
      },
      "t_mapping(t_address,t_uint256)": {
        "encoding": "mapping",
        "key": "t_address",
        "label": "mapping(address => uint256)",
        "numberOfBytes": "32",
        "value": "t_uint256"
      },
      "t_mapping(t_uint256,t_address)": {
        "encoding": "mapping",
        "key": "t_uint256",
        "label": "mapping(uint256 => address)",
        "numberOfBytes": "32",
        "value": "t_address"
      },
      "t_mapping(t_uint256,t_string_storage)": {
        "encoding": "mapping",
        "key": "t_uint256",
        "label": "mapping(uint256 => string)",
        "numberOfBytes": "32",
        "value": "t_string_storage"
      },
      "t_mapping(t_uint256,t_struct(ArtworkData)6026_storage)": {
        "encoding": "mapping",
        "key": "t_uint256",
        "label": "mapping(uint256 => struct IArtwork.ArtworkData)",
        "numberOfBytes": "32",
        "value": "t_struct(ArtworkData)6026_storage"
      },
      "t_string_storage": {
        "encoding": "bytes",
        "label": "string",
        "numberOfBytes": "32"
      },
      "t_struct(ArtworkData)6026_storage": {
        "encoding": "inplace",
        "label": "struct IArtwork.ArtworkData",
        "members": [
          {
            "astId": 6022,
            "contract": "contracts/Artwork.sol:Artwork",
            "label": "hash",
            "offset": 0,
            "slot": "0",
            "type": "t_bytes32"
          },
          {
            "astId": 6025,
            "contract": "contracts/Artwork.sol:Artwork",
            "label": "traitTokenIds",
            "offset": 0,
            "slot": "1",
            "type": "t_array(t_uint256)dyn_storage"
          }
        ],
        "numberOfBytes": "64"
      },
      "t_uint256": {
        "encoding": "inplace",
        "label": "uint256",
        "numberOfBytes": "32"
      }
    }
  }
}