{
  "address": "0x5F72E74E3ceF5e6189AF6A91FECCF4AAC4934c2a",
  "abi": [
    {
      "anonymous": false,
      "inputs": [
        {
          "indexed": true,
          "internalType": "address",
          "name": "owner",
          "type": "address"
        },
        {
          "indexed": true,
          "internalType": "address",
          "name": "approved",
          "type": "address"
        },
        {
          "indexed": true,
          "internalType": "uint256",
          "name": "tokenId",
          "type": "uint256"
        }
      ],
      "name": "Approval",
      "type": "event"
    },
    {
      "anonymous": false,
      "inputs": [
        {
          "indexed": true,
          "internalType": "address",
          "name": "owner",
          "type": "address"
        },
        {
          "indexed": true,
          "internalType": "address",
          "name": "operator",
          "type": "address"
        },
        {
          "indexed": false,
          "internalType": "bool",
          "name": "approved",
          "type": "bool"
        }
      ],
      "name": "ApprovalForAll",
      "type": "event"
    },
    {
      "anonymous": false,
      "inputs": [
        {
          "indexed": false,
          "internalType": "address",
          "name": "receiver",
          "type": "address"
        },
        {
          "indexed": false,
          "internalType": "uint256",
          "name": "projectid",
          "type": "uint256"
        },
        {
          "indexed": false,
          "internalType": "uint256",
          "name": "tokenId",
          "type": "uint256"
        }
      ],
      "name": "MintedToken",
      "type": "event"
    },
    {
      "anonymous": false,
      "inputs": [
        {
          "indexed": true,
          "internalType": "address",
          "name": "from",
          "type": "address"
        },
        {
          "indexed": true,
          "internalType": "address",
          "name": "to",
          "type": "address"
        },
        {
          "indexed": true,
          "internalType": "uint256",
          "name": "tokenId",
          "type": "uint256"
        }
      ],
      "name": "Transfer",
      "type": "event"
    },
    {
      "anonymous": false,
      "inputs": [
        {
          "indexed": false,
          "internalType": "uint256",
          "name": "canvasId",
          "type": "uint256"
        },
        {
          "indexed": false,
          "internalType": "uint256",
          "name": "tokenIds",
          "type": "uint256"
        },
        {
          "indexed": false,
          "internalType": "uint256",
          "name": "amounts",
          "type": "uint256"
        }
      ],
      "name": "UnWrappedTokens",
      "type": "event"
    },
    {
      "anonymous": false,
      "inputs": [
        {
          "indexed": false,
          "internalType": "uint256",
          "name": "canvasId",
          "type": "uint256"
        },
        {
          "indexed": false,
          "internalType": "uint256",
          "name": "tokenIds",
          "type": "uint256"
        },
        {
          "indexed": false,
          "internalType": "uint256",
          "name": "amounts",
          "type": "uint256"
        }
      ],
      "name": "WrappedTokens",
      "type": "event"
    },
    {
      "inputs": [
        {
          "internalType": "address",
          "name": "to",
          "type": "address"
        },
        {
          "internalType": "uint256",
          "name": "tokenId",
          "type": "uint256"
        }
      ],
      "name": "approve",
      "outputs": [],
      "stateMutability": "nonpayable",
      "type": "function"
    },
    {
      "inputs": [
        {
          "internalType": "address",
          "name": "owner",
          "type": "address"
        }
      ],
      "name": "balanceOf",
      "outputs": [
        {
          "internalType": "uint256",
          "name": "",
          "type": "uint256"
        }
      ],
      "stateMutability": "view",
      "type": "function"
    },
    {
      "inputs": [
        {
          "internalType": "uint256",
          "name": "tokenId",
          "type": "uint256"
        }
      ],
      "name": "burn",
      "outputs": [],
      "stateMutability": "nonpayable",
      "type": "function"
    },
    {
      "inputs": [
        {
          "internalType": "address",
          "name": "_studio",
          "type": "address"
        },
        {
          "internalType": "address",
          "name": "_minter",
          "type": "address"
        },
        {
          "internalType": "uint256",
          "name": "_maxInvocations",
          "type": "uint256"
        }
      ],
      "name": "createProject",
      "outputs": [
        {
          "internalType": "uint256",
          "name": "projectId",
          "type": "uint256"
        }
      ],
      "stateMutability": "nonpayable",
      "type": "function"
    },
    {
      "inputs": [
        {
          "internalType": "uint256",
          "name": "tokenId",
          "type": "uint256"
        }
      ],
      "name": "getApproved",
      "outputs": [
        {
          "internalType": "address",
          "name": "",
          "type": "address"
        }
      ],
      "stateMutability": "view",
      "type": "function"
    },
    {
      "inputs": [
        {
          "internalType": "uint256",
          "name": "canvasId",
          "type": "uint256"
        }
      ],
      "name": "getProjectIdFromCanvasId",
      "outputs": [
        {
          "internalType": "uint256",
          "name": "projectId",
          "type": "uint256"
        }
      ],
      "stateMutability": "pure",
      "type": "function"
    },
    {
      "inputs": [],
      "name": "initialize",
      "outputs": [],
      "stateMutability": "nonpayable",
      "type": "function"
    },
    {
      "inputs": [
        {
          "internalType": "address",
          "name": "owner",
          "type": "address"
        },
        {
          "internalType": "address",
          "name": "operator",
          "type": "address"
        }
      ],
      "name": "isApprovedForAll",
      "outputs": [
        {
          "internalType": "bool",
          "name": "",
          "type": "bool"
        }
      ],
      "stateMutability": "view",
      "type": "function"
    },
    {
      "inputs": [
        {
          "internalType": "uint256",
          "name": "_projectId",
          "type": "uint256"
        },
        {
          "internalType": "address",
          "name": "_to",
          "type": "address"
        }
      ],
      "name": "mint",
      "outputs": [
        {
          "internalType": "uint256",
          "name": "tokenId",
          "type": "uint256"
        }
      ],
      "stateMutability": "nonpayable",
      "type": "function"
    },
    {
      "inputs": [],
      "name": "name",
      "outputs": [
        {
          "internalType": "string",
          "name": "",
          "type": "string"
        }
      ],
      "stateMutability": "view",
      "type": "function"
    },
    {
      "inputs": [
        {
          "internalType": "uint256",
          "name": "tokenId",
          "type": "uint256"
        }
      ],
      "name": "ownerOf",
      "outputs": [
        {
          "internalType": "address",
          "name": "",
          "type": "address"
        }
      ],
      "stateMutability": "view",
      "type": "function"
    },
    {
      "inputs": [
        {
          "internalType": "uint256",
          "name": "",
          "type": "uint256"
        }
      ],
      "name": "projects",
      "outputs": [
        {
          "internalType": "address",
          "name": "studio",
          "type": "address"
        },
        {
          "internalType": "address",
          "name": "minter",
          "type": "address"
        },
        {
          "internalType": "uint256",
          "name": "invocations",
          "type": "uint256"
        },
        {
          "internalType": "uint256",
          "name": "maxInvocations",
          "type": "uint256"
        }
      ],
      "stateMutability": "view",
      "type": "function"
    },
    {
      "inputs": [
        {
          "internalType": "address",
          "name": "from",
          "type": "address"
        },
        {
          "internalType": "address",
          "name": "to",
          "type": "address"
        },
        {
          "internalType": "uint256",
          "name": "tokenId",
          "type": "uint256"
        }
      ],
      "name": "safeTransferFrom",
      "outputs": [],
      "stateMutability": "nonpayable",
      "type": "function"
    },
    {
      "inputs": [
        {
          "internalType": "address",
          "name": "from",
          "type": "address"
        },
        {
          "internalType": "address",
          "name": "to",
          "type": "address"
        },
        {
          "internalType": "uint256",
          "name": "tokenId",
          "type": "uint256"
        },
        {
          "internalType": "bytes",
          "name": "_data",
          "type": "bytes"
        }
      ],
      "name": "safeTransferFrom",
      "outputs": [],
      "stateMutability": "nonpayable",
      "type": "function"
    },
    {
      "inputs": [
        {
          "internalType": "address",
          "name": "operator",
          "type": "address"
        },
        {
          "internalType": "bool",
          "name": "approved",
          "type": "bool"
        }
      ],
      "name": "setApprovalForAll",
      "outputs": [],
      "stateMutability": "nonpayable",
      "type": "function"
    },
    {
      "inputs": [
        {
          "internalType": "bytes4",
          "name": "interfaceId",
          "type": "bytes4"
        }
      ],
      "name": "supportsInterface",
      "outputs": [
        {
          "internalType": "bool",
          "name": "",
          "type": "bool"
        }
      ],
      "stateMutability": "view",
      "type": "function"
    },
    {
      "inputs": [],
      "name": "symbol",
      "outputs": [
        {
          "internalType": "string",
          "name": "",
          "type": "string"
        }
      ],
      "stateMutability": "view",
      "type": "function"
    },
    {
      "inputs": [
        {
          "internalType": "uint256",
          "name": "tokenId",
          "type": "uint256"
        }
      ],
      "name": "tokenURI",
      "outputs": [
        {
          "internalType": "string",
          "name": "",
          "type": "string"
        }
      ],
      "stateMutability": "view",
      "type": "function"
    },
    {
      "inputs": [
        {
          "internalType": "address",
          "name": "from",
          "type": "address"
        },
        {
          "internalType": "address",
          "name": "to",
          "type": "address"
        },
        {
          "internalType": "uint256",
          "name": "tokenId",
          "type": "uint256"
        }
      ],
      "name": "transferFrom",
      "outputs": [],
      "stateMutability": "nonpayable",
      "type": "function"
    }
  ],
  "transactionHash": "0x67a02216621ebb39b456de29ade6eba8f5f94c3f31efdddabc9efcbb4c199827",
  "args": [],
  "numDeployments": 1,
  "solcInputHash": "087a7cb0e2ad6a30db8c30e9538f1bcb",
  "bytecode": "0x6080604052600160c95534801561001557600080fd5b50611b6d806100256000396000f3fe608060405234801561001057600080fd5b50600436106101215760003560e01c80636352211e116100ad578063a22cb46511610071578063a22cb465146102b3578063b88d4fde146102c6578063c87b56dd146102d9578063e985e9c5146102ec578063f94d19ba1461032857600080fd5b80636352211e1461026a57806370a082311461027d5780638129fc1c1461029057806394bf804d1461029857806395d89b41146102ab57600080fd5b8063107046bd116100f4578063107046bd146101a357806323b872dd1461021057806340c2846b1461022357806342842e0e1461024457806342966c681461025757600080fd5b806301ffc9a71461012657806306fdde031461014e578063081812fc14610163578063095ea7b31461018e575b600080fd5b6101396101343660046115f3565b61033b565b60405190151581526020015b60405180910390f35b610156610366565b6040516101459190611668565b61017661017136600461167b565b6103f8565b6040516001600160a01b039091168152602001610145565b6101a161019c3660046116b0565b610492565b005b6101e56101b136600461167b565b60ca6020526000908152604090208054600182015460028301546003909301546001600160a01b0392831693919092169184565b604080516001600160a01b039586168152949093166020850152918301526060820152608001610145565b6101a161021e3660046116da565b6105a7565b61023661023136600461167b565b6105d9565b604051908152602001610145565b6101a16102523660046116da565b6105e8565b6101a161026536600461167b565b610603565b61017661027836600461167b565b61067d565b61023661028b366004611716565b6106f4565b6101a161077b565b6102366102a6366004611731565b61088f565b610156610a12565b6101a16102c136600461175d565b610a21565b6101a16102d43660046117af565b610a30565b6101566102e736600461167b565b610a68565b6101396102fa36600461188b565b6001600160a01b039182166000908152606a6020908152604080832093909416825291909152205460ff1690565b6102366103363660046116da565b610b50565b60006001600160e01b03198216630852cd8d60e31b1480610360575061036082610c1e565b92915050565b606060658054610375906118b5565b80601f01602080910402602001604051908101604052809291908181526020018280546103a1906118b5565b80156103ee5780601f106103c3576101008083540402835291602001916103ee565b820191906000526020600020905b8154815290600101906020018083116103d157829003601f168201915b5050505050905090565b6000818152606760205260408120546001600160a01b03166104765760405162461bcd60e51b815260206004820152602c60248201527f4552433732313a20617070726f76656420717565727920666f72206e6f6e657860448201526b34b9ba32b73a103a37b5b2b760a11b60648201526084015b60405180910390fd5b506000908152606960205260409020546001600160a01b031690565b600061049d8261067d565b9050806001600160a01b0316836001600160a01b03160361050a5760405162461bcd60e51b815260206004820152602160248201527f4552433732313a20617070726f76616c20746f2063757272656e74206f776e656044820152603960f91b606482015260840161046d565b336001600160a01b0382161480610526575061052681336102fa565b6105985760405162461bcd60e51b815260206004820152603860248201527f4552433732313a20617070726f76652063616c6c6572206973206e6f74206f7760448201527f6e6572206e6f7220617070726f76656420666f7220616c6c0000000000000000606482015260840161046d565b6105a28383610c6e565b505050565b6105b2335b82610cdc565b6105ce5760405162461bcd60e51b815260040161046d906118ef565b6105a2838383610dd3565b6000610360620f42408361196c565b6105a283838360405180602001604052806000815250610a30565b61060c336105ac565b6106715760405162461bcd60e51b815260206004820152603060248201527f4552433732314275726e61626c653a2063616c6c6572206973206e6f74206f7760448201526f1b995c881b9bdc88185c1c1c9bdd995960821b606482015260840161046d565b61067a81610f6f565b50565b6000818152606760205260408120546001600160a01b0316806103605760405162461bcd60e51b815260206004820152602960248201527f4552433732313a206f776e657220717565727920666f72206e6f6e657869737460448201526832b73a103a37b5b2b760b91b606482015260840161046d565b60006001600160a01b03821661075f5760405162461bcd60e51b815260206004820152602a60248201527f4552433732313a2062616c616e636520717565727920666f7220746865207a65604482015269726f206164647265737360b01b606482015260840161046d565b506001600160a01b031660009081526068602052604090205490565b600054610100900460ff166107965760005460ff161561079a565b303b155b6107fd5760405162461bcd60e51b815260206004820152602e60248201527f496e697469616c697a61626c653a20636f6e747261637420697320616c72656160448201526d191e481a5b9a5d1a585b1a5e995960921b606482015260840161046d565b600054610100900460ff1615801561081f576000805461ffff19166101011790555b61087360405180604001604052806016815260200175496e7472696e7369632e6172742043616e766173657360501b81525060405180604001604052806004815260200163494e534360e01b81525061100a565b61087b61103b565b801561067a576000805461ff001916905550565b600082815260ca60205260408120600101546001600160a01b031633146109035760405162461bcd60e51b815260206004820152602260248201527f4f6e6c79206d696e7465722063616e2063616c6c20746869732066756e63746960448201526137b760f11b606482015260840161046d565b600083815260ca602052604090206003810154600290910154111561096a5760405162461bcd60e51b815260206004820152601960248201527f546869732070726f6a6563742068617320736f6c64206f757400000000000000604482015260640161046d565b600083815260ca602052604090206002015461098984620f4240611980565b610993919061199f565b600084815260ca602052604081206002018054929350906109b3836119b7565b91905055506109c28282611064565b604080516001600160a01b0384168152602081018590529081018290527f52331600d7dd08845796ecfd275f29b8c05b26da7f74e73b27c96eff051e6e259060600160405180910390a192915050565b606060668054610375906118b5565b610a2c33838361107e565b5050565b610a3a3383610cdc565b610a565760405162461bcd60e51b815260040161046d906118ef565b610a628484848461114c565b50505050565b6000818152606760205260409020546060906001600160a01b0316610ae75760405162461bcd60e51b815260206004820152602f60248201527f4552433732314d657461646174613a2055524920717565727920666f72206e6f60448201526e3732bc34b9ba32b73a103a37b5b2b760891b606482015260840161046d565b6000610afe60408051602081019091526000815290565b90506000815111610b1e5760405180602001604052806000815250610b49565b80610b288461117f565b604051602001610b399291906119d0565b6040516020818303038152906040525b9392505050565b6000620f42408210610bb85760405162461bcd60e51b815260206004820152602b60248201527f4d617820696e766f636174696f6e73206d757374206265206c6573732074686160448201526a06e20312c3030302c3030360ac1b606482015260840161046d565b5060c98054600081815260ca6020526040812080546001600160a01b038089166001600160a01b031992831617835560018301805491891691909216179055600281018290556003018490558254919290610c12836119b7565b91905055509392505050565b60006001600160e01b031982166380ac58cd60e01b1480610c4f57506001600160e01b03198216635b5e139f60e01b145b8061036057506301ffc9a760e01b6001600160e01b0319831614610360565b600081815260696020526040902080546001600160a01b0319166001600160a01b0384169081179091558190610ca38261067d565b6001600160a01b03167f8c5be1e5ebec7d5bd14f71427d1e84f3dd0314c0f7b2291e5b200ac8c7c3b92560405160405180910390a45050565b6000818152606760205260408120546001600160a01b0316610d555760405162461bcd60e51b815260206004820152602c60248201527f4552433732313a206f70657261746f7220717565727920666f72206e6f6e657860448201526b34b9ba32b73a103a37b5b2b760a11b606482015260840161046d565b6000610d608361067d565b9050806001600160a01b0316846001600160a01b03161480610d9b5750836001600160a01b0316610d90846103f8565b6001600160a01b0316145b80610dcb57506001600160a01b038082166000908152606a602090815260408083209388168352929052205460ff165b949350505050565b826001600160a01b0316610de68261067d565b6001600160a01b031614610e4a5760405162461bcd60e51b815260206004820152602560248201527f4552433732313a207472616e736665722066726f6d20696e636f72726563742060448201526437bbb732b960d91b606482015260840161046d565b6001600160a01b038216610eac5760405162461bcd60e51b8152602060048201526024808201527f4552433732313a207472616e7366657220746f20746865207a65726f206164646044820152637265737360e01b606482015260840161046d565b610eb7600082610c6e565b6001600160a01b0383166000908152606860205260408120805460019290610ee09084906119ff565b90915550506001600160a01b0382166000908152606860205260408120805460019290610f0e90849061199f565b909155505060008181526067602052604080822080546001600160a01b0319166001600160a01b0386811691821790925591518493918716917fddf252ad1be2c89b69c2b068fc378daa952ba7f163c4a11628f55a4df523b3ef91a4505050565b6000610f7a8261067d565b9050610f87600083610c6e565b6001600160a01b0381166000908152606860205260408120805460019290610fb09084906119ff565b909155505060008281526067602052604080822080546001600160a01b0319169055518391906001600160a01b038416907fddf252ad1be2c89b69c2b068fc378daa952ba7f163c4a11628f55a4df523b3ef908390a45050565b600054610100900460ff166110315760405162461bcd60e51b815260040161046d90611a16565b610a2c8282611280565b600054610100900460ff166110625760405162461bcd60e51b815260040161046d90611a16565b565b610a2c8282604051806020016040528060008152506112ce565b816001600160a01b0316836001600160a01b0316036110df5760405162461bcd60e51b815260206004820152601960248201527f4552433732313a20617070726f766520746f2063616c6c657200000000000000604482015260640161046d565b6001600160a01b038381166000818152606a6020908152604080832094871680845294825291829020805460ff191686151590811790915591519182527f17307eab39ab6107e8899845ad3d59bd9653f200f220920489ca2b5937696c31910160405180910390a3505050565b611157848484610dd3565b61116384848484611301565b610a625760405162461bcd60e51b815260040161046d90611a61565b6060816000036111a65750506040805180820190915260018152600360fc1b602082015290565b8160005b81156111d057806111ba816119b7565b91506111c99050600a8361196c565b91506111aa565b60008167ffffffffffffffff8111156111eb576111eb611799565b6040519080825280601f01601f191660200182016040528015611215576020820181803683370190505b5090505b8415610dcb5761122a6001836119ff565b9150611237600a86611ab3565b61124290603061199f565b60f81b81838151811061125757611257611ac7565b60200101906001600160f81b031916908160001a905350611279600a8661196c565b9450611219565b600054610100900460ff166112a75760405162461bcd60e51b815260040161046d90611a16565b81516112ba906065906020850190611544565b5080516105a2906066906020840190611544565b6112d88383611402565b6112e56000848484611301565b6105a25760405162461bcd60e51b815260040161046d90611a61565b60006001600160a01b0384163b156113f757604051630a85bd0160e11b81526001600160a01b0385169063150b7a0290611345903390899088908890600401611add565b6020604051808303816000875af1925050508015611380575060408051601f3d908101601f1916820190925261137d91810190611b1a565b60015b6113dd573d8080156113ae576040519150601f19603f3d011682016040523d82523d6000602084013e6113b3565b606091505b5080516000036113d55760405162461bcd60e51b815260040161046d90611a61565b805181602001fd5b6001600160e01b031916630a85bd0160e11b149050610dcb565b506001949350505050565b6001600160a01b0382166114585760405162461bcd60e51b815260206004820181905260248201527f4552433732313a206d696e7420746f20746865207a65726f2061646472657373604482015260640161046d565b6000818152606760205260409020546001600160a01b0316156114bd5760405162461bcd60e51b815260206004820152601c60248201527f4552433732313a20746f6b656e20616c7265616479206d696e74656400000000604482015260640161046d565b6001600160a01b03821660009081526068602052604081208054600192906114e690849061199f565b909155505060008181526067602052604080822080546001600160a01b0319166001600160a01b03861690811790915590518392907fddf252ad1be2c89b69c2b068fc378daa952ba7f163c4a11628f55a4df523b3ef908290a45050565b828054611550906118b5565b90600052602060002090601f01602090048101928261157257600085556115b8565b82601f1061158b57805160ff19168380011785556115b8565b828001600101855582156115b8579182015b828111156115b857825182559160200191906001019061159d565b506115c49291506115c8565b5090565b5b808211156115c457600081556001016115c9565b6001600160e01b03198116811461067a57600080fd5b60006020828403121561160557600080fd5b8135610b49816115dd565b60005b8381101561162b578181015183820152602001611613565b83811115610a625750506000910152565b60008151808452611654816020860160208601611610565b601f01601f19169290920160200192915050565b602081526000610b49602083018461163c565b60006020828403121561168d57600080fd5b5035919050565b80356001600160a01b03811681146116ab57600080fd5b919050565b600080604083850312156116c357600080fd5b6116cc83611694565b946020939093013593505050565b6000806000606084860312156116ef57600080fd5b6116f884611694565b925061170660208501611694565b9150604084013590509250925092565b60006020828403121561172857600080fd5b610b4982611694565b6000806040838503121561174457600080fd5b8235915061175460208401611694565b90509250929050565b6000806040838503121561177057600080fd5b61177983611694565b91506020830135801515811461178e57600080fd5b809150509250929050565b634e487b7160e01b600052604160045260246000fd5b600080600080608085870312156117c557600080fd5b6117ce85611694565b93506117dc60208601611694565b925060408501359150606085013567ffffffffffffffff8082111561180057600080fd5b818701915087601f83011261181457600080fd5b81358181111561182657611826611799565b604051601f8201601f19908116603f0116810190838211818310171561184e5761184e611799565b816040528281528a602084870101111561186757600080fd5b82602086016020830137600060208483010152809550505050505092959194509250565b6000806040838503121561189e57600080fd5b6118a783611694565b915061175460208401611694565b600181811c908216806118c957607f821691505b6020821081036118e957634e487b7160e01b600052602260045260246000fd5b50919050565b60208082526031908201527f4552433732313a207472616e736665722063616c6c6572206973206e6f74206f6040820152701ddb995c881b9bdc88185c1c1c9bdd9959607a1b606082015260800190565b634e487b7160e01b600052601260045260246000fd5b634e487b7160e01b600052601160045260246000fd5b60008261197b5761197b611940565b500490565b600081600019048311821515161561199a5761199a611956565b500290565b600082198211156119b2576119b2611956565b500190565b6000600182016119c9576119c9611956565b5060010190565b600083516119e2818460208801611610565b8351908301906119f6818360208801611610565b01949350505050565b600082821015611a1157611a11611956565b500390565b6020808252602b908201527f496e697469616c697a61626c653a20636f6e7472616374206973206e6f74206960408201526a6e697469616c697a696e6760a81b606082015260800190565b60208082526032908201527f4552433732313a207472616e7366657220746f206e6f6e20455243373231526560408201527131b2b4bb32b91034b6b83632b6b2b73a32b960711b606082015260800190565b600082611ac257611ac2611940565b500690565b634e487b7160e01b600052603260045260246000fd5b6001600160a01b0385811682528416602082015260408101839052608060608201819052600090611b109083018461163c565b9695505050505050565b600060208284031215611b2c57600080fd5b8151610b49816115dd56fea2646970667358221220d4dd5743780a2678a19d0dddaeb2d65d9e8c917914a9da631e0e7adc19f352d864736f6c634300080d0033",
  "devdoc": {
    "kind": "dev",
    "methods": {
      "approve(address,uint256)": {
        "details": "See {IERC721-approve}."
      },
      "balanceOf(address)": {
        "details": "See {IERC721-balanceOf}."
      },
      "burn(uint256)": {
        "details": "Burns `tokenId`. See {ERC721-_burn}. Requirements: - The caller must own `tokenId` or be an approved operator."
      },
      "getApproved(uint256)": {
        "details": "See {IERC721-getApproved}."
      },
      "isApprovedForAll(address,address)": {
        "details": "See {IERC721-isApprovedForAll}."
      },
      "name()": {
        "details": "See {IERC721Metadata-name}."
      },
      "ownerOf(uint256)": {
        "details": "See {IERC721-ownerOf}."
      },
      "safeTransferFrom(address,address,uint256)": {
        "details": "See {IERC721-safeTransferFrom}."
      },
      "safeTransferFrom(address,address,uint256,bytes)": {
        "details": "See {IERC721-safeTransferFrom}."
      },
      "setApprovalForAll(address,bool)": {
        "details": "See {IERC721-setApprovalForAll}."
      },
      "supportsInterface(bytes4)": {
        "details": "See {IERC165-supportsInterface}."
      },
      "symbol()": {
        "details": "See {IERC721Metadata-symbol}."
      },
      "tokenURI(uint256)": {
        "details": "See {IERC721Metadata-tokenURI}."
      },
      "transferFrom(address,address,uint256)": {
        "details": "See {IERC721-transferFrom}."
      }
    },
    "version": 1
  },
  "userdoc": {
    "kind": "user",
    "methods": {},
    "version": 1
  },
  "storageLayout": {
    "storage": [
      {
        "astId": 6,
        "contract": "contracts/Canvas.sol:Canvas",
        "label": "_initialized",
        "offset": 0,
        "slot": "0",
        "type": "t_bool"
      },
      {
        "astId": 9,
        "contract": "contracts/Canvas.sol:Canvas",
        "label": "_initializing",
        "offset": 1,
        "slot": "0",
        "type": "t_bool"
      },
      {
        "astId": 1459,
        "contract": "contracts/Canvas.sol:Canvas",
        "label": "__gap",
        "offset": 0,
        "slot": "1",
        "type": "t_array(t_uint256)50_storage"
      },
      {
        "astId": 1706,
        "contract": "contracts/Canvas.sol:Canvas",
        "label": "__gap",
        "offset": 0,
        "slot": "51",
        "type": "t_array(t_uint256)50_storage"
      },
      {
        "astId": 102,
        "contract": "contracts/Canvas.sol:Canvas",
        "label": "_name",
        "offset": 0,
        "slot": "101",
        "type": "t_string_storage"
      },
      {
        "astId": 104,
        "contract": "contracts/Canvas.sol:Canvas",
        "label": "_symbol",
        "offset": 0,
        "slot": "102",
        "type": "t_string_storage"
      },
      {
        "astId": 108,
        "contract": "contracts/Canvas.sol:Canvas",
        "label": "_owners",
        "offset": 0,
        "slot": "103",
        "type": "t_mapping(t_uint256,t_address)"
      },
      {
        "astId": 112,
        "contract": "contracts/Canvas.sol:Canvas",
        "label": "_balances",
        "offset": 0,
        "slot": "104",
        "type": "t_mapping(t_address,t_uint256)"
      },
      {
        "astId": 116,
        "contract": "contracts/Canvas.sol:Canvas",
        "label": "_tokenApprovals",
        "offset": 0,
        "slot": "105",
        "type": "t_mapping(t_uint256,t_address)"
      },
      {
        "astId": 122,
        "contract": "contracts/Canvas.sol:Canvas",
        "label": "_operatorApprovals",
        "offset": 0,
        "slot": "106",
        "type": "t_mapping(t_address,t_mapping(t_address,t_bool))"
      },
      {
        "astId": 963,
        "contract": "contracts/Canvas.sol:Canvas",
        "label": "__gap",
        "offset": 0,
        "slot": "107",
        "type": "t_array(t_uint256)44_storage"
      },
      {
        "astId": 1147,
        "contract": "contracts/Canvas.sol:Canvas",
        "label": "__gap",
        "offset": 0,
        "slot": "151",
        "type": "t_array(t_uint256)50_storage"
      },
      {
        "astId": 5416,
        "contract": "contracts/Canvas.sol:Canvas",
        "label": "nextProjectId",
        "offset": 0,
        "slot": "201",
        "type": "t_uint256"
      },
      {
        "astId": 5421,
        "contract": "contracts/Canvas.sol:Canvas",
        "label": "projects",
        "offset": 0,
        "slot": "202",
        "type": "t_mapping(t_uint256,t_struct(ProjectData)7604_storage)"
      }
    ],
    "types": {
      "t_address": {
        "encoding": "inplace",
        "label": "address",
        "numberOfBytes": "20"
      },
      "t_array(t_uint256)44_storage": {
        "base": "t_uint256",
        "encoding": "inplace",
        "label": "uint256[44]",
        "numberOfBytes": "1408"
      },
      "t_array(t_uint256)50_storage": {
        "base": "t_uint256",
        "encoding": "inplace",
        "label": "uint256[50]",
        "numberOfBytes": "1600"
      },
      "t_bool": {
        "encoding": "inplace",
        "label": "bool",
        "numberOfBytes": "1"
      },
      "t_mapping(t_address,t_bool)": {
        "encoding": "mapping",
        "key": "t_address",
        "label": "mapping(address => bool)",
        "numberOfBytes": "32",
        "value": "t_bool"
      },
      "t_mapping(t_address,t_mapping(t_address,t_bool))": {
        "encoding": "mapping",
        "key": "t_address",
        "label": "mapping(address => mapping(address => bool))",
        "numberOfBytes": "32",
        "value": "t_mapping(t_address,t_bool)"
      },
      "t_mapping(t_address,t_uint256)": {
        "encoding": "mapping",
        "key": "t_address",
        "label": "mapping(address => uint256)",
        "numberOfBytes": "32",
        "value": "t_uint256"
      },
      "t_mapping(t_uint256,t_address)": {
        "encoding": "mapping",
        "key": "t_uint256",
        "label": "mapping(uint256 => address)",
        "numberOfBytes": "32",
        "value": "t_address"
      },
      "t_mapping(t_uint256,t_struct(ProjectData)7604_storage)": {
        "encoding": "mapping",
        "key": "t_uint256",
        "label": "mapping(uint256 => struct ICanvas.ProjectData)",
        "numberOfBytes": "32",
        "value": "t_struct(ProjectData)7604_storage"
      },
      "t_string_storage": {
        "encoding": "bytes",
        "label": "string",
        "numberOfBytes": "32"
      },
      "t_struct(ProjectData)7604_storage": {
        "encoding": "inplace",
        "label": "struct ICanvas.ProjectData",
        "members": [
          {
            "astId": 7597,
            "contract": "contracts/Canvas.sol:Canvas",
            "label": "studio",
            "offset": 0,
            "slot": "0",
            "type": "t_address"
          },
          {
            "astId": 7599,
            "contract": "contracts/Canvas.sol:Canvas",
            "label": "minter",
            "offset": 0,
            "slot": "1",
            "type": "t_address"
          },
          {
            "astId": 7601,
            "contract": "contracts/Canvas.sol:Canvas",
            "label": "invocations",
            "offset": 0,
            "slot": "2",
            "type": "t_uint256"
          },
          {
            "astId": 7603,
            "contract": "contracts/Canvas.sol:Canvas",
            "label": "maxInvocations",
            "offset": 0,
            "slot": "3",
            "type": "t_uint256"
          }
        ],
        "numberOfBytes": "128"
      },
      "t_uint256": {
        "encoding": "inplace",
        "label": "uint256",
        "numberOfBytes": "32"
      }
    }
  }
}