{
  "address": "0x24D201AaB63fE457ec602EE8315a126Ce3874412",
  "abi": [
    {
      "inputs": [
        {
          "internalType": "address",
          "name": "_owner",
          "type": "address"
        }
      ],
      "stateMutability": "nonpayable",
      "type": "constructor"
    },
    {
      "anonymous": false,
      "inputs": [
        {
          "indexed": true,
          "internalType": "address",
          "name": "owner",
          "type": "address"
        },
        {
          "indexed": true,
          "internalType": "address",
          "name": "approved",
          "type": "address"
        },
        {
          "indexed": true,
          "internalType": "uint256",
          "name": "tokenId",
          "type": "uint256"
        }
      ],
      "name": "Approval",
      "type": "event"
    },
    {
      "anonymous": false,
      "inputs": [
        {
          "indexed": true,
          "internalType": "address",
          "name": "owner",
          "type": "address"
        },
        {
          "indexed": true,
          "internalType": "address",
          "name": "operator",
          "type": "address"
        },
        {
          "indexed": false,
          "internalType": "bool",
          "name": "approved",
          "type": "bool"
        }
      ],
      "name": "ApprovalForAll",
      "type": "event"
    },
    {
      "anonymous": false,
      "inputs": [
        {
          "indexed": true,
          "internalType": "address",
          "name": "previousOwner",
          "type": "address"
        },
        {
          "indexed": true,
          "internalType": "address",
          "name": "newOwner",
          "type": "address"
        }
      ],
      "name": "OwnershipTransferred",
      "type": "event"
    },
    {
      "anonymous": false,
      "inputs": [
        {
          "indexed": true,
          "internalType": "uint256",
          "name": "projectId",
          "type": "uint256"
        },
        {
          "indexed": true,
          "internalType": "address",
          "name": "studio",
          "type": "address"
        },
        {
          "indexed": false,
          "internalType": "uint256",
          "name": "maxSupply",
          "type": "uint256"
        }
      ],
      "name": "ProjectCreated",
      "type": "event"
    },
    {
      "anonymous": false,
      "inputs": [
        {
          "indexed": true,
          "internalType": "address",
          "name": "studio",
          "type": "address"
        }
      ],
      "name": "StudioAdded",
      "type": "event"
    },
    {
      "anonymous": false,
      "inputs": [
        {
          "indexed": true,
          "internalType": "address",
          "name": "studio",
          "type": "address"
        }
      ],
      "name": "StudioRemoved",
      "type": "event"
    },
    {
      "anonymous": false,
      "inputs": [
        {
          "indexed": true,
          "internalType": "uint256",
          "name": "tokenId",
          "type": "uint256"
        },
        {
          "indexed": true,
          "internalType": "address",
          "name": "_to",
          "type": "address"
        }
      ],
      "name": "TokenMinted",
      "type": "event"
    },
    {
      "anonymous": false,
      "inputs": [
        {
          "indexed": true,
          "internalType": "address",
          "name": "from",
          "type": "address"
        },
        {
          "indexed": true,
          "internalType": "address",
          "name": "to",
          "type": "address"
        },
        {
          "indexed": true,
          "internalType": "uint256",
          "name": "tokenId",
          "type": "uint256"
        }
      ],
      "name": "Transfer",
      "type": "event"
    },
    {
      "inputs": [
        {
          "internalType": "address",
          "name": "_studio",
          "type": "address"
        }
      ],
      "name": "addStudio",
      "outputs": [],
      "stateMutability": "nonpayable",
      "type": "function"
    },
    {
      "inputs": [
        {
          "internalType": "address",
          "name": "to",
          "type": "address"
        },
        {
          "internalType": "uint256",
          "name": "tokenId",
          "type": "uint256"
        }
      ],
      "name": "approve",
      "outputs": [],
      "stateMutability": "nonpayable",
      "type": "function"
    },
    {
      "inputs": [
        {
          "internalType": "address",
          "name": "owner",
          "type": "address"
        }
      ],
      "name": "balanceOf",
      "outputs": [
        {
          "internalType": "uint256",
          "name": "",
          "type": "uint256"
        }
      ],
      "stateMutability": "view",
      "type": "function"
    },
    {
      "inputs": [
        {
          "internalType": "address",
          "name": "_studio",
          "type": "address"
        },
        {
          "internalType": "uint256",
          "name": "_maxSupply",
          "type": "uint256"
        }
      ],
      "name": "createProject",
      "outputs": [
        {
          "internalType": "uint256",
          "name": "projectId",
          "type": "uint256"
        }
      ],
      "stateMutability": "nonpayable",
      "type": "function"
    },
    {
      "inputs": [
        {
          "internalType": "uint256",
          "name": "tokenId",
          "type": "uint256"
        }
      ],
      "name": "getApproved",
      "outputs": [
        {
          "internalType": "address",
          "name": "",
          "type": "address"
        }
      ],
      "stateMutability": "view",
      "type": "function"
    },
    {
      "inputs": [
        {
          "internalType": "uint256",
          "name": "_tokenId",
          "type": "uint256"
        }
      ],
      "name": "getIsTokenWrapped",
      "outputs": [
        {
          "internalType": "bool",
          "name": "",
          "type": "bool"
        }
      ],
      "stateMutability": "view",
      "type": "function"
    },
    {
      "inputs": [
        {
          "internalType": "uint256",
          "name": "_tokenId",
          "type": "uint256"
        }
      ],
      "name": "getProjectElementCategoryValues",
      "outputs": [
        {
          "internalType": "string[]",
          "name": "",
          "type": "string[]"
        }
      ],
      "stateMutability": "view",
      "type": "function"
    },
    {
      "inputs": [
        {
          "internalType": "uint256",
          "name": "canvasId",
          "type": "uint256"
        }
      ],
      "name": "getProjectIdFromCanvasId",
      "outputs": [
        {
          "internalType": "uint256",
          "name": "projectId",
          "type": "uint256"
        }
      ],
      "stateMutability": "pure",
      "type": "function"
    },
    {
      "inputs": [
        {
          "internalType": "uint256",
          "name": "_projectId",
          "type": "uint256"
        }
      ],
      "name": "getProjectMaxSupply",
      "outputs": [
        {
          "internalType": "uint256",
          "name": "",
          "type": "uint256"
        }
      ],
      "stateMutability": "view",
      "type": "function"
    },
    {
      "inputs": [
        {
          "internalType": "uint256",
          "name": "_projectId",
          "type": "uint256"
        }
      ],
      "name": "getProjectSupply",
      "outputs": [
        {
          "internalType": "uint256",
          "name": "",
          "type": "uint256"
        }
      ],
      "stateMutability": "view",
      "type": "function"
    },
    {
      "inputs": [
        {
          "internalType": "uint256",
          "name": "_tokenId",
          "type": "uint256"
        }
      ],
      "name": "getTokenElementCategoryLabels",
      "outputs": [
        {
          "internalType": "string[]",
          "name": "",
          "type": "string[]"
        }
      ],
      "stateMutability": "view",
      "type": "function"
    },
    {
      "inputs": [
        {
          "internalType": "uint256",
          "name": "_tokenId",
          "type": "uint256"
        }
      ],
      "name": "getTokenElementLabels",
      "outputs": [
        {
          "internalType": "string[]",
          "name": "",
          "type": "string[]"
        }
      ],
      "stateMutability": "view",
      "type": "function"
    },
    {
      "inputs": [
        {
          "internalType": "uint256",
          "name": "_tokenId",
          "type": "uint256"
        }
      ],
      "name": "getTokenElementValues",
      "outputs": [
        {
          "internalType": "string[]",
          "name": "",
          "type": "string[]"
        }
      ],
      "stateMutability": "view",
      "type": "function"
    },
    {
      "inputs": [
        {
          "internalType": "uint256",
          "name": "_tokenId",
          "type": "uint256"
        }
      ],
      "name": "getTokenHash",
      "outputs": [
        {
          "internalType": "bytes32",
          "name": "",
          "type": "bytes32"
        }
      ],
      "stateMutability": "view",
      "type": "function"
    },
    {
      "inputs": [
        {
          "internalType": "address",
          "name": "owner",
          "type": "address"
        },
        {
          "internalType": "address",
          "name": "operator",
          "type": "address"
        }
      ],
      "name": "isApprovedForAll",
      "outputs": [
        {
          "internalType": "bool",
          "name": "",
          "type": "bool"
        }
      ],
      "stateMutability": "view",
      "type": "function"
    },
    {
      "inputs": [
        {
          "internalType": "uint256",
          "name": "_projectId",
          "type": "uint256"
        },
        {
          "internalType": "address",
          "name": "_to",
          "type": "address"
        }
      ],
      "name": "mint",
      "outputs": [
        {
          "internalType": "uint256",
          "name": "_tokenId",
          "type": "uint256"
        }
      ],
      "stateMutability": "nonpayable",
      "type": "function"
    },
    {
      "inputs": [],
      "name": "name",
      "outputs": [
        {
          "internalType": "string",
          "name": "",
          "type": "string"
        }
      ],
      "stateMutability": "view",
      "type": "function"
    },
    {
      "inputs": [],
      "name": "owner",
      "outputs": [
        {
          "internalType": "address",
          "name": "",
          "type": "address"
        }
      ],
      "stateMutability": "view",
      "type": "function"
    },
    {
      "inputs": [
        {
          "internalType": "uint256",
          "name": "tokenId",
          "type": "uint256"
        }
      ],
      "name": "ownerOf",
      "outputs": [
        {
          "internalType": "address",
          "name": "",
          "type": "address"
        }
      ],
      "stateMutability": "view",
      "type": "function"
    },
    {
      "inputs": [
        {
          "internalType": "uint256",
          "name": "",
          "type": "uint256"
        }
      ],
      "name": "projects",
      "outputs": [
        {
          "internalType": "address",
          "name": "studio",
          "type": "address"
        },
        {
          "internalType": "uint256",
          "name": "supply",
          "type": "uint256"
        },
        {
          "internalType": "uint256",
          "name": "maxSupply",
          "type": "uint256"
        }
      ],
      "stateMutability": "view",
      "type": "function"
    },
    {
      "inputs": [
        {
          "internalType": "address",
          "name": "_studio",
          "type": "address"
        }
      ],
      "name": "removeStudio",
      "outputs": [],
      "stateMutability": "nonpayable",
      "type": "function"
    },
    {
      "inputs": [],
      "name": "renounceOwnership",
      "outputs": [],
      "stateMutability": "nonpayable",
      "type": "function"
    },
    {
      "inputs": [
        {
          "internalType": "address",
          "name": "from",
          "type": "address"
        },
        {
          "internalType": "address",
          "name": "to",
          "type": "address"
        },
        {
          "internalType": "uint256",
          "name": "tokenId",
          "type": "uint256"
        }
      ],
      "name": "safeTransferFrom",
      "outputs": [],
      "stateMutability": "nonpayable",
      "type": "function"
    },
    {
      "inputs": [
        {
          "internalType": "address",
          "name": "from",
          "type": "address"
        },
        {
          "internalType": "address",
          "name": "to",
          "type": "address"
        },
        {
          "internalType": "uint256",
          "name": "tokenId",
          "type": "uint256"
        },
        {
          "internalType": "bytes",
          "name": "_data",
          "type": "bytes"
        }
      ],
      "name": "safeTransferFrom",
      "outputs": [],
      "stateMutability": "nonpayable",
      "type": "function"
    },
    {
      "inputs": [
        {
          "internalType": "address",
          "name": "operator",
          "type": "address"
        },
        {
          "internalType": "bool",
          "name": "approved",
          "type": "bool"
        }
      ],
      "name": "setApprovalForAll",
      "outputs": [],
      "stateMutability": "nonpayable",
      "type": "function"
    },
    {
      "inputs": [
        {
          "internalType": "address",
          "name": "",
          "type": "address"
        }
      ],
      "name": "studios",
      "outputs": [
        {
          "internalType": "bool",
          "name": "",
          "type": "bool"
        }
      ],
      "stateMutability": "view",
      "type": "function"
    },
    {
      "inputs": [
        {
          "internalType": "bytes4",
          "name": "interfaceId",
          "type": "bytes4"
        }
      ],
      "name": "supportsInterface",
      "outputs": [
        {
          "internalType": "bool",
          "name": "",
          "type": "bool"
        }
      ],
      "stateMutability": "view",
      "type": "function"
    },
    {
      "inputs": [],
      "name": "symbol",
      "outputs": [
        {
          "internalType": "string",
          "name": "",
          "type": "string"
        }
      ],
      "stateMutability": "view",
      "type": "function"
    },
    {
      "inputs": [
        {
          "internalType": "uint256",
          "name": "_tokenId",
          "type": "uint256"
        }
      ],
      "name": "tokenURI",
      "outputs": [
        {
          "internalType": "string",
          "name": "",
          "type": "string"
        }
      ],
      "stateMutability": "view",
      "type": "function"
    },
    {
      "inputs": [
        {
          "internalType": "address",
          "name": "from",
          "type": "address"
        },
        {
          "internalType": "address",
          "name": "to",
          "type": "address"
        },
        {
          "internalType": "uint256",
          "name": "tokenId",
          "type": "uint256"
        }
      ],
      "name": "transferFrom",
      "outputs": [],
      "stateMutability": "nonpayable",
      "type": "function"
    },
    {
      "inputs": [
        {
          "internalType": "address",
          "name": "newOwner",
          "type": "address"
        }
      ],
      "name": "transferOwnership",
      "outputs": [],
      "stateMutability": "nonpayable",
      "type": "function"
    }
  ],
  "transactionHash": "0x459164a20783718898259e285df02cca7fecc325507298ca465af1d89417661f",
  "args": [
    "0x7930DdA80157Fcc47ba9c3836398c82d89C16416"
  ],
  "numDeployments": 1,
  "solcInputHash": "5c54aa32bb205f1dc5b410cb7af9fc35",
  "bytecode": "0x608060405260016007553480156200001657600080fd5b506040516200215a3803806200215a833981016040819052620000399162000131565b6040518060400160405280601681526020017f496e7472696e7369632e6172742043616e7661736573000000000000000000008152506040518060400160405280600481526020016324a72a2960e11b81525081600090816200009d919062000208565b506001620000ac828262000208565b505050620000c9620000c3620000db60201b60201c565b620000df565b620000d481620000df565b50620002d4565b3390565b600680546001600160a01b038381166001600160a01b0319831681179093556040519116919082907f8be0079c531659141344cd1fd0a4f28419497f9722a3daafe3b4186f6b6457e090600090a35050565b6000602082840312156200014457600080fd5b81516001600160a01b03811681146200015c57600080fd5b9392505050565b634e487b7160e01b600052604160045260246000fd5b600181811c908216806200018e57607f821691505b602082108103620001af57634e487b7160e01b600052602260045260246000fd5b50919050565b601f8211156200020357600081815260208120601f850160051c81016020861015620001de5750805b601f850160051c820191505b81811015620001ff57828155600101620001ea565b5050505b505050565b81516001600160401b0381111562000224576200022462000163565b6200023c8162000235845462000179565b84620001b5565b602080601f8311600181146200027457600084156200025b5750858301515b600019600386901b1c1916600185901b178555620001ff565b600085815260208120601f198616915b82811015620002a55788860151825594840194600190910190840162000284565b5085821015620002c45787850151600019600388901b60f8161c191681555b5050505050600190811b01905550565b611e7680620002e46000396000f3fe608060405234801561001057600080fd5b50600436106101e55760003560e01c8063777017cf1161010f578063a22cb465116100a2578063e509d93711610071578063e509d9371461049a578063e82d6572146104ad578063e985e9c5146104c0578063f2fde38b146104d357600080fd5b8063a22cb4651461044e578063b5c79a8b14610461578063b88d4fde14610474578063c87b56dd1461048757600080fd5b80639116ce7f116100de5780639116ce7f146103fd57806394bf804d1461042057806395d89b4114610433578063a0cc0dc51461043b57600080fd5b8063777017cf146103a65780638343ada9146103c65780638c57731b146103d95780638da5cb5b146103ec57600080fd5b8063326b4eba11610187578063572881351161015657806357288135146103555780636352211e1461037857806370a082311461038b578063715018a61461039e57600080fd5b8063326b4eba146102eb578063341d1eb7146102fe57806340c2846b1461032f57806342842e0e1461034257600080fd5b8063095ea7b3116101c3578063095ea7b314610252578063107046bd1461026757806323b872dd146102c55780632ab927b4146102d857600080fd5b806301ffc9a7146101ea57806306fdde0314610212578063081812fc14610227575b600080fd5b6101fd6101f8366004611786565b6104e6565b60405190151581526020015b60405180910390f35b61021a610538565b60405161020991906117f3565b61023a610235366004611806565b6105ca565b6040516001600160a01b039091168152602001610209565b61026561026036600461183b565b610664565b005b6102a0610275366004611806565b6008602052600090815260409020805460018201546002909201546001600160a01b03909116919083565b604080516001600160a01b039094168452602084019290925290820152606001610209565b6102656102d3366004611865565b610779565b6102656102e63660046118a1565b6107aa565b6102656102f93660046118a1565b610820565b61032161030c366004611806565b60009081526008602052604090206001015490565b604051908152602001610209565b61032161033d366004611806565b610893565b610265610350366004611865565b6108a2565b6101fd6103633660046118a1565b60096020526000908152604090205460ff1681565b61023a610386366004611806565b6108bd565b6103216103993660046118a1565b610934565b6102656109bb565b6103b96103b4366004611806565b6109f1565b60405161020991906118bc565b6103b96103d4366004611806565b610a81565b6101fd6103e7366004611806565b610b15565b6006546001600160a01b031661023a565b61032161040b366004611806565b60009081526008602052604090206002015490565b61032161042e36600461191e565b610ba0565b61021a610ccc565b610321610449366004611806565b610cdb565b61026561045c366004611958565b610d66565b6103b961046f366004611806565b610d75565b6102656104823660046119fe565b610dc4565b61021a610495366004611806565b610dfc565b6103b96104a8366004611806565b610e8b565b6103216104bb36600461183b565b610ed7565b6101fd6104ce366004611aa9565b610fe3565b6102656104e13660046118a1565b611011565b60006001600160e01b031982166380ac58cd60e01b148061051757506001600160e01b03198216635b5e139f60e01b145b8061053257506301ffc9a760e01b6001600160e01b03198316145b92915050565b60606000805461054790611ad3565b80601f016020809104026020016040519081016040528092919081815260200182805461057390611ad3565b80156105c05780601f10610595576101008083540402835291602001916105c0565b820191906000526020600020905b8154815290600101906020018083116105a357829003601f168201915b5050505050905090565b6000818152600260205260408120546001600160a01b03166106485760405162461bcd60e51b815260206004820152602c60248201527f4552433732313a20617070726f76656420717565727920666f72206e6f6e657860448201526b34b9ba32b73a103a37b5b2b760a11b60648201526084015b60405180910390fd5b506000908152600460205260409020546001600160a01b031690565b600061066f826108bd565b9050806001600160a01b0316836001600160a01b0316036106dc5760405162461bcd60e51b815260206004820152602160248201527f4552433732313a20617070726f76616c20746f2063757272656e74206f776e656044820152603960f91b606482015260840161063f565b336001600160a01b03821614806106f857506106f88133610fe3565b61076a5760405162461bcd60e51b815260206004820152603860248201527f4552433732313a20617070726f76652063616c6c6572206973206e6f74206f7760448201527f6e6572206e6f7220617070726f76656420666f7220616c6c0000000000000000606482015260840161063f565b61077483836110ac565b505050565b610783338261111a565b61079f5760405162461bcd60e51b815260040161063f90611b0d565b6107748383836111f1565b6006546001600160a01b031633146107d45760405162461bcd60e51b815260040161063f90611b5e565b6001600160a01b038116600081815260096020526040808220805460ff19166001179055517fbfb65c1c1966bf1a66b04a75bb6988b3190cbd63772b43312f4e2145fd25654f9190a250565b6006546001600160a01b0316331461084a5760405162461bcd60e51b815260040161063f90611b5e565b6001600160a01b038116600081815260096020526040808220805460ff19169055517fd98640ff7554d65559fe239bd506c87e3eaa5b4c37dec5d07decaa4e2df8c8e19190a250565b6000610532620f424083611ba9565b61077483838360405180602001604052806000815250610dc4565b6000818152600260205260408120546001600160a01b0316806105325760405162461bcd60e51b815260206004820152602960248201527f4552433732313a206f776e657220717565727920666f72206e6f6e657869737460448201526832b73a103a37b5b2b760b91b606482015260840161063f565b60006001600160a01b03821661099f5760405162461bcd60e51b815260206004820152602a60248201527f4552433732313a2062616c616e636520717565727920666f7220746865207a65604482015269726f206164647265737360b01b606482015260840161063f565b506001600160a01b031660009081526003602052604090205490565b6006546001600160a01b031633146109e55760405162461bcd60e51b815260040161063f90611b5e565b6109ef600061138d565b565b606060086000610a0084610893565b8152602081019190915260409081016000205490516320b398ed60e11b8152600481018490526001600160a01b039091169063416731da906024015b600060405180830381865afa158015610a59573d6000803e3d6000fd5b505050506040513d6000823e601f3d908101601f191682016040526105329190810190611c10565b60606000610a8e83610893565b60008181526008602052604090819020549051638343ada960e01b8152600481018390529192506001600160a01b031690638343ada9906024015b600060405180830381865afa158015610ae6573d6000803e3d6000fd5b505050506040513d6000823e601f3d908101601f19168201604052610b0e9190810190611c10565b9392505050565b600060086000610b2484610893565b815260208101919091526040908101600020549051630effcffd60e01b8152600481018490526001600160a01b0390911690630effcffd90602401602060405180830381865afa158015610b7c573d6000803e3d6000fd5b505050506040513d601f19601f820116820180604052508101906105329190611cd3565b6000828152600860205260408120546001600160a01b03163314610bec5760405162461bcd60e51b815260206004820152600360248201526243303360e81b604482015260640161063f565b6000838152600860205260409020600281015460019091015410610c385760405162461bcd60e51b815260206004820152600360248201526210cc0d60ea1b604482015260640161063f565b600083815260086020526040902060010154610c5784620f4240611cf0565b610c619190611d07565b6000848152600860205260408120600101805492935090610c8183611d1a565b9190505550610c9082826113df565b6040516001600160a01b0383169082907f3a5398bda6f1f57d6c96834fa9bf02b5517bdc847d14312015a917ba421c31c990600090a392915050565b60606001805461054790611ad3565b600060086000610cea84610893565b81526020810191909152604090810160002054905163804f692960e01b8152600481018490526001600160a01b039091169063804f692990602401602060405180830381865afa158015610d42573d6000803e3d6000fd5b505050506040513d601f19601f820116820180604052508101906105329190611d33565b610d713383836113f9565b5050565b606060086000610d8484610893565b81526020810191909152604090810160002054905163664f4b2b60e11b8152600481018490526001600160a01b039091169063cc9e965690602401610a3c565b610dce338361111a565b610dea5760405162461bcd60e51b815260040161063f90611b0d565b610df6848484846114c7565b50505050565b606060086000610e0b84610893565b8152602081019190915260409081016000205490516305d3870f60e11b8152600481018490526001600160a01b0390911690630ba70e1e90602401600060405180830381865afa158015610e63573d6000803e3d6000fd5b505050506040513d6000823e601f3d908101601f191682016040526105329190810190611d4c565b60606000610e9883610893565b60008181526008602052604090819020549051636811a3f760e01b8152600481018390529192506001600160a01b031690636811a3f790602401610ac9565b3360009081526009602052604081205460ff16610f1c5760405162461bcd60e51b815260206004820152600360248201526243303160e81b604482015260640161063f565b620f42408210610f545760405162461bcd60e51b815260206004820152600360248201526221981960e91b604482015260640161063f565b5060078054600081815260086020526040812080546001600160a01b0319166001600160a01b0387161781556002018490558254919290610f9483611d1a565b9190505550826001600160a01b0316817f1b9d0946c0a6f3b3a57782ad25a4553bd5bcf1f1a252068eafc757670aad573a84604051610fd591815260200190565b60405180910390a392915050565b6001600160a01b03918216600090815260056020908152604080832093909416825291909152205460ff1690565b6006546001600160a01b0316331461103b5760405162461bcd60e51b815260040161063f90611b5e565b6001600160a01b0381166110a05760405162461bcd60e51b815260206004820152602660248201527f4f776e61626c653a206e6577206f776e657220697320746865207a65726f206160448201526564647265737360d01b606482015260840161063f565b6110a98161138d565b50565b600081815260046020526040902080546001600160a01b0319166001600160a01b03841690811790915581906110e1826108bd565b6001600160a01b03167f8c5be1e5ebec7d5bd14f71427d1e84f3dd0314c0f7b2291e5b200ac8c7c3b92560405160405180910390a45050565b6000818152600260205260408120546001600160a01b03166111935760405162461bcd60e51b815260206004820152602c60248201527f4552433732313a206f70657261746f7220717565727920666f72206e6f6e657860448201526b34b9ba32b73a103a37b5b2b760a11b606482015260840161063f565b600061119e836108bd565b9050806001600160a01b0316846001600160a01b031614806111d95750836001600160a01b03166111ce846105ca565b6001600160a01b0316145b806111e957506111e98185610fe3565b949350505050565b826001600160a01b0316611204826108bd565b6001600160a01b0316146112685760405162461bcd60e51b815260206004820152602560248201527f4552433732313a207472616e736665722066726f6d20696e636f72726563742060448201526437bbb732b960d91b606482015260840161063f565b6001600160a01b0382166112ca5760405162461bcd60e51b8152602060048201526024808201527f4552433732313a207472616e7366657220746f20746865207a65726f206164646044820152637265737360e01b606482015260840161063f565b6112d56000826110ac565b6001600160a01b03831660009081526003602052604081208054600192906112fe908490611d81565b90915550506001600160a01b038216600090815260036020526040812080546001929061132c908490611d07565b909155505060008181526002602052604080822080546001600160a01b0319166001600160a01b0386811691821790925591518493918716917fddf252ad1be2c89b69c2b068fc378daa952ba7f163c4a11628f55a4df523b3ef91a4505050565b600680546001600160a01b038381166001600160a01b0319831681179093556040519116919082907f8be0079c531659141344cd1fd0a4f28419497f9722a3daafe3b4186f6b6457e090600090a35050565b610d718282604051806020016040528060008152506114fa565b816001600160a01b0316836001600160a01b03160361145a5760405162461bcd60e51b815260206004820152601960248201527f4552433732313a20617070726f766520746f2063616c6c657200000000000000604482015260640161063f565b6001600160a01b03838116600081815260056020908152604080832094871680845294825291829020805460ff191686151590811790915591519182527f17307eab39ab6107e8899845ad3d59bd9653f200f220920489ca2b5937696c31910160405180910390a3505050565b6114d28484846111f1565b6114de8484848461152d565b610df65760405162461bcd60e51b815260040161063f90611d94565b611504838361162e565b611511600084848461152d565b6107745760405162461bcd60e51b815260040161063f90611d94565b60006001600160a01b0384163b1561162357604051630a85bd0160e11b81526001600160a01b0385169063150b7a0290611571903390899088908890600401611de6565b6020604051808303816000875af19250505080156115ac575060408051601f3d908101601f191682019092526115a991810190611e23565b60015b611609573d8080156115da576040519150601f19603f3d011682016040523d82523d6000602084013e6115df565b606091505b5080516000036116015760405162461bcd60e51b815260040161063f90611d94565b805181602001fd5b6001600160e01b031916630a85bd0160e11b1490506111e9565b506001949350505050565b6001600160a01b0382166116845760405162461bcd60e51b815260206004820181905260248201527f4552433732313a206d696e7420746f20746865207a65726f2061646472657373604482015260640161063f565b6000818152600260205260409020546001600160a01b0316156116e95760405162461bcd60e51b815260206004820152601c60248201527f4552433732313a20746f6b656e20616c7265616479206d696e74656400000000604482015260640161063f565b6001600160a01b0382166000908152600360205260408120805460019290611712908490611d07565b909155505060008181526002602052604080822080546001600160a01b0319166001600160a01b03861690811790915590518392907fddf252ad1be2c89b69c2b068fc378daa952ba7f163c4a11628f55a4df523b3ef908290a45050565b6001600160e01b0319811681146110a957600080fd5b60006020828403121561179857600080fd5b8135610b0e81611770565b60005b838110156117be5781810151838201526020016117a6565b50506000910152565b600081518084526117df8160208601602086016117a3565b601f01601f19169290920160200192915050565b602081526000610b0e60208301846117c7565b60006020828403121561181857600080fd5b5035919050565b80356001600160a01b038116811461183657600080fd5b919050565b6000806040838503121561184e57600080fd5b6118578361181f565b946020939093013593505050565b60008060006060848603121561187a57600080fd5b6118838461181f565b92506118916020850161181f565b9150604084013590509250925092565b6000602082840312156118b357600080fd5b610b0e8261181f565b6000602080830181845280855180835260408601915060408160051b870101925083870160005b8281101561191157603f198886030184526118ff8583516117c7565b945092850192908501906001016118e3565b5092979650505050505050565b6000806040838503121561193157600080fd5b823591506119416020840161181f565b90509250929050565b80151581146110a957600080fd5b6000806040838503121561196b57600080fd5b6119748361181f565b915060208301356119848161194a565b809150509250929050565b634e487b7160e01b600052604160045260246000fd5b604051601f8201601f1916810167ffffffffffffffff811182821017156119ce576119ce61198f565b604052919050565b600067ffffffffffffffff8211156119f0576119f061198f565b50601f01601f191660200190565b60008060008060808587031215611a1457600080fd5b611a1d8561181f565b9350611a2b6020860161181f565b925060408501359150606085013567ffffffffffffffff811115611a4e57600080fd5b8501601f81018713611a5f57600080fd5b8035611a72611a6d826119d6565b6119a5565b818152886020838501011115611a8757600080fd5b8160208401602083013760006020838301015280935050505092959194509250565b60008060408385031215611abc57600080fd5b611ac58361181f565b91506119416020840161181f565b600181811c90821680611ae757607f821691505b602082108103611b0757634e487b7160e01b600052602260045260246000fd5b50919050565b60208082526031908201527f4552433732313a207472616e736665722063616c6c6572206973206e6f74206f6040820152701ddb995c881b9bdc88185c1c1c9bdd9959607a1b606082015260800190565b6020808252818101527f4f776e61626c653a2063616c6c6572206973206e6f7420746865206f776e6572604082015260600190565b634e487b7160e01b600052601160045260246000fd5b600082611bc657634e487b7160e01b600052601260045260246000fd5b500490565b600082601f830112611bdc57600080fd5b8151611bea611a6d826119d6565b818152846020838601011115611bff57600080fd5b6111e98260208301602087016117a3565b60006020808385031215611c2357600080fd5b825167ffffffffffffffff80821115611c3b57600080fd5b818501915085601f830112611c4f57600080fd5b815181811115611c6157611c6161198f565b8060051b611c708582016119a5565b9182528381018501918581019089841115611c8a57600080fd5b86860192505b83831015611cc657825185811115611ca85760008081fd5b611cb68b89838a0101611bcb565b8352509186019190860190611c90565b9998505050505050505050565b600060208284031215611ce557600080fd5b8151610b0e8161194a565b808202811582820484141761053257610532611b93565b8082018082111561053257610532611b93565b600060018201611d2c57611d2c611b93565b5060010190565b600060208284031215611d4557600080fd5b5051919050565b600060208284031215611d5e57600080fd5b815167ffffffffffffffff811115611d7557600080fd5b6111e984828501611bcb565b8181038181111561053257610532611b93565b60208082526032908201527f4552433732313a207472616e7366657220746f206e6f6e20455243373231526560408201527131b2b4bb32b91034b6b83632b6b2b73a32b960711b606082015260800190565b6001600160a01b0385811682528416602082015260408101839052608060608201819052600090611e19908301846117c7565b9695505050505050565b600060208284031215611e3557600080fd5b8151610b0e8161177056fea2646970667358221220ac0795ac2a9abee508472570ca4b517202c3704a9b909547d3e81f1cf792cef264736f6c63430008110033",
  "devdoc": {
    "kind": "dev",
    "methods": {
      "approve(address,uint256)": {
        "details": "See {IERC721-approve}."
      },
      "balanceOf(address)": {
        "details": "See {IERC721-balanceOf}."
      },
      "getApproved(uint256)": {
        "details": "See {IERC721-getApproved}."
      },
      "isApprovedForAll(address,address)": {
        "details": "See {IERC721-isApprovedForAll}."
      },
      "name()": {
        "details": "See {IERC721Metadata-name}."
      },
      "owner()": {
        "details": "Returns the address of the current owner."
      },
      "ownerOf(uint256)": {
        "details": "See {IERC721-ownerOf}."
      },
      "renounceOwnership()": {
        "details": "Leaves the contract without owner. It will not be possible to call `onlyOwner` functions anymore. Can only be called by the current owner. NOTE: Renouncing ownership will leave the contract without an owner, thereby removing any functionality that is only available to the owner."
      },
      "safeTransferFrom(address,address,uint256)": {
        "details": "See {IERC721-safeTransferFrom}."
      },
      "safeTransferFrom(address,address,uint256,bytes)": {
        "details": "See {IERC721-safeTransferFrom}."
      },
      "setApprovalForAll(address,bool)": {
        "details": "See {IERC721-setApprovalForAll}."
      },
      "supportsInterface(bytes4)": {
        "details": "See {IERC165-supportsInterface}."
      },
      "symbol()": {
        "details": "See {IERC721Metadata-symbol}."
      },
      "transferFrom(address,address,uint256)": {
        "details": "See {IERC721-transferFrom}."
      },
      "transferOwnership(address)": {
        "details": "Transfers ownership of the contract to a new account (`newOwner`). Can only be called by the current owner."
      }
    },
    "version": 1
  },
  "userdoc": {
    "kind": "user",
    "methods": {},
    "version": 1
  },
  "storageLayout": {
    "storage": [
      {
        "astId": 2680,
        "contract": "contracts/Canvas.sol:Canvas",
        "label": "_name",
        "offset": 0,
        "slot": "0",
        "type": "t_string_storage"
      },
      {
        "astId": 2682,
        "contract": "contracts/Canvas.sol:Canvas",
        "label": "_symbol",
        "offset": 0,
        "slot": "1",
        "type": "t_string_storage"
      },
      {
        "astId": 2686,
        "contract": "contracts/Canvas.sol:Canvas",
        "label": "_owners",
        "offset": 0,
        "slot": "2",
        "type": "t_mapping(t_uint256,t_address)"
      },
      {
        "astId": 2690,
        "contract": "contracts/Canvas.sol:Canvas",
        "label": "_balances",
        "offset": 0,
        "slot": "3",
        "type": "t_mapping(t_address,t_uint256)"
      },
      {
        "astId": 2694,
        "contract": "contracts/Canvas.sol:Canvas",
        "label": "_tokenApprovals",
        "offset": 0,
        "slot": "4",
        "type": "t_mapping(t_uint256,t_address)"
      },
      {
        "astId": 2700,
        "contract": "contracts/Canvas.sol:Canvas",
        "label": "_operatorApprovals",
        "offset": 0,
        "slot": "5",
        "type": "t_mapping(t_address,t_mapping(t_address,t_bool))"
      },
      {
        "astId": 7,
        "contract": "contracts/Canvas.sol:Canvas",
        "label": "_owner",
        "offset": 0,
        "slot": "6",
        "type": "t_address"
      },
      {
        "astId": 4306,
        "contract": "contracts/Canvas.sol:Canvas",
        "label": "nextProjectId",
        "offset": 0,
        "slot": "7",
        "type": "t_uint256"
      },
      {
        "astId": 4311,
        "contract": "contracts/Canvas.sol:Canvas",
        "label": "projects",
        "offset": 0,
        "slot": "8",
        "type": "t_mapping(t_uint256,t_struct(ProjectData)4303_storage)"
      },
      {
        "astId": 4315,
        "contract": "contracts/Canvas.sol:Canvas",
        "label": "studios",
        "offset": 0,
        "slot": "9",
        "type": "t_mapping(t_address,t_bool)"
      }
    ],
    "types": {
      "t_address": {
        "encoding": "inplace",
        "label": "address",
        "numberOfBytes": "20"
      },
      "t_bool": {
        "encoding": "inplace",
        "label": "bool",
        "numberOfBytes": "1"
      },
      "t_mapping(t_address,t_bool)": {
        "encoding": "mapping",
        "key": "t_address",
        "label": "mapping(address => bool)",
        "numberOfBytes": "32",
        "value": "t_bool"
      },
      "t_mapping(t_address,t_mapping(t_address,t_bool))": {
        "encoding": "mapping",
        "key": "t_address",
        "label": "mapping(address => mapping(address => bool))",
        "numberOfBytes": "32",
        "value": "t_mapping(t_address,t_bool)"
      },
      "t_mapping(t_address,t_uint256)": {
        "encoding": "mapping",
        "key": "t_address",
        "label": "mapping(address => uint256)",
        "numberOfBytes": "32",
        "value": "t_uint256"
      },
      "t_mapping(t_uint256,t_address)": {
        "encoding": "mapping",
        "key": "t_uint256",
        "label": "mapping(uint256 => address)",
        "numberOfBytes": "32",
        "value": "t_address"
      },
      "t_mapping(t_uint256,t_struct(ProjectData)4303_storage)": {
        "encoding": "mapping",
        "key": "t_uint256",
        "label": "mapping(uint256 => struct Canvas.ProjectData)",
        "numberOfBytes": "32",
        "value": "t_struct(ProjectData)4303_storage"
      },
      "t_string_storage": {
        "encoding": "bytes",
        "label": "string",
        "numberOfBytes": "32"
      },
      "t_struct(ProjectData)4303_storage": {
        "encoding": "inplace",
        "label": "struct Canvas.ProjectData",
        "members": [
          {
            "astId": 4298,
            "contract": "contracts/Canvas.sol:Canvas",
            "label": "studio",
            "offset": 0,
            "slot": "0",
            "type": "t_address"
          },
          {
            "astId": 4300,
            "contract": "contracts/Canvas.sol:Canvas",
            "label": "supply",
            "offset": 0,
            "slot": "1",
            "type": "t_uint256"
          },
          {
            "astId": 4302,
            "contract": "contracts/Canvas.sol:Canvas",
            "label": "maxSupply",
            "offset": 0,
            "slot": "2",
            "type": "t_uint256"
          }
        ],
        "numberOfBytes": "96"
      },
      "t_uint256": {
        "encoding": "inplace",
        "label": "uint256",
        "numberOfBytes": "32"
      }
    }
  }
}