{
  "address": "0x348d467E8dA1D8f98308D5591c26668DA4Aa4CcC",
  "abi": [
    {
      "anonymous": false,
      "inputs": [
        {
          "indexed": true,
          "internalType": "address",
          "name": "recipient",
          "type": "address"
        },
        {
          "indexed": true,
          "internalType": "address",
          "name": "currency",
          "type": "address"
        },
        {
          "indexed": false,
          "internalType": "uint256",
          "name": "claimedRevenue",
          "type": "uint256"
        }
      ],
      "name": "ArtistRevenueClaimed",
      "type": "event"
    },
    {
      "anonymous": false,
      "inputs": [
        {
          "indexed": true,
          "internalType": "address",
          "name": "auctionCreator",
          "type": "address"
        },
        {
          "indexed": true,
          "internalType": "uint256",
          "name": "projectId",
          "type": "uint256"
        },
        {
          "indexed": false,
          "internalType": "uint256",
          "name": "startTime",
          "type": "uint256"
        },
        {
          "indexed": false,
          "internalType": "uint256",
          "name": "endTime",
          "type": "uint256"
        },
        {
          "indexed": false,
          "internalType": "uint256",
          "name": "startPrice",
          "type": "uint256"
        },
        {
          "indexed": false,
          "internalType": "uint256",
          "name": "endPrice",
          "type": "uint256"
        },
        {
          "indexed": true,
          "internalType": "address",
          "name": "artistAddress",
          "type": "address"
        }
      ],
      "name": "AuctionAdded",
      "type": "event"
    },
    {
      "anonymous": false,
      "inputs": [
        {
          "indexed": true,
          "internalType": "uint256",
          "name": "projectId",
          "type": "uint256"
        },
        {
          "indexed": false,
          "internalType": "uint256",
          "name": "quantity",
          "type": "uint256"
        },
        {
          "indexed": false,
          "internalType": "uint256",
          "name": "canvasesTotalPrice",
          "type": "uint256"
        }
      ],
      "name": "CanvasesBought",
      "type": "event"
    },
    {
      "inputs": [
        {
          "internalType": "uint256",
          "name": "_projectId",
          "type": "uint256"
        },
        {
          "components": [
            {
              "internalType": "uint256",
              "name": "startTime",
              "type": "uint256"
            },
            {
              "internalType": "uint256",
              "name": "endTime",
              "type": "uint256"
            },
            {
              "internalType": "uint256",
              "name": "startPrice",
              "type": "uint256"
            },
            {
              "internalType": "uint256",
              "name": "endPrice",
              "type": "uint256"
            },
            {
              "internalType": "address",
              "name": "artistAddress",
              "type": "address"
            },
            {
              "internalType": "address",
              "name": "erc20Token",
              "type": "address"
            }
          ],
          "internalType": "struct IDutchAuction.Auction",
          "name": "_auction",
          "type": "tuple"
        }
      ],
      "name": "addAuction",
      "outputs": [],
      "stateMutability": "nonpayable",
      "type": "function"
    },
    {
      "inputs": [
        {
          "internalType": "address",
          "name": "",
          "type": "address"
        },
        {
          "internalType": "address",
          "name": "",
          "type": "address"
        }
      ],
      "name": "artistToERC20Balances",
      "outputs": [
        {
          "internalType": "uint256",
          "name": "",
          "type": "uint256"
        }
      ],
      "stateMutability": "view",
      "type": "function"
    },
    {
      "inputs": [
        {
          "internalType": "uint256",
          "name": "_projectId",
          "type": "uint256"
        },
        {
          "internalType": "uint256",
          "name": "_quantity",
          "type": "uint256"
        },
        {
          "internalType": "address",
          "name": "_spender",
          "type": "address"
        },
        {
          "internalType": "address",
          "name": "_recipient",
          "type": "address"
        }
      ],
      "name": "buyCanvases",
      "outputs": [
        {
          "internalType": "uint256[]",
          "name": "canvasIds",
          "type": "uint256[]"
        }
      ],
      "stateMutability": "nonpayable",
      "type": "function"
    },
    {
      "inputs": [],
      "name": "canvas",
      "outputs": [
        {
          "internalType": "contract Canvas",
          "name": "",
          "type": "address"
        }
      ],
      "stateMutability": "view",
      "type": "function"
    },
    {
      "inputs": [
        {
          "internalType": "uint256",
          "name": "_projectId",
          "type": "uint256"
        }
      ],
      "name": "getCanvasPrice",
      "outputs": [
        {
          "internalType": "uint256",
          "name": "canvasPrice",
          "type": "uint256"
        }
      ],
      "stateMutability": "view",
      "type": "function"
    },
    {
      "inputs": [
        {
          "internalType": "address",
          "name": "_canvas",
          "type": "address"
        },
        {
          "internalType": "address",
          "name": "_studio",
          "type": "address"
        }
      ],
      "name": "initialize",
      "outputs": [],
      "stateMutability": "nonpayable",
      "type": "function"
    },
    {
      "inputs": [
        {
          "internalType": "uint256",
          "name": "",
          "type": "uint256"
        }
      ],
      "name": "projectIdToAuction",
      "outputs": [
        {
          "internalType": "uint256",
          "name": "startTime",
          "type": "uint256"
        },
        {
          "internalType": "uint256",
          "name": "endTime",
          "type": "uint256"
        },
        {
          "internalType": "uint256",
          "name": "startPrice",
          "type": "uint256"
        },
        {
          "internalType": "uint256",
          "name": "endPrice",
          "type": "uint256"
        },
        {
          "internalType": "address",
          "name": "artistAddress",
          "type": "address"
        },
        {
          "internalType": "address",
          "name": "erc20Token",
          "type": "address"
        }
      ],
      "stateMutability": "view",
      "type": "function"
    },
    {
      "inputs": [],
      "name": "studio",
      "outputs": [
        {
          "internalType": "address",
          "name": "",
          "type": "address"
        }
      ],
      "stateMutability": "view",
      "type": "function"
    }
  ],
  "transactionHash": "0x10feecbaa4c498aef49c678fefd0464563670cc44d8dedade2c4584010817743",
  "args": [],
  "numDeployments": 1,
  "solcInputHash": "3f21846035f568b7b9b3cdcdba7e5c73",
  "bytecode": "0x608060405234801561001057600080fd5b50610f03806100206000396000f3fe608060405234801561001057600080fd5b50600436106100885760003560e01c8063c3696d391161005b578063c3696d391461016e578063ca7ee8a01461018f578063e6734404146101a2578063ea405e76146101cd57600080fd5b8063272ab98a1461008d578063485cc9551461011b5780638051dabc146101305780639b8e9b5e14610143575b600080fd5b6100dd61009b366004610b5d565b60016020819052600091825260409091208054918101546002820154600383015460048401546005909401549293919290916001600160a01b03908116911686565b6040805196875260208701959095529385019290925260608401526001600160a01b0390811660808401521660a082015260c0015b60405180910390f35b61012e610129366004610b8d565b6101ed565b005b61012e61013e366004610bd6565b6102dd565b600254610156906001600160a01b031681565b6040516001600160a01b039091168152602001610112565b61018161017c366004610b5d565b610564565b604051908152602001610112565b600354610156906001600160a01b031681565b6101816101b0366004610b8d565b600460209081526000928352604080842090915290825290205481565b6101e06101db366004610c89565b610654565b6040516101129190610ccf565b600054610100900460ff166102085760005460ff161561020c565b303b155b6102745760405162461bcd60e51b815260206004820152602e60248201527f496e697469616c697a61626c653a20636f6e747261637420697320616c72656160448201526d191e481a5b9a5d1a585b1a5e995960921b60648201526084015b60405180910390fd5b600054610100900460ff16158015610296576000805461ffff19166101011790555b600280546001600160a01b038086166001600160a01b031992831617909255600380549285169290911691909117905580156102d8576000805461ff00191690555b505050565b6003546001600160a01b031633146103075760405162461bcd60e51b815260040161026b90610d13565b6000828152600160205260409020600501546001600160a01b0316156103795760405162461bcd60e51b815260206004820152602160248201527f44757463682041756374696f6e20616c726561647920696e697469616c697a656044820152601960fa1b606482015260840161026b565b8060600151816040015110156103ed5760405162461bcd60e51b815260206004820152603360248201527f5374617274207072696365206d7573742062652067726561746572207468616e604482015272206f7220657175616c20656e6420707269636560681b606482015260840161026b565b80516020820151101561044c5760405162461bcd60e51b815260206004820152602160248201527f456e642074696d65206d7573742062652061667465722073746172742074696d6044820152606560f81b606482015260840161026b565b6040805160c08101825282518152602080840180518284019081528585018051858701908152606080890180519188019182526080808b0180516001600160a01b03908116928b0192835260a0808e01518216908c0190815260008f815260019b8c90528d90209b518c559751998b0199909955935160028a01559151600389015590516004880180549188166001600160a01b03199283161790559351600590970180549787169790941696909617909255905186519251915194519551931694879433947f262e27c3dc827b518b1896b5479f08d2c8ac64c7c7a9887449ba57d3d3cfcabf9461055894909390929193845260208401929092526040830152606082015260800190565b60405180910390a45050565b600081815260016020526040812054421015610590575060009081526001602052604090206002015490565b600082815260016020819052604090912001544211156105c0575060009081526001602052604090206003015490565b600082815260016020819052604090912080549101546105e09190610d78565b600083815260016020526040902060038101546002909101546106039190610d78565b60008481526001602052604090205461061c9042610d78565b6106269190610d8f565b6106309190610dae565b60008381526001602052604090206002015461064c9190610d78565b90505b919050565b6003546060906001600160a01b031633146106815760405162461bcd60e51b815260040161026b90610d13565b8367ffffffffffffffff81111561069a5761069a610bc0565b6040519080825280602002602001820160405280156106c3578160200160208202803683370190505b506000868152600160205260409020549091504210156107255760405162461bcd60e51b815260206004820152601b60248201527f41756374696f6e20686173206e6f742073746172746564207965740000000000604482015260640161026b565b60008461073187610564565b61073b9190610d8f565b600087815260016020526040902060050154909150610765906001600160a01b03168530846108a8565b60005b85811015610816576002546040516394bf804d60e01b8152600481018990526001600160a01b038681166024830152909116906394bf804d906044016020604051808303816000875af11580156107c3573d6000803e3d6000fd5b505050506040513d601f19601f820116820180604052508101906107e79190610dd0565b8382815181106107f9576107f9610de9565b60209081029190910101528061080e81610dff565b915050610768565b5060008681526001602090815260408083206004818101546001600160a01b0390811686529084528285206005909201541684529091528120805483929061085f908490610e18565b9091555050604080518681526020810183905287917fb499eb228d9aff59cd6daa67c5bba887500f8927b8af6e466bb9f5e37f602492910160405180910390a250949350505050565b604080516001600160a01b0385811660248301528416604482015260648082018490528251808303909101815260849091019091526020810180516001600160e01b03166323b872dd60e01b179052610902908590610908565b50505050565b600061095d826040518060400160405280602081526020017f5361666545524332303a206c6f772d6c6576656c2063616c6c206661696c6564815250856001600160a01b03166109da9092919063ffffffff16565b8051909150156102d8578080602001905181019061097b9190610e30565b6102d85760405162461bcd60e51b815260206004820152602a60248201527f5361666545524332303a204552433230206f7065726174696f6e20646964206e6044820152691bdd081cdd58d8d9595960b21b606482015260840161026b565b60606109e984846000856109f3565b90505b9392505050565b606082471015610a545760405162461bcd60e51b815260206004820152602660248201527f416464726573733a20696e73756666696369656e742062616c616e636520666f6044820152651c8818d85b1b60d21b606482015260840161026b565b6001600160a01b0385163b610aab5760405162461bcd60e51b815260206004820152601d60248201527f416464726573733a2063616c6c20746f206e6f6e2d636f6e7472616374000000604482015260640161026b565b600080866001600160a01b03168587604051610ac79190610e7e565b60006040518083038185875af1925050503d8060008114610b04576040519150601f19603f3d011682016040523d82523d6000602084013e610b09565b606091505b5091509150610b19828286610b24565b979650505050505050565b60608315610b335750816109ec565b825115610b435782518084602001fd5b8160405162461bcd60e51b815260040161026b9190610e9a565b600060208284031215610b6f57600080fd5b5035919050565b80356001600160a01b038116811461064f57600080fd5b60008060408385031215610ba057600080fd5b610ba983610b76565b9150610bb760208401610b76565b90509250929050565b634e487b7160e01b600052604160045260246000fd5b60008082840360e0811215610bea57600080fd5b8335925060c0601f1982011215610c0057600080fd5b5060405160c0810181811067ffffffffffffffff82111715610c3257634e487b7160e01b600052604160045260246000fd5b806040525060208401358152604084013560208201526060840135604082015260808401356060820152610c6860a08501610b76565b6080820152610c7960c08501610b76565b60a0820152809150509250929050565b60008060008060808587031215610c9f57600080fd5b8435935060208501359250610cb660408601610b76565b9150610cc460608601610b76565b905092959194509250565b6020808252825182820181905260009190848201906040850190845b81811015610d0757835183529284019291840191600101610ceb565b50909695505050505050565b6020808252602f908201527f4f6e6c79207468652053747564696f20636f6e74726163742063616e2063616c60408201526e36103a3434b990333ab731ba34b7b760891b606082015260800190565b634e487b7160e01b600052601160045260246000fd5b600082821015610d8a57610d8a610d62565b500390565b6000816000190483118215151615610da957610da9610d62565b500290565b600082610dcb57634e487b7160e01b600052601260045260246000fd5b500490565b600060208284031215610de257600080fd5b5051919050565b634e487b7160e01b600052603260045260246000fd5b600060018201610e1157610e11610d62565b5060010190565b60008219821115610e2b57610e2b610d62565b500190565b600060208284031215610e4257600080fd5b815180151581146109ec57600080fd5b60005b83811015610e6d578181015183820152602001610e55565b838111156109025750506000910152565b60008251610e90818460208701610e52565b9190910192915050565b6020815260008251806020840152610eb9816040850160208701610e52565b601f01601f1916919091016040019291505056fea2646970667358221220024df42d832520a576916c792ec4d5b66b483778cab67df30d15402a3d20b70264736f6c634300080d0033",
  "devdoc": {
    "kind": "dev",
    "methods": {},
    "version": 1
  },
  "userdoc": {
    "kind": "user",
    "methods": {},
    "version": 1
  },
  "storageLayout": {
    "storage": [
      {
        "astId": 6,
        "contract": "contracts/DutchAuction.sol:DutchAuction",
        "label": "_initialized",
        "offset": 0,
        "slot": "0",
        "type": "t_bool"
      },
      {
        "astId": 9,
        "contract": "contracts/DutchAuction.sol:DutchAuction",
        "label": "_initializing",
        "offset": 1,
        "slot": "0",
        "type": "t_bool"
      },
      {
        "astId": 5610,
        "contract": "contracts/DutchAuction.sol:DutchAuction",
        "label": "projectIdToAuction",
        "offset": 0,
        "slot": "1",
        "type": "t_mapping(t_uint256,t_struct(Auction)7715_storage)"
      },
      {
        "astId": 5613,
        "contract": "contracts/DutchAuction.sol:DutchAuction",
        "label": "canvas",
        "offset": 0,
        "slot": "2",
        "type": "t_contract(Canvas)5590"
      },
      {
        "astId": 5615,
        "contract": "contracts/DutchAuction.sol:DutchAuction",
        "label": "studio",
        "offset": 0,
        "slot": "3",
        "type": "t_address"
      },
      {
        "astId": 5621,
        "contract": "contracts/DutchAuction.sol:DutchAuction",
        "label": "artistToERC20Balances",
        "offset": 0,
        "slot": "4",
        "type": "t_mapping(t_address,t_mapping(t_address,t_uint256))"
      }
    ],
    "types": {
      "t_address": {
        "encoding": "inplace",
        "label": "address",
        "numberOfBytes": "20"
      },
      "t_bool": {
        "encoding": "inplace",
        "label": "bool",
        "numberOfBytes": "1"
      },
      "t_contract(Canvas)5590": {
        "encoding": "inplace",
        "label": "contract Canvas",
        "numberOfBytes": "20"
      },
      "t_mapping(t_address,t_mapping(t_address,t_uint256))": {
        "encoding": "mapping",
        "key": "t_address",
        "label": "mapping(address => mapping(address => uint256))",
        "numberOfBytes": "32",
        "value": "t_mapping(t_address,t_uint256)"
      },
      "t_mapping(t_address,t_uint256)": {
        "encoding": "mapping",
        "key": "t_address",
        "label": "mapping(address => uint256)",
        "numberOfBytes": "32",
        "value": "t_uint256"
      },
      "t_mapping(t_uint256,t_struct(Auction)7715_storage)": {
        "encoding": "mapping",
        "key": "t_uint256",
        "label": "mapping(uint256 => struct IDutchAuction.Auction)",
        "numberOfBytes": "32",
        "value": "t_struct(Auction)7715_storage"
      },
      "t_struct(Auction)7715_storage": {
        "encoding": "inplace",
        "label": "struct IDutchAuction.Auction",
        "members": [
          {
            "astId": 7704,
            "contract": "contracts/DutchAuction.sol:DutchAuction",
            "label": "startTime",
            "offset": 0,
            "slot": "0",
            "type": "t_uint256"
          },
          {
            "astId": 7706,
            "contract": "contracts/DutchAuction.sol:DutchAuction",
            "label": "endTime",
            "offset": 0,
            "slot": "1",
            "type": "t_uint256"
          },
          {
            "astId": 7708,
            "contract": "contracts/DutchAuction.sol:DutchAuction",
            "label": "startPrice",
            "offset": 0,
            "slot": "2",
            "type": "t_uint256"
          },
          {
            "astId": 7710,
            "contract": "contracts/DutchAuction.sol:DutchAuction",
            "label": "endPrice",
            "offset": 0,
            "slot": "3",
            "type": "t_uint256"
          },
          {
            "astId": 7712,
            "contract": "contracts/DutchAuction.sol:DutchAuction",
            "label": "artistAddress",
            "offset": 0,
            "slot": "4",
            "type": "t_address"
          },
          {
            "astId": 7714,
            "contract": "contracts/DutchAuction.sol:DutchAuction",
            "label": "erc20Token",
            "offset": 0,
            "slot": "5",
            "type": "t_address"
          }
        ],
        "numberOfBytes": "192"
      },
      "t_uint256": {
        "encoding": "inplace",
        "label": "uint256",
        "numberOfBytes": "32"
      }
    }
  }
}