{
  "address": "0x5d98D86877B3430F6AecCC0B0959db42A255C617",
  "abi": [
    {
      "inputs": [
        {
          "internalType": "address",
          "name": "_owner",
          "type": "address"
        }
      ],
      "stateMutability": "nonpayable",
      "type": "constructor"
    },
    {
      "anonymous": false,
      "inputs": [
        {
          "indexed": true,
          "internalType": "address",
          "name": "account",
          "type": "address"
        },
        {
          "indexed": true,
          "internalType": "address",
          "name": "operator",
          "type": "address"
        },
        {
          "indexed": false,
          "internalType": "bool",
          "name": "approved",
          "type": "bool"
        }
      ],
      "name": "ApprovalForAll",
      "type": "event"
    },
    {
      "anonymous": false,
      "inputs": [
        {
          "indexed": true,
          "internalType": "address",
          "name": "studio",
          "type": "address"
        },
        {
          "indexed": true,
          "internalType": "string",
          "name": "label",
          "type": "string"
        },
        {
          "indexed": true,
          "internalType": "string",
          "name": "value",
          "type": "string"
        }
      ],
      "name": "ElementCreated",
      "type": "event"
    },
    {
      "anonymous": false,
      "inputs": [
        {
          "indexed": true,
          "internalType": "address",
          "name": "previousOwner",
          "type": "address"
        },
        {
          "indexed": true,
          "internalType": "address",
          "name": "newOwner",
          "type": "address"
        }
      ],
      "name": "OwnershipTransferred",
      "type": "event"
    },
    {
      "anonymous": false,
      "inputs": [
        {
          "indexed": true,
          "internalType": "address",
          "name": "studio",
          "type": "address"
        }
      ],
      "name": "StudioAdded",
      "type": "event"
    },
    {
      "anonymous": false,
      "inputs": [
        {
          "indexed": true,
          "internalType": "address",
          "name": "studio",
          "type": "address"
        }
      ],
      "name": "StudioRemoved",
      "type": "event"
    },
    {
      "anonymous": false,
      "inputs": [
        {
          "indexed": true,
          "internalType": "address",
          "name": "operator",
          "type": "address"
        },
        {
          "indexed": true,
          "internalType": "address",
          "name": "from",
          "type": "address"
        },
        {
          "indexed": true,
          "internalType": "address",
          "name": "to",
          "type": "address"
        },
        {
          "indexed": false,
          "internalType": "uint256[]",
          "name": "ids",
          "type": "uint256[]"
        },
        {
          "indexed": false,
          "internalType": "uint256[]",
          "name": "values",
          "type": "uint256[]"
        }
      ],
      "name": "TransferBatch",
      "type": "event"
    },
    {
      "anonymous": false,
      "inputs": [
        {
          "indexed": true,
          "internalType": "address",
          "name": "operator",
          "type": "address"
        },
        {
          "indexed": true,
          "internalType": "address",
          "name": "from",
          "type": "address"
        },
        {
          "indexed": true,
          "internalType": "address",
          "name": "to",
          "type": "address"
        },
        {
          "indexed": false,
          "internalType": "uint256",
          "name": "id",
          "type": "uint256"
        },
        {
          "indexed": false,
          "internalType": "uint256",
          "name": "value",
          "type": "uint256"
        }
      ],
      "name": "TransferSingle",
      "type": "event"
    },
    {
      "anonymous": false,
      "inputs": [
        {
          "indexed": false,
          "internalType": "string",
          "name": "value",
          "type": "string"
        },
        {
          "indexed": true,
          "internalType": "uint256",
          "name": "id",
          "type": "uint256"
        }
      ],
      "name": "URI",
      "type": "event"
    },
    {
      "inputs": [
        {
          "internalType": "address",
          "name": "_studio",
          "type": "address"
        }
      ],
      "name": "addStudio",
      "outputs": [],
      "stateMutability": "nonpayable",
      "type": "function"
    },
    {
      "inputs": [
        {
          "internalType": "address",
          "name": "account",
          "type": "address"
        },
        {
          "internalType": "uint256",
          "name": "id",
          "type": "uint256"
        }
      ],
      "name": "balanceOf",
      "outputs": [
        {
          "internalType": "uint256",
          "name": "",
          "type": "uint256"
        }
      ],
      "stateMutability": "view",
      "type": "function"
    },
    {
      "inputs": [
        {
          "internalType": "address[]",
          "name": "accounts",
          "type": "address[]"
        },
        {
          "internalType": "uint256[]",
          "name": "ids",
          "type": "uint256[]"
        }
      ],
      "name": "balanceOfBatch",
      "outputs": [
        {
          "internalType": "uint256[]",
          "name": "",
          "type": "uint256[]"
        }
      ],
      "stateMutability": "view",
      "type": "function"
    },
    {
      "inputs": [
        {
          "internalType": "address",
          "name": "account",
          "type": "address"
        },
        {
          "internalType": "uint256",
          "name": "id",
          "type": "uint256"
        },
        {
          "internalType": "uint256",
          "name": "value",
          "type": "uint256"
        }
      ],
      "name": "burn",
      "outputs": [],
      "stateMutability": "nonpayable",
      "type": "function"
    },
    {
      "inputs": [
        {
          "internalType": "address",
          "name": "account",
          "type": "address"
        },
        {
          "internalType": "uint256[]",
          "name": "ids",
          "type": "uint256[]"
        },
        {
          "internalType": "uint256[]",
          "name": "values",
          "type": "uint256[]"
        }
      ],
      "name": "burnBatch",
      "outputs": [],
      "stateMutability": "nonpayable",
      "type": "function"
    },
    {
      "inputs": [
        {
          "internalType": "string",
          "name": "_label",
          "type": "string"
        },
        {
          "internalType": "string",
          "name": "_value",
          "type": "string"
        },
        {
          "internalType": "uint256[]",
          "name": "_amounts",
          "type": "uint256[]"
        },
        {
          "internalType": "address[]",
          "name": "_recipients",
          "type": "address[]"
        }
      ],
      "name": "createElement",
      "outputs": [
        {
          "internalType": "uint256",
          "name": "tokenId",
          "type": "uint256"
        }
      ],
      "stateMutability": "nonpayable",
      "type": "function"
    },
    {
      "inputs": [
        {
          "internalType": "string[]",
          "name": "_labels",
          "type": "string[]"
        },
        {
          "internalType": "string[]",
          "name": "_values",
          "type": "string[]"
        },
        {
          "internalType": "uint256[][]",
          "name": "_amounts",
          "type": "uint256[][]"
        },
        {
          "internalType": "address[]",
          "name": "_recipients",
          "type": "address[]"
        }
      ],
      "name": "createElements",
      "outputs": [
        {
          "internalType": "uint256[]",
          "name": "tokenIds",
          "type": "uint256[]"
        }
      ],
      "stateMutability": "nonpayable",
      "type": "function"
    },
    {
      "inputs": [
        {
          "internalType": "string[][]",
          "name": "_labels",
          "type": "string[][]"
        },
        {
          "internalType": "string[][]",
          "name": "_values",
          "type": "string[][]"
        },
        {
          "internalType": "uint256[][][]",
          "name": "_amounts",
          "type": "uint256[][][]"
        },
        {
          "internalType": "address[]",
          "name": "_recipients",
          "type": "address[]"
        }
      ],
      "name": "createElements2D",
      "outputs": [
        {
          "internalType": "uint256[][]",
          "name": "tokenIds",
          "type": "uint256[][]"
        }
      ],
      "stateMutability": "nonpayable",
      "type": "function"
    },
    {
      "inputs": [
        {
          "internalType": "uint256",
          "name": "",
          "type": "uint256"
        }
      ],
      "name": "elements",
      "outputs": [
        {
          "internalType": "string",
          "name": "label",
          "type": "string"
        },
        {
          "internalType": "string",
          "name": "value",
          "type": "string"
        }
      ],
      "stateMutability": "view",
      "type": "function"
    },
    {
      "inputs": [
        {
          "internalType": "uint256",
          "name": "id",
          "type": "uint256"
        }
      ],
      "name": "exists",
      "outputs": [
        {
          "internalType": "bool",
          "name": "",
          "type": "bool"
        }
      ],
      "stateMutability": "view",
      "type": "function"
    },
    {
      "inputs": [
        {
          "internalType": "uint256",
          "name": "_tokenId",
          "type": "uint256"
        }
      ],
      "name": "getElementLabel",
      "outputs": [
        {
          "internalType": "string",
          "name": "",
          "type": "string"
        }
      ],
      "stateMutability": "view",
      "type": "function"
    },
    {
      "inputs": [
        {
          "internalType": "uint256",
          "name": "_tokenId",
          "type": "uint256"
        }
      ],
      "name": "getElementValue",
      "outputs": [
        {
          "internalType": "string",
          "name": "",
          "type": "string"
        }
      ],
      "stateMutability": "view",
      "type": "function"
    },
    {
      "inputs": [
        {
          "internalType": "address",
          "name": "account",
          "type": "address"
        },
        {
          "internalType": "address",
          "name": "operator",
          "type": "address"
        }
      ],
      "name": "isApprovedForAll",
      "outputs": [
        {
          "internalType": "bool",
          "name": "",
          "type": "bool"
        }
      ],
      "stateMutability": "view",
      "type": "function"
    },
    {
      "inputs": [],
      "name": "nextTokenId",
      "outputs": [
        {
          "internalType": "uint256",
          "name": "",
          "type": "uint256"
        }
      ],
      "stateMutability": "view",
      "type": "function"
    },
    {
      "inputs": [],
      "name": "owner",
      "outputs": [
        {
          "internalType": "address",
          "name": "",
          "type": "address"
        }
      ],
      "stateMutability": "view",
      "type": "function"
    },
    {
      "inputs": [
        {
          "internalType": "address",
          "name": "_studio",
          "type": "address"
        }
      ],
      "name": "removeStudio",
      "outputs": [],
      "stateMutability": "nonpayable",
      "type": "function"
    },
    {
      "inputs": [],
      "name": "renounceOwnership",
      "outputs": [],
      "stateMutability": "nonpayable",
      "type": "function"
    },
    {
      "inputs": [
        {
          "internalType": "address",
          "name": "from",
          "type": "address"
        },
        {
          "internalType": "address",
          "name": "to",
          "type": "address"
        },
        {
          "internalType": "uint256[]",
          "name": "ids",
          "type": "uint256[]"
        },
        {
          "internalType": "uint256[]",
          "name": "amounts",
          "type": "uint256[]"
        },
        {
          "internalType": "bytes",
          "name": "data",
          "type": "bytes"
        }
      ],
      "name": "safeBatchTransferFrom",
      "outputs": [],
      "stateMutability": "nonpayable",
      "type": "function"
    },
    {
      "inputs": [
        {
          "internalType": "address",
          "name": "from",
          "type": "address"
        },
        {
          "internalType": "address",
          "name": "to",
          "type": "address"
        },
        {
          "internalType": "uint256",
          "name": "id",
          "type": "uint256"
        },
        {
          "internalType": "uint256",
          "name": "amount",
          "type": "uint256"
        },
        {
          "internalType": "bytes",
          "name": "data",
          "type": "bytes"
        }
      ],
      "name": "safeTransferFrom",
      "outputs": [],
      "stateMutability": "nonpayable",
      "type": "function"
    },
    {
      "inputs": [
        {
          "internalType": "address",
          "name": "operator",
          "type": "address"
        },
        {
          "internalType": "bool",
          "name": "approved",
          "type": "bool"
        }
      ],
      "name": "setApprovalForAll",
      "outputs": [],
      "stateMutability": "nonpayable",
      "type": "function"
    },
    {
      "inputs": [
        {
          "internalType": "address",
          "name": "",
          "type": "address"
        }
      ],
      "name": "studios",
      "outputs": [
        {
          "internalType": "bool",
          "name": "",
          "type": "bool"
        }
      ],
      "stateMutability": "view",
      "type": "function"
    },
    {
      "inputs": [
        {
          "internalType": "bytes4",
          "name": "interfaceId",
          "type": "bytes4"
        }
      ],
      "name": "supportsInterface",
      "outputs": [
        {
          "internalType": "bool",
          "name": "",
          "type": "bool"
        }
      ],
      "stateMutability": "view",
      "type": "function"
    },
    {
      "inputs": [
        {
          "internalType": "uint256",
          "name": "id",
          "type": "uint256"
        }
      ],
      "name": "totalSupply",
      "outputs": [
        {
          "internalType": "uint256",
          "name": "",
          "type": "uint256"
        }
      ],
      "stateMutability": "view",
      "type": "function"
    },
    {
      "inputs": [
        {
          "internalType": "address",
          "name": "newOwner",
          "type": "address"
        }
      ],
      "name": "transferOwnership",
      "outputs": [],
      "stateMutability": "nonpayable",
      "type": "function"
    },
    {
      "inputs": [
        {
          "internalType": "uint256",
          "name": "",
          "type": "uint256"
        }
      ],
      "name": "uri",
      "outputs": [
        {
          "internalType": "string",
          "name": "",
          "type": "string"
        }
      ],
      "stateMutability": "view",
      "type": "function"
    }
  ],
  "transactionHash": "0x7f657b5ec0df250afedeb412e5003e6e97c859123fd97376b7ab5adfbb2f5948",
  "args": [
    "0x7930DdA80157Fcc47ba9c3836398c82d89C16416"
  ],
  "numDeployments": 1,
  "solcInputHash": "5c54aa32bb205f1dc5b410cb7af9fc35",
  "bytecode": "0x608060405260016005553480156200001657600080fd5b5060405162002afc38038062002afc8339810160408190526200003991620000d5565b604080516020810190915260008152620000538162000071565b506200005f3362000083565b6200006a8162000083565b5062000278565b60026200007f8282620001ac565b5050565b600480546001600160a01b038381166001600160a01b0319831681179093556040519116919082907f8be0079c531659141344cd1fd0a4f28419497f9722a3daafe3b4186f6b6457e090600090a35050565b600060208284031215620000e857600080fd5b81516001600160a01b03811681146200010057600080fd5b9392505050565b634e487b7160e01b600052604160045260246000fd5b600181811c908216806200013257607f821691505b6020821081036200015357634e487b7160e01b600052602260045260246000fd5b50919050565b601f821115620001a757600081815260208120601f850160051c81016020861015620001825750805b601f850160051c820191505b81811015620001a3578281556001016200018e565b5050505b505050565b81516001600160401b03811115620001c857620001c862000107565b620001e081620001d984546200011d565b8462000159565b602080601f831160018114620002185760008415620001ff5750858301515b600019600386901b1c1916600185901b178555620001a3565b600085815260208120601f198616915b82811015620002495788860151825594840194600190910190840162000228565b5085821015620002685787850151600019600388901b60f8161c191681555b5050505050600190811b01905550565b61287480620002886000396000f3fe608060405234801561001057600080fd5b50600436106101725760003560e01c80636b20c454116100de578063dccd6a3e11610097578063f15312b611610071578063f15312b61461039b578063f242432a146103bb578063f2fde38b146103ce578063f5298aca146103e157600080fd5b8063dccd6a3e1461032b578063e0d64b371461033e578063e985e9c51461035f57600080fd5b80636b20c454146102b9578063715018a6146102cc57806375794a3c146102d45780638da5cb5b146102dd578063a22cb465146102f8578063bd85b0391461030b57600080fd5b80633d4669ab116101305780633d4669ab1461021b5780634e1273f41461022e5780634f558e791461024e57806355a1dde71461027057806357288135146102835780636a25a799146102a657600080fd5b8062fdd58e1461017757806301ffc9a71461019d5780630e89341c146101c05780632ab927b4146101e05780632eb2c2d6146101f5578063326b4eba14610208575b600080fd5b61018a610185366004611a73565b6103f4565b6040519081526020015b60405180910390f35b6101b06101ab366004611ab3565b61048e565b6040519015158152602001610194565b6101d36101ce366004611ad7565b6104de565b6040516101949190611b36565b6101f36101ee366004611b49565b610572565b005b6101f3610203366004611cad565b6105e8565b6101f3610216366004611b49565b61067f565b61018a610229366004611de2565b6106f2565b61024161023c366004611ea5565b610882565b6040516101949190611faa565b6101b061025c366004611ad7565b600090815260036020526040902054151590565b6101d361027e366004611ad7565b6109ab565b6101b0610291366004611b49565b60076020526000908152604090205460ff1681565b6102416102b4366004611fbd565b6109c8565b6101f36102c7366004612021565b610b09565b6101f3610b51565b61018a60055481565b6004546040516001600160a01b039091168152602001610194565b6101f3610306366004612094565b610b87565b61018a610319366004611ad7565b60009081526003602052604090205490565b6101d3610339366004611ad7565b610b96565b61035161034c366004611ad7565b610bb6565b6040516101949291906120d0565b6101b061036d3660046120fe565b6001600160a01b03918216600090815260016020908152604080832093909416825291909152205460ff1690565b6103ae6103a9366004611fbd565b610ce2565b6040516101949190612131565b6101f36103c9366004612193565b610e21565b6101f36103dc366004611b49565b610e66565b6101f36103ef3660046121f7565b610f01565b60006001600160a01b0383166104655760405162461bcd60e51b815260206004820152602b60248201527f455243313135353a2062616c616e636520717565727920666f7220746865207a60448201526a65726f206164647265737360a81b60648201526084015b60405180910390fd5b506000818152602081815260408083206001600160a01b03861684529091529020545b92915050565b60006001600160e01b03198216636cdb3d1360e11b14806104bf57506001600160e01b031982166303a24d0760e21b145b8061048857506301ffc9a760e01b6001600160e01b0319831614610488565b6060600280546104ed9061222a565b80601f01602080910402602001604051908101604052809291908181526020018280546105199061222a565b80156105665780601f1061053b57610100808354040283529160200191610566565b820191906000526020600020905b81548152906001019060200180831161054957829003601f168201915b50505050509050919050565b6004546001600160a01b0316331461059c5760405162461bcd60e51b815260040161045c90612264565b6001600160a01b038116600081815260076020526040808220805460ff19166001179055517fbfb65c1c1966bf1a66b04a75bb6988b3190cbd63772b43312f4e2145fd25654f9190a250565b6001600160a01b0385163314806106045750610604853361036d565b61066b5760405162461bcd60e51b815260206004820152603260248201527f455243313135353a207472616e736665722063616c6c6572206973206e6f74206044820152711bdddb995c881b9bdc88185c1c1c9bdd995960721b606482015260840161045c565b6106788585858585610f44565b5050505050565b6004546001600160a01b031633146106a95760405162461bcd60e51b815260040161045c90612264565b6001600160a01b038116600081815260076020526040808220805460ff19169055517fd98640ff7554d65559fe239bd506c87e3eaa5b4c37dec5d07decaa4e2df8c8e19190a250565b3360009081526007602052604081205460ff166107375760405162461bcd60e51b815260206004820152600360248201526245303160e81b604482015260640161045c565b8382146107565760405162461bcd60e51b815260040161045c90612299565b50600580549081906000610769836122cc565b90915550506000818152600660205260409020610787898b8361232b565b5060008181526006602052604090206001016107a487898361232b565b5060005b8481101561081b576108098484838181106107c5576107c56123ea565b90506020020160208101906107da9190611b49565b838888858181106107ed576107ed6123ea565b90506020020135604051806020016040528060008152506110ee565b80610813816122cc565b9150506107a8565b50868660405161082c929190612400565b60405180910390208989604051610844929190612400565b6040519081900381209033907f1a74329a2281d14f7633fd19f869994a0226407b05e85c3532f73b5b9ee8d81790600090a498975050505050505050565b606081518351146108e75760405162461bcd60e51b815260206004820152602960248201527f455243313135353a206163636f756e747320616e6420696473206c656e677468604482015268040dad2e6dac2e8c6d60bb1b606482015260840161045c565b600083516001600160401b0381111561090257610902611b64565b60405190808252806020026020018201604052801561092b578160200160208202803683370190505b50905060005b84518110156109a35761097685828151811061094f5761094f6123ea565b6020026020010151858381518110610969576109696123ea565b60200260200101516103f4565b828281518110610988576109886123ea565b602090810291909101015261099c816122cc565b9050610931565b509392505050565b60008181526006602052604090208054606091906104ed9061222a565b60608786146109e95760405162461bcd60e51b815260040161045c90612299565b878414610a085760405162461bcd60e51b815260040161045c90612299565b876001600160401b03811115610a2057610a20611b64565b604051908082528060200260200182016040528015610a49578160200160208202803683370190505b50905060005b88811015610afc57610acd8a8a83818110610a6c57610a6c6123ea565b9050602002810190610a7e9190612410565b8a8a85818110610a9057610a906123ea565b9050602002810190610aa29190612410565b8a8a87818110610ab457610ab46123ea565b9050602002810190610ac69190612456565b8a8a6106f2565b828281518110610adf57610adf6123ea565b602090810291909101015280610af4816122cc565b915050610a4f565b5098975050505050505050565b6001600160a01b038316331480610b255750610b25833361036d565b610b415760405162461bcd60e51b815260040161045c9061249f565b610b4c8383836111fe565b505050565b6004546001600160a01b03163314610b7b5760405162461bcd60e51b815260040161045c90612264565b610b85600061138c565b565b610b923383836113de565b5050565b60008181526006602052604090206001018054606091906104ed9061222a565b600660205260009081526040902080548190610bd19061222a565b80601f0160208091040260200160405190810160405280929190818152602001828054610bfd9061222a565b8015610c4a5780601f10610c1f57610100808354040283529160200191610c4a565b820191906000526020600020905b815481529060010190602001808311610c2d57829003601f168201915b505050505090806001018054610c5f9061222a565b80601f0160208091040260200160405190810160405280929190818152602001828054610c8b9061222a565b8015610cd85780601f10610cad57610100808354040283529160200191610cd8565b820191906000526020600020905b815481529060010190602001808311610cbb57829003601f168201915b5050505050905082565b6060878614610d035760405162461bcd60e51b815260040161045c90612299565b878414610d225760405162461bcd60e51b815260040161045c90612299565b876001600160401b03811115610d3a57610d3a611b64565b604051908082528060200260200182016040528015610d6d57816020015b6060815260200190600190039081610d585790505b50905060005b88811015610afc57610df18a8a83818110610d9057610d906123ea565b9050602002810190610da29190612456565b8a8a85818110610db457610db46123ea565b9050602002810190610dc69190612456565b8a8a87818110610dd857610dd86123ea565b9050602002810190610dea9190612456565b8a8a6109c8565b828281518110610e0357610e036123ea565b60200260200101819052508080610e19906122cc565b915050610d73565b6001600160a01b038516331480610e3d5750610e3d853361036d565b610e595760405162461bcd60e51b815260040161045c9061249f565b61067885858585856114be565b6004546001600160a01b03163314610e905760405162461bcd60e51b815260040161045c90612264565b6001600160a01b038116610ef55760405162461bcd60e51b815260206004820152602660248201527f4f776e61626c653a206e6577206f776e657220697320746865207a65726f206160448201526564647265737360d01b606482015260840161045c565b610efe8161138c565b50565b6001600160a01b038316331480610f1d5750610f1d833361036d565b610f395760405162461bcd60e51b815260040161045c9061249f565b610b4c8383836115db565b8151835114610f655760405162461bcd60e51b815260040161045c906124e8565b6001600160a01b038416610f8b5760405162461bcd60e51b815260040161045c90612530565b33610f9a8187878787876116dc565b60005b8451811015611080576000858281518110610fba57610fba6123ea565b602002602001015190506000858381518110610fd857610fd86123ea565b602090810291909101810151600084815280835260408082206001600160a01b038e1683529093529190912054909150818110156110285760405162461bcd60e51b815260040161045c90612575565b6000838152602081815260408083206001600160a01b038e8116855292528083208585039055908b168252812080548492906110659084906125bf565b9250508190555050505080611079906122cc565b9050610f9d565b50846001600160a01b0316866001600160a01b0316826001600160a01b03167f4a39dc06d4c0dbc64b70af90fd698a233a518aa5d07e595d983b8c0526c8f7fb87876040516110d09291906125d2565b60405180910390a46110e68187878787876116ea565b505050505050565b6001600160a01b03841661114e5760405162461bcd60e51b815260206004820152602160248201527f455243313135353a206d696e7420746f20746865207a65726f206164647265736044820152607360f81b606482015260840161045c565b3361116e8160008761115f88611845565b61116888611845565b876116dc565b6000848152602081815260408083206001600160a01b03891684529091528120805485929061119e9084906125bf565b909155505060408051858152602081018590526001600160a01b0380881692600092918516917fc3d58168c5ae7397731d063d5bbf3d657854427343f4c083240f7aacaa2d0f62910160405180910390a461067881600087878787611890565b6001600160a01b0383166112245760405162461bcd60e51b815260040161045c906125f7565b80518251146112455760405162461bcd60e51b815260040161045c906124e8565b6000339050611268818560008686604051806020016040528060008152506116dc565b60005b835181101561132d576000848281518110611288576112886123ea565b6020026020010151905060008483815181106112a6576112a66123ea565b602090810291909101810151600084815280835260408082206001600160a01b038c1683529093529190912054909150818110156112f65760405162461bcd60e51b815260040161045c9061263a565b6000928352602083815260408085206001600160a01b038b1686529091529092209103905580611325816122cc565b91505061126b565b5060006001600160a01b0316846001600160a01b0316826001600160a01b03167f4a39dc06d4c0dbc64b70af90fd698a233a518aa5d07e595d983b8c0526c8f7fb868660405161137e9291906125d2565b60405180910390a450505050565b600480546001600160a01b038381166001600160a01b0319831681179093556040519116919082907f8be0079c531659141344cd1fd0a4f28419497f9722a3daafe3b4186f6b6457e090600090a35050565b816001600160a01b0316836001600160a01b0316036114515760405162461bcd60e51b815260206004820152602960248201527f455243313135353a2073657474696e6720617070726f76616c20737461747573604482015268103337b91039b2b63360b91b606482015260840161045c565b6001600160a01b03838116600081815260016020908152604080832094871680845294825291829020805460ff191686151590811790915591519182527f17307eab39ab6107e8899845ad3d59bd9653f200f220920489ca2b5937696c31910160405180910390a3505050565b6001600160a01b0384166114e45760405162461bcd60e51b815260040161045c90612530565b336114f481878761115f88611845565b6000848152602081815260408083206001600160a01b038a168452909152902054838110156115355760405162461bcd60e51b815260040161045c90612575565b6000858152602081815260408083206001600160a01b038b81168552925280832087850390559088168252812080548692906115729084906125bf565b909155505060408051868152602081018690526001600160a01b03808916928a821692918616917fc3d58168c5ae7397731d063d5bbf3d657854427343f4c083240f7aacaa2d0f62910160405180910390a46115d2828888888888611890565b50505050505050565b6001600160a01b0383166116015760405162461bcd60e51b815260040161045c906125f7565b336116308185600061161287611845565b61161b87611845565b604051806020016040528060008152506116dc565b6000838152602081815260408083206001600160a01b0388168452909152902054828110156116715760405162461bcd60e51b815260040161045c9061263a565b6000848152602081815260408083206001600160a01b03898116808652918452828520888703905582518981529384018890529092908616917fc3d58168c5ae7397731d063d5bbf3d657854427343f4c083240f7aacaa2d0f62910160405180910390a45050505050565b6110e686868686868661194b565b6001600160a01b0384163b156110e65760405163bc197c8160e01b81526001600160a01b0385169063bc197c819061172e908990899088908890889060040161267e565b6020604051808303816000875af1925050508015611769575060408051601f3d908101601f19168201909252611766918101906126dc565b60015b611815576117756126f9565b806308c379a0036117ae5750611789612715565b8061179457506117b0565b8060405162461bcd60e51b815260040161045c9190611b36565b505b60405162461bcd60e51b815260206004820152603460248201527f455243313135353a207472616e7366657220746f206e6f6e20455243313135356044820152732932b1b2b4bb32b91034b6b83632b6b2b73a32b960611b606482015260840161045c565b6001600160e01b0319811663bc197c8160e01b146115d25760405162461bcd60e51b815260040161045c9061279e565b6040805160018082528183019092526060916000919060208083019080368337019050509050828160008151811061187f5761187f6123ea565b602090810291909101015292915050565b6001600160a01b0384163b156110e65760405163f23a6e6160e01b81526001600160a01b0385169063f23a6e61906118d490899089908890889088906004016127e6565b6020604051808303816000875af192505050801561190f575060408051601f3d908101601f1916820190925261190c918101906126dc565b60015b61191b576117756126f9565b6001600160e01b0319811663f23a6e6160e01b146115d25760405162461bcd60e51b815260040161045c9061279e565b6001600160a01b0385166119d25760005b83518110156119d057828181518110611977576119776123ea565b602002602001015160036000868481518110611995576119956123ea565b6020026020010151815260200190815260200160002060008282546119ba91906125bf565b909155506119c99050816122cc565b905061195c565b505b6001600160a01b0384166110e65760005b83518110156115d2578281815181106119fe576119fe6123ea565b602002602001015160036000868481518110611a1c57611a1c6123ea565b602002602001015181526020019081526020016000206000828254611a41919061282b565b90915550611a509050816122cc565b90506119e3565b80356001600160a01b0381168114611a6e57600080fd5b919050565b60008060408385031215611a8657600080fd5b611a8f83611a57565b946020939093013593505050565b6001600160e01b031981168114610efe57600080fd5b600060208284031215611ac557600080fd5b8135611ad081611a9d565b9392505050565b600060208284031215611ae957600080fd5b5035919050565b6000815180845260005b81811015611b1657602081850181015186830182015201611afa565b506000602082860101526020601f19601f83011685010191505092915050565b602081526000611ad06020830184611af0565b600060208284031215611b5b57600080fd5b611ad082611a57565b634e487b7160e01b600052604160045260246000fd5b601f8201601f191681016001600160401b0381118282101715611b9f57611b9f611b64565b6040525050565b60006001600160401b03821115611bbf57611bbf611b64565b5060051b60200190565b600082601f830112611bda57600080fd5b81356020611be782611ba6565b604051611bf48282611b7a565b83815260059390931b8501820192828101915086841115611c1457600080fd5b8286015b84811015611c2f5780358352918301918301611c18565b509695505050505050565b600082601f830112611c4b57600080fd5b81356001600160401b03811115611c6457611c64611b64565b604051611c7b601f8301601f191660200182611b7a565b818152846020838601011115611c9057600080fd5b816020850160208301376000918101602001919091529392505050565b600080600080600060a08688031215611cc557600080fd5b611cce86611a57565b9450611cdc60208701611a57565b935060408601356001600160401b0380821115611cf857600080fd5b611d0489838a01611bc9565b94506060880135915080821115611d1a57600080fd5b611d2689838a01611bc9565b93506080880135915080821115611d3c57600080fd5b50611d4988828901611c3a565b9150509295509295909350565b60008083601f840112611d6857600080fd5b5081356001600160401b03811115611d7f57600080fd5b602083019150836020828501011115611d9757600080fd5b9250929050565b60008083601f840112611db057600080fd5b5081356001600160401b03811115611dc757600080fd5b6020830191508360208260051b8501011115611d9757600080fd5b6000806000806000806000806080898b031215611dfe57600080fd5b88356001600160401b0380821115611e1557600080fd5b611e218c838d01611d56565b909a50985060208b0135915080821115611e3a57600080fd5b611e468c838d01611d56565b909850965060408b0135915080821115611e5f57600080fd5b611e6b8c838d01611d9e565b909650945060608b0135915080821115611e8457600080fd5b50611e918b828c01611d9e565b999c989b5096995094979396929594505050565b60008060408385031215611eb857600080fd5b82356001600160401b0380821115611ecf57600080fd5b818501915085601f830112611ee357600080fd5b81356020611ef082611ba6565b604051611efd8282611b7a565b83815260059390931b8501820192828101915089841115611f1d57600080fd5b948201945b83861015611f4257611f3386611a57565b82529482019490820190611f22565b96505086013592505080821115611f5857600080fd5b50611f6585828601611bc9565b9150509250929050565b600081518084526020808501945080840160005b83811015611f9f57815187529582019590820190600101611f83565b509495945050505050565b602081526000611ad06020830184611f6f565b6000806000806000806000806080898b031215611fd957600080fd5b88356001600160401b0380821115611ff057600080fd5b611ffc8c838d01611d9e565b909a50985060208b013591508082111561201557600080fd5b611e468c838d01611d9e565b60008060006060848603121561203657600080fd5b61203f84611a57565b925060208401356001600160401b038082111561205b57600080fd5b61206787838801611bc9565b9350604086013591508082111561207d57600080fd5b5061208a86828701611bc9565b9150509250925092565b600080604083850312156120a757600080fd5b6120b083611a57565b9150602083013580151581146120c557600080fd5b809150509250929050565b6040815260006120e36040830185611af0565b82810360208401526120f58185611af0565b95945050505050565b6000806040838503121561211157600080fd5b61211a83611a57565b915061212860208401611a57565b90509250929050565b6000602080830181845280855180835260408601915060408160051b870101925083870160005b8281101561218657603f19888603018452612174858351611f6f565b94509285019290850190600101612158565b5092979650505050505050565b600080600080600060a086880312156121ab57600080fd5b6121b486611a57565b94506121c260208701611a57565b9350604086013592506060860135915060808601356001600160401b038111156121eb57600080fd5b611d4988828901611c3a565b60008060006060848603121561220c57600080fd5b61221584611a57565b95602085013595506040909401359392505050565b600181811c9082168061223e57607f821691505b60208210810361225e57634e487b7160e01b600052602260045260246000fd5b50919050565b6020808252818101527f4f776e61626c653a2063616c6c6572206973206e6f7420746865206f776e6572604082015260600190565b60208082526003908201526222981960e91b604082015260600190565b634e487b7160e01b600052601160045260246000fd5b6000600182016122de576122de6122b6565b5060010190565b601f821115610b4c57600081815260208120601f850160051c8101602086101561230c5750805b601f850160051c820191505b818110156110e657828155600101612318565b6001600160401b0383111561234257612342611b64565b61235683612350835461222a565b836122e5565b6000601f84116001811461238a57600085156123725750838201355b600019600387901b1c1916600186901b178355610678565b600083815260209020601f19861690835b828110156123bb578685013582556020948501946001909201910161239b565b50868210156123d85760001960f88860031b161c19848701351681555b505060018560011b0183555050505050565b634e487b7160e01b600052603260045260246000fd5b8183823760009101908152919050565b6000808335601e1984360301811261242757600080fd5b8301803591506001600160401b0382111561244157600080fd5b602001915036819003821315611d9757600080fd5b6000808335601e1984360301811261246d57600080fd5b8301803591506001600160401b0382111561248757600080fd5b6020019150600581901b3603821315611d9757600080fd5b60208082526029908201527f455243313135353a2063616c6c6572206973206e6f74206f776e6572206e6f7260408201526808185c1c1c9bdd995960ba1b606082015260800190565b60208082526028908201527f455243313135353a2069647320616e6420616d6f756e7473206c656e677468206040820152670dad2e6dac2e8c6d60c31b606082015260800190565b60208082526025908201527f455243313135353a207472616e7366657220746f20746865207a65726f206164604082015264647265737360d81b606082015260800190565b6020808252602a908201527f455243313135353a20696e73756666696369656e742062616c616e636520666f60408201526939103a3930b739b332b960b11b606082015260800190565b80820180821115610488576104886122b6565b6040815260006125e56040830185611f6f565b82810360208401526120f58185611f6f565b60208082526023908201527f455243313135353a206275726e2066726f6d20746865207a65726f206164647260408201526265737360e81b606082015260800190565b60208082526024908201527f455243313135353a206275726e20616d6f756e7420657863656564732062616c604082015263616e636560e01b606082015260800190565b6001600160a01b0386811682528516602082015260a0604082018190526000906126aa90830186611f6f565b82810360608401526126bc8186611f6f565b905082810360808401526126d08185611af0565b98975050505050505050565b6000602082840312156126ee57600080fd5b8151611ad081611a9d565b600060033d11156127125760046000803e5060005160e01c5b90565b600060443d10156127235790565b6040516003193d81016004833e81513d6001600160401b03816024840111818411171561275257505050505090565b828501915081518181111561276a5750505050505090565b843d87010160208285010111156127845750505050505090565b61279360208286010187611b7a565b509095945050505050565b60208082526028908201527f455243313135353a204552433131353552656365697665722072656a656374656040820152676420746f6b656e7360c01b606082015260800190565b6001600160a01b03868116825285166020820152604081018490526060810183905260a06080820181905260009061282090830184611af0565b979650505050505050565b81810381811115610488576104886122b656fea26469706673582212200b711cc1edff0ff49e456f857404cc8ecaf50b4f0dd8b76b1337cd13688c9aa164736f6c63430008110033",
  "devdoc": {
    "kind": "dev",
    "methods": {
      "balanceOf(address,uint256)": {
        "details": "See {IERC1155-balanceOf}. Requirements: - `account` cannot be the zero address."
      },
      "balanceOfBatch(address[],uint256[])": {
        "details": "See {IERC1155-balanceOfBatch}. Requirements: - `accounts` and `ids` must have the same length."
      },
      "exists(uint256)": {
        "details": "Indicates whether any token exist with a given id, or not."
      },
      "isApprovedForAll(address,address)": {
        "details": "See {IERC1155-isApprovedForAll}."
      },
      "owner()": {
        "details": "Returns the address of the current owner."
      },
      "renounceOwnership()": {
        "details": "Leaves the contract without owner. It will not be possible to call `onlyOwner` functions anymore. Can only be called by the current owner. NOTE: Renouncing ownership will leave the contract without an owner, thereby removing any functionality that is only available to the owner."
      },
      "safeBatchTransferFrom(address,address,uint256[],uint256[],bytes)": {
        "details": "See {IERC1155-safeBatchTransferFrom}."
      },
      "safeTransferFrom(address,address,uint256,uint256,bytes)": {
        "details": "See {IERC1155-safeTransferFrom}."
      },
      "setApprovalForAll(address,bool)": {
        "details": "See {IERC1155-setApprovalForAll}."
      },
      "supportsInterface(bytes4)": {
        "details": "See {IERC165-supportsInterface}."
      },
      "totalSupply(uint256)": {
        "details": "Total amount of tokens in with a given id."
      },
      "transferOwnership(address)": {
        "details": "Transfers ownership of the contract to a new account (`newOwner`). Can only be called by the current owner."
      },
      "uri(uint256)": {
        "details": "See {IERC1155MetadataURI-uri}. This implementation returns the same URI for *all* token types. It relies on the token type ID substitution mechanism https://eips.ethereum.org/EIPS/eip-1155#metadata[defined in the EIP]. Clients calling this function must replace the `\\{id\\}` substring with the actual token type ID."
      }
    },
    "version": 1
  },
  "userdoc": {
    "kind": "user",
    "methods": {},
    "version": 1
  },
  "storageLayout": {
    "storage": [
      {
        "astId": 204,
        "contract": "contracts/Element.sol:Element",
        "label": "_balances",
        "offset": 0,
        "slot": "0",
        "type": "t_mapping(t_uint256,t_mapping(t_address,t_uint256))"
      },
      {
        "astId": 210,
        "contract": "contracts/Element.sol:Element",
        "label": "_operatorApprovals",
        "offset": 0,
        "slot": "1",
        "type": "t_mapping(t_address,t_mapping(t_address,t_bool))"
      },
      {
        "astId": 212,
        "contract": "contracts/Element.sol:Element",
        "label": "_uri",
        "offset": 0,
        "slot": "2",
        "type": "t_string_storage"
      },
      {
        "astId": 1516,
        "contract": "contracts/Element.sol:Element",
        "label": "_totalSupply",
        "offset": 0,
        "slot": "3",
        "type": "t_mapping(t_uint256,t_uint256)"
      },
      {
        "astId": 7,
        "contract": "contracts/Element.sol:Element",
        "label": "_owner",
        "offset": 0,
        "slot": "4",
        "type": "t_address"
      },
      {
        "astId": 4711,
        "contract": "contracts/Element.sol:Element",
        "label": "nextTokenId",
        "offset": 0,
        "slot": "5",
        "type": "t_uint256"
      },
      {
        "astId": 4716,
        "contract": "contracts/Element.sol:Element",
        "label": "elements",
        "offset": 0,
        "slot": "6",
        "type": "t_mapping(t_uint256,t_struct(ElementData)4708_storage)"
      },
      {
        "astId": 4720,
        "contract": "contracts/Element.sol:Element",
        "label": "studios",
        "offset": 0,
        "slot": "7",
        "type": "t_mapping(t_address,t_bool)"
      }
    ],
    "types": {
      "t_address": {
        "encoding": "inplace",
        "label": "address",
        "numberOfBytes": "20"
      },
      "t_bool": {
        "encoding": "inplace",
        "label": "bool",
        "numberOfBytes": "1"
      },
      "t_mapping(t_address,t_bool)": {
        "encoding": "mapping",
        "key": "t_address",
        "label": "mapping(address => bool)",
        "numberOfBytes": "32",
        "value": "t_bool"
      },
      "t_mapping(t_address,t_mapping(t_address,t_bool))": {
        "encoding": "mapping",
        "key": "t_address",
        "label": "mapping(address => mapping(address => bool))",
        "numberOfBytes": "32",
        "value": "t_mapping(t_address,t_bool)"
      },
      "t_mapping(t_address,t_uint256)": {
        "encoding": "mapping",
        "key": "t_address",
        "label": "mapping(address => uint256)",
        "numberOfBytes": "32",
        "value": "t_uint256"
      },
      "t_mapping(t_uint256,t_mapping(t_address,t_uint256))": {
        "encoding": "mapping",
        "key": "t_uint256",
        "label": "mapping(uint256 => mapping(address => uint256))",
        "numberOfBytes": "32",
        "value": "t_mapping(t_address,t_uint256)"
      },
      "t_mapping(t_uint256,t_struct(ElementData)4708_storage)": {
        "encoding": "mapping",
        "key": "t_uint256",
        "label": "mapping(uint256 => struct Element.ElementData)",
        "numberOfBytes": "32",
        "value": "t_struct(ElementData)4708_storage"
      },
      "t_mapping(t_uint256,t_uint256)": {
        "encoding": "mapping",
        "key": "t_uint256",
        "label": "mapping(uint256 => uint256)",
        "numberOfBytes": "32",
        "value": "t_uint256"
      },
      "t_string_storage": {
        "encoding": "bytes",
        "label": "string",
        "numberOfBytes": "32"
      },
      "t_struct(ElementData)4708_storage": {
        "encoding": "inplace",
        "label": "struct Element.ElementData",
        "members": [
          {
            "astId": 4705,
            "contract": "contracts/Element.sol:Element",
            "label": "label",
            "offset": 0,
            "slot": "0",
            "type": "t_string_storage"
          },
          {
            "astId": 4707,
            "contract": "contracts/Element.sol:Element",
            "label": "value",
            "offset": 0,
            "slot": "1",
            "type": "t_string_storage"
          }
        ],
        "numberOfBytes": "64"
      },
      "t_uint256": {
        "encoding": "inplace",
        "label": "uint256",
        "numberOfBytes": "32"
      }
    }
  }
}