{
  "address": "0xf3f885FC5a9a9B39b3eeA3Ec10bdE1E17a7201e7",
  "abi": [
    {
      "inputs": [],
      "stateMutability": "nonpayable",
      "type": "constructor"
    },
    {
      "anonymous": false,
      "inputs": [
        {
          "indexed": true,
          "internalType": "address",
          "name": "account",
          "type": "address"
        },
        {
          "indexed": true,
          "internalType": "address",
          "name": "operator",
          "type": "address"
        },
        {
          "indexed": false,
          "internalType": "bool",
          "name": "approved",
          "type": "bool"
        }
      ],
      "name": "ApprovalForAll",
      "type": "event"
    },
    {
      "anonymous": false,
      "inputs": [
        {
          "indexed": true,
          "internalType": "address",
          "name": "operator",
          "type": "address"
        },
        {
          "indexed": true,
          "internalType": "address",
          "name": "from",
          "type": "address"
        },
        {
          "indexed": true,
          "internalType": "address",
          "name": "to",
          "type": "address"
        },
        {
          "indexed": false,
          "internalType": "uint256[]",
          "name": "ids",
          "type": "uint256[]"
        },
        {
          "indexed": false,
          "internalType": "uint256[]",
          "name": "values",
          "type": "uint256[]"
        }
      ],
      "name": "TransferBatch",
      "type": "event"
    },
    {
      "anonymous": false,
      "inputs": [
        {
          "indexed": true,
          "internalType": "address",
          "name": "operator",
          "type": "address"
        },
        {
          "indexed": true,
          "internalType": "address",
          "name": "from",
          "type": "address"
        },
        {
          "indexed": true,
          "internalType": "address",
          "name": "to",
          "type": "address"
        },
        {
          "indexed": false,
          "internalType": "uint256",
          "name": "id",
          "type": "uint256"
        },
        {
          "indexed": false,
          "internalType": "uint256",
          "name": "value",
          "type": "uint256"
        }
      ],
      "name": "TransferSingle",
      "type": "event"
    },
    {
      "anonymous": false,
      "inputs": [
        {
          "indexed": false,
          "internalType": "string",
          "name": "value",
          "type": "string"
        },
        {
          "indexed": true,
          "internalType": "uint256",
          "name": "id",
          "type": "uint256"
        }
      ],
      "name": "URI",
      "type": "event"
    },
    {
      "inputs": [
        {
          "internalType": "address",
          "name": "account",
          "type": "address"
        },
        {
          "internalType": "uint256",
          "name": "id",
          "type": "uint256"
        }
      ],
      "name": "balanceOf",
      "outputs": [
        {
          "internalType": "uint256",
          "name": "",
          "type": "uint256"
        }
      ],
      "stateMutability": "view",
      "type": "function"
    },
    {
      "inputs": [
        {
          "internalType": "address[]",
          "name": "accounts",
          "type": "address[]"
        },
        {
          "internalType": "uint256[]",
          "name": "ids",
          "type": "uint256[]"
        }
      ],
      "name": "balanceOfBatch",
      "outputs": [
        {
          "internalType": "uint256[]",
          "name": "",
          "type": "uint256[]"
        }
      ],
      "stateMutability": "view",
      "type": "function"
    },
    {
      "inputs": [
        {
          "internalType": "address",
          "name": "account",
          "type": "address"
        },
        {
          "internalType": "uint256",
          "name": "id",
          "type": "uint256"
        },
        {
          "internalType": "uint256",
          "name": "value",
          "type": "uint256"
        }
      ],
      "name": "burn",
      "outputs": [],
      "stateMutability": "nonpayable",
      "type": "function"
    },
    {
      "inputs": [
        {
          "internalType": "address",
          "name": "account",
          "type": "address"
        },
        {
          "internalType": "uint256[]",
          "name": "ids",
          "type": "uint256[]"
        },
        {
          "internalType": "uint256[]",
          "name": "values",
          "type": "uint256[]"
        }
      ],
      "name": "burnBatch",
      "outputs": [],
      "stateMutability": "nonpayable",
      "type": "function"
    },
    {
      "inputs": [
        {
          "internalType": "string",
          "name": "_label",
          "type": "string"
        },
        {
          "internalType": "address",
          "name": "_minter",
          "type": "address"
        }
      ],
      "name": "createFeature",
      "outputs": [
        {
          "internalType": "uint256",
          "name": "tokenId",
          "type": "uint256"
        }
      ],
      "stateMutability": "nonpayable",
      "type": "function"
    },
    {
      "inputs": [
        {
          "internalType": "string[]",
          "name": "_labels",
          "type": "string[]"
        },
        {
          "internalType": "address",
          "name": "_minter",
          "type": "address"
        }
      ],
      "name": "createFeatures",
      "outputs": [
        {
          "internalType": "uint256[]",
          "name": "tokenIds",
          "type": "uint256[]"
        }
      ],
      "stateMutability": "nonpayable",
      "type": "function"
    },
    {
      "inputs": [
        {
          "internalType": "uint256",
          "name": "id",
          "type": "uint256"
        }
      ],
      "name": "exists",
      "outputs": [
        {
          "internalType": "bool",
          "name": "",
          "type": "bool"
        }
      ],
      "stateMutability": "view",
      "type": "function"
    },
    {
      "inputs": [
        {
          "internalType": "uint256",
          "name": "",
          "type": "uint256"
        }
      ],
      "name": "features",
      "outputs": [
        {
          "internalType": "string",
          "name": "label",
          "type": "string"
        },
        {
          "internalType": "address",
          "name": "minter",
          "type": "address"
        }
      ],
      "stateMutability": "view",
      "type": "function"
    },
    {
      "inputs": [
        {
          "internalType": "uint256",
          "name": "_tokenId",
          "type": "uint256"
        }
      ],
      "name": "getElementLabel",
      "outputs": [
        {
          "internalType": "string",
          "name": "",
          "type": "string"
        }
      ],
      "stateMutability": "view",
      "type": "function"
    },
    {
      "inputs": [
        {
          "internalType": "address",
          "name": "account",
          "type": "address"
        },
        {
          "internalType": "address",
          "name": "operator",
          "type": "address"
        }
      ],
      "name": "isApprovedForAll",
      "outputs": [
        {
          "internalType": "bool",
          "name": "",
          "type": "bool"
        }
      ],
      "stateMutability": "view",
      "type": "function"
    },
    {
      "inputs": [
        {
          "internalType": "address",
          "name": "_to",
          "type": "address"
        },
        {
          "internalType": "uint256",
          "name": "_id",
          "type": "uint256"
        },
        {
          "internalType": "uint256",
          "name": "_amount",
          "type": "uint256"
        }
      ],
      "name": "mint",
      "outputs": [],
      "stateMutability": "nonpayable",
      "type": "function"
    },
    {
      "inputs": [
        {
          "internalType": "address",
          "name": "_to",
          "type": "address"
        },
        {
          "internalType": "uint256[]",
          "name": "_ids",
          "type": "uint256[]"
        },
        {
          "internalType": "uint256[]",
          "name": "_amounts",
          "type": "uint256[]"
        }
      ],
      "name": "mintBatch",
      "outputs": [],
      "stateMutability": "nonpayable",
      "type": "function"
    },
    {
      "inputs": [],
      "name": "nextTokenId",
      "outputs": [
        {
          "internalType": "uint256",
          "name": "",
          "type": "uint256"
        }
      ],
      "stateMutability": "view",
      "type": "function"
    },
    {
      "inputs": [
        {
          "internalType": "address",
          "name": "from",
          "type": "address"
        },
        {
          "internalType": "address",
          "name": "to",
          "type": "address"
        },
        {
          "internalType": "uint256[]",
          "name": "ids",
          "type": "uint256[]"
        },
        {
          "internalType": "uint256[]",
          "name": "amounts",
          "type": "uint256[]"
        },
        {
          "internalType": "bytes",
          "name": "data",
          "type": "bytes"
        }
      ],
      "name": "safeBatchTransferFrom",
      "outputs": [],
      "stateMutability": "nonpayable",
      "type": "function"
    },
    {
      "inputs": [
        {
          "internalType": "address",
          "name": "from",
          "type": "address"
        },
        {
          "internalType": "address",
          "name": "to",
          "type": "address"
        },
        {
          "internalType": "uint256",
          "name": "id",
          "type": "uint256"
        },
        {
          "internalType": "uint256",
          "name": "amount",
          "type": "uint256"
        },
        {
          "internalType": "bytes",
          "name": "data",
          "type": "bytes"
        }
      ],
      "name": "safeTransferFrom",
      "outputs": [],
      "stateMutability": "nonpayable",
      "type": "function"
    },
    {
      "inputs": [
        {
          "internalType": "address",
          "name": "operator",
          "type": "address"
        },
        {
          "internalType": "bool",
          "name": "approved",
          "type": "bool"
        }
      ],
      "name": "setApprovalForAll",
      "outputs": [],
      "stateMutability": "nonpayable",
      "type": "function"
    },
    {
      "inputs": [
        {
          "internalType": "bytes4",
          "name": "interfaceId",
          "type": "bytes4"
        }
      ],
      "name": "supportsInterface",
      "outputs": [
        {
          "internalType": "bool",
          "name": "",
          "type": "bool"
        }
      ],
      "stateMutability": "view",
      "type": "function"
    },
    {
      "inputs": [
        {
          "internalType": "uint256",
          "name": "id",
          "type": "uint256"
        }
      ],
      "name": "totalSupply",
      "outputs": [
        {
          "internalType": "uint256",
          "name": "",
          "type": "uint256"
        }
      ],
      "stateMutability": "view",
      "type": "function"
    },
    {
      "inputs": [
        {
          "internalType": "uint256",
          "name": "",
          "type": "uint256"
        }
      ],
      "name": "uri",
      "outputs": [
        {
          "internalType": "string",
          "name": "",
          "type": "string"
        }
      ],
      "stateMutability": "view",
      "type": "function"
    }
  ],
  "transactionHash": "0x526a9ce9f468314fc50503c9f25ae7ea33df64612e579d34e461be2763968db7",
  "args": [],
  "numDeployments": 1,
  "solcInputHash": "3f21846035f568b7b9b3cdcdba7e5c73",
  "bytecode": "0x608060405260016004553480156200001657600080fd5b50604080516020810190915260008152620000318162000038565b5062000133565b80516200004d90600290602084019062000051565b5050565b8280546200005f90620000f7565b90600052602060002090601f016020900481019282620000835760008555620000ce565b82601f106200009e57805160ff1916838001178555620000ce565b82800160010185558215620000ce579182015b82811115620000ce578251825591602001919060010190620000b1565b50620000dc929150620000e0565b5090565b5b80821115620000dc5760008155600101620000e1565b600181811c908216806200010c57607f821691505b6020821081036200012d57634e487b7160e01b600052602260045260246000fd5b50919050565b6120cf80620001436000396000f3fe608060405234801561001057600080fd5b50600436106101205760003560e01c806375794a3c116100ad578063c60b6e2d11610071578063c60b6e2d1461028e578063d81d0a15146102a1578063e985e9c5146102b4578063f242432a146102f0578063f5298aca1461030357600080fd5b806375794a3c1461021e578063769f5b7b146102275780638ede6f9f1461023a578063a22cb4651461025b578063bd85b0391461026e57600080fd5b80632eb2c2d6116100f45780632eb2c2d6146101a35780634e1273f4146101b65780634f558e79146101d657806355a1dde7146101f85780636b20c4541461020b57600080fd5b8062fdd58e1461012557806301ffc9a71461014b5780630e89341c1461016e578063156e29f61461018e575b600080fd5b6101386101333660046115ab565b610316565b6040519081526020015b60405180910390f35b61015e6101593660046115ee565b6103ad565b6040519015158152602001610142565b61018161017c366004611612565b6103ff565b6040516101429190611678565b6101a161019c36600461168b565b610493565b005b6101a16101b1366004611807565b610513565b6101c96101c43660046118b0565b6105aa565b60405161014291906119b5565b61015e6101e4366004611612565b600090815260036020526040902054151590565b610181610206366004611612565b6106d3565b6101a16102193660046119c8565b6106f0565b61013860045481565b610138610235366004611a3b565b610733565b61024d610248366004611612565b61079a565b604051610142929190611abb565b6101a1610269366004611ae5565b610847565b61013861027c366004611612565b60009081526003602052604090205490565b6101c961029c366004611b21565b610856565b6101a16102af3660046119c8565b610903565b61015e6102c2366004611b85565b6001600160a01b03918216600090815260016020908152604080832093909416825291909152205460ff1690565b6101a16102fe366004611bb8565b6109ad565b6101a161031136600461168b565b6109f2565b60006001600160a01b0383166103875760405162461bcd60e51b815260206004820152602b60248201527f455243313135353a2062616c616e636520717565727920666f7220746865207a60448201526a65726f206164647265737360a81b60648201526084015b60405180910390fd5b506000908152602081815260408083206001600160a01b03949094168352929052205490565b60006001600160e01b03198216636cdb3d1360e11b14806103de57506001600160e01b031982166303a24d0760e21b145b806103f957506301ffc9a760e01b6001600160e01b03198316145b92915050565b60606002805461040e90611c1c565b80601f016020809104026020016040519081016040528092919081815260200182805461043a90611c1c565b80156104875780601f1061045c57610100808354040283529160200191610487565b820191906000526020600020905b81548152906001019060200180831161046a57829003601f168201915b50505050509050919050565b6000828152600560205260409020600101546001600160a01b031633146104f35760405162461bcd60e51b815260206004820152601460248201527313db9b1e481b5a5b9d195c8818d85b881b5a5b9d60621b604482015260640161037e565b61050e83838360405180602001604052806000815250610a35565b505050565b6001600160a01b03851633148061052f575061052f85336102c2565b6105965760405162461bcd60e51b815260206004820152603260248201527f455243313135353a207472616e736665722063616c6c6572206973206e6f74206044820152711bdddb995c881b9bdc88185c1c1c9bdd995960721b606482015260840161037e565b6105a38585858585610b45565b5050505050565b6060815183511461060f5760405162461bcd60e51b815260206004820152602960248201527f455243313135353a206163636f756e747320616e6420696473206c656e677468604482015268040dad2e6dac2e8c6d60bb1b606482015260840161037e565b600083516001600160401b0381111561062a5761062a6116be565b604051908082528060200260200182016040528015610653578160200160208202803683370190505b50905060005b84518110156106cb5761069e85828151811061067757610677611c56565b602002602001015185838151811061069157610691611c56565b6020026020010151610316565b8282815181106106b0576106b0611c56565b60209081029190910101526106c481611c82565b9050610659565b509392505050565b600081815260056020526040902080546060919061040e90611c1c565b6001600160a01b03831633148061070c575061070c83336102c2565b6107285760405162461bcd60e51b815260040161037e90611c9b565b61050e838383610cef565b60048054908190600061074583611c82565b909155505060008181526005602052604090206107639085856114f6565b50600081815260056020526040902060010180546001600160a01b0319166001600160a01b03939093169290921790915592915050565b6005602052600090815260409020805481906107b590611c1c565b80601f01602080910402602001604051908101604052809291908181526020018280546107e190611c1c565b801561082e5780601f106108035761010080835404028352916020019161082e565b820191906000526020600020905b81548152906001019060200180831161081157829003601f168201915b505050600190930154919250506001600160a01b031682565b610852338383610e7d565b5050565b6060826001600160401b03811115610870576108706116be565b604051908082528060200260200182016040528015610899578160200160208202803683370190505b50905060005b838110156106cb576108d48585838181106108bc576108bc611c56565b90506020028101906108ce9190611ce4565b85610733565b8282815181106108e6576108e6611c56565b6020908102919091010152806108fb81611c82565b91505061089f565b805182511461094c5760405162461bcd60e51b8152602060048201526015602482015274496e76616c6964206172726179206c656e6774687360581b604482015260640161037e565b60005b82518110156109a7576109958484838151811061096e5761096e611c56565b602002602001015184848151811061098857610988611c56565b6020026020010151610493565b8061099f81611c82565b91505061094f565b50505050565b6001600160a01b0385163314806109c957506109c985336102c2565b6109e55760405162461bcd60e51b815260040161037e90611c9b565b6105a38585858585610f5d565b6001600160a01b038316331480610a0e5750610a0e83336102c2565b610a2a5760405162461bcd60e51b815260040161037e90611c9b565b61050e83838361107a565b6001600160a01b038416610a955760405162461bcd60e51b815260206004820152602160248201527f455243313135353a206d696e7420746f20746865207a65726f206164647265736044820152607360f81b606482015260840161037e565b33610ab581600087610aa68861117b565b610aaf8861117b565b876111c6565b6000848152602081815260408083206001600160a01b038916845290915281208054859290610ae5908490611d31565b909155505060408051858152602081018590526001600160a01b0380881692600092918516917fc3d58168c5ae7397731d063d5bbf3d657854427343f4c083240f7aacaa2d0f62910160405180910390a46105a3816000878787876111d4565b8151835114610b665760405162461bcd60e51b815260040161037e90611d49565b6001600160a01b038416610b8c5760405162461bcd60e51b815260040161037e90611d91565b33610b9b8187878787876111c6565b60005b8451811015610c81576000858281518110610bbb57610bbb611c56565b602002602001015190506000858381518110610bd957610bd9611c56565b602090810291909101810151600084815280835260408082206001600160a01b038e168352909352919091205490915081811015610c295760405162461bcd60e51b815260040161037e90611dd6565b6000838152602081815260408083206001600160a01b038e8116855292528083208585039055908b16825281208054849290610c66908490611d31565b9250508190555050505080610c7a90611c82565b9050610b9e565b50846001600160a01b0316866001600160a01b0316826001600160a01b03167f4a39dc06d4c0dbc64b70af90fd698a233a518aa5d07e595d983b8c0526c8f7fb8787604051610cd1929190611e20565b60405180910390a4610ce781878787878761132f565b505050505050565b6001600160a01b038316610d155760405162461bcd60e51b815260040161037e90611e4e565b8051825114610d365760405162461bcd60e51b815260040161037e90611d49565b6000339050610d59818560008686604051806020016040528060008152506111c6565b60005b8351811015610e1e576000848281518110610d7957610d79611c56565b602002602001015190506000848381518110610d9757610d97611c56565b602090810291909101810151600084815280835260408082206001600160a01b038c168352909352919091205490915081811015610de75760405162461bcd60e51b815260040161037e90611e91565b6000928352602083815260408085206001600160a01b038b1686529091529092209103905580610e1681611c82565b915050610d5c565b5060006001600160a01b0316846001600160a01b0316826001600160a01b03167f4a39dc06d4c0dbc64b70af90fd698a233a518aa5d07e595d983b8c0526c8f7fb8686604051610e6f929190611e20565b60405180910390a450505050565b816001600160a01b0316836001600160a01b031603610ef05760405162461bcd60e51b815260206004820152602960248201527f455243313135353a2073657474696e6720617070726f76616c20737461747573604482015268103337b91039b2b63360b91b606482015260840161037e565b6001600160a01b03838116600081815260016020908152604080832094871680845294825291829020805460ff191686151590811790915591519182527f17307eab39ab6107e8899845ad3d59bd9653f200f220920489ca2b5937696c31910160405180910390a3505050565b6001600160a01b038416610f835760405162461bcd60e51b815260040161037e90611d91565b33610f93818787610aa68861117b565b6000848152602081815260408083206001600160a01b038a16845290915290205483811015610fd45760405162461bcd60e51b815260040161037e90611dd6565b6000858152602081815260408083206001600160a01b038b8116855292528083208785039055908816825281208054869290611011908490611d31565b909155505060408051868152602081018690526001600160a01b03808916928a821692918616917fc3d58168c5ae7397731d063d5bbf3d657854427343f4c083240f7aacaa2d0f62910160405180910390a46110718288888888886111d4565b50505050505050565b6001600160a01b0383166110a05760405162461bcd60e51b815260040161037e90611e4e565b336110cf818560006110b18761117b565b6110ba8761117b565b604051806020016040528060008152506111c6565b6000838152602081815260408083206001600160a01b0388168452909152902054828110156111105760405162461bcd60e51b815260040161037e90611e91565b6000848152602081815260408083206001600160a01b03898116808652918452828520888703905582518981529384018890529092908616917fc3d58168c5ae7397731d063d5bbf3d657854427343f4c083240f7aacaa2d0f62910160405180910390a45050505050565b604080516001808252818301909252606091600091906020808301908036833701905050905082816000815181106111b5576111b5611c56565b602090810291909101015292915050565b610ce78686868686866113ea565b6001600160a01b0384163b15610ce75760405163f23a6e6160e01b81526001600160a01b0385169063f23a6e61906112189089908990889088908890600401611ed5565b6020604051808303816000875af1925050508015611253575060408051601f3d908101601f1916820190925261125091810190611f1a565b60015b6112ff5761125f611f37565b806308c379a0036112985750611273611f53565b8061127e575061129a565b8060405162461bcd60e51b815260040161037e9190611678565b505b60405162461bcd60e51b815260206004820152603460248201527f455243313135353a207472616e7366657220746f206e6f6e20455243313135356044820152732932b1b2b4bb32b91034b6b83632b6b2b73a32b960611b606482015260840161037e565b6001600160e01b0319811663f23a6e6160e01b146110715760405162461bcd60e51b815260040161037e90611fdc565b6001600160a01b0384163b15610ce75760405163bc197c8160e01b81526001600160a01b0385169063bc197c81906113739089908990889088908890600401612024565b6020604051808303816000875af19250505080156113ae575060408051601f3d908101601f191682019092526113ab91810190611f1a565b60015b6113ba5761125f611f37565b6001600160e01b0319811663bc197c8160e01b146110715760405162461bcd60e51b815260040161037e90611fdc565b6001600160a01b0385166114715760005b835181101561146f5782818151811061141657611416611c56565b60200260200101516003600086848151811061143457611434611c56565b6020026020010151815260200190815260200160002060008282546114599190611d31565b90915550611468905081611c82565b90506113fb565b505b6001600160a01b038416610ce75760005b83518110156110715782818151811061149d5761149d611c56565b6020026020010151600360008684815181106114bb576114bb611c56565b6020026020010151815260200190815260200160002060008282546114e09190612082565b909155506114ef905081611c82565b9050611482565b82805461150290611c1c565b90600052602060002090601f016020900481019282611524576000855561156a565b82601f1061153d5782800160ff1982351617855561156a565b8280016001018555821561156a579182015b8281111561156a57823582559160200191906001019061154f565b5061157692915061157a565b5090565b5b80821115611576576000815560010161157b565b80356001600160a01b03811681146115a657600080fd5b919050565b600080604083850312156115be57600080fd5b6115c78361158f565b946020939093013593505050565b6001600160e01b0319811681146115eb57600080fd5b50565b60006020828403121561160057600080fd5b813561160b816115d5565b9392505050565b60006020828403121561162457600080fd5b5035919050565b6000815180845260005b8181101561165157602081850181015186830182015201611635565b81811115611663576000602083870101525b50601f01601f19169290920160200192915050565b60208152600061160b602083018461162b565b6000806000606084860312156116a057600080fd5b6116a98461158f565b95602085013595506040909401359392505050565b634e487b7160e01b600052604160045260246000fd5b601f8201601f191681016001600160401b03811182821017156116f9576116f96116be565b6040525050565b60006001600160401b03821115611719576117196116be565b5060051b60200190565b600082601f83011261173457600080fd5b8135602061174182611700565b60405161174e82826116d4565b83815260059390931b850182019282810191508684111561176e57600080fd5b8286015b848110156117895780358352918301918301611772565b509695505050505050565b600082601f8301126117a557600080fd5b81356001600160401b038111156117be576117be6116be565b6040516117d5601f8301601f1916602001826116d4565b8181528460208386010111156117ea57600080fd5b816020850160208301376000918101602001919091529392505050565b600080600080600060a0868803121561181f57600080fd5b6118288661158f565b94506118366020870161158f565b935060408601356001600160401b038082111561185257600080fd5b61185e89838a01611723565b9450606088013591508082111561187457600080fd5b61188089838a01611723565b9350608088013591508082111561189657600080fd5b506118a388828901611794565b9150509295509295909350565b600080604083850312156118c357600080fd5b82356001600160401b03808211156118da57600080fd5b818501915085601f8301126118ee57600080fd5b813560206118fb82611700565b60405161190882826116d4565b83815260059390931b850182019282810191508984111561192857600080fd5b948201945b8386101561194d5761193e8661158f565b8252948201949082019061192d565b9650508601359250508082111561196357600080fd5b5061197085828601611723565b9150509250929050565b600081518084526020808501945080840160005b838110156119aa5781518752958201959082019060010161198e565b509495945050505050565b60208152600061160b602083018461197a565b6000806000606084860312156119dd57600080fd5b6119e68461158f565b925060208401356001600160401b0380821115611a0257600080fd5b611a0e87838801611723565b93506040860135915080821115611a2457600080fd5b50611a3186828701611723565b9150509250925092565b600080600060408486031215611a5057600080fd5b83356001600160401b0380821115611a6757600080fd5b818601915086601f830112611a7b57600080fd5b813581811115611a8a57600080fd5b876020828501011115611a9c57600080fd5b602092830195509350611ab2918601905061158f565b90509250925092565b604081526000611ace604083018561162b565b905060018060a01b03831660208301529392505050565b60008060408385031215611af857600080fd5b611b018361158f565b915060208301358015158114611b1657600080fd5b809150509250929050565b600080600060408486031215611b3657600080fd5b83356001600160401b0380821115611b4d57600080fd5b818601915086601f830112611b6157600080fd5b813581811115611b7057600080fd5b8760208260051b8501011115611a9c57600080fd5b60008060408385031215611b9857600080fd5b611ba18361158f565b9150611baf6020840161158f565b90509250929050565b600080600080600060a08688031215611bd057600080fd5b611bd98661158f565b9450611be76020870161158f565b9350604086013592506060860135915060808601356001600160401b03811115611c1057600080fd5b6118a388828901611794565b600181811c90821680611c3057607f821691505b602082108103611c5057634e487b7160e01b600052602260045260246000fd5b50919050565b634e487b7160e01b600052603260045260246000fd5b634e487b7160e01b600052601160045260246000fd5b600060018201611c9457611c94611c6c565b5060010190565b60208082526029908201527f455243313135353a2063616c6c6572206973206e6f74206f776e6572206e6f7260408201526808185c1c1c9bdd995960ba1b606082015260800190565b6000808335601e19843603018112611cfb57600080fd5b8301803591506001600160401b03821115611d1557600080fd5b602001915036819003821315611d2a57600080fd5b9250929050565b60008219821115611d4457611d44611c6c565b500190565b60208082526028908201527f455243313135353a2069647320616e6420616d6f756e7473206c656e677468206040820152670dad2e6dac2e8c6d60c31b606082015260800190565b60208082526025908201527f455243313135353a207472616e7366657220746f20746865207a65726f206164604082015264647265737360d81b606082015260800190565b6020808252602a908201527f455243313135353a20696e73756666696369656e742062616c616e636520666f60408201526939103a3930b739b332b960b11b606082015260800190565b604081526000611e33604083018561197a565b8281036020840152611e45818561197a565b95945050505050565b60208082526023908201527f455243313135353a206275726e2066726f6d20746865207a65726f206164647260408201526265737360e81b606082015260800190565b60208082526024908201527f455243313135353a206275726e20616d6f756e7420657863656564732062616c604082015263616e636560e01b606082015260800190565b6001600160a01b03868116825285166020820152604081018490526060810183905260a060808201819052600090611f0f9083018461162b565b979650505050505050565b600060208284031215611f2c57600080fd5b815161160b816115d5565b600060033d1115611f505760046000803e5060005160e01c5b90565b600060443d1015611f615790565b6040516003193d81016004833e81513d6001600160401b038160248401118184111715611f9057505050505090565b8285019150815181811115611fa85750505050505090565b843d8701016020828501011115611fc25750505050505090565b611fd1602082860101876116d4565b509095945050505050565b60208082526028908201527f455243313135353a204552433131353552656365697665722072656a656374656040820152676420746f6b656e7360c01b606082015260800190565b6001600160a01b0386811682528516602082015260a0604082018190526000906120509083018661197a565b8281036060840152612062818661197a565b90508281036080840152612076818561162b565b98975050505050505050565b60008282101561209457612094611c6c565b50039056fea2646970667358221220e9ec21e97ce30fce5cd3f668b453bec1f20f6e8b5ec4e837b5b87fd76f7d710364736f6c634300080d0033",
  "devdoc": {
    "kind": "dev",
    "methods": {
      "balanceOf(address,uint256)": {
        "details": "See {IERC1155-balanceOf}. Requirements: - `account` cannot be the zero address."
      },
      "balanceOfBatch(address[],uint256[])": {
        "details": "See {IERC1155-balanceOfBatch}. Requirements: - `accounts` and `ids` must have the same length."
      },
      "exists(uint256)": {
        "details": "Indicates whether any token exist with a given id, or not."
      },
      "isApprovedForAll(address,address)": {
        "details": "See {IERC1155-isApprovedForAll}."
      },
      "safeBatchTransferFrom(address,address,uint256[],uint256[],bytes)": {
        "details": "See {IERC1155-safeBatchTransferFrom}."
      },
      "safeTransferFrom(address,address,uint256,uint256,bytes)": {
        "details": "See {IERC1155-safeTransferFrom}."
      },
      "setApprovalForAll(address,bool)": {
        "details": "See {IERC1155-setApprovalForAll}."
      },
      "supportsInterface(bytes4)": {
        "details": "See {IERC165-supportsInterface}."
      },
      "totalSupply(uint256)": {
        "details": "Total amount of tokens in with a given id."
      },
      "uri(uint256)": {
        "details": "See {IERC1155MetadataURI-uri}. This implementation returns the same URI for *all* token types. It relies on the token type ID substitution mechanism https://eips.ethereum.org/EIPS/eip-1155#metadata[defined in the EIP]. Clients calling this function must replace the `\\{id\\}` substring with the actual token type ID."
      }
    },
    "version": 1
  },
  "userdoc": {
    "kind": "user",
    "methods": {},
    "version": 1
  },
  "storageLayout": {
    "storage": [
      {
        "astId": 1745,
        "contract": "contracts/Element.sol:Element",
        "label": "_balances",
        "offset": 0,
        "slot": "0",
        "type": "t_mapping(t_uint256,t_mapping(t_address,t_uint256))"
      },
      {
        "astId": 1751,
        "contract": "contracts/Element.sol:Element",
        "label": "_operatorApprovals",
        "offset": 0,
        "slot": "1",
        "type": "t_mapping(t_address,t_mapping(t_address,t_bool))"
      },
      {
        "astId": 1753,
        "contract": "contracts/Element.sol:Element",
        "label": "_uri",
        "offset": 0,
        "slot": "2",
        "type": "t_string_storage"
      },
      {
        "astId": 3057,
        "contract": "contracts/Element.sol:Element",
        "label": "_totalSupply",
        "offset": 0,
        "slot": "3",
        "type": "t_mapping(t_uint256,t_uint256)"
      },
      {
        "astId": 5930,
        "contract": "contracts/Element.sol:Element",
        "label": "nextTokenId",
        "offset": 0,
        "slot": "4",
        "type": "t_uint256"
      },
      {
        "astId": 5935,
        "contract": "contracts/Element.sol:Element",
        "label": "features",
        "offset": 0,
        "slot": "5",
        "type": "t_mapping(t_uint256,t_struct(Feature)7841_storage)"
      }
    ],
    "types": {
      "t_address": {
        "encoding": "inplace",
        "label": "address",
        "numberOfBytes": "20"
      },
      "t_bool": {
        "encoding": "inplace",
        "label": "bool",
        "numberOfBytes": "1"
      },
      "t_mapping(t_address,t_bool)": {
        "encoding": "mapping",
        "key": "t_address",
        "label": "mapping(address => bool)",
        "numberOfBytes": "32",
        "value": "t_bool"
      },
      "t_mapping(t_address,t_mapping(t_address,t_bool))": {
        "encoding": "mapping",
        "key": "t_address",
        "label": "mapping(address => mapping(address => bool))",
        "numberOfBytes": "32",
        "value": "t_mapping(t_address,t_bool)"
      },
      "t_mapping(t_address,t_uint256)": {
        "encoding": "mapping",
        "key": "t_address",
        "label": "mapping(address => uint256)",
        "numberOfBytes": "32",
        "value": "t_uint256"
      },
      "t_mapping(t_uint256,t_mapping(t_address,t_uint256))": {
        "encoding": "mapping",
        "key": "t_uint256",
        "label": "mapping(uint256 => mapping(address => uint256))",
        "numberOfBytes": "32",
        "value": "t_mapping(t_address,t_uint256)"
      },
      "t_mapping(t_uint256,t_struct(Feature)7841_storage)": {
        "encoding": "mapping",
        "key": "t_uint256",
        "label": "mapping(uint256 => struct IElement.Feature)",
        "numberOfBytes": "32",
        "value": "t_struct(Feature)7841_storage"
      },
      "t_mapping(t_uint256,t_uint256)": {
        "encoding": "mapping",
        "key": "t_uint256",
        "label": "mapping(uint256 => uint256)",
        "numberOfBytes": "32",
        "value": "t_uint256"
      },
      "t_string_storage": {
        "encoding": "bytes",
        "label": "string",
        "numberOfBytes": "32"
      },
      "t_struct(Feature)7841_storage": {
        "encoding": "inplace",
        "label": "struct IElement.Feature",
        "members": [
          {
            "astId": 7838,
            "contract": "contracts/Element.sol:Element",
            "label": "label",
            "offset": 0,
            "slot": "0",
            "type": "t_string_storage"
          },
          {
            "astId": 7840,
            "contract": "contracts/Element.sol:Element",
            "label": "minter",
            "offset": 0,
            "slot": "1",
            "type": "t_address"
          }
        ],
        "numberOfBytes": "64"
      },
      "t_uint256": {
        "encoding": "inplace",
        "label": "uint256",
        "numberOfBytes": "32"
      }
    }
  }
}