{
  "address": "0x93699e794Ab3010d8113c2D542cfA52c3DaefF37",
  "abi": [
    {
      "inputs": [],
      "name": "OnlyAdmin",
      "type": "error"
    },
    {
      "anonymous": false,
      "inputs": [
        {
          "indexed": false,
          "internalType": "uint8",
          "name": "version",
          "type": "uint8"
        }
      ],
      "name": "Initialized",
      "type": "event"
    },
    {
      "anonymous": false,
      "inputs": [
        {
          "indexed": true,
          "internalType": "address",
          "name": "previousOwner",
          "type": "address"
        },
        {
          "indexed": true,
          "internalType": "address",
          "name": "newOwner",
          "type": "address"
        }
      ],
      "name": "OwnershipTransferred",
      "type": "event"
    },
    {
      "anonymous": false,
      "inputs": [
        {
          "indexed": false,
          "internalType": "uint256",
          "name": "projectId",
          "type": "uint256"
        },
        {
          "indexed": false,
          "internalType": "address",
          "name": "artwork",
          "type": "address"
        },
        {
          "indexed": false,
          "internalType": "address",
          "name": "traits",
          "type": "address"
        }
      ],
      "name": "ProjectRegistered",
      "type": "event"
    },
    {
      "inputs": [
        {
          "internalType": "address[]",
          "name": "_admins",
          "type": "address[]"
        }
      ],
      "name": "addAdmins",
      "outputs": [],
      "stateMutability": "nonpayable",
      "type": "function"
    },
    {
      "inputs": [
        {
          "internalType": "address",
          "name": "",
          "type": "address"
        }
      ],
      "name": "admins",
      "outputs": [
        {
          "internalType": "bool",
          "name": "",
          "type": "bool"
        }
      ],
      "stateMutability": "view",
      "type": "function"
    },
    {
      "inputs": [
        {
          "internalType": "address",
          "name": "_owner",
          "type": "address"
        },
        {
          "internalType": "address[]",
          "name": "_admins",
          "type": "address[]"
        }
      ],
      "name": "initialize",
      "outputs": [],
      "stateMutability": "nonpayable",
      "type": "function"
    },
    {
      "inputs": [],
      "name": "owner",
      "outputs": [
        {
          "internalType": "address",
          "name": "",
          "type": "address"
        }
      ],
      "stateMutability": "view",
      "type": "function"
    },
    {
      "inputs": [],
      "name": "projectCount",
      "outputs": [
        {
          "internalType": "uint256",
          "name": "",
          "type": "uint256"
        }
      ],
      "stateMutability": "view",
      "type": "function"
    },
    {
      "inputs": [
        {
          "internalType": "uint256",
          "name": "",
          "type": "uint256"
        }
      ],
      "name": "projects",
      "outputs": [
        {
          "internalType": "address",
          "name": "artwork",
          "type": "address"
        },
        {
          "internalType": "address",
          "name": "traits",
          "type": "address"
        }
      ],
      "stateMutability": "view",
      "type": "function"
    },
    {
      "inputs": [
        {
          "internalType": "address",
          "name": "_artwork",
          "type": "address"
        },
        {
          "internalType": "address",
          "name": "_traits",
          "type": "address"
        }
      ],
      "name": "registerProject",
      "outputs": [],
      "stateMutability": "nonpayable",
      "type": "function"
    },
    {
      "inputs": [
        {
          "internalType": "address[]",
          "name": "_admins",
          "type": "address[]"
        }
      ],
      "name": "removeAdmins",
      "outputs": [],
      "stateMutability": "nonpayable",
      "type": "function"
    },
    {
      "inputs": [],
      "name": "renounceOwnership",
      "outputs": [],
      "stateMutability": "nonpayable",
      "type": "function"
    },
    {
      "inputs": [
        {
          "internalType": "address",
          "name": "newOwner",
          "type": "address"
        }
      ],
      "name": "transferOwnership",
      "outputs": [],
      "stateMutability": "nonpayable",
      "type": "function"
    }
  ],
  "transactionHash": "0x89790819032471edef07c0fe8bd79c0026769a60983f6c83840cc1ba439f41b5",
  "args": [],
  "numDeployments": 1,
  "solcInputHash": "f1f20fdbea3f4b925fedd8a7270d384a",
  "bytecode": "0x608060405234801561001057600080fd5b50610862806100206000396000f3fe608060405234801561001057600080fd5b50600436106100be5760003560e01c8063715018a611610076578063946d92041161005b578063946d9204146101b15780639c54df64146101c4578063f2fde38b146101d757600080fd5b8063715018a61461018e5780638da5cb5b1461019657600080fd5b8063377e11e0116100a7578063377e11e014610133578063429b62e5146101485780635af438001461017b57600080fd5b8063107046bd146100c357806336fbad261461011c575b600080fd5b6100f76100d1366004610684565b606760205260009081526040902080546001909101546001600160a01b03918216911682565b604080516001600160a01b039384168152929091166020830152015b60405180910390f35b61012560655481565b604051908152602001610113565b6101466101413660046106e9565b6101ea565b005b61016b610156366004610747565b60666020526000908152604090205460ff1681565b6040519015158152602001610113565b610146610189366004610769565b610200565b6101466102f9565b6033546040516001600160a01b039091168152602001610113565b6101466101bf36600461079c565b61030d565b6101466101d23660046106e9565b610440565b6101466101e5366004610747565b610452565b6101f26104e2565b6101fc828261053c565b5050565b3360009081526066602052604090205460ff16610249576040517f4755657900000000000000000000000000000000000000000000000000000000815260040160405180910390fd5b60658054906000610259836107ef565b909155505060658054600090815260676020908152604080832080546001600160a01b0388811673ffffffffffffffffffffffffffffffffffffffff1992831681179093558654865294839020600101805495881695909116851790559354815190815291820193909352918201527f7024d444707bcd36a8b0a076e120d984b0f8431dc1aa0513f728193d34a630dd9060600160405180910390a15050565b6103016104e2565b61030b60006105b3565b565b600054610100900460ff161580801561032d5750600054600160ff909116105b806103475750303b158015610347575060005460ff166001145b6103be5760405162461bcd60e51b815260206004820152602e60248201527f496e697469616c697a61626c653a20636f6e747261637420697320616c72656160448201527f647920696e697469616c697a656400000000000000000000000000000000000060648201526084015b60405180910390fd5b6000805460ff1916600117905580156103e1576000805461ff0019166101001790555b6103ea846105b3565b6103f48383610612565b801561043a576000805461ff0019169055604051600181527f7f26b83ff96e1f2b6a682f133852f6798a09c465da95921460cefb38474024989060200160405180910390a15b50505050565b6104486104e2565b6101fc8282610612565b61045a6104e2565b6001600160a01b0381166104d65760405162461bcd60e51b815260206004820152602660248201527f4f776e61626c653a206e6577206f776e657220697320746865207a65726f206160448201527f646472657373000000000000000000000000000000000000000000000000000060648201526084016103b5565b6104df816105b3565b50565b6033546001600160a01b0316331461030b5760405162461bcd60e51b815260206004820181905260248201527f4f776e61626c653a2063616c6c6572206973206e6f7420746865206f776e657260448201526064016103b5565b60005b818110156105ae5760006066600085858581811061055f5761055f610816565b90506020020160208101906105749190610747565b6001600160a01b031681526020810191909152604001600020805460ff1916911515919091179055806105a6816107ef565b91505061053f565b505050565b603380546001600160a01b0383811673ffffffffffffffffffffffffffffffffffffffff19831681179093556040519116919082907f8be0079c531659141344cd1fd0a4f28419497f9722a3daafe3b4186f6b6457e090600090a35050565b60005b818110156105ae5760016066600085858581811061063557610635610816565b905060200201602081019061064a9190610747565b6001600160a01b031681526020810191909152604001600020805460ff19169115159190911790558061067c816107ef565b915050610615565b60006020828403121561069657600080fd5b5035919050565b60008083601f8401126106af57600080fd5b50813567ffffffffffffffff8111156106c757600080fd5b6020830191508360208260051b85010111156106e257600080fd5b9250929050565b600080602083850312156106fc57600080fd5b823567ffffffffffffffff81111561071357600080fd5b61071f8582860161069d565b90969095509350505050565b80356001600160a01b038116811461074257600080fd5b919050565b60006020828403121561075957600080fd5b6107628261072b565b9392505050565b6000806040838503121561077c57600080fd5b6107858361072b565b91506107936020840161072b565b90509250929050565b6000806000604084860312156107b157600080fd5b6107ba8461072b565b9250602084013567ffffffffffffffff8111156107d657600080fd5b6107e28682870161069d565b9497909650939450505050565b60006001820161080f57634e487b7160e01b600052601160045260246000fd5b5060010190565b634e487b7160e01b600052603260045260246000fdfea2646970667358221220a8879efb7040577343306425673bd2c26624319845bd5bd48c74df835e94bc4364736f6c63430008130033",
  "devdoc": {
    "events": {
      "Initialized(uint8)": {
        "details": "Triggered when the contract has been initialized or reinitialized."
      }
    },
    "kind": "dev",
    "methods": {
      "owner()": {
        "details": "Returns the address of the current owner."
      },
      "renounceOwnership()": {
        "details": "Leaves the contract without owner. It will not be possible to call `onlyOwner` functions anymore. Can only be called by the current owner. NOTE: Renouncing ownership will leave the contract without an owner, thereby removing any functionality that is only available to the owner."
      },
      "transferOwnership(address)": {
        "details": "Transfers ownership of the contract to a new account (`newOwner`). Can only be called by the current owner."
      }
    },
    "version": 1
  },
  "userdoc": {
    "kind": "user",
    "methods": {},
    "version": 1
  },
  "storageLayout": {
    "storage": [
      {
        "astId": 138,
        "contract": "contracts/ProjectRegistry.sol:ProjectRegistry",
        "label": "_initialized",
        "offset": 0,
        "slot": "0",
        "type": "t_uint8"
      },
      {
        "astId": 141,
        "contract": "contracts/ProjectRegistry.sol:ProjectRegistry",
        "label": "_initializing",
        "offset": 1,
        "slot": "0",
        "type": "t_bool"
      },
      {
        "astId": 625,
        "contract": "contracts/ProjectRegistry.sol:ProjectRegistry",
        "label": "__gap",
        "offset": 0,
        "slot": "1",
        "type": "t_array(t_uint256)50_storage"
      },
      {
        "astId": 10,
        "contract": "contracts/ProjectRegistry.sol:ProjectRegistry",
        "label": "_owner",
        "offset": 0,
        "slot": "51",
        "type": "t_address"
      },
      {
        "astId": 130,
        "contract": "contracts/ProjectRegistry.sol:ProjectRegistry",
        "label": "__gap",
        "offset": 0,
        "slot": "52",
        "type": "t_array(t_uint256)49_storage"
      },
      {
        "astId": 639,
        "contract": "contracts/ProjectRegistry.sol:ProjectRegistry",
        "label": "projectCount",
        "offset": 0,
        "slot": "101",
        "type": "t_uint256"
      },
      {
        "astId": 643,
        "contract": "contracts/ProjectRegistry.sol:ProjectRegistry",
        "label": "admins",
        "offset": 0,
        "slot": "102",
        "type": "t_mapping(t_address,t_bool)"
      },
      {
        "astId": 648,
        "contract": "contracts/ProjectRegistry.sol:ProjectRegistry",
        "label": "projects",
        "offset": 0,
        "slot": "103",
        "type": "t_mapping(t_uint256,t_struct(Project)637_storage)"
      }
    ],
    "types": {
      "t_address": {
        "encoding": "inplace",
        "label": "address",
        "numberOfBytes": "20"
      },
      "t_array(t_uint256)49_storage": {
        "base": "t_uint256",
        "encoding": "inplace",
        "label": "uint256[49]",
        "numberOfBytes": "1568"
      },
      "t_array(t_uint256)50_storage": {
        "base": "t_uint256",
        "encoding": "inplace",
        "label": "uint256[50]",
        "numberOfBytes": "1600"
      },
      "t_bool": {
        "encoding": "inplace",
        "label": "bool",
        "numberOfBytes": "1"
      },
      "t_mapping(t_address,t_bool)": {
        "encoding": "mapping",
        "key": "t_address",
        "label": "mapping(address => bool)",
        "numberOfBytes": "32",
        "value": "t_bool"
      },
      "t_mapping(t_uint256,t_struct(Project)637_storage)": {
        "encoding": "mapping",
        "key": "t_uint256",
        "label": "mapping(uint256 => struct ProjectRegistry.Project)",
        "numberOfBytes": "32",
        "value": "t_struct(Project)637_storage"
      },
      "t_struct(Project)637_storage": {
        "encoding": "inplace",
        "label": "struct ProjectRegistry.Project",
        "members": [
          {
            "astId": 634,
            "contract": "contracts/ProjectRegistry.sol:ProjectRegistry",
            "label": "artwork",
            "offset": 0,
            "slot": "0",
            "type": "t_address"
          },
          {
            "astId": 636,
            "contract": "contracts/ProjectRegistry.sol:ProjectRegistry",
            "label": "traits",
            "offset": 0,
            "slot": "1",
            "type": "t_address"
          }
        ],
        "numberOfBytes": "64"
      },
      "t_uint256": {
        "encoding": "inplace",
        "label": "uint256",
        "numberOfBytes": "32"
      },
      "t_uint8": {
        "encoding": "inplace",
        "label": "uint8",
        "numberOfBytes": "1"
      }
    }
  }
}