{
  "address": "0x2F845194220b69D2aeb8E5cA314ED531CfC6CB9e",
  "abi": [
    {
      "anonymous": false,
      "inputs": [
        {
          "indexed": false,
          "internalType": "uint8",
          "name": "version",
          "type": "uint8"
        }
      ],
      "name": "Initialized",
      "type": "event"
    },
    {
      "anonymous": false,
      "inputs": [
        {
          "indexed": true,
          "internalType": "address",
          "name": "previousOwner",
          "type": "address"
        },
        {
          "indexed": true,
          "internalType": "address",
          "name": "newOwner",
          "type": "address"
        }
      ],
      "name": "OwnershipTransferred",
      "type": "event"
    },
    {
      "anonymous": false,
      "inputs": [
        {
          "indexed": false,
          "internalType": "uint256",
          "name": "projectId",
          "type": "uint256"
        },
        {
          "indexed": false,
          "internalType": "address",
          "name": "studio",
          "type": "address"
        },
        {
          "indexed": false,
          "internalType": "address",
          "name": "traits",
          "type": "address"
        }
      ],
      "name": "ProjectRegistered",
      "type": "event"
    },
    {
      "inputs": [
        {
          "internalType": "address[]",
          "name": "_admins",
          "type": "address[]"
        }
      ],
      "name": "addAdmins",
      "outputs": [],
      "stateMutability": "nonpayable",
      "type": "function"
    },
    {
      "inputs": [
        {
          "internalType": "address",
          "name": "",
          "type": "address"
        }
      ],
      "name": "admins",
      "outputs": [
        {
          "internalType": "bool",
          "name": "",
          "type": "bool"
        }
      ],
      "stateMutability": "view",
      "type": "function"
    },
    {
      "inputs": [
        {
          "internalType": "address",
          "name": "_owner",
          "type": "address"
        },
        {
          "internalType": "address[]",
          "name": "_admins",
          "type": "address[]"
        }
      ],
      "name": "initialize",
      "outputs": [],
      "stateMutability": "nonpayable",
      "type": "function"
    },
    {
      "inputs": [],
      "name": "owner",
      "outputs": [
        {
          "internalType": "address",
          "name": "",
          "type": "address"
        }
      ],
      "stateMutability": "view",
      "type": "function"
    },
    {
      "inputs": [
        {
          "internalType": "uint256",
          "name": "",
          "type": "uint256"
        }
      ],
      "name": "projects",
      "outputs": [
        {
          "internalType": "address",
          "name": "studio",
          "type": "address"
        },
        {
          "internalType": "address",
          "name": "traits",
          "type": "address"
        }
      ],
      "stateMutability": "view",
      "type": "function"
    },
    {
      "inputs": [
        {
          "internalType": "address",
          "name": "_studio",
          "type": "address"
        },
        {
          "internalType": "address",
          "name": "_traits",
          "type": "address"
        }
      ],
      "name": "registerProject",
      "outputs": [],
      "stateMutability": "nonpayable",
      "type": "function"
    },
    {
      "inputs": [
        {
          "internalType": "address[]",
          "name": "_admins",
          "type": "address[]"
        }
      ],
      "name": "removeAdmins",
      "outputs": [],
      "stateMutability": "nonpayable",
      "type": "function"
    },
    {
      "inputs": [],
      "name": "renounceOwnership",
      "outputs": [],
      "stateMutability": "nonpayable",
      "type": "function"
    },
    {
      "inputs": [
        {
          "internalType": "address",
          "name": "newOwner",
          "type": "address"
        }
      ],
      "name": "transferOwnership",
      "outputs": [],
      "stateMutability": "nonpayable",
      "type": "function"
    }
  ],
  "transactionHash": "0xbbb8991a529413aa44e14d3f5f5644e27ab44064777cce4194a5618acd9f5098",
  "args": [],
  "numDeployments": 1,
  "solcInputHash": "f723fb7c620664b6470e8153351c1ed9",
  "bytecode": "0x6080604052600160655534801561001557600080fd5b50610846806100256000396000f3fe608060405234801561001057600080fd5b50600436106100a35760003560e01c8063715018a611610076578063946d92041161005b578063946d92041461017f5780639c54df6414610192578063f2fde38b146101a557600080fd5b8063715018a61461015c5780638da5cb5b1461016457600080fd5b8063107046bd146100a8578063377e11e014610101578063429b62e5146101165780635af4380014610149575b600080fd5b6100dc6100b6366004610668565b606760205260009081526040902080546001909101546001600160a01b03918216911682565b604080516001600160a01b039384168152929091166020830152015b60405180910390f35b61011461010f3660046106cd565b6101b8565b005b61013961012436600461072b565b60666020526000908152604090205460ff1681565b60405190151581526020016100f8565b61011461015736600461074d565b6101ce565b6101146102e2565b6033546040516001600160a01b0390911681526020016100f8565b61011461018d366004610780565b6102f6565b6101146101a03660046106cd565b610424565b6101146101b336600461072b565b610436565b6101c06104c6565b6101ca8282610520565b5050565b3360009081526066602052604090205460ff166102325760405162461bcd60e51b815260206004820152600360248201527f503031000000000000000000000000000000000000000000000000000000000060448201526064015b60405180910390fd5b60658054600090815260676020908152604080832080546001600160a01b0388811673ffffffffffffffffffffffffffffffffffffffff1992831681179093558654865294839020600101805495881695909116851790559354815190815291820193909352918201527f7024d444707bcd36a8b0a076e120d984b0f8431dc1aa0513f728193d34a630dd9060600160405180910390a1606580549060006102d9836107d3565b91905055505050565b6102ea6104c6565b6102f46000610597565b565b600054610100900460ff16158080156103165750600054600160ff909116105b806103305750303b158015610330575060005460ff166001145b6103a25760405162461bcd60e51b815260206004820152602e60248201527f496e697469616c697a61626c653a20636f6e747261637420697320616c72656160448201527f647920696e697469616c697a65640000000000000000000000000000000000006064820152608401610229565b6000805460ff1916600117905580156103c5576000805461ff0019166101001790555b6103ce84610597565b6103d883836105f6565b801561041e576000805461ff0019169055604051600181527f7f26b83ff96e1f2b6a682f133852f6798a09c465da95921460cefb38474024989060200160405180910390a15b50505050565b61042c6104c6565b6101ca82826105f6565b61043e6104c6565b6001600160a01b0381166104ba5760405162461bcd60e51b815260206004820152602660248201527f4f776e61626c653a206e6577206f776e657220697320746865207a65726f206160448201527f64647265737300000000000000000000000000000000000000000000000000006064820152608401610229565b6104c381610597565b50565b6033546001600160a01b031633146102f45760405162461bcd60e51b815260206004820181905260248201527f4f776e61626c653a2063616c6c6572206973206e6f7420746865206f776e65726044820152606401610229565b60005b8181101561059257600060666000858585818110610543576105436107fa565b9050602002016020810190610558919061072b565b6001600160a01b031681526020810191909152604001600020805460ff19169115159190911790558061058a816107d3565b915050610523565b505050565b603380546001600160a01b0383811673ffffffffffffffffffffffffffffffffffffffff19831681179093556040519116919082907f8be0079c531659141344cd1fd0a4f28419497f9722a3daafe3b4186f6b6457e090600090a35050565b60005b8181101561059257600160666000858585818110610619576106196107fa565b905060200201602081019061062e919061072b565b6001600160a01b031681526020810191909152604001600020805460ff191691151591909117905580610660816107d3565b9150506105f9565b60006020828403121561067a57600080fd5b5035919050565b60008083601f84011261069357600080fd5b50813567ffffffffffffffff8111156106ab57600080fd5b6020830191508360208260051b85010111156106c657600080fd5b9250929050565b600080602083850312156106e057600080fd5b823567ffffffffffffffff8111156106f757600080fd5b61070385828601610681565b90969095509350505050565b80356001600160a01b038116811461072657600080fd5b919050565b60006020828403121561073d57600080fd5b6107468261070f565b9392505050565b6000806040838503121561076057600080fd5b6107698361070f565b91506107776020840161070f565b90509250929050565b60008060006040848603121561079557600080fd5b61079e8461070f565b9250602084013567ffffffffffffffff8111156107ba57600080fd5b6107c686828701610681565b9497909650939450505050565b6000600182016107f357634e487b7160e01b600052601160045260246000fd5b5060010190565b634e487b7160e01b600052603260045260246000fdfea264697066735822122052c016ff58ae7fc24ea358fa99addb83698ef5b058ad7aaa395becbed7ddb7cc64736f6c63430008120033",
  "devdoc": {
    "events": {
      "Initialized(uint8)": {
        "details": "Triggered when the contract has been initialized or reinitialized."
      }
    },
    "kind": "dev",
    "methods": {
      "owner()": {
        "details": "Returns the address of the current owner."
      },
      "renounceOwnership()": {
        "details": "Leaves the contract without owner. It will not be possible to call `onlyOwner` functions anymore. Can only be called by the current owner. NOTE: Renouncing ownership will leave the contract without an owner, thereby removing any functionality that is only available to the owner."
      },
      "transferOwnership(address)": {
        "details": "Transfers ownership of the contract to a new account (`newOwner`). Can only be called by the current owner."
      }
    },
    "version": 1
  },
  "userdoc": {
    "kind": "user",
    "methods": {},
    "version": 1
  },
  "storageLayout": {
    "storage": [
      {
        "astId": 138,
        "contract": "contracts/ProjectRegistry.sol:ProjectRegistry",
        "label": "_initialized",
        "offset": 0,
        "slot": "0",
        "type": "t_uint8"
      },
      {
        "astId": 141,
        "contract": "contracts/ProjectRegistry.sol:ProjectRegistry",
        "label": "_initializing",
        "offset": 1,
        "slot": "0",
        "type": "t_bool"
      },
      {
        "astId": 625,
        "contract": "contracts/ProjectRegistry.sol:ProjectRegistry",
        "label": "__gap",
        "offset": 0,
        "slot": "1",
        "type": "t_array(t_uint256)50_storage"
      },
      {
        "astId": 10,
        "contract": "contracts/ProjectRegistry.sol:ProjectRegistry",
        "label": "_owner",
        "offset": 0,
        "slot": "51",
        "type": "t_address"
      },
      {
        "astId": 130,
        "contract": "contracts/ProjectRegistry.sol:ProjectRegistry",
        "label": "__gap",
        "offset": 0,
        "slot": "52",
        "type": "t_array(t_uint256)49_storage"
      },
      {
        "astId": 639,
        "contract": "contracts/ProjectRegistry.sol:ProjectRegistry",
        "label": "nextProjectId",
        "offset": 0,
        "slot": "101",
        "type": "t_uint256"
      },
      {
        "astId": 643,
        "contract": "contracts/ProjectRegistry.sol:ProjectRegistry",
        "label": "admins",
        "offset": 0,
        "slot": "102",
        "type": "t_mapping(t_address,t_bool)"
      },
      {
        "astId": 648,
        "contract": "contracts/ProjectRegistry.sol:ProjectRegistry",
        "label": "projects",
        "offset": 0,
        "slot": "103",
        "type": "t_mapping(t_uint256,t_struct(Project)636_storage)"
      }
    ],
    "types": {
      "t_address": {
        "encoding": "inplace",
        "label": "address",
        "numberOfBytes": "20"
      },
      "t_array(t_uint256)49_storage": {
        "base": "t_uint256",
        "encoding": "inplace",
        "label": "uint256[49]",
        "numberOfBytes": "1568"
      },
      "t_array(t_uint256)50_storage": {
        "base": "t_uint256",
        "encoding": "inplace",
        "label": "uint256[50]",
        "numberOfBytes": "1600"
      },
      "t_bool": {
        "encoding": "inplace",
        "label": "bool",
        "numberOfBytes": "1"
      },
      "t_mapping(t_address,t_bool)": {
        "encoding": "mapping",
        "key": "t_address",
        "label": "mapping(address => bool)",
        "numberOfBytes": "32",
        "value": "t_bool"
      },
      "t_mapping(t_uint256,t_struct(Project)636_storage)": {
        "encoding": "mapping",
        "key": "t_uint256",
        "label": "mapping(uint256 => struct ProjectRegistry.Project)",
        "numberOfBytes": "32",
        "value": "t_struct(Project)636_storage"
      },
      "t_struct(Project)636_storage": {
        "encoding": "inplace",
        "label": "struct ProjectRegistry.Project",
        "members": [
          {
            "astId": 633,
            "contract": "contracts/ProjectRegistry.sol:ProjectRegistry",
            "label": "studio",
            "offset": 0,
            "slot": "0",
            "type": "t_address"
          },
          {
            "astId": 635,
            "contract": "contracts/ProjectRegistry.sol:ProjectRegistry",
            "label": "traits",
            "offset": 0,
            "slot": "1",
            "type": "t_address"
          }
        ],
        "numberOfBytes": "64"
      },
      "t_uint256": {
        "encoding": "inplace",
        "label": "uint256",
        "numberOfBytes": "32"
      },
      "t_uint8": {
        "encoding": "inplace",
        "label": "uint8",
        "numberOfBytes": "1"
      }
    }
  }
}