{
  "address": "0x17c3207271531746564B6A2b1E8d8cE8a3D615f1",
  "abi": [
    {
      "anonymous": false,
      "inputs": [
        {
          "indexed": true,
          "internalType": "address",
          "name": "previousOwner",
          "type": "address"
        },
        {
          "indexed": true,
          "internalType": "address",
          "name": "newOwner",
          "type": "address"
        }
      ],
      "name": "OwnershipTransferred",
      "type": "event"
    },
    {
      "anonymous": false,
      "inputs": [
        {
          "indexed": false,
          "internalType": "uint256",
          "name": "projectId",
          "type": "uint256"
        },
        {
          "indexed": false,
          "internalType": "address",
          "name": "studio",
          "type": "address"
        },
        {
          "indexed": false,
          "internalType": "address",
          "name": "traits",
          "type": "address"
        }
      ],
      "name": "ProjectRegistered",
      "type": "event"
    },
    {
      "inputs": [
        {
          "internalType": "address[]",
          "name": "_admins",
          "type": "address[]"
        }
      ],
      "name": "addAdmins",
      "outputs": [],
      "stateMutability": "nonpayable",
      "type": "function"
    },
    {
      "inputs": [
        {
          "internalType": "address",
          "name": "",
          "type": "address"
        }
      ],
      "name": "admins",
      "outputs": [
        {
          "internalType": "bool",
          "name": "",
          "type": "bool"
        }
      ],
      "stateMutability": "view",
      "type": "function"
    },
    {
      "inputs": [
        {
          "internalType": "address",
          "name": "_owner",
          "type": "address"
        },
        {
          "internalType": "address[]",
          "name": "_admins",
          "type": "address[]"
        }
      ],
      "name": "initialize",
      "outputs": [],
      "stateMutability": "nonpayable",
      "type": "function"
    },
    {
      "inputs": [],
      "name": "owner",
      "outputs": [
        {
          "internalType": "address",
          "name": "",
          "type": "address"
        }
      ],
      "stateMutability": "view",
      "type": "function"
    },
    {
      "inputs": [
        {
          "internalType": "uint256",
          "name": "",
          "type": "uint256"
        }
      ],
      "name": "projects",
      "outputs": [
        {
          "internalType": "address",
          "name": "studio",
          "type": "address"
        },
        {
          "internalType": "address",
          "name": "traits",
          "type": "address"
        }
      ],
      "stateMutability": "view",
      "type": "function"
    },
    {
      "inputs": [
        {
          "internalType": "address",
          "name": "_studio",
          "type": "address"
        },
        {
          "internalType": "address",
          "name": "_traits",
          "type": "address"
        }
      ],
      "name": "registerProject",
      "outputs": [],
      "stateMutability": "nonpayable",
      "type": "function"
    },
    {
      "inputs": [
        {
          "internalType": "address[]",
          "name": "_admins",
          "type": "address[]"
        }
      ],
      "name": "removeAdmins",
      "outputs": [],
      "stateMutability": "nonpayable",
      "type": "function"
    },
    {
      "inputs": [],
      "name": "renounceOwnership",
      "outputs": [],
      "stateMutability": "nonpayable",
      "type": "function"
    },
    {
      "inputs": [
        {
          "internalType": "address",
          "name": "newOwner",
          "type": "address"
        }
      ],
      "name": "transferOwnership",
      "outputs": [],
      "stateMutability": "nonpayable",
      "type": "function"
    }
  ],
  "transactionHash": "0x47fe349adb35cb50b64cd4fd32023237133d9d11909191891df4c6927f3f6835",
  "args": [],
  "numDeployments": 1,
  "solcInputHash": "c720be18758ddf1d7ddff4cc78eb8021",
  "bytecode": "0x6080604052600160655534801561001557600080fd5b506108e4806100256000396000f3fe608060405234801561001057600080fd5b50600436106100a35760003560e01c8063715018a611610076578063946d92041161005b578063946d92041461017f5780639c54df6414610192578063f2fde38b146101a557600080fd5b8063715018a61461015c5780638da5cb5b1461016457600080fd5b8063107046bd146100a8578063377e11e014610101578063429b62e5146101165780635af4380014610149575b600080fd5b6100dc6100b6366004610706565b606760205260009081526040902080546001909101546001600160a01b03918216911682565b604080516001600160a01b039384168152929091166020830152015b60405180910390f35b61011461010f36600461076b565b6101b8565b005b6101396101243660046107c9565b60666020526000908152604090205460ff1681565b60405190151581526020016100f8565b6101146101573660046107eb565b610225565b610114610334565b6033546040516001600160a01b0390911681526020016100f8565b61011461018d36600461081e565b61039a565b6101146101a036600461076b565b610478565b6101146101b33660046107c9565b6104dc565b6033546001600160a01b031633146102175760405162461bcd60e51b815260206004820181905260248201527f4f776e61626c653a2063616c6c6572206973206e6f7420746865206f776e657260448201526064015b60405180910390fd5b61022182826105be565b5050565b3360009081526066602052604090205460ff166102845760405162461bcd60e51b815260206004820152600360248201527f5030310000000000000000000000000000000000000000000000000000000000604482015260640161020e565b60658054600090815260676020908152604080832080546001600160a01b0388811673ffffffffffffffffffffffffffffffffffffffff1992831681179093558654865294839020600101805495881695909116851790559354815190815291820193909352918201527f7024d444707bcd36a8b0a076e120d984b0f8431dc1aa0513f728193d34a630dd9060600160405180910390a16065805490600061032b83610871565b91905055505050565b6033546001600160a01b0316331461038e5760405162461bcd60e51b815260206004820181905260248201527f4f776e61626c653a2063616c6c6572206973206e6f7420746865206f776e6572604482015260640161020e565b6103986000610635565b565b600054610100900460ff166103b55760005460ff16156103b9565b303b155b61042b5760405162461bcd60e51b815260206004820152602e60248201527f496e697469616c697a61626c653a20636f6e747261637420697320616c72656160448201527f647920696e697469616c697a6564000000000000000000000000000000000000606482015260840161020e565b600054610100900460ff1615801561044d576000805461ffff19166101011790555b61045684610635565b6104608383610694565b8015610472576000805461ff00191690555b50505050565b6033546001600160a01b031633146104d25760405162461bcd60e51b815260206004820181905260248201527f4f776e61626c653a2063616c6c6572206973206e6f7420746865206f776e6572604482015260640161020e565b6102218282610694565b6033546001600160a01b031633146105365760405162461bcd60e51b815260206004820181905260248201527f4f776e61626c653a2063616c6c6572206973206e6f7420746865206f776e6572604482015260640161020e565b6001600160a01b0381166105b25760405162461bcd60e51b815260206004820152602660248201527f4f776e61626c653a206e6577206f776e657220697320746865207a65726f206160448201527f6464726573730000000000000000000000000000000000000000000000000000606482015260840161020e565b6105bb81610635565b50565b60005b81811015610630576000606660008585858181106105e1576105e1610898565b90506020020160208101906105f691906107c9565b6001600160a01b031681526020810191909152604001600020805460ff19169115159190911790558061062881610871565b9150506105c1565b505050565b603380546001600160a01b0383811673ffffffffffffffffffffffffffffffffffffffff19831681179093556040519116919082907f8be0079c531659141344cd1fd0a4f28419497f9722a3daafe3b4186f6b6457e090600090a35050565b60005b81811015610630576001606660008585858181106106b7576106b7610898565b90506020020160208101906106cc91906107c9565b6001600160a01b031681526020810191909152604001600020805460ff1916911515919091179055806106fe81610871565b915050610697565b60006020828403121561071857600080fd5b5035919050565b60008083601f84011261073157600080fd5b50813567ffffffffffffffff81111561074957600080fd5b6020830191508360208260051b850101111561076457600080fd5b9250929050565b6000806020838503121561077e57600080fd5b823567ffffffffffffffff81111561079557600080fd5b6107a18582860161071f565b90969095509350505050565b80356001600160a01b03811681146107c457600080fd5b919050565b6000602082840312156107db57600080fd5b6107e4826107ad565b9392505050565b600080604083850312156107fe57600080fd5b610807836107ad565b9150610815602084016107ad565b90509250929050565b60008060006040848603121561083357600080fd5b61083c846107ad565b9250602084013567ffffffffffffffff81111561085857600080fd5b6108648682870161071f565b9497909650939450505050565b60006001820161089157634e487b7160e01b600052601160045260246000fd5b5060010190565b634e487b7160e01b600052603260045260246000fdfea2646970667358221220ab840aa018d00daf9956453bf6688a90e582bf7a40588a4d6f58841c9553563364736f6c63430008110033",
  "devdoc": {
    "kind": "dev",
    "methods": {
      "owner()": {
        "details": "Returns the address of the current owner."
      },
      "renounceOwnership()": {
        "details": "Leaves the contract without owner. It will not be possible to call `onlyOwner` functions anymore. Can only be called by the current owner. NOTE: Renouncing ownership will leave the contract without an owner, thereby removing any functionality that is only available to the owner."
      },
      "transferOwnership(address)": {
        "details": "Transfers ownership of the contract to a new account (`newOwner`). Can only be called by the current owner."
      }
    },
    "version": 1
  },
  "userdoc": {
    "kind": "user",
    "methods": {},
    "version": 1
  },
  "storageLayout": {
    "storage": [
      {
        "astId": 130,
        "contract": "contracts/ProjectRegistry.sol:ProjectRegistry",
        "label": "_initialized",
        "offset": 0,
        "slot": "0",
        "type": "t_bool"
      },
      {
        "astId": 133,
        "contract": "contracts/ProjectRegistry.sol:ProjectRegistry",
        "label": "_initializing",
        "offset": 1,
        "slot": "0",
        "type": "t_bool"
      },
      {
        "astId": 3498,
        "contract": "contracts/ProjectRegistry.sol:ProjectRegistry",
        "label": "__gap",
        "offset": 0,
        "slot": "1",
        "type": "t_array(t_uint256)50_storage"
      },
      {
        "astId": 10,
        "contract": "contracts/ProjectRegistry.sol:ProjectRegistry",
        "label": "_owner",
        "offset": 0,
        "slot": "51",
        "type": "t_address"
      },
      {
        "astId": 122,
        "contract": "contracts/ProjectRegistry.sol:ProjectRegistry",
        "label": "__gap",
        "offset": 0,
        "slot": "52",
        "type": "t_array(t_uint256)49_storage"
      },
      {
        "astId": 4368,
        "contract": "contracts/ProjectRegistry.sol:ProjectRegistry",
        "label": "nextProjectId",
        "offset": 0,
        "slot": "101",
        "type": "t_uint256"
      },
      {
        "astId": 4372,
        "contract": "contracts/ProjectRegistry.sol:ProjectRegistry",
        "label": "admins",
        "offset": 0,
        "slot": "102",
        "type": "t_mapping(t_address,t_bool)"
      },
      {
        "astId": 4377,
        "contract": "contracts/ProjectRegistry.sol:ProjectRegistry",
        "label": "projects",
        "offset": 0,
        "slot": "103",
        "type": "t_mapping(t_uint256,t_struct(Project)4365_storage)"
      }
    ],
    "types": {
      "t_address": {
        "encoding": "inplace",
        "label": "address",
        "numberOfBytes": "20"
      },
      "t_array(t_uint256)49_storage": {
        "base": "t_uint256",
        "encoding": "inplace",
        "label": "uint256[49]",
        "numberOfBytes": "1568"
      },
      "t_array(t_uint256)50_storage": {
        "base": "t_uint256",
        "encoding": "inplace",
        "label": "uint256[50]",
        "numberOfBytes": "1600"
      },
      "t_bool": {
        "encoding": "inplace",
        "label": "bool",
        "numberOfBytes": "1"
      },
      "t_mapping(t_address,t_bool)": {
        "encoding": "mapping",
        "key": "t_address",
        "label": "mapping(address => bool)",
        "numberOfBytes": "32",
        "value": "t_bool"
      },
      "t_mapping(t_uint256,t_struct(Project)4365_storage)": {
        "encoding": "mapping",
        "key": "t_uint256",
        "label": "mapping(uint256 => struct ProjectRegistry.Project)",
        "numberOfBytes": "32",
        "value": "t_struct(Project)4365_storage"
      },
      "t_struct(Project)4365_storage": {
        "encoding": "inplace",
        "label": "struct ProjectRegistry.Project",
        "members": [
          {
            "astId": 4362,
            "contract": "contracts/ProjectRegistry.sol:ProjectRegistry",
            "label": "studio",
            "offset": 0,
            "slot": "0",
            "type": "t_address"
          },
          {
            "astId": 4364,
            "contract": "contracts/ProjectRegistry.sol:ProjectRegistry",
            "label": "traits",
            "offset": 0,
            "slot": "1",
            "type": "t_address"
          }
        ],
        "numberOfBytes": "64"
      },
      "t_uint256": {
        "encoding": "inplace",
        "label": "uint256",
        "numberOfBytes": "32"
      }
    }
  }
}