{
  "address": "0x9B150BE6c77646309A6E5bB966E988Ff10Ea22ee",
  "abi": [
    {
      "inputs": [
        {
          "internalType": "address",
          "name": "_owner",
          "type": "address"
        },
        {
          "internalType": "address[]",
          "name": "_admins",
          "type": "address[]"
        }
      ],
      "stateMutability": "nonpayable",
      "type": "constructor"
    },
    {
      "inputs": [],
      "name": "OnlyAdmin",
      "type": "error"
    },
    {
      "anonymous": false,
      "inputs": [
        {
          "indexed": true,
          "internalType": "address",
          "name": "account",
          "type": "address"
        }
      ],
      "name": "AdminAdded",
      "type": "event"
    },
    {
      "anonymous": false,
      "inputs": [
        {
          "indexed": true,
          "internalType": "address",
          "name": "account",
          "type": "address"
        }
      ],
      "name": "AdminRemoved",
      "type": "event"
    },
    {
      "anonymous": false,
      "inputs": [
        {
          "indexed": true,
          "internalType": "address",
          "name": "previousOwner",
          "type": "address"
        },
        {
          "indexed": true,
          "internalType": "address",
          "name": "newOwner",
          "type": "address"
        }
      ],
      "name": "OwnershipTransferred",
      "type": "event"
    },
    {
      "anonymous": false,
      "inputs": [
        {
          "indexed": true,
          "internalType": "uint256",
          "name": "projectId",
          "type": "uint256"
        },
        {
          "indexed": true,
          "internalType": "address",
          "name": "artwork",
          "type": "address"
        },
        {
          "indexed": true,
          "internalType": "address",
          "name": "traits",
          "type": "address"
        }
      ],
      "name": "ProjectRegistered",
      "type": "event"
    },
    {
      "inputs": [
        {
          "internalType": "address[]",
          "name": "_admins",
          "type": "address[]"
        }
      ],
      "name": "addAdmins",
      "outputs": [],
      "stateMutability": "nonpayable",
      "type": "function"
    },
    {
      "inputs": [
        {
          "internalType": "address",
          "name": "",
          "type": "address"
        }
      ],
      "name": "admins",
      "outputs": [
        {
          "internalType": "bool",
          "name": "",
          "type": "bool"
        }
      ],
      "stateMutability": "view",
      "type": "function"
    },
    {
      "inputs": [],
      "name": "owner",
      "outputs": [
        {
          "internalType": "address",
          "name": "",
          "type": "address"
        }
      ],
      "stateMutability": "view",
      "type": "function"
    },
    {
      "inputs": [],
      "name": "projectCount",
      "outputs": [
        {
          "internalType": "uint256",
          "name": "",
          "type": "uint256"
        }
      ],
      "stateMutability": "view",
      "type": "function"
    },
    {
      "inputs": [
        {
          "internalType": "uint256",
          "name": "",
          "type": "uint256"
        }
      ],
      "name": "projects",
      "outputs": [
        {
          "internalType": "address",
          "name": "artwork",
          "type": "address"
        },
        {
          "internalType": "address",
          "name": "traits",
          "type": "address"
        }
      ],
      "stateMutability": "view",
      "type": "function"
    },
    {
      "inputs": [
        {
          "internalType": "address",
          "name": "_artwork",
          "type": "address"
        },
        {
          "internalType": "address",
          "name": "_traits",
          "type": "address"
        }
      ],
      "name": "registerProject",
      "outputs": [],
      "stateMutability": "nonpayable",
      "type": "function"
    },
    {
      "inputs": [
        {
          "internalType": "address[]",
          "name": "_admins",
          "type": "address[]"
        }
      ],
      "name": "removeAdmins",
      "outputs": [],
      "stateMutability": "nonpayable",
      "type": "function"
    },
    {
      "inputs": [],
      "name": "renounceOwnership",
      "outputs": [],
      "stateMutability": "nonpayable",
      "type": "function"
    },
    {
      "inputs": [
        {
          "internalType": "address",
          "name": "newOwner",
          "type": "address"
        }
      ],
      "name": "transferOwnership",
      "outputs": [],
      "stateMutability": "nonpayable",
      "type": "function"
    }
  ],
  "transactionHash": "0x23edf57358ba574b73acd0f08fc4ea951b621b53b5e2889cd66508faaaad4a3b",
  "args": [
    "0xAa9D46AE079851116967c6573f961B304095C34a",
    [
      "0xAa9D46AE079851116967c6573f961B304095C34a"
    ]
  ],
  "numDeployments": 1,
  "solcInputHash": "7d9892c57c7ae2dc635e6cf1cbc21fc6",
  "bytecode": "0x60806040523480156200001157600080fd5b5060405162000a6b38038062000a6b8339810160408190526200003491620001b2565b6200003f336200005d565b6200004a826200005d565b6200005581620000ad565b5050620002d9565b600080546001600160a01b038381166001600160a01b0319831681178455604051919092169283917f8be0079c531659141344cd1fd0a4f28419497f9722a3daafe3b4186f6b6457e09190a35050565b60005b81518110156200017b57600160026000848481518110620000d557620000d56200029b565b60200260200101516001600160a01b03166001600160a01b0316815260200190815260200160002060006101000a81548160ff0219169083151502179055508181815181106200012957620001296200029b565b60200260200101516001600160a01b03167f44d6d25963f097ad14f29f06854a01f575648a1ef82f30e562ccd3889717e33960405160405180910390a2806200017281620002b1565b915050620000b0565b5050565b80516001600160a01b03811681146200019757600080fd5b919050565b634e487b7160e01b600052604160045260246000fd5b60008060408385031215620001c657600080fd5b620001d1836200017f565b602084810151919350906001600160401b0380821115620001f157600080fd5b818601915086601f8301126200020657600080fd5b8151818111156200021b576200021b6200019c565b8060051b604051601f19603f830116810181811085821117156200024357620002436200019c565b6040529182528482019250838101850191898311156200026257600080fd5b938501935b828510156200028b576200027b856200017f565b8452938501939285019262000267565b8096505050505050509250929050565b634e487b7160e01b600052603260045260246000fd5b600060018201620002d257634e487b7160e01b600052601160045260246000fd5b5060010190565b61078280620002e96000396000f3fe608060405234801561001057600080fd5b50600436106100a35760003560e01c80635af43800116100765780638da5cb5b1161005b5780638da5cb5b1461017b5780639c54df6414610196578063f2fde38b146101a957600080fd5b80635af4380014610160578063715018a61461017357600080fd5b8063107046bd146100a857806336fbad2614610101578063377e11e014610118578063429b62e51461012d575b600080fd5b6100dc6100b63660046105aa565b600360205260009081526040902080546001909101546001600160a01b03918216911682565b604080516001600160a01b039384168152929091166020830152015b60405180910390f35b61010a60015481565b6040519081526020016100f8565b61012b6101263660046105f5565b6101bc565b005b61015061013b3660046106ba565b60026020526000908152604090205460ff1681565b60405190151581526020016100f8565b61012b61016e3660046106dc565b6101d0565b61012b6102b0565b6000546040516001600160a01b0390911681526020016100f8565b61012b6101a43660046105f5565b6102c4565b61012b6101b73660046106ba565b6102d5565b6101c4610367565b6101cd816103c1565b50565b3360009081526002602052604090205460ff16610219576040517f4755657900000000000000000000000000000000000000000000000000000000815260040160405180910390fd5b600180549060006102298361070f565b90915550506001805460009081526003602052604080822080546001600160a01b0380881673ffffffffffffffffffffffffffffffffffffffff19928316811790935585548552838520860180549188169190921681179091559354915190927f7024d444707bcd36a8b0a076e120d984b0f8431dc1aa0513f728193d34a630dd91a45050565b6102b8610367565b6102c26000610489565b565b6102cc610367565b6101cd816104e6565b6102dd610367565b6001600160a01b03811661035e5760405162461bcd60e51b815260206004820152602660248201527f4f776e61626c653a206e6577206f776e657220697320746865207a65726f206160448201527f646472657373000000000000000000000000000000000000000000000000000060648201526084015b60405180910390fd5b6101cd81610489565b6000546001600160a01b031633146102c25760405162461bcd60e51b815260206004820181905260248201527f4f776e61626c653a2063616c6c6572206973206e6f7420746865206f776e65726044820152606401610355565b60005b8151811015610485576000600260008484815181106103e5576103e5610736565b60200260200101516001600160a01b03166001600160a01b0316815260200190815260200160002060006101000a81548160ff02191690831515021790555081818151811061043657610436610736565b60200260200101516001600160a01b03167fa3b62bc36326052d97ea62d63c3d60308ed4c3ea8ac079dd8499f1e9c4f80c0f60405160405180910390a28061047d8161070f565b9150506103c4565b5050565b600080546001600160a01b0383811673ffffffffffffffffffffffffffffffffffffffff19831681178455604051919092169283917f8be0079c531659141344cd1fd0a4f28419497f9722a3daafe3b4186f6b6457e09190a35050565b60005b81518110156104855760016002600084848151811061050a5761050a610736565b60200260200101516001600160a01b03166001600160a01b0316815260200190815260200160002060006101000a81548160ff02191690831515021790555081818151811061055b5761055b610736565b60200260200101516001600160a01b03167f44d6d25963f097ad14f29f06854a01f575648a1ef82f30e562ccd3889717e33960405160405180910390a2806105a28161070f565b9150506104e9565b6000602082840312156105bc57600080fd5b5035919050565b634e487b7160e01b600052604160045260246000fd5b80356001600160a01b03811681146105f057600080fd5b919050565b6000602080838503121561060857600080fd5b823567ffffffffffffffff8082111561062057600080fd5b818501915085601f83011261063457600080fd5b813581811115610646576106466105c3565b8060051b604051601f19603f8301168101818110858211171561066b5761066b6105c3565b60405291825284820192508381018501918883111561068957600080fd5b938501935b828510156106ae5761069f856105d9565b8452938501939285019261068e565b98975050505050505050565b6000602082840312156106cc57600080fd5b6106d5826105d9565b9392505050565b600080604083850312156106ef57600080fd5b6106f8836105d9565b9150610706602084016105d9565b90509250929050565b60006001820161072f57634e487b7160e01b600052601160045260246000fd5b5060010190565b634e487b7160e01b600052603260045260246000fdfea2646970667358221220bf60f7b98ec10da2c247df667fdca841ba877c9109c4e48bc06aca9d0aa85e5d64736f6c63430008130033",
  "devdoc": {
    "kind": "dev",
    "methods": {
      "addAdmins(address[])": {
        "params": {
          "_admins": "the addresses to make admins"
        }
      },
      "owner()": {
        "details": "Returns the address of the current owner."
      },
      "registerProject(address,address)": {
        "params": {
          "_artwork": "the address of the Artwork contract",
          "_traits": "the address of the Traits contract"
        }
      },
      "removeAdmins(address[])": {
        "params": {
          "_admins": "the addresses remove from being admins"
        }
      },
      "renounceOwnership()": {
        "details": "Leaves the contract without owner. It will not be possible to call `onlyOwner` functions anymore. Can only be called by the current owner. NOTE: Renouncing ownership will leave the contract without an owner, thereby removing any functionality that is only available to the owner."
      },
      "transferOwnership(address)": {
        "details": "Transfers ownership of the contract to a new account (`newOwner`). Can only be called by the current owner."
      }
    },
    "version": 1
  },
  "userdoc": {
    "kind": "user",
    "methods": {
      "addAdmins(address[])": {
        "notice": "Adds multiple addresses to be made admins"
      },
      "registerProject(address,address)": {
        "notice": "Registers a project by storing the Artwork and Traits contract addresses"
      },
      "removeAdmins(address[])": {
        "notice": "Removes multiple addresses from being admins"
      }
    },
    "notice": "Provides functionality for registering the Traits and Artwork contract addresses for each intrinsic.art project",
    "version": 1
  },
  "storageLayout": {
    "storage": [
      {
        "astId": 7,
        "contract": "contracts/ProjectRegistry.sol:ProjectRegistry",
        "label": "_owner",
        "offset": 0,
        "slot": "0",
        "type": "t_address"
      },
      {
        "astId": 6093,
        "contract": "contracts/ProjectRegistry.sol:ProjectRegistry",
        "label": "projectCount",
        "offset": 0,
        "slot": "1",
        "type": "t_uint256"
      },
      {
        "astId": 6097,
        "contract": "contracts/ProjectRegistry.sol:ProjectRegistry",
        "label": "admins",
        "offset": 0,
        "slot": "2",
        "type": "t_mapping(t_address,t_bool)"
      },
      {
        "astId": 6102,
        "contract": "contracts/ProjectRegistry.sol:ProjectRegistry",
        "label": "projects",
        "offset": 0,
        "slot": "3",
        "type": "t_mapping(t_uint256,t_struct(Project)7408_storage)"
      }
    ],
    "types": {
      "t_address": {
        "encoding": "inplace",
        "label": "address",
        "numberOfBytes": "20"
      },
      "t_bool": {
        "encoding": "inplace",
        "label": "bool",
        "numberOfBytes": "1"
      },
      "t_mapping(t_address,t_bool)": {
        "encoding": "mapping",
        "key": "t_address",
        "label": "mapping(address => bool)",
        "numberOfBytes": "32",
        "value": "t_bool"
      },
      "t_mapping(t_uint256,t_struct(Project)7408_storage)": {
        "encoding": "mapping",
        "key": "t_uint256",
        "label": "mapping(uint256 => struct IProjectRegistry.Project)",
        "numberOfBytes": "32",
        "value": "t_struct(Project)7408_storage"
      },
      "t_struct(Project)7408_storage": {
        "encoding": "inplace",
        "label": "struct IProjectRegistry.Project",
        "members": [
          {
            "astId": 7405,
            "contract": "contracts/ProjectRegistry.sol:ProjectRegistry",
            "label": "artwork",
            "offset": 0,
            "slot": "0",
            "type": "t_address"
          },
          {
            "astId": 7407,
            "contract": "contracts/ProjectRegistry.sol:ProjectRegistry",
            "label": "traits",
            "offset": 0,
            "slot": "1",
            "type": "t_address"
          }
        ],
        "numberOfBytes": "64"
      },
      "t_uint256": {
        "encoding": "inplace",
        "label": "uint256",
        "numberOfBytes": "32"
      }
    }
  }
}