{
  "address": "0xC9E78295F6805fb1608Fc2DD9fAa5a504b407B00",
  "abi": [
    {
      "anonymous": false,
      "inputs": [
        {
          "indexed": true,
          "internalType": "uint256",
          "name": "canvasId",
          "type": "uint256"
        },
        {
          "indexed": true,
          "internalType": "address",
          "name": "unwrapped",
          "type": "address"
        }
      ],
      "name": "CanvasUnwrapped",
      "type": "event"
    },
    {
      "anonymous": false,
      "inputs": [
        {
          "indexed": true,
          "internalType": "uint256",
          "name": "canvasId",
          "type": "uint256"
        },
        {
          "indexed": true,
          "internalType": "address",
          "name": "wrapper",
          "type": "address"
        },
        {
          "indexed": false,
          "internalType": "uint256[]",
          "name": "elementIds",
          "type": "uint256[]"
        }
      ],
      "name": "CanvasWrapped",
      "type": "event"
    },
    {
      "anonymous": false,
      "inputs": [
        {
          "indexed": true,
          "internalType": "uint256",
          "name": "projectId",
          "type": "uint256"
        }
      ],
      "name": "ProjectCreated",
      "type": "event"
    },
    {
      "inputs": [],
      "name": "amm",
      "outputs": [
        {
          "internalType": "contract AMM",
          "name": "",
          "type": "address"
        }
      ],
      "stateMutability": "view",
      "type": "function"
    },
    {
      "inputs": [
        {
          "internalType": "uint256",
          "name": "_projectId",
          "type": "uint256"
        },
        {
          "internalType": "uint256[]",
          "name": "_elementTokenIdsToBuy",
          "type": "uint256[]"
        },
        {
          "internalType": "uint256[]",
          "name": "_elementAmountsToBuy",
          "type": "uint256[]"
        },
        {
          "internalType": "uint256[]",
          "name": "_maxERC20ToSpend",
          "type": "uint256[]"
        },
        {
          "internalType": "uint256[]",
          "name": "_elementIndexesToWrap",
          "type": "uint256[]"
        }
      ],
      "name": "buyCanvasAndElementsAndWrap",
      "outputs": [],
      "stateMutability": "nonpayable",
      "type": "function"
    },
    {
      "inputs": [
        {
          "internalType": "uint256",
          "name": "_projectId",
          "type": "uint256"
        },
        {
          "internalType": "uint256",
          "name": "_quantity",
          "type": "uint256"
        }
      ],
      "name": "buyCanvases",
      "outputs": [
        {
          "internalType": "uint256[]",
          "name": "canvasIds",
          "type": "uint256[]"
        }
      ],
      "stateMutability": "nonpayable",
      "type": "function"
    },
    {
      "inputs": [
        {
          "internalType": "uint256[]",
          "name": "_elementTokenIds",
          "type": "uint256[]"
        },
        {
          "internalType": "uint256[]",
          "name": "_elementAmounts",
          "type": "uint256[]"
        },
        {
          "internalType": "uint256[]",
          "name": "_maxERC20sToSpend",
          "type": "uint256[]"
        }
      ],
      "name": "buyElements",
      "outputs": [],
      "stateMutability": "nonpayable",
      "type": "function"
    },
    {
      "inputs": [
        {
          "internalType": "uint256[]",
          "name": "_elementTokenIdsToBuy",
          "type": "uint256[]"
        },
        {
          "internalType": "uint256[]",
          "name": "_elementAmountsToBuy",
          "type": "uint256[]"
        },
        {
          "internalType": "uint256[]",
          "name": "_maxERC20ToSpend",
          "type": "uint256[]"
        },
        {
          "internalType": "uint256[]",
          "name": "_elementIndexesToWrap",
          "type": "uint256[]"
        },
        {
          "internalType": "uint256",
          "name": "_canvasId",
          "type": "uint256"
        }
      ],
      "name": "buyElementsAndWrap",
      "outputs": [],
      "stateMutability": "nonpayable",
      "type": "function"
    },
    {
      "inputs": [],
      "name": "canvas",
      "outputs": [
        {
          "internalType": "contract Canvas",
          "name": "",
          "type": "address"
        }
      ],
      "stateMutability": "view",
      "type": "function"
    },
    {
      "inputs": [
        {
          "internalType": "uint256",
          "name": "",
          "type": "uint256"
        }
      ],
      "name": "canvases",
      "outputs": [
        {
          "internalType": "bool",
          "name": "wrapped",
          "type": "bool"
        },
        {
          "internalType": "bytes32",
          "name": "hash",
          "type": "bytes32"
        }
      ],
      "stateMutability": "view",
      "type": "function"
    },
    {
      "inputs": [
        {
          "components": [
            {
              "internalType": "string",
              "name": "name",
              "type": "string"
            },
            {
              "internalType": "string",
              "name": "description",
              "type": "string"
            },
            {
              "internalType": "address",
              "name": "artistAddress",
              "type": "address"
            },
            {
              "internalType": "string",
              "name": "artistName",
              "type": "string"
            },
            {
              "internalType": "string",
              "name": "website",
              "type": "string"
            },
            {
              "internalType": "string",
              "name": "license",
              "type": "string"
            },
            {
              "internalType": "string",
              "name": "baseURI",
              "type": "string"
            },
            {
              "internalType": "string",
              "name": "scriptJSON",
              "type": "string"
            },
            {
              "internalType": "uint256",
              "name": "scriptCount",
              "type": "uint256"
            },
            {
              "internalType": "uint256",
              "name": "maxInvocations",
              "type": "uint256"
            },
            {
              "internalType": "string[]",
              "name": "featureCategoryLabels",
              "type": "string[]"
            },
            {
              "internalType": "string[][]",
              "name": "featureLabels",
              "type": "string[][]"
            }
          ],
          "internalType": "struct IStudio.CreateProjectData",
          "name": "_createProjectData",
          "type": "tuple"
        },
        {
          "components": [
            {
              "internalType": "uint256",
              "name": "startTime",
              "type": "uint256"
            },
            {
              "internalType": "uint256",
              "name": "endTime",
              "type": "uint256"
            },
            {
              "internalType": "uint256",
              "name": "startPrice",
              "type": "uint256"
            },
            {
              "internalType": "uint256",
              "name": "endPrice",
              "type": "uint256"
            },
            {
              "internalType": "address",
              "name": "artistAddress",
              "type": "address"
            },
            {
              "internalType": "address",
              "name": "erc20Token",
              "type": "address"
            }
          ],
          "internalType": "struct IDutchAuction.Auction",
          "name": "_createAuction",
          "type": "tuple"
        },
        {
          "components": [
            {
              "internalType": "uint256",
              "name": "startTime",
              "type": "uint256"
            },
            {
              "internalType": "address",
              "name": "erc20Token",
              "type": "address"
            },
            {
              "internalType": "uint256[][]",
              "name": "constantA",
              "type": "uint256[][]"
            },
            {
              "internalType": "uint256[][]",
              "name": "constantB",
              "type": "uint256[][]"
            }
          ],
          "internalType": "struct IStudio.CreateAMM",
          "name": "_createAMM",
          "type": "tuple"
        }
      ],
      "name": "createProject",
      "outputs": [
        {
          "internalType": "uint256",
          "name": "projectId",
          "type": "uint256"
        },
        {
          "internalType": "uint256[][]",
          "name": "elementTokenIds",
          "type": "uint256[][]"
        }
      ],
      "stateMutability": "nonpayable",
      "type": "function"
    },
    {
      "inputs": [],
      "name": "dutchAuction",
      "outputs": [
        {
          "internalType": "contract DutchAuction",
          "name": "",
          "type": "address"
        }
      ],
      "stateMutability": "view",
      "type": "function"
    },
    {
      "inputs": [],
      "name": "element",
      "outputs": [
        {
          "internalType": "contract Element",
          "name": "",
          "type": "address"
        }
      ],
      "stateMutability": "view",
      "type": "function"
    },
    {
      "inputs": [
        {
          "internalType": "uint256",
          "name": "_canvasId",
          "type": "uint256"
        }
      ],
      "name": "getCanvasHash",
      "outputs": [
        {
          "internalType": "bytes32",
          "name": "",
          "type": "bytes32"
        }
      ],
      "stateMutability": "view",
      "type": "function"
    },
    {
      "inputs": [
        {
          "internalType": "uint256",
          "name": "_canvasTokenId",
          "type": "uint256"
        }
      ],
      "name": "getCanvasTokenURI",
      "outputs": [
        {
          "internalType": "string",
          "name": "",
          "type": "string"
        }
      ],
      "stateMutability": "view",
      "type": "function"
    },
    {
      "inputs": [
        {
          "internalType": "uint256",
          "name": "_canvasId",
          "type": "uint256"
        }
      ],
      "name": "getCanvasWrappedFeatureLabels",
      "outputs": [
        {
          "internalType": "string[]",
          "name": "featureLabels",
          "type": "string[]"
        }
      ],
      "stateMutability": "view",
      "type": "function"
    },
    {
      "inputs": [
        {
          "internalType": "uint256",
          "name": "_canvasId",
          "type": "uint256"
        }
      ],
      "name": "getCanvasWrappedTokenIds",
      "outputs": [
        {
          "internalType": "uint256[]",
          "name": "",
          "type": "uint256[]"
        }
      ],
      "stateMutability": "view",
      "type": "function"
    },
    {
      "inputs": [
        {
          "internalType": "uint256",
          "name": "_projectId",
          "type": "uint256"
        }
      ],
      "name": "getProjectFeatureCategoryLabels",
      "outputs": [
        {
          "internalType": "string[]",
          "name": "",
          "type": "string[]"
        }
      ],
      "stateMutability": "view",
      "type": "function"
    },
    {
      "inputs": [
        {
          "internalType": "uint256",
          "name": "_projectId",
          "type": "uint256"
        }
      ],
      "name": "getProjectFeatureLabels",
      "outputs": [
        {
          "internalType": "string[][]",
          "name": "featureLabels",
          "type": "string[][]"
        }
      ],
      "stateMutability": "view",
      "type": "function"
    },
    {
      "inputs": [
        {
          "internalType": "uint256",
          "name": "_projectId",
          "type": "uint256"
        }
      ],
      "name": "getProjectFeaturePrices",
      "outputs": [
        {
          "internalType": "uint256[][]",
          "name": "featurePrices",
          "type": "uint256[][]"
        }
      ],
      "stateMutability": "view",
      "type": "function"
    },
    {
      "inputs": [
        {
          "internalType": "uint256",
          "name": "_projectId",
          "type": "uint256"
        }
      ],
      "name": "getProjectFeatureTokenIds",
      "outputs": [
        {
          "internalType": "uint256[][]",
          "name": "",
          "type": "uint256[][]"
        }
      ],
      "stateMutability": "view",
      "type": "function"
    },
    {
      "inputs": [
        {
          "internalType": "uint256",
          "name": "canvasId",
          "type": "uint256"
        }
      ],
      "name": "getProjectIdFromCanvasId",
      "outputs": [
        {
          "internalType": "uint256",
          "name": "projectId",
          "type": "uint256"
        }
      ],
      "stateMutability": "pure",
      "type": "function"
    },
    {
      "inputs": [
        {
          "internalType": "uint256",
          "name": "_projectId",
          "type": "uint256"
        }
      ],
      "name": "getProjectScripts",
      "outputs": [
        {
          "internalType": "string[]",
          "name": "_scripts",
          "type": "string[]"
        }
      ],
      "stateMutability": "view",
      "type": "function"
    },
    {
      "inputs": [
        {
          "internalType": "address",
          "name": "_user",
          "type": "address"
        }
      ],
      "name": "getUserNonce",
      "outputs": [
        {
          "internalType": "uint256",
          "name": "",
          "type": "uint256"
        }
      ],
      "stateMutability": "view",
      "type": "function"
    },
    {
      "inputs": [
        {
          "internalType": "address",
          "name": "_canvas",
          "type": "address"
        },
        {
          "internalType": "address",
          "name": "_dutchAuction",
          "type": "address"
        },
        {
          "internalType": "address",
          "name": "_element",
          "type": "address"
        },
        {
          "internalType": "address",
          "name": "_amm",
          "type": "address"
        }
      ],
      "name": "initialize",
      "outputs": [],
      "stateMutability": "nonpayable",
      "type": "function"
    },
    {
      "inputs": [
        {
          "internalType": "address",
          "name": "",
          "type": "address"
        },
        {
          "internalType": "address",
          "name": "",
          "type": "address"
        },
        {
          "internalType": "uint256[]",
          "name": "",
          "type": "uint256[]"
        },
        {
          "internalType": "uint256[]",
          "name": "",
          "type": "uint256[]"
        },
        {
          "internalType": "bytes",
          "name": "",
          "type": "bytes"
        }
      ],
      "name": "onERC1155BatchReceived",
      "outputs": [
        {
          "internalType": "bytes4",
          "name": "",
          "type": "bytes4"
        }
      ],
      "stateMutability": "nonpayable",
      "type": "function"
    },
    {
      "inputs": [
        {
          "internalType": "address",
          "name": "",
          "type": "address"
        },
        {
          "internalType": "address",
          "name": "",
          "type": "address"
        },
        {
          "internalType": "uint256",
          "name": "",
          "type": "uint256"
        },
        {
          "internalType": "uint256",
          "name": "",
          "type": "uint256"
        },
        {
          "internalType": "bytes",
          "name": "",
          "type": "bytes"
        }
      ],
      "name": "onERC1155Received",
      "outputs": [
        {
          "internalType": "bytes4",
          "name": "",
          "type": "bytes4"
        }
      ],
      "stateMutability": "nonpayable",
      "type": "function"
    },
    {
      "inputs": [
        {
          "internalType": "uint256",
          "name": "",
          "type": "uint256"
        }
      ],
      "name": "projects",
      "outputs": [
        {
          "internalType": "string",
          "name": "name",
          "type": "string"
        },
        {
          "internalType": "string",
          "name": "description",
          "type": "string"
        },
        {
          "internalType": "address",
          "name": "artistAddress",
          "type": "address"
        },
        {
          "internalType": "string",
          "name": "artistName",
          "type": "string"
        },
        {
          "internalType": "string",
          "name": "website",
          "type": "string"
        },
        {
          "internalType": "string",
          "name": "license",
          "type": "string"
        },
        {
          "internalType": "string",
          "name": "baseURI",
          "type": "string"
        },
        {
          "internalType": "string",
          "name": "scriptJSON",
          "type": "string"
        },
        {
          "internalType": "uint256",
          "name": "scriptCount",
          "type": "uint256"
        }
      ],
      "stateMutability": "view",
      "type": "function"
    },
    {
      "inputs": [
        {
          "internalType": "bytes4",
          "name": "interfaceId",
          "type": "bytes4"
        }
      ],
      "name": "supportsInterface",
      "outputs": [
        {
          "internalType": "bool",
          "name": "",
          "type": "bool"
        }
      ],
      "stateMutability": "view",
      "type": "function"
    },
    {
      "inputs": [
        {
          "internalType": "uint256",
          "name": "_canvasId",
          "type": "uint256"
        }
      ],
      "name": "unwrap",
      "outputs": [],
      "stateMutability": "nonpayable",
      "type": "function"
    },
    {
      "inputs": [
        {
          "internalType": "uint256",
          "name": "_projectId",
          "type": "uint256"
        },
        {
          "internalType": "uint256",
          "name": "_scriptIndex",
          "type": "uint256"
        },
        {
          "internalType": "string",
          "name": "_script",
          "type": "string"
        }
      ],
      "name": "updateScript",
      "outputs": [],
      "stateMutability": "nonpayable",
      "type": "function"
    },
    {
      "inputs": [
        {
          "internalType": "address",
          "name": "",
          "type": "address"
        }
      ],
      "name": "userNonces",
      "outputs": [
        {
          "internalType": "uint256",
          "name": "",
          "type": "uint256"
        }
      ],
      "stateMutability": "view",
      "type": "function"
    },
    {
      "inputs": [
        {
          "internalType": "uint256",
          "name": "_canvasId",
          "type": "uint256"
        },
        {
          "internalType": "uint256[]",
          "name": "_elementIndexes",
          "type": "uint256[]"
        }
      ],
      "name": "wrap",
      "outputs": [],
      "stateMutability": "nonpayable",
      "type": "function"
    }
  ],
  "transactionHash": "0xafb37318068ebe19b6683148144aaad68965ec66d2bc031cfad4e13670dc3d4a",
  "args": [],
  "numDeployments": 1,
  "solcInputHash": "3f21846035f568b7b9b3cdcdba7e5c73",
  "bytecode": "0x608060405234801561001057600080fd5b506137ee806100206000396000f3fe608060405234801561001057600080fd5b50600436106101da5760003560e01c80639da0d7d411610104578063de0e9a3e116100a2578063f23a6e6111610071578063f23a6e61146104fd578063f53221721461051c578063f8c8765e1461052f578063fc78fa851461054257600080fd5b8063de0e9a3e146104b1578063e1114074146104c4578063eb275d47146104d7578063efa37986146104ea57600080fd5b8063b766b290116100de578063b766b2901461040f578063bc197c8114610422578063d1a22c0e1461045a578063d9d197a61461046d57600080fd5b80639da0d7d4146103c9578063a11cd37f146103dc578063a89d3520146103ef57600080fd5b80632f7801f41161017c5780636f9ec5061161014b5780636f9ec5061461034c578063804f69291461036d57806390af2931146103905780639b8e9b5e146103b057600080fd5b80632f7801f4146102c25780633803ac4c146102f057806340c2846b146103105780636834e3a81461032357600080fd5b80631ea82ff4116101b85780631ea82ff41461024457806321e55ff4146102645780632884fd00146102845780632a943945146102af57600080fd5b806301ffc9a7146101df5780630b9e01b114610207578063107046bd1461021c575b600080fd5b6101f26101ed366004612599565b610555565b60405190151581526020015b60405180910390f35b61021a6102153660046125c3565b61058c565b005b61022f61022a366004612642565b610637565b6040516101fe999897969594939291906126b7565b61025761025236600461276a565b610a44565b6040516101fe91906127c7565b610277610272366004612642565b610ad3565b6040516101fe91906127da565b600254610297906001600160a01b031681565b6040516001600160a01b0390911681526020016101fe565b600354610297906001600160a01b031681565b6102e26102d0366004612812565b60066020526000908152604090205481565b6040519081526020016101fe565b6103036102fe366004612642565b610b23565b6040516101fe9190612884565b6102e261031e366004612642565b610c7c565b6102e2610331366004612812565b6001600160a01b031660009081526006602052604090205490565b61035f61035a366004612cbe565b610c8b565b6040516101fe929190612f2c565b6102e261037b366004612642565b60009081526005602052604090206002015490565b6103a361039e366004612642565b610e0f565b6040516101fe9190612f45565b600054610297906201000090046001600160a01b031681565b600154610297906001600160a01b031681565b61021a6103ea366004612fa7565b611033565b6104026103fd366004612642565b611048565b6040516101fe919061305b565b61025761041d366004612642565b6110f7565b61044161043036600461306e565b63bc197c8160e01b95945050505050565b6040516001600160e01b031990911681526020016101fe565b61021a61046836600461311b565b61115c565b61049a61047b366004612642565b6005602052600090815260409020805460029091015460ff9091169082565b6040805192151583526020830191909152016101fe565b61021a6104bf366004612642565b6111cb565b61021a6104d2366004613198565b61141b565b6103036104e5366004612642565b611461565b6104026104f8366004612642565b6115a6565b61044161050b366004613241565b63f23a6e6160e01b95945050505050565b61030361052a366004612642565b6117bd565b61021a61053d3660046132a9565b6118a1565b61021a610550366004613305565b6119ba565b60006001600160e01b03198216630271189760e51b148061058657506301ffc9a760e01b6001600160e01b03198316145b92915050565b6000848152600460205260409020600201546001600160a01b031633146106095760405162461bcd60e51b815260206004820152602660248201527f4f6e6c7920746865206172746973742063616e2063616c6c20746869732066756044820152653731ba34b7b760d11b60648201526084015b60405180910390fd5b6000848152600460209081526040808320868452600901909152902061063090838361230b565b5050505050565b6004602052600090815260409020805481906106529061334b565b80601f016020809104026020016040519081016040528092919081815260200182805461067e9061334b565b80156106cb5780601f106106a0576101008083540402835291602001916106cb565b820191906000526020600020905b8154815290600101906020018083116106ae57829003601f168201915b5050505050908060010180546106e09061334b565b80601f016020809104026020016040519081016040528092919081815260200182805461070c9061334b565b80156107595780601f1061072e57610100808354040283529160200191610759565b820191906000526020600020905b81548152906001019060200180831161073c57829003601f168201915b505050600284015460038501805494956001600160a01b039092169491935091506107839061334b565b80601f01602080910402602001604051908101604052809291908181526020018280546107af9061334b565b80156107fc5780601f106107d1576101008083540402835291602001916107fc565b820191906000526020600020905b8154815290600101906020018083116107df57829003601f168201915b5050505050908060040180546108119061334b565b80601f016020809104026020016040519081016040528092919081815260200182805461083d9061334b565b801561088a5780601f1061085f5761010080835404028352916020019161088a565b820191906000526020600020905b81548152906001019060200180831161086d57829003601f168201915b50505050509080600501805461089f9061334b565b80601f01602080910402602001604051908101604052809291908181526020018280546108cb9061334b565b80156109185780601f106108ed57610100808354040283529160200191610918565b820191906000526020600020905b8154815290600101906020018083116108fb57829003601f168201915b50505050509080600601805461092d9061334b565b80601f01602080910402602001604051908101604052809291908181526020018280546109599061334b565b80156109a65780601f1061097b576101008083540402835291602001916109a6565b820191906000526020600020905b81548152906001019060200180831161098957829003601f168201915b5050505050908060070180546109bb9061334b565b80601f01602080910402602001604051908101604052809291908181526020018280546109e79061334b565b8015610a345780601f10610a0957610100808354040283529160200191610a34565b820191906000526020600020905b815481529060010190602001808311610a1757829003601f168201915b5050505050908060080154905089565b6001546040516375202f3b60e11b81526004810184905260248101839052336044820181905260648201526060916001600160a01b03169063ea405e76906084016000604051808303816000875af1158015610aa4573d6000803e3d6000fd5b505050506040513d6000823e601f3d908101601f19168201604052610acc919081019061337f565b9392505050565b606060046000610ae284610c7c565b8152602001908152602001600020600601610afc83611dab565b604051602001610b0d92919061342b565b6040516020818303038152906040529050919050565b6000818152600460205260409020600801546060906001600160401b03811115610b4f57610b4f612897565b604051908082528060200260200182016040528015610b8257816020015b6060815260200190600190039081610b6d5790505b50905060005b600083815260046020526040902060080154811015610c7657600083815260046020908152604080832084845260090190915290208054610bc89061334b565b80601f0160208091040260200160405190810160405280929190818152602001828054610bf49061334b565b8015610c415780601f10610c1657610100808354040283529160200191610c41565b820191906000526020600020905b815481529060010190602001808311610c2457829003601f168201915b5050505050828281518110610c5857610c586134d1565b60200260200101819052508080610c6e906134fd565b915050610b88565b50919050565b6000610586620f42408361352c565b60008054600154610120860151604051637ca68cdd60e11b81523060048201526001600160a01b03928316602482015260448101919091526060926201000090049091169063f94d19ba906064016020604051808303816000875af1158015610cf8573d6000803e3d6000fd5b505050506040513d601f19601f82011682018060405250810190610d1c9190613540565b9150610d288286611eb3565b6001546040805163201476af60e21b81526004810185905286516024820152602087015160448201529086015160648201526060860151608482015260808601516001600160a01b0390811660a483015260a0870151811660c483015290911690638051dabc9060e401600060405180830381600087803b158015610dac57600080fd5b505af1158015610dc0573d6000803e3d6000fd5b50505050610dd9828660400151876101600151866120db565b60405190915082907f1ac2092e16e28eef29d1832f3dc69da1b21284a1f3159d3b26cb238b22fe4f8a90600090a2935093915050565b6000818152600460205260409020600a0154606090806001600160401b03811115610e3c57610e3c612897565b604051908082528060200260200182016040528015610e6f57816020015b6060815260200190600190039081610e5a5790505b50915060005b8181101561102c576000848152600460205260408120600b01805483908110610ea057610ea06134d1565b60009182526020822001549150816001600160401b03811115610ec557610ec5612897565b604051908082528060200260200182016040528015610ef857816020015b6060815260200190600190039081610ee35790505b50905060005b82811015610ff8576002546000888152600460205260409020600b0180546001600160a01b03909216916355a1dde7919087908110610f3f57610f3f6134d1565b906000526020600020018381548110610f5a57610f5a6134d1565b90600052602060002001546040518263ffffffff1660e01b8152600401610f8391815260200190565b600060405180830381865afa158015610fa0573d6000803e3d6000fd5b505050506040513d6000823e601f3d908101601f19168201604052610fc89190810190613559565b828281518110610fda57610fda6134d1565b60200260200101819052508080610ff0906134fd565b915050610efe565b508085848151811061100c5761100c6134d1565b602002602001018190525050508080611024906134fd565b915050610e75565b5050919050565b61103e85858561115c565b61063081836119ba565b606060046000838152602001908152602001600020600b01805480602002602001604051908101604052809291908181526020016000905b828210156110ec576000848152602090819020830180546040805182850281018501909152818152928301828280156110d857602002820191906000526020600020905b8154815260200190600101908083116110c4575b505050505081526020019060010190611080565b505050509050919050565b60008181526005602090815260409182902060010180548351818402810184019094528084526060939283018282801561115057602002820191906000526020600020905b81548152602001906001019080831161113c575b50505050509050919050565b600354604051631094316d60e31b81526001600160a01b03909116906384a18b689061119490869086908690339081906004016135c6565b600060405180830381600087803b1580156111ae57600080fd5b505af11580156111c2573d6000803e3d6000fd5b50505050505050565b6000546040516331a9108f60e11b815260048101839052620100009091046001600160a01b031690636352211e90602401602060405180830381865afa158015611219573d6000803e3d6000fd5b505050506040513d601f19601f8201168201806040525081019061123d9190613625565b6001600160a01b0316336001600160a01b03161461126d5760405162461bcd60e51b815260040161060090613642565b60008181526005602052604090205460ff166112c35760405162461bcd60e51b815260206004820152601560248201527410d85b9d985cc81a5cc81b9bdd081ddc985c1c1959605a1b6044820152606401610600565b600081815260056020526040812060028101829055805460ff191690556112e982610c7c565b905060005b6000828152600460205260409020600a01548110156113e957600083815260056020526040812060010180548390811061132a5761132a6134d1565b906000526020600020015490506000600560008681526020019081526020016000206001018381548110611360576113606134d1565b600091825260209091200155600254604051637921219560e11b81526001600160a01b039091169063f242432a906113a390309033908690600190600401613686565b600060405180830381600087803b1580156113bd57600080fd5b505af11580156113d1573d6000803e3d6000fd5b505050505080806113e1906134fd565b9150506112ee565b50604051339083907f1ce66d646856a661a790ff962311cb84d9c3eb337ba33f9b73ca2907d842b36c90600090a35050565b6000611428866001610a44565b905061143585858561115c565b6114598160008151811061144b5761144b6134d1565b6020026020010151836119ba565b505050505050565b6000818152600560205260409020600101546060906001600160401b0381111561148d5761148d612897565b6040519080825280602002602001820160405280156114c057816020015b60608152602001906001900390816114ab5790505b50905060005b8151811015610c7657600254600084815260056020526040902060010180546001600160a01b03909216916355a1dde7919084908110611508576115086134d1565b90600052602060002001546040518263ffffffff1660e01b815260040161153191815260200190565b600060405180830381865afa15801561154e573d6000803e3d6000fd5b505050506040513d6000823e601f3d908101601f191682016040526115769190810190613559565b828281518110611588576115886134d1565b6020026020010181905250808061159e906134fd565b9150506114c6565b6000818152600460205260409020600a0154606090806001600160401b038111156115d3576115d3612897565b60405190808252806020026020018201604052801561160657816020015b60608152602001906001900390816115f15790505b50915060005b8181101561102c576000848152600460205260408120600b01805483908110611637576116376134d1565b60009182526020822001549150816001600160401b0381111561165c5761165c612897565b604051908082528060200260200182016040528015611685578160200160208202803683370190505b50905060005b82811015611789576000878152600460205260408120600b018054869081106116b6576116b66134d1565b9060005260206000200182815481106116d1576116d16134d1565b600091825260208220015460035460405163210f2b4960e11b815260048101839052600160248201529193506001600160a01b03169063421e569290604401606060405180830381865afa15801561172d573d6000803e3d6000fd5b505050506040513d601f19601f8201168201806040525081019061175191906136be565b5050905080848481518110611768576117686134d1565b60200260200101818152505050508080611781906134fd565b91505061168b565b508085848151811061179d5761179d6134d1565b6020026020010181905250505080806117b5906134fd565b91505061160c565b606060046000838152602001908152602001600020600a01805480602002602001604051908101604052809291908181526020016000905b828210156110ec5783829060005260206000200180546118149061334b565b80601f01602080910402602001604051908101604052809291908181526020018280546118409061334b565b801561188d5780601f106118625761010080835404028352916020019161188d565b820191906000526020600020905b81548152906001019060200180831161187057829003601f168201915b5050505050815260200190600101906117f5565b600054610100900460ff166118bc5760005460ff16156118c0565b303b155b6119235760405162461bcd60e51b815260206004820152602e60248201527f496e697469616c697a61626c653a20636f6e747261637420697320616c72656160448201526d191e481a5b9a5d1a585b1a5e995960921b6064820152608401610600565b600054610100900460ff16158015611945576000805461ffff19166101011790555b6000805462010000600160b01b031916620100006001600160a01b038881169190910291909117909155600180546001600160a01b031990811687841617909155600280548216868416179055600380549091169184169190911790558015610630576000805461ff00191690555050505050565b6000546040516331a9108f60e11b815260048101849052620100009091046001600160a01b031690636352211e90602401602060405180830381865afa158015611a08573d6000803e3d6000fd5b505050506040513d601f19601f82011682018060405250810190611a2c9190613625565b6001600160a01b0316336001600160a01b031614611a5c5760405162461bcd60e51b815260040161060090613642565b60008281526005602052604090205460ff1615611abb5760405162461bcd60e51b815260206004820152601960248201527f43616e76617320697320616c72656164792077726170706564000000000000006044820152606401610600565b60046000611ac884610c7c565b81526020810191909152604001600020600a0154815114611b2b5760405162461bcd60e51b815260206004820152601f60248201527f496e636f727265637420656c656d656e7473206172726179206c656e677468006044820152606401610600565b3360008181526006602090815260408083205490519293611b6b9390920160609290921b6bffffffffffffffffffffffff19168252601482015260340190565b60408051601f1981840301815291815281516020928301206000868152600590935290822060020181905583519092506001600160401b03811115611bb257611bb2612897565b604051908082528060200260200182016040528015611bdb578160200160208202803683370190505b50905060005b8351811015611d105760046000611bf787610c7c565b8152602001908152602001600020600b018181548110611c1957611c196134d1565b90600052602060002001848281518110611c3557611c356134d1565b602002602001015181548110611c4d57611c4d6134d1565b9060005260206000200154828281518110611c6a57611c6a6134d1565b602090810291909101015260025482516001600160a01b039091169063f242432a9033903090869086908110611ca257611ca26134d1565b602002602001015160016040518563ffffffff1660e01b8152600401611ccb9493929190613686565b600060405180830381600087803b158015611ce557600080fd5b505af1158015611cf9573d6000803e3d6000fd5b505050508080611d08906134fd565b915050611be1565b506000848152600560209081526040909120805460ff1916600190811782558351611d4293929091019184019061238f565b50336000908152600660205260408120805491611d5e836134fd565b9190505550336001600160a01b0316847f5248513e2c6dd2581707fc34beea5fed4ba755111a668799297ce7945e4b978c83604051611d9d91906127c7565b60405180910390a350505050565b606081600003611dd25750506040805180820190915260018152600360fc1b602082015290565b8160005b8115611dfc5780611de6816134fd565b9150611df59050600a8361352c565b9150611dd6565b6000816001600160401b03811115611e1657611e16612897565b6040519080825280601f01601f191660200182016040528015611e40576020820181803683370190505b5090505b8415611eab57611e556001836136ec565b9150611e62600a86613703565b611e6d906030613717565b60f81b818381518110611e8257611e826134d1565b60200101906001600160f81b031916908160001a905350611ea4600a8661352c565b9450611e44565b949350505050565b806101600151518161014001515114611f295760405162461bcd60e51b815260206004820152603260248201527f496e76616c6964206665617475726520616e6420666561747572652063617465604482015271676f7279206172726179206c656e6774687360701b6064820152608401610600565b805160008381526004602090815260409091208251611f4d939192909101906123ca565b50602080820151600084815260048352604090208151611f7693600190920192909101906123ca565b506040818101516000848152600460209081529290206002810180546001600160a01b0319166001600160a01b039093169290921790915560608301518051611fc99360039093019291909101906123ca565b50608081015160008381526004602081815260409092208351611ff294919092019201906123ca565b5060a08101516000838152600460209081526040909120825161201e93600590920192909101906123ca565b5060c08101516000838152600460209081526040909120825161204a93600690920192909101906123ca565b5060e08101516000838152600460209081526040909120825161207693600790920192909101906123ca565b5061010081015160008381526004602090815260409091206008810192909255825180516120a9939291909101906123ca565b50610140810151600083815260046020908152604090912082516120d693600a909201929091019061243d565b505050565b606082516001600160401b038111156120f6576120f6612897565b60405190808252806020026020018201604052801561212957816020015b60608152602001906001900390816121145790505b50905060005b83518110156122dc5760025484516001600160a01b039091169063c60b6e2d90869084908110612161576121616134d1565b60209081029190910101516003546040516001600160e01b031960e085901b16815261219a92916001600160a01b03169060040161372f565b6000604051808303816000875af11580156121b9573d6000803e3d6000fd5b505050506040513d6000823e601f3d908101601f191682016040526121e1919081019061337f565b8282815181106121f3576121f36134d1565b602090810291909101015260035482516001600160a01b039091169063d282855b90849084908110612227576122276134d1565b602002602001015185604001518481518110612245576122456134d1565b602002602001015186606001518581518110612263576122636134d1565b602002602001015189886020015189600001516040518763ffffffff1660e01b815260040161229796959493929190613759565b600060405180830381600087803b1580156122b157600080fd5b505af11580156122c5573d6000803e3d6000fd5b5050505080806122d4906134fd565b91505061212f565b506000858152600460209081526040909120825161230292600b90920191840190612496565b50949350505050565b8280546123179061334b565b90600052602060002090601f016020900481019282612339576000855561237f565b82601f106123525782800160ff1982351617855561237f565b8280016001018555821561237f579182015b8281111561237f578235825591602001919060010190612364565b5061238b9291506124ef565b5090565b82805482825590600052602060002090810192821561237f579160200282015b8281111561237f5782518255916020019190600101906123af565b8280546123d69061334b565b90600052602060002090601f0160209004810192826123f8576000855561237f565b82601f1061241157805160ff191683800117855561237f565b8280016001018555821561237f579182018281111561237f5782518255916020019190600101906123af565b82805482825590600052602060002090810192821561248a579160200282015b8281111561248a578251805161247a9184916020909101906123ca565b509160200191906001019061245d565b5061238b929150612504565b8280548282559060005260206000209081019282156124e3579160200282015b828111156124e357825180516124d391849160209091019061238f565b50916020019190600101906124b6565b5061238b929150612521565b5b8082111561238b57600081556001016124f0565b8082111561238b576000612518828261253e565b50600101612504565b8082111561238b576000612535828261257b565b50600101612521565b50805461254a9061334b565b6000825580601f1061255a575050565b601f01602090049060005260206000209081019061257891906124ef565b50565b508054600082559060005260206000209081019061257891906124ef565b6000602082840312156125ab57600080fd5b81356001600160e01b031981168114610acc57600080fd5b600080600080606085870312156125d957600080fd5b843593506020850135925060408501356001600160401b03808211156125fe57600080fd5b818701915087601f83011261261257600080fd5b81358181111561262157600080fd5b88602082850101111561263357600080fd5b95989497505060200194505050565b60006020828403121561265457600080fd5b5035919050565b60005b8381101561267657818101518382015260200161265e565b83811115612685576000848401525b50505050565b600081518084526126a381602086016020860161265b565b601f01601f19169290920160200192915050565b60006101208083526126cb8184018d61268b565b905082810360208401526126df818c61268b565b6001600160a01b038b16604085015283810360608501529050612702818a61268b565b90508281036080840152612716818961268b565b905082810360a084015261272a818861268b565b905082810360c084015261273e818761268b565b905082810360e0840152612752818661268b565b915050826101008301529a9950505050505050505050565b6000806040838503121561277d57600080fd5b50508035926020909101359150565b600081518084526020808501945080840160005b838110156127bc578151875295820195908201906001016127a0565b509495945050505050565b602081526000610acc602083018461278c565b602081526000610acc602083018461268b565b6001600160a01b038116811461257857600080fd5b803561280d816127ed565b919050565b60006020828403121561282457600080fd5b8135610acc816127ed565b600081518084526020808501808196508360051b8101915082860160005b8581101561287757828403895261286584835161268b565b9885019893509084019060010161284d565b5091979650505050505050565b602081526000610acc602083018461282f565b634e487b7160e01b600052604160045260246000fd5b60405161018081016001600160401b03811182821017156128d0576128d0612897565b60405290565b604051601f8201601f191681016001600160401b03811182821017156128fe576128fe612897565b604052919050565b60006001600160401b0382111561291f5761291f612897565b50601f01601f191660200190565b600082601f83011261293e57600080fd5b813561295161294c82612906565b6128d6565b81815284602083860101111561296657600080fd5b816020850160208301376000918101602001919091529392505050565b60006001600160401b0382111561299c5761299c612897565b5060051b60200190565b600082601f8301126129b757600080fd5b813560206129c761294c83612983565b82815260059290921b840181019181810190868411156129e657600080fd5b8286015b84811015612a255780356001600160401b03811115612a095760008081fd5b612a178986838b010161292d565b8452509183019183016129ea565b509695505050505050565b600082601f830112612a4157600080fd5b81356020612a5161294c83612983565b82815260059290921b84018101918181019086841115612a7057600080fd5b8286015b84811015612a255780356001600160401b03811115612a935760008081fd5b612aa18986838b01016129a6565b845250918301918301612a74565b600060c08284031215612ac157600080fd5b60405160c081018181106001600160401b0382111715612ae357612ae3612897565b8060405250809150823581526020830135602082015260408301356040820152606083013560608201526080830135612b1b816127ed565b608082015260a0830135612b2e816127ed565b60a0919091015292915050565b600082601f830112612b4c57600080fd5b81356020612b5c61294c83612983565b82815260059290921b84018101918181019086841115612b7b57600080fd5b8286015b84811015612a255780358352918301918301612b7f565b600082601f830112612ba757600080fd5b81356020612bb761294c83612983565b82815260059290921b84018101918181019086841115612bd657600080fd5b8286015b84811015612a255780356001600160401b03811115612bf95760008081fd5b612c078986838b0101612b3b565b845250918301918301612bda565b600060808284031215612c2757600080fd5b604051608081016001600160401b038282108183111715612c4a57612c4a612897565b816040528293508435835260208501359150612c65826127ed565b8160208401526040850135915080821115612c7f57600080fd5b612c8b86838701612b96565b60408401526060850135915080821115612ca457600080fd5b50612cb185828601612b96565b6060830152505092915050565b6000806000610100808587031215612cd557600080fd5b84356001600160401b0380821115612cec57600080fd5b908601906101808289031215612d0157600080fd5b612d096128ad565b823582811115612d1857600080fd5b612d248a82860161292d565b825250602083013582811115612d3957600080fd5b612d458a82860161292d565b602083015250612d5760408401612802565b6040820152606083013582811115612d6e57600080fd5b612d7a8a82860161292d565b606083015250608083013582811115612d9257600080fd5b612d9e8a82860161292d565b60808301525060a083013582811115612db657600080fd5b612dc28a82860161292d565b60a08301525060c083013582811115612dda57600080fd5b612de68a82860161292d565b60c08301525060e083013582811115612dfe57600080fd5b612e0a8a82860161292d565b60e08301525083830135848201526101209350838301358482015261014093508383013582811115612e3b57600080fd5b612e478a8286016129a6565b858301525061016093508383013582811115612e6257600080fd5b612e6e8a828601612a30565b82860152509550612e828860208901612aaf565b945060e0870135925080831115612e9857600080fd5b5050612ea686828701612c15565b9150509250925092565b600081518084526020808501808196508360051b810191508286016000805b86811015612f1e578385038a52825180518087529087019087870190845b81811015612f0957835183529289019291890191600101612eed565b50509a87019a95505091850191600101612ecf565b509298975050505050505050565b828152604060208201526000611eab6040830184612eb0565b6000602080830181845280855180835260408601915060408160051b870101925083870160005b82811015612f9a57603f19888603018452612f8885835161282f565b94509285019290850190600101612f6c565b5092979650505050505050565b600080600080600060a08688031215612fbf57600080fd5b85356001600160401b0380821115612fd657600080fd5b612fe289838a01612b3b565b96506020880135915080821115612ff857600080fd5b61300489838a01612b3b565b9550604088013591508082111561301a57600080fd5b61302689838a01612b3b565b9450606088013591508082111561303c57600080fd5b5061304988828901612b3b565b95989497509295608001359392505050565b602081526000610acc6020830184612eb0565b600080600080600060a0868803121561308657600080fd5b8535613091816127ed565b945060208601356130a1816127ed565b935060408601356001600160401b03808211156130bd57600080fd5b6130c989838a01612b3b565b945060608801359150808211156130df57600080fd5b6130eb89838a01612b3b565b9350608088013591508082111561310157600080fd5b5061310e8882890161292d565b9150509295509295909350565b60008060006060848603121561313057600080fd5b83356001600160401b038082111561314757600080fd5b61315387838801612b3b565b9450602086013591508082111561316957600080fd5b61317587838801612b3b565b9350604086013591508082111561318b57600080fd5b50612ea686828701612b3b565b600080600080600060a086880312156131b057600080fd5b8535945060208601356001600160401b03808211156131ce57600080fd5b6131da89838a01612b3b565b955060408801359150808211156131f057600080fd5b6131fc89838a01612b3b565b9450606088013591508082111561321257600080fd5b61321e89838a01612b3b565b9350608088013591508082111561323457600080fd5b5061310e88828901612b3b565b600080600080600060a0868803121561325957600080fd5b8535613264816127ed565b94506020860135613274816127ed565b9350604086013592506060860135915060808601356001600160401b0381111561329d57600080fd5b61310e8882890161292d565b600080600080608085870312156132bf57600080fd5b84356132ca816127ed565b935060208501356132da816127ed565b925060408501356132ea816127ed565b915060608501356132fa816127ed565b939692955090935050565b6000806040838503121561331857600080fd5b8235915060208301356001600160401b0381111561333557600080fd5b61334185828601612b3b565b9150509250929050565b600181811c9082168061335f57607f821691505b602082108103610c7657634e487b7160e01b600052602260045260246000fd5b6000602080838503121561339257600080fd5b82516001600160401b038111156133a857600080fd5b8301601f810185136133b957600080fd5b80516133c761294c82612983565b81815260059190911b820183019083810190878311156133e657600080fd5b928401925b82841015613404578351825292840192908401906133eb565b979650505050505050565b6000815161342181856020860161265b565b9290920192915050565b600080845481600182811c91508083168061344757607f831692505b6020808410820361346657634e487b7160e01b86526022600452602486fd5b81801561347a576001811461348b576134b8565b60ff198616895284890196506134b8565b60008b81526020902060005b868110156134b05781548b820152908501908301613497565b505084890196505b5050505050506134c8818561340f565b95945050505050565b634e487b7160e01b600052603260045260246000fd5b634e487b7160e01b600052601160045260246000fd5b60006001820161350f5761350f6134e7565b5060010190565b634e487b7160e01b600052601260045260246000fd5b60008261353b5761353b613516565b500490565b60006020828403121561355257600080fd5b5051919050565b60006020828403121561356b57600080fd5b81516001600160401b0381111561358157600080fd5b8201601f8101841361359257600080fd5b80516135a061294c82612906565b8181528560208385010111156135b557600080fd5b6134c882602083016020860161265b565b60a0815260006135d960a083018861278c565b82810360208401526135eb818861278c565b905082810360408401526135ff818761278c565b6001600160a01b0395861660608501529390941660809092019190915250949350505050565b60006020828403121561363757600080fd5b8151610acc816127ed565b60208082526024908201527f596f7520617265206e6f7420746865206f776e6572206f6620746869732063616040820152636e76617360e01b606082015260800190565b6001600160a01b0394851681529290931660208301526040820152606081019190915260a06080820181905260009082015260c00190565b6000806000606084860312156136d357600080fd5b8351925060208401519150604084015190509250925092565b6000828210156136fe576136fe6134e7565b500390565b60008261371257613712613516565b500690565b6000821982111561372a5761372a6134e7565b500190565b604081526000613742604083018561282f565b905060018060a01b03831660208301529392505050565b60c08152600061376c60c083018961278c565b828103602084015261377e818961278c565b90508281036040840152613792818861278c565b6001600160a01b0396871660608501529490951660808301525060a0015294935050505056fea2646970667358221220c0087ed3296878fee96924c790b2f37fc3073fcd4d5539f431939ee72473198b64736f6c634300080d0033",
  "devdoc": {
    "kind": "dev",
    "methods": {
      "supportsInterface(bytes4)": {
        "details": "See {IERC165-supportsInterface}."
      }
    },
    "version": 1
  },
  "userdoc": {
    "kind": "user",
    "methods": {},
    "version": 1
  },
  "storageLayout": {
    "storage": [
      {
        "astId": 6,
        "contract": "contracts/Studio.sol:Studio",
        "label": "_initialized",
        "offset": 0,
        "slot": "0",
        "type": "t_bool"
      },
      {
        "astId": 9,
        "contract": "contracts/Studio.sol:Studio",
        "label": "_initializing",
        "offset": 1,
        "slot": "0",
        "type": "t_bool"
      },
      {
        "astId": 6315,
        "contract": "contracts/Studio.sol:Studio",
        "label": "canvas",
        "offset": 2,
        "slot": "0",
        "type": "t_contract(Canvas)5590"
      },
      {
        "astId": 6318,
        "contract": "contracts/Studio.sol:Studio",
        "label": "dutchAuction",
        "offset": 0,
        "slot": "1",
        "type": "t_contract(DutchAuction)5913"
      },
      {
        "astId": 6321,
        "contract": "contracts/Studio.sol:Studio",
        "label": "element",
        "offset": 0,
        "slot": "2",
        "type": "t_contract(Element)6137"
      },
      {
        "astId": 6324,
        "contract": "contracts/Studio.sol:Studio",
        "label": "amm",
        "offset": 0,
        "slot": "3",
        "type": "t_contract(AMM)5402"
      },
      {
        "astId": 6329,
        "contract": "contracts/Studio.sol:Studio",
        "label": "projects",
        "offset": 0,
        "slot": "4",
        "type": "t_mapping(t_uint256,t_struct(ProjectData)7936_storage)"
      },
      {
        "astId": 6334,
        "contract": "contracts/Studio.sol:Studio",
        "label": "canvases",
        "offset": 0,
        "slot": "5",
        "type": "t_mapping(t_uint256,t_struct(CanvasData)7972_storage)"
      },
      {
        "astId": 6338,
        "contract": "contracts/Studio.sol:Studio",
        "label": "userNonces",
        "offset": 0,
        "slot": "6",
        "type": "t_mapping(t_address,t_uint256)"
      }
    ],
    "types": {
      "t_address": {
        "encoding": "inplace",
        "label": "address",
        "numberOfBytes": "20"
      },
      "t_array(t_array(t_uint256)dyn_storage)dyn_storage": {
        "base": "t_array(t_uint256)dyn_storage",
        "encoding": "dynamic_array",
        "label": "uint256[][]",
        "numberOfBytes": "32"
      },
      "t_array(t_string_storage)dyn_storage": {
        "base": "t_string_storage",
        "encoding": "dynamic_array",
        "label": "string[]",
        "numberOfBytes": "32"
      },
      "t_array(t_uint256)dyn_storage": {
        "base": "t_uint256",
        "encoding": "dynamic_array",
        "label": "uint256[]",
        "numberOfBytes": "32"
      },
      "t_bool": {
        "encoding": "inplace",
        "label": "bool",
        "numberOfBytes": "1"
      },
      "t_bytes32": {
        "encoding": "inplace",
        "label": "bytes32",
        "numberOfBytes": "32"
      },
      "t_contract(AMM)5402": {
        "encoding": "inplace",
        "label": "contract AMM",
        "numberOfBytes": "20"
      },
      "t_contract(Canvas)5590": {
        "encoding": "inplace",
        "label": "contract Canvas",
        "numberOfBytes": "20"
      },
      "t_contract(DutchAuction)5913": {
        "encoding": "inplace",
        "label": "contract DutchAuction",
        "numberOfBytes": "20"
      },
      "t_contract(Element)6137": {
        "encoding": "inplace",
        "label": "contract Element",
        "numberOfBytes": "20"
      },
      "t_mapping(t_address,t_uint256)": {
        "encoding": "mapping",
        "key": "t_address",
        "label": "mapping(address => uint256)",
        "numberOfBytes": "32",
        "value": "t_uint256"
      },
      "t_mapping(t_uint256,t_string_storage)": {
        "encoding": "mapping",
        "key": "t_uint256",
        "label": "mapping(uint256 => string)",
        "numberOfBytes": "32",
        "value": "t_string_storage"
      },
      "t_mapping(t_uint256,t_struct(CanvasData)7972_storage)": {
        "encoding": "mapping",
        "key": "t_uint256",
        "label": "mapping(uint256 => struct IStudio.CanvasData)",
        "numberOfBytes": "32",
        "value": "t_struct(CanvasData)7972_storage"
      },
      "t_mapping(t_uint256,t_struct(ProjectData)7936_storage)": {
        "encoding": "mapping",
        "key": "t_uint256",
        "label": "mapping(uint256 => struct IStudio.ProjectData)",
        "numberOfBytes": "32",
        "value": "t_struct(ProjectData)7936_storage"
      },
      "t_string_storage": {
        "encoding": "bytes",
        "label": "string",
        "numberOfBytes": "32"
      },
      "t_struct(CanvasData)7972_storage": {
        "encoding": "inplace",
        "label": "struct IStudio.CanvasData",
        "members": [
          {
            "astId": 7966,
            "contract": "contracts/Studio.sol:Studio",
            "label": "wrapped",
            "offset": 0,
            "slot": "0",
            "type": "t_bool"
          },
          {
            "astId": 7969,
            "contract": "contracts/Studio.sol:Studio",
            "label": "wrappedFeatureTokenIds",
            "offset": 0,
            "slot": "1",
            "type": "t_array(t_uint256)dyn_storage"
          },
          {
            "astId": 7971,
            "contract": "contracts/Studio.sol:Studio",
            "label": "hash",
            "offset": 0,
            "slot": "2",
            "type": "t_bytes32"
          }
        ],
        "numberOfBytes": "96"
      },
      "t_struct(ProjectData)7936_storage": {
        "encoding": "inplace",
        "label": "struct IStudio.ProjectData",
        "members": [
          {
            "astId": 7908,
            "contract": "contracts/Studio.sol:Studio",
            "label": "name",
            "offset": 0,
            "slot": "0",
            "type": "t_string_storage"
          },
          {
            "astId": 7910,
            "contract": "contracts/Studio.sol:Studio",
            "label": "description",
            "offset": 0,
            "slot": "1",
            "type": "t_string_storage"
          },
          {
            "astId": 7912,
            "contract": "contracts/Studio.sol:Studio",
            "label": "artistAddress",
            "offset": 0,
            "slot": "2",
            "type": "t_address"
          },
          {
            "astId": 7914,
            "contract": "contracts/Studio.sol:Studio",
            "label": "artistName",
            "offset": 0,
            "slot": "3",
            "type": "t_string_storage"
          },
          {
            "astId": 7916,
            "contract": "contracts/Studio.sol:Studio",
            "label": "website",
            "offset": 0,
            "slot": "4",
            "type": "t_string_storage"
          },
          {
            "astId": 7918,
            "contract": "contracts/Studio.sol:Studio",
            "label": "license",
            "offset": 0,
            "slot": "5",
            "type": "t_string_storage"
          },
          {
            "astId": 7920,
            "contract": "contracts/Studio.sol:Studio",
            "label": "baseURI",
            "offset": 0,
            "slot": "6",
            "type": "t_string_storage"
          },
          {
            "astId": 7922,
            "contract": "contracts/Studio.sol:Studio",
            "label": "scriptJSON",
            "offset": 0,
            "slot": "7",
            "type": "t_string_storage"
          },
          {
            "astId": 7924,
            "contract": "contracts/Studio.sol:Studio",
            "label": "scriptCount",
            "offset": 0,
            "slot": "8",
            "type": "t_uint256"
          },
          {
            "astId": 7928,
            "contract": "contracts/Studio.sol:Studio",
            "label": "scripts",
            "offset": 0,
            "slot": "9",
            "type": "t_mapping(t_uint256,t_string_storage)"
          },
          {
            "astId": 7931,
            "contract": "contracts/Studio.sol:Studio",
            "label": "featureCategoryLabels",
            "offset": 0,
            "slot": "10",
            "type": "t_array(t_string_storage)dyn_storage"
          },
          {
            "astId": 7935,
            "contract": "contracts/Studio.sol:Studio",
            "label": "featureTokenIds",
            "offset": 0,
            "slot": "11",
            "type": "t_array(t_array(t_uint256)dyn_storage)dyn_storage"
          }
        ],
        "numberOfBytes": "384"
      },
      "t_uint256": {
        "encoding": "inplace",
        "label": "uint256",
        "numberOfBytes": "32"
      }
    }
  }
}