{
  "address": "0xE9541F0c9d468cd2c89688D135Fe6FCf57f1E698",
  "abi": [
    {
      "inputs": [
        {
          "internalType": "address",
          "name": "_owner",
          "type": "address"
        },
        {
          "internalType": "address",
          "name": "_canvas",
          "type": "address"
        },
        {
          "internalType": "address",
          "name": "_element",
          "type": "address"
        },
        {
          "internalType": "uint256",
          "name": "_auctionStartDelay",
          "type": "uint256"
        },
        {
          "internalType": "string",
          "name": "_baseURI",
          "type": "string"
        }
      ],
      "stateMutability": "nonpayable",
      "type": "constructor"
    },
    {
      "anonymous": false,
      "inputs": [
        {
          "indexed": true,
          "internalType": "uint256",
          "name": "tokenId",
          "type": "uint256"
        }
      ],
      "name": "AMMInitialized",
      "type": "event"
    },
    {
      "anonymous": false,
      "inputs": [
        {
          "indexed": true,
          "internalType": "address",
          "name": "erc20",
          "type": "address"
        }
      ],
      "name": "ApprovedERC20Added",
      "type": "event"
    },
    {
      "anonymous": false,
      "inputs": [
        {
          "indexed": true,
          "internalType": "address",
          "name": "erc20",
          "type": "address"
        }
      ],
      "name": "ApprovedERC20Removed",
      "type": "event"
    },
    {
      "anonymous": false,
      "inputs": [
        {
          "indexed": true,
          "internalType": "address",
          "name": "artist",
          "type": "address"
        },
        {
          "indexed": true,
          "internalType": "address",
          "name": "token",
          "type": "address"
        },
        {
          "indexed": false,
          "internalType": "uint256",
          "name": "claimedRevenue",
          "type": "uint256"
        }
      ],
      "name": "ArtistRevenueClaimed",
      "type": "event"
    },
    {
      "anonymous": false,
      "inputs": [
        {
          "indexed": false,
          "internalType": "uint256",
          "name": "auctionStartDelay",
          "type": "uint256"
        }
      ],
      "name": "AuctionStartDelayUpdated",
      "type": "event"
    },
    {
      "anonymous": false,
      "inputs": [
        {
          "indexed": true,
          "internalType": "uint256",
          "name": "canvasId",
          "type": "uint256"
        },
        {
          "indexed": true,
          "internalType": "address",
          "name": "unwrapper",
          "type": "address"
        }
      ],
      "name": "CanvasUnwrapped",
      "type": "event"
    },
    {
      "anonymous": false,
      "inputs": [
        {
          "indexed": true,
          "internalType": "uint256",
          "name": "canvasTokenId",
          "type": "uint256"
        },
        {
          "indexed": true,
          "internalType": "address",
          "name": "wrapper",
          "type": "address"
        }
      ],
      "name": "CanvasWrapped",
      "type": "event"
    },
    {
      "anonymous": false,
      "inputs": [
        {
          "indexed": true,
          "internalType": "address",
          "name": "buyer",
          "type": "address"
        },
        {
          "indexed": true,
          "internalType": "uint256",
          "name": "tokenId",
          "type": "uint256"
        },
        {
          "indexed": true,
          "internalType": "uint256",
          "name": "quantity",
          "type": "uint256"
        },
        {
          "indexed": false,
          "internalType": "uint256",
          "name": "erc20Spent",
          "type": "uint256"
        },
        {
          "indexed": false,
          "internalType": "uint256",
          "name": "newERC20Balance",
          "type": "uint256"
        },
        {
          "indexed": false,
          "internalType": "uint256",
          "name": "newElementBalance",
          "type": "uint256"
        }
      ],
      "name": "ElementBoughtFromAMM",
      "type": "event"
    },
    {
      "anonymous": false,
      "inputs": [
        {
          "indexed": true,
          "internalType": "address",
          "name": "buyer",
          "type": "address"
        },
        {
          "indexed": true,
          "internalType": "uint256",
          "name": "tokenId",
          "type": "uint256"
        },
        {
          "indexed": false,
          "internalType": "uint256",
          "name": "quantity",
          "type": "uint256"
        }
      ],
      "name": "ElementBoughtFromAuction",
      "type": "event"
    },
    {
      "anonymous": false,
      "inputs": [
        {
          "indexed": true,
          "internalType": "address",
          "name": "seller",
          "type": "address"
        },
        {
          "indexed": true,
          "internalType": "uint256",
          "name": "tokenId",
          "type": "uint256"
        },
        {
          "indexed": true,
          "internalType": "uint256",
          "name": "quantity",
          "type": "uint256"
        },
        {
          "indexed": false,
          "internalType": "uint256",
          "name": "erc20Received",
          "type": "uint256"
        },
        {
          "indexed": false,
          "internalType": "uint256",
          "name": "newERC20Balance",
          "type": "uint256"
        },
        {
          "indexed": false,
          "internalType": "uint256",
          "name": "newElementBalance",
          "type": "uint256"
        }
      ],
      "name": "ElementSoldToAMM",
      "type": "event"
    },
    {
      "anonymous": false,
      "inputs": [
        {
          "indexed": true,
          "internalType": "uint256",
          "name": "projectId",
          "type": "uint256"
        },
        {
          "indexed": true,
          "internalType": "uint256",
          "name": "elementTokenId",
          "type": "uint256"
        }
      ],
      "name": "MarketUpdated",
      "type": "event"
    },
    {
      "anonymous": false,
      "inputs": [
        {
          "indexed": true,
          "internalType": "address",
          "name": "previousOwner",
          "type": "address"
        },
        {
          "indexed": true,
          "internalType": "address",
          "name": "newOwner",
          "type": "address"
        }
      ],
      "name": "OwnershipTransferred",
      "type": "event"
    },
    {
      "anonymous": false,
      "inputs": [
        {
          "indexed": true,
          "internalType": "address",
          "name": "claimer",
          "type": "address"
        },
        {
          "indexed": true,
          "internalType": "address",
          "name": "token",
          "type": "address"
        },
        {
          "indexed": false,
          "internalType": "uint256",
          "name": "claimedRevenue",
          "type": "uint256"
        }
      ],
      "name": "PlatformRevenueClaimed",
      "type": "event"
    },
    {
      "anonymous": false,
      "inputs": [
        {
          "indexed": false,
          "internalType": "uint256",
          "name": "projectId",
          "type": "uint256"
        }
      ],
      "name": "ProjectCreated",
      "type": "event"
    },
    {
      "inputs": [],
      "name": "FEE_DENOMINATOR",
      "outputs": [
        {
          "internalType": "uint256",
          "name": "",
          "type": "uint256"
        }
      ],
      "stateMutability": "view",
      "type": "function"
    },
    {
      "inputs": [
        {
          "internalType": "address",
          "name": "_erc20",
          "type": "address"
        }
      ],
      "name": "addApprovedERC20",
      "outputs": [],
      "stateMutability": "nonpayable",
      "type": "function"
    },
    {
      "inputs": [
        {
          "internalType": "address[]",
          "name": "_artists",
          "type": "address[]"
        }
      ],
      "name": "addWhitelistedArtists",
      "outputs": [],
      "stateMutability": "nonpayable",
      "type": "function"
    },
    {
      "inputs": [],
      "name": "ammArtistFeeNumerator",
      "outputs": [
        {
          "internalType": "uint256",
          "name": "",
          "type": "uint256"
        }
      ],
      "stateMutability": "view",
      "type": "function"
    },
    {
      "inputs": [],
      "name": "ammPlatformFeeNumerator",
      "outputs": [
        {
          "internalType": "uint256",
          "name": "",
          "type": "uint256"
        }
      ],
      "stateMutability": "view",
      "type": "function"
    },
    {
      "inputs": [
        {
          "internalType": "address",
          "name": "",
          "type": "address"
        }
      ],
      "name": "approvedERC20s",
      "outputs": [
        {
          "internalType": "bool",
          "name": "",
          "type": "bool"
        }
      ],
      "stateMutability": "view",
      "type": "function"
    },
    {
      "inputs": [
        {
          "internalType": "address",
          "name": "",
          "type": "address"
        },
        {
          "internalType": "address",
          "name": "",
          "type": "address"
        }
      ],
      "name": "artistClaimableRevenues",
      "outputs": [
        {
          "internalType": "uint256",
          "name": "",
          "type": "uint256"
        }
      ],
      "stateMutability": "view",
      "type": "function"
    },
    {
      "inputs": [],
      "name": "auctionPlatformFeeNumerator",
      "outputs": [
        {
          "internalType": "uint256",
          "name": "",
          "type": "uint256"
        }
      ],
      "stateMutability": "view",
      "type": "function"
    },
    {
      "inputs": [],
      "name": "auctionStartDelay",
      "outputs": [
        {
          "internalType": "uint256",
          "name": "",
          "type": "uint256"
        }
      ],
      "stateMutability": "view",
      "type": "function"
    },
    {
      "inputs": [],
      "name": "baseURI",
      "outputs": [
        {
          "internalType": "string",
          "name": "",
          "type": "string"
        }
      ],
      "stateMutability": "view",
      "type": "function"
    },
    {
      "inputs": [
        {
          "internalType": "uint256",
          "name": "_tokenId",
          "type": "uint256"
        },
        {
          "internalType": "uint256",
          "name": "_quantity",
          "type": "uint256"
        },
        {
          "internalType": "uint256",
          "name": "_maxERC20ToSpend",
          "type": "uint256"
        }
      ],
      "name": "buyElementFromAMM",
      "outputs": [
        {
          "internalType": "uint256",
          "name": "_erc20Spent",
          "type": "uint256"
        }
      ],
      "stateMutability": "nonpayable",
      "type": "function"
    },
    {
      "inputs": [
        {
          "internalType": "uint256",
          "name": "_tokenId",
          "type": "uint256"
        },
        {
          "internalType": "uint256",
          "name": "_quantity",
          "type": "uint256"
        }
      ],
      "name": "buyElementFromAuction",
      "outputs": [
        {
          "internalType": "uint256",
          "name": "_erc20Spent",
          "type": "uint256"
        }
      ],
      "stateMutability": "nonpayable",
      "type": "function"
    },
    {
      "inputs": [
        {
          "internalType": "uint256[]",
          "name": "_tokenIds",
          "type": "uint256[]"
        },
        {
          "internalType": "uint256[]",
          "name": "_quantities",
          "type": "uint256[]"
        },
        {
          "internalType": "uint256",
          "name": "_maxERC20ToSpend",
          "type": "uint256"
        }
      ],
      "name": "buyElements",
      "outputs": [
        {
          "internalType": "uint256",
          "name": "_erc20Spent",
          "type": "uint256"
        }
      ],
      "stateMutability": "nonpayable",
      "type": "function"
    },
    {
      "inputs": [
        {
          "internalType": "uint256[]",
          "name": "_tokenIdsToBuy",
          "type": "uint256[]"
        },
        {
          "internalType": "uint256[]",
          "name": "_tokenQuantitiesToBuy",
          "type": "uint256[]"
        },
        {
          "internalType": "uint256",
          "name": "_maxERC20ToSpend",
          "type": "uint256"
        },
        {
          "internalType": "uint256",
          "name": "_projectId",
          "type": "uint256"
        },
        {
          "internalType": "uint256[]",
          "name": "_elementIndexesToWrap",
          "type": "uint256[]"
        }
      ],
      "name": "buyElementsAndWrap",
      "outputs": [],
      "stateMutability": "nonpayable",
      "type": "function"
    },
    {
      "inputs": [],
      "name": "canvas",
      "outputs": [
        {
          "internalType": "contract ICanvas",
          "name": "",
          "type": "address"
        }
      ],
      "stateMutability": "view",
      "type": "function"
    },
    {
      "inputs": [
        {
          "internalType": "uint256",
          "name": "",
          "type": "uint256"
        }
      ],
      "name": "canvases",
      "outputs": [
        {
          "internalType": "bool",
          "name": "wrapped",
          "type": "bool"
        },
        {
          "internalType": "bytes32",
          "name": "hash",
          "type": "bytes32"
        }
      ],
      "stateMutability": "view",
      "type": "function"
    },
    {
      "inputs": [
        {
          "internalType": "address",
          "name": "_token",
          "type": "address"
        }
      ],
      "name": "claimArtistRevenue",
      "outputs": [],
      "stateMutability": "nonpayable",
      "type": "function"
    },
    {
      "inputs": [
        {
          "internalType": "address",
          "name": "_token",
          "type": "address"
        }
      ],
      "name": "claimPlatformTokenRevenue",
      "outputs": [],
      "stateMutability": "nonpayable",
      "type": "function"
    },
    {
      "inputs": [
        {
          "internalType": "uint256",
          "name": "_projectId",
          "type": "uint256"
        },
        {
          "internalType": "uint256[]",
          "name": "_elementCategoryIndexes",
          "type": "uint256[]"
        },
        {
          "internalType": "uint256[]",
          "name": "_elementIndexes",
          "type": "uint256[]"
        },
        {
          "internalType": "string[]",
          "name": "_elementLabels",
          "type": "string[]"
        },
        {
          "internalType": "string[]",
          "name": "_elementValues",
          "type": "string[]"
        },
        {
          "internalType": "uint256[][]",
          "name": "_elementAmounts",
          "type": "uint256[][]"
        },
        {
          "internalType": "address[]",
          "name": "_elementRecipients",
          "type": "address[]"
        }
      ],
      "name": "createAndUpdateElements",
      "outputs": [],
      "stateMutability": "nonpayable",
      "type": "function"
    },
    {
      "inputs": [
        {
          "internalType": "address",
          "name": "_artistAddress",
          "type": "address"
        },
        {
          "internalType": "uint256",
          "name": "_maxSupply",
          "type": "uint256"
        },
        {
          "internalType": "string",
          "name": "_metadata",
          "type": "string"
        },
        {
          "internalType": "string[]",
          "name": "_elementCategoryLabels",
          "type": "string[]"
        },
        {
          "internalType": "string[]",
          "name": "_elementCategoryValues",
          "type": "string[]"
        },
        {
          "internalType": "string[][]",
          "name": "_elementLabels",
          "type": "string[][]"
        },
        {
          "internalType": "string[][]",
          "name": "_elementValues",
          "type": "string[][]"
        },
        {
          "internalType": "uint256[][][]",
          "name": "_elementAmounts",
          "type": "uint256[][][]"
        },
        {
          "internalType": "address[]",
          "name": "_recipients",
          "type": "address[]"
        }
      ],
      "name": "createProject",
      "outputs": [],
      "stateMutability": "nonpayable",
      "type": "function"
    },
    {
      "inputs": [],
      "name": "element",
      "outputs": [
        {
          "internalType": "contract IElement",
          "name": "",
          "type": "address"
        }
      ],
      "stateMutability": "view",
      "type": "function"
    },
    {
      "inputs": [
        {
          "internalType": "uint256",
          "name": "_canvasId",
          "type": "uint256"
        }
      ],
      "name": "getCanvasElementLabels",
      "outputs": [
        {
          "internalType": "string[]",
          "name": "elementLabels",
          "type": "string[]"
        }
      ],
      "stateMutability": "view",
      "type": "function"
    },
    {
      "inputs": [
        {
          "internalType": "uint256",
          "name": "_canvasId",
          "type": "uint256"
        }
      ],
      "name": "getCanvasElementValues",
      "outputs": [
        {
          "internalType": "string[]",
          "name": "elementValues",
          "type": "string[]"
        }
      ],
      "stateMutability": "view",
      "type": "function"
    },
    {
      "inputs": [
        {
          "internalType": "uint256",
          "name": "_canvasId",
          "type": "uint256"
        }
      ],
      "name": "getCanvasHash",
      "outputs": [
        {
          "internalType": "bytes32",
          "name": "",
          "type": "bytes32"
        }
      ],
      "stateMutability": "view",
      "type": "function"
    },
    {
      "inputs": [
        {
          "internalType": "uint256",
          "name": "_canvasTokenId",
          "type": "uint256"
        }
      ],
      "name": "getCanvasURI",
      "outputs": [
        {
          "internalType": "string",
          "name": "",
          "type": "string"
        }
      ],
      "stateMutability": "view",
      "type": "function"
    },
    {
      "inputs": [
        {
          "internalType": "uint256",
          "name": "_tokenId",
          "type": "uint256"
        },
        {
          "internalType": "uint256",
          "name": "_quantity",
          "type": "uint256"
        }
      ],
      "name": "getElementAMMBuyCost",
      "outputs": [
        {
          "internalType": "uint256",
          "name": "_erc20Cost",
          "type": "uint256"
        }
      ],
      "stateMutability": "view",
      "type": "function"
    },
    {
      "inputs": [
        {
          "internalType": "uint256",
          "name": "_tokenId",
          "type": "uint256"
        },
        {
          "internalType": "uint256",
          "name": "_quantity",
          "type": "uint256"
        }
      ],
      "name": "getElementAMMBuyCostWithFee",
      "outputs": [
        {
          "internalType": "uint256",
          "name": "_erc20CostWithFee",
          "type": "uint256"
        },
        {
          "internalType": "uint256",
          "name": "_erc20ArtistFee",
          "type": "uint256"
        },
        {
          "internalType": "uint256",
          "name": "_erc20PlatformFee",
          "type": "uint256"
        }
      ],
      "stateMutability": "view",
      "type": "function"
    },
    {
      "inputs": [
        {
          "internalType": "uint256",
          "name": "_tokenId",
          "type": "uint256"
        },
        {
          "internalType": "uint256",
          "name": "_quantity",
          "type": "uint256"
        }
      ],
      "name": "getElementAMMSellCost",
      "outputs": [
        {
          "internalType": "uint256",
          "name": "_erc20Received",
          "type": "uint256"
        }
      ],
      "stateMutability": "view",
      "type": "function"
    },
    {
      "inputs": [
        {
          "internalType": "uint256",
          "name": "_tokenId",
          "type": "uint256"
        }
      ],
      "name": "getElementAuctionPrice",
      "outputs": [
        {
          "internalType": "uint256",
          "name": "_price",
          "type": "uint256"
        }
      ],
      "stateMutability": "view",
      "type": "function"
    },
    {
      "inputs": [
        {
          "internalType": "address",
          "name": "_artist",
          "type": "address"
        }
      ],
      "name": "getIsArtistWhitelisted",
      "outputs": [
        {
          "internalType": "bool",
          "name": "",
          "type": "bool"
        }
      ],
      "stateMutability": "view",
      "type": "function"
    },
    {
      "inputs": [
        {
          "internalType": "uint256",
          "name": "_canvasId",
          "type": "uint256"
        }
      ],
      "name": "getIsCanvasWrapped",
      "outputs": [
        {
          "internalType": "bool",
          "name": "",
          "type": "bool"
        }
      ],
      "stateMutability": "view",
      "type": "function"
    },
    {
      "inputs": [
        {
          "internalType": "uint256",
          "name": "_projectId",
          "type": "uint256"
        }
      ],
      "name": "getProjectArtist",
      "outputs": [
        {
          "internalType": "address",
          "name": "",
          "type": "address"
        }
      ],
      "stateMutability": "view",
      "type": "function"
    },
    {
      "inputs": [
        {
          "internalType": "uint256",
          "name": "_projectId",
          "type": "uint256"
        }
      ],
      "name": "getProjectElementCategoryLabels",
      "outputs": [
        {
          "internalType": "string[]",
          "name": "",
          "type": "string[]"
        }
      ],
      "stateMutability": "view",
      "type": "function"
    },
    {
      "inputs": [
        {
          "internalType": "uint256",
          "name": "_projectId",
          "type": "uint256"
        }
      ],
      "name": "getProjectElementCategoryValues",
      "outputs": [
        {
          "internalType": "string[]",
          "name": "",
          "type": "string[]"
        }
      ],
      "stateMutability": "view",
      "type": "function"
    },
    {
      "inputs": [
        {
          "internalType": "uint256",
          "name": "_projectId",
          "type": "uint256"
        }
      ],
      "name": "getProjectElementLabels",
      "outputs": [
        {
          "internalType": "string[][]",
          "name": "elementLabels",
          "type": "string[][]"
        }
      ],
      "stateMutability": "view",
      "type": "function"
    },
    {
      "inputs": [
        {
          "internalType": "uint256",
          "name": "_projectId",
          "type": "uint256"
        }
      ],
      "name": "getProjectElementTokenIds",
      "outputs": [
        {
          "internalType": "uint256[][]",
          "name": "",
          "type": "uint256[][]"
        }
      ],
      "stateMutability": "view",
      "type": "function"
    },
    {
      "inputs": [
        {
          "internalType": "uint256",
          "name": "_projectId",
          "type": "uint256"
        }
      ],
      "name": "getProjectElementValues",
      "outputs": [
        {
          "internalType": "string[][]",
          "name": "elementValues",
          "type": "string[][]"
        }
      ],
      "stateMutability": "view",
      "type": "function"
    },
    {
      "inputs": [
        {
          "internalType": "uint256",
          "name": "canvasId",
          "type": "uint256"
        }
      ],
      "name": "getProjectIdFromCanvasId",
      "outputs": [
        {
          "internalType": "uint256",
          "name": "projectId",
          "type": "uint256"
        }
      ],
      "stateMutability": "pure",
      "type": "function"
    },
    {
      "inputs": [
        {
          "internalType": "uint256",
          "name": "_projectId",
          "type": "uint256"
        }
      ],
      "name": "getProjectIsLocked",
      "outputs": [
        {
          "internalType": "bool",
          "name": "",
          "type": "bool"
        }
      ],
      "stateMutability": "view",
      "type": "function"
    },
    {
      "inputs": [
        {
          "internalType": "uint256",
          "name": "_projectId",
          "type": "uint256"
        }
      ],
      "name": "getProjectMetadata",
      "outputs": [
        {
          "internalType": "string",
          "name": "",
          "type": "string"
        }
      ],
      "stateMutability": "view",
      "type": "function"
    },
    {
      "inputs": [
        {
          "internalType": "uint256",
          "name": "_projectId",
          "type": "uint256"
        }
      ],
      "name": "getProjectScriptCount",
      "outputs": [
        {
          "internalType": "uint256",
          "name": "",
          "type": "uint256"
        }
      ],
      "stateMutability": "view",
      "type": "function"
    },
    {
      "inputs": [
        {
          "internalType": "uint256",
          "name": "_projectId",
          "type": "uint256"
        }
      ],
      "name": "getProjectScripts",
      "outputs": [
        {
          "internalType": "string[]",
          "name": "_scripts",
          "type": "string[]"
        }
      ],
      "stateMutability": "view",
      "type": "function"
    },
    {
      "inputs": [
        {
          "internalType": "uint256",
          "name": "_projectId",
          "type": "uint256"
        }
      ],
      "name": "lockProject",
      "outputs": [],
      "stateMutability": "nonpayable",
      "type": "function"
    },
    {
      "inputs": [
        {
          "internalType": "uint256",
          "name": "",
          "type": "uint256"
        }
      ],
      "name": "markets",
      "outputs": [
        {
          "internalType": "uint256",
          "name": "ammERC20Balance",
          "type": "uint256"
        },
        {
          "internalType": "uint256",
          "name": "auctionERC20Balance",
          "type": "uint256"
        },
        {
          "internalType": "uint256",
          "name": "ammElementBalance",
          "type": "uint256"
        },
        {
          "internalType": "uint256",
          "name": "reserveElementBalance",
          "type": "uint256"
        },
        {
          "internalType": "uint256",
          "name": "auctionElementBalance",
          "type": "uint256"
        },
        {
          "internalType": "uint256",
          "name": "reserveElementBalanceInitial",
          "type": "uint256"
        },
        {
          "internalType": "uint256",
          "name": "auctionElementBalanceInitial",
          "type": "uint256"
        },
        {
          "internalType": "address",
          "name": "erc20",
          "type": "address"
        },
        {
          "internalType": "uint256",
          "name": "auctionStartTime",
          "type": "uint256"
        },
        {
          "internalType": "uint256",
          "name": "auctionEndTime",
          "type": "uint256"
        },
        {
          "internalType": "uint256",
          "name": "auctionStartPrice",
          "type": "uint256"
        },
        {
          "internalType": "uint256",
          "name": "auctionEndPrice",
          "type": "uint256"
        },
        {
          "internalType": "address",
          "name": "artist",
          "type": "address"
        }
      ],
      "stateMutability": "view",
      "type": "function"
    },
    {
      "inputs": [
        {
          "internalType": "address",
          "name": "",
          "type": "address"
        },
        {
          "internalType": "address",
          "name": "",
          "type": "address"
        },
        {
          "internalType": "uint256[]",
          "name": "",
          "type": "uint256[]"
        },
        {
          "internalType": "uint256[]",
          "name": "",
          "type": "uint256[]"
        },
        {
          "internalType": "bytes",
          "name": "",
          "type": "bytes"
        }
      ],
      "name": "onERC1155BatchReceived",
      "outputs": [
        {
          "internalType": "bytes4",
          "name": "",
          "type": "bytes4"
        }
      ],
      "stateMutability": "nonpayable",
      "type": "function"
    },
    {
      "inputs": [
        {
          "internalType": "address",
          "name": "",
          "type": "address"
        },
        {
          "internalType": "address",
          "name": "",
          "type": "address"
        },
        {
          "internalType": "uint256",
          "name": "",
          "type": "uint256"
        },
        {
          "internalType": "uint256",
          "name": "",
          "type": "uint256"
        },
        {
          "internalType": "bytes",
          "name": "",
          "type": "bytes"
        }
      ],
      "name": "onERC1155Received",
      "outputs": [
        {
          "internalType": "bytes4",
          "name": "",
          "type": "bytes4"
        }
      ],
      "stateMutability": "nonpayable",
      "type": "function"
    },
    {
      "inputs": [
        {
          "internalType": "address",
          "name": "",
          "type": "address"
        },
        {
          "internalType": "address",
          "name": "",
          "type": "address"
        },
        {
          "internalType": "uint256",
          "name": "",
          "type": "uint256"
        },
        {
          "internalType": "bytes",
          "name": "",
          "type": "bytes"
        }
      ],
      "name": "onERC721Received",
      "outputs": [
        {
          "internalType": "bytes4",
          "name": "",
          "type": "bytes4"
        }
      ],
      "stateMutability": "nonpayable",
      "type": "function"
    },
    {
      "inputs": [],
      "name": "owner",
      "outputs": [
        {
          "internalType": "address",
          "name": "",
          "type": "address"
        }
      ],
      "stateMutability": "view",
      "type": "function"
    },
    {
      "inputs": [
        {
          "internalType": "address",
          "name": "",
          "type": "address"
        }
      ],
      "name": "platformRevenues",
      "outputs": [
        {
          "internalType": "uint256",
          "name": "",
          "type": "uint256"
        }
      ],
      "stateMutability": "view",
      "type": "function"
    },
    {
      "inputs": [
        {
          "internalType": "address",
          "name": "_erc20",
          "type": "address"
        }
      ],
      "name": "removeApprovedERC20",
      "outputs": [],
      "stateMutability": "nonpayable",
      "type": "function"
    },
    {
      "inputs": [
        {
          "internalType": "address[]",
          "name": "_artists",
          "type": "address[]"
        }
      ],
      "name": "removeWhitelistedArtists",
      "outputs": [],
      "stateMutability": "nonpayable",
      "type": "function"
    },
    {
      "inputs": [],
      "name": "renounceOwnership",
      "outputs": [],
      "stateMutability": "nonpayable",
      "type": "function"
    },
    {
      "inputs": [
        {
          "internalType": "uint256",
          "name": "_tokenId",
          "type": "uint256"
        },
        {
          "internalType": "uint256",
          "name": "_quantity",
          "type": "uint256"
        },
        {
          "internalType": "uint256",
          "name": "_minERC20ToReceive",
          "type": "uint256"
        }
      ],
      "name": "sellElementToAMM",
      "outputs": [
        {
          "internalType": "uint256",
          "name": "_erc20Received",
          "type": "uint256"
        }
      ],
      "stateMutability": "nonpayable",
      "type": "function"
    },
    {
      "inputs": [
        {
          "internalType": "uint256[]",
          "name": "_tokenIds",
          "type": "uint256[]"
        },
        {
          "internalType": "uint256[]",
          "name": "_quantities",
          "type": "uint256[]"
        },
        {
          "internalType": "uint256",
          "name": "_minERC20ToReceive",
          "type": "uint256"
        }
      ],
      "name": "sellElements",
      "outputs": [
        {
          "internalType": "uint256",
          "name": "_erc20Received",
          "type": "uint256"
        }
      ],
      "stateMutability": "nonpayable",
      "type": "function"
    },
    {
      "inputs": [
        {
          "internalType": "bytes4",
          "name": "interfaceId",
          "type": "bytes4"
        }
      ],
      "name": "supportsInterface",
      "outputs": [
        {
          "internalType": "bool",
          "name": "",
          "type": "bool"
        }
      ],
      "stateMutability": "view",
      "type": "function"
    },
    {
      "inputs": [
        {
          "internalType": "address",
          "name": "newOwner",
          "type": "address"
        }
      ],
      "name": "transferOwnership",
      "outputs": [],
      "stateMutability": "nonpayable",
      "type": "function"
    },
    {
      "inputs": [
        {
          "internalType": "uint256",
          "name": "_canvasId",
          "type": "uint256"
        }
      ],
      "name": "unwrap",
      "outputs": [],
      "stateMutability": "nonpayable",
      "type": "function"
    },
    {
      "inputs": [
        {
          "internalType": "uint256",
          "name": "_auctionStartDelay",
          "type": "uint256"
        }
      ],
      "name": "updateAuctionStartDelay",
      "outputs": [],
      "stateMutability": "nonpayable",
      "type": "function"
    },
    {
      "inputs": [
        {
          "internalType": "string",
          "name": "_baseURI",
          "type": "string"
        }
      ],
      "name": "updateBaseURI",
      "outputs": [],
      "stateMutability": "nonpayable",
      "type": "function"
    },
    {
      "inputs": [
        {
          "internalType": "uint256",
          "name": "_projectId",
          "type": "uint256"
        },
        {
          "internalType": "string[]",
          "name": "_elementCategoryLabels",
          "type": "string[]"
        },
        {
          "internalType": "string[]",
          "name": "_elementCategoryValues",
          "type": "string[]"
        }
      ],
      "name": "updateElementCategories",
      "outputs": [],
      "stateMutability": "nonpayable",
      "type": "function"
    },
    {
      "inputs": [
        {
          "internalType": "uint256",
          "name": "_projectId",
          "type": "uint256"
        },
        {
          "internalType": "uint256[]",
          "name": "_elementCategoryIndexes",
          "type": "uint256[]"
        },
        {
          "internalType": "uint256[]",
          "name": "_elementIndexes",
          "type": "uint256[]"
        },
        {
          "internalType": "uint256[]",
          "name": "_elementTokenIds",
          "type": "uint256[]"
        }
      ],
      "name": "updateElements",
      "outputs": [],
      "stateMutability": "nonpayable",
      "type": "function"
    },
    {
      "inputs": [
        {
          "internalType": "uint256",
          "name": "_projectId",
          "type": "uint256"
        },
        {
          "internalType": "address",
          "name": "_artist",
          "type": "address"
        },
        {
          "internalType": "uint256",
          "name": "_elementCategoryIndex",
          "type": "uint256"
        },
        {
          "internalType": "uint256",
          "name": "_elementIndex",
          "type": "uint256"
        },
        {
          "internalType": "uint256",
          "name": "_reserveElementBalance",
          "type": "uint256"
        },
        {
          "internalType": "uint256",
          "name": "_auctionElementBalance",
          "type": "uint256"
        },
        {
          "internalType": "address",
          "name": "_erc20",
          "type": "address"
        },
        {
          "internalType": "uint256",
          "name": "_auctionStartTime",
          "type": "uint256"
        },
        {
          "internalType": "uint256",
          "name": "_auctionEndTime",
          "type": "uint256"
        },
        {
          "internalType": "uint256",
          "name": "_auctionStartPrice",
          "type": "uint256"
        },
        {
          "internalType": "uint256",
          "name": "_auctionEndPrice",
          "type": "uint256"
        }
      ],
      "name": "updateMarket",
      "outputs": [],
      "stateMutability": "nonpayable",
      "type": "function"
    },
    {
      "inputs": [
        {
          "internalType": "uint256",
          "name": "_projectId",
          "type": "uint256"
        },
        {
          "components": [
            {
              "internalType": "uint256",
              "name": "elementCategoryIndex",
              "type": "uint256"
            },
            {
              "internalType": "uint256",
              "name": "elementIndex",
              "type": "uint256"
            },
            {
              "internalType": "uint256",
              "name": "reserveElementBalance",
              "type": "uint256"
            },
            {
              "internalType": "uint256",
              "name": "auctionElementBalance",
              "type": "uint256"
            },
            {
              "internalType": "address",
              "name": "erc20",
              "type": "address"
            },
            {
              "internalType": "uint256",
              "name": "auctionStartTime",
              "type": "uint256"
            },
            {
              "internalType": "uint256",
              "name": "auctionEndTime",
              "type": "uint256"
            },
            {
              "internalType": "uint256",
              "name": "auctionStartPrice",
              "type": "uint256"
            },
            {
              "internalType": "uint256",
              "name": "auctionEndPrice",
              "type": "uint256"
            }
          ],
          "internalType": "struct IMarketplace.CreateMarketData[]",
          "name": "_marketData",
          "type": "tuple[]"
        }
      ],
      "name": "updateMarkets",
      "outputs": [],
      "stateMutability": "nonpayable",
      "type": "function"
    },
    {
      "inputs": [
        {
          "internalType": "uint256",
          "name": "_projectId",
          "type": "uint256"
        },
        {
          "internalType": "string",
          "name": "_metadata",
          "type": "string"
        }
      ],
      "name": "updateMetadata",
      "outputs": [],
      "stateMutability": "nonpayable",
      "type": "function"
    },
    {
      "inputs": [
        {
          "internalType": "uint256",
          "name": "_projectId",
          "type": "uint256"
        },
        {
          "internalType": "uint256",
          "name": "_scriptIndex",
          "type": "uint256"
        },
        {
          "internalType": "string",
          "name": "_script",
          "type": "string"
        }
      ],
      "name": "updateScript",
      "outputs": [],
      "stateMutability": "nonpayable",
      "type": "function"
    },
    {
      "inputs": [
        {
          "internalType": "address",
          "name": "",
          "type": "address"
        }
      ],
      "name": "userNonces",
      "outputs": [
        {
          "internalType": "uint256",
          "name": "",
          "type": "uint256"
        }
      ],
      "stateMutability": "view",
      "type": "function"
    },
    {
      "inputs": [
        {
          "internalType": "uint256",
          "name": "_projectId",
          "type": "uint256"
        },
        {
          "internalType": "uint256[]",
          "name": "_elementIndexes",
          "type": "uint256[]"
        }
      ],
      "name": "wrap",
      "outputs": [
        {
          "internalType": "uint256",
          "name": "_canvasTokenId",
          "type": "uint256"
        }
      ],
      "stateMutability": "nonpayable",
      "type": "function"
    }
  ],
  "transactionHash": "0x52f35e9f8428cf85b5ca877ec006f4f3f17dd6165e6938497a20fb07703ab97f",
  "args": [
    "0x7930DdA80157Fcc47ba9c3836398c82d89C16416",
    "0x2ccCF183d39a1FBab09C26951C5ca89C3E2ad0C2",
    "0x06cAAC2AEa4827395894a72581DC2616bb14f16F",
    172800,
    "https://intrinsic.art"
  ],
  "numDeployments": 1,
  "solcInputHash": "9a6629e87b7d55d380b8b019b765aa78",
  "bytecode": "0x60806040523480156200001157600080fd5b5060405162006247380380620062478339810160408190526200003491620001c9565b6200003f33620000a0565b6200004a85620000a0565b600180546001600160a01b038087166001600160a01b03199283161790925560028054928616929091169190911790556006829055805162000094906003906020840190620000f0565b50505050505062000326565b600080546001600160a01b038381166001600160a01b0319831681178455604051919092169283917f8be0079c531659141344cd1fd0a4f28419497f9722a3daafe3b4186f6b6457e09190a35050565b828054620000fe90620002ea565b90600052602060002090601f0160209004810192826200012257600085556200016d565b82601f106200013d57805160ff19168380011785556200016d565b828001600101855582156200016d579182015b828111156200016d57825182559160200191906001019062000150565b506200017b9291506200017f565b5090565b5b808211156200017b576000815560010162000180565b80516001600160a01b0381168114620001ae57600080fd5b919050565b634e487b7160e01b600052604160045260246000fd5b600080600080600060a08688031215620001e257600080fd5b620001ed8662000196565b94506020620001fe81880162000196565b94506200020e6040880162000196565b6060880151608089015191955093506001600160401b03808211156200023357600080fd5b818901915089601f8301126200024857600080fd5b8151818111156200025d576200025d620001b3565b604051601f8201601f19908116603f01168101908382118183101715620002885762000288620001b3565b816040528281528c86848701011115620002a157600080fd5b600093505b82841015620002c55784840186015181850187015292850192620002a6565b82841115620002d75760008684830101525b8096505050505050509295509295909350565b600181811c90821680620002ff57607f821691505b6020821081036200032057634e487b7160e01b600052602260045260246000fd5b50919050565b615f1180620003366000396000f3fe608060405234801561001057600080fd5b50600436106103f15760003560e01c806385e4ad8911610215578063d58a3aea11610125578063eed5d038116100b8578063f23a6e6111610087578063f23a6e6114610acb578063f2fde38b14610aea578063f97bf1d414610afd578063fbace7a514610b10578063fc78fa8514610b2357600080fd5b8063eed5d03814610a64578063eedd620414610a92578063ef750ab314610aa5578063f0325e1814610ab857600080fd5b8063ddfb64be116100f4578063ddfb64be146109f5578063de0e9a3e14610a23578063e4d035f014610a36578063e73a438e14610a5957600080fd5b8063d58a3aea14610988578063d73792a914610993578063d9a7f0b21461099e578063d9d197a6146109b157600080fd5b80639bfde545116101a8578063c3d6701e11610177578063c3d6701e14610929578063c480df5f1461093c578063cc23cd621461094f578063cc9e965614610962578063cfd0ebb31461097557600080fd5b80639bfde545146107e7578063b1283e77146107fa578063bc197c81146108f7578063c2e81f161461091657600080fd5b80638da5cb5b116101e45780638da5cb5b1461079d5780639129182c146107ae578063931688cb146107c15780639b8e9b5e146107d457600080fd5b806385e4ad89146107595780638705e6a41461076c57806389473fdf146107775780638d2899951461078a57600080fd5b80633803ac4c116103105780636c0360eb116102a3578063747944461161027257806374794446146106c45780637c3a038a146106d75780637d18b24f146106f7578063804f6929146107235780638343ada91461074657600080fd5b80636c0360eb1461068e5780636d92b6be146106965780636e736ffd146106a9578063715018a6146106bc57600080fd5b806352d8691d116102df57806352d8691d1461063557806353c8388e146106555780635a723d1f146106685780636811a3f71461067b57600080fd5b80633803ac4c146105c457806340c2846b146105e4578063416731da146105f75780634f26cc4d1461060a57600080fd5b8063150b7a021161038857806328a3cce21161035757806328a3cce21461056b5780632ca1521a1461057e5780632f7801f41461059157806336885746146105b157600080fd5b8063150b7a02146104e357806318a446451461051a57806320f6ec601461052d5780632884fd001461054057600080fd5b80630b9e01b1116103c45780630b9e01b1146104785780630ba70e1e1461048d5780630effcffd146104ad5780631026b8c3146104d057600080fd5b806301ffc9a7146103f657806304b7f3291461041e57806304d48887146104355780630b0c2e6e14610458575b600080fd5b6104096104043660046148e8565b610b36565b60405190151581526020015b60405180910390f35b61042760065481565b604051908152602001610415565b610409610443366004614932565b600a6020526000908152604090205460ff1681565b61046b61046636600461494f565b610b6d565b6040516104159190614a5b565b61048b610486366004614ab6565b610d91565b005b6104a061049b36600461494f565b610e35565b6040516104159190614b08565b6104096104bb36600461494f565b6000908152600b602052604090205460ff1690565b61046b6104de36600461494f565b610e69565b6105016104f1366004614bde565b630a85bd0160e11b949350505050565b6040516001600160e01b03199091168152602001610415565b61048b610528366004614c8d565b611086565b61042761053b366004614cce565b611127565b600254610553906001600160a01b031681565b6040516001600160a01b039091168152602001610415565b61048b610579366004614cf0565b61155c565b61048b61058c366004614932565b611580565b61042761059f366004614932565b600c6020526000908152604090205481565b6104276105bf366004614cce565b61165f565b6105d76105d236600461494f565b6116a7565b6040516104159190614df4565b6104276105f236600461494f565b6117e4565b6105d761060536600461494f565b6117f3565b610427610618366004614e07565b600760209081526000928352604080842090915290825290205481565b610427610643366004614932565b60086020526000908152604090205481565b61048b610663366004614e40565b611938565b61048b610676366004614f38565b6119c7565b6105d761068936600461494f565b611b1a565b6104a0611c09565b61048b6106a4366004615057565b611c97565b6104276106b73660046150c3565b611d6f565b61048b611fb6565b6104276106d2366004614cce565b611fec565b6106ea6106e536600461494f565b61202a565b60405161041591906151b5565b610409610705366004614932565b6001600160a01b031660009081526004602052604090205460ff1690565b61042761073136600461494f565b6000908152600b602052604090206002015490565b6105d761075436600461494f565b6120ce565b61048b610767366004615394565b6121b2565b6104276305f5e10081565b6104276107853660046150c3565b612403565b61048b610798366004614932565b6124d4565b6000546001600160a01b0316610553565b6104276107bc36600461494f565b612547565b61048b6107cf3660046154d3565b61263d565b600154610553906001600160a01b031681565b6104276107f5366004615508565b612673565b61087d61080836600461494f565b600960208190526000918252604090912080546001820154600283015460038401546004850154600586015460068701546007880154600889015499890154600a8a0154600b8b0154600c909b0154999b989a979996989597949693956001600160a01b03938416959094929391929091168d565b604080519d8e5260208e019c909c529a8c019990995260608b019790975260808a019590955260a089019390935260c08801919091526001600160a01b0390811660e0880152610100870191909152610120860191909152610140850191909152610160840191909152166101808201526101a001610415565b610501610905366004615534565b63bc197c8160e01b95945050505050565b61042761092436600461494f565b6126be565b61048b610937366004614932565b612727565b61048b61094a3660046155e1565b6127ec565b61042761095d366004615508565b61292d565b6105d761097036600461494f565b612971565b61048b610983366004615660565b612ab6565b61042763047868c081565b610427633b9aca0081565b61048b6109ac3660046156fb565b612be1565b6109de6109bf36600461494f565b600b602052600090815260409020805460029091015460ff9091169082565b604080519215158352602083019190915201610415565b610553610a0336600461494f565b60009081526005602052604090205461010090046001600160a01b031690565b61048b610a3136600461494f565b61302c565b610409610a4436600461494f565b60009081526005602052604090205460ff1690565b61042763017d784081565b610a77610a72366004614cce565b613304565b60408051938452602084019290925290820152606001610415565b61048b610aa0366004614c8d565b613373565b6104a0610ab336600461494f565b61340f565b61048b610ac636600461494f565b6134b4565b610501610ad936600461578e565b63f23a6e6160e01b95945050505050565b61048b610af8366004614932565b613519565b61048b610b0b366004614932565b6135b4565b61048b610b1e36600461494f565b61362a565b610427610b313660046157f6565b6136e8565b60006001600160e01b03198216630271189760e51b1480610b6757506301ffc9a760e01b6001600160e01b03198316145b92915050565b600081815260056020526040902060020154606090806001600160401b03811115610b9a57610b9a614b1b565b604051908082528060200260200182016040528015610bcd57816020015b6060815260200190600190039081610bb85790505b50915060005b81811015610d8a576000848152600560205260408120600401805483908110610bfe57610bfe615834565b60009182526020822001549150816001600160401b03811115610c2357610c23614b1b565b604051908082528060200260200182016040528015610c5657816020015b6060815260200190600190039081610c415790505b50905060005b82811015610d5657600254600088815260056020526040902060040180546001600160a01b039092169163dccd6a3e919087908110610c9d57610c9d615834565b906000526020600020018381548110610cb857610cb8615834565b90600052602060002001546040518263ffffffff1660e01b8152600401610ce191815260200190565b600060405180830381865afa158015610cfe573d6000803e3d6000fd5b505050506040513d6000823e601f3d908101601f19168201604052610d26919081019061584a565b828281518110610d3857610d38615834565b60200260200101819052508080610d4e906158cd565b915050610c5c565b5080858481518110610d6a57610d6a615834565b602002602001018190525050508080610d82906158cd565b915050610bd3565b5050919050565b600084815260056020526040902054849061010090046001600160a01b03163314610dd75760405162461bcd60e51b8152600401610dce906158e6565b60405180910390fd5b60008181526005602052604090205460ff1615610e065760405162461bcd60e51b8152600401610dce90615903565b60008581526005602090815260408083208784526001019091529020610e2d90848461465d565b505050505050565b60606003610e4283613c12565b604051602001610e539291906159f3565b6040516020818303038152906040529050919050565b600081815260056020526040902060020154606090806001600160401b03811115610e9657610e96614b1b565b604051908082528060200260200182016040528015610ec957816020015b6060815260200190600190039081610eb45790505b50915060005b81811015610d8a576000848152600560205260408120600401805483908110610efa57610efa615834565b60009182526020822001549150816001600160401b03811115610f1f57610f1f614b1b565b604051908082528060200260200182016040528015610f5257816020015b6060815260200190600190039081610f3d5790505b50905060005b8281101561105257600254600088815260056020526040902060040180546001600160a01b03909216916355a1dde7919087908110610f9957610f99615834565b906000526020600020018381548110610fb457610fb4615834565b90600052602060002001546040518263ffffffff1660e01b8152600401610fdd91815260200190565b600060405180830381865afa158015610ffa573d6000803e3d6000fd5b505050506040513d6000823e601f3d908101601f19168201604052611022919081019061584a565b82828151811061103457611034615834565b6020026020010181905250808061104a906158cd565b915050610f58565b508085848151811061106657611066615834565b60200260200101819052505050808061107e906158cd565b915050610ecf565b6000546001600160a01b031633146110b05760405162461bcd60e51b8152600401610dce90615a18565b60005b81811015611122576001600460008585858181106110d3576110d3615834565b90506020020160208101906110e89190614932565b6001600160a01b031681526020810191909152604001600020805460ff19169115159190911790558061111a816158cd565b9150506110b3565b505050565b600080821161115e5760405162461bcd60e51b815260206004820152600360248201526226989960e91b6044820152606401610dce565b6000838152600960205260409020600801546111a25760405162461bcd60e51b81526020600482015260036024820152624d313360e81b6044820152606401610dce565b6000838152600960205260409020600801544210156111e95760405162461bcd60e51b8152602060048201526003602482015262134c4d60ea1b6044820152606401610dce565b6000838152600960205260409020600401548211156112305760405162461bcd60e51b81526020600482015260036024820152624d313560e81b6044820152606401610dce565b6000838152600960205260408120600701546001600160a01b03169061125585612547565b90506112618482615a4d565b9250836009600087815260200190815260200160002060040160008282546112899190615a6c565b9091555050600085815260096020526040812054900361130b57600085815260096020526040812060010180548592906112c4908490615a83565b909155505060008581526009602052604090206004015415806112f857506000858152600960208190526040909120015442115b156113065761130685613ca4565b6114a0565b600085815260096020526040812060068101546005820154600490920154909161133491615a4d565b61133e9190615a9b565b60008781526009602052604090206003015461135a9190615a6c565b9050600081156113f95760006113708484615a4d565b905082600960008a815260200190815260200160002060030160008282546113989190615a6c565b9091555050600088815260096020526040812060020180548592906113be908490615a83565b9091555050600088815260096020526040812080548392906113e1908490615a83565b909155506113f190508187615a6c565b9150506113fc565b50835b6000633b9aca006114116305f5e10084615a4d565b61141b9190615a9b565b90506114278183615a6c565b6000898152600960209081526040808320600c01546001600160a01b03908116845260078352818420908a1684529091528120805490919061146a908490615a83565b90915550506001600160a01b03851660009081526008602052604081208054839290611497908490615a83565b90915550505050505b6114b56001600160a01b038316333086613e9e565b600254604051637921219560e11b81526001600160a01b039091169063f242432a906114eb90309033908a908a90600401615abd565b600060405180830381600087803b15801561150557600080fd5b505af1158015611519573d6000803e3d6000fd5b50506040518681528792503391507ff818e604778155368a650efc2f808dcaf2a1e06b0db867c681e2ce232f8197519060200160405180910390a3505092915050565b6115698888888888611d6f565b506115758383836136e8565b505050505050505050565b6000546001600160a01b031633146115aa5760405162461bcd60e51b8152600401610dce90615a18565b6001600160a01b038116600090815260086020526040902054806115f65760405162461bcd60e51b815260206004820152600360248201526226989b60e91b6044820152606401610dce565b6001600160a01b03821660008181526008602052604081205561161a903383613f09565b6040518181526001600160a01b0383169033907f2f48e090d0e0f4a9b71b6daf952883ac941749f52ee4f6adb8d18d25d6410921906020015b60405180910390a35050565b60008281526009602052604081208054600290910154816116808583615a6c565b61168a8484615a4d565b6116949190615a9b565b61169e9190615a6c565b95945050505050565b606060006116b4836126be565b9050806001600160401b038111156116ce576116ce614b1b565b60405190808252806020026020018201604052801561170157816020015b60608152602001906001900390816116ec5790505b50915060005b81811015610d8a5760008481526005602090815260408083208484526001019091529020805461173690615920565b80601f016020809104026020016040519081016040528092919081815260200182805461176290615920565b80156117af5780601f10611784576101008083540402835291602001916117af565b820191906000526020600020905b81548152906001019060200180831161179257829003601f168201915b50505050508382815181106117c6576117c6615834565b602002602001018190525080806117dc906158cd565b915050611707565b6000610b67620f424083615a9b565b6000818152600b6020526040902060010154606090806001600160401b0381111561182057611820614b1b565b60405190808252806020026020018201604052801561185357816020015b606081526020019060019003908161183e5790505b50915060005b81811015610d8a576002546000858152600b6020526040902060010180546001600160a01b039092169163dccd6a3e91908490811061189a5761189a615834565b90600052602060002001546040518263ffffffff1660e01b81526004016118c391815260200190565b600060405180830381865afa1580156118e0573d6000803e3d6000fd5b505050506040513d6000823e601f3d908101601f19168201604052611908919081019061584a565b83828151811061191a5761191a615834565b60200260200101819052508080611930906158cd565b915050611859565b600083815260056020526040902054839061010090046001600160a01b031633146119755760405162461bcd60e51b8152600401610dce906158e6565b60008181526005602052604090205460ff16156119a45760405162461bcd60e51b8152600401610dce90615903565b60008481526005602052604090206119c090600601848461465d565b5050505050565b60008b8152600560205260409020548b9061010090046001600160a01b03163314611a045760405162461bcd60e51b8152600401610dce906158e6565b60008181526005602052604090205460ff1615611a335760405162461bcd60e51b8152600401610dce90615903565b898814611a525760405162461bcd60e51b8152600401610dce90615af5565b86518a14611a725760405162461bcd60e51b8152600401610dce90615af5565b611b0c8c8c8c8c8c600260009054906101000a90046001600160a01b03166001600160a01b0316636a25a7998e8e8e8e8e8e6040518763ffffffff1660e01b8152600401611ac596959493929190615b91565b6000604051808303816000875af1158015611ae4573d6000803e3d6000fd5b505050506040513d6000823e601f3d908101601f191682016040526109839190810190615cc5565b505050505050505050505050565b606060056000838152602001908152602001600020600201805480602002602001604051908101604052809291908181526020016000905b82821015611bfe578382906000526020600020018054611b7190615920565b80601f0160208091040260200160405190810160405280929190818152602001828054611b9d90615920565b8015611bea5780601f10611bbf57610100808354040283529160200191611bea565b820191906000526020600020905b815481529060010190602001808311611bcd57829003601f168201915b505050505081526020019060010190611b52565b505050509050919050565b60038054611c1690615920565b80601f0160208091040260200160405190810160405280929190818152602001828054611c4290615920565b8015611c8f5780601f10611c6457610100808354040283529160200191611c8f565b820191906000526020600020905b815481529060010190602001808311611c7257829003601f168201915b505050505081565b600083815260056020526040902054839061010090046001600160a01b03163314611cd45760405162461bcd60e51b8152600401610dce906158e6565b60008181526005602052604090205460ff1615611d035760405162461bcd60e51b8152600401610dce90615903565b8151835114611d245760405162461bcd60e51b8152600401610dce90615af5565b60008481526005602090815260409091208451611d49926002909201918601906146e1565b50600084815260056020908152604090912083516119c0926003909201918501906146e1565b6000848314611da65760405162461bcd60e51b81526020600482015260036024820152624d303960e81b6044820152606401610dce565b60005b85811015611f7f5760096000888884818110611dc757611dc7615834565b90506020020135815260200190815260200160002060040154600003611e3257611e21878783818110611dfc57611dfc615834565b90506020020135868684818110611e1557611e15615834565b90506020020135613f39565b611e2b9083615a83565b9150611f6d565b848482818110611e4457611e44615834565b9050602002013560096000898985818110611e6157611e61615834565b9050602002013581526020019081526020016000206004015410611eb957611e21878783818110611e9457611e94615834565b90506020020135868684818110611ead57611ead615834565b90506020020135611127565b600060096000898985818110611ed157611ed1615834565b905060200201358152602001908152602001600020600401549050611f0e888884818110611f0157611f01615834565b9050602002013582611127565b611f189084615a83565b9250611f5f888884818110611f2f57611f2f615834565b9050602002013582888886818110611f4957611f49615834565b90506020020135611f5a9190615a6c565b613f39565b611f699084615a83565b9250505b80611f77816158cd565b915050611da9565b508181111561169e5760405162461bcd60e51b815260206004820152600360248201526204d31360ec1b6044820152606401610dce565b6000546001600160a01b03163314611fe05760405162461bcd60e51b8152600401610dce90615a18565b611fea600061415b565b565b6000828152600960205260408120805460029091015461200c8482615a83565b6120168383615a4d565b6120209190615a9b565b61169e9083615a6c565b606060056000838152602001908152602001600020600401805480602002602001604051908101604052809291908181526020016000905b82821015611bfe576000848152602090819020830180546040805182850281018501909152818152928301828280156120ba57602002820191906000526020600020905b8154815260200190600101908083116120a6575b505050505081526020019060010190612062565b606060056000838152602001908152602001600020600301805480602002602001604051908101604052809291908181526020016000905b82821015611bfe57838290600052602060002001805461212590615920565b80601f016020809104026020016040519081016040528092919081815260200182805461215190615920565b801561219e5780601f106121735761010080835404028352916020019161219e565b820191906000526020600020905b81548152906001019060200180831161218157829003601f168201915b505050505081526020019060010190612106565b3360009081526004602052604090205460ff166121f75760405162461bcd60e51b815260206004820152600360248201526250303360e81b6044820152606401610dce565b336000908152600460208190526040808320805460ff191690556001549051637416b2b960e11b81523092810192909252602482018c90526001600160a01b03169063e82d6572906044016020604051808303816000875af1158015612261573d6000803e3d6000fd5b505050506040513d601f19601f820116820180604052508101906122859190615cf9565b600081815260056020908152604090912080546001600160a01b038f1661010002610100600160a81b03199091161781558b519293506122cd926006909101918c019061473a565b50600081815260056020908152604090912089516122f3926002909201918b01906146e1565b5060008181526005602090815260409091208851612319926003909201918a01906146e1565b506002546040516378a9895b60e11b81526001600160a01b039091169063f15312b6906123529089908990899089908990600401615d12565b6000604051808303816000875af1158015612371573d6000803e3d6000fd5b505050506040513d6000823e601f3d908101601f191682016040526123999190810190615dae565b6005600083815260200190815260200160002060040190805190602001906123c29291906147ae565b506040518181527f1ac2092e16e28eef29d1832f3dc69da1b21284a1f3159d3b26cb238b22fe4f8a9060200160405180910390a15050505050505050505050565b600084831461243a5760405162461bcd60e51b81526020600482015260036024820152624d303960e81b6044820152606401610dce565b60005b8581101561249d5761247f87878381811061245a5761245a615834565b9050602002013586868481811061247357612473615834565b905060200201356141ab565b6124899083615a83565b915080612495816158cd565b91505061243d565b508181101561169e5760405162461bcd60e51b81526020600482015260036024820152624d313160e81b6044820152606401610dce565b6000546001600160a01b031633146124fe5760405162461bcd60e51b8152600401610dce90615a18565b6001600160a01b0381166000818152600a6020526040808220805460ff19169055517f3b12d2bd1a0a7572fe4881868072d31ec038c35a41fe080d1cb89e1013516f779190a250565b60008181526009602052604081206008015442101561257657506000908152600960205260409020600a015490565b600082815260096020819052604090912001544211156125a657506000908152600960205260409020600b015490565b600082815260096020819052604090912060088101549101546125c99190615a6c565b6000838152600960205260409020600b810154600a909101546125ec9190615a6c565b6000848152600960205260409020600801546126089042615a6c565b6126129190615a4d565b61261c9190615a9b565b6000838152600960205260409020600a0154610b679190615a6c565b919050565b6000546001600160a01b031633146126675760405162461bcd60e51b8152600401610dce90615a18565b6111226003838361465d565b600061267f8484613f39565b9050818111156126b75760405162461bcd60e51b815260206004820152600360248201526204d31360ec1b6044820152606401610dce565b9392505050565b6000805b604080516000808252602080830180855283519020878352600582528483208684526001019091529083902090926126fa9201615e5e565b6040516020818303038152906040528051906020012014610b67578061271f816158cd565b9150506126c2565b3360009081526007602090815260408083206001600160a01b03851684529091529020548061277e5760405162461bcd60e51b815260206004820152600360248201526226989b60e91b6044820152606401610dce565b3360008181526007602090815260408083206001600160a01b03871680855292528220919091556127af9183613f09565b6040518181526001600160a01b0383169033907fd3a9278fe8dc6b954e6a19cf23e5d70b445c621918754d5ceaec526a7d26a0de90602001611653565b60005b8181101561292757612915843385858581811061280e5761280e615834565b905061012002016000013586868681811061282b5761282b615834565b905061012002016020013587878781811061284857612848615834565b905061012002016040013588888881811061286557612865615834565b905061012002016060013589898981811061288257612882615834565b90506101200201608001602081019061289b9190614932565b8a8a8a8181106128ad576128ad615834565b9050610120020160a001358b8b8b8181106128ca576128ca615834565b9050610120020160c001358c8c8c8181106128e7576128e7615834565b9050610120020160e001358d8d8d81811061290457612904615834565b905061012002016101000135612be1565b8061291f816158cd565b9150506127ef565b50505050565b600061293984846141ab565b9050818110156126b75760405162461bcd60e51b81526020600482015260036024820152624d313160e81b6044820152606401610dce565b6000818152600b6020526040902060010154606090806001600160401b0381111561299e5761299e614b1b565b6040519080825280602002602001820160405280156129d157816020015b60608152602001906001900390816129bc5790505b50915060005b81811015610d8a576002546000858152600b6020526040902060010180546001600160a01b03909216916355a1dde7919084908110612a1857612a18615834565b90600052602060002001546040518263ffffffff1660e01b8152600401612a4191815260200190565b600060405180830381865afa158015612a5e573d6000803e3d6000fd5b505050506040513d6000823e601f3d908101601f19168201604052612a86919081019061584a565b838281518110612a9857612a98615834565b60200260200101819052508080612aae906158cd565b9150506129d7565b600086815260056020526040902054869061010090046001600160a01b03163314612af35760405162461bcd60e51b8152600401610dce906158e6565b60008181526005602052604090205460ff1615612b225760405162461bcd60e51b8152600401610dce90615903565b60005b85811015612bd757828181518110612b3f57612b3f615834565b6020026020010151600560008a8152602001908152602001600020600401888884818110612b6f57612b6f615834565b9050602002013581548110612b8657612b86615834565b90600052602060002001868684818110612ba257612ba2615834565b9050602002013581548110612bb957612bb9615834565b60009182526020909120015580612bcf816158cd565b915050612b25565b5050505050505050565b60008b81526005602052604090205461010090046001600160a01b03163314612c325760405162461bcd60e51b81526020600482015260036024820152624d303160e81b6044820152606401610dce565b60008b81526005602052604090205460ff16612c765760405162461bcd60e51b815260206004820152600360248201526226981960e91b6044820152606401610dce565b600654612c839042615a83565b841015612cb85760405162461bcd60e51b81526020600482015260036024820152624d303360e81b6044820152606401610dce565b83831015612cee5760405162461bcd60e51b8152602060048201526003602482015262134c0d60ea1b6044820152606401610dce565b81811115612d245760405162461bcd60e51b81526020600482015260036024820152624d303560e81b6044820152606401610dce565b60008b815260056020526040812060040180548b908110612d4757612d47615834565b906000526020600020018981548110612d6257612d62615834565b9060005260206000200154905060008111612da55760405162461bcd60e51b815260206004820152600360248201526226981b60e91b6044820152606401610dce565b6001600160a01b0386166000908152600a602052604090205460ff16612df35760405162461bcd60e51b81526020600482015260036024820152624d303760e81b6044820152606401610dce565b612dfd8789615a83565b600254604051627eeac760e11b8152306004820152602481018490526001600160a01b039091169062fdd58e90604401602060405180830381865afa158015612e4a573d6000803e3d6000fd5b505050506040513d601f19601f82011682018060405250810190612e6e9190615cf9565b1015612ea25760405162461bcd60e51b815260206004820152600360248201526209a60760eb1b6044820152606401610dce565b8a60096000838152602001908152602001600020600c0160006101000a8154816001600160a01b0302191690836001600160a01b03160217905550876009600083815260200190815260200160002060030181905550876009600083815260200190815260200160002060050181905550866009600083815260200190815260200160002060040181905550866009600083815260200190815260200160002060060181905550856009600083815260200190815260200160002060070160006101000a8154816001600160a01b0302191690836001600160a01b031602179055508460096000838152602001908152602001600020600801819055508360096000838152602001908152602001600020600901819055508260096000838152602001908152602001600020600a01819055508160096000838152602001908152602001600020600b0181905550808c7f78ba7fa146d924748fc0936e443dd9d16f763c75b1e00f33378357f1a483389460405160405180910390a3505050505050505050505050565b6001546040516331a9108f60e11b8152600481018390526001600160a01b0390911690636352211e90602401602060405180830381865afa158015613075573d6000803e3d6000fd5b505050506040513d601f19601f820116820180604052508101906130999190615e6a565b6001600160a01b0316336001600160a01b0316146130df5760405162461bcd60e51b815260206004820152600360248201526253303360e81b6044820152606401610dce565b6000818152600b602052604090205460ff166131235760405162461bcd60e51b815260206004820152600360248201526214cc0d60ea1b6044820152606401610dce565b60005b6000828152600b60205260409020600101548110156131ed576002546000838152600b6020526040902060010180546001600160a01b039092169163f242432a9130913391908690811061317c5761317c615834565b906000526020600020015460016040518563ffffffff1660e01b81526004016131a89493929190615abd565b600060405180830381600087803b1580156131c257600080fd5b505af11580156131d6573d6000803e3d6000fd5b5050505080806131e5906158cd565b915050613126565b506000818152600b6020818152604080842060028101859055805460ff19168155815185815280840192839052948690529290915291516132349260019092019190614807565b50600154604051632142170760e11b8152336004820152306024820152604481018390526001600160a01b03909116906342842e0e90606401600060405180830381600087803b15801561328757600080fd5b505af115801561329b573d6000803e3d6000fd5b50505050600560006132ac836117e4565b815260208082019290925260409081016000908120600501805460018101825590825292812090920183905551339183917f1ce66d646856a661a790ff962311cb84d9c3eb337ba33f9b73ca2907d842b36c9190a350565b600080600080613314868661165f565b9050633b9aca0061332963047868c083615a4d565b6133339190615a9b565b9250633b9aca0061334863017d784083615a4d565b6133529190615a9b565b91508161335f8483615a83565b6133699190615a83565b9350509250925092565b6000546001600160a01b0316331461339d5760405162461bcd60e51b8152600401610dce90615a18565b60005b81811015611122576000600460008585858181106133c0576133c0615834565b90506020020160208101906133d59190614932565b6001600160a01b031681526020810191909152604001600020805460ff191691151591909117905580613407816158cd565b9150506133a0565b600081815260056020526040902060060180546060919061342f90615920565b80601f016020809104026020016040519081016040528092919081815260200182805461345b90615920565b80156134a85780601f1061347d576101008083540402835291602001916134a8565b820191906000526020600020905b81548152906001019060200180831161348b57829003601f168201915b50505050509050919050565b6000546001600160a01b031633146134de5760405162461bcd60e51b8152600401610dce90615a18565b60068190556040518181527f28f3b7e92bea3a83a4ed0552cff96f294f494ee5c34a27cab92a3ec6bdbd431d9060200160405180910390a150565b6000546001600160a01b031633146135435760405162461bcd60e51b8152600401610dce90615a18565b6001600160a01b0381166135a85760405162461bcd60e51b815260206004820152602660248201527f4f776e61626c653a206e6577206f776e657220697320746865207a65726f206160448201526564647265737360d01b6064820152608401610dce565b6135b18161415b565b50565b6000546001600160a01b031633146135de5760405162461bcd60e51b8152600401610dce90615a18565b6001600160a01b0381166000818152600a6020526040808220805460ff19166001179055517f6ddb01b9f2e3a31eb92e55edced79e8aee30bbc398ced64a4a3ad2d7fd25a7769190a250565b600081815260056020526040902054819061010090046001600160a01b031633146136675760405162461bcd60e51b8152600401610dce906158e6565b60008181526005602052604090205460ff16156136965760405162461bcd60e51b8152600401610dce90615903565b60008281526005602052604090206004810154600290910154146136cc5760405162461bcd60e51b8152600401610dce90615af5565b506000908152600560205260409020805460ff19166001179055565b600083815260056020526040812060020154821461372e5760405162461bcd60e51b815260206004820152600360248201526253303160e81b6044820152606401610dce565b600154604051639116ce7f60e01b8152600481018690526001600160a01b0390911690639116ce7f90602401602060405180830381865afa158015613777573d6000803e3d6000fd5b505050506040513d601f19601f8201168201806040525081019061379b9190615cf9565b60015460405163341d1eb760e01b8152600481018790526001600160a01b039091169063341d1eb790602401602060405180830381865afa1580156137e4573d6000803e3d6000fd5b505050506040513d601f19601f820116820180604052508101906138089190615cf9565b101561388a576001546040516394bf804d60e01b8152600481018690523360248201526001600160a01b03909116906394bf804d906044016020604051808303816000875af115801561385f573d6000803e3d6000fd5b505050506040513d601f19601f820116820180604052508101906138839190615cf9565b90506139b4565b600084815260056020819052604090912001546138cf5760405162461bcd60e51b815260206004820152600360248201526229981960e91b6044820152606401610dce565b60008481526005602081905260409091200180546138ef90600190615a6c565b815481106138ff576138ff615834565b906000526020600020015490506005600085815260200190815260200160002060050180548061393157613931615e87565b600082815260208120600019908301810191909155019055600154604051632142170760e11b8152306004820152336024820152604481018390526001600160a01b03909116906342842e0e90606401600060405180830381600087803b15801561399b57600080fd5b505af11580156139af573d6000803e3d6000fd5b505050505b336000818152600c6020908152604080832054905192936139f49390920160609290921b6bffffffffffffffffffffffff19168252601482015260340190565b60408051601f1981840301815291815281516020928301206000858152600b9093529082206002018190559150836001600160401b03811115613a3957613a39614b1b565b604051908082528060200260200182016040528015613a62578160200160208202803683370190505b50905060005b84811015613b89576000878152600560205260409020600401805482908110613a9357613a93615834565b90600052602060002001868683818110613aaf57613aaf615834565b9050602002013581548110613ac657613ac6615834565b9060005260206000200154828281518110613ae357613ae3615834565b602090810291909101015260025482516001600160a01b039091169063f242432a9033903090869086908110613b1b57613b1b615834565b602002602001015160016040518563ffffffff1660e01b8152600401613b449493929190615abd565b600060405180830381600087803b158015613b5e57600080fd5b505af1158015613b72573d6000803e3d6000fd5b505050508080613b81906158cd565b915050613a68565b506000838152600b60209081526040909120805460ff1916600190811782558351613bbb939290910191840190614807565b50336000908152600c60205260408120805491613bd7836158cd565b9091555050604051339084907f0a8845a2c57cee2e7626fb1c364719df23696ce4c67538926c65271c600a4e5b90600090a350509392505050565b60606000613c1f83614332565b60010190506000816001600160401b03811115613c3e57613c3e614b1b565b6040519080825280601f01601f191660200182016040528015613c68576020820181803683370190505b5090508181016020015b600019016f181899199a1a9b1b9c1cb0b131b232b360811b600a86061a8153600a8504945084613c7257509392505050565b6000818152600960205260408120600681015460058201546004909201549091613ccd91615a4d565b613cd79190615a9b565b600083815260096020526040902060030154613cf39190615a6c565b90506000613d0083612547565b90506000613d0e8284615a4d565b905082600960008681526020019081526020016000206003016000828254613d369190615a6c565b909155505060008481526009602052604081206002018054859290613d5c908490615a83565b909155505060008481526009602052604081208054839290613d7f908490615a83565b9091555050600084815260096020526040812060010154613da1908390615a6c565b6000868152600960205260408120600101819055909150633b9aca00613dcb6305f5e10084615a4d565b613dd59190615a9b565b6000878152600960209081526040808320600701546001600160a01b03168084526008909252822080549394509092849290613e12908490615a83565b90915550613e2290508284615a6c565b6000888152600960209081526040808320600c01546001600160a01b03908116845260078352818420908616845290915281208054909190613e65908490615a83565b909155505060405187907faef20c9dfbb56080a17bbaa5a9bb0a228dd253c24d3f14aa8fe9ed8b9df7d4c990600090a250505050505050565b6040516001600160a01b03808516602483015283166044820152606481018290526129279085906323b872dd60e01b906084015b60408051601f198184030181529190526020810180516001600160e01b03166001600160e01b03199093169290921790915261440a565b6040516001600160a01b03831660248201526044810182905261112290849063a9059cbb60e01b90606401613ed2565b600082815260096020526040812054613f7a5760405162461bcd60e51b81526020600482015260036024820152624d313760e81b6044820152606401610dce565b600080613f878585613304565b6000888152600960209081526040808320600701546001600160a01b0316808452600890925282208054959850939650919450909284929190613fcb908490615a83565b90915550506000868152600960209081526040808320600c01546001600160a01b03908116845260078352818420908516845290915281208054859290614013908490615a83565b909155508290506140248486615a6c565b61402e9190615a6c565b6000878152600960205260408120805490919061404c908490615a83565b909155505060008681526009602052604081206002018054879290614072908490615a6c565b9091555050600254604051637921219560e11b81526001600160a01b039091169063f242432a906140ad90309033908b908b90600401615abd565b600060405180830381600087803b1580156140c757600080fd5b505af11580156140db573d6000803e3d6000fd5b506140f5925050506001600160a01b038216333087613e9e565b60008681526009602090815260409182902080546002909101548351888152928301919091528183015290518691889133917f25b914bf0dcec2801fe2fd8bb0cf22531a55d31498f758c83a7841b5839cfd62919081900360600190a450505092915050565b600080546001600160a01b038381166001600160a01b0319831681178455604051919092169283917f8be0079c531659141344cd1fd0a4f28419497f9722a3daafe3b4186f6b6457e09190a35050565b6000828152600960205260408120546141ec5760405162461bcd60e51b81526020600482015260036024820152624d313760e81b6044820152606401610dce565b6141f68383611fec565b6000848152600960205260408120600781015481549394506001600160a01b031692849290614226908490615a6c565b90915550506000848152600960205260408120600201805485929061424c908490615a83565b9091555050600254604051637921219560e11b81526001600160a01b039091169063f242432a90614287903390309089908990600401615abd565b600060405180830381600087803b1580156142a157600080fd5b505af11580156142b5573d6000803e3d6000fd5b506142ce925050506001600160a01b0382163384613f09565b60008481526009602090815260409182902080546002909101548351868152928301919091528183015290518491869133917fe7f09dc659010c4a1b60a33773dd27491fbb9d1b5670ca317c413ba0db0f1bad919081900360600190a45092915050565b60008072184f03e93ff9f4daa797ed6e38ed64bf6a1f0160401b83106143715772184f03e93ff9f4daa797ed6e38ed64bf6a1f0160401b830492506040015b6d04ee2d6d415b85acef8100000000831061439d576d04ee2d6d415b85acef8100000000830492506020015b662386f26fc1000083106143bb57662386f26fc10000830492506010015b6305f5e10083106143d3576305f5e100830492506008015b61271083106143e757612710830492506004015b606483106143f9576064830492506002015b600a8310610b675760010192915050565b600061445f826040518060400160405280602081526020017f5361666545524332303a206c6f772d6c6576656c2063616c6c206661696c6564815250856001600160a01b03166144dc9092919063ffffffff16565b805190915015611122578080602001905181019061447d9190615e9d565b6111225760405162461bcd60e51b815260206004820152602a60248201527f5361666545524332303a204552433230206f7065726174696f6e20646964206e6044820152691bdd081cdd58d8d9595960b21b6064820152608401610dce565b60606144eb84846000856144f3565b949350505050565b6060824710156145545760405162461bcd60e51b815260206004820152602660248201527f416464726573733a20696e73756666696369656e742062616c616e636520666f6044820152651c8818d85b1b60d21b6064820152608401610dce565b6001600160a01b0385163b6145ab5760405162461bcd60e51b815260206004820152601d60248201527f416464726573733a2063616c6c20746f206e6f6e2d636f6e74726163740000006044820152606401610dce565b600080866001600160a01b031685876040516145c79190615ebf565b60006040518083038185875af1925050503d8060008114614604576040519150601f19603f3d011682016040523d82523d6000602084013e614609565b606091505b5091509150614619828286614624565b979650505050505050565b606083156146335750816126b7565b8251156146435782518084602001fd5b8160405162461bcd60e51b8152600401610dce9190614b08565b82805461466990615920565b90600052602060002090601f01602090048101928261468b57600085556146d1565b82601f106146a45782800160ff198235161785556146d1565b828001600101855582156146d1579182015b828111156146d15782358255916020019190600101906146b6565b506146dd929150614841565b5090565b82805482825590600052602060002090810192821561472e579160200282015b8281111561472e578251805161471e91849160209091019061473a565b5091602001919060010190614701565b506146dd929150614856565b82805461474690615920565b90600052602060002090601f01602090048101928261476857600085556146d1565b82601f1061478157805160ff19168380011785556146d1565b828001600101855582156146d1579182015b828111156146d1578251825591602001919060010190614793565b8280548282559060005260206000209081019282156147fb579160200282015b828111156147fb57825180516147eb918491602090910190614807565b50916020019190600101906147ce565b506146dd929150614873565b8280548282559060005260206000209081019282156146d157916020028201828111156146d1578251825591602001919060010190614793565b5b808211156146dd5760008155600101614842565b808211156146dd57600061486a8282614890565b50600101614856565b808211156146dd57600061488782826148ca565b50600101614873565b50805461489c90615920565b6000825580601f106148ac575050565b601f0160209004906000526020600020908101906135b19190614841565b50805460008255906000526020600020908101906135b19190614841565b6000602082840312156148fa57600080fd5b81356001600160e01b0319811681146126b757600080fd5b6001600160a01b03811681146135b157600080fd5b803561263881614912565b60006020828403121561494457600080fd5b81356126b781614912565b60006020828403121561496157600080fd5b5035919050565b60005b8381101561498357818101518382015260200161496b565b838111156129275750506000910152565b600081518084526149ac816020860160208601614968565b601f01601f19169290920160200192915050565b60008282518085526020808601955060058183821b8501018287016000805b86811015614a4c57601f1988850381018c5283518051808752908801908887019080891b88018a01865b82811015614a3557858a8303018452614a23828651614994565b948c0194938c01939150600101614a09565b509e8a019e975050509387019350506001016149df565b50919998505050505050505050565b6020815260006126b760208301846149c0565b60008083601f840112614a8057600080fd5b5081356001600160401b03811115614a9757600080fd5b602083019150836020828501011115614aaf57600080fd5b9250929050565b60008060008060608587031215614acc57600080fd5b843593506020850135925060408501356001600160401b03811115614af057600080fd5b614afc87828801614a6e565b95989497509550505050565b6020815260006126b76020830184614994565b634e487b7160e01b600052604160045260246000fd5b604051601f8201601f191681016001600160401b0381118282101715614b5957614b59614b1b565b604052919050565b60006001600160401b03821115614b7a57614b7a614b1b565b50601f01601f191660200190565b600082601f830112614b9957600080fd5b8135614bac614ba782614b61565b614b31565b818152846020838601011115614bc157600080fd5b816020850160208301376000918101602001919091529392505050565b60008060008060808587031215614bf457600080fd5b8435614bff81614912565b93506020850135614c0f81614912565b92506040850135915060608501356001600160401b03811115614c3157600080fd5b614c3d87828801614b88565b91505092959194509250565b60008083601f840112614c5b57600080fd5b5081356001600160401b03811115614c7257600080fd5b6020830191508360208260051b8501011115614aaf57600080fd5b60008060208385031215614ca057600080fd5b82356001600160401b03811115614cb657600080fd5b614cc285828601614c49565b90969095509350505050565b60008060408385031215614ce157600080fd5b50508035926020909101359150565b60008060008060008060008060a0898b031215614d0c57600080fd5b88356001600160401b0380821115614d2357600080fd5b614d2f8c838d01614c49565b909a50985060208b0135915080821115614d4857600080fd5b614d548c838d01614c49565b909850965060408b0135955060608b0135945060808b0135915080821115614d7b57600080fd5b50614d888b828c01614c49565b999c989b5096995094979396929594505050565b600082825180855260208086019550808260051b84010181860160005b84811015614de757601f19868403018952614dd5838351614994565b98840198925090830190600101614db9565b5090979650505050505050565b6020815260006126b76020830184614d9c565b60008060408385031215614e1a57600080fd5b8235614e2581614912565b91506020830135614e3581614912565b809150509250929050565b600080600060408486031215614e5557600080fd5b8335925060208401356001600160401b03811115614e7257600080fd5b614e7e86828701614a6e565b9497909650939450505050565b60006001600160401b03821115614ea457614ea4614b1b565b5060051b60200190565b600082601f830112614ebf57600080fd5b81356020614ecf614ba783614e8b565b82815260059290921b84018101918181019086841115614eee57600080fd5b8286015b84811015614f2d5780356001600160401b03811115614f115760008081fd5b614f1f8986838b0101614b88565b845250918301918301614ef2565b509695505050505050565b600080600080600080600080600080600060e08c8e031215614f5957600080fd5b8b359a506001600160401b038060208e01351115614f7657600080fd5b614f868e60208f01358f01614c49565b909b50995060408d0135811015614f9c57600080fd5b614fac8e60408f01358f01614c49565b909950975060608d0135811015614fc257600080fd5b614fd28e60608f01358f01614eae565b96508060808e01351115614fe557600080fd5b614ff58e60808f01358f01614eae565b95508060a08e0135111561500857600080fd5b6150188e60a08f01358f01614c49565b909550935060c08d013581101561502e57600080fd5b5061503f8d60c08e01358e01614c49565b81935080925050509295989b509295989b9093969950565b60008060006060848603121561506c57600080fd5b8335925060208401356001600160401b038082111561508a57600080fd5b61509687838801614eae565b935060408601359150808211156150ac57600080fd5b506150b986828701614eae565b9150509250925092565b6000806000806000606086880312156150db57600080fd5b85356001600160401b03808211156150f257600080fd5b6150fe89838a01614c49565b9097509550602088013591508082111561511757600080fd5b5061512488828901614c49565b96999598509660400135949350505050565b600082825180855260208086019550808260051b8401018186016000805b858110156151a757868403601f19018a52825180518086529086019086860190845b8181101561519257835183529288019291880191600101615176565b50509a86019a94505091840191600101615154565b509198975050505050505050565b6020815260006126b76020830184615136565b600082601f8301126151d957600080fd5b813560206151e9614ba783614e8b565b82815260059290921b8401810191818101908684111561520857600080fd5b8286015b84811015614f2d5780356001600160401b0381111561522b5760008081fd5b6152398986838b0101614eae565b84525091830191830161520c565b600082601f83011261525857600080fd5b81356020615268614ba783614e8b565b82815260059290921b8401810191818101908684111561528757600080fd5b8286015b84811015614f2d578035835291830191830161528b565b600082601f8301126152b357600080fd5b813560206152c3614ba783614e8b565b82815260059290921b840181019181810190868411156152e257600080fd5b8286015b84811015614f2d5780356001600160401b038082111561530557600080fd5b818901915089603f83011261531957600080fd5b85820135615329614ba782614e8b565b81815260059190911b830160400190878101908c83111561534957600080fd5b604085015b838110156153825780358581111561536557600080fd5b6153748f6040838a0101615247565b84525091890191890161534e565b508752505050928401925083016152e6565b6000806000806000806000806000806101208b8d0312156153b457600080fd5b6153bd8b614927565b995060208b0135985060408b01356001600160401b03808211156153e057600080fd5b6153ec8e838f01614b88565b995060608d013591508082111561540257600080fd5b61540e8e838f01614eae565b985060808d013591508082111561542457600080fd5b6154308e838f01614eae565b975060a08d013591508082111561544657600080fd5b6154528e838f016151c8565b965060c08d013591508082111561546857600080fd5b6154748e838f016151c8565b955060e08d013591508082111561548a57600080fd5b6154968e838f016152a2565b94506101008d01359150808211156154ad57600080fd5b506154ba8d828e01614c49565b915080935050809150509295989b9194979a5092959850565b600080602083850312156154e657600080fd5b82356001600160401b038111156154fc57600080fd5b614cc285828601614a6e565b60008060006060848603121561551d57600080fd5b505081359360208301359350604090920135919050565b600080600080600060a0868803121561554c57600080fd5b853561555781614912565b9450602086013561556781614912565b935060408601356001600160401b038082111561558357600080fd5b61558f89838a01615247565b945060608801359150808211156155a557600080fd5b6155b189838a01615247565b935060808801359150808211156155c757600080fd5b506155d488828901614b88565b9150509295509295909350565b6000806000604084860312156155f657600080fd5b8335925060208401356001600160401b038082111561561457600080fd5b818601915086601f83011261562857600080fd5b81358181111561563757600080fd5b8760206101208302850101111561564d57600080fd5b6020830194508093505050509250925092565b6000806000806000806080878903121561567957600080fd5b8635955060208701356001600160401b038082111561569757600080fd5b6156a38a838b01614c49565b909750955060408901359150808211156156bc57600080fd5b6156c88a838b01614c49565b909550935060608901359150808211156156e157600080fd5b506156ee89828a01615247565b9150509295509295509295565b60008060008060008060008060008060006101608c8e03121561571d57600080fd5b8b359a5060208c013561572f81614912565b995060408c0135985060608c0135975060808c0135965060a08c0135955060c08c013561575b81614912565b8095505060e08c013593506101008c013592506101208c013591506101408c013590509295989b509295989b9093969950565b600080600080600060a086880312156157a657600080fd5b85356157b181614912565b945060208601356157c181614912565b9350604086013592506060860135915060808601356001600160401b038111156157ea57600080fd5b6155d488828901614b88565b60008060006040848603121561580b57600080fd5b8335925060208401356001600160401b0381111561582857600080fd5b614e7e86828701614c49565b634e487b7160e01b600052603260045260246000fd5b60006020828403121561585c57600080fd5b81516001600160401b0381111561587257600080fd5b8201601f8101841361588357600080fd5b8051615891614ba782614b61565b8181528560208385010111156158a657600080fd5b61169e826020830160208601614968565b634e487b7160e01b600052601160045260246000fd5b6000600182016158df576158df6158b7565b5060010190565b60208082526003908201526250303160e81b604082015260600190565b60208082526003908201526228181960e91b604082015260600190565b600181811c9082168061593457607f821691505b60208210810361595457634e487b7160e01b600052602260045260246000fd5b50919050565b8054600090600181811c908083168061597457607f831692505b6020808410820361599557634e487b7160e01b600052602260045260246000fd5b8180156159a957600181146159ba576159e7565b60ff198616895284890196506159e7565b60008881526020902060005b868110156159df5781548b8201529085019083016159c6565b505084890196505b50505050505092915050565b60006159ff828561595a565b8351615a0f818360208801614968565b01949350505050565b6020808252818101527f4f776e61626c653a2063616c6c6572206973206e6f7420746865206f776e6572604082015260600190565b6000816000190483118215151615615a6757615a676158b7565b500290565b600082821015615a7e57615a7e6158b7565b500390565b60008219821115615a9657615a966158b7565b500190565b600082615ab857634e487b7160e01b600052601260045260246000fd5b500490565b6001600160a01b0394851681529290931660208301526040820152606081019190915260a06080820181905260009082015260c00190565b602080825260039082015262140c0d60ea1b604082015260600190565b81835260006001600160fb1b03831115615b2b57600080fd5b8260051b8083602087013760009401602001938452509192915050565b8183526000602080850194508260005b85811015615b86578135615b6b81614912565b6001600160a01b031687529582019590820190600101615b58565b509495945050505050565b608081526000615ba46080830189614d9c565b602083820381850152615bb7828a614d9c565b84810360408601528781529150808201600588811b840183018a60005b8b811015615c4457868303601f190185528135368e9003601e19018112615bfa57600080fd5b8d0180356001600160401b03811115615c1257600080fd5b80861b36038f1315615c2357600080fd5b615c3085828a8501615b12565b968801969450505090850190600101615bd4565b50508681036060880152615c5981898b615b48565b9d9c50505050505050505050505050565b600082601f830112615c7b57600080fd5b81516020615c8b614ba783614e8b565b82815260059290921b84018101918181019086841115615caa57600080fd5b8286015b84811015614f2d5780518352918301918301615cae565b600060208284031215615cd757600080fd5b81516001600160401b03811115615ced57600080fd5b6144eb84828501615c6a565b600060208284031215615d0b57600080fd5b5051919050565b608081526000615d2560808301886149c0565b602083820381850152615d3882896149c0565b915083820360408501528187518084528284019150828160051b850101838a0160005b83811015615d8957601f19878403018552615d77838351615136565b94860194925090850190600101615d5b565b50508681036060880152615d9e81898b615b48565b9c9b505050505050505050505050565b60006020808385031215615dc157600080fd5b82516001600160401b0380821115615dd857600080fd5b818501915085601f830112615dec57600080fd5b8151615dfa614ba782614e8b565b81815260059190911b83018401908481019088831115615e1957600080fd5b8585015b83811015615e5157805185811115615e355760008081fd5b615e438b89838a0101615c6a565b845250918601918601615e1d565b5098975050505050505050565b60006126b7828461595a565b600060208284031215615e7c57600080fd5b81516126b781614912565b634e487b7160e01b600052603160045260246000fd5b600060208284031215615eaf57600080fd5b815180151581146126b757600080fd5b60008251615ed1818460208701614968565b919091019291505056fea26469706673582212206c3e19fdfc87a5a7f17f90a24804ede222ae2af477e0315687a7f6b29f64746a64736f6c634300080d0033",
  "devdoc": {
    "kind": "dev",
    "methods": {
      "onERC721Received(address,address,uint256,bytes)": {
        "details": "See {IERC721Receiver-onERC721Received}. Always returns `IERC721Receiver.onERC721Received.selector`."
      },
      "owner()": {
        "details": "Returns the address of the current owner."
      },
      "renounceOwnership()": {
        "details": "Leaves the contract without owner. It will not be possible to call `onlyOwner` functions anymore. Can only be called by the current owner. NOTE: Renouncing ownership will leave the contract without an owner, thereby removing any functionality that is only available to the owner."
      },
      "supportsInterface(bytes4)": {
        "details": "See {IERC165-supportsInterface}."
      },
      "transferOwnership(address)": {
        "details": "Transfers ownership of the contract to a new account (`newOwner`). Can only be called by the current owner."
      }
    },
    "version": 1
  },
  "userdoc": {
    "kind": "user",
    "methods": {},
    "version": 1
  },
  "storageLayout": {
    "storage": [
      {
        "astId": 324,
        "contract": "contracts/Studio.sol:Studio",
        "label": "_owner",
        "offset": 0,
        "slot": "0",
        "type": "t_address"
      },
      {
        "astId": 6799,
        "contract": "contracts/Studio.sol:Studio",
        "label": "canvas",
        "offset": 0,
        "slot": "1",
        "type": "t_contract(ICanvas)8406"
      },
      {
        "astId": 6802,
        "contract": "contracts/Studio.sol:Studio",
        "label": "element",
        "offset": 0,
        "slot": "2",
        "type": "t_contract(IElement)8502"
      },
      {
        "astId": 6804,
        "contract": "contracts/Studio.sol:Studio",
        "label": "baseURI",
        "offset": 0,
        "slot": "3",
        "type": "t_string_storage"
      },
      {
        "astId": 6808,
        "contract": "contracts/Studio.sol:Studio",
        "label": "whitelistedArtists",
        "offset": 0,
        "slot": "4",
        "type": "t_mapping(t_address,t_bool)"
      },
      {
        "astId": 6813,
        "contract": "contracts/Studio.sol:Studio",
        "label": "projects",
        "offset": 0,
        "slot": "5",
        "type": "t_mapping(t_uint256,t_struct(ProjectData)8707_storage)"
      },
      {
        "astId": 5346,
        "contract": "contracts/Studio.sol:Studio",
        "label": "auctionStartDelay",
        "offset": 0,
        "slot": "6",
        "type": "t_uint256"
      },
      {
        "astId": 5352,
        "contract": "contracts/Studio.sol:Studio",
        "label": "artistClaimableRevenues",
        "offset": 0,
        "slot": "7",
        "type": "t_mapping(t_address,t_mapping(t_address,t_uint256))"
      },
      {
        "astId": 5356,
        "contract": "contracts/Studio.sol:Studio",
        "label": "platformRevenues",
        "offset": 0,
        "slot": "8",
        "type": "t_mapping(t_address,t_uint256)"
      },
      {
        "astId": 5361,
        "contract": "contracts/Studio.sol:Studio",
        "label": "markets",
        "offset": 0,
        "slot": "9",
        "type": "t_mapping(t_uint256,t_struct(Market)8680_storage)"
      },
      {
        "astId": 5365,
        "contract": "contracts/Studio.sol:Studio",
        "label": "approvedERC20s",
        "offset": 0,
        "slot": "10",
        "type": "t_mapping(t_address,t_bool)"
      },
      {
        "astId": 7802,
        "contract": "contracts/Studio.sol:Studio",
        "label": "canvases",
        "offset": 0,
        "slot": "11",
        "type": "t_mapping(t_uint256,t_struct(CanvasData)8730_storage)"
      },
      {
        "astId": 7806,
        "contract": "contracts/Studio.sol:Studio",
        "label": "userNonces",
        "offset": 0,
        "slot": "12",
        "type": "t_mapping(t_address,t_uint256)"
      }
    ],
    "types": {
      "t_address": {
        "encoding": "inplace",
        "label": "address",
        "numberOfBytes": "20"
      },
      "t_array(t_array(t_uint256)dyn_storage)dyn_storage": {
        "base": "t_array(t_uint256)dyn_storage",
        "encoding": "dynamic_array",
        "label": "uint256[][]",
        "numberOfBytes": "32"
      },
      "t_array(t_string_storage)dyn_storage": {
        "base": "t_string_storage",
        "encoding": "dynamic_array",
        "label": "string[]",
        "numberOfBytes": "32"
      },
      "t_array(t_uint256)dyn_storage": {
        "base": "t_uint256",
        "encoding": "dynamic_array",
        "label": "uint256[]",
        "numberOfBytes": "32"
      },
      "t_bool": {
        "encoding": "inplace",
        "label": "bool",
        "numberOfBytes": "1"
      },
      "t_bytes32": {
        "encoding": "inplace",
        "label": "bytes32",
        "numberOfBytes": "32"
      },
      "t_contract(ICanvas)8406": {
        "encoding": "inplace",
        "label": "contract ICanvas",
        "numberOfBytes": "20"
      },
      "t_contract(IElement)8502": {
        "encoding": "inplace",
        "label": "contract IElement",
        "numberOfBytes": "20"
      },
      "t_mapping(t_address,t_bool)": {
        "encoding": "mapping",
        "key": "t_address",
        "label": "mapping(address => bool)",
        "numberOfBytes": "32",
        "value": "t_bool"
      },
      "t_mapping(t_address,t_mapping(t_address,t_uint256))": {
        "encoding": "mapping",
        "key": "t_address",
        "label": "mapping(address => mapping(address => uint256))",
        "numberOfBytes": "32",
        "value": "t_mapping(t_address,t_uint256)"
      },
      "t_mapping(t_address,t_uint256)": {
        "encoding": "mapping",
        "key": "t_address",
        "label": "mapping(address => uint256)",
        "numberOfBytes": "32",
        "value": "t_uint256"
      },
      "t_mapping(t_uint256,t_string_storage)": {
        "encoding": "mapping",
        "key": "t_uint256",
        "label": "mapping(uint256 => string)",
        "numberOfBytes": "32",
        "value": "t_string_storage"
      },
      "t_mapping(t_uint256,t_struct(CanvasData)8730_storage)": {
        "encoding": "mapping",
        "key": "t_uint256",
        "label": "mapping(uint256 => struct IStudio.CanvasData)",
        "numberOfBytes": "32",
        "value": "t_struct(CanvasData)8730_storage"
      },
      "t_mapping(t_uint256,t_struct(Market)8680_storage)": {
        "encoding": "mapping",
        "key": "t_uint256",
        "label": "mapping(uint256 => struct IMarketplace.Market)",
        "numberOfBytes": "32",
        "value": "t_struct(Market)8680_storage"
      },
      "t_mapping(t_uint256,t_struct(ProjectData)8707_storage)": {
        "encoding": "mapping",
        "key": "t_uint256",
        "label": "mapping(uint256 => struct IProjects.ProjectData)",
        "numberOfBytes": "32",
        "value": "t_struct(ProjectData)8707_storage"
      },
      "t_string_storage": {
        "encoding": "bytes",
        "label": "string",
        "numberOfBytes": "32"
      },
      "t_struct(CanvasData)8730_storage": {
        "encoding": "inplace",
        "label": "struct IStudio.CanvasData",
        "members": [
          {
            "astId": 8724,
            "contract": "contracts/Studio.sol:Studio",
            "label": "wrapped",
            "offset": 0,
            "slot": "0",
            "type": "t_bool"
          },
          {
            "astId": 8727,
            "contract": "contracts/Studio.sol:Studio",
            "label": "wrappedElementTokenIds",
            "offset": 0,
            "slot": "1",
            "type": "t_array(t_uint256)dyn_storage"
          },
          {
            "astId": 8729,
            "contract": "contracts/Studio.sol:Studio",
            "label": "hash",
            "offset": 0,
            "slot": "2",
            "type": "t_bytes32"
          }
        ],
        "numberOfBytes": "96"
      },
      "t_struct(Market)8680_storage": {
        "encoding": "inplace",
        "label": "struct IMarketplace.Market",
        "members": [
          {
            "astId": 8655,
            "contract": "contracts/Studio.sol:Studio",
            "label": "ammERC20Balance",
            "offset": 0,
            "slot": "0",
            "type": "t_uint256"
          },
          {
            "astId": 8657,
            "contract": "contracts/Studio.sol:Studio",
            "label": "auctionERC20Balance",
            "offset": 0,
            "slot": "1",
            "type": "t_uint256"
          },
          {
            "astId": 8659,
            "contract": "contracts/Studio.sol:Studio",
            "label": "ammElementBalance",
            "offset": 0,
            "slot": "2",
            "type": "t_uint256"
          },
          {
            "astId": 8661,
            "contract": "contracts/Studio.sol:Studio",
            "label": "reserveElementBalance",
            "offset": 0,
            "slot": "3",
            "type": "t_uint256"
          },
          {
            "astId": 8663,
            "contract": "contracts/Studio.sol:Studio",
            "label": "auctionElementBalance",
            "offset": 0,
            "slot": "4",
            "type": "t_uint256"
          },
          {
            "astId": 8665,
            "contract": "contracts/Studio.sol:Studio",
            "label": "reserveElementBalanceInitial",
            "offset": 0,
            "slot": "5",
            "type": "t_uint256"
          },
          {
            "astId": 8667,
            "contract": "contracts/Studio.sol:Studio",
            "label": "auctionElementBalanceInitial",
            "offset": 0,
            "slot": "6",
            "type": "t_uint256"
          },
          {
            "astId": 8669,
            "contract": "contracts/Studio.sol:Studio",
            "label": "erc20",
            "offset": 0,
            "slot": "7",
            "type": "t_address"
          },
          {
            "astId": 8671,
            "contract": "contracts/Studio.sol:Studio",
            "label": "auctionStartTime",
            "offset": 0,
            "slot": "8",
            "type": "t_uint256"
          },
          {
            "astId": 8673,
            "contract": "contracts/Studio.sol:Studio",
            "label": "auctionEndTime",
            "offset": 0,
            "slot": "9",
            "type": "t_uint256"
          },
          {
            "astId": 8675,
            "contract": "contracts/Studio.sol:Studio",
            "label": "auctionStartPrice",
            "offset": 0,
            "slot": "10",
            "type": "t_uint256"
          },
          {
            "astId": 8677,
            "contract": "contracts/Studio.sol:Studio",
            "label": "auctionEndPrice",
            "offset": 0,
            "slot": "11",
            "type": "t_uint256"
          },
          {
            "astId": 8679,
            "contract": "contracts/Studio.sol:Studio",
            "label": "artist",
            "offset": 0,
            "slot": "12",
            "type": "t_address"
          }
        ],
        "numberOfBytes": "416"
      },
      "t_struct(ProjectData)8707_storage": {
        "encoding": "inplace",
        "label": "struct IProjects.ProjectData",
        "members": [
          {
            "astId": 8685,
            "contract": "contracts/Studio.sol:Studio",
            "label": "locked",
            "offset": 0,
            "slot": "0",
            "type": "t_bool"
          },
          {
            "astId": 8687,
            "contract": "contracts/Studio.sol:Studio",
            "label": "artistAddress",
            "offset": 1,
            "slot": "0",
            "type": "t_address"
          },
          {
            "astId": 8691,
            "contract": "contracts/Studio.sol:Studio",
            "label": "scripts",
            "offset": 0,
            "slot": "1",
            "type": "t_mapping(t_uint256,t_string_storage)"
          },
          {
            "astId": 8694,
            "contract": "contracts/Studio.sol:Studio",
            "label": "elementCategoryLabels",
            "offset": 0,
            "slot": "2",
            "type": "t_array(t_string_storage)dyn_storage"
          },
          {
            "astId": 8697,
            "contract": "contracts/Studio.sol:Studio",
            "label": "elementCategoryValues",
            "offset": 0,
            "slot": "3",
            "type": "t_array(t_string_storage)dyn_storage"
          },
          {
            "astId": 8701,
            "contract": "contracts/Studio.sol:Studio",
            "label": "elementTokenIds",
            "offset": 0,
            "slot": "4",
            "type": "t_array(t_array(t_uint256)dyn_storage)dyn_storage"
          },
          {
            "astId": 8704,
            "contract": "contracts/Studio.sol:Studio",
            "label": "blankCanvasIds",
            "offset": 0,
            "slot": "5",
            "type": "t_array(t_uint256)dyn_storage"
          },
          {
            "astId": 8706,
            "contract": "contracts/Studio.sol:Studio",
            "label": "metadata",
            "offset": 0,
            "slot": "6",
            "type": "t_string_storage"
          }
        ],
        "numberOfBytes": "224"
      },
      "t_uint256": {
        "encoding": "inplace",
        "label": "uint256",
        "numberOfBytes": "32"
      }
    }
  }
}