{
  "address": "0xca2Da74E482B25678741bf7833dF1de3b5C4ad3E",
  "abi": [
    {
      "inputs": [
        {
          "internalType": "string",
          "name": "_name",
          "type": "string"
        },
        {
          "internalType": "string",
          "name": "_symbol",
          "type": "string"
        },
        {
          "internalType": "string",
          "name": "_baseURI",
          "type": "string"
        },
        {
          "internalType": "string",
          "name": "_scriptJSON",
          "type": "string"
        },
        {
          "internalType": "address",
          "name": "_artistAddress",
          "type": "address"
        },
        {
          "internalType": "address",
          "name": "_owner",
          "type": "address"
        }
      ],
      "stateMutability": "nonpayable",
      "type": "constructor"
    },
    {
      "anonymous": false,
      "inputs": [
        {
          "indexed": true,
          "internalType": "address",
          "name": "owner",
          "type": "address"
        },
        {
          "indexed": true,
          "internalType": "address",
          "name": "approved",
          "type": "address"
        },
        {
          "indexed": true,
          "internalType": "uint256",
          "name": "tokenId",
          "type": "uint256"
        }
      ],
      "name": "Approval",
      "type": "event"
    },
    {
      "anonymous": false,
      "inputs": [
        {
          "indexed": true,
          "internalType": "address",
          "name": "owner",
          "type": "address"
        },
        {
          "indexed": true,
          "internalType": "address",
          "name": "operator",
          "type": "address"
        },
        {
          "indexed": false,
          "internalType": "bool",
          "name": "approved",
          "type": "bool"
        }
      ],
      "name": "ApprovalForAll",
      "type": "event"
    },
    {
      "anonymous": false,
      "inputs": [
        {
          "indexed": true,
          "internalType": "address",
          "name": "artistAddress",
          "type": "address"
        }
      ],
      "name": "ArtistAddressUpdated",
      "type": "event"
    },
    {
      "anonymous": false,
      "inputs": [
        {
          "indexed": true,
          "internalType": "uint256",
          "name": "artworkTokenId",
          "type": "uint256"
        },
        {
          "indexed": false,
          "internalType": "uint256[]",
          "name": "traitTokenIds",
          "type": "uint256[]"
        },
        {
          "indexed": false,
          "internalType": "bytes32",
          "name": "hash",
          "type": "bytes32"
        },
        {
          "indexed": true,
          "internalType": "address",
          "name": "creator",
          "type": "address"
        }
      ],
      "name": "ArtworkCreated",
      "type": "event"
    },
    {
      "anonymous": false,
      "inputs": [
        {
          "indexed": true,
          "internalType": "uint256",
          "name": "artworkTokenId",
          "type": "uint256"
        },
        {
          "indexed": true,
          "internalType": "address",
          "name": "caller",
          "type": "address"
        }
      ],
      "name": "ArtworkDecomposed",
      "type": "event"
    },
    {
      "anonymous": false,
      "inputs": [
        {
          "indexed": false,
          "internalType": "string",
          "name": "baseURI",
          "type": "string"
        }
      ],
      "name": "BaseURIUpdated",
      "type": "event"
    },
    {
      "anonymous": false,
      "inputs": [
        {
          "indexed": true,
          "internalType": "address",
          "name": "previousOwner",
          "type": "address"
        },
        {
          "indexed": true,
          "internalType": "address",
          "name": "newOwner",
          "type": "address"
        }
      ],
      "name": "OwnershipTransferred",
      "type": "event"
    },
    {
      "anonymous": false,
      "inputs": [
        {
          "indexed": true,
          "internalType": "address",
          "name": "from",
          "type": "address"
        },
        {
          "indexed": true,
          "internalType": "address",
          "name": "to",
          "type": "address"
        },
        {
          "indexed": true,
          "internalType": "uint256",
          "name": "tokenId",
          "type": "uint256"
        }
      ],
      "name": "Transfer",
      "type": "event"
    },
    {
      "inputs": [
        {
          "internalType": "address",
          "name": "to",
          "type": "address"
        },
        {
          "internalType": "uint256",
          "name": "tokenId",
          "type": "uint256"
        }
      ],
      "name": "approve",
      "outputs": [],
      "stateMutability": "nonpayable",
      "type": "function"
    },
    {
      "inputs": [],
      "name": "artistAddress",
      "outputs": [
        {
          "internalType": "address",
          "name": "",
          "type": "address"
        }
      ],
      "stateMutability": "view",
      "type": "function"
    },
    {
      "inputs": [
        {
          "internalType": "uint256",
          "name": "_artworkTokenId",
          "type": "uint256"
        }
      ],
      "name": "artwork",
      "outputs": [
        {
          "internalType": "uint256[]",
          "name": "_traitTokenIds",
          "type": "uint256[]"
        },
        {
          "internalType": "string[]",
          "name": "_traitNames",
          "type": "string[]"
        },
        {
          "internalType": "string[]",
          "name": "_traitValues",
          "type": "string[]"
        },
        {
          "internalType": "string[]",
          "name": "_traitTypeNames",
          "type": "string[]"
        },
        {
          "internalType": "string[]",
          "name": "_traitTypeValues",
          "type": "string[]"
        },
        {
          "internalType": "bytes32",
          "name": "_hash",
          "type": "bytes32"
        }
      ],
      "stateMutability": "view",
      "type": "function"
    },
    {
      "inputs": [
        {
          "internalType": "address",
          "name": "owner",
          "type": "address"
        }
      ],
      "name": "balanceOf",
      "outputs": [
        {
          "internalType": "uint256",
          "name": "",
          "type": "uint256"
        }
      ],
      "stateMutability": "view",
      "type": "function"
    },
    {
      "inputs": [],
      "name": "baseURI",
      "outputs": [
        {
          "internalType": "string",
          "name": "",
          "type": "string"
        }
      ],
      "stateMutability": "view",
      "type": "function"
    },
    {
      "inputs": [
        {
          "internalType": "uint256[]",
          "name": "_traitTokenIdsToBuy",
          "type": "uint256[]"
        },
        {
          "internalType": "uint256[]",
          "name": "_traitQuantitiesToBuy",
          "type": "uint256[]"
        },
        {
          "internalType": "uint256[]",
          "name": "_traitTokenIdsToCreateArtwork",
          "type": "uint256[]"
        }
      ],
      "name": "buyTraitsCreateArtwork",
      "outputs": [],
      "stateMutability": "payable",
      "type": "function"
    },
    {
      "inputs": [
        {
          "internalType": "uint256[]",
          "name": "_traitTokenIds",
          "type": "uint256[]"
        }
      ],
      "name": "createArtwork",
      "outputs": [
        {
          "internalType": "uint256",
          "name": "_artworkTokenId",
          "type": "uint256"
        }
      ],
      "stateMutability": "nonpayable",
      "type": "function"
    },
    {
      "inputs": [
        {
          "internalType": "uint256",
          "name": "_artworkTokenId",
          "type": "uint256"
        }
      ],
      "name": "decomposeArtwork",
      "outputs": [],
      "stateMutability": "nonpayable",
      "type": "function"
    },
    {
      "inputs": [
        {
          "internalType": "uint256",
          "name": "tokenId",
          "type": "uint256"
        }
      ],
      "name": "getApproved",
      "outputs": [
        {
          "internalType": "address",
          "name": "",
          "type": "address"
        }
      ],
      "stateMutability": "view",
      "type": "function"
    },
    {
      "inputs": [
        {
          "internalType": "address",
          "name": "owner",
          "type": "address"
        },
        {
          "internalType": "address",
          "name": "operator",
          "type": "address"
        }
      ],
      "name": "isApprovedForAll",
      "outputs": [
        {
          "internalType": "bool",
          "name": "",
          "type": "bool"
        }
      ],
      "stateMutability": "view",
      "type": "function"
    },
    {
      "inputs": [],
      "name": "lockProject",
      "outputs": [],
      "stateMutability": "nonpayable",
      "type": "function"
    },
    {
      "inputs": [],
      "name": "locked",
      "outputs": [
        {
          "internalType": "bool",
          "name": "",
          "type": "bool"
        }
      ],
      "stateMutability": "view",
      "type": "function"
    },
    {
      "inputs": [],
      "name": "name",
      "outputs": [
        {
          "internalType": "string",
          "name": "",
          "type": "string"
        }
      ],
      "stateMutability": "view",
      "type": "function"
    },
    {
      "inputs": [],
      "name": "nextTokenId",
      "outputs": [
        {
          "internalType": "uint256",
          "name": "",
          "type": "uint256"
        }
      ],
      "stateMutability": "view",
      "type": "function"
    },
    {
      "inputs": [
        {
          "internalType": "address",
          "name": "",
          "type": "address"
        },
        {
          "internalType": "address",
          "name": "",
          "type": "address"
        },
        {
          "internalType": "uint256[]",
          "name": "",
          "type": "uint256[]"
        },
        {
          "internalType": "uint256[]",
          "name": "",
          "type": "uint256[]"
        },
        {
          "internalType": "bytes",
          "name": "",
          "type": "bytes"
        }
      ],
      "name": "onERC1155BatchReceived",
      "outputs": [
        {
          "internalType": "bytes4",
          "name": "",
          "type": "bytes4"
        }
      ],
      "stateMutability": "nonpayable",
      "type": "function"
    },
    {
      "inputs": [
        {
          "internalType": "address",
          "name": "",
          "type": "address"
        },
        {
          "internalType": "address",
          "name": "",
          "type": "address"
        },
        {
          "internalType": "uint256",
          "name": "",
          "type": "uint256"
        },
        {
          "internalType": "uint256",
          "name": "",
          "type": "uint256"
        },
        {
          "internalType": "bytes",
          "name": "",
          "type": "bytes"
        }
      ],
      "name": "onERC1155Received",
      "outputs": [
        {
          "internalType": "bytes4",
          "name": "",
          "type": "bytes4"
        }
      ],
      "stateMutability": "nonpayable",
      "type": "function"
    },
    {
      "inputs": [],
      "name": "owner",
      "outputs": [
        {
          "internalType": "address",
          "name": "",
          "type": "address"
        }
      ],
      "stateMutability": "view",
      "type": "function"
    },
    {
      "inputs": [
        {
          "internalType": "uint256",
          "name": "tokenId",
          "type": "uint256"
        }
      ],
      "name": "ownerOf",
      "outputs": [
        {
          "internalType": "address",
          "name": "",
          "type": "address"
        }
      ],
      "stateMutability": "view",
      "type": "function"
    },
    {
      "inputs": [],
      "name": "projectScriptCount",
      "outputs": [
        {
          "internalType": "uint256",
          "name": "",
          "type": "uint256"
        }
      ],
      "stateMutability": "view",
      "type": "function"
    },
    {
      "inputs": [],
      "name": "projectScripts",
      "outputs": [
        {
          "internalType": "string[]",
          "name": "_scripts",
          "type": "string[]"
        }
      ],
      "stateMutability": "view",
      "type": "function"
    },
    {
      "inputs": [],
      "name": "projectTraits",
      "outputs": [
        {
          "internalType": "uint256[]",
          "name": "_traitTokenIds",
          "type": "uint256[]"
        },
        {
          "internalType": "string[]",
          "name": "_traitNames",
          "type": "string[]"
        },
        {
          "internalType": "string[]",
          "name": "_traitValues",
          "type": "string[]"
        },
        {
          "internalType": "uint256[]",
          "name": "_traitTypeIndexes",
          "type": "uint256[]"
        },
        {
          "internalType": "string[]",
          "name": "_traitTypeNames",
          "type": "string[]"
        },
        {
          "internalType": "string[]",
          "name": "_traitTypeValues",
          "type": "string[]"
        }
      ],
      "stateMutability": "view",
      "type": "function"
    },
    {
      "inputs": [],
      "name": "renounceOwnership",
      "outputs": [],
      "stateMutability": "nonpayable",
      "type": "function"
    },
    {
      "inputs": [
        {
          "internalType": "address",
          "name": "from",
          "type": "address"
        },
        {
          "internalType": "address",
          "name": "to",
          "type": "address"
        },
        {
          "internalType": "uint256",
          "name": "tokenId",
          "type": "uint256"
        }
      ],
      "name": "safeTransferFrom",
      "outputs": [],
      "stateMutability": "nonpayable",
      "type": "function"
    },
    {
      "inputs": [
        {
          "internalType": "address",
          "name": "from",
          "type": "address"
        },
        {
          "internalType": "address",
          "name": "to",
          "type": "address"
        },
        {
          "internalType": "uint256",
          "name": "tokenId",
          "type": "uint256"
        },
        {
          "internalType": "bytes",
          "name": "data",
          "type": "bytes"
        }
      ],
      "name": "safeTransferFrom",
      "outputs": [],
      "stateMutability": "nonpayable",
      "type": "function"
    },
    {
      "inputs": [],
      "name": "scriptJSON",
      "outputs": [
        {
          "internalType": "string",
          "name": "",
          "type": "string"
        }
      ],
      "stateMutability": "view",
      "type": "function"
    },
    {
      "inputs": [
        {
          "internalType": "address",
          "name": "operator",
          "type": "address"
        },
        {
          "internalType": "bool",
          "name": "approved",
          "type": "bool"
        }
      ],
      "name": "setApprovalForAll",
      "outputs": [],
      "stateMutability": "nonpayable",
      "type": "function"
    },
    {
      "inputs": [
        {
          "internalType": "address",
          "name": "_traits",
          "type": "address"
        }
      ],
      "name": "setTraits",
      "outputs": [],
      "stateMutability": "nonpayable",
      "type": "function"
    },
    {
      "inputs": [
        {
          "internalType": "bytes4",
          "name": "interfaceId",
          "type": "bytes4"
        }
      ],
      "name": "supportsInterface",
      "outputs": [
        {
          "internalType": "bool",
          "name": "",
          "type": "bool"
        }
      ],
      "stateMutability": "view",
      "type": "function"
    },
    {
      "inputs": [],
      "name": "symbol",
      "outputs": [
        {
          "internalType": "string",
          "name": "",
          "type": "string"
        }
      ],
      "stateMutability": "view",
      "type": "function"
    },
    {
      "inputs": [
        {
          "internalType": "uint256",
          "name": "tokenId",
          "type": "uint256"
        }
      ],
      "name": "tokenURI",
      "outputs": [
        {
          "internalType": "string",
          "name": "",
          "type": "string"
        }
      ],
      "stateMutability": "view",
      "type": "function"
    },
    {
      "inputs": [],
      "name": "traits",
      "outputs": [
        {
          "internalType": "contract ITraits",
          "name": "",
          "type": "address"
        }
      ],
      "stateMutability": "view",
      "type": "function"
    },
    {
      "inputs": [
        {
          "internalType": "address",
          "name": "from",
          "type": "address"
        },
        {
          "internalType": "address",
          "name": "to",
          "type": "address"
        },
        {
          "internalType": "uint256",
          "name": "tokenId",
          "type": "uint256"
        }
      ],
      "name": "transferFrom",
      "outputs": [],
      "stateMutability": "nonpayable",
      "type": "function"
    },
    {
      "inputs": [
        {
          "internalType": "address",
          "name": "newOwner",
          "type": "address"
        }
      ],
      "name": "transferOwnership",
      "outputs": [],
      "stateMutability": "nonpayable",
      "type": "function"
    },
    {
      "inputs": [
        {
          "internalType": "address",
          "name": "_artistAddress",
          "type": "address"
        }
      ],
      "name": "updateArtistAddress",
      "outputs": [],
      "stateMutability": "nonpayable",
      "type": "function"
    },
    {
      "inputs": [
        {
          "internalType": "string",
          "name": "_baseURI",
          "type": "string"
        }
      ],
      "name": "updateBaseURI",
      "outputs": [],
      "stateMutability": "nonpayable",
      "type": "function"
    },
    {
      "inputs": [
        {
          "internalType": "uint256",
          "name": "_scriptIndex",
          "type": "uint256"
        },
        {
          "internalType": "string",
          "name": "_script",
          "type": "string"
        }
      ],
      "name": "updateScript",
      "outputs": [],
      "stateMutability": "nonpayable",
      "type": "function"
    },
    {
      "inputs": [
        {
          "internalType": "address",
          "name": "_user",
          "type": "address"
        }
      ],
      "name": "userNonce",
      "outputs": [
        {
          "internalType": "uint256",
          "name": "",
          "type": "uint256"
        }
      ],
      "stateMutability": "view",
      "type": "function"
    },
    {
      "inputs": [],
      "name": "version",
      "outputs": [
        {
          "internalType": "string",
          "name": "",
          "type": "string"
        }
      ],
      "stateMutability": "view",
      "type": "function"
    }
  ],
  "transactionHash": "0xd004da7490743296cb598c13edd72b7e7a1a5fb01b9abf3bb678001683066ffe",
  "args": [
    "intrinsic.art Tack Line Torn",
    "INSC",
    "https://api.intrinsic.art/",
    "{\n        \"name\": \"Tack Line Torn\",\n        \"description\": \"Tack Line Torn is a generative art project that takes the viewer on a visual journey through the chaos of a tearing sail tack line. In sailing, a tack line is crucial to the stability and direction of a vessel, and in this project, the once-reliable line is portrayed as it breaks apart in real-time. The piece is a representation of the unpredictable nature of life, as the path of fragmentation is unique with each viewing. The fragmented line symbolizes the loss of control and the fragility of stability, and invites the viewer to contemplate the beauty that can be found in the midst of destruction. Tack Line Torn is an immersive and thought-provoking generative art project that explores the themes of unpredictability, transience, and the beauty of chaos.\",\n        \"artistName\": \"Phil Smith\",\n        \"website\": \"https://tacklinetorn.com\",\n        \"license\": \"MIT\",\n        \"scriptLibrary\": \"p5.js\",\n        \"scriptLibraryVersion\": \"1.0.0\",\n        \"aspectRatio\": \"1\"\n      }",
    "0xAa9D46AE079851116967c6573f961B304095C34a",
    "0xAa9D46AE079851116967c6573f961B304095C34a"
  ],
  "numDeployments": 1,
  "solcInputHash": "e3401286d25af7f6e9f77b6d03a05547",
  "bytecode": "0x60806040523480156200001157600080fd5b5060405162003cf138038062003cf18339810160408190526200003491620001f8565b8585600062000044838262000364565b50600162000053828262000364565b505050620000706200006a620000c060201b60201c565b620000c4565b600a6200007e858262000364565b50600b6200008d848262000364565b50600880546001600160a01b0319166001600160a01b038416179055620000b481620000c4565b50505050505062000430565b3390565b600680546001600160a01b038381166001600160a01b0319831681179093556040519116919082907f8be0079c531659141344cd1fd0a4f28419497f9722a3daafe3b4186f6b6457e090600090a35050565b634e487b7160e01b600052604160045260246000fd5b600082601f8301126200013e57600080fd5b81516001600160401b03808211156200015b576200015b62000116565b604051601f8301601f19908116603f0116810190828211818310171562000186576200018662000116565b81604052838152602092508683858801011115620001a357600080fd5b600091505b83821015620001c75785820183015181830184015290820190620001a8565b600093810190920192909252949350505050565b80516001600160a01b0381168114620001f357600080fd5b919050565b60008060008060008060c087890312156200021257600080fd5b86516001600160401b03808211156200022a57600080fd5b620002388a838b016200012c565b975060208901519150808211156200024f57600080fd5b6200025d8a838b016200012c565b965060408901519150808211156200027457600080fd5b620002828a838b016200012c565b955060608901519150808211156200029957600080fd5b50620002a889828a016200012c565b935050620002b960808801620001db565b9150620002c960a08801620001db565b90509295509295509295565b600181811c90821680620002ea57607f821691505b6020821081036200030b57634e487b7160e01b600052602260045260246000fd5b50919050565b601f8211156200035f57600081815260208120601f850160051c810160208610156200033a5750805b601f850160051c820191505b818110156200035b5782815560010162000346565b5050505b505050565b81516001600160401b0381111562000380576200038062000116565b6200039881620003918454620002d5565b8462000311565b602080601f831160018114620003d05760008415620003b75750858301515b600019600386901b1c1916600185901b1785556200035b565b600085815260208120601f198616915b828110156200040157888601518255948401946001909101908401620003e0565b5085821015620004205787850151600019600388901b60f8161c191681555b5050505050600190811b01905550565b6138b180620004406000396000f3fe6080604052600436106102855760003560e01c806375794a3c11610153578063b784c966116100cb578063d7eb3f3a1161007f578063e985e9c511610064578063e985e9c514610767578063f23a6e61146107b0578063f2fde38b146107f557600080fd5b8063d7eb3f3a14610727578063e1fc334f1461074757600080fd5b8063bc197c81116100b0578063bc197c8114610688578063c87b56dd146106e6578063cf3090121461070657600080fd5b8063b784c96614610648578063b88d4fde1461066857600080fd5b806393d6bb6a116101225780639733cf42116101075780639733cf42146105e1578063a22cb46514610608578063b155d57e1461062857600080fd5b806393d6bb6a146105b757806395d89b41146105cc57600080fd5b806375794a3c1461054e5780638da5cb5b1461056457806390d69fbc14610582578063931688cb1461059757600080fd5b8063338e599b116102015780636352211e116101b55780636f4f73661161019a5780636f4f7366146104f957806370a0823114610519578063715018a61461053957600080fd5b80636352211e146104c45780636c0360eb146104e457600080fd5b806354682d72116101e657806354682d721461043657806354fd4d50146104685780635711c2e6146104b157600080fd5b8063338e599b146103f457806342842e0e1461041657600080fd5b806314e6d3d4116102585780632d9bace01161023d5780632d9bace0146103705780632dafcb22146103905780632e04b8e7146103be57600080fd5b806314e6d3d41461033b57806323b872dd1461035057600080fd5b806301ffc9a71461028a57806306fdde03146102bf578063081812fc146102e1578063095ea7b314610319575b600080fd5b34801561029657600080fd5b506102aa6102a53660046128fa565b610815565b60405190151581526020015b60405180910390f35b3480156102cb57600080fd5b506102d4610859565b6040516102b69190612967565b3480156102ed57600080fd5b506103016102fc36600461297a565b6108eb565b6040516001600160a01b0390911681526020016102b6565b34801561032557600080fd5b506103396103343660046129aa565b610912565b005b34801561034757600080fd5b50610339610a66565b34801561035c57600080fd5b5061033961036b3660046129d4565b610af8565b34801561037c57600080fd5b5061033961038b36600461297a565b610b6f565b34801561039c57600080fd5b506103b06103ab366004612a5c565b610d52565b6040519081526020016102b6565b3480156103ca57600080fd5b506103b06103d9366004612a9e565b6001600160a01b03166000908152600e602052604090205490565b34801561040057600080fd5b50610409610eec565b6040516102b69190612b11565b34801561042257600080fd5b506103396104313660046129d4565b611020565b34801561044257600080fd5b5061045661045136600461297a565b61103b565b6040516102b696959493929190612b5f565b34801561047457600080fd5b506102d46040518060400160405280600581526020017f312e302e3000000000000000000000000000000000000000000000000000000081525081565b6103396104bf366004612bd4565b61132b565b3480156104d057600080fd5b506103016104df36600461297a565b6113c3565b3480156104f057600080fd5b506102d4611428565b34801561050557600080fd5b50610339610514366004612a9e565b6114b6565b34801561052557600080fd5b506103b0610534366004612a9e565b611539565b34801561054557600080fd5b506103396115d3565b34801561055a57600080fd5b506103b060075481565b34801561057057600080fd5b506006546001600160a01b0316610301565b34801561058e57600080fd5b506102d46115e7565b3480156105a357600080fd5b506103396105b2366004612d1b565b6115f4565b3480156105c357600080fd5b506103b0611643565b3480156105d857600080fd5b506102d46116a6565b3480156105ed57600080fd5b506105f66116b5565b6040516102b696959493929190612d64565b34801561061457600080fd5b50610339610623366004612de6565b61174c565b34801561063457600080fd5b50610339610643366004612e22565b61175b565b34801561065457600080fd5b50610339610663366004612a9e565b6117dc565b34801561067457600080fd5b50610339610683366004612ebe565b611880565b34801561069457600080fd5b506106cd6106a3366004612fb0565b7fbc197c810000000000000000000000000000000000000000000000000000000095945050505050565b6040516001600160e01b031990911681526020016102b6565b3480156106f257600080fd5b506102d461070136600461297a565b6118f8565b34801561071257600080fd5b506006546102aa90600160a01b900460ff1681565b34801561073357600080fd5b50600854610301906001600160a01b031681565b34801561075357600080fd5b50600954610301906001600160a01b031681565b34801561077357600080fd5b506102aa61078236600461305a565b6001600160a01b03918216600090815260056020908152604080832093909416825291909152205460ff1690565b3480156107bc57600080fd5b506106cd6107cb36600461308d565b7ff23a6e610000000000000000000000000000000000000000000000000000000095945050505050565b34801561080157600080fd5b50610339610810366004612a9e565b611969565b60006001600160e01b031982167f6b78578a0000000000000000000000000000000000000000000000000000000014806108535750610853826119f9565b92915050565b606060008054610868906130f2565b80601f0160208091040260200160405190810160405280929190818152602001828054610894906130f2565b80156108e15780601f106108b6576101008083540402835291602001916108e1565b820191906000526020600020905b8154815290600101906020018083116108c457829003601f168201915b5050505050905090565b60006108f682611a37565b506000908152600460205260409020546001600160a01b031690565b600061091d826113c3565b9050806001600160a01b0316836001600160a01b0316036109ab5760405162461bcd60e51b815260206004820152602160248201527f4552433732313a20617070726f76616c20746f2063757272656e74206f776e6560448201527f720000000000000000000000000000000000000000000000000000000000000060648201526084015b60405180910390fd5b336001600160a01b03821614806109e557506001600160a01b038116600090815260056020908152604080832033845290915290205460ff165b610a575760405162461bcd60e51b815260206004820152603d60248201527f4552433732313a20617070726f76652063616c6c6572206973206e6f7420746f60448201527f6b656e206f776e6572206f7220617070726f76656420666f7220616c6c00000060648201526084016109a2565b610a618383611a9b565b505050565b610a6e611b09565b600654600160a01b900460ff1615610ac85760405162461bcd60e51b815260206004820152600360248201527f533034000000000000000000000000000000000000000000000000000000000060448201526064016109a2565b600680547fffffffffffffffffffffff00ffffffffffffffffffffffffffffffffffffffff16600160a01b179055565b610b023382611b63565b610b645760405162461bcd60e51b815260206004820152602d60248201527f4552433732313a2063616c6c6572206973206e6f7420746f6b656e206f776e6560448201526c1c881bdc88185c1c1c9bdd9959609a1b60648201526084016109a2565b610a61838383611be2565b6000818152600260205260409020546001600160a01b03163314610bd55760405162461bcd60e51b815260206004820152600360248201527f533035000000000000000000000000000000000000000000000000000000000060448201526064016109a2565b6000818152600d6020908152604080832080548251818502810185019093528083529192909190830182828015610c2b57602002820191906000526020600020905b815481526020019060010190808311610c17575b5050506000858152600d60205260408120600101819055929350610c4d915050565b604051908082528060200260200182016040528015610c76578160200160208202803683370190505b506000838152600d602090815260409091208251610c9a9391929190910190612849565b50604051339083907f8d47fd541b28b73f831d6613d064b04739e29e48ec78822fdcfb579cf3c8ecc290600090a3610cd182611de8565b6009546040517f5044651d0000000000000000000000000000000000000000000000000000000081526001600160a01b0390911690635044651d90610d1c903390859060040161312c565b600060405180830381600087803b158015610d3657600080fd5b505af1158015610d4a573d6000803e3d6000fd5b505050505050565b336000818152600e6020908152604080832054905192938493610da29330939101606093841b6bffffffffffffffffffffffff1990811682529290931b9091166014830152602882015260480190565b60408051601f19818403018152919052805160209091012060078054935090915082906000610dd083613164565b90915550506000828152600d6020526040902060018101829055610df5908585612894565b50336000908152600e60205260408120805491610e1183613164565b9190505550336001600160a01b0316827feb3e56751a478e501b86e03de5f91f16dfc366ad53198ff6de3ff4e61119e180868685604051610e54939291906131c8565b60405180910390a36009546040517f02afd1a10000000000000000000000000000000000000000000000000000000081526001600160a01b03909116906302afd1a190610ea9903390889088906004016131ec565b600060405180830381600087803b158015610ec357600080fd5b505af1158015610ed7573d6000803e3d6000fd5b50505050610ee53383611e8b565b5092915050565b60606000610ef8611643565b90508067ffffffffffffffff811115610f1357610f13612c6e565b604051908082528060200260200182016040528015610f4657816020015b6060815260200190600190039081610f315790505b50915060005b8181101561101b576000818152600c602052604090208054610f6d906130f2565b80601f0160208091040260200160405190810160405280929190818152602001828054610f99906130f2565b8015610fe65780601f10610fbb57610100808354040283529160200191610fe6565b820191906000526020600020905b815481529060010190602001808311610fc957829003601f168201915b5050505050838281518110610ffd57610ffd613218565b6020026020010181905250808061101390613164565b915050610f4c565b505090565b610a6183838360405180602001604052806000815250611880565b6060806060806060600061104e87611a37565b6000878152600d60209081526040918290208054835181840281018401909452808452929183908301828280156110a457602002820191906000526020600020905b815481526020019060010190808311611090575b505050505096508067ffffffffffffffff8111156110c4576110c4612c6e565b6040519080825280602002602001820160405280156110f757816020015b60608152602001906001900390816110e25790505b5095508067ffffffffffffffff81111561111357611113612c6e565b60405190808252806020026020018201604052801561114657816020015b60608152602001906001900390816111315790505b5094508067ffffffffffffffff81111561116257611162612c6e565b60405190808252806020026020018201604052801561119557816020015b60608152602001906001900390816111805790505b5093508067ffffffffffffffff8111156111b1576111b1612c6e565b6040519080825280602002602001820160405280156111e457816020015b60608152602001906001900390816111cf5790505b50925060005b8181101561130b5760095488516001600160a01b039091169063f3457fdf908a908490811061121b5761121b613218565b60200260200101516040518263ffffffff1660e01b815260040161124191815260200190565b600060405180830381865afa15801561125e573d6000803e3d6000fd5b505050506040513d6000823e601f3d908101601f191682016040526112869190810190613273565b8a858151811061129857611298613218565b602002602001018a86815181106112b1576112b1613218565b602002602001018a87815181106112ca576112ca613218565b602002602001018a88815181106112e3576112e3613218565b602090810291909101019390935292909152919052528061130381613164565b9150506111ea565b5050506000958652600d6020526040909520600101549395929491939092565b6009546040517f7bedfac00000000000000000000000000000000000000000000000000000000081526001600160a01b0390911690637bedfac090349061137e9033908b908b908b908b90600401613314565b6000604051808303818588803b15801561139757600080fd5b505af11580156113ab573d6000803e3d6000fd5b50505050506113ba8282610d52565b50505050505050565b6000818152600260205260408120546001600160a01b0316806108535760405162461bcd60e51b815260206004820152601860248201527f4552433732313a20696e76616c696420746f6b656e204944000000000000000060448201526064016109a2565b600a8054611435906130f2565b80601f0160208091040260200160405190810160405280929190818152602001828054611461906130f2565b80156114ae5780601f10611483576101008083540402835291602001916114ae565b820191906000526020600020905b81548152906001019060200180831161149157829003601f168201915b505050505081565b6114be611b09565b6009546001600160a01b0316156115175760405162461bcd60e51b815260206004820152600360248201527f533031000000000000000000000000000000000000000000000000000000000060448201526064016109a2565b600980546001600160a01b0319166001600160a01b0392909216919091179055565b60006001600160a01b0382166115b75760405162461bcd60e51b815260206004820152602960248201527f4552433732313a2061646472657373207a65726f206973206e6f74206120766160448201527f6c6964206f776e6572000000000000000000000000000000000000000000000060648201526084016109a2565b506001600160a01b031660009081526003602052604090205490565b6115db611b09565b6115e56000611ea5565b565b600b8054611435906130f2565b6115fc611b09565b600a611608828261339c565b507f6741b2fc379fad678116fe3d4d4b9a1a184ab53ba36b86ad0fa66340b1ab41ad816040516116389190612967565b60405180910390a150565b6000805b604080516000808252602080830180855283519020858352600c90915290839020909261167492016134cf565b60405160208183030381529060405280519060200120146116a1578061169981613164565b915050611647565b919050565b606060018054610868906130f2565b606080606080606080600960009054906101000a90046001600160a01b03166001600160a01b031663e1fc334f6040518163ffffffff1660e01b8152600401600060405180830381865afa158015611711573d6000803e3d6000fd5b505050506040513d6000823e601f3d908101601f1916820160405261173991908101906135b6565b949b939a50919850965094509092509050565b611757338383611ef7565b5050565b611763611b09565b600654600160a01b900460ff16156117bd5760405162461bcd60e51b815260206004820152600360248201527f533032000000000000000000000000000000000000000000000000000000000060448201526064016109a2565b6000838152600c602052604090206117d68284836136ab565b50505050565b6008546001600160a01b031633146118365760405162461bcd60e51b815260206004820152600360248201527f533033000000000000000000000000000000000000000000000000000000000060448201526064016109a2565b600880546001600160a01b0319166001600160a01b0383169081179091556040517f12c79480b32a16bbc67a06e459f3d0ee3f9a3d3935c512bb2a7b32fca33cf75e90600090a250565b61188a3383611b63565b6118ec5760405162461bcd60e51b815260206004820152602d60248201527f4552433732313a2063616c6c6572206973206e6f7420746f6b656e206f776e6560448201526c1c881bdc88185c1c1c9bdd9959609a1b60648201526084016109a2565b6117d684848484611fc5565b606061190382611a37565b6000600a8054611912906130f2565b90501161192e5760405180602001604052806000815250610853565b600a61193930612043565b61194284612059565b6040516020016119549392919061376c565b60405160208183030381529060405292915050565b611971611b09565b6001600160a01b0381166119ed5760405162461bcd60e51b815260206004820152602660248201527f4f776e61626c653a206e6577206f776e657220697320746865207a65726f206160448201527f646472657373000000000000000000000000000000000000000000000000000060648201526084016109a2565b6119f681611ea5565b50565b60006001600160e01b031982167f4e2312e00000000000000000000000000000000000000000000000000000000014806108535750610853826120f9565b6000818152600260205260409020546001600160a01b03166119f65760405162461bcd60e51b815260206004820152601860248201527f4552433732313a20696e76616c696420746f6b656e204944000000000000000060448201526064016109a2565b600081815260046020526040902080546001600160a01b0319166001600160a01b0384169081179091558190611ad0826113c3565b6001600160a01b03167f8c5be1e5ebec7d5bd14f71427d1e84f3dd0314c0f7b2291e5b200ac8c7c3b92560405160405180910390a45050565b6006546001600160a01b031633146115e55760405162461bcd60e51b815260206004820181905260248201527f4f776e61626c653a2063616c6c6572206973206e6f7420746865206f776e657260448201526064016109a2565b600080611b6f836113c3565b9050806001600160a01b0316846001600160a01b03161480611bb657506001600160a01b0380821660009081526005602090815260408083209388168352929052205460ff165b80611bda5750836001600160a01b0316611bcf846108eb565b6001600160a01b0316145b949350505050565b826001600160a01b0316611bf5826113c3565b6001600160a01b031614611c595760405162461bcd60e51b815260206004820152602560248201527f4552433732313a207472616e736665722066726f6d20696e636f72726563742060448201526437bbb732b960d91b60648201526084016109a2565b6001600160a01b038216611cd45760405162461bcd60e51b8152602060048201526024808201527f4552433732313a207472616e7366657220746f20746865207a65726f2061646460448201527f726573730000000000000000000000000000000000000000000000000000000060648201526084016109a2565b611ce18383836001612194565b826001600160a01b0316611cf4826113c3565b6001600160a01b031614611d585760405162461bcd60e51b815260206004820152602560248201527f4552433732313a207472616e736665722066726f6d20696e636f72726563742060448201526437bbb732b960d91b60648201526084016109a2565b600081815260046020908152604080832080546001600160a01b03199081169091556001600160a01b0387811680865260038552838620805460001901905590871680865283862080546001019055868652600290945282852080549092168417909155905184937fddf252ad1be2c89b69c2b068fc378daa952ba7f163c4a11628f55a4df523b3ef91a4505050565b6000611df3826113c3565b9050611e03816000846001612194565b611e0c826113c3565b600083815260046020908152604080832080546001600160a01b03199081169091556001600160a01b0385168085526003845282852080546000190190558785526002909352818420805490911690555192935084927fddf252ad1be2c89b69c2b068fc378daa952ba7f163c4a11628f55a4df523b3ef908390a45050565b61175782826040518060200160405280600081525061221c565b600680546001600160a01b038381166001600160a01b0319831681179093556040519116919082907f8be0079c531659141344cd1fd0a4f28419497f9722a3daafe3b4186f6b6457e090600090a35050565b816001600160a01b0316836001600160a01b031603611f585760405162461bcd60e51b815260206004820152601960248201527f4552433732313a20617070726f766520746f2063616c6c65720000000000000060448201526064016109a2565b6001600160a01b03838116600081815260056020908152604080832094871680845294825291829020805460ff191686151590811790915591519182527f17307eab39ab6107e8899845ad3d59bd9653f200f220920489ca2b5937696c31910160405180910390a3505050565b611fd0848484611be2565b611fdc8484848461229a565b6117d65760405162461bcd60e51b815260206004820152603260248201527f4552433732313a207472616e7366657220746f206e6f6e20455243373231526560448201527131b2b4bb32b91034b6b83632b6b2b73a32b960711b60648201526084016109a2565b60606108536001600160a01b03831660146123e6565b60606000612066836125ce565b600101905060008167ffffffffffffffff81111561208657612086612c6e565b6040519080825280601f01601f1916602001820160405280156120b0576020820181803683370190505b5090508181016020015b600019017f3031323334353637383961626364656600000000000000000000000000000000600a86061a8153600a85049450846120ba57509392505050565b60006001600160e01b031982167f80ac58cd00000000000000000000000000000000000000000000000000000000148061215c57506001600160e01b031982167f5b5e139f00000000000000000000000000000000000000000000000000000000145b8061085357507f01ffc9a7000000000000000000000000000000000000000000000000000000006001600160e01b0319831614610853565b60018111156117d6576001600160a01b038416156121da576001600160a01b038416600090815260036020526040812080548392906121d49084906137ce565b90915550505b6001600160a01b038316156117d6576001600160a01b038316600090815260036020526040812080548392906122119084906137e1565b909155505050505050565b61222683836126b0565b612233600084848461229a565b610a615760405162461bcd60e51b815260206004820152603260248201527f4552433732313a207472616e7366657220746f206e6f6e20455243373231526560448201527131b2b4bb32b91034b6b83632b6b2b73a32b960711b60648201526084016109a2565b60006001600160a01b0384163b156123db57604051630a85bd0160e11b81526001600160a01b0385169063150b7a02906122de9033908990889088906004016137f4565b6020604051808303816000875af1925050508015612319575060408051601f3d908101601f1916820190925261231691810190613830565b60015b6123c1573d808015612347576040519150601f19603f3d011682016040523d82523d6000602084013e61234c565b606091505b5080516000036123b95760405162461bcd60e51b815260206004820152603260248201527f4552433732313a207472616e7366657220746f206e6f6e20455243373231526560448201527131b2b4bb32b91034b6b83632b6b2b73a32b960711b60648201526084016109a2565b805181602001fd5b6001600160e01b031916630a85bd0160e11b149050611bda565b506001949350505050565b606060006123f583600261384d565b6124009060026137e1565b67ffffffffffffffff81111561241857612418612c6e565b6040519080825280601f01601f191660200182016040528015612442576020820181803683370190505b5090507f30000000000000000000000000000000000000000000000000000000000000008160008151811061247957612479613218565b60200101906001600160f81b031916908160001a9053507f7800000000000000000000000000000000000000000000000000000000000000816001815181106124c4576124c4613218565b60200101906001600160f81b031916908160001a90535060006124e884600261384d565b6124f39060016137e1565b90505b6001811115612578577f303132333435363738396162636465660000000000000000000000000000000085600f166010811061253457612534613218565b1a60f81b82828151811061254a5761254a613218565b60200101906001600160f81b031916908160001a90535060049490941c9361257181613864565b90506124f6565b5083156125c75760405162461bcd60e51b815260206004820181905260248201527f537472696e67733a20686578206c656e67746820696e73756666696369656e7460448201526064016109a2565b9392505050565b6000807a184f03e93ff9f4daa797ed6e38ed64bf6a1f0100000000000000008310612617577a184f03e93ff9f4daa797ed6e38ed64bf6a1f010000000000000000830492506040015b6d04ee2d6d415b85acef81000000008310612643576d04ee2d6d415b85acef8100000000830492506020015b662386f26fc10000831061266157662386f26fc10000830492506010015b6305f5e1008310612679576305f5e100830492506008015b612710831061268d57612710830492506004015b6064831061269f576064830492506002015b600a83106108535760010192915050565b6001600160a01b0382166127065760405162461bcd60e51b815260206004820181905260248201527f4552433732313a206d696e7420746f20746865207a65726f206164647265737360448201526064016109a2565b6000818152600260205260409020546001600160a01b03161561276b5760405162461bcd60e51b815260206004820152601c60248201527f4552433732313a20746f6b656e20616c7265616479206d696e7465640000000060448201526064016109a2565b612779600083836001612194565b6000818152600260205260409020546001600160a01b0316156127de5760405162461bcd60e51b815260206004820152601c60248201527f4552433732313a20746f6b656e20616c7265616479206d696e7465640000000060448201526064016109a2565b6001600160a01b038216600081815260036020908152604080832080546001019055848352600290915280822080546001600160a01b0319168417905551839291907fddf252ad1be2c89b69c2b068fc378daa952ba7f163c4a11628f55a4df523b3ef908290a45050565b828054828255906000526020600020908101928215612884579160200282015b82811115612884578251825591602001919060010190612869565b506128909291506128cf565b5090565b828054828255906000526020600020908101928215612884579160200282015b828111156128845782358255916020019190600101906128b4565b5b8082111561289057600081556001016128d0565b6001600160e01b0319811681146119f657600080fd5b60006020828403121561290c57600080fd5b81356125c7816128e4565b60005b8381101561293257818101518382015260200161291a565b50506000910152565b60008151808452612953816020860160208601612917565b601f01601f19169290920160200192915050565b6020815260006125c7602083018461293b565b60006020828403121561298c57600080fd5b5035919050565b80356001600160a01b03811681146116a157600080fd5b600080604083850312156129bd57600080fd5b6129c683612993565b946020939093013593505050565b6000806000606084860312156129e957600080fd5b6129f284612993565b9250612a0060208501612993565b9150604084013590509250925092565b60008083601f840112612a2257600080fd5b50813567ffffffffffffffff811115612a3a57600080fd5b6020830191508360208260051b8501011115612a5557600080fd5b9250929050565b60008060208385031215612a6f57600080fd5b823567ffffffffffffffff811115612a8657600080fd5b612a9285828601612a10565b90969095509350505050565b600060208284031215612ab057600080fd5b6125c782612993565b600082825180855260208086019550808260051b84010181860160005b84811015612b0457601f19868403018952612af283835161293b565b98840198925090830190600101612ad6565b5090979650505050505050565b6020815260006125c76020830184612ab9565b600081518084526020808501945080840160005b83811015612b5457815187529582019590820190600101612b38565b509495945050505050565b60c081526000612b7260c0830189612b24565b8281036020840152612b848189612ab9565b90508281036040840152612b988188612ab9565b90508281036060840152612bac8187612ab9565b90508281036080840152612bc08186612ab9565b9150508260a0830152979650505050505050565b60008060008060008060608789031215612bed57600080fd5b863567ffffffffffffffff80821115612c0557600080fd5b612c118a838b01612a10565b90985096506020890135915080821115612c2a57600080fd5b612c368a838b01612a10565b90965094506040890135915080821115612c4f57600080fd5b50612c5c89828a01612a10565b979a9699509497509295939492505050565b634e487b7160e01b600052604160045260246000fd5b604051601f8201601f1916810167ffffffffffffffff81118282101715612cad57612cad612c6e565b604052919050565b600067ffffffffffffffff821115612ccf57612ccf612c6e565b50601f01601f191660200190565b6000612cf0612ceb84612cb5565b612c84565b9050828152838383011115612d0457600080fd5b828260208301376000602084830101529392505050565b600060208284031215612d2d57600080fd5b813567ffffffffffffffff811115612d4457600080fd5b8201601f81018413612d5557600080fd5b611bda84823560208401612cdd565b60c081526000612d7760c0830189612b24565b8281036020840152612d898189612ab9565b90508281036040840152612d9d8188612ab9565b90508281036060840152612db18187612b24565b90508281036080840152612dc58186612ab9565b905082810360a0840152612dd98185612ab9565b9998505050505050505050565b60008060408385031215612df957600080fd5b612e0283612993565b915060208301358015158114612e1757600080fd5b809150509250929050565b600080600060408486031215612e3757600080fd5b83359250602084013567ffffffffffffffff80821115612e5657600080fd5b818601915086601f830112612e6a57600080fd5b813581811115612e7957600080fd5b876020828501011115612e8b57600080fd5b6020830194508093505050509250925092565b600082601f830112612eaf57600080fd5b6125c783833560208501612cdd565b60008060008060808587031215612ed457600080fd5b612edd85612993565b9350612eeb60208601612993565b925060408501359150606085013567ffffffffffffffff811115612f0e57600080fd5b612f1a87828801612e9e565b91505092959194509250565b600067ffffffffffffffff821115612f4057612f40612c6e565b5060051b60200190565b600082601f830112612f5b57600080fd5b81356020612f6b612ceb83612f26565b82815260059290921b84018101918181019086841115612f8a57600080fd5b8286015b84811015612fa55780358352918301918301612f8e565b509695505050505050565b600080600080600060a08688031215612fc857600080fd5b612fd186612993565b9450612fdf60208701612993565b9350604086013567ffffffffffffffff80821115612ffc57600080fd5b61300889838a01612f4a565b9450606088013591508082111561301e57600080fd5b61302a89838a01612f4a565b9350608088013591508082111561304057600080fd5b5061304d88828901612e9e565b9150509295509295909350565b6000806040838503121561306d57600080fd5b61307683612993565b915061308460208401612993565b90509250929050565b600080600080600060a086880312156130a557600080fd5b6130ae86612993565b94506130bc60208701612993565b93506040860135925060608601359150608086013567ffffffffffffffff8111156130e657600080fd5b61304d88828901612e9e565b600181811c9082168061310657607f821691505b60208210810361312657634e487b7160e01b600052602260045260246000fd5b50919050565b6001600160a01b0383168152604060208201526000611bda6040830184612b24565b634e487b7160e01b600052601160045260246000fd5b6000600182016131765761317661314e565b5060010190565b81835260007f07ffffffffffffffffffffffffffffffffffffffffffffffffffffffffffffff8311156131af57600080fd5b8260051b80836020870137939093016020019392505050565b6040815260006131dc60408301858761317d565b9050826020830152949350505050565b6001600160a01b038416815260406020820152600061320f60408301848661317d565b95945050505050565b634e487b7160e01b600052603260045260246000fd5b600082601f83011261323f57600080fd5b815161324d612ceb82612cb5565b81815284602083860101111561326257600080fd5b611bda826020830160208701612917565b6000806000806080858703121561328957600080fd5b845167ffffffffffffffff808211156132a157600080fd5b6132ad8883890161322e565b955060208701519150808211156132c357600080fd5b6132cf8883890161322e565b945060408701519150808211156132e557600080fd5b6132f18883890161322e565b9350606087015191508082111561330757600080fd5b50612f1a8782880161322e565b6001600160a01b038616815260606020820152600061333760608301868861317d565b828103604084015261334a81858761317d565b98975050505050505050565b601f821115610a6157600081815260208120601f850160051c8101602086101561337d5750805b601f850160051c820191505b81811015610d4a57828155600101613389565b815167ffffffffffffffff8111156133b6576133b6612c6e565b6133ca816133c484546130f2565b84613356565b602080601f8311600181146133ff57600084156133e75750858301515b600019600386901b1c1916600185901b178555610d4a565b600085815260208120601f198616915b8281101561342e5788860151825594840194600190910190840161340f565b508582101561344c5787850151600019600388901b60f8161c191681555b5050505050600190811b01905550565b60008154613469816130f2565b600182811680156134815760018114613496576134c5565b60ff19841687528215158302870194506134c5565b8560005260208060002060005b858110156134bc5781548a8201529084019082016134a3565b50505082870194505b5050505092915050565b60006125c7828461345c565b600082601f8301126134ec57600080fd5b815160206134fc612ceb83612f26565b82815260059290921b8401810191818101908684111561351b57600080fd5b8286015b84811015612fa5578051835291830191830161351f565b600082601f83011261354757600080fd5b81516020613557612ceb83612f26565b82815260059290921b8401810191818101908684111561357657600080fd5b8286015b84811015612fa557805167ffffffffffffffff81111561359a5760008081fd5b6135a88986838b010161322e565b84525091830191830161357a565b60008060008060008060c087890312156135cf57600080fd5b865167ffffffffffffffff808211156135e757600080fd5b6135f38a838b016134db565b9750602089015191508082111561360957600080fd5b6136158a838b01613536565b9650604089015191508082111561362b57600080fd5b6136378a838b01613536565b9550606089015191508082111561364d57600080fd5b6136598a838b016134db565b9450608089015191508082111561366f57600080fd5b61367b8a838b01613536565b935060a089015191508082111561369157600080fd5b5061369e89828a01613536565b9150509295509295509295565b67ffffffffffffffff8311156136c3576136c3612c6e565b6136d7836136d183546130f2565b83613356565b6000601f84116001811461370b57600085156136f35750838201355b600019600387901b1c1916600186901b178355613765565b600083815260209020601f19861690835b8281101561373c578685013582556020948501946001909201910161371c565b50868210156137595760001960f88860031b161c19848701351681555b505060018560011b0183555b5050505050565b6000613778828661345c565b8451613788818360208901612917565b7f2f00000000000000000000000000000000000000000000000000000000000000910190815283516137c1816001840160208801612917565b0160010195945050505050565b818103818111156108535761085361314e565b808201808211156108535761085361314e565b60006001600160a01b03808716835280861660208401525083604083015260806060830152613826608083018461293b565b9695505050505050565b60006020828403121561384257600080fd5b81516125c7816128e4565b80820281158282048414176108535761085361314e565b6000816138735761387361314e565b50600019019056fea2646970667358221220a1f3eb6d63ee5d809aa99b3ed265202c812d439cee35c5ac497f19396b026a0c64736f6c63430008120033",
  "devdoc": {
    "events": {
      "Approval(address,address,uint256)": {
        "details": "Emitted when `owner` enables `approved` to manage the `tokenId` token."
      },
      "ApprovalForAll(address,address,bool)": {
        "details": "Emitted when `owner` enables or disables (`approved`) `operator` to manage all of its assets."
      },
      "Transfer(address,address,uint256)": {
        "details": "Emitted when `tokenId` token is transferred from `from` to `to`."
      }
    },
    "kind": "dev",
    "methods": {
      "approve(address,uint256)": {
        "details": "See {IERC721-approve}."
      },
      "balanceOf(address)": {
        "details": "See {IERC721-balanceOf}."
      },
      "getApproved(uint256)": {
        "details": "See {IERC721-getApproved}."
      },
      "isApprovedForAll(address,address)": {
        "details": "See {IERC721-isApprovedForAll}."
      },
      "name()": {
        "details": "See {IERC721Metadata-name}."
      },
      "owner()": {
        "details": "Returns the address of the current owner."
      },
      "ownerOf(uint256)": {
        "details": "See {IERC721-ownerOf}."
      },
      "renounceOwnership()": {
        "details": "Leaves the contract without owner. It will not be possible to call `onlyOwner` functions anymore. Can only be called by the current owner. NOTE: Renouncing ownership will leave the contract without an owner, thereby removing any functionality that is only available to the owner."
      },
      "safeTransferFrom(address,address,uint256)": {
        "details": "See {IERC721-safeTransferFrom}."
      },
      "safeTransferFrom(address,address,uint256,bytes)": {
        "details": "See {IERC721-safeTransferFrom}."
      },
      "setApprovalForAll(address,bool)": {
        "details": "See {IERC721-setApprovalForAll}."
      },
      "symbol()": {
        "details": "See {IERC721Metadata-symbol}."
      },
      "transferFrom(address,address,uint256)": {
        "details": "See {IERC721-transferFrom}."
      },
      "transferOwnership(address)": {
        "details": "Transfers ownership of the contract to a new account (`newOwner`). Can only be called by the current owner."
      }
    },
    "version": 1
  },
  "userdoc": {
    "kind": "user",
    "methods": {},
    "version": 1
  },
  "storageLayout": {
    "storage": [
      {
        "astId": 1781,
        "contract": "contracts/Studio.sol:Studio",
        "label": "_name",
        "offset": 0,
        "slot": "0",
        "type": "t_string_storage"
      },
      {
        "astId": 1783,
        "contract": "contracts/Studio.sol:Studio",
        "label": "_symbol",
        "offset": 0,
        "slot": "1",
        "type": "t_string_storage"
      },
      {
        "astId": 1787,
        "contract": "contracts/Studio.sol:Studio",
        "label": "_owners",
        "offset": 0,
        "slot": "2",
        "type": "t_mapping(t_uint256,t_address)"
      },
      {
        "astId": 1791,
        "contract": "contracts/Studio.sol:Studio",
        "label": "_balances",
        "offset": 0,
        "slot": "3",
        "type": "t_mapping(t_address,t_uint256)"
      },
      {
        "astId": 1795,
        "contract": "contracts/Studio.sol:Studio",
        "label": "_tokenApprovals",
        "offset": 0,
        "slot": "4",
        "type": "t_mapping(t_uint256,t_address)"
      },
      {
        "astId": 1801,
        "contract": "contracts/Studio.sol:Studio",
        "label": "_operatorApprovals",
        "offset": 0,
        "slot": "5",
        "type": "t_mapping(t_address,t_mapping(t_address,t_bool))"
      },
      {
        "astId": 7,
        "contract": "contracts/Studio.sol:Studio",
        "label": "_owner",
        "offset": 0,
        "slot": "6",
        "type": "t_address"
      },
      {
        "astId": 4316,
        "contract": "contracts/Studio.sol:Studio",
        "label": "locked",
        "offset": 20,
        "slot": "6",
        "type": "t_bool"
      },
      {
        "astId": 4318,
        "contract": "contracts/Studio.sol:Studio",
        "label": "nextTokenId",
        "offset": 0,
        "slot": "7",
        "type": "t_uint256"
      },
      {
        "astId": 4320,
        "contract": "contracts/Studio.sol:Studio",
        "label": "artistAddress",
        "offset": 0,
        "slot": "8",
        "type": "t_address"
      },
      {
        "astId": 4323,
        "contract": "contracts/Studio.sol:Studio",
        "label": "traits",
        "offset": 0,
        "slot": "9",
        "type": "t_contract(ITraits)6320"
      },
      {
        "astId": 4325,
        "contract": "contracts/Studio.sol:Studio",
        "label": "baseURI",
        "offset": 0,
        "slot": "10",
        "type": "t_string_storage"
      },
      {
        "astId": 4327,
        "contract": "contracts/Studio.sol:Studio",
        "label": "scriptJSON",
        "offset": 0,
        "slot": "11",
        "type": "t_string_storage"
      },
      {
        "astId": 4334,
        "contract": "contracts/Studio.sol:Studio",
        "label": "scripts",
        "offset": 0,
        "slot": "12",
        "type": "t_mapping(t_uint256,t_string_storage)"
      },
      {
        "astId": 4339,
        "contract": "contracts/Studio.sol:Studio",
        "label": "artworkData",
        "offset": 0,
        "slot": "13",
        "type": "t_mapping(t_uint256,t_struct(ArtworkData)5996_storage)"
      },
      {
        "astId": 4343,
        "contract": "contracts/Studio.sol:Studio",
        "label": "userNonces",
        "offset": 0,
        "slot": "14",
        "type": "t_mapping(t_address,t_uint256)"
      }
    ],
    "types": {
      "t_address": {
        "encoding": "inplace",
        "label": "address",
        "numberOfBytes": "20"
      },
      "t_array(t_uint256)dyn_storage": {
        "base": "t_uint256",
        "encoding": "dynamic_array",
        "label": "uint256[]",
        "numberOfBytes": "32"
      },
      "t_bool": {
        "encoding": "inplace",
        "label": "bool",
        "numberOfBytes": "1"
      },
      "t_bytes32": {
        "encoding": "inplace",
        "label": "bytes32",
        "numberOfBytes": "32"
      },
      "t_contract(ITraits)6320": {
        "encoding": "inplace",
        "label": "contract ITraits",
        "numberOfBytes": "20"
      },
      "t_mapping(t_address,t_bool)": {
        "encoding": "mapping",
        "key": "t_address",
        "label": "mapping(address => bool)",
        "numberOfBytes": "32",
        "value": "t_bool"
      },
      "t_mapping(t_address,t_mapping(t_address,t_bool))": {
        "encoding": "mapping",
        "key": "t_address",
        "label": "mapping(address => mapping(address => bool))",
        "numberOfBytes": "32",
        "value": "t_mapping(t_address,t_bool)"
      },
      "t_mapping(t_address,t_uint256)": {
        "encoding": "mapping",
        "key": "t_address",
        "label": "mapping(address => uint256)",
        "numberOfBytes": "32",
        "value": "t_uint256"
      },
      "t_mapping(t_uint256,t_address)": {
        "encoding": "mapping",
        "key": "t_uint256",
        "label": "mapping(uint256 => address)",
        "numberOfBytes": "32",
        "value": "t_address"
      },
      "t_mapping(t_uint256,t_string_storage)": {
        "encoding": "mapping",
        "key": "t_uint256",
        "label": "mapping(uint256 => string)",
        "numberOfBytes": "32",
        "value": "t_string_storage"
      },
      "t_mapping(t_uint256,t_struct(ArtworkData)5996_storage)": {
        "encoding": "mapping",
        "key": "t_uint256",
        "label": "mapping(uint256 => struct IStudio.ArtworkData)",
        "numberOfBytes": "32",
        "value": "t_struct(ArtworkData)5996_storage"
      },
      "t_string_storage": {
        "encoding": "bytes",
        "label": "string",
        "numberOfBytes": "32"
      },
      "t_struct(ArtworkData)5996_storage": {
        "encoding": "inplace",
        "label": "struct IStudio.ArtworkData",
        "members": [
          {
            "astId": 5993,
            "contract": "contracts/Studio.sol:Studio",
            "label": "traitTokenIds",
            "offset": 0,
            "slot": "0",
            "type": "t_array(t_uint256)dyn_storage"
          },
          {
            "astId": 5995,
            "contract": "contracts/Studio.sol:Studio",
            "label": "hash",
            "offset": 0,
            "slot": "1",
            "type": "t_bytes32"
          }
        ],
        "numberOfBytes": "64"
      },
      "t_uint256": {
        "encoding": "inplace",
        "label": "uint256",
        "numberOfBytes": "32"
      }
    }
  }
}