{
  "address": "0x4CD6C972774460cb126a319a2BFfCe55bc53e597",
  "abi": [
    {
      "anonymous": false,
      "inputs": [
        {
          "indexed": true,
          "internalType": "uint256",
          "name": "canvasId",
          "type": "uint256"
        },
        {
          "indexed": true,
          "internalType": "address",
          "name": "wrapper",
          "type": "address"
        },
        {
          "indexed": false,
          "internalType": "uint256[]",
          "name": "elementIds",
          "type": "uint256[]"
        }
      ],
      "name": "CanvasWrapped",
      "type": "event"
    },
    {
      "anonymous": false,
      "inputs": [
        {
          "indexed": true,
          "internalType": "uint256",
          "name": "projectId",
          "type": "uint256"
        }
      ],
      "name": "ProjectCreated",
      "type": "event"
    },
    {
      "inputs": [
        {
          "internalType": "uint256",
          "name": "_projectId",
          "type": "uint256"
        },
        {
          "internalType": "string",
          "name": "_script",
          "type": "string"
        }
      ],
      "name": "addScript",
      "outputs": [],
      "stateMutability": "nonpayable",
      "type": "function"
    },
    {
      "inputs": [],
      "name": "amm",
      "outputs": [
        {
          "internalType": "contract AMM",
          "name": "",
          "type": "address"
        }
      ],
      "stateMutability": "view",
      "type": "function"
    },
    {
      "inputs": [
        {
          "internalType": "uint256",
          "name": "_projectId",
          "type": "uint256"
        },
        {
          "internalType": "uint256[]",
          "name": "_elementTokenIdsToBuy",
          "type": "uint256[]"
        },
        {
          "internalType": "uint256[]",
          "name": "_elementAmountsToBuy",
          "type": "uint256[]"
        },
        {
          "internalType": "uint256[]",
          "name": "_maxERC20ToSpend",
          "type": "uint256[]"
        },
        {
          "internalType": "uint256[]",
          "name": "_elementIndexesToWrap",
          "type": "uint256[]"
        }
      ],
      "name": "buyCanvasAndElementsAndWrap",
      "outputs": [],
      "stateMutability": "nonpayable",
      "type": "function"
    },
    {
      "inputs": [
        {
          "internalType": "uint256",
          "name": "_projectId",
          "type": "uint256"
        },
        {
          "internalType": "uint256",
          "name": "_quantity",
          "type": "uint256"
        }
      ],
      "name": "buyCanvases",
      "outputs": [
        {
          "internalType": "uint256[]",
          "name": "canvasIds",
          "type": "uint256[]"
        }
      ],
      "stateMutability": "nonpayable",
      "type": "function"
    },
    {
      "inputs": [
        {
          "internalType": "uint256[]",
          "name": "_elementTokenIds",
          "type": "uint256[]"
        },
        {
          "internalType": "uint256[]",
          "name": "_elementAmounts",
          "type": "uint256[]"
        },
        {
          "internalType": "uint256[]",
          "name": "_maxERC20sToSpend",
          "type": "uint256[]"
        }
      ],
      "name": "buyElements",
      "outputs": [],
      "stateMutability": "nonpayable",
      "type": "function"
    },
    {
      "inputs": [
        {
          "internalType": "uint256[]",
          "name": "_elementTokenIdsToBuy",
          "type": "uint256[]"
        },
        {
          "internalType": "uint256[]",
          "name": "_elementAmountsToBuy",
          "type": "uint256[]"
        },
        {
          "internalType": "uint256[]",
          "name": "_maxERC20ToSpend",
          "type": "uint256[]"
        },
        {
          "internalType": "uint256[]",
          "name": "_elementIndexesToWrap",
          "type": "uint256[]"
        },
        {
          "internalType": "uint256",
          "name": "_canvasId",
          "type": "uint256"
        }
      ],
      "name": "buyElementsAndWrap",
      "outputs": [],
      "stateMutability": "nonpayable",
      "type": "function"
    },
    {
      "inputs": [],
      "name": "canvas",
      "outputs": [
        {
          "internalType": "contract Canvas",
          "name": "",
          "type": "address"
        }
      ],
      "stateMutability": "view",
      "type": "function"
    },
    {
      "inputs": [
        {
          "internalType": "uint256",
          "name": "",
          "type": "uint256"
        }
      ],
      "name": "canvases",
      "outputs": [
        {
          "internalType": "bool",
          "name": "wrapped",
          "type": "bool"
        },
        {
          "internalType": "bytes32",
          "name": "hash",
          "type": "bytes32"
        }
      ],
      "stateMutability": "view",
      "type": "function"
    },
    {
      "inputs": [
        {
          "components": [
            {
              "internalType": "string",
              "name": "name",
              "type": "string"
            },
            {
              "internalType": "string",
              "name": "description",
              "type": "string"
            },
            {
              "internalType": "address",
              "name": "artistAddress",
              "type": "address"
            },
            {
              "internalType": "string",
              "name": "artistName",
              "type": "string"
            },
            {
              "internalType": "string",
              "name": "website",
              "type": "string"
            },
            {
              "internalType": "string",
              "name": "license",
              "type": "string"
            },
            {
              "internalType": "string",
              "name": "baseURI",
              "type": "string"
            },
            {
              "internalType": "string",
              "name": "scriptJSON",
              "type": "string"
            },
            {
              "internalType": "string[]",
              "name": "scripts",
              "type": "string[]"
            },
            {
              "internalType": "uint256",
              "name": "maxInvocations",
              "type": "uint256"
            },
            {
              "internalType": "string[]",
              "name": "featureCategoryLabels",
              "type": "string[]"
            },
            {
              "internalType": "string[][]",
              "name": "featureLabels",
              "type": "string[][]"
            }
          ],
          "internalType": "struct IStudio.CreateProjectData",
          "name": "_createProjectData",
          "type": "tuple"
        },
        {
          "components": [
            {
              "internalType": "uint256",
              "name": "startTime",
              "type": "uint256"
            },
            {
              "internalType": "uint256",
              "name": "endTime",
              "type": "uint256"
            },
            {
              "internalType": "uint256",
              "name": "startPrice",
              "type": "uint256"
            },
            {
              "internalType": "uint256",
              "name": "endPrice",
              "type": "uint256"
            },
            {
              "internalType": "address",
              "name": "artistAddress",
              "type": "address"
            },
            {
              "internalType": "address",
              "name": "erc20Token",
              "type": "address"
            }
          ],
          "internalType": "struct IDutchAuction.Auction",
          "name": "_createAuction",
          "type": "tuple"
        },
        {
          "components": [
            {
              "internalType": "uint256",
              "name": "startTime",
              "type": "uint256"
            },
            {
              "internalType": "address",
              "name": "erc20Token",
              "type": "address"
            },
            {
              "internalType": "uint256[][]",
              "name": "constantA",
              "type": "uint256[][]"
            },
            {
              "internalType": "uint256[][]",
              "name": "constantB",
              "type": "uint256[][]"
            }
          ],
          "internalType": "struct IStudio.CreateAMM",
          "name": "_createAMM",
          "type": "tuple"
        }
      ],
      "name": "createProject",
      "outputs": [
        {
          "internalType": "uint256",
          "name": "projectId",
          "type": "uint256"
        },
        {
          "internalType": "uint256[][]",
          "name": "elementTokenIds",
          "type": "uint256[][]"
        }
      ],
      "stateMutability": "nonpayable",
      "type": "function"
    },
    {
      "inputs": [],
      "name": "dutchAuction",
      "outputs": [
        {
          "internalType": "contract DutchAuction",
          "name": "",
          "type": "address"
        }
      ],
      "stateMutability": "view",
      "type": "function"
    },
    {
      "inputs": [],
      "name": "element",
      "outputs": [
        {
          "internalType": "contract Element",
          "name": "",
          "type": "address"
        }
      ],
      "stateMutability": "view",
      "type": "function"
    },
    {
      "inputs": [
        {
          "internalType": "uint256",
          "name": "_canvasId",
          "type": "uint256"
        }
      ],
      "name": "getCanvasHash",
      "outputs": [
        {
          "internalType": "bytes32",
          "name": "",
          "type": "bytes32"
        }
      ],
      "stateMutability": "view",
      "type": "function"
    },
    {
      "inputs": [
        {
          "internalType": "uint256",
          "name": "_canvasTokenId",
          "type": "uint256"
        }
      ],
      "name": "getCanvasTokenURI",
      "outputs": [
        {
          "internalType": "string",
          "name": "",
          "type": "string"
        }
      ],
      "stateMutability": "view",
      "type": "function"
    },
    {
      "inputs": [
        {
          "internalType": "uint256",
          "name": "_canvasId",
          "type": "uint256"
        }
      ],
      "name": "getCanvasWrappedFeatureLabels",
      "outputs": [
        {
          "internalType": "string[]",
          "name": "featureLabels",
          "type": "string[]"
        }
      ],
      "stateMutability": "view",
      "type": "function"
    },
    {
      "inputs": [
        {
          "internalType": "uint256",
          "name": "_canvasId",
          "type": "uint256"
        }
      ],
      "name": "getCanvasWrappedTokenIds",
      "outputs": [
        {
          "internalType": "uint256[]",
          "name": "",
          "type": "uint256[]"
        }
      ],
      "stateMutability": "view",
      "type": "function"
    },
    {
      "inputs": [
        {
          "internalType": "uint256",
          "name": "_projectId",
          "type": "uint256"
        }
      ],
      "name": "getProjectFeatureCategoryLabels",
      "outputs": [
        {
          "internalType": "string[]",
          "name": "",
          "type": "string[]"
        }
      ],
      "stateMutability": "view",
      "type": "function"
    },
    {
      "inputs": [
        {
          "internalType": "uint256",
          "name": "_projectId",
          "type": "uint256"
        }
      ],
      "name": "getProjectFeatureLabels",
      "outputs": [
        {
          "internalType": "string[][]",
          "name": "featureLabels",
          "type": "string[][]"
        }
      ],
      "stateMutability": "view",
      "type": "function"
    },
    {
      "inputs": [
        {
          "internalType": "uint256",
          "name": "_projectId",
          "type": "uint256"
        }
      ],
      "name": "getProjectFeaturePrices",
      "outputs": [
        {
          "internalType": "uint256[][]",
          "name": "featurePrices",
          "type": "uint256[][]"
        }
      ],
      "stateMutability": "view",
      "type": "function"
    },
    {
      "inputs": [
        {
          "internalType": "uint256",
          "name": "_projectId",
          "type": "uint256"
        }
      ],
      "name": "getProjectFeatureTokenIds",
      "outputs": [
        {
          "internalType": "uint256[][]",
          "name": "",
          "type": "uint256[][]"
        }
      ],
      "stateMutability": "view",
      "type": "function"
    },
    {
      "inputs": [
        {
          "internalType": "uint256",
          "name": "canvasId",
          "type": "uint256"
        }
      ],
      "name": "getProjectIdFromCanvasId",
      "outputs": [
        {
          "internalType": "uint256",
          "name": "projectId",
          "type": "uint256"
        }
      ],
      "stateMutability": "pure",
      "type": "function"
    },
    {
      "inputs": [
        {
          "internalType": "uint256",
          "name": "_projectId",
          "type": "uint256"
        }
      ],
      "name": "getProjectScripts",
      "outputs": [
        {
          "internalType": "string[]",
          "name": "",
          "type": "string[]"
        }
      ],
      "stateMutability": "view",
      "type": "function"
    },
    {
      "inputs": [
        {
          "internalType": "address",
          "name": "_user",
          "type": "address"
        }
      ],
      "name": "getUserNonce",
      "outputs": [
        {
          "internalType": "uint256",
          "name": "",
          "type": "uint256"
        }
      ],
      "stateMutability": "view",
      "type": "function"
    },
    {
      "inputs": [
        {
          "internalType": "address",
          "name": "_canvas",
          "type": "address"
        },
        {
          "internalType": "address",
          "name": "_dutchAuction",
          "type": "address"
        },
        {
          "internalType": "address",
          "name": "_element",
          "type": "address"
        },
        {
          "internalType": "address",
          "name": "_amm",
          "type": "address"
        }
      ],
      "name": "initialize",
      "outputs": [],
      "stateMutability": "nonpayable",
      "type": "function"
    },
    {
      "inputs": [
        {
          "internalType": "address",
          "name": "",
          "type": "address"
        },
        {
          "internalType": "address",
          "name": "",
          "type": "address"
        },
        {
          "internalType": "uint256[]",
          "name": "",
          "type": "uint256[]"
        },
        {
          "internalType": "uint256[]",
          "name": "",
          "type": "uint256[]"
        },
        {
          "internalType": "bytes",
          "name": "",
          "type": "bytes"
        }
      ],
      "name": "onERC1155BatchReceived",
      "outputs": [
        {
          "internalType": "bytes4",
          "name": "",
          "type": "bytes4"
        }
      ],
      "stateMutability": "nonpayable",
      "type": "function"
    },
    {
      "inputs": [
        {
          "internalType": "address",
          "name": "",
          "type": "address"
        },
        {
          "internalType": "address",
          "name": "",
          "type": "address"
        },
        {
          "internalType": "uint256",
          "name": "",
          "type": "uint256"
        },
        {
          "internalType": "uint256",
          "name": "",
          "type": "uint256"
        },
        {
          "internalType": "bytes",
          "name": "",
          "type": "bytes"
        }
      ],
      "name": "onERC1155Received",
      "outputs": [
        {
          "internalType": "bytes4",
          "name": "",
          "type": "bytes4"
        }
      ],
      "stateMutability": "nonpayable",
      "type": "function"
    },
    {
      "inputs": [
        {
          "internalType": "uint256",
          "name": "",
          "type": "uint256"
        }
      ],
      "name": "projects",
      "outputs": [
        {
          "internalType": "string",
          "name": "name",
          "type": "string"
        },
        {
          "internalType": "string",
          "name": "description",
          "type": "string"
        },
        {
          "internalType": "address",
          "name": "artistAddress",
          "type": "address"
        },
        {
          "internalType": "string",
          "name": "artistName",
          "type": "string"
        },
        {
          "internalType": "string",
          "name": "website",
          "type": "string"
        },
        {
          "internalType": "string",
          "name": "license",
          "type": "string"
        },
        {
          "internalType": "string",
          "name": "baseURI",
          "type": "string"
        },
        {
          "internalType": "string",
          "name": "scriptJSON",
          "type": "string"
        }
      ],
      "stateMutability": "view",
      "type": "function"
    },
    {
      "inputs": [
        {
          "internalType": "bytes4",
          "name": "interfaceId",
          "type": "bytes4"
        }
      ],
      "name": "supportsInterface",
      "outputs": [
        {
          "internalType": "bool",
          "name": "",
          "type": "bool"
        }
      ],
      "stateMutability": "view",
      "type": "function"
    },
    {
      "inputs": [
        {
          "internalType": "uint256",
          "name": "_canvasId",
          "type": "uint256"
        }
      ],
      "name": "unwrap",
      "outputs": [],
      "stateMutability": "nonpayable",
      "type": "function"
    },
    {
      "inputs": [
        {
          "internalType": "address",
          "name": "",
          "type": "address"
        }
      ],
      "name": "userNonces",
      "outputs": [
        {
          "internalType": "uint256",
          "name": "",
          "type": "uint256"
        }
      ],
      "stateMutability": "view",
      "type": "function"
    },
    {
      "inputs": [
        {
          "internalType": "uint256",
          "name": "_canvasId",
          "type": "uint256"
        },
        {
          "internalType": "uint256[]",
          "name": "_elementIndexes",
          "type": "uint256[]"
        }
      ],
      "name": "wrap",
      "outputs": [],
      "stateMutability": "nonpayable",
      "type": "function"
    }
  ],
  "transactionHash": "0x2131a85b73fc1286f6a950d8ae3ffa63f7f58596435394bd9cd6434c8377a739",
  "args": [],
  "numDeployments": 1,
  "solcInputHash": "087a7cb0e2ad6a30db8c30e9538f1bcb",
  "bytecode": "0x608060405234801561001057600080fd5b5061377d806100206000396000f3fe608060405234801561001057600080fd5b50600436106101da5760003560e01c8063a11cd37f11610104578063e1114074116100a2578063f532217211610071578063f532217214610508578063f709b1411461051b578063f8c8765e1461052e578063fc78fa851461054157600080fd5b8063e1114074146104b0578063eb275d47146104c3578063efa37986146104d6578063f23a6e61146104e957600080fd5b8063bc197c81116100de578063bc197c811461040e578063d1a22c0e14610446578063d9d197a614610459578063de0e9a3e1461049d57600080fd5b8063a11cd37f146103c6578063a89d3520146103db578063b766b290146103fb57600080fd5b80633803ac4c1161017c5780638bb6c1301161014b5780638bb6c1301461035957806390af29311461037a5780639b8e9b5e1461039a5780639da0d7d4146103b357600080fd5b80633803ac4c146102da57806340c2846b146102fa5780636834e3a81461030d578063804f69291461033657600080fd5b806321e55ff4116101b857806321e55ff41461024e5780632884fd001461026e5780632a943945146102995780632f7801f4146102ac57600080fd5b806301ffc9a7146101df578063107046bd146102075780631ea82ff41461022e575b600080fd5b6101f26101ed36600461251f565b610554565b60405190151581526020015b60405180910390f35b61021a610215366004612549565b61058b565b6040516101fe9897969594939291906125ba565b61024161023c366004612664565b610992565b6040516101fe91906126c1565b61026161025c366004612549565b610a21565b6040516101fe91906126d4565b600254610281906001600160a01b031681565b6040516001600160a01b0390911681526020016101fe565b600354610281906001600160a01b031681565b6102cc6102ba36600461270c565b60066020526000908152604090205481565b6040519081526020016101fe565b6102ed6102e8366004612549565b610a71565b6040516101fe919061277e565b6102cc610308366004612549565b610b60565b6102cc61031b36600461270c565b6001600160a01b031660009081526006602052604090205490565b6102cc610344366004612549565b60009081526005602052604090206002015490565b61036c610367366004612bb8565b610b6f565b6040516101fe929190612e40565b61038d610388366004612549565b610cf3565b6040516101fe9190612e59565b600054610281906201000090046001600160a01b031681565b600154610281906001600160a01b031681565b6103d96103d4366004612ebb565b610f17565b005b6103ee6103e9366004612549565b610f33565b6040516101fe9190612f6f565b610241610409366004612549565b610fd7565b61042d61041c366004612f82565b63bc197c8160e01b95945050505050565b6040516001600160e01b031990911681526020016101fe565b6103d961045436600461302f565b61103c565b610486610467366004612549565b6005602052600090815260409020805460029091015460ff9091169082565b6040805192151583526020830191909152016101fe565b6103d96104ab366004612549565b6110ab565b6103d96104be3660046130ac565b6112d7565b6102ed6104d1366004612549565b61131d565b6103ee6104e4366004612549565b611468565b61042d6104f7366004613155565b63f23a6e6160e01b95945050505050565b6102ed610516366004612549565b61167f565b6103d96105293660046131bd565b611763565b6103d961053c366004613238565b61180d565b6103d961054f366004613294565b611926565b60006001600160e01b03198216630271189760e51b148061058557506301ffc9a760e01b6001600160e01b03198316145b92915050565b6004602052600090815260409020805481906105a6906132da565b80601f01602080910402602001604051908101604052809291908181526020018280546105d2906132da565b801561061f5780601f106105f45761010080835404028352916020019161061f565b820191906000526020600020905b81548152906001019060200180831161060257829003601f168201915b505050505090806001018054610634906132da565b80601f0160208091040260200160405190810160405280929190818152602001828054610660906132da565b80156106ad5780601f10610682576101008083540402835291602001916106ad565b820191906000526020600020905b81548152906001019060200180831161069057829003601f168201915b505050600284015460038501805494956001600160a01b039092169491935091506106d7906132da565b80601f0160208091040260200160405190810160405280929190818152602001828054610703906132da565b80156107505780601f1061072557610100808354040283529160200191610750565b820191906000526020600020905b81548152906001019060200180831161073357829003601f168201915b505050505090806004018054610765906132da565b80601f0160208091040260200160405190810160405280929190818152602001828054610791906132da565b80156107de5780601f106107b3576101008083540402835291602001916107de565b820191906000526020600020905b8154815290600101906020018083116107c157829003601f168201915b5050505050908060050180546107f3906132da565b80601f016020809104026020016040519081016040528092919081815260200182805461081f906132da565b801561086c5780601f106108415761010080835404028352916020019161086c565b820191906000526020600020905b81548152906001019060200180831161084f57829003601f168201915b505050505090806006018054610881906132da565b80601f01602080910402602001604051908101604052809291908181526020018280546108ad906132da565b80156108fa5780601f106108cf576101008083540402835291602001916108fa565b820191906000526020600020905b8154815290600101906020018083116108dd57829003601f168201915b50505050509080600701805461090f906132da565b80601f016020809104026020016040519081016040528092919081815260200182805461093b906132da565b80156109885780601f1061095d57610100808354040283529160200191610988565b820191906000526020600020905b81548152906001019060200180831161096b57829003601f168201915b5050505050905088565b6001546040516375202f3b60e11b81526004810184905260248101839052336044820181905260648201526060916001600160a01b03169063ea405e76906084016000604051808303816000875af11580156109f2573d6000803e3d6000fd5b505050506040513d6000823e601f3d908101601f19168201604052610a1a919081019061330e565b9392505050565b606060046000610a3084610b60565b8152602001908152602001600020600601610a4a83611d17565b604051602001610a5b9291906133ba565b6040516020818303038152906040529050919050565b606060046000838152602001908152602001600020600801805480602002602001604051908101604052809291908181526020016000905b82821015610b55578382906000526020600020018054610ac8906132da565b80601f0160208091040260200160405190810160405280929190818152602001828054610af4906132da565b8015610b415780601f10610b1657610100808354040283529160200191610b41565b820191906000526020600020905b815481529060010190602001808311610b2457829003601f168201915b505050505081526020019060010190610aa9565b505050509050919050565b6000610585620f42408361348c565b60008054600154610120860151604051637ca68cdd60e11b81523060048201526001600160a01b03928316602482015260448101919091526060926201000090049091169063f94d19ba906064016020604051808303816000875af1158015610bdc573d6000803e3d6000fd5b505050506040513d601f19601f82011682018060405250810190610c0091906134a0565b9150610c0c8286611e1f565b6001546040805163201476af60e21b81526004810185905286516024820152602087015160448201529086015160648201526060860151608482015260808601516001600160a01b0390811660a483015260a0870151811660c483015290911690638051dabc9060e401600060405180830381600087803b158015610c9057600080fd5b505af1158015610ca4573d6000803e3d6000fd5b50505050610cbd82866040015187610160015186612061565b60405190915082907f1ac2092e16e28eef29d1832f3dc69da1b21284a1f3159d3b26cb238b22fe4f8a90600090a2935093915050565b600081815260046020526040902060090154606090806001600160401b03811115610d2057610d20612791565b604051908082528060200260200182016040528015610d5357816020015b6060815260200190600190039081610d3e5790505b50915060005b81811015610f10576000848152600460205260408120600a01805483908110610d8457610d846134b9565b60009182526020822001549150816001600160401b03811115610da957610da9612791565b604051908082528060200260200182016040528015610ddc57816020015b6060815260200190600190039081610dc75790505b50905060005b82811015610edc576002546000888152600460205260409020600a0180546001600160a01b03909216916355a1dde7919087908110610e2357610e236134b9565b906000526020600020018381548110610e3e57610e3e6134b9565b90600052602060002001546040518263ffffffff1660e01b8152600401610e6791815260200190565b600060405180830381865afa158015610e84573d6000803e3d6000fd5b505050506040513d6000823e601f3d908101601f19168201604052610eac91908101906134cf565b828281518110610ebe57610ebe6134b9565b60200260200101819052508080610ed49061353c565b915050610de2565b5080858481518110610ef057610ef06134b9565b602002602001018190525050508080610f089061353c565b915050610d59565b5050919050565b610f2285858561103c565b610f2c8183611926565b5050505050565b606060046000838152602001908152602001600020600a01805480602002602001604051908101604052809291908181526020016000905b82821015610b5557600084815260209081902083018054604080518285028101850190915281815292830182828015610fc357602002820191906000526020600020905b815481526020019060010190808311610faf575b505050505081526020019060010190610f6b565b60008181526005602090815260409182902060010180548351818402810184019094528084526060939283018282801561103057602002820191906000526020600020905b81548152602001906001019080831161101c575b50505050509050919050565b600354604051631094316d60e31b81526001600160a01b03909116906384a18b68906110749086908690869033908190600401613555565b600060405180830381600087803b15801561108e57600080fd5b505af11580156110a2573d6000803e3d6000fd5b50505050505050565b6000546040516331a9108f60e11b815260048101839052620100009091046001600160a01b031690636352211e90602401602060405180830381865afa1580156110f9573d6000803e3d6000fd5b505050506040513d601f19601f8201168201806040525081019061111d91906135b4565b6001600160a01b0316336001600160a01b0316146111565760405162461bcd60e51b815260040161114d906135d1565b60405180910390fd5b60008181526005602052604090205460ff166111ac5760405162461bcd60e51b815260206004820152601560248201527410d85b9d985cc81a5cc81b9bdd081ddc985c1c1959605a1b604482015260640161114d565b600081815260056020526040812060028101829055805460ff191690556111d282610b60565b905060005b6000828152600460205260409020600901548110156112d2576000838152600560205260408120600101805483908110611213576112136134b9565b906000526020600020015490506000600560008681526020019081526020016000206001018381548110611249576112496134b9565b600091825260209091200155600254604051637921219560e11b81526001600160a01b039091169063f242432a9061128c90309033908690600190600401613615565b600060405180830381600087803b1580156112a657600080fd5b505af11580156112ba573d6000803e3d6000fd5b505050505080806112ca9061353c565b9150506111d7565b505050565b60006112e4866001610992565b90506112f185858561103c565b61131581600081518110611307576113076134b9565b602002602001015183611926565b505050505050565b6000818152600560205260409020600101546060906001600160401b0381111561134957611349612791565b60405190808252806020026020018201604052801561137c57816020015b60608152602001906001900390816113675790505b50905060005b815181101561146257600254600084815260056020526040902060010180546001600160a01b03909216916355a1dde79190849081106113c4576113c46134b9565b90600052602060002001546040518263ffffffff1660e01b81526004016113ed91815260200190565b600060405180830381865afa15801561140a573d6000803e3d6000fd5b505050506040513d6000823e601f3d908101601f1916820160405261143291908101906134cf565b828281518110611444576114446134b9565b6020026020010181905250808061145a9061353c565b915050611382565b50919050565b600081815260046020526040902060090154606090806001600160401b0381111561149557611495612791565b6040519080825280602002602001820160405280156114c857816020015b60608152602001906001900390816114b35790505b50915060005b81811015610f10576000848152600460205260408120600a018054839081106114f9576114f96134b9565b60009182526020822001549150816001600160401b0381111561151e5761151e612791565b604051908082528060200260200182016040528015611547578160200160208202803683370190505b50905060005b8281101561164b576000878152600460205260408120600a01805486908110611578576115786134b9565b906000526020600020018281548110611593576115936134b9565b600091825260208220015460035460405163210f2b4960e11b815260048101839052600160248201529193506001600160a01b03169063421e569290604401606060405180830381865afa1580156115ef573d6000803e3d6000fd5b505050506040513d601f19601f82011682018060405250810190611613919061364d565b505090508084848151811061162a5761162a6134b9565b602002602001018181525050505080806116439061353c565b91505061154d565b508085848151811061165f5761165f6134b9565b6020026020010181905250505080806116779061353c565b9150506114ce565b606060046000838152602001908152602001600020600901805480602002602001604051908101604052809291908181526020016000905b82821015610b555783829060005260206000200180546116d6906132da565b80601f0160208091040260200160405190810160405280929190818152602001828054611702906132da565b801561174f5780601f106117245761010080835404028352916020019161174f565b820191906000526020600020905b81548152906001019060200180831161173257829003601f168201915b5050505050815260200190600101906116b7565b6000838152600460205260409020600201546001600160a01b031633146117db5760405162461bcd60e51b815260206004820152602660248201527f4f6e6c7920746865206172746973742063616e2063616c6c20746869732066756044820152653731ba34b7b760d11b606482015260840161114d565b600083815260046020908152604082206008018054600181018255908352912061180791018383612291565b50505050565b600054610100900460ff166118285760005460ff161561182c565b303b155b61188f5760405162461bcd60e51b815260206004820152602e60248201527f496e697469616c697a61626c653a20636f6e747261637420697320616c72656160448201526d191e481a5b9a5d1a585b1a5e995960921b606482015260840161114d565b600054610100900460ff161580156118b1576000805461ffff19166101011790555b6000805462010000600160b01b031916620100006001600160a01b038881169190910291909117909155600180546001600160a01b031990811687841617909155600280548216868416179055600380549091169184169190911790558015610f2c576000805461ff00191690555050505050565b6000546040516331a9108f60e11b815260048101849052620100009091046001600160a01b031690636352211e90602401602060405180830381865afa158015611974573d6000803e3d6000fd5b505050506040513d601f19601f8201168201806040525081019061199891906135b4565b6001600160a01b0316336001600160a01b0316146119c85760405162461bcd60e51b815260040161114d906135d1565b60008281526005602052604090205460ff1615611a275760405162461bcd60e51b815260206004820152601960248201527f43616e76617320697320616c7265616479207772617070656400000000000000604482015260640161114d565b60046000611a3484610b60565b8152602081019190915260400160002060090154815114611a975760405162461bcd60e51b815260206004820152601f60248201527f496e636f727265637420656c656d656e7473206172726179206c656e67746800604482015260640161114d565b3360008181526006602090815260408083205490519293611ad79390920160609290921b6bffffffffffffffffffffffff19168252601482015260340190565b60408051601f1981840301815291815281516020928301206000868152600590935290822060020181905583519092506001600160401b03811115611b1e57611b1e612791565b604051908082528060200260200182016040528015611b47578160200160208202803683370190505b50905060005b8351811015611c7c5760046000611b6387610b60565b8152602001908152602001600020600a018181548110611b8557611b856134b9565b90600052602060002001848281518110611ba157611ba16134b9565b602002602001015181548110611bb957611bb96134b9565b9060005260206000200154828281518110611bd657611bd66134b9565b602090810291909101015260025482516001600160a01b039091169063f242432a9033903090869086908110611c0e57611c0e6134b9565b602002602001015160016040518563ffffffff1660e01b8152600401611c379493929190613615565b600060405180830381600087803b158015611c5157600080fd5b505af1158015611c65573d6000803e3d6000fd5b505050508080611c749061353c565b915050611b4d565b506000848152600560209081526040909120805460ff1916600190811782558351611cae939290910191840190612315565b50336000908152600660205260408120805491611cca8361353c565b9190505550336001600160a01b0316847f5248513e2c6dd2581707fc34beea5fed4ba755111a668799297ce7945e4b978c83604051611d0991906126c1565b60405180910390a350505050565b606081600003611d3e5750506040805180820190915260018152600360fc1b602082015290565b8160005b8115611d685780611d528161353c565b9150611d619050600a8361348c565b9150611d42565b6000816001600160401b03811115611d8257611d82612791565b6040519080825280601f01601f191660200182016040528015611dac576020820181803683370190505b5090505b8415611e1757611dc160018361367b565b9150611dce600a86613692565b611dd99060306136a6565b60f81b818381518110611dee57611dee6134b9565b60200101906001600160f81b031916908160001a905350611e10600a8661348c565b9450611db0565b949350505050565b806101600151518161014001515114611e955760405162461bcd60e51b815260206004820152603260248201527f496e76616c6964206665617475726520616e6420666561747572652063617465604482015271676f7279206172726179206c656e6774687360701b606482015260840161114d565b805160008381526004602090815260409091208251611eb993919290910190612350565b50602080820151600084815260048352604090208151611ee29360019092019290910190612350565b506040818101516000848152600460209081529290206002810180546001600160a01b0319166001600160a01b039093169290921790915560608301518051611f35936003909301929190910190612350565b50608081015160008381526004602081815260409092208351611f5e9491909201920190612350565b5060a081015160008381526004602090815260409091208251611f8a9360059092019290910190612350565b5060c081015160008381526004602090815260409091208251611fb69360069092019290910190612350565b5060e081015160008381526004602090815260409091208251611fe29360079092019290910190612350565b506101008101516000838152600460209081526040909120825161200f93600890920192909101906123c3565b5080516000838152600460209081526040909120825161203493919290910190612350565b50610140810151600083815260046020908152604090912082516112d293600990920192909101906123c3565b606082516001600160401b0381111561207c5761207c612791565b6040519080825280602002602001820160405280156120af57816020015b606081526020019060019003908161209a5790505b50905060005b83518110156122625760025484516001600160a01b039091169063c60b6e2d908690849081106120e7576120e76134b9565b60209081029190910101516003546040516001600160e01b031960e085901b16815261212092916001600160a01b0316906004016136be565b6000604051808303816000875af115801561213f573d6000803e3d6000fd5b505050506040513d6000823e601f3d908101601f19168201604052612167919081019061330e565b828281518110612179576121796134b9565b602090810291909101015260035482516001600160a01b039091169063d282855b908490849081106121ad576121ad6134b9565b6020026020010151856040015184815181106121cb576121cb6134b9565b6020026020010151866060015185815181106121e9576121e96134b9565b602002602001015189886020015189600001516040518763ffffffff1660e01b815260040161221d969594939291906136e8565b600060405180830381600087803b15801561223757600080fd5b505af115801561224b573d6000803e3d6000fd5b50505050808061225a9061353c565b9150506120b5565b506000858152600460209081526040909120825161228892600a9092019184019061241c565b50949350505050565b82805461229d906132da565b90600052602060002090601f0160209004810192826122bf5760008555612305565b82601f106122d85782800160ff19823516178555612305565b82800160010185558215612305579182015b828111156123055782358255916020019190600101906122ea565b50612311929150612475565b5090565b828054828255906000526020600020908101928215612305579160200282015b82811115612305578251825591602001919060010190612335565b82805461235c906132da565b90600052602060002090601f01602090048101928261237e5760008555612305565b82601f1061239757805160ff1916838001178555612305565b828001600101855582156123055791820182811115612305578251825591602001919060010190612335565b828054828255906000526020600020908101928215612410579160200282015b828111156124105782518051612400918491602090910190612350565b50916020019190600101906123e3565b5061231192915061248a565b828054828255906000526020600020908101928215612469579160200282015b828111156124695782518051612459918491602090910190612315565b509160200191906001019061243c565b506123119291506124a7565b5b808211156123115760008155600101612476565b8082111561231157600061249e82826124c4565b5060010161248a565b808211156123115760006124bb8282612501565b506001016124a7565b5080546124d0906132da565b6000825580601f106124e0575050565b601f0160209004906000526020600020908101906124fe9190612475565b50565b50805460008255906000526020600020908101906124fe9190612475565b60006020828403121561253157600080fd5b81356001600160e01b031981168114610a1a57600080fd5b60006020828403121561255b57600080fd5b5035919050565b60005b8381101561257d578181015183820152602001612565565b838111156118075750506000910152565b600081518084526125a6816020860160208601612562565b601f01601f19169290920160200192915050565b60006101008083526125ce8184018c61258e565b905082810360208401526125e2818b61258e565b6001600160a01b038a16604085015283810360608501529050612605818961258e565b90508281036080840152612619818861258e565b905082810360a084015261262d818761258e565b905082810360c0840152612641818661258e565b905082810360e0840152612655818561258e565b9b9a5050505050505050505050565b6000806040838503121561267757600080fd5b50508035926020909101359150565b600081518084526020808501945080840160005b838110156126b65781518752958201959082019060010161269a565b509495945050505050565b602081526000610a1a6020830184612686565b602081526000610a1a602083018461258e565b6001600160a01b03811681146124fe57600080fd5b8035612707816126e7565b919050565b60006020828403121561271e57600080fd5b8135610a1a816126e7565b600081518084526020808501808196508360051b8101915082860160005b8581101561277157828403895261275f84835161258e565b98850198935090840190600101612747565b5091979650505050505050565b602081526000610a1a6020830184612729565b634e487b7160e01b600052604160045260246000fd5b60405161018081016001600160401b03811182821017156127ca576127ca612791565b60405290565b604051601f8201601f191681016001600160401b03811182821017156127f8576127f8612791565b604052919050565b60006001600160401b0382111561281957612819612791565b50601f01601f191660200190565b600082601f83011261283857600080fd5b813561284b61284682612800565b6127d0565b81815284602083860101111561286057600080fd5b816020850160208301376000918101602001919091529392505050565b60006001600160401b0382111561289657612896612791565b5060051b60200190565b600082601f8301126128b157600080fd5b813560206128c16128468361287d565b82815260059290921b840181019181810190868411156128e057600080fd5b8286015b8481101561291f5780356001600160401b038111156129035760008081fd5b6129118986838b0101612827565b8452509183019183016128e4565b509695505050505050565b600082601f83011261293b57600080fd5b8135602061294b6128468361287d565b82815260059290921b8401810191818101908684111561296a57600080fd5b8286015b8481101561291f5780356001600160401b0381111561298d5760008081fd5b61299b8986838b01016128a0565b84525091830191830161296e565b600060c082840312156129bb57600080fd5b60405160c081018181106001600160401b03821117156129dd576129dd612791565b8060405250809150823581526020830135602082015260408301356040820152606083013560608201526080830135612a15816126e7565b608082015260a0830135612a28816126e7565b60a0919091015292915050565b600082601f830112612a4657600080fd5b81356020612a566128468361287d565b82815260059290921b84018101918181019086841115612a7557600080fd5b8286015b8481101561291f5780358352918301918301612a79565b600082601f830112612aa157600080fd5b81356020612ab16128468361287d565b82815260059290921b84018101918181019086841115612ad057600080fd5b8286015b8481101561291f5780356001600160401b03811115612af35760008081fd5b612b018986838b0101612a35565b845250918301918301612ad4565b600060808284031215612b2157600080fd5b604051608081016001600160401b038282108183111715612b4457612b44612791565b816040528293508435835260208501359150612b5f826126e7565b8160208401526040850135915080821115612b7957600080fd5b612b8586838701612a90565b60408401526060850135915080821115612b9e57600080fd5b50612bab85828601612a90565b6060830152505092915050565b6000806000610100808587031215612bcf57600080fd5b84356001600160401b0380821115612be657600080fd5b908601906101808289031215612bfb57600080fd5b612c036127a7565b823582811115612c1257600080fd5b612c1e8a828601612827565b825250602083013582811115612c3357600080fd5b612c3f8a828601612827565b602083015250612c51604084016126fc565b6040820152606083013582811115612c6857600080fd5b612c748a828601612827565b606083015250608083013582811115612c8c57600080fd5b612c988a828601612827565b60808301525060a083013582811115612cb057600080fd5b612cbc8a828601612827565b60a08301525060c083013582811115612cd457600080fd5b612ce08a828601612827565b60c08301525060e083013582811115612cf857600080fd5b612d048a828601612827565b60e0830152508383013582811115612d1b57600080fd5b612d278a8286016128a0565b85830152506101209350838301358482015261014093508383013582811115612d4f57600080fd5b612d5b8a8286016128a0565b858301525061016093508383013582811115612d7657600080fd5b612d828a82860161292a565b82860152509550612d9688602089016129a9565b945060e0870135925080831115612dac57600080fd5b5050612dba86828701612b0f565b9150509250925092565b600081518084526020808501808196508360051b810191508286016000805b86811015612e32578385038a52825180518087529087019087870190845b81811015612e1d57835183529289019291890191600101612e01565b50509a87019a95505091850191600101612de3565b509298975050505050505050565b828152604060208201526000611e176040830184612dc4565b6000602080830181845280855180835260408601915060408160051b870101925083870160005b82811015612eae57603f19888603018452612e9c858351612729565b94509285019290850190600101612e80565b5092979650505050505050565b600080600080600060a08688031215612ed357600080fd5b85356001600160401b0380821115612eea57600080fd5b612ef689838a01612a35565b96506020880135915080821115612f0c57600080fd5b612f1889838a01612a35565b95506040880135915080821115612f2e57600080fd5b612f3a89838a01612a35565b94506060880135915080821115612f5057600080fd5b50612f5d88828901612a35565b95989497509295608001359392505050565b602081526000610a1a6020830184612dc4565b600080600080600060a08688031215612f9a57600080fd5b8535612fa5816126e7565b94506020860135612fb5816126e7565b935060408601356001600160401b0380821115612fd157600080fd5b612fdd89838a01612a35565b94506060880135915080821115612ff357600080fd5b612fff89838a01612a35565b9350608088013591508082111561301557600080fd5b5061302288828901612827565b9150509295509295909350565b60008060006060848603121561304457600080fd5b83356001600160401b038082111561305b57600080fd5b61306787838801612a35565b9450602086013591508082111561307d57600080fd5b61308987838801612a35565b9350604086013591508082111561309f57600080fd5b50612dba86828701612a35565b600080600080600060a086880312156130c457600080fd5b8535945060208601356001600160401b03808211156130e257600080fd5b6130ee89838a01612a35565b9550604088013591508082111561310457600080fd5b61311089838a01612a35565b9450606088013591508082111561312657600080fd5b61313289838a01612a35565b9350608088013591508082111561314857600080fd5b5061302288828901612a35565b600080600080600060a0868803121561316d57600080fd5b8535613178816126e7565b94506020860135613188816126e7565b9350604086013592506060860135915060808601356001600160401b038111156131b157600080fd5b61302288828901612827565b6000806000604084860312156131d257600080fd5b8335925060208401356001600160401b03808211156131f057600080fd5b818601915086601f83011261320457600080fd5b81358181111561321357600080fd5b87602082850101111561322557600080fd5b6020830194508093505050509250925092565b6000806000806080858703121561324e57600080fd5b8435613259816126e7565b93506020850135613269816126e7565b92506040850135613279816126e7565b91506060850135613289816126e7565b939692955090935050565b600080604083850312156132a757600080fd5b8235915060208301356001600160401b038111156132c457600080fd5b6132d085828601612a35565b9150509250929050565b600181811c908216806132ee57607f821691505b60208210810361146257634e487b7160e01b600052602260045260246000fd5b6000602080838503121561332157600080fd5b82516001600160401b0381111561333757600080fd5b8301601f8101851361334857600080fd5b80516133566128468261287d565b81815260059190911b8201830190838101908783111561337557600080fd5b928401925b828410156133935783518252928401929084019061337a565b979650505050505050565b600081516133b0818560208601612562565b9290920192915050565b600080845481600182811c9150808316806133d657607f831692505b602080841082036133f557634e487b7160e01b86526022600452602486fd5b818015613409576001811461341a57613447565b60ff19861689528489019650613447565b60008b81526020902060005b8681101561343f5781548b820152908501908301613426565b505084890196505b505050505050613457818561339e565b95945050505050565b634e487b7160e01b600052601260045260246000fd5b634e487b7160e01b600052601160045260246000fd5b60008261349b5761349b613460565b500490565b6000602082840312156134b257600080fd5b5051919050565b634e487b7160e01b600052603260045260246000fd5b6000602082840312156134e157600080fd5b81516001600160401b038111156134f757600080fd5b8201601f8101841361350857600080fd5b805161351661284682612800565b81815285602083850101111561352b57600080fd5b613457826020830160208601612562565b60006001820161354e5761354e613476565b5060010190565b60a08152600061356860a0830188612686565b828103602084015261357a8188612686565b9050828103604084015261358e8187612686565b6001600160a01b0395861660608501529390941660809092019190915250949350505050565b6000602082840312156135c657600080fd5b8151610a1a816126e7565b60208082526024908201527f596f7520617265206e6f7420746865206f776e6572206f6620746869732063616040820152636e76617360e01b606082015260800190565b6001600160a01b0394851681529290931660208301526040820152606081019190915260a06080820181905260009082015260c00190565b60008060006060848603121561366257600080fd5b8351925060208401519150604084015190509250925092565b60008282101561368d5761368d613476565b500390565b6000826136a1576136a1613460565b500690565b600082198211156136b9576136b9613476565b500190565b6040815260006136d16040830185612729565b905060018060a01b03831660208301529392505050565b60c0815260006136fb60c0830189612686565b828103602084015261370d8189612686565b905082810360408401526137218188612686565b6001600160a01b0396871660608501529490951660808301525060a0015294935050505056fea2646970667358221220c9ff4f1111ec4d4daffcad42a91e693ab2a6e5dba3e01a21ba4c2d94bf61254764736f6c634300080d0033",
  "devdoc": {
    "kind": "dev",
    "methods": {
      "supportsInterface(bytes4)": {
        "details": "See {IERC165-supportsInterface}."
      }
    },
    "version": 1
  },
  "userdoc": {
    "kind": "user",
    "methods": {},
    "version": 1
  },
  "storageLayout": {
    "storage": [
      {
        "astId": 6,
        "contract": "contracts/Studio.sol:Studio",
        "label": "_initialized",
        "offset": 0,
        "slot": "0",
        "type": "t_bool"
      },
      {
        "astId": 9,
        "contract": "contracts/Studio.sol:Studio",
        "label": "_initializing",
        "offset": 1,
        "slot": "0",
        "type": "t_bool"
      },
      {
        "astId": 6315,
        "contract": "contracts/Studio.sol:Studio",
        "label": "canvas",
        "offset": 2,
        "slot": "0",
        "type": "t_contract(Canvas)5590"
      },
      {
        "astId": 6318,
        "contract": "contracts/Studio.sol:Studio",
        "label": "dutchAuction",
        "offset": 0,
        "slot": "1",
        "type": "t_contract(DutchAuction)5913"
      },
      {
        "astId": 6321,
        "contract": "contracts/Studio.sol:Studio",
        "label": "element",
        "offset": 0,
        "slot": "2",
        "type": "t_contract(Element)6137"
      },
      {
        "astId": 6324,
        "contract": "contracts/Studio.sol:Studio",
        "label": "amm",
        "offset": 0,
        "slot": "3",
        "type": "t_contract(AMM)5402"
      },
      {
        "astId": 6329,
        "contract": "contracts/Studio.sol:Studio",
        "label": "projects",
        "offset": 0,
        "slot": "4",
        "type": "t_mapping(t_uint256,t_struct(ProjectData)7886_storage)"
      },
      {
        "astId": 6334,
        "contract": "contracts/Studio.sol:Studio",
        "label": "canvases",
        "offset": 0,
        "slot": "5",
        "type": "t_mapping(t_uint256,t_struct(CanvasData)7923_storage)"
      },
      {
        "astId": 6338,
        "contract": "contracts/Studio.sol:Studio",
        "label": "userNonces",
        "offset": 0,
        "slot": "6",
        "type": "t_mapping(t_address,t_uint256)"
      }
    ],
    "types": {
      "t_address": {
        "encoding": "inplace",
        "label": "address",
        "numberOfBytes": "20"
      },
      "t_array(t_array(t_uint256)dyn_storage)dyn_storage": {
        "base": "t_array(t_uint256)dyn_storage",
        "encoding": "dynamic_array",
        "label": "uint256[][]",
        "numberOfBytes": "32"
      },
      "t_array(t_string_storage)dyn_storage": {
        "base": "t_string_storage",
        "encoding": "dynamic_array",
        "label": "string[]",
        "numberOfBytes": "32"
      },
      "t_array(t_uint256)dyn_storage": {
        "base": "t_uint256",
        "encoding": "dynamic_array",
        "label": "uint256[]",
        "numberOfBytes": "32"
      },
      "t_bool": {
        "encoding": "inplace",
        "label": "bool",
        "numberOfBytes": "1"
      },
      "t_bytes32": {
        "encoding": "inplace",
        "label": "bytes32",
        "numberOfBytes": "32"
      },
      "t_contract(AMM)5402": {
        "encoding": "inplace",
        "label": "contract AMM",
        "numberOfBytes": "20"
      },
      "t_contract(Canvas)5590": {
        "encoding": "inplace",
        "label": "contract Canvas",
        "numberOfBytes": "20"
      },
      "t_contract(DutchAuction)5913": {
        "encoding": "inplace",
        "label": "contract DutchAuction",
        "numberOfBytes": "20"
      },
      "t_contract(Element)6137": {
        "encoding": "inplace",
        "label": "contract Element",
        "numberOfBytes": "20"
      },
      "t_mapping(t_address,t_uint256)": {
        "encoding": "mapping",
        "key": "t_address",
        "label": "mapping(address => uint256)",
        "numberOfBytes": "32",
        "value": "t_uint256"
      },
      "t_mapping(t_uint256,t_struct(CanvasData)7923_storage)": {
        "encoding": "mapping",
        "key": "t_uint256",
        "label": "mapping(uint256 => struct IStudio.CanvasData)",
        "numberOfBytes": "32",
        "value": "t_struct(CanvasData)7923_storage"
      },
      "t_mapping(t_uint256,t_struct(ProjectData)7886_storage)": {
        "encoding": "mapping",
        "key": "t_uint256",
        "label": "mapping(uint256 => struct IStudio.ProjectData)",
        "numberOfBytes": "32",
        "value": "t_struct(ProjectData)7886_storage"
      },
      "t_string_storage": {
        "encoding": "bytes",
        "label": "string",
        "numberOfBytes": "32"
      },
      "t_struct(CanvasData)7923_storage": {
        "encoding": "inplace",
        "label": "struct IStudio.CanvasData",
        "members": [
          {
            "astId": 7917,
            "contract": "contracts/Studio.sol:Studio",
            "label": "wrapped",
            "offset": 0,
            "slot": "0",
            "type": "t_bool"
          },
          {
            "astId": 7920,
            "contract": "contracts/Studio.sol:Studio",
            "label": "wrappedFeatureTokenIds",
            "offset": 0,
            "slot": "1",
            "type": "t_array(t_uint256)dyn_storage"
          },
          {
            "astId": 7922,
            "contract": "contracts/Studio.sol:Studio",
            "label": "hash",
            "offset": 0,
            "slot": "2",
            "type": "t_bytes32"
          }
        ],
        "numberOfBytes": "96"
      },
      "t_struct(ProjectData)7886_storage": {
        "encoding": "inplace",
        "label": "struct IStudio.ProjectData",
        "members": [
          {
            "astId": 7861,
            "contract": "contracts/Studio.sol:Studio",
            "label": "name",
            "offset": 0,
            "slot": "0",
            "type": "t_string_storage"
          },
          {
            "astId": 7863,
            "contract": "contracts/Studio.sol:Studio",
            "label": "description",
            "offset": 0,
            "slot": "1",
            "type": "t_string_storage"
          },
          {
            "astId": 7865,
            "contract": "contracts/Studio.sol:Studio",
            "label": "artistAddress",
            "offset": 0,
            "slot": "2",
            "type": "t_address"
          },
          {
            "astId": 7867,
            "contract": "contracts/Studio.sol:Studio",
            "label": "artistName",
            "offset": 0,
            "slot": "3",
            "type": "t_string_storage"
          },
          {
            "astId": 7869,
            "contract": "contracts/Studio.sol:Studio",
            "label": "website",
            "offset": 0,
            "slot": "4",
            "type": "t_string_storage"
          },
          {
            "astId": 7871,
            "contract": "contracts/Studio.sol:Studio",
            "label": "license",
            "offset": 0,
            "slot": "5",
            "type": "t_string_storage"
          },
          {
            "astId": 7873,
            "contract": "contracts/Studio.sol:Studio",
            "label": "baseURI",
            "offset": 0,
            "slot": "6",
            "type": "t_string_storage"
          },
          {
            "astId": 7875,
            "contract": "contracts/Studio.sol:Studio",
            "label": "scriptJSON",
            "offset": 0,
            "slot": "7",
            "type": "t_string_storage"
          },
          {
            "astId": 7878,
            "contract": "contracts/Studio.sol:Studio",
            "label": "scripts",
            "offset": 0,
            "slot": "8",
            "type": "t_array(t_string_storage)dyn_storage"
          },
          {
            "astId": 7881,
            "contract": "contracts/Studio.sol:Studio",
            "label": "featureCategoryLabels",
            "offset": 0,
            "slot": "9",
            "type": "t_array(t_string_storage)dyn_storage"
          },
          {
            "astId": 7885,
            "contract": "contracts/Studio.sol:Studio",
            "label": "featureTokenIds",
            "offset": 0,
            "slot": "10",
            "type": "t_array(t_array(t_uint256)dyn_storage)dyn_storage"
          }
        ],
        "numberOfBytes": "352"
      },
      "t_uint256": {
        "encoding": "inplace",
        "label": "uint256",
        "numberOfBytes": "32"
      }
    }
  }
}