{
  "address": "0x9953288E679FDe3d8BEcb2B3972c39BA4909b783",
  "abi": [
    {
      "inputs": [
        {
          "internalType": "address",
          "name": "_owner",
          "type": "address"
        },
        {
          "internalType": "address",
          "name": "_canvas",
          "type": "address"
        },
        {
          "internalType": "address",
          "name": "_element",
          "type": "address"
        },
        {
          "internalType": "uint256",
          "name": "_auctionStartDelay",
          "type": "uint256"
        },
        {
          "internalType": "string",
          "name": "_baseURI",
          "type": "string"
        }
      ],
      "stateMutability": "nonpayable",
      "type": "constructor"
    },
    {
      "anonymous": false,
      "inputs": [
        {
          "indexed": true,
          "internalType": "address",
          "name": "artist",
          "type": "address"
        },
        {
          "indexed": true,
          "internalType": "address",
          "name": "token",
          "type": "address"
        },
        {
          "indexed": false,
          "internalType": "uint256",
          "name": "claimedRevenue",
          "type": "uint256"
        }
      ],
      "name": "ArtistRevenueClaimed",
      "type": "event"
    },
    {
      "anonymous": false,
      "inputs": [
        {
          "indexed": true,
          "internalType": "uint256",
          "name": "projectId",
          "type": "uint256"
        },
        {
          "indexed": false,
          "internalType": "address",
          "name": "auctionERC20",
          "type": "address"
        },
        {
          "indexed": false,
          "internalType": "uint256",
          "name": "auctionStartTime",
          "type": "uint256"
        },
        {
          "indexed": false,
          "internalType": "uint256",
          "name": "auctionEndTime",
          "type": "uint256"
        },
        {
          "indexed": false,
          "internalType": "uint256",
          "name": "auctionStartPrice",
          "type": "uint256"
        },
        {
          "indexed": false,
          "internalType": "uint256",
          "name": "auctionEndPrice",
          "type": "uint256"
        }
      ],
      "name": "AuctionScheduled",
      "type": "event"
    },
    {
      "anonymous": false,
      "inputs": [
        {
          "indexed": false,
          "internalType": "uint256",
          "name": "auctionStartDelay",
          "type": "uint256"
        }
      ],
      "name": "AuctionStartDelayUpdated",
      "type": "event"
    },
    {
      "anonymous": false,
      "inputs": [
        {
          "indexed": true,
          "internalType": "uint256",
          "name": "canvasId",
          "type": "uint256"
        },
        {
          "indexed": true,
          "internalType": "address",
          "name": "unwrapper",
          "type": "address"
        }
      ],
      "name": "CanvasUnwrapped",
      "type": "event"
    },
    {
      "anonymous": false,
      "inputs": [
        {
          "indexed": true,
          "internalType": "uint256",
          "name": "canvasTokenId",
          "type": "uint256"
        },
        {
          "indexed": true,
          "internalType": "address",
          "name": "wrapper",
          "type": "address"
        }
      ],
      "name": "CanvasWrapped",
      "type": "event"
    },
    {
      "anonymous": false,
      "inputs": [
        {
          "indexed": true,
          "internalType": "address",
          "name": "buyer",
          "type": "address"
        },
        {
          "indexed": false,
          "internalType": "uint256",
          "name": "_projectId",
          "type": "uint256"
        },
        {
          "indexed": false,
          "internalType": "uint256[]",
          "name": "elementCategoryIndexes",
          "type": "uint256[]"
        },
        {
          "indexed": false,
          "internalType": "uint256[]",
          "name": "elementIndexes",
          "type": "uint256[]"
        },
        {
          "indexed": false,
          "internalType": "uint256[]",
          "name": "elementQuantities",
          "type": "uint256[]"
        }
      ],
      "name": "ElementBought",
      "type": "event"
    },
    {
      "anonymous": false,
      "inputs": [
        {
          "indexed": true,
          "internalType": "address",
          "name": "previousOwner",
          "type": "address"
        },
        {
          "indexed": true,
          "internalType": "address",
          "name": "newOwner",
          "type": "address"
        }
      ],
      "name": "OwnershipTransferred",
      "type": "event"
    },
    {
      "anonymous": false,
      "inputs": [
        {
          "indexed": true,
          "internalType": "address",
          "name": "claimer",
          "type": "address"
        },
        {
          "indexed": true,
          "internalType": "address",
          "name": "token",
          "type": "address"
        },
        {
          "indexed": false,
          "internalType": "uint256",
          "name": "claimedRevenue",
          "type": "uint256"
        }
      ],
      "name": "PlatformRevenueClaimed",
      "type": "event"
    },
    {
      "anonymous": false,
      "inputs": [
        {
          "indexed": false,
          "internalType": "uint256",
          "name": "projectId",
          "type": "uint256"
        }
      ],
      "name": "ProjectCreated",
      "type": "event"
    },
    {
      "inputs": [],
      "name": "FEE_DENOMINATOR",
      "outputs": [
        {
          "internalType": "uint256",
          "name": "",
          "type": "uint256"
        }
      ],
      "stateMutability": "view",
      "type": "function"
    },
    {
      "inputs": [
        {
          "internalType": "address[]",
          "name": "_admins",
          "type": "address[]"
        }
      ],
      "name": "addAdmins",
      "outputs": [],
      "stateMutability": "nonpayable",
      "type": "function"
    },
    {
      "inputs": [
        {
          "internalType": "address",
          "name": "",
          "type": "address"
        },
        {
          "internalType": "address",
          "name": "",
          "type": "address"
        }
      ],
      "name": "artistClaimableRevenues",
      "outputs": [
        {
          "internalType": "uint256",
          "name": "",
          "type": "uint256"
        }
      ],
      "stateMutability": "view",
      "type": "function"
    },
    {
      "inputs": [],
      "name": "auctionPlatformFeeNumerator",
      "outputs": [
        {
          "internalType": "uint256",
          "name": "",
          "type": "uint256"
        }
      ],
      "stateMutability": "view",
      "type": "function"
    },
    {
      "inputs": [],
      "name": "auctionStartDelay",
      "outputs": [
        {
          "internalType": "uint256",
          "name": "",
          "type": "uint256"
        }
      ],
      "stateMutability": "view",
      "type": "function"
    },
    {
      "inputs": [],
      "name": "baseURI",
      "outputs": [
        {
          "internalType": "string",
          "name": "",
          "type": "string"
        }
      ],
      "stateMutability": "view",
      "type": "function"
    },
    {
      "inputs": [
        {
          "internalType": "uint256",
          "name": "_projectId",
          "type": "uint256"
        },
        {
          "internalType": "uint256[]",
          "name": "_elementCategoryIndexes",
          "type": "uint256[]"
        },
        {
          "internalType": "uint256[]",
          "name": "_elementIndexes",
          "type": "uint256[]"
        },
        {
          "internalType": "uint256[]",
          "name": "_elementQuantities",
          "type": "uint256[]"
        }
      ],
      "name": "buyElements",
      "outputs": [],
      "stateMutability": "nonpayable",
      "type": "function"
    },
    {
      "inputs": [
        {
          "internalType": "uint256",
          "name": "_projectId",
          "type": "uint256"
        },
        {
          "internalType": "uint256[]",
          "name": "_elementCategoryIndexesToBuy",
          "type": "uint256[]"
        },
        {
          "internalType": "uint256[]",
          "name": "_elementIndexesToBuy",
          "type": "uint256[]"
        },
        {
          "internalType": "uint256[]",
          "name": "_elementQuantitiesToBuy",
          "type": "uint256[]"
        },
        {
          "internalType": "uint256[]",
          "name": "_elementIndexesToWrap",
          "type": "uint256[]"
        }
      ],
      "name": "buyElementsAndWrap",
      "outputs": [],
      "stateMutability": "nonpayable",
      "type": "function"
    },
    {
      "inputs": [],
      "name": "canvas",
      "outputs": [
        {
          "internalType": "contract ICanvas",
          "name": "",
          "type": "address"
        }
      ],
      "stateMutability": "view",
      "type": "function"
    },
    {
      "inputs": [
        {
          "internalType": "uint256",
          "name": "",
          "type": "uint256"
        }
      ],
      "name": "canvases",
      "outputs": [
        {
          "internalType": "bool",
          "name": "wrapped",
          "type": "bool"
        },
        {
          "internalType": "bytes32",
          "name": "hash",
          "type": "bytes32"
        }
      ],
      "stateMutability": "view",
      "type": "function"
    },
    {
      "inputs": [
        {
          "internalType": "address",
          "name": "_token",
          "type": "address"
        }
      ],
      "name": "claimArtistRevenue",
      "outputs": [],
      "stateMutability": "nonpayable",
      "type": "function"
    },
    {
      "inputs": [
        {
          "internalType": "address",
          "name": "_token",
          "type": "address"
        }
      ],
      "name": "claimPlatformRevenue",
      "outputs": [],
      "stateMutability": "nonpayable",
      "type": "function"
    },
    {
      "inputs": [
        {
          "internalType": "uint256",
          "name": "_projectId",
          "type": "uint256"
        },
        {
          "internalType": "uint256[]",
          "name": "_elementCategoryIndexes",
          "type": "uint256[]"
        },
        {
          "internalType": "uint256[]",
          "name": "_elementIndexes",
          "type": "uint256[]"
        },
        {
          "internalType": "string[]",
          "name": "_elementLabels",
          "type": "string[]"
        },
        {
          "internalType": "string[]",
          "name": "_elementValues",
          "type": "string[]"
        },
        {
          "internalType": "uint256[][]",
          "name": "_elementAmounts",
          "type": "uint256[][]"
        },
        {
          "internalType": "address[]",
          "name": "_elementRecipients",
          "type": "address[]"
        }
      ],
      "name": "createAndUpdateElements",
      "outputs": [],
      "stateMutability": "nonpayable",
      "type": "function"
    },
    {
      "inputs": [
        {
          "internalType": "address",
          "name": "_artistAddress",
          "type": "address"
        },
        {
          "internalType": "uint256",
          "name": "_maxSupply",
          "type": "uint256"
        },
        {
          "internalType": "string",
          "name": "_metadata",
          "type": "string"
        },
        {
          "internalType": "string[]",
          "name": "_elementCategoryLabels",
          "type": "string[]"
        },
        {
          "internalType": "string[]",
          "name": "_elementCategoryValues",
          "type": "string[]"
        },
        {
          "internalType": "string[][]",
          "name": "_elementLabels",
          "type": "string[][]"
        },
        {
          "internalType": "string[][]",
          "name": "_elementValues",
          "type": "string[][]"
        },
        {
          "internalType": "uint256[][][]",
          "name": "_elementAmounts",
          "type": "uint256[][][]"
        },
        {
          "internalType": "address[]",
          "name": "_recipients",
          "type": "address[]"
        }
      ],
      "name": "createProject",
      "outputs": [],
      "stateMutability": "nonpayable",
      "type": "function"
    },
    {
      "inputs": [],
      "name": "element",
      "outputs": [
        {
          "internalType": "contract IElement",
          "name": "",
          "type": "address"
        }
      ],
      "stateMutability": "view",
      "type": "function"
    },
    {
      "inputs": [
        {
          "internalType": "uint256",
          "name": "_canvasId",
          "type": "uint256"
        }
      ],
      "name": "getCanvasElementLabels",
      "outputs": [
        {
          "internalType": "string[]",
          "name": "elementLabels",
          "type": "string[]"
        }
      ],
      "stateMutability": "view",
      "type": "function"
    },
    {
      "inputs": [
        {
          "internalType": "uint256",
          "name": "_canvasId",
          "type": "uint256"
        }
      ],
      "name": "getCanvasElementValues",
      "outputs": [
        {
          "internalType": "string[]",
          "name": "elementValues",
          "type": "string[]"
        }
      ],
      "stateMutability": "view",
      "type": "function"
    },
    {
      "inputs": [
        {
          "internalType": "uint256",
          "name": "_canvasId",
          "type": "uint256"
        }
      ],
      "name": "getCanvasHash",
      "outputs": [
        {
          "internalType": "bytes32",
          "name": "",
          "type": "bytes32"
        }
      ],
      "stateMutability": "view",
      "type": "function"
    },
    {
      "inputs": [
        {
          "internalType": "uint256",
          "name": "_canvasTokenId",
          "type": "uint256"
        }
      ],
      "name": "getCanvasURI",
      "outputs": [
        {
          "internalType": "string",
          "name": "",
          "type": "string"
        }
      ],
      "stateMutability": "view",
      "type": "function"
    },
    {
      "inputs": [
        {
          "internalType": "address",
          "name": "_admin",
          "type": "address"
        }
      ],
      "name": "getIsAdmins",
      "outputs": [
        {
          "internalType": "bool",
          "name": "",
          "type": "bool"
        }
      ],
      "stateMutability": "view",
      "type": "function"
    },
    {
      "inputs": [
        {
          "internalType": "uint256",
          "name": "_canvasId",
          "type": "uint256"
        }
      ],
      "name": "getIsCanvasWrapped",
      "outputs": [
        {
          "internalType": "bool",
          "name": "",
          "type": "bool"
        }
      ],
      "stateMutability": "view",
      "type": "function"
    },
    {
      "inputs": [
        {
          "internalType": "uint256",
          "name": "_projectId",
          "type": "uint256"
        }
      ],
      "name": "getProjectArtist",
      "outputs": [
        {
          "internalType": "address",
          "name": "",
          "type": "address"
        }
      ],
      "stateMutability": "view",
      "type": "function"
    },
    {
      "inputs": [
        {
          "internalType": "uint256",
          "name": "_projectId",
          "type": "uint256"
        }
      ],
      "name": "getProjectElementAuctionPrice",
      "outputs": [
        {
          "internalType": "uint256",
          "name": "_price",
          "type": "uint256"
        }
      ],
      "stateMutability": "view",
      "type": "function"
    },
    {
      "inputs": [
        {
          "internalType": "uint256",
          "name": "_projectId",
          "type": "uint256"
        }
      ],
      "name": "getProjectElementCategoryLabels",
      "outputs": [
        {
          "internalType": "string[]",
          "name": "",
          "type": "string[]"
        }
      ],
      "stateMutability": "view",
      "type": "function"
    },
    {
      "inputs": [
        {
          "internalType": "uint256",
          "name": "_projectId",
          "type": "uint256"
        }
      ],
      "name": "getProjectElementCategoryValues",
      "outputs": [
        {
          "internalType": "string[]",
          "name": "",
          "type": "string[]"
        }
      ],
      "stateMutability": "view",
      "type": "function"
    },
    {
      "inputs": [
        {
          "internalType": "uint256",
          "name": "_projectId",
          "type": "uint256"
        }
      ],
      "name": "getProjectElementLabels",
      "outputs": [
        {
          "internalType": "string[][]",
          "name": "elementLabels",
          "type": "string[][]"
        }
      ],
      "stateMutability": "view",
      "type": "function"
    },
    {
      "inputs": [
        {
          "internalType": "uint256",
          "name": "_projectId",
          "type": "uint256"
        }
      ],
      "name": "getProjectElementTokenIds",
      "outputs": [
        {
          "internalType": "uint256[][]",
          "name": "",
          "type": "uint256[][]"
        }
      ],
      "stateMutability": "view",
      "type": "function"
    },
    {
      "inputs": [
        {
          "internalType": "uint256",
          "name": "_projectId",
          "type": "uint256"
        }
      ],
      "name": "getProjectElementValues",
      "outputs": [
        {
          "internalType": "string[][]",
          "name": "elementValues",
          "type": "string[][]"
        }
      ],
      "stateMutability": "view",
      "type": "function"
    },
    {
      "inputs": [
        {
          "internalType": "uint256",
          "name": "canvasId",
          "type": "uint256"
        }
      ],
      "name": "getProjectIdFromCanvasId",
      "outputs": [
        {
          "internalType": "uint256",
          "name": "projectId",
          "type": "uint256"
        }
      ],
      "stateMutability": "pure",
      "type": "function"
    },
    {
      "inputs": [
        {
          "internalType": "uint256",
          "name": "_projectId",
          "type": "uint256"
        }
      ],
      "name": "getProjectIsLocked",
      "outputs": [
        {
          "internalType": "bool",
          "name": "",
          "type": "bool"
        }
      ],
      "stateMutability": "view",
      "type": "function"
    },
    {
      "inputs": [
        {
          "internalType": "uint256",
          "name": "_projectId",
          "type": "uint256"
        }
      ],
      "name": "getProjectMetadata",
      "outputs": [
        {
          "internalType": "string",
          "name": "",
          "type": "string"
        }
      ],
      "stateMutability": "view",
      "type": "function"
    },
    {
      "inputs": [
        {
          "internalType": "uint256",
          "name": "_projectId",
          "type": "uint256"
        }
      ],
      "name": "getProjectScriptCount",
      "outputs": [
        {
          "internalType": "uint256",
          "name": "",
          "type": "uint256"
        }
      ],
      "stateMutability": "view",
      "type": "function"
    },
    {
      "inputs": [
        {
          "internalType": "uint256",
          "name": "_projectId",
          "type": "uint256"
        }
      ],
      "name": "getProjectScripts",
      "outputs": [
        {
          "internalType": "string[]",
          "name": "_scripts",
          "type": "string[]"
        }
      ],
      "stateMutability": "view",
      "type": "function"
    },
    {
      "inputs": [
        {
          "internalType": "uint256",
          "name": "_projectId",
          "type": "uint256"
        }
      ],
      "name": "lockProject",
      "outputs": [],
      "stateMutability": "nonpayable",
      "type": "function"
    },
    {
      "inputs": [
        {
          "internalType": "address",
          "name": "",
          "type": "address"
        },
        {
          "internalType": "address",
          "name": "",
          "type": "address"
        },
        {
          "internalType": "uint256[]",
          "name": "",
          "type": "uint256[]"
        },
        {
          "internalType": "uint256[]",
          "name": "",
          "type": "uint256[]"
        },
        {
          "internalType": "bytes",
          "name": "",
          "type": "bytes"
        }
      ],
      "name": "onERC1155BatchReceived",
      "outputs": [
        {
          "internalType": "bytes4",
          "name": "",
          "type": "bytes4"
        }
      ],
      "stateMutability": "nonpayable",
      "type": "function"
    },
    {
      "inputs": [
        {
          "internalType": "address",
          "name": "",
          "type": "address"
        },
        {
          "internalType": "address",
          "name": "",
          "type": "address"
        },
        {
          "internalType": "uint256",
          "name": "",
          "type": "uint256"
        },
        {
          "internalType": "uint256",
          "name": "",
          "type": "uint256"
        },
        {
          "internalType": "bytes",
          "name": "",
          "type": "bytes"
        }
      ],
      "name": "onERC1155Received",
      "outputs": [
        {
          "internalType": "bytes4",
          "name": "",
          "type": "bytes4"
        }
      ],
      "stateMutability": "nonpayable",
      "type": "function"
    },
    {
      "inputs": [
        {
          "internalType": "address",
          "name": "",
          "type": "address"
        },
        {
          "internalType": "address",
          "name": "",
          "type": "address"
        },
        {
          "internalType": "uint256",
          "name": "",
          "type": "uint256"
        },
        {
          "internalType": "bytes",
          "name": "",
          "type": "bytes"
        }
      ],
      "name": "onERC721Received",
      "outputs": [
        {
          "internalType": "bytes4",
          "name": "",
          "type": "bytes4"
        }
      ],
      "stateMutability": "nonpayable",
      "type": "function"
    },
    {
      "inputs": [],
      "name": "owner",
      "outputs": [
        {
          "internalType": "address",
          "name": "",
          "type": "address"
        }
      ],
      "stateMutability": "view",
      "type": "function"
    },
    {
      "inputs": [
        {
          "internalType": "address",
          "name": "",
          "type": "address"
        }
      ],
      "name": "platformClaimableRevenues",
      "outputs": [
        {
          "internalType": "uint256",
          "name": "",
          "type": "uint256"
        }
      ],
      "stateMutability": "view",
      "type": "function"
    },
    {
      "inputs": [
        {
          "internalType": "address[]",
          "name": "_admins",
          "type": "address[]"
        }
      ],
      "name": "removeAdmins",
      "outputs": [],
      "stateMutability": "nonpayable",
      "type": "function"
    },
    {
      "inputs": [],
      "name": "renounceOwnership",
      "outputs": [],
      "stateMutability": "nonpayable",
      "type": "function"
    },
    {
      "inputs": [
        {
          "internalType": "uint256",
          "name": "_projectId",
          "type": "uint256"
        },
        {
          "internalType": "address",
          "name": "_auctionERC20",
          "type": "address"
        },
        {
          "internalType": "uint256",
          "name": "_auctionStartTime",
          "type": "uint256"
        },
        {
          "internalType": "uint256",
          "name": "_auctionEndTime",
          "type": "uint256"
        },
        {
          "internalType": "uint256",
          "name": "_auctionStartPrice",
          "type": "uint256"
        },
        {
          "internalType": "uint256",
          "name": "_auctionEndPrice",
          "type": "uint256"
        }
      ],
      "name": "scheduleAuction",
      "outputs": [],
      "stateMutability": "nonpayable",
      "type": "function"
    },
    {
      "inputs": [
        {
          "internalType": "bytes4",
          "name": "interfaceId",
          "type": "bytes4"
        }
      ],
      "name": "supportsInterface",
      "outputs": [
        {
          "internalType": "bool",
          "name": "",
          "type": "bool"
        }
      ],
      "stateMutability": "view",
      "type": "function"
    },
    {
      "inputs": [
        {
          "internalType": "address",
          "name": "newOwner",
          "type": "address"
        }
      ],
      "name": "transferOwnership",
      "outputs": [],
      "stateMutability": "nonpayable",
      "type": "function"
    },
    {
      "inputs": [
        {
          "internalType": "uint256",
          "name": "_canvasId",
          "type": "uint256"
        }
      ],
      "name": "unwrap",
      "outputs": [],
      "stateMutability": "nonpayable",
      "type": "function"
    },
    {
      "inputs": [
        {
          "internalType": "uint256",
          "name": "_auctionStartDelay",
          "type": "uint256"
        }
      ],
      "name": "updateAuctionStartDelay",
      "outputs": [],
      "stateMutability": "nonpayable",
      "type": "function"
    },
    {
      "inputs": [
        {
          "internalType": "string",
          "name": "_baseURI",
          "type": "string"
        }
      ],
      "name": "updateBaseURI",
      "outputs": [],
      "stateMutability": "nonpayable",
      "type": "function"
    },
    {
      "inputs": [
        {
          "internalType": "uint256",
          "name": "_projectId",
          "type": "uint256"
        },
        {
          "internalType": "string[]",
          "name": "_elementCategoryLabels",
          "type": "string[]"
        },
        {
          "internalType": "string[]",
          "name": "_elementCategoryValues",
          "type": "string[]"
        }
      ],
      "name": "updateElementCategories",
      "outputs": [],
      "stateMutability": "nonpayable",
      "type": "function"
    },
    {
      "inputs": [
        {
          "internalType": "uint256",
          "name": "_projectId",
          "type": "uint256"
        },
        {
          "internalType": "uint256[]",
          "name": "_elementCategoryIndexes",
          "type": "uint256[]"
        },
        {
          "internalType": "uint256[]",
          "name": "_elementIndexes",
          "type": "uint256[]"
        },
        {
          "internalType": "uint256[]",
          "name": "_elementTokenIds",
          "type": "uint256[]"
        }
      ],
      "name": "updateElements",
      "outputs": [],
      "stateMutability": "nonpayable",
      "type": "function"
    },
    {
      "inputs": [
        {
          "internalType": "uint256",
          "name": "_projectId",
          "type": "uint256"
        },
        {
          "internalType": "string",
          "name": "_metadata",
          "type": "string"
        }
      ],
      "name": "updateMetadata",
      "outputs": [],
      "stateMutability": "nonpayable",
      "type": "function"
    },
    {
      "inputs": [
        {
          "internalType": "uint256",
          "name": "_projectId",
          "type": "uint256"
        },
        {
          "internalType": "uint256",
          "name": "_scriptIndex",
          "type": "uint256"
        },
        {
          "internalType": "string",
          "name": "_script",
          "type": "string"
        }
      ],
      "name": "updateScript",
      "outputs": [],
      "stateMutability": "nonpayable",
      "type": "function"
    },
    {
      "inputs": [
        {
          "internalType": "address",
          "name": "",
          "type": "address"
        }
      ],
      "name": "userNonces",
      "outputs": [
        {
          "internalType": "uint256",
          "name": "",
          "type": "uint256"
        }
      ],
      "stateMutability": "view",
      "type": "function"
    },
    {
      "inputs": [
        {
          "internalType": "uint256",
          "name": "_projectId",
          "type": "uint256"
        },
        {
          "internalType": "uint256[]",
          "name": "_elementIndexes",
          "type": "uint256[]"
        }
      ],
      "name": "wrap",
      "outputs": [
        {
          "internalType": "uint256",
          "name": "_canvasTokenId",
          "type": "uint256"
        }
      ],
      "stateMutability": "nonpayable",
      "type": "function"
    }
  ],
  "transactionHash": "0xc711bc0c5ca7980c7ad28ba10125663bd7752eea28b5e6211fb64720392daa91",
  "args": [
    "0x7930DdA80157Fcc47ba9c3836398c82d89C16416",
    "0x316A18ac6646fD2F2a948e086a90b34c85CF87ad",
    "0x96583db2E25901961bE31024f68f265b70B68D17",
    1,
    "https://intrinsic.art"
  ],
  "numDeployments": 1,
  "solcInputHash": "fa6c632f939ac6fe0062ba684873f84d",
  "bytecode": "0x60806040523480156200001157600080fd5b506040516200506f3803806200506f83398101604081905262000034916200011c565b6200003f3362000099565b6200004a8562000099565b600180546001600160a01b038087166001600160a01b0319928316179092556002805492861692909116919091179055600682905560036200008d8282620002c2565b5050505050506200038e565b600080546001600160a01b038381166001600160a01b0319831681178455604051919092169283917f8be0079c531659141344cd1fd0a4f28419497f9722a3daafe3b4186f6b6457e09190a35050565b80516001600160a01b03811681146200010157600080fd5b919050565b634e487b7160e01b600052604160045260246000fd5b600080600080600060a086880312156200013557600080fd5b6200014086620000e9565b9450602062000151818801620000e9565b94506200016160408801620000e9565b6060880151608089015191955093506001600160401b03808211156200018657600080fd5b818901915089601f8301126200019b57600080fd5b815181811115620001b057620001b062000106565b604051601f8201601f19908116603f01168101908382118183101715620001db57620001db62000106565b816040528281528c86848701011115620001f457600080fd5b600093505b82841015620002185784840186015181850187015292850192620001f9565b60008684830101528096505050505050509295509295909350565b600181811c908216806200024857607f821691505b6020821081036200026957634e487b7160e01b600052602260045260246000fd5b50919050565b601f821115620002bd57600081815260208120601f850160051c81016020861015620002985750805b601f850160051c820191505b81811015620002b957828155600101620002a4565b5050505b505050565b81516001600160401b03811115620002de57620002de62000106565b620002f681620002ef845462000233565b846200026f565b602080601f8311600181146200032e5760008415620003155750858301515b600019600386901b1c1916600185901b178555620002b9565b600085815260208120601f198616915b828110156200035f578886015182559484019460019091019084016200033e565b50858210156200037e5787850151600019600388901b60f8161c191681555b5050505050600190811b01905550565b614cd1806200039e6000396000f3fe608060405234801561001057600080fd5b50600436106103275760003560e01c8063804f6929116101b8578063cfd0ebb311610104578063ef750ab3116100a2578063f2fde38b1161007c578063f2fde38b146107f8578063f3c8591a1461080b578063fbace7a514610837578063fc78fa851461084a57600080fd5b8063ef750ab3146107b3578063f0325e18146107c6578063f23a6e61146107d957600080fd5b8063ddedf581116100de578063ddedf5811461073c578063ddfb64be1461074f578063de0e9a3e1461077d578063e4d035f01461079057600080fd5b8063cfd0ebb3146106da578063d73792a9146106ed578063d9d197a6146106f857600080fd5b80639323e6f711610171578063bc197c811161014b578063bc197c8114610682578063c2e81f16146106a1578063c3d6701e146106b4578063cc9e9656146106c757600080fd5b80639323e6f71461063c5780639b8e9b5e1461065c5780639c54df641461066f57600080fd5b8063804f6929146105c45780638343ada9146105e757806385e4ad89146105fa5780638705e6a41461060d5780638da5cb5b14610618578063931688cb1461062957600080fd5b80633803ac4c1161027757806353c8388e116102305780636c0360eb1161020a5780636c0360eb146105815780636d92b6be14610589578063715018a61461059c5780637c3a038a146105a457600080fd5b806353c8388e146105485780635a723d1f1461055b5780636811a3f71461056e57600080fd5b80633803ac4c146104b15780633862d5f7146104d157806340c2846b146104e4578063416731da146104f75780634ced96d41461050a5780634f26cc4d1461051d57600080fd5b80631026b8c3116102e45780632884fd00116102be5780632884fd00146104405780632c0e2baf1461046b5780632f7801f41461047e578063377e11e01461049e57600080fd5b80631026b8c3146103e3578063150b7a02146103f657806323037e0c1461042d57600080fd5b806301ffc9a71461032c57806304b7f329146103545780630b0c2e6e1461036b5780630b9e01b11461038b5780630ba70e1e146103a05780630effcffd146103c0575b600080fd5b61033f61033a366004613588565b61085d565b60405190151581526020015b60405180910390f35b61035d60065481565b60405190815260200161034b565b61037e6103793660046135b2565b610894565b60405161034b91906136b6565b61039e610399366004613711565b610ab8565b005b6103b36103ae3660046135b2565b610b50565b60405161034b9190613763565b61033f6103ce3660046135b2565b60009081526009602052604090205460ff1690565b61037e6103f13660046135b2565b610b84565b610414610404366004613859565b630a85bd0160e11b949350505050565b6040516001600160e01b0319909116815260200161034b565b61039e61043b3660046138c4565b610da1565b600254610453906001600160a01b031681565b6040516001600160a01b03909116815260200161034b565b61039e6104793660046138e1565b610e80565b61035d61048c3660046138c4565b600a6020526000908152604090205481565b61039e6104ac366004613975565b611046565b6104c46104bf3660046135b2565b6110e7565b60405161034b9190613a0b565b61035d6104df3660046135b2565b611224565b61035d6104f23660046135b2565b61134b565b6104c46105053660046135b2565b61135a565b61039e610518366004613a1e565b61149f565b61035d61052b366004613ac1565b600760209081526000928352604080842090915290825290205481565b61039e610556366004613afa565b6118a8565b61039e610569366004613bf2565b61192b565b6104c461057c3660046135b2565b611a72565b6103b3611b61565b61039e610597366004613d11565b611bef565b61039e611cd1565b6105b76105b23660046135b2565b611d07565b60405161034b9190613df9565b61035d6105d23660046135b2565b60009081526009602052604090206002015490565b6104c46105f53660046135b2565b611dab565b61039e610608366004613fd8565b611e8f565b61035d6305f5e10081565b6000546001600160a01b0316610453565b61039e610637366004614117565b6120a6565b61035d61064a3660046138c4565b60086020526000908152604090205481565b600154610453906001600160a01b031681565b61039e61067d366004613975565b6120dd565b61041461069036600461414c565b63bc197c8160e01b95945050505050565b61035d6106af3660046135b2565b612179565b61039e6106c23660046138c4565b6121e2565b6104c46106d53660046135b2565b6122a7565b61039e6106e83660046141f9565b6123ec565b61035d633b9aca0081565b6107256107063660046135b2565b6009602052600090815260409020805460029091015460ff9091169082565b60408051921515835260208301919091520161034b565b61039e61074a366004614294565b61250b565b61045361075d3660046135b2565b60009081526005602052604090205461010090046001600160a01b031690565b61039e61078b3660046135b2565b612531565b61033f61079e3660046135b2565b60009081526005602052604090205460ff1690565b6103b36107c13660046135b2565b612809565b61039e6107d43660046135b2565b6128ae565b6104146107e7366004614363565b63f23a6e6160e01b95945050505050565b61039e6108063660046138c4565b612913565b61033f6108193660046138c4565b6001600160a01b031660009081526004602052604090205460ff1690565b61039e6108453660046135b2565b6129ae565b61035d6108583660046143cb565b612a60565b60006001600160e01b03198216630271189760e51b148061088e57506301ffc9a760e01b6001600160e01b03198316145b92915050565b600081815260056020526040902060020154606090806001600160401b038111156108c1576108c1613796565b6040519080825280602002602001820160405280156108f457816020015b60608152602001906001900390816108df5790505b50915060005b81811015610ab157600084815260056020526040812060040180548390811061092557610925614409565b60009182526020822001549150816001600160401b0381111561094a5761094a613796565b60405190808252806020026020018201604052801561097d57816020015b60608152602001906001900390816109685790505b50905060005b82811015610a7d57600254600088815260056020526040902060040180546001600160a01b039092169163dccd6a3e9190879081106109c4576109c4614409565b9060005260206000200183815481106109df576109df614409565b90600052602060002001546040518263ffffffff1660e01b8152600401610a0891815260200190565b600060405180830381865afa158015610a25573d6000803e3d6000fd5b505050506040513d6000823e601f3d908101601f19168201604052610a4d919081019061441f565b828281518110610a5f57610a5f614409565b60200260200101819052508080610a75906144ab565b915050610983565b5080858481518110610a9157610a91614409565b602002602001018190525050508080610aa9906144ab565b9150506108fa565b5050919050565b3360009081526004602052604090205460ff16610af05760405162461bcd60e51b8152600401610ae7906144c4565b60405180910390fd5b600084815260056020526040902054849060ff1615610b215760405162461bcd60e51b8152600401610ae7906144e1565b60008581526005602090815260408083208784526001019091529020610b4883858361457e565b505050505050565b60606003610b5d83612f8a565b604051602001610b6e9291906146b0565b6040516020818303038152906040529050919050565b600081815260056020526040902060020154606090806001600160401b03811115610bb157610bb1613796565b604051908082528060200260200182016040528015610be457816020015b6060815260200190600190039081610bcf5790505b50915060005b81811015610ab1576000848152600560205260408120600401805483908110610c1557610c15614409565b60009182526020822001549150816001600160401b03811115610c3a57610c3a613796565b604051908082528060200260200182016040528015610c6d57816020015b6060815260200190600190039081610c585790505b50905060005b82811015610d6d57600254600088815260056020526040902060040180546001600160a01b03909216916355a1dde7919087908110610cb457610cb4614409565b906000526020600020018381548110610ccf57610ccf614409565b90600052602060002001546040518263ffffffff1660e01b8152600401610cf891815260200190565b600060405180830381865afa158015610d15573d6000803e3d6000fd5b505050506040513d6000823e601f3d908101601f19168201604052610d3d919081019061441f565b828281518110610d4f57610d4f614409565b60200260200101819052508080610d65906144ab565b915050610c73565b5080858481518110610d8157610d81614409565b602002602001018190525050508080610d99906144ab565b915050610bea565b6000546001600160a01b03163314610dcb5760405162461bcd60e51b8152600401610ae7906146d5565b6001600160a01b03811660009081526008602052604090205480610e175760405162461bcd60e51b81526020600482015260036024820152624d303760e81b6044820152606401610ae7565b6001600160a01b038216600081815260086020526040812055610e3b90338361301c565b6040518181526001600160a01b0383169033907f2f48e090d0e0f4a9b71b6daf952883ac941749f52ee4f6adb8d18d25d6410921906020015b60405180910390a35050565b3360009081526004602052604090205460ff16610eaf5760405162461bcd60e51b8152600401610ae7906144c4565b60008681526005602052604090205460ff16610ef35760405162461bcd60e51b81526020600482015260036024820152624d303360e81b6044820152606401610ae7565b600654610f00904261470a565b841015610f355760405162461bcd60e51b8152602060048201526003602482015262134c0d60ea1b6044820152606401610ae7565b83831015610f6b5760405162461bcd60e51b81526020600482015260036024820152624d303560e81b6044820152606401610ae7565b81811115610fa15760405162461bcd60e51b815260206004820152600360248201526226981b60e91b6044820152606401610ae7565b6000868152600560209081526040918290206007810180546001600160a01b0319166001600160a01b038a169081179091556008820188905560098201879055600a8201869055600b9091018490558251908152908101869052908101849052606081018390526080810182905286907f4e311f9848c202a70e3deaa2e30dc331bb0a0c7c4cf9463f7dfab3ae993213529060a00160405180910390a2505050505050565b6000546001600160a01b031633146110705760405162461bcd60e51b8152600401610ae7906146d5565b60005b818110156110e25760006004600085858581811061109357611093614409565b90506020020160208101906110a891906138c4565b6001600160a01b031681526020810191909152604001600020805460ff1916911515919091179055806110da816144ab565b915050611073565b505050565b606060006110f483612179565b9050806001600160401b0381111561110e5761110e613796565b60405190808252806020026020018201604052801561114157816020015b606081526020019060019003908161112c5790505b50915060005b81811015610ab157600084815260056020908152604080832084845260010190915290208054611176906144fe565b80601f01602080910402602001604051908101604052809291908181526020018280546111a2906144fe565b80156111ef5780601f106111c4576101008083540402835291602001916111ef565b820191906000526020600020905b8154815290600101906020018083116111d257829003601f168201915b505050505083828151811061120657611206614409565b6020026020010181905250808061121c906144ab565b915050611147565b6000818152600560205260408120600801544210156112855760405162461bcd60e51b815260206004820152601a60248201527f41756374696f6e206861736e27742073746172746564207965740000000000006044820152606401610ae7565b6000828152600560205260409020600901544211156112b457506000908152600560205260409020600b015490565b600082815260056020526040902060088101546009909101546112d7919061471d565b6000838152600560205260409020600b810154600a909101546112fa919061471d565b600084815260056020526040902060080154611316904261471d565b6113209190614730565b61132a9190614747565b6000838152600560205260409020600a015461088e919061471d565b919050565b600061088e620f424083614747565b600081815260096020526040902060010154606090806001600160401b0381111561138757611387613796565b6040519080825280602002602001820160405280156113ba57816020015b60608152602001906001900390816113a55790505b50915060005b81811015610ab157600254600085815260096020526040902060010180546001600160a01b039092169163dccd6a3e91908490811061140157611401614409565b90600052602060002001546040518263ffffffff1660e01b815260040161142a91815260200190565b600060405180830381865afa158015611447573d6000803e3d6000fd5b505050506040513d6000823e601f3d908101601f1916820160405261146f919081019061441f565b83828151811061148157611481614409565b60200260200101819052508080611497906144ab565b9150506113c0565b8483146114d45760405162461bcd60e51b81526020600482015260036024820152624d303160e81b6044820152606401610ae7565b8481146115095760405162461bcd60e51b81526020600482015260036024820152624d303160e81b6044820152606401610ae7565b6000805b8681101561170a57600089815260056020526040812060040189898481811061153857611538614409565b905060200201358154811061154f5761154f614409565b9060005260206000200187878481811061156b5761156b614409565b905060200201358154811061158257611582614409565b906000526020600020015490508484838181106115a1576115a1614409565b600254604051627eeac760e11b8152306004820152602481018690526020929092029390930135926001600160a01b0316915062fdd58e90604401602060405180830381865afa1580156115f9573d6000803e3d6000fd5b505050506040513d601f19601f8201168201806040525081019061161d9190614769565b10156116515760405162461bcd60e51b815260206004820152600360248201526226981960e91b6044820152606401610ae7565b84848381811061166357611663614409565b9050602002013583611675919061470a565b6002549093506001600160a01b031663f242432a30338489898881811061169e5761169e614409565b905060200201356040518563ffffffff1660e01b81526004016116c49493929190614782565b600060405180830381600087803b1580156116de57600080fd5b505af11580156116f2573d6000803e3d6000fd5b50505050508080611702906144ab565b91505061150d565b50600061171689611224565b6117209083614730565b60008a815260056020526040908190206007015490516323b872dd60e01b8152336004820152306024820152604481018390529192506001600160a01b03169081906323b872dd906064016020604051808303816000875af115801561178a573d6000803e3d6000fd5b505050506040513d601f19601f820116820180604052508101906117ae91906147ba565b506000633b9aca006117c46305f5e10085614730565b6117ce9190614747565b6001600160a01b0383166000908152600860205260408120805492935083929091906117fb90849061470a565b9091555061180b9050818461471d565b60008c8152600560209081526040808320546001600160a01b03610100909104811684526007835281842090871684529091528120805490919061185090849061470a565b909155505060405133907f09c6516e97076f01776d7830f07af136314f2576a6670a352193733de3b8196790611893908e908e908e908e908e908e908e9061480e565b60405180910390a25050505050505050505050565b3360009081526004602052604090205460ff166118d75760405162461bcd60e51b8152600401610ae7906144c4565b600083815260056020526040902054839060ff16156119085760405162461bcd60e51b8152600401610ae7906144e1565b600084815260056020526040902060060161192483858361457e565b5050505050565b3360009081526004602052604090205460ff1661195a5760405162461bcd60e51b8152600401610ae7906144c4565b60008b8152600560205260409020548b9060ff161561198b5760405162461bcd60e51b8152600401610ae7906144e1565b8988146119aa5760405162461bcd60e51b8152600401610ae79061485e565b86518a146119ca5760405162461bcd60e51b8152600401610ae79061485e565b611a648c8c8c8c8c600260009054906101000a90046001600160a01b03166001600160a01b0316636a25a7998e8e8e8e8e8e6040518763ffffffff1660e01b8152600401611a1d969594939291906148c4565b6000604051808303816000875af1158015611a3c573d6000803e3d6000fd5b505050506040513d6000823e601f3d908101601f191682016040526106e891908101906149f9565b505050505050505050505050565b606060056000838152602001908152602001600020600201805480602002602001604051908101604052809291908181526020016000905b82821015611b56578382906000526020600020018054611ac9906144fe565b80601f0160208091040260200160405190810160405280929190818152602001828054611af5906144fe565b8015611b425780601f10611b1757610100808354040283529160200191611b42565b820191906000526020600020905b815481529060010190602001808311611b2557829003601f168201915b505050505081526020019060010190611aaa565b505050509050919050565b60038054611b6e906144fe565b80601f0160208091040260200160405190810160405280929190818152602001828054611b9a906144fe565b8015611be75780601f10611bbc57610100808354040283529160200191611be7565b820191906000526020600020905b815481529060010190602001808311611bca57829003601f168201915b505050505081565b3360009081526004602052604090205460ff16611c1e5760405162461bcd60e51b8152600401610ae7906144c4565b600083815260056020526040902054839060ff1615611c4f5760405162461bcd60e51b8152600401610ae7906144e1565b8151835114611c865760405162461bcd60e51b8152602060048201526003602482015262140c0d60ea1b6044820152606401610ae7565b60008481526005602090815260409091208451611cab926002909201918601906133eb565b5060008481526005602090815260409091208351611924926003909201918501906133eb565b6000546001600160a01b03163314611cfb5760405162461bcd60e51b8152600401610ae7906146d5565b611d05600061306e565b565b606060056000838152602001908152602001600020600401805480602002602001604051908101604052809291908181526020016000905b82821015611b5657600084815260209081902083018054604080518285028101850190915281815292830182828015611d9757602002820191906000526020600020905b815481526020019060010190808311611d83575b505050505081526020019060010190611d3f565b606060056000838152602001908152602001600020600301805480602002602001604051908101604052809291908181526020016000905b82821015611b56578382906000526020600020018054611e02906144fe565b80601f0160208091040260200160405190810160405280929190818152602001828054611e2e906144fe565b8015611e7b5780601f10611e5057610100808354040283529160200191611e7b565b820191906000526020600020905b815481529060010190602001808311611e5e57829003601f168201915b505050505081526020019060010190611de3565b3360009081526004602052604090205460ff16611ebe5760405162461bcd60e51b8152600401610ae7906144c4565b600154604051637416b2b960e11b8152306004820152602481018b90526000916001600160a01b03169063e82d6572906044016020604051808303816000875af1158015611f10573d6000803e3d6000fd5b505050506040513d601f19601f82011682018060405250810190611f349190614769565b60008181526005602052604090208054610100600160a81b0319166101006001600160a01b038f1602178155909150600601611f708a82614a35565b5060008181526005602090815260409091208951611f96926002909201918b01906133eb565b5060008181526005602090815260409091208851611fbc926003909201918a01906133eb565b506002546040516378a9895b60e11b81526001600160a01b039091169063f15312b690611ff59089908990899089908990600401614af4565b6000604051808303816000875af1158015612014573d6000803e3d6000fd5b505050506040513d6000823e601f3d908101601f1916820160405261203c9190810190614b90565b600560008381526020019081526020016000206004019080519060200190612065929190613441565b506040518181527f1ac2092e16e28eef29d1832f3dc69da1b21284a1f3159d3b26cb238b22fe4f8a9060200160405180910390a15050505050505050505050565b6000546001600160a01b031633146120d05760405162461bcd60e51b8152600401610ae7906146d5565b60036110e282848361457e565b6000546001600160a01b031633146121075760405162461bcd60e51b8152600401610ae7906146d5565b60005b818110156110e25760016004600085858581811061212a5761212a614409565b905060200201602081019061213f91906138c4565b6001600160a01b031681526020810191909152604001600020805460ff191691151591909117905580612171816144ab565b91505061210a565b6000805b604080516000808252602080830180855283519020878352600582528483208684526001019091529083902090926121b59201614c40565b604051602081830303815290604052805190602001201461088e57806121da816144ab565b91505061217d565b3360009081526007602090815260408083206001600160a01b0385168452909152902054806122395760405162461bcd60e51b81526020600482015260036024820152624d303760e81b6044820152606401610ae7565b3360008181526007602090815260408083206001600160a01b038716808552925282209190915561226a918361301c565b6040518181526001600160a01b0383169033907fd3a9278fe8dc6b954e6a19cf23e5d70b445c621918754d5ceaec526a7d26a0de90602001610e74565b600081815260096020526040902060010154606090806001600160401b038111156122d4576122d4613796565b60405190808252806020026020018201604052801561230757816020015b60608152602001906001900390816122f25790505b50915060005b81811015610ab157600254600085815260096020526040902060010180546001600160a01b03909216916355a1dde791908490811061234e5761234e614409565b90600052602060002001546040518263ffffffff1660e01b815260040161237791815260200190565b600060405180830381865afa158015612394573d6000803e3d6000fd5b505050506040513d6000823e601f3d908101601f191682016040526123bc919081019061441f565b8382815181106123ce576123ce614409565b602002602001018190525080806123e4906144ab565b91505061230d565b3360009081526004602052604090205460ff1661241b5760405162461bcd60e51b8152600401610ae7906144c4565b600086815260056020526040902054869060ff161561244c5760405162461bcd60e51b8152600401610ae7906144e1565b60005b858110156125015782818151811061246957612469614409565b6020026020010151600560008a815260200190815260200160002060040188888481811061249957612499614409565b90506020020135815481106124b0576124b0614409565b906000526020600020018686848181106124cc576124cc614409565b90506020020135815481106124e3576124e3614409565b600091825260209091200155806124f9816144ab565b91505061244f565b5050505050505050565b61251a8989898989898961149f565b612525898383612a60565b50505050505050505050565b6001546040516331a9108f60e11b8152600481018390526001600160a01b0390911690636352211e90602401602060405180830381865afa15801561257a573d6000803e3d6000fd5b505050506040513d601f19601f8201168201806040525081019061259e9190614c4c565b6001600160a01b0316336001600160a01b0316146125e45760405162461bcd60e51b815260206004820152600360248201526253303360e81b6044820152606401610ae7565b60008181526009602052604090205460ff166126285760405162461bcd60e51b815260206004820152600360248201526214cc0d60ea1b6044820152606401610ae7565b60005b6000828152600960205260409020600101548110156126f257600254600083815260096020526040902060010180546001600160a01b039092169163f242432a9130913391908690811061268157612681614409565b906000526020600020015460016040518563ffffffff1660e01b81526004016126ad9493929190614782565b600060405180830381600087803b1580156126c757600080fd5b505af11580156126db573d6000803e3d6000fd5b5050505080806126ea906144ab565b91505061262b565b50600081815260096020818152604080842060028101859055805460ff1916815581518581528084019283905294869052929091529151612739926001909201919061349a565b50600154604051632142170760e11b8152336004820152306024820152604481018390526001600160a01b03909116906342842e0e90606401600060405180830381600087803b15801561278c57600080fd5b505af11580156127a0573d6000803e3d6000fd5b50505050600560006127b18361134b565b815260208082019290925260409081016000908120600501805460018101825590825292812090920183905551339183917f1ce66d646856a661a790ff962311cb84d9c3eb337ba33f9b73ca2907d842b36c9190a350565b6000818152600560205260409020600601805460609190612829906144fe565b80601f0160208091040260200160405190810160405280929190818152602001828054612855906144fe565b80156128a25780601f10612877576101008083540402835291602001916128a2565b820191906000526020600020905b81548152906001019060200180831161288557829003601f168201915b50505050509050919050565b6000546001600160a01b031633146128d85760405162461bcd60e51b8152600401610ae7906146d5565b60068190556040518181527f28f3b7e92bea3a83a4ed0552cff96f294f494ee5c34a27cab92a3ec6bdbd431d9060200160405180910390a150565b6000546001600160a01b0316331461293d5760405162461bcd60e51b8152600401610ae7906146d5565b6001600160a01b0381166129a25760405162461bcd60e51b815260206004820152602660248201527f4f776e61626c653a206e6577206f776e657220697320746865207a65726f206160448201526564647265737360d01b6064820152608401610ae7565b6129ab8161306e565b50565b3360009081526004602052604090205460ff166129dd5760405162461bcd60e51b8152600401610ae7906144c4565b600081815260056020526040902054819060ff1615612a0e5760405162461bcd60e51b8152600401610ae7906144e1565b6000828152600560205260409020600481015460029091015414612a445760405162461bcd60e51b8152600401610ae79061485e565b506000908152600560205260409020805460ff19166001179055565b6000838152600560205260408120600201548214612aa65760405162461bcd60e51b815260206004820152600360248201526253303160e81b6044820152606401610ae7565b600154604051639116ce7f60e01b8152600481018690526001600160a01b0390911690639116ce7f90602401602060405180830381865afa158015612aef573d6000803e3d6000fd5b505050506040513d601f19601f82011682018060405250810190612b139190614769565b60015460405163341d1eb760e01b8152600481018790526001600160a01b039091169063341d1eb790602401602060405180830381865afa158015612b5c573d6000803e3d6000fd5b505050506040513d601f19601f82011682018060405250810190612b809190614769565b1015612c02576001546040516394bf804d60e01b8152600481018690523360248201526001600160a01b03909116906394bf804d906044016020604051808303816000875af1158015612bd7573d6000803e3d6000fd5b505050506040513d601f19601f82011682018060405250810190612bfb9190614769565b9050612d2c565b60008481526005602081905260409091200154612c475760405162461bcd60e51b815260206004820152600360248201526229981960e91b6044820152606401610ae7565b6000848152600560208190526040909120018054612c679060019061471d565b81548110612c7757612c77614409565b9060005260206000200154905060056000858152602001908152602001600020600501805480612ca957612ca9614c69565b600082815260208120600019908301810191909155019055600154604051632142170760e11b8152306004820152336024820152604481018390526001600160a01b03909116906342842e0e90606401600060405180830381600087803b158015612d1357600080fd5b505af1158015612d27573d6000803e3d6000fd5b505050505b336000818152600a602090815260408083205490519293612d6c9390920160609290921b6bffffffffffffffffffffffff19168252601482015260340190565b60408051601f198184030181529181528151602092830120600085815260099093529082206002018190559150836001600160401b03811115612db157612db1613796565b604051908082528060200260200182016040528015612dda578160200160208202803683370190505b50905060005b84811015612f01576000878152600560205260409020600401805482908110612e0b57612e0b614409565b90600052602060002001868683818110612e2757612e27614409565b9050602002013581548110612e3e57612e3e614409565b9060005260206000200154828281518110612e5b57612e5b614409565b602090810291909101015260025482516001600160a01b039091169063f242432a9033903090869086908110612e9357612e93614409565b602002602001015160016040518563ffffffff1660e01b8152600401612ebc9493929190614782565b600060405180830381600087803b158015612ed657600080fd5b505af1158015612eea573d6000803e3d6000fd5b505050508080612ef9906144ab565b915050612de0565b506000838152600960209081526040909120805460ff1916600190811782558351612f3393929091019184019061349a565b50336000908152600a60205260408120805491612f4f836144ab565b9091555050604051339084907f0a8845a2c57cee2e7626fb1c364719df23696ce4c67538926c65271c600a4e5b90600090a350509392505050565b60606000612f97836130be565b60010190506000816001600160401b03811115612fb657612fb6613796565b6040519080825280601f01601f191660200182016040528015612fe0576020820181803683370190505b5090508181016020015b600019016f181899199a1a9b1b9c1cb0b131b232b360811b600a86061a8153600a8504945084612fea57509392505050565b604080516001600160a01b038416602482015260448082018490528251808303909101815260649091019091526020810180516001600160e01b031663a9059cbb60e01b1790526110e2908490613196565b600080546001600160a01b038381166001600160a01b0319831681178455604051919092169283917f8be0079c531659141344cd1fd0a4f28419497f9722a3daafe3b4186f6b6457e09190a35050565b60008072184f03e93ff9f4daa797ed6e38ed64bf6a1f0160401b83106130fd5772184f03e93ff9f4daa797ed6e38ed64bf6a1f0160401b830492506040015b6d04ee2d6d415b85acef81000000008310613129576d04ee2d6d415b85acef8100000000830492506020015b662386f26fc10000831061314757662386f26fc10000830492506010015b6305f5e100831061315f576305f5e100830492506008015b612710831061317357612710830492506004015b60648310613185576064830492506002015b600a831061088e5760010192915050565b60006131eb826040518060400160405280602081526020017f5361666545524332303a206c6f772d6c6576656c2063616c6c206661696c6564815250856001600160a01b03166132689092919063ffffffff16565b8051909150156110e2578080602001905181019061320991906147ba565b6110e25760405162461bcd60e51b815260206004820152602a60248201527f5361666545524332303a204552433230206f7065726174696f6e20646964206e6044820152691bdd081cdd58d8d9595960b21b6064820152608401610ae7565b60606132778484600085613281565b90505b9392505050565b6060824710156132e25760405162461bcd60e51b815260206004820152602660248201527f416464726573733a20696e73756666696369656e742062616c616e636520666f6044820152651c8818d85b1b60d21b6064820152608401610ae7565b6001600160a01b0385163b6133395760405162461bcd60e51b815260206004820152601d60248201527f416464726573733a2063616c6c20746f206e6f6e2d636f6e74726163740000006044820152606401610ae7565b600080866001600160a01b031685876040516133559190614c7f565b60006040518083038185875af1925050503d8060008114613392576040519150601f19603f3d011682016040523d82523d6000602084013e613397565b606091505b50915091506133a78282866133b2565b979650505050505050565b606083156133c157508161327a565b8251156133d15782518084602001fd5b8160405162461bcd60e51b8152600401610ae79190613763565b828054828255906000526020600020908101928215613431579160200282015b8281111561343157825182906134219082614a35565b509160200191906001019061340b565b5061343d9291506134e1565b5090565b82805482825590600052602060002090810192821561348e579160200282015b8281111561348e578251805161347e91849160209091019061349a565b5091602001919060010190613461565b5061343d9291506134fe565b8280548282559060005260206000209081019282156134d5579160200282015b828111156134d55782518255916020019190600101906134ba565b5061343d92915061351b565b8082111561343d5760006134f58282613530565b506001016134e1565b8082111561343d576000613512828261356a565b506001016134fe565b5b8082111561343d576000815560010161351c565b50805461353c906144fe565b6000825580601f1061354c575050565b601f0160209004906000526020600020908101906129ab919061351b565b50805460008255906000526020600020908101906129ab919061351b565b60006020828403121561359a57600080fd5b81356001600160e01b03198116811461327a57600080fd5b6000602082840312156135c457600080fd5b5035919050565b60005b838110156135e65781810151838201526020016135ce565b50506000910152565b600081518084526136078160208601602086016135cb565b601f01601f19169290920160200192915050565b60008282518085526020808601955060058183821b8501018287016000805b868110156136a757601f1988850381018c5283518051808752908801908887019080891b88018a01865b8281101561369057858a830301845261367e8286516135ef565b948c0194938c01939150600101613664565b509e8a019e9750505093870193505060010161363a565b50919998505050505050505050565b60208152600061327a602083018461361b565b60008083601f8401126136db57600080fd5b5081356001600160401b038111156136f257600080fd5b60208301915083602082850101111561370a57600080fd5b9250929050565b6000806000806060858703121561372757600080fd5b843593506020850135925060408501356001600160401b0381111561374b57600080fd5b613757878288016136c9565b95989497509550505050565b60208152600061327a60208301846135ef565b6001600160a01b03811681146129ab57600080fd5b803561134681613776565b634e487b7160e01b600052604160045260246000fd5b604051601f8201601f191681016001600160401b03811182821017156137d4576137d4613796565b604052919050565b60006001600160401b038211156137f5576137f5613796565b50601f01601f191660200190565b600082601f83011261381457600080fd5b8135613827613822826137dc565b6137ac565b81815284602083860101111561383c57600080fd5b816020850160208301376000918101602001919091529392505050565b6000806000806080858703121561386f57600080fd5b843561387a81613776565b9350602085013561388a81613776565b92506040850135915060608501356001600160401b038111156138ac57600080fd5b6138b887828801613803565b91505092959194509250565b6000602082840312156138d657600080fd5b813561327a81613776565b60008060008060008060c087890312156138fa57600080fd5b86359550602087013561390c81613776565b95989597505050506040840135936060810135936080820135935060a0909101359150565b60008083601f84011261394357600080fd5b5081356001600160401b0381111561395a57600080fd5b6020830191508360208260051b850101111561370a57600080fd5b6000806020838503121561398857600080fd5b82356001600160401b0381111561399e57600080fd5b6139aa85828601613931565b90969095509350505050565b600081518084526020808501808196508360051b8101915082860160005b858110156139fe5782840389526139ec8483516135ef565b988501989350908401906001016139d4565b5091979650505050505050565b60208152600061327a60208301846139b6565b60008060008060008060006080888a031215613a3957600080fd5b8735965060208801356001600160401b0380821115613a5757600080fd5b613a638b838c01613931565b909850965060408a0135915080821115613a7c57600080fd5b613a888b838c01613931565b909650945060608a0135915080821115613aa157600080fd5b50613aae8a828b01613931565b989b979a50959850939692959293505050565b60008060408385031215613ad457600080fd5b8235613adf81613776565b91506020830135613aef81613776565b809150509250929050565b600080600060408486031215613b0f57600080fd5b8335925060208401356001600160401b03811115613b2c57600080fd5b613b38868287016136c9565b9497909650939450505050565b60006001600160401b03821115613b5e57613b5e613796565b5060051b60200190565b600082601f830112613b7957600080fd5b81356020613b8961382283613b45565b82815260059290921b84018101918181019086841115613ba857600080fd5b8286015b84811015613be75780356001600160401b03811115613bcb5760008081fd5b613bd98986838b0101613803565b845250918301918301613bac565b509695505050505050565b600080600080600080600080600080600060e08c8e031215613c1357600080fd5b8b359a506001600160401b038060208e01351115613c3057600080fd5b613c408e60208f01358f01613931565b909b50995060408d0135811015613c5657600080fd5b613c668e60408f01358f01613931565b909950975060608d0135811015613c7c57600080fd5b613c8c8e60608f01358f01613b68565b96508060808e01351115613c9f57600080fd5b613caf8e60808f01358f01613b68565b95508060a08e01351115613cc257600080fd5b613cd28e60a08f01358f01613931565b909550935060c08d0135811015613ce857600080fd5b50613cf98d60c08e01358e01613931565b81935080925050509295989b509295989b9093969950565b600080600060608486031215613d2657600080fd5b8335925060208401356001600160401b0380821115613d4457600080fd5b613d5087838801613b68565b93506040860135915080821115613d6657600080fd5b50613d7386828701613b68565b9150509250925092565b600081518084526020808501808196508360051b810191508286016000805b86811015613deb578385038a52825180518087529087019087870190845b81811015613dd657835183529289019291890191600101613dba565b50509a87019a95505091850191600101613d9c565b509298975050505050505050565b60208152600061327a6020830184613d7d565b600082601f830112613e1d57600080fd5b81356020613e2d61382283613b45565b82815260059290921b84018101918181019086841115613e4c57600080fd5b8286015b84811015613be75780356001600160401b03811115613e6f5760008081fd5b613e7d8986838b0101613b68565b845250918301918301613e50565b600082601f830112613e9c57600080fd5b81356020613eac61382283613b45565b82815260059290921b84018101918181019086841115613ecb57600080fd5b8286015b84811015613be75780358352918301918301613ecf565b600082601f830112613ef757600080fd5b81356020613f0761382283613b45565b82815260059290921b84018101918181019086841115613f2657600080fd5b8286015b84811015613be75780356001600160401b0380821115613f4957600080fd5b818901915089603f830112613f5d57600080fd5b85820135613f6d61382282613b45565b81815260059190911b830160400190878101908c831115613f8d57600080fd5b604085015b83811015613fc657803585811115613fa957600080fd5b613fb88f6040838a0101613e8b565b845250918901918901613f92565b50875250505092840192508301613f2a565b6000806000806000806000806000806101208b8d031215613ff857600080fd5b6140018b61378b565b995060208b0135985060408b01356001600160401b038082111561402457600080fd5b6140308e838f01613803565b995060608d013591508082111561404657600080fd5b6140528e838f01613b68565b985060808d013591508082111561406857600080fd5b6140748e838f01613b68565b975060a08d013591508082111561408a57600080fd5b6140968e838f01613e0c565b965060c08d01359150808211156140ac57600080fd5b6140b88e838f01613e0c565b955060e08d01359150808211156140ce57600080fd5b6140da8e838f01613ee6565b94506101008d01359150808211156140f157600080fd5b506140fe8d828e01613931565b915080935050809150509295989b9194979a5092959850565b6000806020838503121561412a57600080fd5b82356001600160401b0381111561414057600080fd5b6139aa858286016136c9565b600080600080600060a0868803121561416457600080fd5b853561416f81613776565b9450602086013561417f81613776565b935060408601356001600160401b038082111561419b57600080fd5b6141a789838a01613e8b565b945060608801359150808211156141bd57600080fd5b6141c989838a01613e8b565b935060808801359150808211156141df57600080fd5b506141ec88828901613803565b9150509295509295909350565b6000806000806000806080878903121561421257600080fd5b8635955060208701356001600160401b038082111561423057600080fd5b61423c8a838b01613931565b9097509550604089013591508082111561425557600080fd5b6142618a838b01613931565b9095509350606089013591508082111561427a57600080fd5b5061428789828a01613e8b565b9150509295509295509295565b600080600080600080600080600060a08a8c0312156142b257600080fd5b8935985060208a01356001600160401b03808211156142d057600080fd5b6142dc8d838e01613931565b909a50985060408c01359150808211156142f557600080fd5b6143018d838e01613931565b909850965060608c013591508082111561431a57600080fd5b6143268d838e01613931565b909650945060808c013591508082111561433f57600080fd5b5061434c8c828d01613931565b915080935050809150509295985092959850929598565b600080600080600060a0868803121561437b57600080fd5b853561438681613776565b9450602086013561439681613776565b9350604086013592506060860135915060808601356001600160401b038111156143bf57600080fd5b6141ec88828901613803565b6000806000604084860312156143e057600080fd5b8335925060208401356001600160401b038111156143fd57600080fd5b613b3886828701613931565b634e487b7160e01b600052603260045260246000fd5b60006020828403121561443157600080fd5b81516001600160401b0381111561444757600080fd5b8201601f8101841361445857600080fd5b8051614466613822826137dc565b81815285602083850101111561447b57600080fd5b61448c8260208301602086016135cb565b95945050505050565b634e487b7160e01b600052601160045260246000fd5b6000600182016144bd576144bd614495565b5060010190565b60208082526003908201526250303160e81b604082015260600190565b60208082526003908201526228181960e91b604082015260600190565b600181811c9082168061451257607f821691505b60208210810361453257634e487b7160e01b600052602260045260246000fd5b50919050565b601f8211156110e257600081815260208120601f850160051c8101602086101561455f5750805b601f850160051c820191505b81811015610b485782815560010161456b565b6001600160401b0383111561459557614595613796565b6145a9836145a383546144fe565b83614538565b6000601f8411600181146145dd57600085156145c55750838201355b600019600387901b1c1916600186901b178355611924565b600083815260209020601f19861690835b8281101561460e57868501358255602094850194600190920191016145ee565b508682101561462b5760001960f88860031b161c19848701351681555b505060018560011b0183555050505050565b6000815461464a816144fe565b600182811680156146625760018114614677576146a6565b60ff19841687528215158302870194506146a6565b8560005260208060002060005b8581101561469d5781548a820152908401908201614684565b50505082870194505b5050505092915050565b60006146bc828561463d565b83516146cc8183602088016135cb565b01949350505050565b6020808252818101527f4f776e61626c653a2063616c6c6572206973206e6f7420746865206f776e6572604082015260600190565b8082018082111561088e5761088e614495565b8181038181111561088e5761088e614495565b808202811582820484141761088e5761088e614495565b60008261476457634e487b7160e01b600052601260045260246000fd5b500490565b60006020828403121561477b57600080fd5b5051919050565b6001600160a01b0394851681529290931660208301526040820152606081019190915260a06080820181905260009082015260c00190565b6000602082840312156147cc57600080fd5b8151801515811461327a57600080fd5b81835260006001600160fb1b038311156147f557600080fd5b8260051b80836020870137939093016020019392505050565b87815260806020820152600061482860808301888a6147dc565b828103604084015261483b8187896147dc565b905082810360608401526148508185876147dc565b9a9950505050505050505050565b60208082526003908201526250303360e81b604082015260600190565b8183526000602080850194508260005b858110156148b957813561489e81613776565b6001600160a01b03168752958201959082019060010161488b565b509495945050505050565b6080815260006148d760808301896139b6565b6020838203818501526148ea828a6139b6565b84810360408601528781529150808201600588811b840183018a60005b8b81101561497857868303601f190185528135368e9003601e1901811261492d57600080fd5b8d0186810190356001600160401b0381111561494857600080fd5b80861b360382131561495957600080fd5b6149648582846147dc565b968801969450505090850190600101614907565b5050868103606088015261498d81898b61487b565b9d9c50505050505050505050505050565b600082601f8301126149af57600080fd5b815160206149bf61382283613b45565b82815260059290921b840181019181810190868411156149de57600080fd5b8286015b84811015613be757805183529183019183016149e2565b600060208284031215614a0b57600080fd5b81516001600160401b03811115614a2157600080fd5b614a2d8482850161499e565b949350505050565b81516001600160401b03811115614a4e57614a4e613796565b614a6281614a5c84546144fe565b84614538565b602080601f831160018114614a975760008415614a7f5750858301515b600019600386901b1c1916600185901b178555610b48565b600085815260208120601f198616915b82811015614ac657888601518255948401946001909101908401614aa7565b5085821015614ae45787850151600019600388901b60f8161c191681555b5050505050600190811b01905550565b608081526000614b07608083018861361b565b602083820381850152614b1a828961361b565b915083820360408501528187518084528284019150828160051b850101838a0160005b83811015614b6b57601f19878403018552614b59838351613d7d565b94860194925090850190600101614b3d565b50508681036060880152614b8081898b61487b565b9c9b505050505050505050505050565b60006020808385031215614ba357600080fd5b82516001600160401b0380821115614bba57600080fd5b818501915085601f830112614bce57600080fd5b8151614bdc61382282613b45565b81815260059190911b83018401908481019088831115614bfb57600080fd5b8585015b83811015614c3357805185811115614c175760008081fd5b614c258b89838a010161499e565b845250918601918601614bff565b5098975050505050505050565b600061327a828461463d565b600060208284031215614c5e57600080fd5b815161327a81613776565b634e487b7160e01b600052603160045260246000fd5b60008251614c918184602087016135cb565b919091019291505056fea2646970667358221220fa08cf34d198c1881c74b909f9fda765fcd7beb5314315a4457956eaabaf370d64736f6c63430008110033",
  "devdoc": {
    "kind": "dev",
    "methods": {
      "onERC721Received(address,address,uint256,bytes)": {
        "details": "See {IERC721Receiver-onERC721Received}. Always returns `IERC721Receiver.onERC721Received.selector`."
      },
      "owner()": {
        "details": "Returns the address of the current owner."
      },
      "renounceOwnership()": {
        "details": "Leaves the contract without owner. It will not be possible to call `onlyOwner` functions anymore. Can only be called by the current owner. NOTE: Renouncing ownership will leave the contract without an owner, thereby removing any functionality that is only available to the owner."
      },
      "supportsInterface(bytes4)": {
        "details": "See {IERC165-supportsInterface}."
      },
      "transferOwnership(address)": {
        "details": "Transfers ownership of the contract to a new account (`newOwner`). Can only be called by the current owner."
      }
    },
    "version": 1
  },
  "userdoc": {
    "kind": "user",
    "methods": {},
    "version": 1
  },
  "storageLayout": {
    "storage": [
      {
        "astId": 7,
        "contract": "contracts/Studio.sol:Studio",
        "label": "_owner",
        "offset": 0,
        "slot": "0",
        "type": "t_address"
      },
      {
        "astId": 5594,
        "contract": "contracts/Studio.sol:Studio",
        "label": "canvas",
        "offset": 0,
        "slot": "1",
        "type": "t_contract(ICanvas)7204"
      },
      {
        "astId": 5597,
        "contract": "contracts/Studio.sol:Studio",
        "label": "element",
        "offset": 0,
        "slot": "2",
        "type": "t_contract(IElement)7300"
      },
      {
        "astId": 5599,
        "contract": "contracts/Studio.sol:Studio",
        "label": "baseURI",
        "offset": 0,
        "slot": "3",
        "type": "t_string_storage"
      },
      {
        "astId": 5603,
        "contract": "contracts/Studio.sol:Studio",
        "label": "admins",
        "offset": 0,
        "slot": "4",
        "type": "t_mapping(t_address,t_bool)"
      },
      {
        "astId": 5608,
        "contract": "contracts/Studio.sol:Studio",
        "label": "projects",
        "offset": 0,
        "slot": "5",
        "type": "t_mapping(t_uint256,t_struct(ProjectData)7444_storage)"
      },
      {
        "astId": 5096,
        "contract": "contracts/Studio.sol:Studio",
        "label": "auctionStartDelay",
        "offset": 0,
        "slot": "6",
        "type": "t_uint256"
      },
      {
        "astId": 5102,
        "contract": "contracts/Studio.sol:Studio",
        "label": "artistClaimableRevenues",
        "offset": 0,
        "slot": "7",
        "type": "t_mapping(t_address,t_mapping(t_address,t_uint256))"
      },
      {
        "astId": 5106,
        "contract": "contracts/Studio.sol:Studio",
        "label": "platformClaimableRevenues",
        "offset": 0,
        "slot": "8",
        "type": "t_mapping(t_address,t_uint256)"
      },
      {
        "astId": 6598,
        "contract": "contracts/Studio.sol:Studio",
        "label": "canvases",
        "offset": 0,
        "slot": "9",
        "type": "t_mapping(t_uint256,t_struct(CanvasData)7467_storage)"
      },
      {
        "astId": 6602,
        "contract": "contracts/Studio.sol:Studio",
        "label": "userNonces",
        "offset": 0,
        "slot": "10",
        "type": "t_mapping(t_address,t_uint256)"
      }
    ],
    "types": {
      "t_address": {
        "encoding": "inplace",
        "label": "address",
        "numberOfBytes": "20"
      },
      "t_array(t_array(t_uint256)dyn_storage)dyn_storage": {
        "base": "t_array(t_uint256)dyn_storage",
        "encoding": "dynamic_array",
        "label": "uint256[][]",
        "numberOfBytes": "32"
      },
      "t_array(t_string_storage)dyn_storage": {
        "base": "t_string_storage",
        "encoding": "dynamic_array",
        "label": "string[]",
        "numberOfBytes": "32"
      },
      "t_array(t_uint256)dyn_storage": {
        "base": "t_uint256",
        "encoding": "dynamic_array",
        "label": "uint256[]",
        "numberOfBytes": "32"
      },
      "t_bool": {
        "encoding": "inplace",
        "label": "bool",
        "numberOfBytes": "1"
      },
      "t_bytes32": {
        "encoding": "inplace",
        "label": "bytes32",
        "numberOfBytes": "32"
      },
      "t_contract(ICanvas)7204": {
        "encoding": "inplace",
        "label": "contract ICanvas",
        "numberOfBytes": "20"
      },
      "t_contract(IElement)7300": {
        "encoding": "inplace",
        "label": "contract IElement",
        "numberOfBytes": "20"
      },
      "t_mapping(t_address,t_bool)": {
        "encoding": "mapping",
        "key": "t_address",
        "label": "mapping(address => bool)",
        "numberOfBytes": "32",
        "value": "t_bool"
      },
      "t_mapping(t_address,t_mapping(t_address,t_uint256))": {
        "encoding": "mapping",
        "key": "t_address",
        "label": "mapping(address => mapping(address => uint256))",
        "numberOfBytes": "32",
        "value": "t_mapping(t_address,t_uint256)"
      },
      "t_mapping(t_address,t_uint256)": {
        "encoding": "mapping",
        "key": "t_address",
        "label": "mapping(address => uint256)",
        "numberOfBytes": "32",
        "value": "t_uint256"
      },
      "t_mapping(t_uint256,t_string_storage)": {
        "encoding": "mapping",
        "key": "t_uint256",
        "label": "mapping(uint256 => string)",
        "numberOfBytes": "32",
        "value": "t_string_storage"
      },
      "t_mapping(t_uint256,t_struct(CanvasData)7467_storage)": {
        "encoding": "mapping",
        "key": "t_uint256",
        "label": "mapping(uint256 => struct IStudio.CanvasData)",
        "numberOfBytes": "32",
        "value": "t_struct(CanvasData)7467_storage"
      },
      "t_mapping(t_uint256,t_struct(ProjectData)7444_storage)": {
        "encoding": "mapping",
        "key": "t_uint256",
        "label": "mapping(uint256 => struct IProjects.ProjectData)",
        "numberOfBytes": "32",
        "value": "t_struct(ProjectData)7444_storage"
      },
      "t_string_storage": {
        "encoding": "bytes",
        "label": "string",
        "numberOfBytes": "32"
      },
      "t_struct(CanvasData)7467_storage": {
        "encoding": "inplace",
        "label": "struct IStudio.CanvasData",
        "members": [
          {
            "astId": 7461,
            "contract": "contracts/Studio.sol:Studio",
            "label": "wrapped",
            "offset": 0,
            "slot": "0",
            "type": "t_bool"
          },
          {
            "astId": 7464,
            "contract": "contracts/Studio.sol:Studio",
            "label": "wrappedElementTokenIds",
            "offset": 0,
            "slot": "1",
            "type": "t_array(t_uint256)dyn_storage"
          },
          {
            "astId": 7466,
            "contract": "contracts/Studio.sol:Studio",
            "label": "hash",
            "offset": 0,
            "slot": "2",
            "type": "t_bytes32"
          }
        ],
        "numberOfBytes": "96"
      },
      "t_struct(ProjectData)7444_storage": {
        "encoding": "inplace",
        "label": "struct IProjects.ProjectData",
        "members": [
          {
            "astId": 7412,
            "contract": "contracts/Studio.sol:Studio",
            "label": "locked",
            "offset": 0,
            "slot": "0",
            "type": "t_bool"
          },
          {
            "astId": 7414,
            "contract": "contracts/Studio.sol:Studio",
            "label": "artistAddress",
            "offset": 1,
            "slot": "0",
            "type": "t_address"
          },
          {
            "astId": 7418,
            "contract": "contracts/Studio.sol:Studio",
            "label": "scripts",
            "offset": 0,
            "slot": "1",
            "type": "t_mapping(t_uint256,t_string_storage)"
          },
          {
            "astId": 7421,
            "contract": "contracts/Studio.sol:Studio",
            "label": "elementCategoryLabels",
            "offset": 0,
            "slot": "2",
            "type": "t_array(t_string_storage)dyn_storage"
          },
          {
            "astId": 7424,
            "contract": "contracts/Studio.sol:Studio",
            "label": "elementCategoryValues",
            "offset": 0,
            "slot": "3",
            "type": "t_array(t_string_storage)dyn_storage"
          },
          {
            "astId": 7428,
            "contract": "contracts/Studio.sol:Studio",
            "label": "elementTokenIds",
            "offset": 0,
            "slot": "4",
            "type": "t_array(t_array(t_uint256)dyn_storage)dyn_storage"
          },
          {
            "astId": 7431,
            "contract": "contracts/Studio.sol:Studio",
            "label": "blankCanvasIds",
            "offset": 0,
            "slot": "5",
            "type": "t_array(t_uint256)dyn_storage"
          },
          {
            "astId": 7433,
            "contract": "contracts/Studio.sol:Studio",
            "label": "metadata",
            "offset": 0,
            "slot": "6",
            "type": "t_string_storage"
          },
          {
            "astId": 7435,
            "contract": "contracts/Studio.sol:Studio",
            "label": "auctionERC20",
            "offset": 0,
            "slot": "7",
            "type": "t_address"
          },
          {
            "astId": 7437,
            "contract": "contracts/Studio.sol:Studio",
            "label": "auctionStartTime",
            "offset": 0,
            "slot": "8",
            "type": "t_uint256"
          },
          {
            "astId": 7439,
            "contract": "contracts/Studio.sol:Studio",
            "label": "auctionEndTime",
            "offset": 0,
            "slot": "9",
            "type": "t_uint256"
          },
          {
            "astId": 7441,
            "contract": "contracts/Studio.sol:Studio",
            "label": "auctionStartPrice",
            "offset": 0,
            "slot": "10",
            "type": "t_uint256"
          },
          {
            "astId": 7443,
            "contract": "contracts/Studio.sol:Studio",
            "label": "auctionEndPrice",
            "offset": 0,
            "slot": "11",
            "type": "t_uint256"
          }
        ],
        "numberOfBytes": "384"
      },
      "t_uint256": {
        "encoding": "inplace",
        "label": "uint256",
        "numberOfBytes": "32"
      }
    }
  }
}