{
  "address": "0x4687Fb6b8E02a7c14201Cda5fA79B9B24ae73963",
  "abi": [
    {
      "anonymous": false,
      "inputs": [
        {
          "indexed": true,
          "internalType": "address",
          "name": "owner",
          "type": "address"
        },
        {
          "indexed": true,
          "internalType": "address",
          "name": "approved",
          "type": "address"
        },
        {
          "indexed": true,
          "internalType": "uint256",
          "name": "tokenId",
          "type": "uint256"
        }
      ],
      "name": "Approval",
      "type": "event"
    },
    {
      "anonymous": false,
      "inputs": [
        {
          "indexed": true,
          "internalType": "address",
          "name": "owner",
          "type": "address"
        },
        {
          "indexed": true,
          "internalType": "address",
          "name": "operator",
          "type": "address"
        },
        {
          "indexed": false,
          "internalType": "bool",
          "name": "approved",
          "type": "bool"
        }
      ],
      "name": "ApprovalForAll",
      "type": "event"
    },
    {
      "anonymous": false,
      "inputs": [
        {
          "indexed": false,
          "internalType": "uint256",
          "name": "claimedRevenue",
          "type": "uint256"
        }
      ],
      "name": "ArtistRevenueClaimed",
      "type": "event"
    },
    {
      "anonymous": false,
      "inputs": [
        {
          "indexed": true,
          "internalType": "uint256",
          "name": "artworkTokenId",
          "type": "uint256"
        },
        {
          "indexed": false,
          "internalType": "uint256[]",
          "name": "traitTokenIds",
          "type": "uint256[]"
        },
        {
          "indexed": false,
          "internalType": "bytes32",
          "name": "hash",
          "type": "bytes32"
        },
        {
          "indexed": true,
          "internalType": "address",
          "name": "creator",
          "type": "address"
        }
      ],
      "name": "ArtworkCreated",
      "type": "event"
    },
    {
      "anonymous": false,
      "inputs": [
        {
          "indexed": true,
          "internalType": "uint256",
          "name": "artworkTokenId",
          "type": "uint256"
        },
        {
          "indexed": true,
          "internalType": "address",
          "name": "caller",
          "type": "address"
        }
      ],
      "name": "ArtworkDecomposed",
      "type": "event"
    },
    {
      "anonymous": false,
      "inputs": [
        {
          "indexed": false,
          "internalType": "uint256",
          "name": "auctionStartTime",
          "type": "uint256"
        },
        {
          "indexed": false,
          "internalType": "uint256",
          "name": "auctionEndTime",
          "type": "uint256"
        },
        {
          "indexed": false,
          "internalType": "uint256",
          "name": "auctionStartPrice",
          "type": "uint256"
        },
        {
          "indexed": false,
          "internalType": "uint256",
          "name": "auctionEndPrice",
          "type": "uint256"
        }
      ],
      "name": "AuctionScheduled",
      "type": "event"
    },
    {
      "anonymous": false,
      "inputs": [
        {
          "indexed": true,
          "internalType": "address",
          "name": "previousOwner",
          "type": "address"
        },
        {
          "indexed": true,
          "internalType": "address",
          "name": "newOwner",
          "type": "address"
        }
      ],
      "name": "OwnershipTransferred",
      "type": "event"
    },
    {
      "anonymous": false,
      "inputs": [
        {
          "indexed": false,
          "internalType": "uint256",
          "name": "claimedRevenue",
          "type": "uint256"
        }
      ],
      "name": "PlatformRevenueClaimed",
      "type": "event"
    },
    {
      "anonymous": false,
      "inputs": [
        {
          "indexed": true,
          "internalType": "address",
          "name": "buyer",
          "type": "address"
        },
        {
          "indexed": false,
          "internalType": "uint256[]",
          "name": "traitTokenIds",
          "type": "uint256[]"
        },
        {
          "indexed": false,
          "internalType": "uint256[]",
          "name": "traitQuantities",
          "type": "uint256[]"
        }
      ],
      "name": "TraitsBought",
      "type": "event"
    },
    {
      "anonymous": false,
      "inputs": [
        {
          "indexed": true,
          "internalType": "address",
          "name": "from",
          "type": "address"
        },
        {
          "indexed": true,
          "internalType": "address",
          "name": "to",
          "type": "address"
        },
        {
          "indexed": true,
          "internalType": "uint256",
          "name": "tokenId",
          "type": "uint256"
        }
      ],
      "name": "Transfer",
      "type": "event"
    },
    {
      "inputs": [],
      "name": "FEE_DENOMINATOR",
      "outputs": [
        {
          "internalType": "uint256",
          "name": "",
          "type": "uint256"
        }
      ],
      "stateMutability": "view",
      "type": "function"
    },
    {
      "inputs": [
        {
          "internalType": "address[]",
          "name": "_admins",
          "type": "address[]"
        }
      ],
      "name": "addAdmins",
      "outputs": [],
      "stateMutability": "nonpayable",
      "type": "function"
    },
    {
      "inputs": [
        {
          "internalType": "address",
          "name": "to",
          "type": "address"
        },
        {
          "internalType": "uint256",
          "name": "tokenId",
          "type": "uint256"
        }
      ],
      "name": "approve",
      "outputs": [],
      "stateMutability": "nonpayable",
      "type": "function"
    },
    {
      "inputs": [],
      "name": "artistAddress",
      "outputs": [
        {
          "internalType": "address",
          "name": "",
          "type": "address"
        }
      ],
      "stateMutability": "view",
      "type": "function"
    },
    {
      "inputs": [],
      "name": "artistClaimableRevenues",
      "outputs": [
        {
          "internalType": "uint256",
          "name": "",
          "type": "uint256"
        }
      ],
      "stateMutability": "view",
      "type": "function"
    },
    {
      "inputs": [
        {
          "internalType": "uint256",
          "name": "",
          "type": "uint256"
        }
      ],
      "name": "artworkData",
      "outputs": [
        {
          "internalType": "bytes32",
          "name": "hash",
          "type": "bytes32"
        }
      ],
      "stateMutability": "view",
      "type": "function"
    },
    {
      "inputs": [],
      "name": "auctionEndPrice",
      "outputs": [
        {
          "internalType": "uint256",
          "name": "",
          "type": "uint256"
        }
      ],
      "stateMutability": "view",
      "type": "function"
    },
    {
      "inputs": [],
      "name": "auctionEndTime",
      "outputs": [
        {
          "internalType": "uint256",
          "name": "",
          "type": "uint256"
        }
      ],
      "stateMutability": "view",
      "type": "function"
    },
    {
      "inputs": [],
      "name": "auctionPlatformFeeNumerator",
      "outputs": [
        {
          "internalType": "uint256",
          "name": "",
          "type": "uint256"
        }
      ],
      "stateMutability": "view",
      "type": "function"
    },
    {
      "inputs": [],
      "name": "auctionStartPrice",
      "outputs": [
        {
          "internalType": "uint256",
          "name": "",
          "type": "uint256"
        }
      ],
      "stateMutability": "view",
      "type": "function"
    },
    {
      "inputs": [],
      "name": "auctionStartTime",
      "outputs": [
        {
          "internalType": "uint256",
          "name": "",
          "type": "uint256"
        }
      ],
      "stateMutability": "view",
      "type": "function"
    },
    {
      "inputs": [
        {
          "internalType": "address",
          "name": "owner",
          "type": "address"
        }
      ],
      "name": "balanceOf",
      "outputs": [
        {
          "internalType": "uint256",
          "name": "",
          "type": "uint256"
        }
      ],
      "stateMutability": "view",
      "type": "function"
    },
    {
      "inputs": [],
      "name": "baseURI",
      "outputs": [
        {
          "internalType": "string",
          "name": "",
          "type": "string"
        }
      ],
      "stateMutability": "view",
      "type": "function"
    },
    {
      "inputs": [
        {
          "internalType": "uint256[]",
          "name": "_traitTokenIds",
          "type": "uint256[]"
        },
        {
          "internalType": "uint256[]",
          "name": "_traitAmounts",
          "type": "uint256[]"
        }
      ],
      "name": "buyTraits",
      "outputs": [],
      "stateMutability": "payable",
      "type": "function"
    },
    {
      "inputs": [
        {
          "internalType": "uint256[]",
          "name": "_traitTokenIdsToBuy",
          "type": "uint256[]"
        },
        {
          "internalType": "uint256[]",
          "name": "_traitQuantitiesToBuy",
          "type": "uint256[]"
        },
        {
          "internalType": "uint256[]",
          "name": "_traitTokenIdsToCreateArtwork",
          "type": "uint256[]"
        }
      ],
      "name": "buyTraitsCreateArtwork",
      "outputs": [],
      "stateMutability": "payable",
      "type": "function"
    },
    {
      "inputs": [],
      "name": "claimArtistRevenue",
      "outputs": [],
      "stateMutability": "nonpayable",
      "type": "function"
    },
    {
      "inputs": [],
      "name": "claimPlatformRevenue",
      "outputs": [],
      "stateMutability": "nonpayable",
      "type": "function"
    },
    {
      "inputs": [
        {
          "internalType": "uint256[]",
          "name": "_traitTokenIds",
          "type": "uint256[]"
        }
      ],
      "name": "createArtwork",
      "outputs": [
        {
          "internalType": "uint256",
          "name": "_artworkTokenId",
          "type": "uint256"
        }
      ],
      "stateMutability": "nonpayable",
      "type": "function"
    },
    {
      "inputs": [
        {
          "internalType": "string",
          "name": "_baseURI",
          "type": "string"
        },
        {
          "internalType": "address",
          "name": "_artistAddress",
          "type": "address"
        },
        {
          "internalType": "uint256",
          "name": "_maxSupply",
          "type": "uint256"
        },
        {
          "internalType": "string",
          "name": "_metadata",
          "type": "string"
        }
      ],
      "name": "createProject",
      "outputs": [],
      "stateMutability": "nonpayable",
      "type": "function"
    },
    {
      "inputs": [
        {
          "internalType": "string[]",
          "name": "_traitTypeNames",
          "type": "string[]"
        },
        {
          "internalType": "string[]",
          "name": "_traitTypeValues",
          "type": "string[]"
        },
        {
          "internalType": "string[]",
          "name": "_traitNames",
          "type": "string[]"
        },
        {
          "internalType": "string[]",
          "name": "_traitValues",
          "type": "string[]"
        },
        {
          "internalType": "uint256[]",
          "name": "_traitTypeIndexes",
          "type": "uint256[]"
        },
        {
          "internalType": "uint256[]",
          "name": "_traitMaxSupplys",
          "type": "uint256[]"
        }
      ],
      "name": "createTraits",
      "outputs": [],
      "stateMutability": "nonpayable",
      "type": "function"
    },
    {
      "inputs": [
        {
          "internalType": "uint256",
          "name": "_artworkTokenId",
          "type": "uint256"
        }
      ],
      "name": "decomposeArtwork",
      "outputs": [],
      "stateMutability": "nonpayable",
      "type": "function"
    },
    {
      "inputs": [
        {
          "internalType": "uint256",
          "name": "tokenId",
          "type": "uint256"
        }
      ],
      "name": "getApproved",
      "outputs": [
        {
          "internalType": "address",
          "name": "",
          "type": "address"
        }
      ],
      "stateMutability": "view",
      "type": "function"
    },
    {
      "inputs": [
        {
          "internalType": "uint256",
          "name": "_artworkId",
          "type": "uint256"
        }
      ],
      "name": "getArtworkHash",
      "outputs": [
        {
          "internalType": "bytes32",
          "name": "",
          "type": "bytes32"
        }
      ],
      "stateMutability": "view",
      "type": "function"
    },
    {
      "inputs": [
        {
          "internalType": "uint256",
          "name": "_artworkTokenId",
          "type": "uint256"
        }
      ],
      "name": "getArtworkTraits",
      "outputs": [
        {
          "internalType": "uint256[]",
          "name": "traitTokenIds",
          "type": "uint256[]"
        },
        {
          "internalType": "string[]",
          "name": "traitNames",
          "type": "string[]"
        },
        {
          "internalType": "string[]",
          "name": "traitValues",
          "type": "string[]"
        },
        {
          "internalType": "string[]",
          "name": "traitTypeNames",
          "type": "string[]"
        },
        {
          "internalType": "string[]",
          "name": "traitTypeValues",
          "type": "string[]"
        }
      ],
      "stateMutability": "view",
      "type": "function"
    },
    {
      "inputs": [
        {
          "internalType": "uint256",
          "name": "_artworkTokenId",
          "type": "uint256"
        }
      ],
      "name": "getArtworkURI",
      "outputs": [
        {
          "internalType": "string",
          "name": "",
          "type": "string"
        }
      ],
      "stateMutability": "view",
      "type": "function"
    },
    {
      "inputs": [
        {
          "internalType": "address",
          "name": "_admin",
          "type": "address"
        }
      ],
      "name": "getIsAdmin",
      "outputs": [
        {
          "internalType": "bool",
          "name": "",
          "type": "bool"
        }
      ],
      "stateMutability": "view",
      "type": "function"
    },
    {
      "inputs": [],
      "name": "getProjectArtist",
      "outputs": [
        {
          "internalType": "address",
          "name": "",
          "type": "address"
        }
      ],
      "stateMutability": "view",
      "type": "function"
    },
    {
      "inputs": [],
      "name": "getProjectIsLocked",
      "outputs": [
        {
          "internalType": "bool",
          "name": "",
          "type": "bool"
        }
      ],
      "stateMutability": "view",
      "type": "function"
    },
    {
      "inputs": [],
      "name": "getProjectMetadata",
      "outputs": [
        {
          "internalType": "string",
          "name": "",
          "type": "string"
        }
      ],
      "stateMutability": "view",
      "type": "function"
    },
    {
      "inputs": [],
      "name": "getProjectScriptCount",
      "outputs": [
        {
          "internalType": "uint256",
          "name": "",
          "type": "uint256"
        }
      ],
      "stateMutability": "view",
      "type": "function"
    },
    {
      "inputs": [],
      "name": "getProjectScripts",
      "outputs": [
        {
          "internalType": "string[]",
          "name": "_scripts",
          "type": "string[]"
        }
      ],
      "stateMutability": "view",
      "type": "function"
    },
    {
      "inputs": [],
      "name": "getTraitAuctionPrice",
      "outputs": [
        {
          "internalType": "uint256",
          "name": "_price",
          "type": "uint256"
        }
      ],
      "stateMutability": "view",
      "type": "function"
    },
    {
      "inputs": [],
      "name": "getTraits",
      "outputs": [
        {
          "internalType": "uint256[]",
          "name": "_traitTokenIds",
          "type": "uint256[]"
        },
        {
          "internalType": "string[]",
          "name": "_traitNames",
          "type": "string[]"
        },
        {
          "internalType": "string[]",
          "name": "_traitValues",
          "type": "string[]"
        },
        {
          "internalType": "uint256[]",
          "name": "_traitTypeIndexes",
          "type": "uint256[]"
        },
        {
          "internalType": "string[]",
          "name": "_traitTypeNames",
          "type": "string[]"
        },
        {
          "internalType": "string[]",
          "name": "_traitTypeValues",
          "type": "string[]"
        }
      ],
      "stateMutability": "view",
      "type": "function"
    },
    {
      "inputs": [
        {
          "internalType": "string",
          "name": "_name",
          "type": "string"
        },
        {
          "internalType": "string",
          "name": "_symbol",
          "type": "string"
        },
        {
          "internalType": "address",
          "name": "_traits",
          "type": "address"
        },
        {
          "internalType": "address",
          "name": "_owner",
          "type": "address"
        },
        {
          "internalType": "address[]",
          "name": "_admins",
          "type": "address[]"
        }
      ],
      "name": "initialize",
      "outputs": [],
      "stateMutability": "nonpayable",
      "type": "function"
    },
    {
      "inputs": [
        {
          "internalType": "address",
          "name": "owner",
          "type": "address"
        },
        {
          "internalType": "address",
          "name": "operator",
          "type": "address"
        }
      ],
      "name": "isApprovedForAll",
      "outputs": [
        {
          "internalType": "bool",
          "name": "",
          "type": "bool"
        }
      ],
      "stateMutability": "view",
      "type": "function"
    },
    {
      "inputs": [],
      "name": "lockProject",
      "outputs": [],
      "stateMutability": "nonpayable",
      "type": "function"
    },
    {
      "inputs": [],
      "name": "locked",
      "outputs": [
        {
          "internalType": "bool",
          "name": "",
          "type": "bool"
        }
      ],
      "stateMutability": "view",
      "type": "function"
    },
    {
      "inputs": [],
      "name": "metadata",
      "outputs": [
        {
          "internalType": "string",
          "name": "",
          "type": "string"
        }
      ],
      "stateMutability": "view",
      "type": "function"
    },
    {
      "inputs": [],
      "name": "name",
      "outputs": [
        {
          "internalType": "string",
          "name": "",
          "type": "string"
        }
      ],
      "stateMutability": "view",
      "type": "function"
    },
    {
      "inputs": [
        {
          "internalType": "address",
          "name": "",
          "type": "address"
        },
        {
          "internalType": "address",
          "name": "",
          "type": "address"
        },
        {
          "internalType": "uint256[]",
          "name": "",
          "type": "uint256[]"
        },
        {
          "internalType": "uint256[]",
          "name": "",
          "type": "uint256[]"
        },
        {
          "internalType": "bytes",
          "name": "",
          "type": "bytes"
        }
      ],
      "name": "onERC1155BatchReceived",
      "outputs": [
        {
          "internalType": "bytes4",
          "name": "",
          "type": "bytes4"
        }
      ],
      "stateMutability": "nonpayable",
      "type": "function"
    },
    {
      "inputs": [
        {
          "internalType": "address",
          "name": "",
          "type": "address"
        },
        {
          "internalType": "address",
          "name": "",
          "type": "address"
        },
        {
          "internalType": "uint256",
          "name": "",
          "type": "uint256"
        },
        {
          "internalType": "uint256",
          "name": "",
          "type": "uint256"
        },
        {
          "internalType": "bytes",
          "name": "",
          "type": "bytes"
        }
      ],
      "name": "onERC1155Received",
      "outputs": [
        {
          "internalType": "bytes4",
          "name": "",
          "type": "bytes4"
        }
      ],
      "stateMutability": "nonpayable",
      "type": "function"
    },
    {
      "inputs": [],
      "name": "owner",
      "outputs": [
        {
          "internalType": "address",
          "name": "",
          "type": "address"
        }
      ],
      "stateMutability": "view",
      "type": "function"
    },
    {
      "inputs": [
        {
          "internalType": "uint256",
          "name": "tokenId",
          "type": "uint256"
        }
      ],
      "name": "ownerOf",
      "outputs": [
        {
          "internalType": "address",
          "name": "",
          "type": "address"
        }
      ],
      "stateMutability": "view",
      "type": "function"
    },
    {
      "inputs": [],
      "name": "platformClaimableRevenues",
      "outputs": [
        {
          "internalType": "uint256",
          "name": "",
          "type": "uint256"
        }
      ],
      "stateMutability": "view",
      "type": "function"
    },
    {
      "inputs": [
        {
          "internalType": "address[]",
          "name": "_admins",
          "type": "address[]"
        }
      ],
      "name": "removeAdmins",
      "outputs": [],
      "stateMutability": "nonpayable",
      "type": "function"
    },
    {
      "inputs": [],
      "name": "renounceOwnership",
      "outputs": [],
      "stateMutability": "nonpayable",
      "type": "function"
    },
    {
      "inputs": [
        {
          "internalType": "address",
          "name": "from",
          "type": "address"
        },
        {
          "internalType": "address",
          "name": "to",
          "type": "address"
        },
        {
          "internalType": "uint256",
          "name": "tokenId",
          "type": "uint256"
        }
      ],
      "name": "safeTransferFrom",
      "outputs": [],
      "stateMutability": "nonpayable",
      "type": "function"
    },
    {
      "inputs": [
        {
          "internalType": "address",
          "name": "from",
          "type": "address"
        },
        {
          "internalType": "address",
          "name": "to",
          "type": "address"
        },
        {
          "internalType": "uint256",
          "name": "tokenId",
          "type": "uint256"
        },
        {
          "internalType": "bytes",
          "name": "_data",
          "type": "bytes"
        }
      ],
      "name": "safeTransferFrom",
      "outputs": [],
      "stateMutability": "nonpayable",
      "type": "function"
    },
    {
      "inputs": [
        {
          "internalType": "uint256",
          "name": "_auctionStartTime",
          "type": "uint256"
        },
        {
          "internalType": "uint256",
          "name": "_auctionEndTime",
          "type": "uint256"
        },
        {
          "internalType": "uint256",
          "name": "_auctionStartPrice",
          "type": "uint256"
        },
        {
          "internalType": "uint256",
          "name": "_auctionEndPrice",
          "type": "uint256"
        }
      ],
      "name": "scheduleAuction",
      "outputs": [],
      "stateMutability": "nonpayable",
      "type": "function"
    },
    {
      "inputs": [
        {
          "internalType": "address",
          "name": "operator",
          "type": "address"
        },
        {
          "internalType": "bool",
          "name": "approved",
          "type": "bool"
        }
      ],
      "name": "setApprovalForAll",
      "outputs": [],
      "stateMutability": "nonpayable",
      "type": "function"
    },
    {
      "inputs": [
        {
          "internalType": "bytes4",
          "name": "interfaceId",
          "type": "bytes4"
        }
      ],
      "name": "supportsInterface",
      "outputs": [
        {
          "internalType": "bool",
          "name": "",
          "type": "bool"
        }
      ],
      "stateMutability": "view",
      "type": "function"
    },
    {
      "inputs": [],
      "name": "symbol",
      "outputs": [
        {
          "internalType": "string",
          "name": "",
          "type": "string"
        }
      ],
      "stateMutability": "view",
      "type": "function"
    },
    {
      "inputs": [
        {
          "internalType": "uint256",
          "name": "tokenId",
          "type": "uint256"
        }
      ],
      "name": "tokenURI",
      "outputs": [
        {
          "internalType": "string",
          "name": "",
          "type": "string"
        }
      ],
      "stateMutability": "view",
      "type": "function"
    },
    {
      "inputs": [],
      "name": "traits",
      "outputs": [
        {
          "internalType": "contract ITraits",
          "name": "",
          "type": "address"
        }
      ],
      "stateMutability": "view",
      "type": "function"
    },
    {
      "inputs": [
        {
          "internalType": "address",
          "name": "from",
          "type": "address"
        },
        {
          "internalType": "address",
          "name": "to",
          "type": "address"
        },
        {
          "internalType": "uint256",
          "name": "tokenId",
          "type": "uint256"
        }
      ],
      "name": "transferFrom",
      "outputs": [],
      "stateMutability": "nonpayable",
      "type": "function"
    },
    {
      "inputs": [
        {
          "internalType": "address",
          "name": "newOwner",
          "type": "address"
        }
      ],
      "name": "transferOwnership",
      "outputs": [],
      "stateMutability": "nonpayable",
      "type": "function"
    },
    {
      "inputs": [
        {
          "internalType": "string",
          "name": "_baseURI",
          "type": "string"
        }
      ],
      "name": "updateBaseURI",
      "outputs": [],
      "stateMutability": "nonpayable",
      "type": "function"
    },
    {
      "inputs": [
        {
          "internalType": "string",
          "name": "_metadata",
          "type": "string"
        }
      ],
      "name": "updateMetadata",
      "outputs": [],
      "stateMutability": "nonpayable",
      "type": "function"
    },
    {
      "inputs": [
        {
          "internalType": "uint256",
          "name": "_scriptIndex",
          "type": "uint256"
        },
        {
          "internalType": "string",
          "name": "_script",
          "type": "string"
        }
      ],
      "name": "updateScript",
      "outputs": [],
      "stateMutability": "nonpayable",
      "type": "function"
    },
    {
      "inputs": [
        {
          "internalType": "address",
          "name": "",
          "type": "address"
        }
      ],
      "name": "userNonces",
      "outputs": [
        {
          "internalType": "uint256",
          "name": "",
          "type": "uint256"
        }
      ],
      "stateMutability": "view",
      "type": "function"
    }
  ],
  "transactionHash": "0x2a49687cb5f3f4bbe7c4a3450af8159378f3b210e1feb14a45ef99003f5784bd",
  "args": [],
  "numDeployments": 1,
  "solcInputHash": "dfe4aee3f2e02e5eca8926ae7cf6d3d5",
  "bytecode": "0x6080604052600161012f5534801561001657600080fd5b50614ecc806100266000396000f3fe6080604052600436106103975760003560e01c80637bd1085b116101dc578063b88d4fde11610102578063d7eb3f3a116100a0578063eb54f9ec1161006f578063eb54f9ec14610ae9578063f23a6e6114610b00578063f2fde38b14610b45578063f501c2c314610b6557600080fd5b8063d7eb3f3a14610a37578063e1fc334f14610a5d578063e785475114610a7e578063e985e9c514610aa057600080fd5b8063c87b56dd116100dc578063c87b56dd146109cd578063cf309012146109ed578063d73792a914610a08578063d756985b14610a2057600080fd5b8063b88d4fde14610938578063bc197c8114610958578063bcfbb611146109b657600080fd5b8063931688cb1161017a578063a22cb46511610149578063a22cb465146108c3578063a479cf04146108e3578063a713b02914610903578063b155d57e1461091857600080fd5b8063931688cb1461085757806395d89b41146108775780639c54df641461088c578063a04a6ac8146108ac57600080fd5b80638705e6a4116101b65780638705e6a4146107ec5780638da5cb5b146108045780638ecd895514610822578063918b5be11461083757600080fd5b80637bd1085b1461076b5780637f0429ef1461078b578063822b0ceb146107b257600080fd5b806331416a29116102c15780636352211e1161025f5780636cb801171161022e5780636cb801171461070157806370a0823114610721578063715018a61461074157806376f03dbb1461075657600080fd5b80636352211e1461067b57806367add6e51461069b578063685fe5e6146106bb5780636c0360eb146106ec57600080fd5b806342842e0e1161029b57806342842e0e1461061e57806345ce1fd11461063e5780634b449cba146106515780635711c2e61461066857600080fd5b806331416a29146105c9578063377e11e0146105e9578063392f37e91461060957600080fd5b80631af9fd17116103395780632cca7bb0116103085780632cca7bb01461052a5780632d9bace01461055b5780632dafcb221461057b5780632f7801f41461059b57600080fd5b80631af9fd17146104a05780631b1b7120146104b557806323b872dd146104e65780632504aaa81461050657600080fd5b8063095ea7b311610375578063095ea7b31461042b5780630bdc21cb1461044d578063100f1f321461047257806314e6d3d41461048b57600080fd5b806301ffc9a71461039c57806306fdde03146103d1578063081812fc146103f3575b600080fd5b3480156103a857600080fd5b506103bc6103b7366004613a67565b610b7a565b60405190151581526020015b60405180910390f35b3480156103dd57600080fd5b506103e6610bbe565b6040516103c89190613ad4565b3480156103ff57600080fd5b5061041361040e366004613ae7565b610c50565b6040516001600160a01b0390911681526020016103c8565b34801561043757600080fd5b5061044b610446366004613b17565b610cea565b005b34801561045957600080fd5b506104646101395481565b6040519081526020016103c8565b34801561047e57600080fd5b506101325460ff166103bc565b34801561049757600080fd5b5061044b610e39565b3480156104ac57600080fd5b506103e6610ec9565b3480156104c157600080fd5b506104d56104d0366004613ae7565b610ed9565b6040516103c8959493929190613bd1565b3480156104f257600080fd5b5061044b610501366004613c3e565b611372565b34801561051257600080fd5b506101325461010090046001600160a01b0316610413565b34801561053657600080fd5b50610464610545366004613ae7565b600090815261013b602052604090206001015490565b34801561056757600080fd5b5061044b610576366004613ae7565b6113f9565b34801561058757600080fd5b50610464610596366004613cc6565b61157a565b3480156105a757600080fd5b506104646105b6366004613d08565b61013c6020526000908152604090205481565b3480156105d557600080fd5b5061044b6105e4366004613de8565b611762565b3480156105f557600080fd5b5061044b610604366004613cc6565b611869565b34801561061557600080fd5b506103e66118d1565b34801561062a57600080fd5b5061044b610639366004613c3e565b611960565b61044b61064c366004613e98565b61197b565b34801561065d57600080fd5b506104646101365481565b61044b610676366004613f04565b611b79565b34801561068757600080fd5b50610413610696366004613ae7565b611b8f565b3480156106a757600080fd5b5061044b6106b6366004613f7f565b611c1a565b3480156106c757600080fd5b506104646106d6366004613ae7565b61013b6020526000908152604090206001015481565b3480156106f857600080fd5b506103e6611cc0565b34801561070d57600080fd5b5061044b61071c366004613ffd565b611cce565b34801561072d57600080fd5b5061046461073c366004613d08565b611e6d565b34801561074d57600080fd5b5061044b611f07565b34801561076257600080fd5b50610464611f6d565b34801561077757600080fd5b506103e6610786366004613ae7565b61202e565b34801561079757600080fd5b506107a0612063565b6040516103c89695949392919061402f565b3480156107be57600080fd5b506103bc6107cd366004613d08565b6001600160a01b0316600090815261013d602052604090205460ff1690565b3480156107f857600080fd5b506104646305f5e10081565b34801561081057600080fd5b506033546001600160a01b0316610413565b34801561082e57600080fd5b5061044b6120fb565b34801561084357600080fd5b5061044b6108523660046140f3565b6121d6565b34801561086357600080fd5b5061044b6108723660046140f3565b612264565b34801561088357600080fd5b506103e66122cc565b34801561089857600080fd5b5061044b6108a7366004613cc6565b6122db565b3480156108b857600080fd5b506104646101385481565b3480156108cf57600080fd5b5061044b6108de366004614137565b61233f565b3480156108ef57600080fd5b5061044b6108fe36600461421d565b61234a565b34801561090f57600080fd5b5061044b61242a565b34801561092457600080fd5b5061044b61093336600461432d565b6124a4565b34801561094457600080fd5b5061044b610953366004614379565b612544565b34801561096457600080fd5b5061099d610973366004614430565b7fbc197c810000000000000000000000000000000000000000000000000000000095945050505050565b6040516001600160e01b031990911681526020016103c8565b3480156109c257600080fd5b5061046461013a5481565b3480156109d957600080fd5b506103e66109e8366004613ae7565b6125cc565b3480156109f957600080fd5b50610132546103bc9060ff1681565b348015610a1457600080fd5b50610464633b9aca0081565b348015610a2c57600080fd5b506104646101375481565b348015610a4357600080fd5b50610132546104139061010090046001600160a01b031681565b348015610a6957600080fd5b5061012d54610413906001600160a01b031681565b348015610a8a57600080fd5b50610a936126c2565b6040516103c891906144da565b348015610aac57600080fd5b506103bc610abb3660046144ed565b6001600160a01b039182166000908152609c6020908152604080832093909416825291909152205460ff1690565b348015610af557600080fd5b506104646101355481565b348015610b0c57600080fd5b5061099d610b1b366004614520565b7ff23a6e610000000000000000000000000000000000000000000000000000000095945050505050565b348015610b5157600080fd5b5061044b610b60366004613d08565b6127f7565b348015610b7157600080fd5b506104646128d9565b60006001600160e01b031982167fcf309012000000000000000000000000000000000000000000000000000000001480610bb85750610bb88261293d565b92915050565b606060978054610bcd90614585565b80601f0160208091040260200160405190810160405280929190818152602001828054610bf990614585565b8015610c465780601f10610c1b57610100808354040283529160200191610c46565b820191906000526020600020905b815481529060010190602001808311610c2957829003601f168201915b5050505050905090565b6000818152609960205260408120546001600160a01b0316610cce5760405162461bcd60e51b815260206004820152602c60248201527f4552433732313a20617070726f76656420717565727920666f72206e6f6e657860448201526b34b9ba32b73a103a37b5b2b760a11b60648201526084015b60405180910390fd5b506000908152609b60205260409020546001600160a01b031690565b6000610cf582611b8f565b9050806001600160a01b0316836001600160a01b031603610d7e5760405162461bcd60e51b815260206004820152602160248201527f4552433732313a20617070726f76616c20746f2063757272656e74206f776e6560448201527f72000000000000000000000000000000000000000000000000000000000000006064820152608401610cc5565b336001600160a01b0382161480610db857506001600160a01b0381166000908152609c6020908152604080832033845290915290205460ff165b610e2a5760405162461bcd60e51b815260206004820152603860248201527f4552433732313a20617070726f76652063616c6c6572206973206e6f74206f7760448201527f6e6572206e6f7220617070726f76656420666f7220616c6c00000000000000006064820152608401610cc5565b610e34838361297b565b505050565b33600090815261013d602052604090205460ff16610e7f5760405162461bcd60e51b815260206004820152600360248201526250303160e81b6044820152606401610cc5565b6101325460ff1615610eb95760405162461bcd60e51b815260206004820152600360248201526228181960e91b6044820152606401610cc5565b610132805460ff19166001179055565b60606101348054610bcd90614585565b600081815261013b60209081526040918290208054835181840281018401909452808452606093849384938493849390929091908390830182828015610f3e57602002820191906000526020600020905b815481526020019060010190808311610f2a575b505050505095508067ffffffffffffffff811115610f5e57610f5e613d23565b604051908082528060200260200182016040528015610f9157816020015b6060815260200190600190039081610f7c5790505b5094508067ffffffffffffffff811115610fad57610fad613d23565b604051908082528060200260200182016040528015610fe057816020015b6060815260200190600190039081610fcb5790505b5093508067ffffffffffffffff811115610ffc57610ffc613d23565b60405190808252806020026020018201604052801561102f57816020015b606081526020019060019003908161101a5790505b5092508067ffffffffffffffff81111561104b5761104b613d23565b60405190808252806020026020018201604052801561107e57816020015b60608152602001906001900390816110695790505b50915060005b818110156113675761012d5487516001600160a01b039091169063e16f9c3d908990849081106110b6576110b66145bf565b60200260200101516040518263ffffffff1660e01b81526004016110dc91815260200190565b600060405180830381865afa1580156110f9573d6000803e3d6000fd5b505050506040513d6000823e601f3d908101601f19168201604052611121919081019061461a565b868281518110611133576111336145bf565b602090810291909101015261012d5487516001600160a01b039091169063db895c3990899084908110611168576111686145bf565b60200260200101516040518263ffffffff1660e01b815260040161118e91815260200190565b600060405180830381865afa1580156111ab573d6000803e3d6000fd5b505050506040513d6000823e601f3d908101601f191682016040526111d3919081019061461a565b8582815181106111e5576111e56145bf565b602090810291909101015261012d5487516001600160a01b039091169063d10f99cb9089908490811061121a5761121a6145bf565b60200260200101516040518263ffffffff1660e01b815260040161124091815260200190565b600060405180830381865afa15801561125d573d6000803e3d6000fd5b505050506040513d6000823e601f3d908101601f19168201604052611285919081019061461a565b848281518110611297576112976145bf565b602090810291909101015261012d5487516001600160a01b0390911690635b2a8efa908990849081106112cc576112cc6145bf565b60200260200101516040518263ffffffff1660e01b81526004016112f291815260200190565b600060405180830381865afa15801561130f573d6000803e3d6000fd5b505050506040513d6000823e601f3d908101601f19168201604052611337919081019061461a565b838281518110611349576113496145bf565b6020026020010181905250808061135f90614665565b915050611084565b505091939590929450565b61137c33826129e9565b6113ee5760405162461bcd60e51b815260206004820152603160248201527f4552433732313a207472616e736665722063616c6c6572206973206e6f74206f60448201527f776e6572206e6f7220617070726f7665640000000000000000000000000000006064820152608401610cc5565b610e34838383612ae0565b61140281611b8f565b6001600160a01b0316336001600160a01b0316146114625760405162461bcd60e51b815260206004820152600360248201527f53303300000000000000000000000000000000000000000000000000000000006044820152606401610cc5565b61012d54600082815261013b60205260409081902090517f5044651d0000000000000000000000000000000000000000000000000000000081526001600160a01b0390921691635044651d916114bd9133919060040161467e565b600060405180830381600087803b1580156114d757600080fd5b505af11580156114eb573d6000803e3d6000fd5b505050600082815261013b60208181526040808420600181018590558151858152808401928390529487905292909152915161152a93509091906139b6565b5061153481612cad565b6101308054906000611545836146da565b9091555050604051339082907f8d47fd541b28b73f831d6613d064b04739e29e48ec78822fdcfb579cf3c8ecc290600090a350565b61012d546040517f02afd1a10000000000000000000000000000000000000000000000000000000081526000916001600160a01b0316906302afd1a1906115c99033908790879060040161473c565b600060405180830381600087803b1580156115e357600080fd5b505af11580156115f7573d6000803e3d6000fd5b5050610130805492509050600061160d83614665565b919050555061012f5490506101315461013054111561166e5760405162461bcd60e51b815260206004820152600a60248201527f4d696e746564206f7574000000000000000000000000000000000000000000006044820152606401610cc5565b6116783382612d48565b33600081815261013c6020908152604080832054905192936116b99390920160609290921b6bffffffffffffffffffffffff19168252601482015260340190565b60408051601f198184030181529181528151602092830120600085815261013b9093529120600181018290559091506116f3908585613a01565b5033600090815261013c6020526040812080549161171083614665565b9190505550336001600160a01b0316827feb3e56751a478e501b86e03de5f91f16dfc366ad53198ff6de3ff4e61119e18086868560405161175393929190614768565b60405180910390a35092915050565b600054610100900460ff1661177d5760005460ff1615611781565b303b155b6117f35760405162461bcd60e51b815260206004820152602e60248201527f496e697469616c697a61626c653a20636f6e747261637420697320616c72656160448201527f647920696e697469616c697a65640000000000000000000000000000000000006064820152608401610cc5565b600054610100900460ff16158015611815576000805461ffff19166101011790555b61181f8787612d62565b61012d80546001600160a01b0319166001600160a01b03871617905561184484612dd7565b61184e8383612e29565b8015611860576000805461ff00191690555b50505050505050565b6033546001600160a01b031633146118c35760405162461bcd60e51b815260206004820181905260248201527f4f776e61626c653a2063616c6c6572206973206e6f7420746865206f776e65726044820152606401610cc5565b6118cd8282612e9c565b5050565b61013480546118df90614585565b80601f016020809104026020016040519081016040528092919081815260200182805461190b90614585565b80156119585780601f1061192d57610100808354040283529160200191611958565b820191906000526020600020905b81548152906001019060200180831161193b57829003601f168201915b505050505081565b610e3483838360405180602001604052806000815250612544565b8281146119ca5760405162461bcd60e51b815260206004820152600360248201527f4d303100000000000000000000000000000000000000000000000000000000006044820152606401610cc5565b6000805b82811015611a0e578383828181106119e8576119e86145bf565b90506020020135826119fa919061478c565b915080611a0681614665565b9150506119ce565b506000611a19611f6d565b611a23908361479f565b905080341015611a4f5760405162461bcd60e51b81526020600482015260006024820152604401610cc5565b61012d546040517fd81d0a150000000000000000000000000000000000000000000000000000000081526001600160a01b039091169063d81d0a1590611aa19033908a908a908a908a906004016147b6565b600060405180830381600087803b158015611abb57600080fd5b505af1158015611acf573d6000803e3d6000fd5b505050506000633b9aca006305f5e10083611aea919061479f565b611af49190614802565b90508061013a6000828254611b09919061478c565b90915550611b1990508183614816565b6101396000828254611b2b919061478c565b909155505060405133907f5e69dace42908bf940c680c4fd1884a926e1e39b2c2a350d9a0b96eeed5d32a690611b68908a908a908a908a90614829565b60405180910390a250505050505050565b611b858686868661197b565b611860828261157a565b6000818152609960205260408120546001600160a01b031680610bb85760405162461bcd60e51b815260206004820152602960248201527f4552433732313a206f776e657220717565727920666f72206e6f6e657869737460448201527f656e7420746f6b656e00000000000000000000000000000000000000000000006064820152608401610cc5565b33600090815261013d602052604090205460ff16611c605760405162461bcd60e51b815260206004820152600360248201526250303160e81b6044820152606401610cc5565b61012e611c6d858261489e565b5061013280547fffffffffffffffffffffff0000000000000000000000000000000000000000ff166101006001600160a01b03861602179055610131829055610134611cb9828261489e565b5050505050565b61012e80546118df90614585565b33600090815261013d602052604090205460ff16611d145760405162461bcd60e51b815260206004820152600360248201526250303160e81b6044820152606401610cc5565b6101325460ff16611d675760405162461bcd60e51b815260206004820152600360248201527f4d303300000000000000000000000000000000000000000000000000000000006044820152606401610cc5565b83831015611db75760405162461bcd60e51b815260206004820152600360248201527f4d303500000000000000000000000000000000000000000000000000000000006044820152606401610cc5565b81811115611e075760405162461bcd60e51b815260206004820152600360248201527f4d303600000000000000000000000000000000000000000000000000000000006044820152606401610cc5565b6101358490556101368390556101378290556101388190556040805185815260208101859052908101839052606081018290527f8a50b4310d356a636ffe634f917af814b9c1c8600f92e308f894ae14694109319060800160405180910390a150505050565b60006001600160a01b038216611eeb5760405162461bcd60e51b815260206004820152602a60248201527f4552433732313a2062616c616e636520717565727920666f7220746865207a6560448201527f726f2061646472657373000000000000000000000000000000000000000000006064820152608401610cc5565b506001600160a01b03166000908152609a602052604090205490565b6033546001600160a01b03163314611f615760405162461bcd60e51b815260206004820181905260248201527f4f776e61626c653a2063616c6c6572206973206e6f7420746865206f776e65726044820152606401610cc5565b611f6b6000612dd7565b565b600061013554421015611fc25760405162461bcd60e51b815260206004820152601a60248201527f41756374696f6e206861736e27742073746172746564207965740000000000006044820152606401610cc5565b61013654421115611fd557506101385490565b6101355461013654611fe79190614816565b6101385461013754611ff99190614816565b610135546120079042614816565b612011919061479f565b61201b9190614802565b610137546120299190614816565b905090565b606061012e61203c83612f0f565b60405160200161204d9291906149d1565b6040516020818303038152906040529050919050565b60608060608060608061012d60009054906101000a90046001600160a01b03166001600160a01b0316637f0429ef6040518163ffffffff1660e01b8152600401600060405180830381865afa1580156120c0573d6000803e3d6000fd5b505050506040513d6000823e601f3d908101601f191682016040526120e89190810190614ad1565b949b939a50919850965094509092509050565b6033546001600160a01b031633146121555760405162461bcd60e51b815260206004820181905260248201527f4f776e61626c653a2063616c6c6572206973206e6f7420746865206f776e65726044820152606401610cc5565b61013a548061218c5760405162461bcd60e51b81526020600482015260036024820152624d303760e81b6044820152606401610cc5565b600061013a81905561219f903383612faf565b6040518181527f0c8d31947f98bc63af39d31a25af89c65e76f11fa8a8cd4edae335eee677b3cc906020015b60405180910390a150565b33600090815261013d602052604090205460ff1661221c5760405162461bcd60e51b815260206004820152600360248201526250303160e81b6044820152606401610cc5565b6101325460ff16156122565760405162461bcd60e51b815260206004820152600360248201526228181960e91b6044820152606401610cc5565b610134610e34828483614bc6565b6033546001600160a01b031633146122be5760405162461bcd60e51b815260206004820181905260248201527f4f776e61626c653a2063616c6c6572206973206e6f7420746865206f776e65726044820152606401610cc5565b61012e610e34828483614bc6565b606060988054610bcd90614585565b6033546001600160a01b031633146123355760405162461bcd60e51b815260206004820181905260248201527f4f776e61626c653a2063616c6c6572206973206e6f7420746865206f776e65726044820152606401610cc5565b6118cd8282612e29565b6118cd33838361302f565b33600090815261013d602052604090205460ff166123905760405162461bcd60e51b815260206004820152600360248201526250303160e81b6044820152606401610cc5565b61012d546040517f01c8aa4b0000000000000000000000000000000000000000000000000000000081526001600160a01b03909116906301c8aa4b906123ec908d908d908d908d908d908d908d908d908d908d90600401614d34565b600060405180830381600087803b15801561240657600080fd5b505af115801561241a573d6000803e3d6000fd5b5050505050505050505050505050565b61013954806124615760405162461bcd60e51b81526020600482015260036024820152624d303760e81b6044820152606401610cc5565b6000610139819055612474903383612faf565b6040518181527fc63609f37f0a5e3a7ed2911284184dc6ba3a4b8bb831f1e1e469e1ca5dd52ed0906020016121cb565b33600090815261013d602052604090205460ff166124ea5760405162461bcd60e51b815260206004820152600360248201526250303160e81b6044820152606401610cc5565b6101325460ff16156125245760405162461bcd60e51b815260206004820152600360248201526228181960e91b6044820152606401610cc5565b60008381526101336020526040902061253e828483614bc6565b50505050565b61254e33836129e9565b6125c05760405162461bcd60e51b815260206004820152603160248201527f4552433732313a207472616e736665722063616c6c6572206973206e6f74206f60448201527f776e6572206e6f7220617070726f7665640000000000000000000000000000006064820152608401610cc5565b61253e848484846130fd565b6000818152609960205260409020546060906001600160a01b03166126595760405162461bcd60e51b815260206004820152602f60248201527f4552433732314d657461646174613a2055524920717565727920666f72206e6f60448201527f6e6578697374656e7420746f6b656e00000000000000000000000000000000006064820152608401610cc5565b600061267060408051602081019091526000815290565b9050600081511161269057604051806020016040528060008152506126bb565b8061269a8461317b565b6040516020016126ab929190614dbe565b6040516020818303038152906040525b9392505050565b606060006126ce6128d9565b90508067ffffffffffffffff8111156126e9576126e9613d23565b60405190808252806020026020018201604052801561271c57816020015b60608152602001906001900390816127075790505b50915060005b818110156127f257600081815261013360205260409020805461274490614585565b80601f016020809104026020016040519081016040528092919081815260200182805461277090614585565b80156127bd5780601f10612792576101008083540402835291602001916127bd565b820191906000526020600020905b8154815290600101906020018083116127a057829003601f168201915b50505050508382815181106127d4576127d46145bf565b602002602001018190525080806127ea90614665565b915050612722565b505090565b6033546001600160a01b031633146128515760405162461bcd60e51b815260206004820181905260248201527f4f776e61626c653a2063616c6c6572206973206e6f7420746865206f776e65726044820152606401610cc5565b6001600160a01b0381166128cd5760405162461bcd60e51b815260206004820152602660248201527f4f776e61626c653a206e6577206f776e657220697320746865207a65726f206160448201527f64647265737300000000000000000000000000000000000000000000000000006064820152608401610cc5565b6128d681612dd7565b50565b6000805b60408051600080825260208083018085528351902085835261013390915290839020909261290b9201614de4565b6040516020818303038152906040528051906020012014612938578061293081614665565b9150506128dd565b919050565b60006001600160e01b031982167f4e2312e0000000000000000000000000000000000000000000000000000000001480610bb85750610bb8826132b0565b6000818152609b6020526040902080546001600160a01b0319166001600160a01b03841690811790915581906129b082611b8f565b6001600160a01b03167f8c5be1e5ebec7d5bd14f71427d1e84f3dd0314c0f7b2291e5b200ac8c7c3b92560405160405180910390a45050565b6000818152609960205260408120546001600160a01b0316612a625760405162461bcd60e51b815260206004820152602c60248201527f4552433732313a206f70657261746f7220717565727920666f72206e6f6e657860448201526b34b9ba32b73a103a37b5b2b760a11b6064820152608401610cc5565b6000612a6d83611b8f565b9050806001600160a01b0316846001600160a01b03161480612aa85750836001600160a01b0316612a9d84610c50565b6001600160a01b0316145b80612ad857506001600160a01b038082166000908152609c602090815260408083209388168352929052205460ff165b949350505050565b826001600160a01b0316612af382611b8f565b6001600160a01b031614612b6f5760405162461bcd60e51b815260206004820152602560248201527f4552433732313a207472616e736665722066726f6d20696e636f72726563742060448201527f6f776e65720000000000000000000000000000000000000000000000000000006064820152608401610cc5565b6001600160a01b038216612bea5760405162461bcd60e51b8152602060048201526024808201527f4552433732313a207472616e7366657220746f20746865207a65726f2061646460448201527f72657373000000000000000000000000000000000000000000000000000000006064820152608401610cc5565b612bf560008261297b565b6001600160a01b0383166000908152609a60205260408120805460019290612c1e908490614816565b90915550506001600160a01b0382166000908152609a60205260408120805460019290612c4c90849061478c565b909155505060008181526099602052604080822080546001600160a01b0319166001600160a01b0386811691821790925591518493918716917fddf252ad1be2c89b69c2b068fc378daa952ba7f163c4a11628f55a4df523b3ef91a4505050565b6000612cb882611b8f565b9050612cc560008361297b565b6001600160a01b0381166000908152609a60205260408120805460019290612cee908490614816565b909155505060008281526099602052604080822080546001600160a01b0319169055518391906001600160a01b038416907fddf252ad1be2c89b69c2b068fc378daa952ba7f163c4a11628f55a4df523b3ef908390a45050565b6118cd82826040518060200160405280600081525061334b565b600054610100900460ff16612dcd5760405162461bcd60e51b815260206004820152602b60248201527f496e697469616c697a61626c653a20636f6e7472616374206973206e6f74206960448201526a6e697469616c697a696e6760a81b6064820152608401610cc5565b6118cd82826133c9565b603380546001600160a01b038381166001600160a01b0319831681179093556040519116919082907f8be0079c531659141344cd1fd0a4f28419497f9722a3daafe3b4186f6b6457e090600090a35050565b60005b81811015610e3457600161013d6000858585818110612e4d57612e4d6145bf565b9050602002016020810190612e629190613d08565b6001600160a01b031681526020810191909152604001600020805460ff191691151591909117905580612e9481614665565b915050612e2c565b60005b81811015610e3457600061013d6000858585818110612ec057612ec06145bf565b9050602002016020810190612ed59190613d08565b6001600160a01b031681526020810191909152604001600020805460ff191691151591909117905580612f0781614665565b915050612e9f565b60606000612f1c8361344d565b600101905060008167ffffffffffffffff811115612f3c57612f3c613d23565b6040519080825280601f01601f191660200182016040528015612f66576020820181803683370190505b5090508181016020015b600019017f3031323334353637383961626364656600000000000000000000000000000000600a86061a8153600a8504945084612f7057509392505050565b604080516001600160a01b038416602482015260448082018490528251808303909101815260649091019091526020810180517bffffffffffffffffffffffffffffffffffffffffffffffffffffffff167fa9059cbb00000000000000000000000000000000000000000000000000000000179052610e3490849061352f565b816001600160a01b0316836001600160a01b0316036130905760405162461bcd60e51b815260206004820152601960248201527f4552433732313a20617070726f766520746f2063616c6c6572000000000000006044820152606401610cc5565b6001600160a01b038381166000818152609c6020908152604080832094871680845294825291829020805460ff191686151590811790915591519182527f17307eab39ab6107e8899845ad3d59bd9653f200f220920489ca2b5937696c31910160405180910390a3505050565b613108848484612ae0565b61311484848484613614565b61253e5760405162461bcd60e51b815260206004820152603260248201527f4552433732313a207472616e7366657220746f206e6f6e20455243373231526560448201527131b2b4bb32b91034b6b83632b6b2b73a32b960711b6064820152608401610cc5565b6060816000036131be57505060408051808201909152600181527f3000000000000000000000000000000000000000000000000000000000000000602082015290565b8160005b81156131e857806131d281614665565b91506131e19050600a83614802565b91506131c2565b60008167ffffffffffffffff81111561320357613203613d23565b6040519080825280601f01601f19166020018201604052801561322d576020820181803683370190505b5090505b8415612ad857613242600183614816565b915061324f600a86614df0565b61325a90603061478c565b60f81b81838151811061326f5761326f6145bf565b60200101907effffffffffffffffffffffffffffffffffffffffffffffffffffffffffffff1916908160001a9053506132a9600a86614802565b9450613231565b60006001600160e01b031982167f80ac58cd00000000000000000000000000000000000000000000000000000000148061331357506001600160e01b031982167f5b5e139f00000000000000000000000000000000000000000000000000000000145b80610bb857507f01ffc9a7000000000000000000000000000000000000000000000000000000006001600160e01b0319831614610bb8565b6133558383613760565b6133626000848484613614565b610e345760405162461bcd60e51b815260206004820152603260248201527f4552433732313a207472616e7366657220746f206e6f6e20455243373231526560448201527131b2b4bb32b91034b6b83632b6b2b73a32b960711b6064820152608401610cc5565b600054610100900460ff166134345760405162461bcd60e51b815260206004820152602b60248201527f496e697469616c697a61626c653a20636f6e7472616374206973206e6f74206960448201526a6e697469616c697a696e6760a81b6064820152608401610cc5565b6097613440838261489e565b506098610e34828261489e565b6000807a184f03e93ff9f4daa797ed6e38ed64bf6a1f0100000000000000008310613496577a184f03e93ff9f4daa797ed6e38ed64bf6a1f010000000000000000830492506040015b6d04ee2d6d415b85acef810000000083106134c2576d04ee2d6d415b85acef8100000000830492506020015b662386f26fc1000083106134e057662386f26fc10000830492506010015b6305f5e10083106134f8576305f5e100830492506008015b612710831061350c57612710830492506004015b6064831061351e576064830492506002015b600a8310610bb85760010192915050565b6000613584826040518060400160405280602081526020017f5361666545524332303a206c6f772d6c6576656c2063616c6c206661696c6564815250856001600160a01b03166138a29092919063ffffffff16565b805190915015610e3457808060200190518101906135a29190614e04565b610e345760405162461bcd60e51b815260206004820152602a60248201527f5361666545524332303a204552433230206f7065726174696f6e20646964206e60448201527f6f742073756363656564000000000000000000000000000000000000000000006064820152608401610cc5565b60006001600160a01b0384163b1561375557604051630a85bd0160e11b81526001600160a01b0385169063150b7a0290613658903390899088908890600401614e21565b6020604051808303816000875af1925050508015613693575060408051601f3d908101601f1916820190925261369091810190614e5d565b60015b61373b573d8080156136c1576040519150601f19603f3d011682016040523d82523d6000602084013e6136c6565b606091505b5080516000036137335760405162461bcd60e51b815260206004820152603260248201527f4552433732313a207472616e7366657220746f206e6f6e20455243373231526560448201527131b2b4bb32b91034b6b83632b6b2b73a32b960711b6064820152608401610cc5565b805181602001fd5b6001600160e01b031916630a85bd0160e11b149050612ad8565b506001949350505050565b6001600160a01b0382166137b65760405162461bcd60e51b815260206004820181905260248201527f4552433732313a206d696e7420746f20746865207a65726f20616464726573736044820152606401610cc5565b6000818152609960205260409020546001600160a01b03161561381b5760405162461bcd60e51b815260206004820152601c60248201527f4552433732313a20746f6b656e20616c7265616479206d696e746564000000006044820152606401610cc5565b6001600160a01b0382166000908152609a6020526040812080546001929061384490849061478c565b909155505060008181526099602052604080822080546001600160a01b0319166001600160a01b03861690811790915590518392907fddf252ad1be2c89b69c2b068fc378daa952ba7f163c4a11628f55a4df523b3ef908290a45050565b6060612ad88484600085856001600160a01b0385163b6139045760405162461bcd60e51b815260206004820152601d60248201527f416464726573733a2063616c6c20746f206e6f6e2d636f6e74726163740000006044820152606401610cc5565b600080866001600160a01b031685876040516139209190614e7a565b60006040518083038185875af1925050503d806000811461395d576040519150601f19603f3d011682016040523d82523d6000602084013e613962565b606091505b509150915061397282828661397d565b979650505050505050565b6060831561398c5750816126bb565b82511561399c5782518084602001fd5b8160405162461bcd60e51b8152600401610cc59190613ad4565b8280548282559060005260206000209081019282156139f1579160200282015b828111156139f15782518255916020019190600101906139d6565b506139fd929150613a3c565b5090565b8280548282559060005260206000209081019282156139f1579160200282015b828111156139f1578235825591602001919060010190613a21565b5b808211156139fd5760008155600101613a3d565b6001600160e01b0319811681146128d657600080fd5b600060208284031215613a7957600080fd5b81356126bb81613a51565b60005b83811015613a9f578181015183820152602001613a87565b50506000910152565b60008151808452613ac0816020860160208601613a84565b601f01601f19169290920160200192915050565b6020815260006126bb6020830184613aa8565b600060208284031215613af957600080fd5b5035919050565b80356001600160a01b038116811461293857600080fd5b60008060408385031215613b2a57600080fd5b613b3383613b00565b946020939093013593505050565b600081518084526020808501945080840160005b83811015613b7157815187529582019590820190600101613b55565b509495945050505050565b600081518084526020808501808196508360051b8101915082860160005b85811015613bc4578284038952613bb2848351613aa8565b98850198935090840190600101613b9a565b5091979650505050505050565b60a081526000613be460a0830188613b41565b8281036020840152613bf68188613b7c565b90508281036040840152613c0a8187613b7c565b90508281036060840152613c1e8186613b7c565b90508281036080840152613c328185613b7c565b98975050505050505050565b600080600060608486031215613c5357600080fd5b613c5c84613b00565b9250613c6a60208501613b00565b9150604084013590509250925092565b60008083601f840112613c8c57600080fd5b50813567ffffffffffffffff811115613ca457600080fd5b6020830191508360208260051b8501011115613cbf57600080fd5b9250929050565b60008060208385031215613cd957600080fd5b823567ffffffffffffffff811115613cf057600080fd5b613cfc85828601613c7a565b90969095509350505050565b600060208284031215613d1a57600080fd5b6126bb82613b00565b634e487b7160e01b600052604160045260246000fd5b604051601f8201601f1916810167ffffffffffffffff81118282101715613d6257613d62613d23565b604052919050565b600067ffffffffffffffff821115613d8457613d84613d23565b50601f01601f191660200190565b600082601f830112613da357600080fd5b8135613db6613db182613d6a565b613d39565b818152846020838601011115613dcb57600080fd5b816020850160208301376000918101602001919091529392505050565b60008060008060008060a08789031215613e0157600080fd5b863567ffffffffffffffff80821115613e1957600080fd5b613e258a838b01613d92565b97506020890135915080821115613e3b57600080fd5b613e478a838b01613d92565b9650613e5560408a01613b00565b9550613e6360608a01613b00565b94506080890135915080821115613e7957600080fd5b50613e8689828a01613c7a565b979a9699509497509295939492505050565b60008060008060408587031215613eae57600080fd5b843567ffffffffffffffff80821115613ec657600080fd5b613ed288838901613c7a565b90965094506020870135915080821115613eeb57600080fd5b50613ef887828801613c7a565b95989497509550505050565b60008060008060008060608789031215613f1d57600080fd5b863567ffffffffffffffff80821115613f3557600080fd5b613f418a838b01613c7a565b90985096506020890135915080821115613f5a57600080fd5b613f668a838b01613c7a565b90965094506040890135915080821115613e7957600080fd5b60008060008060808587031215613f9557600080fd5b843567ffffffffffffffff80821115613fad57600080fd5b613fb988838901613d92565b9550613fc760208801613b00565b9450604087013593506060870135915080821115613fe457600080fd5b50613ff187828801613d92565b91505092959194509250565b6000806000806080858703121561401357600080fd5b5050823594602084013594506040840135936060013592509050565b60c08152600061404260c0830189613b41565b82810360208401526140548189613b7c565b905082810360408401526140688188613b7c565b9050828103606084015261407c8187613b41565b905082810360808401526140908186613b7c565b905082810360a08401526140a48185613b7c565b9998505050505050505050565b60008083601f8401126140c357600080fd5b50813567ffffffffffffffff8111156140db57600080fd5b602083019150836020828501011115613cbf57600080fd5b6000806020838503121561410657600080fd5b823567ffffffffffffffff81111561411d57600080fd5b613cfc858286016140b1565b80151581146128d657600080fd5b6000806040838503121561414a57600080fd5b61415383613b00565b9150602083013561416381614129565b809150509250929050565b600067ffffffffffffffff82111561418857614188613d23565b5060051b60200190565b600082601f8301126141a357600080fd5b813560206141b3613db18361416e565b82815260059290921b840181019181810190868411156141d257600080fd5b8286015b8481101561421257803567ffffffffffffffff8111156141f65760008081fd5b6142048986838b0101613d92565b8452509183019183016141d6565b509695505050505050565b60008060008060008060008060008060c08b8d03121561423c57600080fd5b8a3567ffffffffffffffff8082111561425457600080fd5b6142608e838f01614192565b9b5060208d013591508082111561427657600080fd5b6142828e838f01614192565b9a5060408d013591508082111561429857600080fd5b6142a48e838f01613c7a565b909a50985060608d01359150808211156142bd57600080fd5b6142c98e838f01613c7a565b909850965060808d01359150808211156142e257600080fd5b6142ee8e838f01613c7a565b909650945060a08d013591508082111561430757600080fd5b506143148d828e01613c7a565b915080935050809150509295989b9194979a5092959850565b60008060006040848603121561434257600080fd5b83359250602084013567ffffffffffffffff81111561436057600080fd5b61436c868287016140b1565b9497909650939450505050565b6000806000806080858703121561438f57600080fd5b61439885613b00565b93506143a660208601613b00565b925060408501359150606085013567ffffffffffffffff8111156143c957600080fd5b613ff187828801613d92565b600082601f8301126143e657600080fd5b813560206143f6613db18361416e565b82815260059290921b8401810191818101908684111561441557600080fd5b8286015b848110156142125780358352918301918301614419565b600080600080600060a0868803121561444857600080fd5b61445186613b00565b945061445f60208701613b00565b9350604086013567ffffffffffffffff8082111561447c57600080fd5b61448889838a016143d5565b9450606088013591508082111561449e57600080fd5b6144aa89838a016143d5565b935060808801359150808211156144c057600080fd5b506144cd88828901613d92565b9150509295509295909350565b6020815260006126bb6020830184613b7c565b6000806040838503121561450057600080fd5b61450983613b00565b915061451760208401613b00565b90509250929050565b600080600080600060a0868803121561453857600080fd5b61454186613b00565b945061454f60208701613b00565b93506040860135925060608601359150608086013567ffffffffffffffff81111561457957600080fd5b6144cd88828901613d92565b600181811c9082168061459957607f821691505b6020821081036145b957634e487b7160e01b600052602260045260246000fd5b50919050565b634e487b7160e01b600052603260045260246000fd5b600082601f8301126145e657600080fd5b81516145f4613db182613d6a565b81815284602083860101111561460957600080fd5b612ad8826020830160208701613a84565b60006020828403121561462c57600080fd5b815167ffffffffffffffff81111561464357600080fd5b612ad8848285016145d5565b634e487b7160e01b600052601160045260246000fd5b6000600182016146775761467761464f565b5060010190565b6000604082016001600160a01b038516835260206040818501528185548084526060860191508660005282600020935060005b818110156146cd578454835260019485019492840192016146b1565b5090979650505050505050565b6000816146e9576146e961464f565b506000190190565b81835260007f07ffffffffffffffffffffffffffffffffffffffffffffffffffffffffffffff83111561472357600080fd5b8260051b80836020870137939093016020019392505050565b6001600160a01b038416815260406020820152600061475f6040830184866146f1565b95945050505050565b60408152600061477c6040830185876146f1565b9050826020830152949350505050565b80820180821115610bb857610bb861464f565b8082028115828204841417610bb857610bb861464f565b6001600160a01b03861681526060602082015260006147d96060830186886146f1565b8281036040840152613c328185876146f1565b634e487b7160e01b600052601260045260246000fd5b600082614811576148116147ec565b500490565b81810381811115610bb857610bb861464f565b60408152600061483d6040830186886146f1565b82810360208401526139728185876146f1565b601f821115610e3457600081815260208120601f850160051c810160208610156148775750805b601f850160051c820191505b8181101561489657828155600101614883565b505050505050565b815167ffffffffffffffff8111156148b8576148b8613d23565b6148cc816148c68454614585565b84614850565b602080601f83116001811461490157600084156148e95750858301515b600019600386901b1c1916600185901b178555614896565b600085815260208120601f198616915b8281101561493057888601518255948401946001909101908401614911565b508582101561494e5787850151600019600388901b60f8161c191681555b5050505050600190811b01905550565b6000815461496b81614585565b600182811680156149835760018114614998576149c7565b60ff19841687528215158302870194506149c7565b8560005260208060002060005b858110156149be5781548a8201529084019082016149a5565b50505082870194505b5050505092915050565b60006149dd828561495e565b83516149ed818360208801613a84565b01949350505050565b600082601f830112614a0757600080fd5b81516020614a17613db18361416e565b82815260059290921b84018101918181019086841115614a3657600080fd5b8286015b848110156142125780518352918301918301614a3a565b600082601f830112614a6257600080fd5b81516020614a72613db18361416e565b82815260059290921b84018101918181019086841115614a9157600080fd5b8286015b8481101561421257805167ffffffffffffffff811115614ab55760008081fd5b614ac38986838b01016145d5565b845250918301918301614a95565b60008060008060008060c08789031215614aea57600080fd5b865167ffffffffffffffff80821115614b0257600080fd5b614b0e8a838b016149f6565b97506020890151915080821115614b2457600080fd5b614b308a838b01614a51565b96506040890151915080821115614b4657600080fd5b614b528a838b01614a51565b95506060890151915080821115614b6857600080fd5b614b748a838b016149f6565b94506080890151915080821115614b8a57600080fd5b614b968a838b01614a51565b935060a0890151915080821115614bac57600080fd5b50614bb989828a01614a51565b9150509295509295509295565b67ffffffffffffffff831115614bde57614bde613d23565b614bf283614bec8354614585565b83614850565b6000601f841160018114614c265760008515614c0e5750838201355b600019600387901b1c1916600186901b178355611cb9565b600083815260209020601f19861690835b82811015614c575786850135825560209485019460019092019101614c37565b5086821015614c745760001960f88860031b161c19848701351681555b505060018560011b0183555050505050565b81835281816020850137506000828201602090810191909152601f909101601f19169091010190565b81835260006020808501808196508560051b810191508460005b87811015613bc45782840389528135601e19883603018112614cea57600080fd5b8701858101903567ffffffffffffffff811115614d0657600080fd5b803603821315614d1557600080fd5b614d20868284614c86565b9a87019a9550505090840190600101614cc9565b60c081526000614d4760c083018d613b7c565b8281036020840152614d59818d613b7c565b90508281036040840152614d6e818b8d614caf565b90508281036060840152614d8381898b614caf565b90508281036080840152614d988187896146f1565b905082810360a0840152614dad8185876146f1565b9d9c50505050505050505050505050565b60008351614dd0818460208801613a84565b8351908301906149ed818360208801613a84565b60006126bb828461495e565b600082614dff57614dff6147ec565b500690565b600060208284031215614e1657600080fd5b81516126bb81614129565b60006001600160a01b03808716835280861660208401525083604083015260806060830152614e536080830184613aa8565b9695505050505050565b600060208284031215614e6f57600080fd5b81516126bb81613a51565b60008251614e8c818460208701613a84565b919091019291505056fea2646970667358221220ff66af6aac62152577d20de965932f69f57da9b97961eb11a6e9803c1fd189e164736f6c63430008110033",
  "devdoc": {
    "kind": "dev",
    "methods": {
      "approve(address,uint256)": {
        "details": "See {IERC721-approve}."
      },
      "balanceOf(address)": {
        "details": "See {IERC721-balanceOf}."
      },
      "getApproved(uint256)": {
        "details": "See {IERC721-getApproved}."
      },
      "isApprovedForAll(address,address)": {
        "details": "See {IERC721-isApprovedForAll}."
      },
      "name()": {
        "details": "See {IERC721Metadata-name}."
      },
      "owner()": {
        "details": "Returns the address of the current owner."
      },
      "ownerOf(uint256)": {
        "details": "See {IERC721-ownerOf}."
      },
      "renounceOwnership()": {
        "details": "Leaves the contract without owner. It will not be possible to call `onlyOwner` functions anymore. Can only be called by the current owner. NOTE: Renouncing ownership will leave the contract without an owner, thereby removing any functionality that is only available to the owner."
      },
      "safeTransferFrom(address,address,uint256)": {
        "details": "See {IERC721-safeTransferFrom}."
      },
      "safeTransferFrom(address,address,uint256,bytes)": {
        "details": "See {IERC721-safeTransferFrom}."
      },
      "setApprovalForAll(address,bool)": {
        "details": "See {IERC721-setApprovalForAll}."
      },
      "symbol()": {
        "details": "See {IERC721Metadata-symbol}."
      },
      "tokenURI(uint256)": {
        "details": "See {IERC721Metadata-tokenURI}."
      },
      "transferFrom(address,address,uint256)": {
        "details": "See {IERC721-transferFrom}."
      },
      "transferOwnership(address)": {
        "details": "Transfers ownership of the contract to a new account (`newOwner`). Can only be called by the current owner."
      }
    },
    "version": 1
  },
  "userdoc": {
    "kind": "user",
    "methods": {},
    "version": 1
  },
  "storageLayout": {
    "storage": [
      {
        "astId": 130,
        "contract": "contracts/Studio.sol:Studio",
        "label": "_initialized",
        "offset": 0,
        "slot": "0",
        "type": "t_bool"
      },
      {
        "astId": 133,
        "contract": "contracts/Studio.sol:Studio",
        "label": "_initializing",
        "offset": 1,
        "slot": "0",
        "type": "t_bool"
      },
      {
        "astId": 3498,
        "contract": "contracts/Studio.sol:Studio",
        "label": "__gap",
        "offset": 0,
        "slot": "1",
        "type": "t_array(t_uint256)50_storage"
      },
      {
        "astId": 10,
        "contract": "contracts/Studio.sol:Studio",
        "label": "_owner",
        "offset": 0,
        "slot": "51",
        "type": "t_address"
      },
      {
        "astId": 122,
        "contract": "contracts/Studio.sol:Studio",
        "label": "__gap",
        "offset": 0,
        "slot": "52",
        "type": "t_array(t_uint256)49_storage"
      },
      {
        "astId": 3745,
        "contract": "contracts/Studio.sol:Studio",
        "label": "__gap",
        "offset": 0,
        "slot": "101",
        "type": "t_array(t_uint256)50_storage"
      },
      {
        "astId": 2191,
        "contract": "contracts/Studio.sol:Studio",
        "label": "_name",
        "offset": 0,
        "slot": "151",
        "type": "t_string_storage"
      },
      {
        "astId": 2193,
        "contract": "contracts/Studio.sol:Studio",
        "label": "_symbol",
        "offset": 0,
        "slot": "152",
        "type": "t_string_storage"
      },
      {
        "astId": 2197,
        "contract": "contracts/Studio.sol:Studio",
        "label": "_owners",
        "offset": 0,
        "slot": "153",
        "type": "t_mapping(t_uint256,t_address)"
      },
      {
        "astId": 2201,
        "contract": "contracts/Studio.sol:Studio",
        "label": "_balances",
        "offset": 0,
        "slot": "154",
        "type": "t_mapping(t_address,t_uint256)"
      },
      {
        "astId": 2205,
        "contract": "contracts/Studio.sol:Studio",
        "label": "_tokenApprovals",
        "offset": 0,
        "slot": "155",
        "type": "t_mapping(t_uint256,t_address)"
      },
      {
        "astId": 2211,
        "contract": "contracts/Studio.sol:Studio",
        "label": "_operatorApprovals",
        "offset": 0,
        "slot": "156",
        "type": "t_mapping(t_address,t_mapping(t_address,t_bool))"
      },
      {
        "astId": 3052,
        "contract": "contracts/Studio.sol:Studio",
        "label": "__gap",
        "offset": 0,
        "slot": "157",
        "type": "t_array(t_uint256)44_storage"
      },
      {
        "astId": 1859,
        "contract": "contracts/Studio.sol:Studio",
        "label": "__gap",
        "offset": 0,
        "slot": "201",
        "type": "t_array(t_uint256)50_storage"
      },
      {
        "astId": 1805,
        "contract": "contracts/Studio.sol:Studio",
        "label": "__gap",
        "offset": 0,
        "slot": "251",
        "type": "t_array(t_uint256)50_storage"
      },
      {
        "astId": 4562,
        "contract": "contracts/Studio.sol:Studio",
        "label": "traits",
        "offset": 0,
        "slot": "301",
        "type": "t_contract(ITraits)6475"
      },
      {
        "astId": 4564,
        "contract": "contracts/Studio.sol:Studio",
        "label": "baseURI",
        "offset": 0,
        "slot": "302",
        "type": "t_string_storage"
      },
      {
        "astId": 4573,
        "contract": "contracts/Studio.sol:Studio",
        "label": "nextTokenId",
        "offset": 0,
        "slot": "303",
        "type": "t_uint256"
      },
      {
        "astId": 4575,
        "contract": "contracts/Studio.sol:Studio",
        "label": "totalSupply",
        "offset": 0,
        "slot": "304",
        "type": "t_uint256"
      },
      {
        "astId": 4577,
        "contract": "contracts/Studio.sol:Studio",
        "label": "maxSupply",
        "offset": 0,
        "slot": "305",
        "type": "t_uint256"
      },
      {
        "astId": 4579,
        "contract": "contracts/Studio.sol:Studio",
        "label": "locked",
        "offset": 0,
        "slot": "306",
        "type": "t_bool"
      },
      {
        "astId": 4581,
        "contract": "contracts/Studio.sol:Studio",
        "label": "artistAddress",
        "offset": 1,
        "slot": "306",
        "type": "t_address"
      },
      {
        "astId": 4585,
        "contract": "contracts/Studio.sol:Studio",
        "label": "scripts",
        "offset": 0,
        "slot": "307",
        "type": "t_mapping(t_uint256,t_string_storage)"
      },
      {
        "astId": 4587,
        "contract": "contracts/Studio.sol:Studio",
        "label": "metadata",
        "offset": 0,
        "slot": "308",
        "type": "t_string_storage"
      },
      {
        "astId": 4589,
        "contract": "contracts/Studio.sol:Studio",
        "label": "auctionStartTime",
        "offset": 0,
        "slot": "309",
        "type": "t_uint256"
      },
      {
        "astId": 4591,
        "contract": "contracts/Studio.sol:Studio",
        "label": "auctionEndTime",
        "offset": 0,
        "slot": "310",
        "type": "t_uint256"
      },
      {
        "astId": 4593,
        "contract": "contracts/Studio.sol:Studio",
        "label": "auctionStartPrice",
        "offset": 0,
        "slot": "311",
        "type": "t_uint256"
      },
      {
        "astId": 4595,
        "contract": "contracts/Studio.sol:Studio",
        "label": "auctionEndPrice",
        "offset": 0,
        "slot": "312",
        "type": "t_uint256"
      },
      {
        "astId": 4597,
        "contract": "contracts/Studio.sol:Studio",
        "label": "artistClaimableRevenues",
        "offset": 0,
        "slot": "313",
        "type": "t_uint256"
      },
      {
        "astId": 4599,
        "contract": "contracts/Studio.sol:Studio",
        "label": "platformClaimableRevenues",
        "offset": 0,
        "slot": "314",
        "type": "t_uint256"
      },
      {
        "astId": 4610,
        "contract": "contracts/Studio.sol:Studio",
        "label": "artworkData",
        "offset": 0,
        "slot": "315",
        "type": "t_mapping(t_uint256,t_struct(ArtworkData)4605_storage)"
      },
      {
        "astId": 4614,
        "contract": "contracts/Studio.sol:Studio",
        "label": "userNonces",
        "offset": 0,
        "slot": "316",
        "type": "t_mapping(t_address,t_uint256)"
      },
      {
        "astId": 4618,
        "contract": "contracts/Studio.sol:Studio",
        "label": "admins",
        "offset": 0,
        "slot": "317",
        "type": "t_mapping(t_address,t_bool)"
      }
    ],
    "types": {
      "t_address": {
        "encoding": "inplace",
        "label": "address",
        "numberOfBytes": "20"
      },
      "t_array(t_uint256)44_storage": {
        "base": "t_uint256",
        "encoding": "inplace",
        "label": "uint256[44]",
        "numberOfBytes": "1408"
      },
      "t_array(t_uint256)49_storage": {
        "base": "t_uint256",
        "encoding": "inplace",
        "label": "uint256[49]",
        "numberOfBytes": "1568"
      },
      "t_array(t_uint256)50_storage": {
        "base": "t_uint256",
        "encoding": "inplace",
        "label": "uint256[50]",
        "numberOfBytes": "1600"
      },
      "t_array(t_uint256)dyn_storage": {
        "base": "t_uint256",
        "encoding": "dynamic_array",
        "label": "uint256[]",
        "numberOfBytes": "32"
      },
      "t_bool": {
        "encoding": "inplace",
        "label": "bool",
        "numberOfBytes": "1"
      },
      "t_bytes32": {
        "encoding": "inplace",
        "label": "bytes32",
        "numberOfBytes": "32"
      },
      "t_contract(ITraits)6475": {
        "encoding": "inplace",
        "label": "contract ITraits",
        "numberOfBytes": "20"
      },
      "t_mapping(t_address,t_bool)": {
        "encoding": "mapping",
        "key": "t_address",
        "label": "mapping(address => bool)",
        "numberOfBytes": "32",
        "value": "t_bool"
      },
      "t_mapping(t_address,t_mapping(t_address,t_bool))": {
        "encoding": "mapping",
        "key": "t_address",
        "label": "mapping(address => mapping(address => bool))",
        "numberOfBytes": "32",
        "value": "t_mapping(t_address,t_bool)"
      },
      "t_mapping(t_address,t_uint256)": {
        "encoding": "mapping",
        "key": "t_address",
        "label": "mapping(address => uint256)",
        "numberOfBytes": "32",
        "value": "t_uint256"
      },
      "t_mapping(t_uint256,t_address)": {
        "encoding": "mapping",
        "key": "t_uint256",
        "label": "mapping(uint256 => address)",
        "numberOfBytes": "32",
        "value": "t_address"
      },
      "t_mapping(t_uint256,t_string_storage)": {
        "encoding": "mapping",
        "key": "t_uint256",
        "label": "mapping(uint256 => string)",
        "numberOfBytes": "32",
        "value": "t_string_storage"
      },
      "t_mapping(t_uint256,t_struct(ArtworkData)4605_storage)": {
        "encoding": "mapping",
        "key": "t_uint256",
        "label": "mapping(uint256 => struct Studio.ArtworkData)",
        "numberOfBytes": "32",
        "value": "t_struct(ArtworkData)4605_storage"
      },
      "t_string_storage": {
        "encoding": "bytes",
        "label": "string",
        "numberOfBytes": "32"
      },
      "t_struct(ArtworkData)4605_storage": {
        "encoding": "inplace",
        "label": "struct Studio.ArtworkData",
        "members": [
          {
            "astId": 4602,
            "contract": "contracts/Studio.sol:Studio",
            "label": "traitTokenIds",
            "offset": 0,
            "slot": "0",
            "type": "t_array(t_uint256)dyn_storage"
          },
          {
            "astId": 4604,
            "contract": "contracts/Studio.sol:Studio",
            "label": "hash",
            "offset": 0,
            "slot": "1",
            "type": "t_bytes32"
          }
        ],
        "numberOfBytes": "64"
      },
      "t_uint256": {
        "encoding": "inplace",
        "label": "uint256",
        "numberOfBytes": "32"
      }
    }
  }
}