{
  "address": "0x8E6A3A8cCC96aFa982082d83717AD018d78c1100",
  "abi": [
    {
      "anonymous": false,
      "inputs": [
        {
          "indexed": true,
          "internalType": "address",
          "name": "owner",
          "type": "address"
        },
        {
          "indexed": true,
          "internalType": "address",
          "name": "approved",
          "type": "address"
        },
        {
          "indexed": true,
          "internalType": "uint256",
          "name": "tokenId",
          "type": "uint256"
        }
      ],
      "name": "Approval",
      "type": "event"
    },
    {
      "anonymous": false,
      "inputs": [
        {
          "indexed": true,
          "internalType": "address",
          "name": "owner",
          "type": "address"
        },
        {
          "indexed": true,
          "internalType": "address",
          "name": "operator",
          "type": "address"
        },
        {
          "indexed": false,
          "internalType": "bool",
          "name": "approved",
          "type": "bool"
        }
      ],
      "name": "ApprovalForAll",
      "type": "event"
    },
    {
      "anonymous": false,
      "inputs": [
        {
          "indexed": false,
          "internalType": "uint256",
          "name": "claimedRevenue",
          "type": "uint256"
        }
      ],
      "name": "ArtistRevenueClaimed",
      "type": "event"
    },
    {
      "anonymous": false,
      "inputs": [
        {
          "indexed": true,
          "internalType": "uint256",
          "name": "artworkTokenId",
          "type": "uint256"
        },
        {
          "indexed": false,
          "internalType": "uint256[]",
          "name": "traitTokenIds",
          "type": "uint256[]"
        },
        {
          "indexed": false,
          "internalType": "bytes32",
          "name": "hash",
          "type": "bytes32"
        },
        {
          "indexed": true,
          "internalType": "address",
          "name": "creator",
          "type": "address"
        }
      ],
      "name": "ArtworkCreated",
      "type": "event"
    },
    {
      "anonymous": false,
      "inputs": [
        {
          "indexed": true,
          "internalType": "uint256",
          "name": "artworkTokenId",
          "type": "uint256"
        },
        {
          "indexed": true,
          "internalType": "address",
          "name": "caller",
          "type": "address"
        }
      ],
      "name": "ArtworkDecomposed",
      "type": "event"
    },
    {
      "anonymous": false,
      "inputs": [
        {
          "indexed": false,
          "internalType": "uint256",
          "name": "auctionStartTime",
          "type": "uint256"
        },
        {
          "indexed": false,
          "internalType": "uint256",
          "name": "auctionEndTime",
          "type": "uint256"
        },
        {
          "indexed": false,
          "internalType": "uint256",
          "name": "auctionStartPrice",
          "type": "uint256"
        },
        {
          "indexed": false,
          "internalType": "uint256",
          "name": "auctionEndPrice",
          "type": "uint256"
        }
      ],
      "name": "AuctionScheduled",
      "type": "event"
    },
    {
      "anonymous": false,
      "inputs": [
        {
          "indexed": true,
          "internalType": "address",
          "name": "previousOwner",
          "type": "address"
        },
        {
          "indexed": true,
          "internalType": "address",
          "name": "newOwner",
          "type": "address"
        }
      ],
      "name": "OwnershipTransferred",
      "type": "event"
    },
    {
      "anonymous": false,
      "inputs": [
        {
          "indexed": false,
          "internalType": "uint256",
          "name": "claimedRevenue",
          "type": "uint256"
        }
      ],
      "name": "PlatformRevenueClaimed",
      "type": "event"
    },
    {
      "anonymous": false,
      "inputs": [
        {
          "indexed": false,
          "internalType": "string",
          "name": "baseURI",
          "type": "string"
        },
        {
          "indexed": false,
          "internalType": "address",
          "name": "artistAddress",
          "type": "address"
        },
        {
          "indexed": false,
          "internalType": "uint256",
          "name": "maxSupply",
          "type": "uint256"
        },
        {
          "indexed": false,
          "internalType": "string",
          "name": "metadata",
          "type": "string"
        }
      ],
      "name": "ProjectCreated",
      "type": "event"
    },
    {
      "anonymous": false,
      "inputs": [
        {
          "indexed": true,
          "internalType": "address",
          "name": "buyer",
          "type": "address"
        },
        {
          "indexed": false,
          "internalType": "uint256[]",
          "name": "traitTokenIds",
          "type": "uint256[]"
        },
        {
          "indexed": false,
          "internalType": "uint256[]",
          "name": "traitQuantities",
          "type": "uint256[]"
        }
      ],
      "name": "TraitsBought",
      "type": "event"
    },
    {
      "anonymous": false,
      "inputs": [
        {
          "indexed": true,
          "internalType": "address",
          "name": "from",
          "type": "address"
        },
        {
          "indexed": true,
          "internalType": "address",
          "name": "to",
          "type": "address"
        },
        {
          "indexed": true,
          "internalType": "uint256",
          "name": "tokenId",
          "type": "uint256"
        }
      ],
      "name": "Transfer",
      "type": "event"
    },
    {
      "inputs": [],
      "name": "FEE_DENOMINATOR",
      "outputs": [
        {
          "internalType": "uint256",
          "name": "",
          "type": "uint256"
        }
      ],
      "stateMutability": "view",
      "type": "function"
    },
    {
      "inputs": [
        {
          "internalType": "address[]",
          "name": "_admins",
          "type": "address[]"
        }
      ],
      "name": "addAdmins",
      "outputs": [],
      "stateMutability": "nonpayable",
      "type": "function"
    },
    {
      "inputs": [
        {
          "internalType": "address",
          "name": "to",
          "type": "address"
        },
        {
          "internalType": "uint256",
          "name": "tokenId",
          "type": "uint256"
        }
      ],
      "name": "approve",
      "outputs": [],
      "stateMutability": "nonpayable",
      "type": "function"
    },
    {
      "inputs": [],
      "name": "artistAddress",
      "outputs": [
        {
          "internalType": "address",
          "name": "",
          "type": "address"
        }
      ],
      "stateMutability": "view",
      "type": "function"
    },
    {
      "inputs": [],
      "name": "artistClaimableRevenues",
      "outputs": [
        {
          "internalType": "uint256",
          "name": "",
          "type": "uint256"
        }
      ],
      "stateMutability": "view",
      "type": "function"
    },
    {
      "inputs": [
        {
          "internalType": "uint256",
          "name": "",
          "type": "uint256"
        }
      ],
      "name": "artworkData",
      "outputs": [
        {
          "internalType": "bytes32",
          "name": "hash",
          "type": "bytes32"
        }
      ],
      "stateMutability": "view",
      "type": "function"
    },
    {
      "inputs": [],
      "name": "auctionEndPrice",
      "outputs": [
        {
          "internalType": "uint256",
          "name": "",
          "type": "uint256"
        }
      ],
      "stateMutability": "view",
      "type": "function"
    },
    {
      "inputs": [],
      "name": "auctionEndTime",
      "outputs": [
        {
          "internalType": "uint256",
          "name": "",
          "type": "uint256"
        }
      ],
      "stateMutability": "view",
      "type": "function"
    },
    {
      "inputs": [],
      "name": "auctionPlatformFeeNumerator",
      "outputs": [
        {
          "internalType": "uint256",
          "name": "",
          "type": "uint256"
        }
      ],
      "stateMutability": "view",
      "type": "function"
    },
    {
      "inputs": [],
      "name": "auctionStartPrice",
      "outputs": [
        {
          "internalType": "uint256",
          "name": "",
          "type": "uint256"
        }
      ],
      "stateMutability": "view",
      "type": "function"
    },
    {
      "inputs": [],
      "name": "auctionStartTime",
      "outputs": [
        {
          "internalType": "uint256",
          "name": "",
          "type": "uint256"
        }
      ],
      "stateMutability": "view",
      "type": "function"
    },
    {
      "inputs": [
        {
          "internalType": "address",
          "name": "owner",
          "type": "address"
        }
      ],
      "name": "balanceOf",
      "outputs": [
        {
          "internalType": "uint256",
          "name": "",
          "type": "uint256"
        }
      ],
      "stateMutability": "view",
      "type": "function"
    },
    {
      "inputs": [],
      "name": "baseURI",
      "outputs": [
        {
          "internalType": "string",
          "name": "",
          "type": "string"
        }
      ],
      "stateMutability": "view",
      "type": "function"
    },
    {
      "inputs": [
        {
          "internalType": "uint256[]",
          "name": "_traitTokenIds",
          "type": "uint256[]"
        },
        {
          "internalType": "uint256[]",
          "name": "_traitAmounts",
          "type": "uint256[]"
        }
      ],
      "name": "buyTraits",
      "outputs": [],
      "stateMutability": "payable",
      "type": "function"
    },
    {
      "inputs": [
        {
          "internalType": "uint256[]",
          "name": "_traitTokenIdsToBuy",
          "type": "uint256[]"
        },
        {
          "internalType": "uint256[]",
          "name": "_traitQuantitiesToBuy",
          "type": "uint256[]"
        },
        {
          "internalType": "uint256[]",
          "name": "_traitTokenIdsToCreateArtwork",
          "type": "uint256[]"
        }
      ],
      "name": "buyTraitsCreateArtwork",
      "outputs": [],
      "stateMutability": "payable",
      "type": "function"
    },
    {
      "inputs": [],
      "name": "claimArtistRevenue",
      "outputs": [],
      "stateMutability": "nonpayable",
      "type": "function"
    },
    {
      "inputs": [],
      "name": "claimPlatformRevenue",
      "outputs": [],
      "stateMutability": "nonpayable",
      "type": "function"
    },
    {
      "inputs": [
        {
          "internalType": "uint256[]",
          "name": "_traitTokenIds",
          "type": "uint256[]"
        }
      ],
      "name": "createArtwork",
      "outputs": [
        {
          "internalType": "uint256",
          "name": "_artworkTokenId",
          "type": "uint256"
        }
      ],
      "stateMutability": "nonpayable",
      "type": "function"
    },
    {
      "inputs": [
        {
          "internalType": "string",
          "name": "_baseURI",
          "type": "string"
        },
        {
          "internalType": "address",
          "name": "_artistAddress",
          "type": "address"
        },
        {
          "internalType": "uint256",
          "name": "_maxSupply",
          "type": "uint256"
        },
        {
          "internalType": "string",
          "name": "_metadata",
          "type": "string"
        }
      ],
      "name": "createProject",
      "outputs": [],
      "stateMutability": "nonpayable",
      "type": "function"
    },
    {
      "inputs": [
        {
          "internalType": "string[]",
          "name": "_traitTypeNames",
          "type": "string[]"
        },
        {
          "internalType": "string[]",
          "name": "_traitTypeValues",
          "type": "string[]"
        },
        {
          "internalType": "string[]",
          "name": "_traitNames",
          "type": "string[]"
        },
        {
          "internalType": "string[]",
          "name": "_traitValues",
          "type": "string[]"
        },
        {
          "internalType": "uint256[]",
          "name": "_traitTypeIndexes",
          "type": "uint256[]"
        },
        {
          "internalType": "uint256[]",
          "name": "_traitMaxSupplys",
          "type": "uint256[]"
        }
      ],
      "name": "createTraits",
      "outputs": [],
      "stateMutability": "nonpayable",
      "type": "function"
    },
    {
      "inputs": [
        {
          "internalType": "uint256",
          "name": "_artworkTokenId",
          "type": "uint256"
        }
      ],
      "name": "decomposeArtwork",
      "outputs": [],
      "stateMutability": "nonpayable",
      "type": "function"
    },
    {
      "inputs": [
        {
          "internalType": "uint256",
          "name": "tokenId",
          "type": "uint256"
        }
      ],
      "name": "getApproved",
      "outputs": [
        {
          "internalType": "address",
          "name": "",
          "type": "address"
        }
      ],
      "stateMutability": "view",
      "type": "function"
    },
    {
      "inputs": [
        {
          "internalType": "uint256",
          "name": "_artworkId",
          "type": "uint256"
        }
      ],
      "name": "getArtworkHash",
      "outputs": [
        {
          "internalType": "bytes32",
          "name": "",
          "type": "bytes32"
        }
      ],
      "stateMutability": "view",
      "type": "function"
    },
    {
      "inputs": [
        {
          "internalType": "uint256",
          "name": "_artworkTokenId",
          "type": "uint256"
        }
      ],
      "name": "getArtworkTraits",
      "outputs": [
        {
          "internalType": "uint256[]",
          "name": "traitTokenIds",
          "type": "uint256[]"
        },
        {
          "internalType": "string[]",
          "name": "traitNames",
          "type": "string[]"
        },
        {
          "internalType": "string[]",
          "name": "traitValues",
          "type": "string[]"
        },
        {
          "internalType": "string[]",
          "name": "traitTypeNames",
          "type": "string[]"
        },
        {
          "internalType": "string[]",
          "name": "traitTypeValues",
          "type": "string[]"
        }
      ],
      "stateMutability": "view",
      "type": "function"
    },
    {
      "inputs": [
        {
          "internalType": "uint256",
          "name": "_artworkTokenId",
          "type": "uint256"
        }
      ],
      "name": "getArtworkURI",
      "outputs": [
        {
          "internalType": "string",
          "name": "",
          "type": "string"
        }
      ],
      "stateMutability": "view",
      "type": "function"
    },
    {
      "inputs": [
        {
          "internalType": "address",
          "name": "_admin",
          "type": "address"
        }
      ],
      "name": "getIsAdmin",
      "outputs": [
        {
          "internalType": "bool",
          "name": "",
          "type": "bool"
        }
      ],
      "stateMutability": "view",
      "type": "function"
    },
    {
      "inputs": [],
      "name": "getProjectArtist",
      "outputs": [
        {
          "internalType": "address",
          "name": "",
          "type": "address"
        }
      ],
      "stateMutability": "view",
      "type": "function"
    },
    {
      "inputs": [],
      "name": "getProjectIsLocked",
      "outputs": [
        {
          "internalType": "bool",
          "name": "",
          "type": "bool"
        }
      ],
      "stateMutability": "view",
      "type": "function"
    },
    {
      "inputs": [],
      "name": "getProjectMetadata",
      "outputs": [
        {
          "internalType": "string",
          "name": "",
          "type": "string"
        }
      ],
      "stateMutability": "view",
      "type": "function"
    },
    {
      "inputs": [],
      "name": "getProjectScriptCount",
      "outputs": [
        {
          "internalType": "uint256",
          "name": "",
          "type": "uint256"
        }
      ],
      "stateMutability": "view",
      "type": "function"
    },
    {
      "inputs": [],
      "name": "getProjectScripts",
      "outputs": [
        {
          "internalType": "string[]",
          "name": "_scripts",
          "type": "string[]"
        }
      ],
      "stateMutability": "view",
      "type": "function"
    },
    {
      "inputs": [],
      "name": "getTraitAuctionPrice",
      "outputs": [
        {
          "internalType": "uint256",
          "name": "_price",
          "type": "uint256"
        }
      ],
      "stateMutability": "view",
      "type": "function"
    },
    {
      "inputs": [],
      "name": "getTraits",
      "outputs": [
        {
          "internalType": "uint256[]",
          "name": "_traitTokenIds",
          "type": "uint256[]"
        },
        {
          "internalType": "string[]",
          "name": "_traitNames",
          "type": "string[]"
        },
        {
          "internalType": "string[]",
          "name": "_traitValues",
          "type": "string[]"
        },
        {
          "internalType": "uint256[]",
          "name": "_traitTypeIndexes",
          "type": "uint256[]"
        },
        {
          "internalType": "string[]",
          "name": "_traitTypeNames",
          "type": "string[]"
        },
        {
          "internalType": "string[]",
          "name": "_traitTypeValues",
          "type": "string[]"
        }
      ],
      "stateMutability": "view",
      "type": "function"
    },
    {
      "inputs": [
        {
          "internalType": "string",
          "name": "_name",
          "type": "string"
        },
        {
          "internalType": "string",
          "name": "_symbol",
          "type": "string"
        },
        {
          "internalType": "address",
          "name": "_traits",
          "type": "address"
        },
        {
          "internalType": "address",
          "name": "_owner",
          "type": "address"
        },
        {
          "internalType": "address[]",
          "name": "_admins",
          "type": "address[]"
        }
      ],
      "name": "initialize",
      "outputs": [],
      "stateMutability": "nonpayable",
      "type": "function"
    },
    {
      "inputs": [
        {
          "internalType": "address",
          "name": "owner",
          "type": "address"
        },
        {
          "internalType": "address",
          "name": "operator",
          "type": "address"
        }
      ],
      "name": "isApprovedForAll",
      "outputs": [
        {
          "internalType": "bool",
          "name": "",
          "type": "bool"
        }
      ],
      "stateMutability": "view",
      "type": "function"
    },
    {
      "inputs": [],
      "name": "lockProject",
      "outputs": [],
      "stateMutability": "nonpayable",
      "type": "function"
    },
    {
      "inputs": [],
      "name": "locked",
      "outputs": [
        {
          "internalType": "bool",
          "name": "",
          "type": "bool"
        }
      ],
      "stateMutability": "view",
      "type": "function"
    },
    {
      "inputs": [],
      "name": "metadata",
      "outputs": [
        {
          "internalType": "string",
          "name": "",
          "type": "string"
        }
      ],
      "stateMutability": "view",
      "type": "function"
    },
    {
      "inputs": [],
      "name": "name",
      "outputs": [
        {
          "internalType": "string",
          "name": "",
          "type": "string"
        }
      ],
      "stateMutability": "view",
      "type": "function"
    },
    {
      "inputs": [
        {
          "internalType": "address",
          "name": "",
          "type": "address"
        },
        {
          "internalType": "address",
          "name": "",
          "type": "address"
        },
        {
          "internalType": "uint256[]",
          "name": "",
          "type": "uint256[]"
        },
        {
          "internalType": "uint256[]",
          "name": "",
          "type": "uint256[]"
        },
        {
          "internalType": "bytes",
          "name": "",
          "type": "bytes"
        }
      ],
      "name": "onERC1155BatchReceived",
      "outputs": [
        {
          "internalType": "bytes4",
          "name": "",
          "type": "bytes4"
        }
      ],
      "stateMutability": "nonpayable",
      "type": "function"
    },
    {
      "inputs": [
        {
          "internalType": "address",
          "name": "",
          "type": "address"
        },
        {
          "internalType": "address",
          "name": "",
          "type": "address"
        },
        {
          "internalType": "uint256",
          "name": "",
          "type": "uint256"
        },
        {
          "internalType": "uint256",
          "name": "",
          "type": "uint256"
        },
        {
          "internalType": "bytes",
          "name": "",
          "type": "bytes"
        }
      ],
      "name": "onERC1155Received",
      "outputs": [
        {
          "internalType": "bytes4",
          "name": "",
          "type": "bytes4"
        }
      ],
      "stateMutability": "nonpayable",
      "type": "function"
    },
    {
      "inputs": [],
      "name": "owner",
      "outputs": [
        {
          "internalType": "address",
          "name": "",
          "type": "address"
        }
      ],
      "stateMutability": "view",
      "type": "function"
    },
    {
      "inputs": [
        {
          "internalType": "uint256",
          "name": "tokenId",
          "type": "uint256"
        }
      ],
      "name": "ownerOf",
      "outputs": [
        {
          "internalType": "address",
          "name": "",
          "type": "address"
        }
      ],
      "stateMutability": "view",
      "type": "function"
    },
    {
      "inputs": [],
      "name": "platformClaimableRevenues",
      "outputs": [
        {
          "internalType": "uint256",
          "name": "",
          "type": "uint256"
        }
      ],
      "stateMutability": "view",
      "type": "function"
    },
    {
      "inputs": [
        {
          "internalType": "address[]",
          "name": "_admins",
          "type": "address[]"
        }
      ],
      "name": "removeAdmins",
      "outputs": [],
      "stateMutability": "nonpayable",
      "type": "function"
    },
    {
      "inputs": [],
      "name": "renounceOwnership",
      "outputs": [],
      "stateMutability": "nonpayable",
      "type": "function"
    },
    {
      "inputs": [
        {
          "internalType": "address",
          "name": "from",
          "type": "address"
        },
        {
          "internalType": "address",
          "name": "to",
          "type": "address"
        },
        {
          "internalType": "uint256",
          "name": "tokenId",
          "type": "uint256"
        }
      ],
      "name": "safeTransferFrom",
      "outputs": [],
      "stateMutability": "nonpayable",
      "type": "function"
    },
    {
      "inputs": [
        {
          "internalType": "address",
          "name": "from",
          "type": "address"
        },
        {
          "internalType": "address",
          "name": "to",
          "type": "address"
        },
        {
          "internalType": "uint256",
          "name": "tokenId",
          "type": "uint256"
        },
        {
          "internalType": "bytes",
          "name": "_data",
          "type": "bytes"
        }
      ],
      "name": "safeTransferFrom",
      "outputs": [],
      "stateMutability": "nonpayable",
      "type": "function"
    },
    {
      "inputs": [
        {
          "internalType": "uint256",
          "name": "_auctionStartTime",
          "type": "uint256"
        },
        {
          "internalType": "uint256",
          "name": "_auctionEndTime",
          "type": "uint256"
        },
        {
          "internalType": "uint256",
          "name": "_auctionStartPrice",
          "type": "uint256"
        },
        {
          "internalType": "uint256",
          "name": "_auctionEndPrice",
          "type": "uint256"
        }
      ],
      "name": "scheduleAuction",
      "outputs": [],
      "stateMutability": "nonpayable",
      "type": "function"
    },
    {
      "inputs": [
        {
          "internalType": "address",
          "name": "operator",
          "type": "address"
        },
        {
          "internalType": "bool",
          "name": "approved",
          "type": "bool"
        }
      ],
      "name": "setApprovalForAll",
      "outputs": [],
      "stateMutability": "nonpayable",
      "type": "function"
    },
    {
      "inputs": [
        {
          "internalType": "bytes4",
          "name": "interfaceId",
          "type": "bytes4"
        }
      ],
      "name": "supportsInterface",
      "outputs": [
        {
          "internalType": "bool",
          "name": "",
          "type": "bool"
        }
      ],
      "stateMutability": "view",
      "type": "function"
    },
    {
      "inputs": [],
      "name": "symbol",
      "outputs": [
        {
          "internalType": "string",
          "name": "",
          "type": "string"
        }
      ],
      "stateMutability": "view",
      "type": "function"
    },
    {
      "inputs": [
        {
          "internalType": "uint256",
          "name": "tokenId",
          "type": "uint256"
        }
      ],
      "name": "tokenURI",
      "outputs": [
        {
          "internalType": "string",
          "name": "",
          "type": "string"
        }
      ],
      "stateMutability": "view",
      "type": "function"
    },
    {
      "inputs": [],
      "name": "traits",
      "outputs": [
        {
          "internalType": "contract ITraits",
          "name": "",
          "type": "address"
        }
      ],
      "stateMutability": "view",
      "type": "function"
    },
    {
      "inputs": [
        {
          "internalType": "address",
          "name": "from",
          "type": "address"
        },
        {
          "internalType": "address",
          "name": "to",
          "type": "address"
        },
        {
          "internalType": "uint256",
          "name": "tokenId",
          "type": "uint256"
        }
      ],
      "name": "transferFrom",
      "outputs": [],
      "stateMutability": "nonpayable",
      "type": "function"
    },
    {
      "inputs": [
        {
          "internalType": "address",
          "name": "newOwner",
          "type": "address"
        }
      ],
      "name": "transferOwnership",
      "outputs": [],
      "stateMutability": "nonpayable",
      "type": "function"
    },
    {
      "inputs": [
        {
          "internalType": "string",
          "name": "_baseURI",
          "type": "string"
        }
      ],
      "name": "updateBaseURI",
      "outputs": [],
      "stateMutability": "nonpayable",
      "type": "function"
    },
    {
      "inputs": [
        {
          "internalType": "string",
          "name": "_metadata",
          "type": "string"
        }
      ],
      "name": "updateMetadata",
      "outputs": [],
      "stateMutability": "nonpayable",
      "type": "function"
    },
    {
      "inputs": [
        {
          "internalType": "uint256",
          "name": "_scriptIndex",
          "type": "uint256"
        },
        {
          "internalType": "string",
          "name": "_script",
          "type": "string"
        }
      ],
      "name": "updateScript",
      "outputs": [],
      "stateMutability": "nonpayable",
      "type": "function"
    },
    {
      "inputs": [
        {
          "internalType": "address",
          "name": "",
          "type": "address"
        }
      ],
      "name": "userNonces",
      "outputs": [
        {
          "internalType": "uint256",
          "name": "",
          "type": "uint256"
        }
      ],
      "stateMutability": "view",
      "type": "function"
    }
  ],
  "transactionHash": "0x9a0a419b518e8e3b114e0094a6e56e2a99f2a4874b5cd956b63de49ffaef4ee6",
  "args": [],
  "numDeployments": 1,
  "solcInputHash": "a0ffe0a204b17e0b6eeeecadcef9154b",
  "bytecode": "0x6080604052600161012f5534801561001657600080fd5b50614f51806100266000396000f3fe6080604052600436106103975760003560e01c80637bd1085b116101dc578063b88d4fde11610102578063d7eb3f3a116100a0578063eb54f9ec1161006f578063eb54f9ec14610ae9578063f23a6e6114610b00578063f2fde38b14610b45578063f501c2c314610b6557600080fd5b8063d7eb3f3a14610a37578063e1fc334f14610a5d578063e785475114610a7e578063e985e9c514610aa057600080fd5b8063c87b56dd116100dc578063c87b56dd146109cd578063cf309012146109ed578063d73792a914610a08578063d756985b14610a2057600080fd5b8063b88d4fde14610938578063bc197c8114610958578063bcfbb611146109b657600080fd5b8063931688cb1161017a578063a22cb46511610149578063a22cb465146108c3578063a479cf04146108e3578063a713b02914610903578063b155d57e1461091857600080fd5b8063931688cb1461085757806395d89b41146108775780639c54df641461088c578063a04a6ac8146108ac57600080fd5b80638705e6a4116101b65780638705e6a4146107ec5780638da5cb5b146108045780638ecd895514610822578063918b5be11461083757600080fd5b80637bd1085b1461076b5780637f0429ef1461078b578063822b0ceb146107b257600080fd5b806331416a29116102c15780636352211e1161025f5780636cb801171161022e5780636cb801171461070157806370a0823114610721578063715018a61461074157806376f03dbb1461075657600080fd5b80636352211e1461067b57806367add6e51461069b578063685fe5e6146106bb5780636c0360eb146106ec57600080fd5b806342842e0e1161029b57806342842e0e1461061e57806345ce1fd11461063e5780634b449cba146106515780635711c2e61461066857600080fd5b806331416a29146105c9578063377e11e0146105e9578063392f37e91461060957600080fd5b80631af9fd17116103395780632cca7bb0116103085780632cca7bb01461052a5780632d9bace01461055b5780632dafcb221461057b5780632f7801f41461059b57600080fd5b80631af9fd17146104a05780631b1b7120146104b557806323b872dd146104e65780632504aaa81461050657600080fd5b8063095ea7b311610375578063095ea7b31461042b5780630bdc21cb1461044d578063100f1f321461047257806314e6d3d41461048b57600080fd5b806301ffc9a71461039c57806306fdde03146103d1578063081812fc146103f3575b600080fd5b3480156103a857600080fd5b506103bc6103b7366004613aae565b610b7a565b60405190151581526020015b60405180910390f35b3480156103dd57600080fd5b506103e6610bbe565b6040516103c89190613b1b565b3480156103ff57600080fd5b5061041361040e366004613b2e565b610c50565b6040516001600160a01b0390911681526020016103c8565b34801561043757600080fd5b5061044b610446366004613b5e565b610cea565b005b34801561045957600080fd5b506104646101395481565b6040519081526020016103c8565b34801561047e57600080fd5b506101325460ff166103bc565b34801561049757600080fd5b5061044b610e39565b3480156104ac57600080fd5b506103e6610ec9565b3480156104c157600080fd5b506104d56104d0366004613b2e565b610ed9565b6040516103c8959493929190613c1b565b3480156104f257600080fd5b5061044b610501366004613c88565b611372565b34801561051257600080fd5b506101325461010090046001600160a01b0316610413565b34801561053657600080fd5b50610464610545366004613b2e565b600090815261013b602052604090206001015490565b34801561056757600080fd5b5061044b610576366004613b2e565b6113f9565b34801561058757600080fd5b50610464610596366004613d10565b61157a565b3480156105a757600080fd5b506104646105b6366004613d52565b61013c6020526000908152604090205481565b3480156105d557600080fd5b5061044b6105e4366004613e32565b611775565b3480156105f557600080fd5b5061044b610604366004613d10565b61187c565b34801561061557600080fd5b506103e66118e4565b34801561062a57600080fd5b5061044b610639366004613c88565b611973565b61044b61064c366004613ee2565b61198e565b34801561065d57600080fd5b506104646101365481565b61044b610676366004613f4e565b611b8c565b34801561068757600080fd5b50610413610696366004613b2e565b611ba2565b3480156106a757600080fd5b5061044b6106b6366004613fc9565b611c2d565b3480156106c757600080fd5b506104646106d6366004613b2e565b61013b6020526000908152604090206001015481565b3480156106f857600080fd5b506103e6611d10565b34801561070d57600080fd5b5061044b61071c366004614047565b611d1e565b34801561072d57600080fd5b5061046461073c366004613d52565b611eb4565b34801561074d57600080fd5b5061044b611f4e565b34801561076257600080fd5b50610464611fb4565b34801561077757600080fd5b506103e6610786366004613b2e565b612075565b34801561079757600080fd5b506107a06120aa565b6040516103c896959493929190614079565b3480156107be57600080fd5b506103bc6107cd366004613d52565b6001600160a01b0316600090815261013d602052604090205460ff1690565b3480156107f857600080fd5b506104646305f5e10081565b34801561081057600080fd5b506033546001600160a01b0316610413565b34801561082e57600080fd5b5061044b612142565b34801561084357600080fd5b5061044b61085236600461413d565b61221d565b34801561086357600080fd5b5061044b61087236600461413d565b6122ab565b34801561088357600080fd5b506103e6612313565b34801561089857600080fd5b5061044b6108a7366004613d10565b612322565b3480156108b857600080fd5b506104646101385481565b3480156108cf57600080fd5b5061044b6108de366004614181565b612386565b3480156108ef57600080fd5b5061044b6108fe366004614267565b612391565b34801561090f57600080fd5b5061044b612471565b34801561092457600080fd5b5061044b610933366004614377565b6124eb565b34801561094457600080fd5b5061044b6109533660046143c3565b61258b565b34801561096457600080fd5b5061099d61097336600461447a565b7fbc197c810000000000000000000000000000000000000000000000000000000095945050505050565b6040516001600160e01b031990911681526020016103c8565b3480156109c257600080fd5b5061046461013a5481565b3480156109d957600080fd5b506103e66109e8366004613b2e565b612613565b3480156109f957600080fd5b50610132546103bc9060ff1681565b348015610a1457600080fd5b50610464633b9aca0081565b348015610a2c57600080fd5b506104646101375481565b348015610a4357600080fd5b50610132546104139061010090046001600160a01b031681565b348015610a6957600080fd5b5061012d54610413906001600160a01b031681565b348015610a8a57600080fd5b50610a93612709565b6040516103c89190614524565b348015610aac57600080fd5b506103bc610abb366004614537565b6001600160a01b039182166000908152609c6020908152604080832093909416825291909152205460ff1690565b348015610af557600080fd5b506104646101355481565b348015610b0c57600080fd5b5061099d610b1b36600461456a565b7ff23a6e610000000000000000000000000000000000000000000000000000000095945050505050565b348015610b5157600080fd5b5061044b610b60366004613d52565b61283e565b348015610b7157600080fd5b50610464612920565b60006001600160e01b031982167fcf309012000000000000000000000000000000000000000000000000000000001480610bb85750610bb882612984565b92915050565b606060978054610bcd906145cf565b80601f0160208091040260200160405190810160405280929190818152602001828054610bf9906145cf565b8015610c465780601f10610c1b57610100808354040283529160200191610c46565b820191906000526020600020905b815481529060010190602001808311610c2957829003601f168201915b5050505050905090565b6000818152609960205260408120546001600160a01b0316610cce5760405162461bcd60e51b815260206004820152602c60248201527f4552433732313a20617070726f76656420717565727920666f72206e6f6e657860448201526b34b9ba32b73a103a37b5b2b760a11b60648201526084015b60405180910390fd5b506000908152609b60205260409020546001600160a01b031690565b6000610cf582611ba2565b9050806001600160a01b0316836001600160a01b031603610d7e5760405162461bcd60e51b815260206004820152602160248201527f4552433732313a20617070726f76616c20746f2063757272656e74206f776e6560448201527f72000000000000000000000000000000000000000000000000000000000000006064820152608401610cc5565b336001600160a01b0382161480610db857506001600160a01b0381166000908152609c6020908152604080832033845290915290205460ff165b610e2a5760405162461bcd60e51b815260206004820152603860248201527f4552433732313a20617070726f76652063616c6c6572206973206e6f74206f7760448201527f6e6572206e6f7220617070726f76656420666f7220616c6c00000000000000006064820152608401610cc5565b610e3483836129c2565b505050565b33600090815261013d602052604090205460ff16610e7f5760405162461bcd60e51b815260206004820152600360248201526250303160e81b6044820152606401610cc5565b6101325460ff1615610eb95760405162461bcd60e51b815260206004820152600360248201526228181960e91b6044820152606401610cc5565b610132805460ff19166001179055565b60606101348054610bcd906145cf565b600081815261013b60209081526040918290208054835181840281018401909452808452606093849384938493849390929091908390830182828015610f3e57602002820191906000526020600020905b815481526020019060010190808311610f2a575b505050505095508067ffffffffffffffff811115610f5e57610f5e613d6d565b604051908082528060200260200182016040528015610f9157816020015b6060815260200190600190039081610f7c5790505b5094508067ffffffffffffffff811115610fad57610fad613d6d565b604051908082528060200260200182016040528015610fe057816020015b6060815260200190600190039081610fcb5790505b5093508067ffffffffffffffff811115610ffc57610ffc613d6d565b60405190808252806020026020018201604052801561102f57816020015b606081526020019060019003908161101a5790505b5092508067ffffffffffffffff81111561104b5761104b613d6d565b60405190808252806020026020018201604052801561107e57816020015b60608152602001906001900390816110695790505b50915060005b818110156113675761012d5487516001600160a01b039091169063e16f9c3d908990849081106110b6576110b6614609565b60200260200101516040518263ffffffff1660e01b81526004016110dc91815260200190565b600060405180830381865afa1580156110f9573d6000803e3d6000fd5b505050506040513d6000823e601f3d908101601f191682016040526111219190810190614664565b86828151811061113357611133614609565b602090810291909101015261012d5487516001600160a01b039091169063db895c399089908490811061116857611168614609565b60200260200101516040518263ffffffff1660e01b815260040161118e91815260200190565b600060405180830381865afa1580156111ab573d6000803e3d6000fd5b505050506040513d6000823e601f3d908101601f191682016040526111d39190810190614664565b8582815181106111e5576111e5614609565b602090810291909101015261012d5487516001600160a01b039091169063d10f99cb9089908490811061121a5761121a614609565b60200260200101516040518263ffffffff1660e01b815260040161124091815260200190565b600060405180830381865afa15801561125d573d6000803e3d6000fd5b505050506040513d6000823e601f3d908101601f191682016040526112859190810190614664565b84828151811061129757611297614609565b602090810291909101015261012d5487516001600160a01b0390911690635b2a8efa908990849081106112cc576112cc614609565b60200260200101516040518263ffffffff1660e01b81526004016112f291815260200190565b600060405180830381865afa15801561130f573d6000803e3d6000fd5b505050506040513d6000823e601f3d908101601f191682016040526113379190810190614664565b83828151811061134957611349614609565b6020026020010181905250808061135f906146af565b915050611084565b505091939590929450565b61137c3382612a30565b6113ee5760405162461bcd60e51b815260206004820152603160248201527f4552433732313a207472616e736665722063616c6c6572206973206e6f74206f60448201527f776e6572206e6f7220617070726f7665640000000000000000000000000000006064820152608401610cc5565b610e34838383612b27565b61140281611ba2565b6001600160a01b0316336001600160a01b0316146114625760405162461bcd60e51b815260206004820152600360248201527f53303300000000000000000000000000000000000000000000000000000000006044820152606401610cc5565b61012d54600082815261013b60205260409081902090517f5044651d0000000000000000000000000000000000000000000000000000000081526001600160a01b0390921691635044651d916114bd913391906004016146c8565b600060405180830381600087803b1580156114d757600080fd5b505af11580156114eb573d6000803e3d6000fd5b505050600082815261013b60208181526040808420600181018590558151858152808401928390529487905292909152915161152a93509091906139fd565b5061153481612cf4565b610130805490600061154583614717565b9091555050604051339082907f8d47fd541b28b73f831d6613d064b04739e29e48ec78822fdcfb579cf3c8ecc290600090a350565b61012d546040517f02afd1a10000000000000000000000000000000000000000000000000000000081526000916001600160a01b0316906302afd1a1906115c990339087908790600401614779565b600060405180830381600087803b1580156115e357600080fd5b505af11580156115f7573d6000803e3d6000fd5b5050610130805492509050600061160d836146af565b909155505061012f8054915081906000611626836146af565b9190505550610131546101305411156116815760405162461bcd60e51b815260206004820152600a60248201527f4d696e746564206f7574000000000000000000000000000000000000000000006044820152606401610cc5565b33600081815261013c6020908152604080832054905192936116c29390920160609290921b6bffffffffffffffffffffffff19168252601482015260340190565b60408051601f198184030181529181528151602092830120600085815261013b9093529120600181018290559091506116fc908585613a48565b5033600090815261013c60205260408120805491611719836146af565b9190505550336001600160a01b0316827feb3e56751a478e501b86e03de5f91f16dfc366ad53198ff6de3ff4e61119e18086868560405161175c939291906147a5565b60405180910390a361176e3383612d8f565b5092915050565b600054610100900460ff166117905760005460ff1615611794565b303b155b6118065760405162461bcd60e51b815260206004820152602e60248201527f496e697469616c697a61626c653a20636f6e747261637420697320616c72656160448201527f647920696e697469616c697a65640000000000000000000000000000000000006064820152608401610cc5565b600054610100900460ff16158015611828576000805461ffff19166101011790555b6118328787612da9565b61012d80546001600160a01b0319166001600160a01b03871617905561185784612e1e565b6118618383612e70565b8015611873576000805461ff00191690555b50505050505050565b6033546001600160a01b031633146118d65760405162461bcd60e51b815260206004820181905260248201527f4f776e61626c653a2063616c6c6572206973206e6f7420746865206f776e65726044820152606401610cc5565b6118e08282612ee3565b5050565b61013480546118f2906145cf565b80601f016020809104026020016040519081016040528092919081815260200182805461191e906145cf565b801561196b5780601f106119405761010080835404028352916020019161196b565b820191906000526020600020905b81548152906001019060200180831161194e57829003601f168201915b505050505081565b610e348383836040518060200160405280600081525061258b565b8281146119dd5760405162461bcd60e51b815260206004820152600360248201527f4d303100000000000000000000000000000000000000000000000000000000006044820152606401610cc5565b6000805b82811015611a21578383828181106119fb576119fb614609565b9050602002013582611a0d91906147c9565b915080611a19816146af565b9150506119e1565b506000611a2c611fb4565b611a3690836147dc565b905080341015611a625760405162461bcd60e51b81526020600482015260006024820152604401610cc5565b61012d546040517fd81d0a150000000000000000000000000000000000000000000000000000000081526001600160a01b039091169063d81d0a1590611ab49033908a908a908a908a906004016147f3565b600060405180830381600087803b158015611ace57600080fd5b505af1158015611ae2573d6000803e3d6000fd5b505050506000633b9aca006305f5e10083611afd91906147dc565b611b07919061483f565b90508061013a6000828254611b1c91906147c9565b90915550611b2c90508183614853565b6101396000828254611b3e91906147c9565b909155505060405133907f5e69dace42908bf940c680c4fd1884a926e1e39b2c2a350d9a0b96eeed5d32a690611b7b908a908a908a908a90614866565b60405180910390a250505050505050565b611b988686868661198e565b611873828261157a565b6000818152609960205260408120546001600160a01b031680610bb85760405162461bcd60e51b815260206004820152602960248201527f4552433732313a206f776e657220717565727920666f72206e6f6e657869737460448201527f656e7420746f6b656e00000000000000000000000000000000000000000000006064820152608401610cc5565b33600090815261013d602052604090205460ff16611c735760405162461bcd60e51b815260206004820152600360248201526250303160e81b6044820152606401610cc5565b61012e611c8085826148db565b5061013280547fffffffffffffffffffffff0000000000000000000000000000000000000000ff166101006001600160a01b03861602179055610131829055610134611ccc82826148db565b507fb17352bce8f17c44ba2c908b86c48643573f8ec5c4081dfa1e8ba5e1b5518c7384848484604051611d02949392919061499b565b60405180910390a150505050565b61012e80546118f2906145cf565b33600090815261013d602052604090205460ff16611d645760405162461bcd60e51b815260206004820152600360248201526250303160e81b6044820152606401610cc5565b6101325460ff16611db75760405162461bcd60e51b815260206004820152600360248201527f4d303300000000000000000000000000000000000000000000000000000000006044820152606401610cc5565b83831015611e075760405162461bcd60e51b815260206004820152600360248201527f4d303500000000000000000000000000000000000000000000000000000000006044820152606401610cc5565b81811115611e575760405162461bcd60e51b815260206004820152600360248201527f4d303600000000000000000000000000000000000000000000000000000000006044820152606401610cc5565b6101358490556101368390556101378290556101388190556040805185815260208101859052908101839052606081018290527f8a50b4310d356a636ffe634f917af814b9c1c8600f92e308f894ae146941093190608001611d02565b60006001600160a01b038216611f325760405162461bcd60e51b815260206004820152602a60248201527f4552433732313a2062616c616e636520717565727920666f7220746865207a6560448201527f726f2061646472657373000000000000000000000000000000000000000000006064820152608401610cc5565b506001600160a01b03166000908152609a602052604090205490565b6033546001600160a01b03163314611fa85760405162461bcd60e51b815260206004820181905260248201527f4f776e61626c653a2063616c6c6572206973206e6f7420746865206f776e65726044820152606401610cc5565b611fb26000612e1e565b565b6000610135544210156120095760405162461bcd60e51b815260206004820152601a60248201527f41756374696f6e206861736e27742073746172746564207965740000000000006044820152606401610cc5565b6101365442111561201c57506101385490565b610135546101365461202e9190614853565b61013854610137546120409190614853565b6101355461204e9042614853565b61205891906147dc565b612062919061483f565b610137546120709190614853565b905090565b606061012e61208383612f56565b604051602001612094929190614a48565b6040516020818303038152906040529050919050565b60608060608060608061012d60009054906101000a90046001600160a01b03166001600160a01b0316637f0429ef6040518163ffffffff1660e01b8152600401600060405180830381865afa158015612107573d6000803e3d6000fd5b505050506040513d6000823e601f3d908101601f1916820160405261212f9190810190614b48565b949b939a50919850965094509092509050565b6033546001600160a01b0316331461219c5760405162461bcd60e51b815260206004820181905260248201527f4f776e61626c653a2063616c6c6572206973206e6f7420746865206f776e65726044820152606401610cc5565b61013a54806121d35760405162461bcd60e51b81526020600482015260036024820152624d303760e81b6044820152606401610cc5565b600061013a8190556121e6903383612ff6565b6040518181527f0c8d31947f98bc63af39d31a25af89c65e76f11fa8a8cd4edae335eee677b3cc906020015b60405180910390a150565b33600090815261013d602052604090205460ff166122635760405162461bcd60e51b815260206004820152600360248201526250303160e81b6044820152606401610cc5565b6101325460ff161561229d5760405162461bcd60e51b815260206004820152600360248201526228181960e91b6044820152606401610cc5565b610134610e34828483614c3d565b6033546001600160a01b031633146123055760405162461bcd60e51b815260206004820181905260248201527f4f776e61626c653a2063616c6c6572206973206e6f7420746865206f776e65726044820152606401610cc5565b61012e610e34828483614c3d565b606060988054610bcd906145cf565b6033546001600160a01b0316331461237c5760405162461bcd60e51b815260206004820181905260248201527f4f776e61626c653a2063616c6c6572206973206e6f7420746865206f776e65726044820152606401610cc5565b6118e08282612e70565b6118e0338383613076565b33600090815261013d602052604090205460ff166123d75760405162461bcd60e51b815260206004820152600360248201526250303160e81b6044820152606401610cc5565b61012d546040517f01c8aa4b0000000000000000000000000000000000000000000000000000000081526001600160a01b03909116906301c8aa4b90612433908d908d908d908d908d908d908d908d908d908d90600401614db9565b600060405180830381600087803b15801561244d57600080fd5b505af1158015612461573d6000803e3d6000fd5b5050505050505050505050505050565b61013954806124a85760405162461bcd60e51b81526020600482015260036024820152624d303760e81b6044820152606401610cc5565b60006101398190556124bb903383612ff6565b6040518181527fc63609f37f0a5e3a7ed2911284184dc6ba3a4b8bb831f1e1e469e1ca5dd52ed090602001612212565b33600090815261013d602052604090205460ff166125315760405162461bcd60e51b815260206004820152600360248201526250303160e81b6044820152606401610cc5565b6101325460ff161561256b5760405162461bcd60e51b815260206004820152600360248201526228181960e91b6044820152606401610cc5565b600083815261013360205260409020612585828483614c3d565b50505050565b6125953383612a30565b6126075760405162461bcd60e51b815260206004820152603160248201527f4552433732313a207472616e736665722063616c6c6572206973206e6f74206f60448201527f776e6572206e6f7220617070726f7665640000000000000000000000000000006064820152608401610cc5565b61258584848484613144565b6000818152609960205260409020546060906001600160a01b03166126a05760405162461bcd60e51b815260206004820152602f60248201527f4552433732314d657461646174613a2055524920717565727920666f72206e6f60448201527f6e6578697374656e7420746f6b656e00000000000000000000000000000000006064820152608401610cc5565b60006126b760408051602081019091526000815290565b905060008151116126d75760405180602001604052806000815250612702565b806126e1846131c2565b6040516020016126f2929190614e43565b6040516020818303038152906040525b9392505050565b60606000612715612920565b90508067ffffffffffffffff81111561273057612730613d6d565b60405190808252806020026020018201604052801561276357816020015b606081526020019060019003908161274e5790505b50915060005b8181101561283957600081815261013360205260409020805461278b906145cf565b80601f01602080910402602001604051908101604052809291908181526020018280546127b7906145cf565b80156128045780601f106127d957610100808354040283529160200191612804565b820191906000526020600020905b8154815290600101906020018083116127e757829003601f168201915b505050505083828151811061281b5761281b614609565b60200260200101819052508080612831906146af565b915050612769565b505090565b6033546001600160a01b031633146128985760405162461bcd60e51b815260206004820181905260248201527f4f776e61626c653a2063616c6c6572206973206e6f7420746865206f776e65726044820152606401610cc5565b6001600160a01b0381166129145760405162461bcd60e51b815260206004820152602660248201527f4f776e61626c653a206e6577206f776e657220697320746865207a65726f206160448201527f64647265737300000000000000000000000000000000000000000000000000006064820152608401610cc5565b61291d81612e1e565b50565b6000805b6040805160008082526020808301808552835190208583526101339091529083902090926129529201614e69565b604051602081830303815290604052805190602001201461297f5780612977816146af565b915050612924565b919050565b60006001600160e01b031982167f4e2312e0000000000000000000000000000000000000000000000000000000001480610bb85750610bb8826132f7565b6000818152609b6020526040902080546001600160a01b0319166001600160a01b03841690811790915581906129f782611ba2565b6001600160a01b03167f8c5be1e5ebec7d5bd14f71427d1e84f3dd0314c0f7b2291e5b200ac8c7c3b92560405160405180910390a45050565b6000818152609960205260408120546001600160a01b0316612aa95760405162461bcd60e51b815260206004820152602c60248201527f4552433732313a206f70657261746f7220717565727920666f72206e6f6e657860448201526b34b9ba32b73a103a37b5b2b760a11b6064820152608401610cc5565b6000612ab483611ba2565b9050806001600160a01b0316846001600160a01b03161480612aef5750836001600160a01b0316612ae484610c50565b6001600160a01b0316145b80612b1f57506001600160a01b038082166000908152609c602090815260408083209388168352929052205460ff165b949350505050565b826001600160a01b0316612b3a82611ba2565b6001600160a01b031614612bb65760405162461bcd60e51b815260206004820152602560248201527f4552433732313a207472616e736665722066726f6d20696e636f72726563742060448201527f6f776e65720000000000000000000000000000000000000000000000000000006064820152608401610cc5565b6001600160a01b038216612c315760405162461bcd60e51b8152602060048201526024808201527f4552433732313a207472616e7366657220746f20746865207a65726f2061646460448201527f72657373000000000000000000000000000000000000000000000000000000006064820152608401610cc5565b612c3c6000826129c2565b6001600160a01b0383166000908152609a60205260408120805460019290612c65908490614853565b90915550506001600160a01b0382166000908152609a60205260408120805460019290612c939084906147c9565b909155505060008181526099602052604080822080546001600160a01b0319166001600160a01b0386811691821790925591518493918716917fddf252ad1be2c89b69c2b068fc378daa952ba7f163c4a11628f55a4df523b3ef91a4505050565b6000612cff82611ba2565b9050612d0c6000836129c2565b6001600160a01b0381166000908152609a60205260408120805460019290612d35908490614853565b909155505060008281526099602052604080822080546001600160a01b0319169055518391906001600160a01b038416907fddf252ad1be2c89b69c2b068fc378daa952ba7f163c4a11628f55a4df523b3ef908390a45050565b6118e0828260405180602001604052806000815250613392565b600054610100900460ff16612e145760405162461bcd60e51b815260206004820152602b60248201527f496e697469616c697a61626c653a20636f6e7472616374206973206e6f74206960448201526a6e697469616c697a696e6760a81b6064820152608401610cc5565b6118e08282613410565b603380546001600160a01b038381166001600160a01b0319831681179093556040519116919082907f8be0079c531659141344cd1fd0a4f28419497f9722a3daafe3b4186f6b6457e090600090a35050565b60005b81811015610e3457600161013d6000858585818110612e9457612e94614609565b9050602002016020810190612ea99190613d52565b6001600160a01b031681526020810191909152604001600020805460ff191691151591909117905580612edb816146af565b915050612e73565b60005b81811015610e3457600061013d6000858585818110612f0757612f07614609565b9050602002016020810190612f1c9190613d52565b6001600160a01b031681526020810191909152604001600020805460ff191691151591909117905580612f4e816146af565b915050612ee6565b60606000612f6383613494565b600101905060008167ffffffffffffffff811115612f8357612f83613d6d565b6040519080825280601f01601f191660200182016040528015612fad576020820181803683370190505b5090508181016020015b600019017f3031323334353637383961626364656600000000000000000000000000000000600a86061a8153600a8504945084612fb757509392505050565b604080516001600160a01b038416602482015260448082018490528251808303909101815260649091019091526020810180517bffffffffffffffffffffffffffffffffffffffffffffffffffffffff167fa9059cbb00000000000000000000000000000000000000000000000000000000179052610e34908490613576565b816001600160a01b0316836001600160a01b0316036130d75760405162461bcd60e51b815260206004820152601960248201527f4552433732313a20617070726f766520746f2063616c6c6572000000000000006044820152606401610cc5565b6001600160a01b038381166000818152609c6020908152604080832094871680845294825291829020805460ff191686151590811790915591519182527f17307eab39ab6107e8899845ad3d59bd9653f200f220920489ca2b5937696c31910160405180910390a3505050565b61314f848484612b27565b61315b8484848461365b565b6125855760405162461bcd60e51b815260206004820152603260248201527f4552433732313a207472616e7366657220746f206e6f6e20455243373231526560448201527131b2b4bb32b91034b6b83632b6b2b73a32b960711b6064820152608401610cc5565b60608160000361320557505060408051808201909152600181527f3000000000000000000000000000000000000000000000000000000000000000602082015290565b8160005b811561322f5780613219816146af565b91506132289050600a8361483f565b9150613209565b60008167ffffffffffffffff81111561324a5761324a613d6d565b6040519080825280601f01601f191660200182016040528015613274576020820181803683370190505b5090505b8415612b1f57613289600183614853565b9150613296600a86614e75565b6132a19060306147c9565b60f81b8183815181106132b6576132b6614609565b60200101907effffffffffffffffffffffffffffffffffffffffffffffffffffffffffffff1916908160001a9053506132f0600a8661483f565b9450613278565b60006001600160e01b031982167f80ac58cd00000000000000000000000000000000000000000000000000000000148061335a57506001600160e01b031982167f5b5e139f00000000000000000000000000000000000000000000000000000000145b80610bb857507f01ffc9a7000000000000000000000000000000000000000000000000000000006001600160e01b0319831614610bb8565b61339c83836137a7565b6133a9600084848461365b565b610e345760405162461bcd60e51b815260206004820152603260248201527f4552433732313a207472616e7366657220746f206e6f6e20455243373231526560448201527131b2b4bb32b91034b6b83632b6b2b73a32b960711b6064820152608401610cc5565b600054610100900460ff1661347b5760405162461bcd60e51b815260206004820152602b60248201527f496e697469616c697a61626c653a20636f6e7472616374206973206e6f74206960448201526a6e697469616c697a696e6760a81b6064820152608401610cc5565b609761348783826148db565b506098610e3482826148db565b6000807a184f03e93ff9f4daa797ed6e38ed64bf6a1f01000000000000000083106134dd577a184f03e93ff9f4daa797ed6e38ed64bf6a1f010000000000000000830492506040015b6d04ee2d6d415b85acef81000000008310613509576d04ee2d6d415b85acef8100000000830492506020015b662386f26fc10000831061352757662386f26fc10000830492506010015b6305f5e100831061353f576305f5e100830492506008015b612710831061355357612710830492506004015b60648310613565576064830492506002015b600a8310610bb85760010192915050565b60006135cb826040518060400160405280602081526020017f5361666545524332303a206c6f772d6c6576656c2063616c6c206661696c6564815250856001600160a01b03166138e99092919063ffffffff16565b805190915015610e3457808060200190518101906135e99190614e89565b610e345760405162461bcd60e51b815260206004820152602a60248201527f5361666545524332303a204552433230206f7065726174696f6e20646964206e60448201527f6f742073756363656564000000000000000000000000000000000000000000006064820152608401610cc5565b60006001600160a01b0384163b1561379c57604051630a85bd0160e11b81526001600160a01b0385169063150b7a029061369f903390899088908890600401614ea6565b6020604051808303816000875af19250505080156136da575060408051601f3d908101601f191682019092526136d791810190614ee2565b60015b613782573d808015613708576040519150601f19603f3d011682016040523d82523d6000602084013e61370d565b606091505b50805160000361377a5760405162461bcd60e51b815260206004820152603260248201527f4552433732313a207472616e7366657220746f206e6f6e20455243373231526560448201527131b2b4bb32b91034b6b83632b6b2b73a32b960711b6064820152608401610cc5565b805181602001fd5b6001600160e01b031916630a85bd0160e11b149050612b1f565b506001949350505050565b6001600160a01b0382166137fd5760405162461bcd60e51b815260206004820181905260248201527f4552433732313a206d696e7420746f20746865207a65726f20616464726573736044820152606401610cc5565b6000818152609960205260409020546001600160a01b0316156138625760405162461bcd60e51b815260206004820152601c60248201527f4552433732313a20746f6b656e20616c7265616479206d696e746564000000006044820152606401610cc5565b6001600160a01b0382166000908152609a6020526040812080546001929061388b9084906147c9565b909155505060008181526099602052604080822080546001600160a01b0319166001600160a01b03861690811790915590518392907fddf252ad1be2c89b69c2b068fc378daa952ba7f163c4a11628f55a4df523b3ef908290a45050565b6060612b1f8484600085856001600160a01b0385163b61394b5760405162461bcd60e51b815260206004820152601d60248201527f416464726573733a2063616c6c20746f206e6f6e2d636f6e74726163740000006044820152606401610cc5565b600080866001600160a01b031685876040516139679190614eff565b60006040518083038185875af1925050503d80600081146139a4576040519150601f19603f3d011682016040523d82523d6000602084013e6139a9565b606091505b50915091506139b98282866139c4565b979650505050505050565b606083156139d3575081612702565b8251156139e35782518084602001fd5b8160405162461bcd60e51b8152600401610cc59190613b1b565b828054828255906000526020600020908101928215613a38579160200282015b82811115613a38578251825591602001919060010190613a1d565b50613a44929150613a83565b5090565b828054828255906000526020600020908101928215613a38579160200282015b82811115613a38578235825591602001919060010190613a68565b5b80821115613a445760008155600101613a84565b6001600160e01b03198116811461291d57600080fd5b600060208284031215613ac057600080fd5b813561270281613a98565b60005b83811015613ae6578181015183820152602001613ace565b50506000910152565b60008151808452613b07816020860160208601613acb565b601f01601f19169290920160200192915050565b6020815260006127026020830184613aef565b600060208284031215613b4057600080fd5b5035919050565b80356001600160a01b038116811461297f57600080fd5b60008060408385031215613b7157600080fd5b613b7a83613b47565b946020939093013593505050565b600081518084526020808501945080840160005b83811015613bb857815187529582019590820190600101613b9c565b509495945050505050565b600082825180855260208086019550808260051b84010181860160005b84811015613c0e57601f19868403018952613bfc838351613aef565b98840198925090830190600101613be0565b5090979650505050505050565b60a081526000613c2e60a0830188613b88565b8281036020840152613c408188613bc3565b90508281036040840152613c548187613bc3565b90508281036060840152613c688186613bc3565b90508281036080840152613c7c8185613bc3565b98975050505050505050565b600080600060608486031215613c9d57600080fd5b613ca684613b47565b9250613cb460208501613b47565b9150604084013590509250925092565b60008083601f840112613cd657600080fd5b50813567ffffffffffffffff811115613cee57600080fd5b6020830191508360208260051b8501011115613d0957600080fd5b9250929050565b60008060208385031215613d2357600080fd5b823567ffffffffffffffff811115613d3a57600080fd5b613d4685828601613cc4565b90969095509350505050565b600060208284031215613d6457600080fd5b61270282613b47565b634e487b7160e01b600052604160045260246000fd5b604051601f8201601f1916810167ffffffffffffffff81118282101715613dac57613dac613d6d565b604052919050565b600067ffffffffffffffff821115613dce57613dce613d6d565b50601f01601f191660200190565b600082601f830112613ded57600080fd5b8135613e00613dfb82613db4565b613d83565b818152846020838601011115613e1557600080fd5b816020850160208301376000918101602001919091529392505050565b60008060008060008060a08789031215613e4b57600080fd5b863567ffffffffffffffff80821115613e6357600080fd5b613e6f8a838b01613ddc565b97506020890135915080821115613e8557600080fd5b613e918a838b01613ddc565b9650613e9f60408a01613b47565b9550613ead60608a01613b47565b94506080890135915080821115613ec357600080fd5b50613ed089828a01613cc4565b979a9699509497509295939492505050565b60008060008060408587031215613ef857600080fd5b843567ffffffffffffffff80821115613f1057600080fd5b613f1c88838901613cc4565b90965094506020870135915080821115613f3557600080fd5b50613f4287828801613cc4565b95989497509550505050565b60008060008060008060608789031215613f6757600080fd5b863567ffffffffffffffff80821115613f7f57600080fd5b613f8b8a838b01613cc4565b90985096506020890135915080821115613fa457600080fd5b613fb08a838b01613cc4565b90965094506040890135915080821115613ec357600080fd5b60008060008060808587031215613fdf57600080fd5b843567ffffffffffffffff80821115613ff757600080fd5b61400388838901613ddc565b955061401160208801613b47565b945060408701359350606087013591508082111561402e57600080fd5b5061403b87828801613ddc565b91505092959194509250565b6000806000806080858703121561405d57600080fd5b5050823594602084013594506040840135936060013592509050565b60c08152600061408c60c0830189613b88565b828103602084015261409e8189613bc3565b905082810360408401526140b28188613bc3565b905082810360608401526140c68187613b88565b905082810360808401526140da8186613bc3565b905082810360a08401526140ee8185613bc3565b9998505050505050505050565b60008083601f84011261410d57600080fd5b50813567ffffffffffffffff81111561412557600080fd5b602083019150836020828501011115613d0957600080fd5b6000806020838503121561415057600080fd5b823567ffffffffffffffff81111561416757600080fd5b613d46858286016140fb565b801515811461291d57600080fd5b6000806040838503121561419457600080fd5b61419d83613b47565b915060208301356141ad81614173565b809150509250929050565b600067ffffffffffffffff8211156141d2576141d2613d6d565b5060051b60200190565b600082601f8301126141ed57600080fd5b813560206141fd613dfb836141b8565b82815260059290921b8401810191818101908684111561421c57600080fd5b8286015b8481101561425c57803567ffffffffffffffff8111156142405760008081fd5b61424e8986838b0101613ddc565b845250918301918301614220565b509695505050505050565b60008060008060008060008060008060c08b8d03121561428657600080fd5b8a3567ffffffffffffffff8082111561429e57600080fd5b6142aa8e838f016141dc565b9b5060208d01359150808211156142c057600080fd5b6142cc8e838f016141dc565b9a5060408d01359150808211156142e257600080fd5b6142ee8e838f01613cc4565b909a50985060608d013591508082111561430757600080fd5b6143138e838f01613cc4565b909850965060808d013591508082111561432c57600080fd5b6143388e838f01613cc4565b909650945060a08d013591508082111561435157600080fd5b5061435e8d828e01613cc4565b915080935050809150509295989b9194979a5092959850565b60008060006040848603121561438c57600080fd5b83359250602084013567ffffffffffffffff8111156143aa57600080fd5b6143b6868287016140fb565b9497909650939450505050565b600080600080608085870312156143d957600080fd5b6143e285613b47565b93506143f060208601613b47565b925060408501359150606085013567ffffffffffffffff81111561441357600080fd5b61403b87828801613ddc565b600082601f83011261443057600080fd5b81356020614440613dfb836141b8565b82815260059290921b8401810191818101908684111561445f57600080fd5b8286015b8481101561425c5780358352918301918301614463565b600080600080600060a0868803121561449257600080fd5b61449b86613b47565b94506144a960208701613b47565b9350604086013567ffffffffffffffff808211156144c657600080fd5b6144d289838a0161441f565b945060608801359150808211156144e857600080fd5b6144f489838a0161441f565b9350608088013591508082111561450a57600080fd5b5061451788828901613ddc565b9150509295509295909350565b6020815260006127026020830184613bc3565b6000806040838503121561454a57600080fd5b61455383613b47565b915061456160208401613b47565b90509250929050565b600080600080600060a0868803121561458257600080fd5b61458b86613b47565b945061459960208701613b47565b93506040860135925060608601359150608086013567ffffffffffffffff8111156145c357600080fd5b61451788828901613ddc565b600181811c908216806145e357607f821691505b60208210810361460357634e487b7160e01b600052602260045260246000fd5b50919050565b634e487b7160e01b600052603260045260246000fd5b600082601f83011261463057600080fd5b815161463e613dfb82613db4565b81815284602083860101111561465357600080fd5b612b1f826020830160208701613acb565b60006020828403121561467657600080fd5b815167ffffffffffffffff81111561468d57600080fd5b612b1f8482850161461f565b634e487b7160e01b600052601160045260246000fd5b6000600182016146c1576146c1614699565b5060010190565b6000604082016001600160a01b038516835260206040818501528185548084526060860191508660005282600020935060005b81811015613c0e578454835260019485019492840192016146fb565b60008161472657614726614699565b506000190190565b81835260007f07ffffffffffffffffffffffffffffffffffffffffffffffffffffffffffffff83111561476057600080fd5b8260051b80836020870137939093016020019392505050565b6001600160a01b038416815260406020820152600061479c60408301848661472e565b95945050505050565b6040815260006147b960408301858761472e565b9050826020830152949350505050565b80820180821115610bb857610bb8614699565b8082028115828204841417610bb857610bb8614699565b6001600160a01b038616815260606020820152600061481660608301868861472e565b8281036040840152613c7c81858761472e565b634e487b7160e01b600052601260045260246000fd5b60008261484e5761484e614829565b500490565b81810381811115610bb857610bb8614699565b60408152600061487a60408301868861472e565b82810360208401526139b981858761472e565b601f821115610e3457600081815260208120601f850160051c810160208610156148b45750805b601f850160051c820191505b818110156148d3578281556001016148c0565b505050505050565b815167ffffffffffffffff8111156148f5576148f5613d6d565b6149098161490384546145cf565b8461488d565b602080601f83116001811461493e57600084156149265750858301515b600019600386901b1c1916600185901b1785556148d3565b600085815260208120601f198616915b8281101561496d5788860151825594840194600190910190840161494e565b508582101561498b5787850151600019600388901b60f8161c191681555b5050505050600190811b01905550565b6080815260006149ae6080830187613aef565b6001600160a01b038616602084015284604084015282810360608401526139b98185613aef565b600081546149e2816145cf565b600182811680156149fa5760018114614a0f57614a3e565b60ff1984168752821515830287019450614a3e565b8560005260208060002060005b85811015614a355781548a820152908401908201614a1c565b50505082870194505b5050505092915050565b6000614a5482856149d5565b8351614a64818360208801613acb565b01949350505050565b600082601f830112614a7e57600080fd5b81516020614a8e613dfb836141b8565b82815260059290921b84018101918181019086841115614aad57600080fd5b8286015b8481101561425c5780518352918301918301614ab1565b600082601f830112614ad957600080fd5b81516020614ae9613dfb836141b8565b82815260059290921b84018101918181019086841115614b0857600080fd5b8286015b8481101561425c57805167ffffffffffffffff811115614b2c5760008081fd5b614b3a8986838b010161461f565b845250918301918301614b0c565b60008060008060008060c08789031215614b6157600080fd5b865167ffffffffffffffff80821115614b7957600080fd5b614b858a838b01614a6d565b97506020890151915080821115614b9b57600080fd5b614ba78a838b01614ac8565b96506040890151915080821115614bbd57600080fd5b614bc98a838b01614ac8565b95506060890151915080821115614bdf57600080fd5b614beb8a838b01614a6d565b94506080890151915080821115614c0157600080fd5b614c0d8a838b01614ac8565b935060a0890151915080821115614c2357600080fd5b50614c3089828a01614ac8565b9150509295509295509295565b67ffffffffffffffff831115614c5557614c55613d6d565b614c6983614c6383546145cf565b8361488d565b6000601f841160018114614c9d5760008515614c855750838201355b600019600387901b1c1916600186901b178355614cf7565b600083815260209020601f19861690835b82811015614cce5786850135825560209485019460019092019101614cae565b5086821015614ceb5760001960f88860031b161c19848701351681555b505060018560011b0183555b5050505050565b81835281816020850137506000828201602090810191909152601f909101601f19169091010190565b81835260006020808501808196508560051b810191508460005b87811015614dac5782840389528135601e19883603018112614d6257600080fd5b8701858101903567ffffffffffffffff811115614d7e57600080fd5b803603821315614d8d57600080fd5b614d98868284614cfe565b9a87019a9550505090840190600101614d41565b5091979650505050505050565b60c081526000614dcc60c083018d613bc3565b8281036020840152614dde818d613bc3565b90508281036040840152614df3818b8d614d27565b90508281036060840152614e0881898b614d27565b90508281036080840152614e1d81878961472e565b905082810360a0840152614e3281858761472e565b9d9c50505050505050505050505050565b60008351614e55818460208801613acb565b835190830190614a64818360208801613acb565b600061270282846149d5565b600082614e8457614e84614829565b500690565b600060208284031215614e9b57600080fd5b815161270281614173565b60006001600160a01b03808716835280861660208401525083604083015260806060830152614ed86080830184613aef565b9695505050505050565b600060208284031215614ef457600080fd5b815161270281613a98565b60008251614f11818460208701613acb565b919091019291505056fea26469706673582212207fb266ccbf702d32aa314008cf394f0e86f529272af6cbb5df9c05a882dbb90864736f6c63430008110033",
  "devdoc": {
    "kind": "dev",
    "methods": {
      "approve(address,uint256)": {
        "details": "See {IERC721-approve}."
      },
      "balanceOf(address)": {
        "details": "See {IERC721-balanceOf}."
      },
      "getApproved(uint256)": {
        "details": "See {IERC721-getApproved}."
      },
      "isApprovedForAll(address,address)": {
        "details": "See {IERC721-isApprovedForAll}."
      },
      "name()": {
        "details": "See {IERC721Metadata-name}."
      },
      "owner()": {
        "details": "Returns the address of the current owner."
      },
      "ownerOf(uint256)": {
        "details": "See {IERC721-ownerOf}."
      },
      "renounceOwnership()": {
        "details": "Leaves the contract without owner. It will not be possible to call `onlyOwner` functions anymore. Can only be called by the current owner. NOTE: Renouncing ownership will leave the contract without an owner, thereby removing any functionality that is only available to the owner."
      },
      "safeTransferFrom(address,address,uint256)": {
        "details": "See {IERC721-safeTransferFrom}."
      },
      "safeTransferFrom(address,address,uint256,bytes)": {
        "details": "See {IERC721-safeTransferFrom}."
      },
      "setApprovalForAll(address,bool)": {
        "details": "See {IERC721-setApprovalForAll}."
      },
      "symbol()": {
        "details": "See {IERC721Metadata-symbol}."
      },
      "tokenURI(uint256)": {
        "details": "See {IERC721Metadata-tokenURI}."
      },
      "transferFrom(address,address,uint256)": {
        "details": "See {IERC721-transferFrom}."
      },
      "transferOwnership(address)": {
        "details": "Transfers ownership of the contract to a new account (`newOwner`). Can only be called by the current owner."
      }
    },
    "version": 1
  },
  "userdoc": {
    "kind": "user",
    "methods": {},
    "version": 1
  },
  "storageLayout": {
    "storage": [
      {
        "astId": 130,
        "contract": "contracts/Studio.sol:Studio",
        "label": "_initialized",
        "offset": 0,
        "slot": "0",
        "type": "t_bool"
      },
      {
        "astId": 133,
        "contract": "contracts/Studio.sol:Studio",
        "label": "_initializing",
        "offset": 1,
        "slot": "0",
        "type": "t_bool"
      },
      {
        "astId": 3498,
        "contract": "contracts/Studio.sol:Studio",
        "label": "__gap",
        "offset": 0,
        "slot": "1",
        "type": "t_array(t_uint256)50_storage"
      },
      {
        "astId": 10,
        "contract": "contracts/Studio.sol:Studio",
        "label": "_owner",
        "offset": 0,
        "slot": "51",
        "type": "t_address"
      },
      {
        "astId": 122,
        "contract": "contracts/Studio.sol:Studio",
        "label": "__gap",
        "offset": 0,
        "slot": "52",
        "type": "t_array(t_uint256)49_storage"
      },
      {
        "astId": 3745,
        "contract": "contracts/Studio.sol:Studio",
        "label": "__gap",
        "offset": 0,
        "slot": "101",
        "type": "t_array(t_uint256)50_storage"
      },
      {
        "astId": 2191,
        "contract": "contracts/Studio.sol:Studio",
        "label": "_name",
        "offset": 0,
        "slot": "151",
        "type": "t_string_storage"
      },
      {
        "astId": 2193,
        "contract": "contracts/Studio.sol:Studio",
        "label": "_symbol",
        "offset": 0,
        "slot": "152",
        "type": "t_string_storage"
      },
      {
        "astId": 2197,
        "contract": "contracts/Studio.sol:Studio",
        "label": "_owners",
        "offset": 0,
        "slot": "153",
        "type": "t_mapping(t_uint256,t_address)"
      },
      {
        "astId": 2201,
        "contract": "contracts/Studio.sol:Studio",
        "label": "_balances",
        "offset": 0,
        "slot": "154",
        "type": "t_mapping(t_address,t_uint256)"
      },
      {
        "astId": 2205,
        "contract": "contracts/Studio.sol:Studio",
        "label": "_tokenApprovals",
        "offset": 0,
        "slot": "155",
        "type": "t_mapping(t_uint256,t_address)"
      },
      {
        "astId": 2211,
        "contract": "contracts/Studio.sol:Studio",
        "label": "_operatorApprovals",
        "offset": 0,
        "slot": "156",
        "type": "t_mapping(t_address,t_mapping(t_address,t_bool))"
      },
      {
        "astId": 3052,
        "contract": "contracts/Studio.sol:Studio",
        "label": "__gap",
        "offset": 0,
        "slot": "157",
        "type": "t_array(t_uint256)44_storage"
      },
      {
        "astId": 1859,
        "contract": "contracts/Studio.sol:Studio",
        "label": "__gap",
        "offset": 0,
        "slot": "201",
        "type": "t_array(t_uint256)50_storage"
      },
      {
        "astId": 1805,
        "contract": "contracts/Studio.sol:Studio",
        "label": "__gap",
        "offset": 0,
        "slot": "251",
        "type": "t_array(t_uint256)50_storage"
      },
      {
        "astId": 4562,
        "contract": "contracts/Studio.sol:Studio",
        "label": "traits",
        "offset": 0,
        "slot": "301",
        "type": "t_contract(ITraits)6503"
      },
      {
        "astId": 4564,
        "contract": "contracts/Studio.sol:Studio",
        "label": "baseURI",
        "offset": 0,
        "slot": "302",
        "type": "t_string_storage"
      },
      {
        "astId": 4573,
        "contract": "contracts/Studio.sol:Studio",
        "label": "nextTokenId",
        "offset": 0,
        "slot": "303",
        "type": "t_uint256"
      },
      {
        "astId": 4575,
        "contract": "contracts/Studio.sol:Studio",
        "label": "totalSupply",
        "offset": 0,
        "slot": "304",
        "type": "t_uint256"
      },
      {
        "astId": 4577,
        "contract": "contracts/Studio.sol:Studio",
        "label": "maxSupply",
        "offset": 0,
        "slot": "305",
        "type": "t_uint256"
      },
      {
        "astId": 4579,
        "contract": "contracts/Studio.sol:Studio",
        "label": "locked",
        "offset": 0,
        "slot": "306",
        "type": "t_bool"
      },
      {
        "astId": 4581,
        "contract": "contracts/Studio.sol:Studio",
        "label": "artistAddress",
        "offset": 1,
        "slot": "306",
        "type": "t_address"
      },
      {
        "astId": 4585,
        "contract": "contracts/Studio.sol:Studio",
        "label": "scripts",
        "offset": 0,
        "slot": "307",
        "type": "t_mapping(t_uint256,t_string_storage)"
      },
      {
        "astId": 4587,
        "contract": "contracts/Studio.sol:Studio",
        "label": "metadata",
        "offset": 0,
        "slot": "308",
        "type": "t_string_storage"
      },
      {
        "astId": 4589,
        "contract": "contracts/Studio.sol:Studio",
        "label": "auctionStartTime",
        "offset": 0,
        "slot": "309",
        "type": "t_uint256"
      },
      {
        "astId": 4591,
        "contract": "contracts/Studio.sol:Studio",
        "label": "auctionEndTime",
        "offset": 0,
        "slot": "310",
        "type": "t_uint256"
      },
      {
        "astId": 4593,
        "contract": "contracts/Studio.sol:Studio",
        "label": "auctionStartPrice",
        "offset": 0,
        "slot": "311",
        "type": "t_uint256"
      },
      {
        "astId": 4595,
        "contract": "contracts/Studio.sol:Studio",
        "label": "auctionEndPrice",
        "offset": 0,
        "slot": "312",
        "type": "t_uint256"
      },
      {
        "astId": 4597,
        "contract": "contracts/Studio.sol:Studio",
        "label": "artistClaimableRevenues",
        "offset": 0,
        "slot": "313",
        "type": "t_uint256"
      },
      {
        "astId": 4599,
        "contract": "contracts/Studio.sol:Studio",
        "label": "platformClaimableRevenues",
        "offset": 0,
        "slot": "314",
        "type": "t_uint256"
      },
      {
        "astId": 4610,
        "contract": "contracts/Studio.sol:Studio",
        "label": "artworkData",
        "offset": 0,
        "slot": "315",
        "type": "t_mapping(t_uint256,t_struct(ArtworkData)4605_storage)"
      },
      {
        "astId": 4614,
        "contract": "contracts/Studio.sol:Studio",
        "label": "userNonces",
        "offset": 0,
        "slot": "316",
        "type": "t_mapping(t_address,t_uint256)"
      },
      {
        "astId": 4618,
        "contract": "contracts/Studio.sol:Studio",
        "label": "admins",
        "offset": 0,
        "slot": "317",
        "type": "t_mapping(t_address,t_bool)"
      }
    ],
    "types": {
      "t_address": {
        "encoding": "inplace",
        "label": "address",
        "numberOfBytes": "20"
      },
      "t_array(t_uint256)44_storage": {
        "base": "t_uint256",
        "encoding": "inplace",
        "label": "uint256[44]",
        "numberOfBytes": "1408"
      },
      "t_array(t_uint256)49_storage": {
        "base": "t_uint256",
        "encoding": "inplace",
        "label": "uint256[49]",
        "numberOfBytes": "1568"
      },
      "t_array(t_uint256)50_storage": {
        "base": "t_uint256",
        "encoding": "inplace",
        "label": "uint256[50]",
        "numberOfBytes": "1600"
      },
      "t_array(t_uint256)dyn_storage": {
        "base": "t_uint256",
        "encoding": "dynamic_array",
        "label": "uint256[]",
        "numberOfBytes": "32"
      },
      "t_bool": {
        "encoding": "inplace",
        "label": "bool",
        "numberOfBytes": "1"
      },
      "t_bytes32": {
        "encoding": "inplace",
        "label": "bytes32",
        "numberOfBytes": "32"
      },
      "t_contract(ITraits)6503": {
        "encoding": "inplace",
        "label": "contract ITraits",
        "numberOfBytes": "20"
      },
      "t_mapping(t_address,t_bool)": {
        "encoding": "mapping",
        "key": "t_address",
        "label": "mapping(address => bool)",
        "numberOfBytes": "32",
        "value": "t_bool"
      },
      "t_mapping(t_address,t_mapping(t_address,t_bool))": {
        "encoding": "mapping",
        "key": "t_address",
        "label": "mapping(address => mapping(address => bool))",
        "numberOfBytes": "32",
        "value": "t_mapping(t_address,t_bool)"
      },
      "t_mapping(t_address,t_uint256)": {
        "encoding": "mapping",
        "key": "t_address",
        "label": "mapping(address => uint256)",
        "numberOfBytes": "32",
        "value": "t_uint256"
      },
      "t_mapping(t_uint256,t_address)": {
        "encoding": "mapping",
        "key": "t_uint256",
        "label": "mapping(uint256 => address)",
        "numberOfBytes": "32",
        "value": "t_address"
      },
      "t_mapping(t_uint256,t_string_storage)": {
        "encoding": "mapping",
        "key": "t_uint256",
        "label": "mapping(uint256 => string)",
        "numberOfBytes": "32",
        "value": "t_string_storage"
      },
      "t_mapping(t_uint256,t_struct(ArtworkData)4605_storage)": {
        "encoding": "mapping",
        "key": "t_uint256",
        "label": "mapping(uint256 => struct Studio.ArtworkData)",
        "numberOfBytes": "32",
        "value": "t_struct(ArtworkData)4605_storage"
      },
      "t_string_storage": {
        "encoding": "bytes",
        "label": "string",
        "numberOfBytes": "32"
      },
      "t_struct(ArtworkData)4605_storage": {
        "encoding": "inplace",
        "label": "struct Studio.ArtworkData",
        "members": [
          {
            "astId": 4602,
            "contract": "contracts/Studio.sol:Studio",
            "label": "traitTokenIds",
            "offset": 0,
            "slot": "0",
            "type": "t_array(t_uint256)dyn_storage"
          },
          {
            "astId": 4604,
            "contract": "contracts/Studio.sol:Studio",
            "label": "hash",
            "offset": 0,
            "slot": "1",
            "type": "t_bytes32"
          }
        ],
        "numberOfBytes": "64"
      },
      "t_uint256": {
        "encoding": "inplace",
        "label": "uint256",
        "numberOfBytes": "32"
      }
    }
  }
}