{
  "address": "0x8b712b4435434A3ae1f6F9594f4Cc47e94E1DE46",
  "abi": [
    {
      "inputs": [
        {
          "internalType": "uint96",
          "name": "_royaltyFeeNumerator",
          "type": "uint96"
        },
        {
          "internalType": "string",
          "name": "_uri",
          "type": "string"
        },
        {
          "internalType": "address",
          "name": "_artwork",
          "type": "address"
        },
        {
          "internalType": "address",
          "name": "_owner",
          "type": "address"
        },
        {
          "internalType": "address[]",
          "name": "_primarySalesPayees",
          "type": "address[]"
        },
        {
          "internalType": "uint256[]",
          "name": "_primarySalesShares",
          "type": "uint256[]"
        },
        {
          "internalType": "address[]",
          "name": "_royaltyPayees",
          "type": "address[]"
        },
        {
          "internalType": "uint256[]",
          "name": "_royaltyShares",
          "type": "uint256[]"
        }
      ],
      "stateMutability": "nonpayable",
      "type": "constructor"
    },
    {
      "inputs": [],
      "name": "AuctionNotLive",
      "type": "error"
    },
    {
      "inputs": [],
      "name": "InvalidArrayLengths",
      "type": "error"
    },
    {
      "inputs": [],
      "name": "InvalidAuction",
      "type": "error"
    },
    {
      "inputs": [],
      "name": "InvalidEthAmount",
      "type": "error"
    },
    {
      "inputs": [],
      "name": "InvalidTokenId",
      "type": "error"
    },
    {
      "inputs": [],
      "name": "InvalidTraits",
      "type": "error"
    },
    {
      "inputs": [],
      "name": "Locked",
      "type": "error"
    },
    {
      "inputs": [],
      "name": "MaxSupply",
      "type": "error"
    },
    {
      "inputs": [],
      "name": "NoRevenue",
      "type": "error"
    },
    {
      "inputs": [],
      "name": "NotLocked",
      "type": "error"
    },
    {
      "inputs": [],
      "name": "OnlyArtwork",
      "type": "error"
    },
    {
      "inputs": [],
      "name": "OnlyClaimer",
      "type": "error"
    },
    {
      "inputs": [],
      "name": "TraitsAlreadyCreated",
      "type": "error"
    },
    {
      "anonymous": false,
      "inputs": [
        {
          "indexed": true,
          "internalType": "address",
          "name": "account",
          "type": "address"
        },
        {
          "indexed": true,
          "internalType": "address",
          "name": "operator",
          "type": "address"
        },
        {
          "indexed": false,
          "internalType": "bool",
          "name": "approved",
          "type": "bool"
        }
      ],
      "name": "ApprovalForAll",
      "type": "event"
    },
    {
      "anonymous": false,
      "inputs": [
        {
          "indexed": true,
          "internalType": "contract IERC20",
          "name": "token",
          "type": "address"
        },
        {
          "indexed": false,
          "internalType": "address",
          "name": "to",
          "type": "address"
        },
        {
          "indexed": false,
          "internalType": "uint256",
          "name": "amount",
          "type": "uint256"
        }
      ],
      "name": "ERC20PaymentReleased",
      "type": "event"
    },
    {
      "anonymous": false,
      "inputs": [
        {
          "indexed": true,
          "internalType": "address",
          "name": "previousOwner",
          "type": "address"
        },
        {
          "indexed": true,
          "internalType": "address",
          "name": "newOwner",
          "type": "address"
        }
      ],
      "name": "OwnershipTransferred",
      "type": "event"
    },
    {
      "anonymous": false,
      "inputs": [
        {
          "indexed": false,
          "internalType": "address",
          "name": "account",
          "type": "address"
        },
        {
          "indexed": false,
          "internalType": "uint256",
          "name": "shares",
          "type": "uint256"
        }
      ],
      "name": "PayeeAdded",
      "type": "event"
    },
    {
      "anonymous": false,
      "inputs": [
        {
          "indexed": false,
          "internalType": "address",
          "name": "from",
          "type": "address"
        },
        {
          "indexed": false,
          "internalType": "uint256",
          "name": "amount",
          "type": "uint256"
        }
      ],
      "name": "PaymentReceived",
      "type": "event"
    },
    {
      "anonymous": false,
      "inputs": [
        {
          "indexed": false,
          "internalType": "address",
          "name": "to",
          "type": "address"
        },
        {
          "indexed": false,
          "internalType": "uint256",
          "name": "amount",
          "type": "uint256"
        }
      ],
      "name": "PaymentReleased",
      "type": "event"
    },
    {
      "anonymous": false,
      "inputs": [
        {
          "indexed": true,
          "internalType": "address",
          "name": "recipient",
          "type": "address"
        },
        {
          "indexed": false,
          "internalType": "uint256[]",
          "name": "traitTokenIds",
          "type": "uint256[]"
        },
        {
          "indexed": false,
          "internalType": "uint256[]",
          "name": "traitAmounts",
          "type": "uint256[]"
        }
      ],
      "name": "TraitsBought",
      "type": "event"
    },
    {
      "anonymous": false,
      "inputs": [
        {
          "indexed": true,
          "internalType": "address",
          "name": "operator",
          "type": "address"
        },
        {
          "indexed": true,
          "internalType": "address",
          "name": "from",
          "type": "address"
        },
        {
          "indexed": true,
          "internalType": "address",
          "name": "to",
          "type": "address"
        },
        {
          "indexed": false,
          "internalType": "uint256[]",
          "name": "ids",
          "type": "uint256[]"
        },
        {
          "indexed": false,
          "internalType": "uint256[]",
          "name": "values",
          "type": "uint256[]"
        }
      ],
      "name": "TransferBatch",
      "type": "event"
    },
    {
      "anonymous": false,
      "inputs": [
        {
          "indexed": true,
          "internalType": "address",
          "name": "operator",
          "type": "address"
        },
        {
          "indexed": true,
          "internalType": "address",
          "name": "from",
          "type": "address"
        },
        {
          "indexed": true,
          "internalType": "address",
          "name": "to",
          "type": "address"
        },
        {
          "indexed": false,
          "internalType": "uint256",
          "name": "id",
          "type": "uint256"
        },
        {
          "indexed": false,
          "internalType": "uint256",
          "name": "value",
          "type": "uint256"
        }
      ],
      "name": "TransferSingle",
      "type": "event"
    },
    {
      "anonymous": false,
      "inputs": [
        {
          "indexed": false,
          "internalType": "string",
          "name": "value",
          "type": "string"
        },
        {
          "indexed": true,
          "internalType": "uint256",
          "name": "id",
          "type": "uint256"
        }
      ],
      "name": "URI",
      "type": "event"
    },
    {
      "inputs": [],
      "name": "VERSION",
      "outputs": [
        {
          "internalType": "string",
          "name": "",
          "type": "string"
        }
      ],
      "stateMutability": "view",
      "type": "function"
    },
    {
      "inputs": [],
      "name": "artwork",
      "outputs": [
        {
          "internalType": "contract IArtwork",
          "name": "",
          "type": "address"
        }
      ],
      "stateMutability": "view",
      "type": "function"
    },
    {
      "inputs": [],
      "name": "auctionEndPrice",
      "outputs": [
        {
          "internalType": "uint256",
          "name": "",
          "type": "uint256"
        }
      ],
      "stateMutability": "view",
      "type": "function"
    },
    {
      "inputs": [],
      "name": "auctionEndTime",
      "outputs": [
        {
          "internalType": "uint256",
          "name": "",
          "type": "uint256"
        }
      ],
      "stateMutability": "view",
      "type": "function"
    },
    {
      "inputs": [],
      "name": "auctionStartPrice",
      "outputs": [
        {
          "internalType": "uint256",
          "name": "",
          "type": "uint256"
        }
      ],
      "stateMutability": "view",
      "type": "function"
    },
    {
      "inputs": [],
      "name": "auctionStartTime",
      "outputs": [
        {
          "internalType": "uint256",
          "name": "",
          "type": "uint256"
        }
      ],
      "stateMutability": "view",
      "type": "function"
    },
    {
      "inputs": [
        {
          "internalType": "address",
          "name": "account",
          "type": "address"
        },
        {
          "internalType": "uint256",
          "name": "id",
          "type": "uint256"
        }
      ],
      "name": "balanceOf",
      "outputs": [
        {
          "internalType": "uint256",
          "name": "",
          "type": "uint256"
        }
      ],
      "stateMutability": "view",
      "type": "function"
    },
    {
      "inputs": [
        {
          "internalType": "address[]",
          "name": "accounts",
          "type": "address[]"
        },
        {
          "internalType": "uint256[]",
          "name": "ids",
          "type": "uint256[]"
        }
      ],
      "name": "balanceOfBatch",
      "outputs": [
        {
          "internalType": "uint256[]",
          "name": "",
          "type": "uint256[]"
        }
      ],
      "stateMutability": "view",
      "type": "function"
    },
    {
      "inputs": [
        {
          "internalType": "address",
          "name": "_recipient",
          "type": "address"
        },
        {
          "internalType": "uint256[]",
          "name": "_traitTokenIds",
          "type": "uint256[]"
        },
        {
          "internalType": "uint256[]",
          "name": "_traitAmounts",
          "type": "uint256[]"
        }
      ],
      "name": "buyTraits",
      "outputs": [],
      "stateMutability": "payable",
      "type": "function"
    },
    {
      "inputs": [
        {
          "internalType": "string[]",
          "name": "_traitTypeNames",
          "type": "string[]"
        },
        {
          "internalType": "string[]",
          "name": "_traitTypeValues",
          "type": "string[]"
        },
        {
          "internalType": "string[]",
          "name": "_traitNames",
          "type": "string[]"
        },
        {
          "internalType": "string[]",
          "name": "_traitValues",
          "type": "string[]"
        },
        {
          "internalType": "uint256[]",
          "name": "_traitTypeIndexes",
          "type": "uint256[]"
        },
        {
          "internalType": "uint256[]",
          "name": "_traitMaxSupplys",
          "type": "uint256[]"
        }
      ],
      "name": "createTraitsAndTypes",
      "outputs": [],
      "stateMutability": "nonpayable",
      "type": "function"
    },
    {
      "inputs": [
        {
          "internalType": "uint256",
          "name": "id",
          "type": "uint256"
        }
      ],
      "name": "exists",
      "outputs": [
        {
          "internalType": "bool",
          "name": "",
          "type": "bool"
        }
      ],
      "stateMutability": "view",
      "type": "function"
    },
    {
      "inputs": [
        {
          "internalType": "address",
          "name": "account",
          "type": "address"
        },
        {
          "internalType": "address",
          "name": "operator",
          "type": "address"
        }
      ],
      "name": "isApprovedForAll",
      "outputs": [
        {
          "internalType": "bool",
          "name": "",
          "type": "bool"
        }
      ],
      "stateMutability": "view",
      "type": "function"
    },
    {
      "inputs": [
        {
          "internalType": "uint256",
          "name": "_tokenId",
          "type": "uint256"
        }
      ],
      "name": "maxSupply",
      "outputs": [
        {
          "internalType": "uint256",
          "name": "_maxSupply",
          "type": "uint256"
        }
      ],
      "stateMutability": "view",
      "type": "function"
    },
    {
      "inputs": [],
      "name": "owner",
      "outputs": [
        {
          "internalType": "address",
          "name": "",
          "type": "address"
        }
      ],
      "stateMutability": "view",
      "type": "function"
    },
    {
      "inputs": [
        {
          "internalType": "uint256",
          "name": "index",
          "type": "uint256"
        }
      ],
      "name": "payee",
      "outputs": [
        {
          "internalType": "address",
          "name": "",
          "type": "address"
        }
      ],
      "stateMutability": "view",
      "type": "function"
    },
    {
      "inputs": [
        {
          "internalType": "address",
          "name": "account",
          "type": "address"
        }
      ],
      "name": "releasable",
      "outputs": [
        {
          "internalType": "uint256",
          "name": "",
          "type": "uint256"
        }
      ],
      "stateMutability": "view",
      "type": "function"
    },
    {
      "inputs": [
        {
          "internalType": "contract IERC20",
          "name": "token",
          "type": "address"
        },
        {
          "internalType": "address",
          "name": "account",
          "type": "address"
        }
      ],
      "name": "releasable",
      "outputs": [
        {
          "internalType": "uint256",
          "name": "",
          "type": "uint256"
        }
      ],
      "stateMutability": "view",
      "type": "function"
    },
    {
      "inputs": [
        {
          "internalType": "address payable",
          "name": "account",
          "type": "address"
        }
      ],
      "name": "release",
      "outputs": [],
      "stateMutability": "nonpayable",
      "type": "function"
    },
    {
      "inputs": [
        {
          "internalType": "contract IERC20",
          "name": "token",
          "type": "address"
        },
        {
          "internalType": "address",
          "name": "account",
          "type": "address"
        }
      ],
      "name": "release",
      "outputs": [],
      "stateMutability": "nonpayable",
      "type": "function"
    },
    {
      "inputs": [
        {
          "internalType": "contract IERC20",
          "name": "token",
          "type": "address"
        },
        {
          "internalType": "address",
          "name": "account",
          "type": "address"
        }
      ],
      "name": "released",
      "outputs": [
        {
          "internalType": "uint256",
          "name": "",
          "type": "uint256"
        }
      ],
      "stateMutability": "view",
      "type": "function"
    },
    {
      "inputs": [
        {
          "internalType": "address",
          "name": "account",
          "type": "address"
        }
      ],
      "name": "released",
      "outputs": [
        {
          "internalType": "uint256",
          "name": "",
          "type": "uint256"
        }
      ],
      "stateMutability": "view",
      "type": "function"
    },
    {
      "inputs": [],
      "name": "renounceOwnership",
      "outputs": [],
      "stateMutability": "nonpayable",
      "type": "function"
    },
    {
      "inputs": [
        {
          "internalType": "uint256",
          "name": "_tokenId",
          "type": "uint256"
        },
        {
          "internalType": "uint256",
          "name": "_salePrice",
          "type": "uint256"
        }
      ],
      "name": "royaltyInfo",
      "outputs": [
        {
          "internalType": "address",
          "name": "",
          "type": "address"
        },
        {
          "internalType": "uint256",
          "name": "",
          "type": "uint256"
        }
      ],
      "stateMutability": "view",
      "type": "function"
    },
    {
      "inputs": [],
      "name": "royaltySplitter",
      "outputs": [
        {
          "internalType": "address",
          "name": "",
          "type": "address"
        }
      ],
      "stateMutability": "view",
      "type": "function"
    },
    {
      "inputs": [
        {
          "internalType": "address",
          "name": "from",
          "type": "address"
        },
        {
          "internalType": "address",
          "name": "to",
          "type": "address"
        },
        {
          "internalType": "uint256[]",
          "name": "ids",
          "type": "uint256[]"
        },
        {
          "internalType": "uint256[]",
          "name": "amounts",
          "type": "uint256[]"
        },
        {
          "internalType": "bytes",
          "name": "data",
          "type": "bytes"
        }
      ],
      "name": "safeBatchTransferFrom",
      "outputs": [],
      "stateMutability": "nonpayable",
      "type": "function"
    },
    {
      "inputs": [
        {
          "internalType": "address",
          "name": "from",
          "type": "address"
        },
        {
          "internalType": "address",
          "name": "to",
          "type": "address"
        },
        {
          "internalType": "uint256",
          "name": "id",
          "type": "uint256"
        },
        {
          "internalType": "uint256",
          "name": "amount",
          "type": "uint256"
        },
        {
          "internalType": "bytes",
          "name": "data",
          "type": "bytes"
        }
      ],
      "name": "safeTransferFrom",
      "outputs": [],
      "stateMutability": "nonpayable",
      "type": "function"
    },
    {
      "inputs": [
        {
          "internalType": "uint256",
          "name": "_auctionStartTime",
          "type": "uint256"
        },
        {
          "internalType": "uint256",
          "name": "_auctionEndTime",
          "type": "uint256"
        },
        {
          "internalType": "uint256",
          "name": "_auctionStartPrice",
          "type": "uint256"
        },
        {
          "internalType": "uint256",
          "name": "_auctionEndPrice",
          "type": "uint256"
        }
      ],
      "name": "scheduleAuction",
      "outputs": [],
      "stateMutability": "nonpayable",
      "type": "function"
    },
    {
      "inputs": [
        {
          "internalType": "address",
          "name": "operator",
          "type": "address"
        },
        {
          "internalType": "bool",
          "name": "approved",
          "type": "bool"
        }
      ],
      "name": "setApprovalForAll",
      "outputs": [],
      "stateMutability": "nonpayable",
      "type": "function"
    },
    {
      "inputs": [
        {
          "internalType": "address",
          "name": "account",
          "type": "address"
        }
      ],
      "name": "shares",
      "outputs": [
        {
          "internalType": "uint256",
          "name": "",
          "type": "uint256"
        }
      ],
      "stateMutability": "view",
      "type": "function"
    },
    {
      "inputs": [
        {
          "internalType": "bytes4",
          "name": "interfaceId",
          "type": "bytes4"
        }
      ],
      "name": "supportsInterface",
      "outputs": [
        {
          "internalType": "bool",
          "name": "",
          "type": "bool"
        }
      ],
      "stateMutability": "view",
      "type": "function"
    },
    {
      "inputs": [
        {
          "internalType": "contract IERC20",
          "name": "token",
          "type": "address"
        }
      ],
      "name": "totalReleased",
      "outputs": [
        {
          "internalType": "uint256",
          "name": "",
          "type": "uint256"
        }
      ],
      "stateMutability": "view",
      "type": "function"
    },
    {
      "inputs": [],
      "name": "totalReleased",
      "outputs": [
        {
          "internalType": "uint256",
          "name": "",
          "type": "uint256"
        }
      ],
      "stateMutability": "view",
      "type": "function"
    },
    {
      "inputs": [],
      "name": "totalShares",
      "outputs": [
        {
          "internalType": "uint256",
          "name": "",
          "type": "uint256"
        }
      ],
      "stateMutability": "view",
      "type": "function"
    },
    {
      "inputs": [
        {
          "internalType": "uint256",
          "name": "id",
          "type": "uint256"
        }
      ],
      "name": "totalSupply",
      "outputs": [
        {
          "internalType": "uint256",
          "name": "",
          "type": "uint256"
        }
      ],
      "stateMutability": "view",
      "type": "function"
    },
    {
      "inputs": [
        {
          "internalType": "uint256",
          "name": "_tokenId",
          "type": "uint256"
        }
      ],
      "name": "trait",
      "outputs": [
        {
          "internalType": "string",
          "name": "_traitName",
          "type": "string"
        },
        {
          "internalType": "string",
          "name": "_traitValue",
          "type": "string"
        },
        {
          "internalType": "string",
          "name": "_traitTypeName",
          "type": "string"
        },
        {
          "internalType": "string",
          "name": "_traitTypeValue",
          "type": "string"
        }
      ],
      "stateMutability": "view",
      "type": "function"
    },
    {
      "inputs": [],
      "name": "traitPrice",
      "outputs": [
        {
          "internalType": "uint256",
          "name": "_price",
          "type": "uint256"
        }
      ],
      "stateMutability": "view",
      "type": "function"
    },
    {
      "inputs": [],
      "name": "traitTypes",
      "outputs": [
        {
          "internalType": "string[]",
          "name": "_traitTypeNames",
          "type": "string[]"
        },
        {
          "internalType": "string[]",
          "name": "_traitTypeValues",
          "type": "string[]"
        }
      ],
      "stateMutability": "view",
      "type": "function"
    },
    {
      "inputs": [],
      "name": "traits",
      "outputs": [
        {
          "internalType": "uint256[]",
          "name": "_traitTokenIds",
          "type": "uint256[]"
        },
        {
          "internalType": "string[]",
          "name": "_traitNames",
          "type": "string[]"
        },
        {
          "internalType": "string[]",
          "name": "_traitValues",
          "type": "string[]"
        },
        {
          "internalType": "uint256[]",
          "name": "_traitTypeIndexes",
          "type": "uint256[]"
        },
        {
          "internalType": "string[]",
          "name": "_traitTypeNames",
          "type": "string[]"
        },
        {
          "internalType": "string[]",
          "name": "_traitTypeValues",
          "type": "string[]"
        },
        {
          "internalType": "uint256[]",
          "name": "_traitTotalSupplys",
          "type": "uint256[]"
        },
        {
          "internalType": "uint256[]",
          "name": "_traitMaxSupplys",
          "type": "uint256[]"
        }
      ],
      "stateMutability": "view",
      "type": "function"
    },
    {
      "inputs": [
        {
          "internalType": "address",
          "name": "newOwner",
          "type": "address"
        }
      ],
      "name": "transferOwnership",
      "outputs": [],
      "stateMutability": "nonpayable",
      "type": "function"
    },
    {
      "inputs": [
        {
          "internalType": "address",
          "name": "_caller",
          "type": "address"
        },
        {
          "internalType": "uint256[]",
          "name": "_traitTokenIds",
          "type": "uint256[]"
        }
      ],
      "name": "transferTraitsToCreateArtwork",
      "outputs": [],
      "stateMutability": "nonpayable",
      "type": "function"
    },
    {
      "inputs": [
        {
          "internalType": "string",
          "name": "_uri",
          "type": "string"
        }
      ],
      "name": "updateURI",
      "outputs": [],
      "stateMutability": "nonpayable",
      "type": "function"
    },
    {
      "inputs": [
        {
          "internalType": "uint256",
          "name": "_tokenId",
          "type": "uint256"
        }
      ],
      "name": "uri",
      "outputs": [
        {
          "internalType": "string",
          "name": "",
          "type": "string"
        }
      ],
      "stateMutability": "view",
      "type": "function"
    },
    {
      "stateMutability": "payable",
      "type": "receive"
    }
  ],
  "transactionHash": "0x052b8f1316771803f0792583f11cae3638433774f285650e3c34cd6b8d4c97c2",
  "args": [
    "1000",
    "https://api.intrinsic.art/",
    "0x8048F1c250D47408E6F34481065cDEf3E7000Deb",
    "0xAa9D46AE079851116967c6573f961B304095C34a",
    [
      "0xAa9D46AE079851116967c6573f961B304095C34a"
    ],
    [
      "100"
    ],
    [
      "0xAa9D46AE079851116967c6573f961B304095C34a"
    ],
    [
      "100"
    ]
  ],
  "numDeployments": 1,
  "solcInputHash": "eb08aa687728c6d7f8f226c2e5c31c6c",
  "bytecode": "0x60806040523480156200001157600080fd5b5060405162006a3838038062006a38833981016040819052620000349162000792565b838388620000428162000222565b506200004e3362000234565b8051825114620000c05760405162461bcd60e51b815260206004820152603260248201527f5061796d656e7453706c69747465723a2070617965657320616e6420736861726044820152710cae640d8cadccee8d040dad2e6dac2e8c6d60731b60648201526084015b60405180910390fd5b6000825111620001135760405162461bcd60e51b815260206004820152601a60248201527f5061796d656e7453706c69747465723a206e6f207061796565730000000000006044820152606401620000b7565b60005b82518110156200017f576200016a838281518110620001395762000139620008ac565b6020026020010151838381518110620001565762000156620008ac565b60200260200101516200028660201b60201c565b806200017681620008d8565b91505062000116565b5050600e80546001600160a01b0319166001600160a01b03891617905550620001a88562000234565b60008282604051620001ba9062000575565b620001c7929190620008f4565b604051809103906000f080158015620001e4573d6000803e3d6000fd5b509050620001f3818a62000474565b600f80546001600160a01b0319166001600160a01b03929092169190911790555062000af39650505050505050565b600462000230828262000a0b565b5050565b600680546001600160a01b038381166001600160a01b0319831681179093556040519116919082907f8be0079c531659141344cd1fd0a4f28419497f9722a3daafe3b4186f6b6457e090600090a35050565b6001600160a01b038216620002f35760405162461bcd60e51b815260206004820152602c60248201527f5061796d656e7453706c69747465723a206163636f756e74206973207468652060448201526b7a65726f206164647265737360a01b6064820152608401620000b7565b60008111620003455760405162461bcd60e51b815260206004820152601d60248201527f5061796d656e7453706c69747465723a207368617265732061726520300000006044820152606401620000b7565b6001600160a01b03821660009081526009602052604090205415620003c15760405162461bcd60e51b815260206004820152602b60248201527f5061796d656e7453706c69747465723a206163636f756e7420616c726561647960448201526a206861732073686172657360a81b6064820152608401620000b7565b600b8054600181019091557f0175b7a638427703f0dbe7bb9bbf987a2551717b34e79f33b5b1008d1fa01db90180546001600160a01b0319166001600160a01b03841690811790915560009081526009602052604090208190556007546200042b90829062000ad7565b600755604080516001600160a01b0384168152602081018390527f40c340f65e17194d14ddddb073d3c9f888e3cb52b5aae0c6c7706b4fbc905fac910160405180910390a15050565b6127106001600160601b0382161115620004e45760405162461bcd60e51b815260206004820152602a60248201527f455243323938313a20726f79616c7479206665652077696c6c206578636565646044820152692073616c65507269636560b01b6064820152608401620000b7565b6001600160a01b0382166200053c5760405162461bcd60e51b815260206004820152601960248201527f455243323938313a20696e76616c6964207265636569766572000000000000006044820152606401620000b7565b604080518082019091526001600160a01b039092168083526001600160601b039091166020909201829052600160a01b90910217600055565b61128180620057b783390190565b80516001600160601b03811681146200059b57600080fd5b919050565b634e487b7160e01b600052604160045260246000fd5b604051601f8201601f191681016001600160401b0381118282101715620005e157620005e1620005a0565b604052919050565b600082601f830112620005fb57600080fd5b81516001600160401b03811115620006175762000617620005a0565b60206200062d601f8301601f19168201620005b6565b82815285828487010111156200064257600080fd5b60005b838110156200066257858101830151828201840152820162000645565b506000928101909101919091529392505050565b80516001600160a01b03811681146200059b57600080fd5b60006001600160401b03821115620006aa57620006aa620005a0565b5060051b60200190565b600082601f830112620006c657600080fd5b81516020620006df620006d9836200068e565b620005b6565b82815260059290921b84018101918181019086841115620006ff57600080fd5b8286015b848110156200072557620007178162000676565b835291830191830162000703565b509695505050505050565b600082601f8301126200074257600080fd5b8151602062000755620006d9836200068e565b82815260059290921b840181019181810190868411156200077557600080fd5b8286015b8481101562000725578051835291830191830162000779565b600080600080600080600080610100898b031215620007b057600080fd5b620007bb8962000583565b60208a01519098506001600160401b0380821115620007d957600080fd5b620007e78c838d01620005e9565b9850620007f760408c0162000676565b97506200080760608c0162000676565b965060808b01519150808211156200081e57600080fd5b6200082c8c838d01620006b4565b955060a08b01519150808211156200084357600080fd5b620008518c838d0162000730565b945060c08b01519150808211156200086857600080fd5b620008768c838d01620006b4565b935060e08b01519150808211156200088d57600080fd5b506200089c8b828c0162000730565b9150509295985092959890939650565b634e487b7160e01b600052603260045260246000fd5b634e487b7160e01b600052601160045260246000fd5b600060018201620008ed57620008ed620008c2565b5060010190565b604080825283519082018190526000906020906060840190828701845b82811015620009385781516001600160a01b03168452928401929084019060010162000911565b5050508381038285015284518082528583019183019060005b818110156200096f5783518352928401929184019160010162000951565b5090979650505050505050565b600181811c908216806200099157607f821691505b602082108103620009b257634e487b7160e01b600052602260045260246000fd5b50919050565b601f82111562000a0657600081815260208120601f850160051c81016020861015620009e15750805b601f850160051c820191505b8181101562000a0257828155600101620009ed565b5050505b505050565b81516001600160401b0381111562000a275762000a27620005a0565b62000a3f8162000a3884546200097c565b84620009b8565b602080601f83116001811462000a77576000841562000a5e5750858301515b600019600386901b1c1916600185901b17855562000a02565b600085815260208120601f198616915b8281101562000aa85788860151825594840194600190910190840162000a87565b508582101562000ac75787850151600019600388901b60f8161c191681555b5050505050600190811b01905550565b8082018082111562000aed5762000aed620008c2565b92915050565b614cb48062000b036000396000f3fe6080604052600436106102d35760003560e01c8063869f759411610179578063ce7c2ac2116100d6578063e985e9c51161008a578063f2fde38b11610064578063f2fde38b146108cd578063f3457fdf146108ed578063ffa1ad741461091d57600080fd5b8063e985e9c51461084e578063eb54f9ec14610897578063f242432a146108ad57600080fd5b8063d79779b2116100bb578063d79779b2146107da578063e1fc334f14610810578063e33b7de31461083957600080fd5b8063ce7c2ac21461078e578063d756985b146107c457600080fd5b8063a22cb4651161012d578063bd85b03911610112578063bd85b03914610721578063c30f4a5a1461074e578063c45ac0501461076e57600080fd5b8063a22cb465146106e1578063a3f8eace1461070157600080fd5b80638da5cb5b1161015e5780638da5cb5b146106775780639852595c14610695578063a04a6ac8146106cb57600080fd5b8063869f7594146106375780638b83209b1461065757600080fd5b80632eb2c2d6116102325780634b449cba116101e65780636cb80117116101c05780636cb80117146105ef578063715018a61461060f5780637bedfac01461062457600080fd5b80634b449cba1461057d5780634e1273f4146105935780634f558e79146105c057600080fd5b8063406072a911610217578063406072a9146104f7578063411d8f2f1461053d57806348b750441461055d57600080fd5b80632eb2c2d6146104c25780633a98ef39146104e257600080fd5b80630e89341c116102895780631f0a595b1161026e5780631f0a595b1461042857806326cc133e1461044b5780632a55205a1461048357600080fd5b80630e89341c146103db578063191655871461040857600080fd5b806301c8aa4b116102ba57806301c8aa4b1461036957806301ffc9a71461038b57806302afd1a1146103bb57600080fd5b8062a9bb0114610321578062fdd58e1461034957600080fd5b3661031c577f6ef95f06320e7a25a04a175ca677b7052bdd97131872c2192525a629f51be77033604080516001600160a01b0390921682523460208301520160405180910390a1005b600080fd5b34801561032d57600080fd5b50610336610966565b6040519081526020015b60405180910390f35b34801561035557600080fd5b50610336610364366004613de4565b610a09565b34801561037557600080fd5b50610389610384366004613fc6565b610ab7565b005b34801561039757600080fd5b506103ab6103a63660046140ec565b610e25565b6040519015158152602001610340565b3480156103c757600080fd5b506103896103d6366004614109565b610e63565b3480156103e757600080fd5b506103fb6103f636600461415e565b611021565b60405161034091906141c7565b34801561041457600080fd5b506103896104233660046141da565b611089565b34801561043457600080fd5b5061043d6111f3565b60405161034092919061424c565b34801561045757600080fd5b50600e5461046b906001600160a01b031681565b6040516001600160a01b039091168152602001610340565b34801561048f57600080fd5b506104a361049e36600461427a565b611446565b604080516001600160a01b039093168352602083019190915201610340565b3480156104ce57600080fd5b506103896104dd366004614302565b611503565b3480156104ee57600080fd5b50600754610336565b34801561050357600080fd5b506103366105123660046143b0565b6001600160a01b039182166000908152600d6020908152604080832093909416825291909152205490565b34801561054957600080fd5b50600f5461046b906001600160a01b031681565b34801561056957600080fd5b506103896105783660046143b0565b6115a5565b34801561058957600080fd5b5061033660115481565b34801561059f57600080fd5b506105b36105ae3660046143e9565b611739565b60405161034091906144f1565b3480156105cc57600080fd5b506103ab6105db36600461415e565b600090815260056020526040902054151590565b3480156105fb57600080fd5b5061038961060a366004614504565b611877565b34801561061b57600080fd5b50610389611984565b610389610632366004614536565b611998565b34801561064357600080fd5b5061033661065236600461415e565b611bd4565b34801561066357600080fd5b5061046b61067236600461415e565b611c02565b34801561068357600080fd5b506006546001600160a01b031661046b565b3480156106a157600080fd5b506103366106b03660046141da565b6001600160a01b03166000908152600a602052604090205490565b3480156106d757600080fd5b5061033660135481565b3480156106ed57600080fd5b506103896106fc3660046145c7565b611c32565b34801561070d57600080fd5b5061033661071c3660046141da565b611c41565b34801561072d57600080fd5b5061033661073c36600461415e565b60009081526005602052604090205490565b34801561075a57600080fd5b506103896107693660046145f5565b611c89565b34801561077a57600080fd5b506103366107893660046143b0565b611c9d565b34801561079a57600080fd5b506103366107a93660046141da565b6001600160a01b031660009081526009602052604090205490565b3480156107d057600080fd5b5061033660125481565b3480156107e657600080fd5b506103366107f53660046141da565b6001600160a01b03166000908152600c602052604090205490565b34801561081c57600080fd5b50610825611d81565b60405161034098979695949392919061462a565b34801561084557600080fd5b50600854610336565b34801561085a57600080fd5b506103ab6108693660046143b0565b6001600160a01b03918216600090815260036020908152604080832093909416825291909152205460ff1690565b3480156108a357600080fd5b5061033660105481565b3480156108b957600080fd5b506103896108c83660046146d9565b61244e565b3480156108d957600080fd5b506103896108e83660046141da565b6124e9565b3480156108f957600080fd5b5061090d61090836600461415e565b612576565b6040516103409493929190614742565b34801561092957600080fd5b506103fb6040518060400160405280600581526020017f312e302e3000000000000000000000000000000000000000000000000000000081525081565b60006010544210156109a4576040517f58fd8d1100000000000000000000000000000000000000000000000000000000815260040160405180910390fd5b6011544211156109b5575060135490565b6010546011546109c591906147a5565b6013546012546109d591906147a5565b6010546109e290426147a5565b6109ec91906147b8565b6109f691906147cf565b601254610a0391906147a5565b90505b90565b60006001600160a01b038316610a8c5760405162461bcd60e51b815260206004820152602a60248201527f455243313135353a2061646472657373207a65726f206973206e6f742061207660448201527f616c6964206f776e65720000000000000000000000000000000000000000000060648201526084015b60405180910390fd5b5060008181526002602090815260408083206001600160a01b03861684529091529020545b92915050565b610abf6128ac565b600e60009054906101000a90046001600160a01b03166001600160a01b031663cf3090126040518163ffffffff1660e01b8152600401602060405180830381865afa158015610b12573d6000803e3d6000fd5b505050506040513d601f19601f82011682018060405250810190610b3691906147f1565b15610b6d576040517f0f2e5b6c00000000000000000000000000000000000000000000000000000000815260040160405180910390fd5b601554151580610b7e575060145415155b15610bb5576040517f8c6dac7f00000000000000000000000000000000000000000000000000000000815260040160405180910390fd5b89511580610bc1575086155b80610bce575088518a5114155b80610bd95750868514155b80610be45750868314155b80610bef5750868114155b15610c0d5760405163a9854bc960e01b815260040160405180910390fd5b60005b8a51811015610cad57601460405180604001604052808d8481518110610c3857610c3861480e565b602002602001015181526020018c8481518110610c5757610c5761480e565b6020908102919091018101519091528254600181018455600093845292208151919260020201908190610c8a90826148a4565b5060208201516001820190610c9f90826148a4565b505050806001019050610c10565b5060005b87811015610e1857601560405180608001604052808b8b85818110610cd857610cd861480e565b9050602002810190610cea9190614964565b8080601f016020809104026020016040519081016040528093929190818152602001838380828437600092019190915250505090825250602001898985818110610d3657610d3661480e565b9050602002810190610d489190614964565b8080601f016020809104026020016040519081016040528093929190818152602001838380828437600092019190915250505090825250602001878785818110610d9457610d9461480e565b905060200201358152602001858585818110610db257610db261480e565b60209081029290920135909252835460018101855560009485529320825192936004020191829150610de490826148a4565b5060208201516001820190610df990826148a4565b5060408201516002820155606090910151600390910155600101610cb1565b5050505050505050505050565b60006001600160e01b031982167f53ceec82000000000000000000000000000000000000000000000000000000001480610ab15750610ab182612906565b600e546001600160a01b03163314610ea7576040517f6447134900000000000000000000000000000000000000000000000000000000815260040160405180910390fd5b6014548114610ec95760405163a9854bc960e01b815260040160405180910390fd5b60008167ffffffffffffffff811115610ee457610ee4613e10565b604051908082528060200260200182016040528015610f0d578160200160208202803683370190505b50905060005b82811015610fb757806015858584818110610f3057610f3061480e565b9050602002013581548110610f4757610f4761480e565b90600052602060002090600402016002015414610f90576040517fc886447400000000000000000000000000000000000000000000000000000000815260040160405180910390fd5b6001828281518110610fa457610fa461480e565b6020908102919091010152600101610f13565b5061101b84600e60009054906101000a90046001600160a01b03168585808060200260200160405190810160405280939291908181526020018383602002808284376000920182905250604080516020810190915290815288935091506129789050565b50505050565b6015546060908210611046576040516307ed98ed60e31b815260040160405180910390fd5b61104f82612be7565b61105830612c7b565b61106184612c91565b604051602001611073939291906149ab565b6040516020818303038152906040529050919050565b6001600160a01b0381166000908152600960205260409020546110fd5760405162461bcd60e51b815260206004820152602660248201527f5061796d656e7453706c69747465723a206163636f756e7420686173206e6f2060448201526573686172657360d01b6064820152608401610a83565b600061110882611c41565b90508060000361116e5760405162461bcd60e51b815260206004820152602b60248201527f5061796d656e7453706c69747465723a206163636f756e74206973206e6f742060448201526a191d59481c185e5b595b9d60aa1b6064820152608401610a83565b80600860008282546111809190614a17565b90915550506001600160a01b0382166000908152600a602052604090208054820190556111ad8282612d31565b604080516001600160a01b0384168152602081018390527fdf20fd1e76bc69d672e4814fafb2c449bba3a5369d8359adf9e05e6fde87b056910160405180910390a15050565b60145460609081908067ffffffffffffffff81111561121457611214613e10565b60405190808252806020026020018201604052801561124757816020015b60608152602001906001900390816112325790505b5092508067ffffffffffffffff81111561126357611263613e10565b60405190808252806020026020018201604052801561129657816020015b60608152602001906001900390816112815790505b50915060005b8181101561144057601481815481106112b7576112b761480e565b906000526020600020906002020160000180546112d390614824565b80601f01602080910402602001604051908101604052809291908181526020018280546112ff90614824565b801561134c5780601f106113215761010080835404028352916020019161134c565b820191906000526020600020905b81548152906001019060200180831161132f57829003601f168201915b50505050508482815181106113635761136361480e565b6020026020010181905250601481815481106113815761138161480e565b9060005260206000209060020201600101805461139d90614824565b80601f01602080910402602001604051908101604052809291908181526020018280546113c990614824565b80156114165780601f106113eb57610100808354040283529160200191611416565b820191906000526020600020905b8154815290600101906020018083116113f957829003601f168201915b505050505083828151811061142d5761142d61480e565b602090810291909101015260010161129c565b50509091565b60008281526001602090815260408083208151808301909252546001600160a01b038116808352600160a01b9091046bffffffffffffffffffffffff169282019290925282916114c55750604080518082019091526000546001600160a01b0381168252600160a01b90046bffffffffffffffffffffffff1660208201525b6020810151600090612710906114e9906bffffffffffffffffffffffff16876147b8565b6114f391906147cf565b91519350909150505b9250929050565b6001600160a01b03851633148061151f575061151f8533610869565b6115915760405162461bcd60e51b815260206004820152602e60248201527f455243313135353a2063616c6c6572206973206e6f7420746f6b656e206f776e60448201527f6572206f7220617070726f7665640000000000000000000000000000000000006064820152608401610a83565b61159e8585858585612978565b5050505050565b6001600160a01b0381166000908152600960205260409020546116195760405162461bcd60e51b815260206004820152602660248201527f5061796d656e7453706c69747465723a206163636f756e7420686173206e6f2060448201526573686172657360d01b6064820152608401610a83565b60006116258383611c9d565b90508060000361168b5760405162461bcd60e51b815260206004820152602b60248201527f5061796d656e7453706c69747465723a206163636f756e74206973206e6f742060448201526a191d59481c185e5b595b9d60aa1b6064820152608401610a83565b6001600160a01b0383166000908152600c6020526040812080548392906116b3908490614a17565b90915550506001600160a01b038084166000908152600d602090815260408083209386168352929052208054820190556116ee838383612e4f565b604080516001600160a01b038481168252602082018490528516917f3be5b7a71e84ed12875d241991c70855ac5817d847039e17a9d895c1ceb0f18a910160405180910390a2505050565b606081518351146117b25760405162461bcd60e51b815260206004820152602960248201527f455243313135353a206163636f756e747320616e6420696473206c656e67746860448201527f206d69736d6174636800000000000000000000000000000000000000000000006064820152608401610a83565b6000835167ffffffffffffffff8111156117ce576117ce613e10565b6040519080825280602002602001820160405280156117f7578160200160208202803683370190505b50905060005b845181101561186f5761184285828151811061181b5761181b61480e565b60200260200101518583815181106118355761183561480e565b6020026020010151610a09565b8282815181106118545761185461480e565b602090810291909101015261186881614a2a565b90506117fd565b509392505050565b61187f6128ac565b600e60009054906101000a90046001600160a01b03166001600160a01b031663cf3090126040518163ffffffff1660e01b8152600401602060405180830381865afa1580156118d2573d6000803e3d6000fd5b505050506040513d601f19601f820116820180604052508101906118f691906147f1565b61192c576040517f1834e26500000000000000000000000000000000000000000000000000000000815260040160405180910390fd5b8383108061193957508181115b15611970576040517f2156216000000000000000000000000000000000000000000000000000000000815260040160405180910390fd5b601093909355601191909155601255601355565b61198c6128ac565b6119966000612ecf565b565b8281146119b85760405163a9854bc960e01b815260040160405180910390fd5b6000806119c3610966565b905060005b83811015611ac4578484828181106119e2576119e261480e565b90506020020135836119f49190614a17565b92506015878783818110611a0a57611a0a61480e565b9050602002013581548110611a2157611a2161480e565b906000526020600020906004020160030154858583818110611a4557611a4561480e565b90506020020135611a7a898985818110611a6157611a6161480e565b9050602002013560009081526005602052604090205490565b611a849190614a17565b1115611abc576040517fb36c128400000000000000000000000000000000000000000000000000000000815260040160405180910390fd5b6001016119c8565b50611acf81836147b8565b341015611b08576040517f0772327b00000000000000000000000000000000000000000000000000000000815260040160405180910390fd5b611b848787878080602002602001604051908101604052809392919081815260200183836020028082843760009201919091525050604080516020808b0282810182019093528a82529093508a925089918291850190849080828437600092018290525060408051602081019091529081529250612f39915050565b866001600160a01b03167f5e69dace42908bf940c680c4fd1884a926e1e39b2c2a350d9a0b96eeed5d32a687878787604051611bc39493929190614a8e565b60405180910390a250505050505050565b600060158281548110611be957611be961480e565b9060005260206000209060040201600301549050919050565b6000600b8281548110611c1757611c1761480e565b6000918252602090912001546001600160a01b031692915050565b611c3d33838361312b565b5050565b600080611c4d60085490565b611c579047614a17565b9050611c828382611c7d866001600160a01b03166000908152600a602052604090205490565b61321f565b9392505050565b611c916128ac565b611c9a8161325d565b50565b6001600160a01b0382166000908152600c602052604081205481906040517f70a082310000000000000000000000000000000000000000000000000000000081523060048201526001600160a01b038616906370a0823190602401602060405180830381865afa158015611d15573d6000803e3d6000fd5b505050506040513d601f19601f82011682018060405250810190611d399190614ab5565b611d439190614a17565b6001600160a01b038086166000908152600d6020908152604080832093881683529290522054909150611d79908490839061321f565b949350505050565b606080606080606080606080600060158054905090508067ffffffffffffffff811115611db057611db0613e10565b604051908082528060200260200182016040528015611dd9578160200160208202803683370190505b5098508067ffffffffffffffff811115611df557611df5613e10565b604051908082528060200260200182016040528015611e2857816020015b6060815260200190600190039081611e135790505b5097508067ffffffffffffffff811115611e4457611e44613e10565b604051908082528060200260200182016040528015611e7757816020015b6060815260200190600190039081611e625790505b5096508067ffffffffffffffff811115611e9357611e93613e10565b604051908082528060200260200182016040528015611ebc578160200160208202803683370190505b5095508067ffffffffffffffff811115611ed857611ed8613e10565b604051908082528060200260200182016040528015611f0b57816020015b6060815260200190600190039081611ef65790505b5094508067ffffffffffffffff811115611f2757611f27613e10565b604051908082528060200260200182016040528015611f5a57816020015b6060815260200190600190039081611f455790505b5093508067ffffffffffffffff811115611f7657611f76613e10565b604051908082528060200260200182016040528015611f9f578160200160208202803683370190505b5092508067ffffffffffffffff811115611fbb57611fbb613e10565b604051908082528060200260200182016040528015611fe4578160200160208202803683370190505b50915060005b8181101561244257808a82815181106120055761200561480e565b602002602001018181525050601581815481106120245761202461480e565b9060005260206000209060040201600001805461204090614824565b80601f016020809104026020016040519081016040528092919081815260200182805461206c90614824565b80156120b95780601f1061208e576101008083540402835291602001916120b9565b820191906000526020600020905b81548152906001019060200180831161209c57829003601f168201915b50505050508982815181106120d0576120d061480e565b6020026020010181905250601581815481106120ee576120ee61480e565b9060005260206000209060040201600101805461210a90614824565b80601f016020809104026020016040519081016040528092919081815260200182805461213690614824565b80156121835780601f1061215857610100808354040283529160200191612183565b820191906000526020600020905b81548152906001019060200180831161216657829003601f168201915b505050505088828151811061219a5761219a61480e565b6020026020010181905250601581815481106121b8576121b861480e565b9060005260206000209060040201600201548782815181106121dc576121dc61480e565b6020026020010181815250506014601582815481106121fd576121fd61480e565b9060005260206000209060040201600201548154811061221f5761221f61480e565b9060005260206000209060020201600001805461223b90614824565b80601f016020809104026020016040519081016040528092919081815260200182805461226790614824565b80156122b45780601f10612289576101008083540402835291602001916122b4565b820191906000526020600020905b81548152906001019060200180831161229757829003601f168201915b50505050508682815181106122cb576122cb61480e565b60200260200101819052506014601582815481106122eb576122eb61480e565b9060005260206000209060040201600201548154811061230d5761230d61480e565b9060005260206000209060020201600101805461232990614824565b80601f016020809104026020016040519081016040528092919081815260200182805461235590614824565b80156123a25780601f10612377576101008083540402835291602001916123a2565b820191906000526020600020905b81548152906001019060200180831161238557829003601f168201915b50505050508582815181106123b9576123b961480e565b60200260200101819052506123da8160009081526005602052604090205490565b8482815181106123ec576123ec61480e565b6020026020010181815250506015818154811061240b5761240b61480e565b90600052602060002090600402016003015483828151811061242f5761242f61480e565b6020908102919091010152600101611fea565b50509091929394959697565b6001600160a01b03851633148061246a575061246a8533610869565b6124dc5760405162461bcd60e51b815260206004820152602e60248201527f455243313135353a2063616c6c6572206973206e6f7420746f6b656e206f776e60448201527f6572206f7220617070726f7665640000000000000000000000000000000000006064820152608401610a83565b61159e8585858585613269565b6124f16128ac565b6001600160a01b03811661256d5760405162461bcd60e51b815260206004820152602660248201527f4f776e61626c653a206e6577206f776e657220697320746865207a65726f206160448201527f64647265737300000000000000000000000000000000000000000000000000006064820152608401610a83565b611c9a81612ecf565b60608060608060158054905085106125a1576040516307ed98ed60e31b815260040160405180910390fd5b601585815481106125b4576125b461480e565b906000526020600020906004020160000180546125d090614824565b80601f01602080910402602001604051908101604052809291908181526020018280546125fc90614824565b80156126495780601f1061261e57610100808354040283529160200191612649565b820191906000526020600020905b81548152906001019060200180831161262c57829003601f168201915b50505050509350601585815481106126635761266361480e565b9060005260206000209060040201600101805461267f90614824565b80601f01602080910402602001604051908101604052809291908181526020018280546126ab90614824565b80156126f85780601f106126cd576101008083540402835291602001916126f8565b820191906000526020600020905b8154815290600101906020018083116126db57829003601f168201915b505050505092506014601586815481106127145761271461480e565b906000526020600020906004020160020154815481106127365761273661480e565b9060005260206000209060020201600001805461275290614824565b80601f016020809104026020016040519081016040528092919081815260200182805461277e90614824565b80156127cb5780601f106127a0576101008083540402835291602001916127cb565b820191906000526020600020905b8154815290600101906020018083116127ae57829003601f168201915b505050505091506014601586815481106127e7576127e761480e565b906000526020600020906004020160020154815481106128095761280961480e565b9060005260206000209060020201600101805461282590614824565b80601f016020809104026020016040519081016040528092919081815260200182805461285190614824565b801561289e5780601f106128735761010080835404028352916020019161289e565b820191906000526020600020905b81548152906001019060200180831161288157829003601f168201915b505050505090509193509193565b6006546001600160a01b031633146119965760405162461bcd60e51b815260206004820181905260248201527f4f776e61626c653a2063616c6c6572206973206e6f7420746865206f776e65726044820152606401610a83565b60006001600160e01b031982167fd9b67a2600000000000000000000000000000000000000000000000000000000148061296957506001600160e01b031982167f0e89341c00000000000000000000000000000000000000000000000000000000145b80610ab15750610ab182613426565b81518351146129da5760405162461bcd60e51b815260206004820152602860248201527f455243313135353a2069647320616e6420616d6f756e7473206c656e677468206044820152670dad2e6dac2e8c6d60c31b6064820152608401610a83565b6001600160a01b038416612a3e5760405162461bcd60e51b815260206004820152602560248201527f455243313135353a207472616e7366657220746f20746865207a65726f206164604482015264647265737360d81b6064820152608401610a83565b33612a4d81878787878761348d565b60005b8451811015612b79576000858281518110612a6d57612a6d61480e565b602002602001015190506000858381518110612a8b57612a8b61480e565b60209081029190910181015160008481526002835260408082206001600160a01b038e168352909352919091205490915081811015612b1f5760405162461bcd60e51b815260206004820152602a60248201527f455243313135353a20696e73756666696369656e742062616c616e636520666f60448201526939103a3930b739b332b960b11b6064820152608401610a83565b60008381526002602090815260408083206001600160a01b038e8116855292528083208585039055908b16825281208054849290612b5e908490614a17565b9250508190555050505080612b7290614a2a565b9050612a50565b50846001600160a01b0316866001600160a01b0316826001600160a01b03167f4a39dc06d4c0dbc64b70af90fd698a233a518aa5d07e595d983b8c0526c8f7fb8787604051612bc9929190614ace565b60405180910390a4612bdf81878787878761349b565b505050505050565b606060048054612bf690614824565b80601f0160208091040260200160405190810160405280929190818152602001828054612c2290614824565b8015612c6f5780601f10612c4457610100808354040283529160200191612c6f565b820191906000526020600020905b815481529060010190602001808311612c5257829003601f168201915b50505050509050919050565b6060610ab16001600160a01b0383166014613649565b60606000612c9e8361382a565b600101905060008167ffffffffffffffff811115612cbe57612cbe613e10565b6040519080825280601f01601f191660200182016040528015612ce8576020820181803683370190505b5090508181016020015b600019017f3031323334353637383961626364656600000000000000000000000000000000600a86061a8153600a8504945084612cf257509392505050565b80471015612d815760405162461bcd60e51b815260206004820152601d60248201527f416464726573733a20696e73756666696369656e742062616c616e63650000006044820152606401610a83565b6000826001600160a01b03168260405160006040518083038185875af1925050503d8060008114612dce576040519150601f19603f3d011682016040523d82523d6000602084013e612dd3565b606091505b5050905080612e4a5760405162461bcd60e51b815260206004820152603a60248201527f416464726573733a20756e61626c6520746f2073656e642076616c75652c207260448201527f6563697069656e74206d617920686176652072657665727465640000000000006064820152608401610a83565b505050565b604080516001600160a01b038416602482015260448082018490528251808303909101815260649091019091526020810180517bffffffffffffffffffffffffffffffffffffffffffffffffffffffff167fa9059cbb00000000000000000000000000000000000000000000000000000000179052612e4a90849061390c565b600680546001600160a01b038381167fffffffffffffffffffffffff0000000000000000000000000000000000000000831681179093556040519116919082907f8be0079c531659141344cd1fd0a4f28419497f9722a3daafe3b4186f6b6457e090600090a35050565b6001600160a01b038416612fb55760405162461bcd60e51b815260206004820152602160248201527f455243313135353a206d696e7420746f20746865207a65726f2061646472657360448201527f73000000000000000000000000000000000000000000000000000000000000006064820152608401610a83565b81518351146130175760405162461bcd60e51b815260206004820152602860248201527f455243313135353a2069647320616e6420616d6f756e7473206c656e677468206044820152670dad2e6dac2e8c6d60c31b6064820152608401610a83565b336130278160008787878761348d565b60005b84518110156130c3578381815181106130455761304561480e565b6020026020010151600260008784815181106130635761306361480e565b602002602001015181526020019081526020016000206000886001600160a01b03166001600160a01b0316815260200190815260200160002060008282546130ab9190614a17565b909155508190506130bb81614a2a565b91505061302a565b50846001600160a01b031660006001600160a01b0316826001600160a01b03167f4a39dc06d4c0dbc64b70af90fd698a233a518aa5d07e595d983b8c0526c8f7fb8787604051613114929190614ace565b60405180910390a461159e8160008787878761349b565b816001600160a01b0316836001600160a01b0316036131b25760405162461bcd60e51b815260206004820152602960248201527f455243313135353a2073657474696e6720617070726f76616c2073746174757360448201527f20666f722073656c6600000000000000000000000000000000000000000000006064820152608401610a83565b6001600160a01b03838116600081815260036020908152604080832094871680845294825291829020805460ff191686151590811790915591519182527f17307eab39ab6107e8899845ad3d59bd9653f200f220920489ca2b5937696c31910160405180910390a3505050565b6007546001600160a01b0384166000908152600960205260408120549091839161324990866147b8565b61325391906147cf565b611d7991906147a5565b6004611c3d82826148a4565b6001600160a01b0384166132cd5760405162461bcd60e51b815260206004820152602560248201527f455243313135353a207472616e7366657220746f20746865207a65726f206164604482015264647265737360d81b6064820152608401610a83565b3360006132d9856139f1565b905060006132e6856139f1565b90506132f683898985858961348d565b60008681526002602090815260408083206001600160a01b038c1684529091529020548581101561337c5760405162461bcd60e51b815260206004820152602a60248201527f455243313135353a20696e73756666696369656e742062616c616e636520666f60448201526939103a3930b739b332b960b11b6064820152608401610a83565b60008781526002602090815260408083206001600160a01b038d8116855292528083208985039055908a168252812080548892906133bb908490614a17565b909155505060408051888152602081018890526001600160a01b03808b16928c821692918816917fc3d58168c5ae7397731d063d5bbf3d657854427343f4c083240f7aacaa2d0f62910160405180910390a461341b848a8a8a8a8a613a3c565b505050505050505050565b60006001600160e01b031982167f2a55205a000000000000000000000000000000000000000000000000000000001480610ab157507f01ffc9a7000000000000000000000000000000000000000000000000000000006001600160e01b0319831614610ab1565b612bdf868686868686613b38565b6001600160a01b0384163b15612bdf5760405163bc197c8160e01b81526001600160a01b0385169063bc197c81906134df9089908990889088908890600401614af3565b6020604051808303816000875af192505050801561351a575060408051601f3d908101601f1916820190925261351791810190614b51565b60015b6135cf57613526614b6e565b806308c379a00361355f575061353a614b89565b806135455750613561565b8060405162461bcd60e51b8152600401610a8391906141c7565b505b60405162461bcd60e51b815260206004820152603460248201527f455243313135353a207472616e7366657220746f206e6f6e2d4552433131353560448201527f526563656976657220696d706c656d656e7465720000000000000000000000006064820152608401610a83565b6001600160e01b0319811663bc197c8160e01b146136405760405162461bcd60e51b815260206004820152602860248201527f455243313135353a204552433131353552656365697665722072656a656374656044820152676420746f6b656e7360c01b6064820152608401610a83565b50505050505050565b606060006136588360026147b8565b613663906002614a17565b67ffffffffffffffff81111561367b5761367b613e10565b6040519080825280601f01601f1916602001820160405280156136a5576020820181803683370190505b5090507f3000000000000000000000000000000000000000000000000000000000000000816000815181106136dc576136dc61480e565b60200101906001600160f81b031916908160001a9053507f7800000000000000000000000000000000000000000000000000000000000000816001815181106137275761372761480e565b60200101906001600160f81b031916908160001a905350600061374b8460026147b8565b613756906001614a17565b90505b60018111156137db577f303132333435363738396162636465660000000000000000000000000000000085600f16601081106137975761379761480e565b1a60f81b8282815181106137ad576137ad61480e565b60200101906001600160f81b031916908160001a90535060049490941c936137d481614c13565b9050613759565b508315611c825760405162461bcd60e51b815260206004820181905260248201527f537472696e67733a20686578206c656e67746820696e73756666696369656e746044820152606401610a83565b6000807a184f03e93ff9f4daa797ed6e38ed64bf6a1f0100000000000000008310613873577a184f03e93ff9f4daa797ed6e38ed64bf6a1f010000000000000000830492506040015b6d04ee2d6d415b85acef8100000000831061389f576d04ee2d6d415b85acef8100000000830492506020015b662386f26fc1000083106138bd57662386f26fc10000830492506010015b6305f5e10083106138d5576305f5e100830492506008015b61271083106138e957612710830492506004015b606483106138fb576064830492506002015b600a8310610ab15760010192915050565b6000613961826040518060400160405280602081526020017f5361666545524332303a206c6f772d6c6576656c2063616c6c206661696c6564815250856001600160a01b0316613cc69092919063ffffffff16565b805190915015612e4a578080602001905181019061397f91906147f1565b612e4a5760405162461bcd60e51b815260206004820152602a60248201527f5361666545524332303a204552433230206f7065726174696f6e20646964206e60448201527f6f742073756363656564000000000000000000000000000000000000000000006064820152608401610a83565b60408051600180825281830190925260609160009190602080830190803683370190505090508281600081518110613a2b57613a2b61480e565b602090810291909101015292915050565b6001600160a01b0384163b15612bdf5760405163f23a6e6160e01b81526001600160a01b0385169063f23a6e6190613a809089908990889088908890600401614c2a565b6020604051808303816000875af1925050508015613abb575060408051601f3d908101601f19168201909252613ab891810190614b51565b60015b613ac757613526614b6e565b6001600160e01b0319811663f23a6e6160e01b146136405760405162461bcd60e51b815260206004820152602860248201527f455243313135353a204552433131353552656365697665722072656a656374656044820152676420746f6b656e7360c01b6064820152608401610a83565b6001600160a01b038516613bbf5760005b8351811015613bbd57828181518110613b6457613b6461480e565b602002602001015160056000868481518110613b8257613b8261480e565b602002602001015181526020019081526020016000206000828254613ba79190614a17565b90915550613bb6905081614a2a565b9050613b49565b505b6001600160a01b038416612bdf5760005b8351811015613640576000848281518110613bed57613bed61480e565b602002602001015190506000848381518110613c0b57613c0b61480e565b6020026020010151905060006005600084815260200190815260200160002054905081811015613ca35760405162461bcd60e51b815260206004820152602860248201527f455243313135353a206275726e20616d6f756e74206578636565647320746f7460448201527f616c537570706c790000000000000000000000000000000000000000000000006064820152608401610a83565b60009283526005602052604090922091039055613cbf81614a2a565b9050613bd0565b6060611d79848460008585600080866001600160a01b03168587604051613ced9190614c62565b60006040518083038185875af1925050503d8060008114613d2a576040519150601f19603f3d011682016040523d82523d6000602084013e613d2f565b606091505b5091509150613d4087838387613d4b565b979650505050505050565b60608315613dba578251600003613db3576001600160a01b0385163b613db35760405162461bcd60e51b815260206004820152601d60248201527f416464726573733a2063616c6c20746f206e6f6e2d636f6e74726163740000006044820152606401610a83565b5081611d79565b611d7983838151156135455781518083602001fd5b6001600160a01b0381168114611c9a57600080fd5b60008060408385031215613df757600080fd5b8235613e0281613dcf565b946020939093013593505050565b634e487b7160e01b600052604160045260246000fd5b601f8201601f1916810167ffffffffffffffff81118282101715613e4c57613e4c613e10565b6040525050565b600067ffffffffffffffff821115613e6d57613e6d613e10565b5060051b60200190565b600082601f830112613e8857600080fd5b813567ffffffffffffffff811115613ea257613ea2613e10565b604051613eb9601f8301601f191660200182613e26565b818152846020838601011115613ece57600080fd5b816020850160208301376000918101602001919091529392505050565b600082601f830112613efc57600080fd5b81356020613f0982613e53565b604051613f168282613e26565b83815260059390931b8501820192828101915086841115613f3657600080fd5b8286015b84811015613f7657803567ffffffffffffffff811115613f5a5760008081fd5b613f688986838b0101613e77565b845250918301918301613f3a565b509695505050505050565b60008083601f840112613f9357600080fd5b50813567ffffffffffffffff811115613fab57600080fd5b6020830191508360208260051b85010111156114fc57600080fd5b60008060008060008060008060008060c08b8d031215613fe557600080fd5b8a3567ffffffffffffffff80821115613ffd57600080fd5b6140098e838f01613eeb565b9b5060208d013591508082111561401f57600080fd5b61402b8e838f01613eeb565b9a5060408d013591508082111561404157600080fd5b61404d8e838f01613f81565b909a50985060608d013591508082111561406657600080fd5b6140728e838f01613f81565b909850965060808d013591508082111561408b57600080fd5b6140978e838f01613f81565b909650945060a08d01359150808211156140b057600080fd5b506140bd8d828e01613f81565b915080935050809150509295989b9194979a5092959850565b6001600160e01b031981168114611c9a57600080fd5b6000602082840312156140fe57600080fd5b8135611c82816140d6565b60008060006040848603121561411e57600080fd5b833561412981613dcf565b9250602084013567ffffffffffffffff81111561414557600080fd5b61415186828701613f81565b9497909650939450505050565b60006020828403121561417057600080fd5b5035919050565b60005b8381101561419257818101518382015260200161417a565b50506000910152565b600081518084526141b3816020860160208601614177565b601f01601f19169290920160200192915050565b602081526000611c82602083018461419b565b6000602082840312156141ec57600080fd5b8135611c8281613dcf565b600081518084526020808501808196508360051b8101915082860160005b8581101561423f57828403895261422d84835161419b565b98850198935090840190600101614215565b5091979650505050505050565b60408152600061425f60408301856141f7565b828103602084015261427181856141f7565b95945050505050565b6000806040838503121561428d57600080fd5b50508035926020909101359150565b600082601f8301126142ad57600080fd5b813560206142ba82613e53565b6040516142c78282613e26565b83815260059390931b85018201928281019150868411156142e757600080fd5b8286015b84811015613f7657803583529183019183016142eb565b600080600080600060a0868803121561431a57600080fd5b853561432581613dcf565b9450602086013561433581613dcf565b9350604086013567ffffffffffffffff8082111561435257600080fd5b61435e89838a0161429c565b9450606088013591508082111561437457600080fd5b61438089838a0161429c565b9350608088013591508082111561439657600080fd5b506143a388828901613e77565b9150509295509295909350565b600080604083850312156143c357600080fd5b82356143ce81613dcf565b915060208301356143de81613dcf565b809150509250929050565b600080604083850312156143fc57600080fd5b823567ffffffffffffffff8082111561441457600080fd5b818501915085601f83011261442857600080fd5b8135602061443582613e53565b6040516144428282613e26565b83815260059390931b850182019282810191508984111561446257600080fd5b948201945b8386101561448957853561447a81613dcf565b82529482019490820190614467565b9650508601359250508082111561449f57600080fd5b506144ac8582860161429c565b9150509250929050565b600081518084526020808501945080840160005b838110156144e6578151875295820195908201906001016144ca565b509495945050505050565b602081526000611c8260208301846144b6565b6000806000806080858703121561451a57600080fd5b5050823594602084013594506040840135936060013592509050565b60008060008060006060868803121561454e57600080fd5b853561455981613dcf565b9450602086013567ffffffffffffffff8082111561457657600080fd5b61458289838a01613f81565b9096509450604088013591508082111561459b57600080fd5b506145a888828901613f81565b969995985093965092949392505050565b8015158114611c9a57600080fd5b600080604083850312156145da57600080fd5b82356145e581613dcf565b915060208301356143de816145b9565b60006020828403121561460757600080fd5b813567ffffffffffffffff81111561461e57600080fd5b611d7984828501613e77565b600061010080835261463e8184018c6144b6565b90508281036020840152614652818b6141f7565b90508281036040840152614666818a6141f7565b9050828103606084015261467a81896144b6565b9050828103608084015261468e81886141f7565b905082810360a08401526146a281876141f7565b905082810360c08401526146b681866144b6565b905082810360e08401526146ca81856144b6565b9b9a5050505050505050505050565b600080600080600060a086880312156146f157600080fd5b85356146fc81613dcf565b9450602086013561470c81613dcf565b93506040860135925060608601359150608086013567ffffffffffffffff81111561473657600080fd5b6143a388828901613e77565b608081526000614755608083018761419b565b8281036020840152614767818761419b565b9050828103604084015261477b818661419b565b90508281036060840152613d40818561419b565b634e487b7160e01b600052601160045260246000fd5b81810381811115610ab157610ab161478f565b8082028115828204841417610ab157610ab161478f565b6000826147ec57634e487b7160e01b600052601260045260246000fd5b500490565b60006020828403121561480357600080fd5b8151611c82816145b9565b634e487b7160e01b600052603260045260246000fd5b600181811c9082168061483857607f821691505b60208210810361485857634e487b7160e01b600052602260045260246000fd5b50919050565b601f821115612e4a57600081815260208120601f850160051c810160208610156148855750805b601f850160051c820191505b81811015612bdf57828155600101614891565b815167ffffffffffffffff8111156148be576148be613e10565b6148d2816148cc8454614824565b8461485e565b602080601f83116001811461490757600084156148ef5750858301515b600019600386901b1c1916600185901b178555612bdf565b600085815260208120601f198616915b8281101561493657888601518255948401946001909101908401614917565b50858210156149545787850151600019600388901b60f8161c191681555b5050505050600190811b01905550565b6000808335601e1984360301811261497b57600080fd5b83018035915067ffffffffffffffff82111561499657600080fd5b6020019150368190038213156114fc57600080fd5b600084516149bd818460208901614177565b8451908301906149d1818360208901614177565b7f2f0000000000000000000000000000000000000000000000000000000000000091019081528351614a0a816001840160208801614177565b0160010195945050505050565b80820180821115610ab157610ab161478f565b600060018201614a3c57614a3c61478f565b5060010190565b81835260007f07ffffffffffffffffffffffffffffffffffffffffffffffffffffffffffffff831115614a7557600080fd5b8260051b80836020870137939093016020019392505050565b604081526000614aa2604083018688614a43565b8281036020840152613d40818587614a43565b600060208284031215614ac757600080fd5b5051919050565b604081526000614ae160408301856144b6565b828103602084015261427181856144b6565b60006001600160a01b03808816835280871660208401525060a06040830152614b1f60a08301866144b6565b8281036060840152614b3181866144b6565b90508281036080840152614b45818561419b565b98975050505050505050565b600060208284031215614b6357600080fd5b8151611c82816140d6565b600060033d1115610a065760046000803e5060005160e01c90565b600060443d1015614b975790565b6040516003193d81016004833e81513d67ffffffffffffffff8160248401118184111715614bc757505050505090565b8285019150815181811115614bdf5750505050505090565b843d8701016020828501011115614bf95750505050505090565b614c0860208286010187613e26565b509095945050505050565b600081614c2257614c2261478f565b506000190190565b60006001600160a01b03808816835280871660208401525084604083015283606083015260a06080830152613d4060a083018461419b565b60008251614c74818460208701614177565b919091019291505056fea2646970667358221220a658ba5d2cb5267e75c1b2b7d8ce930becdda56a39ae2dc3772aa6cbd0b7d72364736f6c634300081300336080604052604051620012813803806200128183398101604081905262000026916200042e565b8051825114620000985760405162461bcd60e51b815260206004820152603260248201527f5061796d656e7453706c69747465723a2070617965657320616e6420736861726044820152710cae640d8cadccee8d040dad2e6dac2e8c6d60731b60648201526084015b60405180910390fd5b6000825111620000eb5760405162461bcd60e51b815260206004820152601a60248201527f5061796d656e7453706c69747465723a206e6f2070617965657300000000000060448201526064016200008f565b60005b82518110156200015757620001428382815181106200011157620001116200050c565b60200260200101518383815181106200012e576200012e6200050c565b60200260200101516200016060201b60201c565b806200014e8162000538565b915050620000ee565b50505062000570565b6001600160a01b038216620001cd5760405162461bcd60e51b815260206004820152602c60248201527f5061796d656e7453706c69747465723a206163636f756e74206973207468652060448201526b7a65726f206164647265737360a01b60648201526084016200008f565b600081116200021f5760405162461bcd60e51b815260206004820152601d60248201527f5061796d656e7453706c69747465723a2073686172657320617265203000000060448201526064016200008f565b6001600160a01b038216600090815260026020526040902054156200029b5760405162461bcd60e51b815260206004820152602b60248201527f5061796d656e7453706c69747465723a206163636f756e7420616c726561647960448201526a206861732073686172657360a81b60648201526084016200008f565b60048054600181019091557f8a35acfbc15ff81a39ae7d344fd709f28e8600b4aa8c65c6b64bfe7fe36bd19b0180546001600160a01b0319166001600160a01b0384169081179091556000908152600260205260408120829055546200030390829062000554565b600055604080516001600160a01b0384168152602081018390527f40c340f65e17194d14ddddb073d3c9f888e3cb52b5aae0c6c7706b4fbc905fac910160405180910390a15050565b634e487b7160e01b600052604160045260246000fd5b604051601f8201601f191681016001600160401b03811182821017156200038d576200038d6200034c565b604052919050565b60006001600160401b03821115620003b157620003b16200034c565b5060051b60200190565b600082601f830112620003cd57600080fd5b81516020620003e6620003e08362000395565b62000362565b82815260059290921b840181019181810190868411156200040657600080fd5b8286015b848110156200042357805183529183019183016200040a565b509695505050505050565b600080604083850312156200044257600080fd5b82516001600160401b03808211156200045a57600080fd5b818501915085601f8301126200046f57600080fd5b8151602062000482620003e08362000395565b82815260059290921b84018101918181019089841115620004a257600080fd5b948201945b83861015620004d95785516001600160a01b0381168114620004c95760008081fd5b82529482019490820190620004a7565b91880151919650909350505080821115620004f357600080fd5b506200050285828601620003bb565b9150509250929050565b634e487b7160e01b600052603260045260246000fd5b634e487b7160e01b600052601160045260246000fd5b6000600182016200054d576200054d62000522565b5060010190565b808201808211156200056a576200056a62000522565b92915050565b610d0180620005806000396000f3fe6080604052600436106100c05760003560e01c80639852595c11610074578063ce7c2ac21161004e578063ce7c2ac214610242578063d79779b214610278578063e33b7de3146102ae57600080fd5b80639852595c146101cc578063a3f8eace14610202578063c45ac0501461022257600080fd5b8063406072a9116100a5578063406072a91461015457806348b75044146101745780638b83209b1461019457600080fd5b8063191655871461010e5780633a98ef391461013057600080fd5b36610109577f6ef95f06320e7a25a04a175ca677b7052bdd97131872c2192525a629f51be77033604080516001600160a01b0390921682523460208301520160405180910390a1005b600080fd5b34801561011a57600080fd5b5061012e610129366004610b23565b6102c3565b005b34801561013c57600080fd5b506000545b6040519081526020015b60405180910390f35b34801561016057600080fd5b5061014161016f366004610b40565b610432565b34801561018057600080fd5b5061012e61018f366004610b40565b61045f565b3480156101a057600080fd5b506101b46101af366004610b79565b6105f3565b6040516001600160a01b03909116815260200161014b565b3480156101d857600080fd5b506101416101e7366004610b23565b6001600160a01b031660009081526003602052604090205490565b34801561020e57600080fd5b5061014161021d366004610b23565b610623565b34801561022e57600080fd5b5061014161023d366004610b40565b61066b565b34801561024e57600080fd5b5061014161025d366004610b23565b6001600160a01b031660009081526002602052604090205490565b34801561028457600080fd5b50610141610293366004610b23565b6001600160a01b031660009081526005602052604090205490565b3480156102ba57600080fd5b50600154610141565b6001600160a01b03811660009081526002602052604090205461033c5760405162461bcd60e51b815260206004820152602660248201527f5061796d656e7453706c69747465723a206163636f756e7420686173206e6f2060448201526573686172657360d01b60648201526084015b60405180910390fd5b600061034782610623565b9050806000036103ad5760405162461bcd60e51b815260206004820152602b60248201527f5061796d656e7453706c69747465723a206163636f756e74206973206e6f742060448201526a191d59481c185e5b595b9d60aa1b6064820152608401610333565b80600160008282546103bf9190610ba8565b90915550506001600160a01b03821660009081526003602052604090208054820190556103ec828261072a565b604080516001600160a01b0384168152602081018390527fdf20fd1e76bc69d672e4814fafb2c449bba3a5369d8359adf9e05e6fde87b056910160405180910390a15050565b6001600160a01b038083166000908152600660209081526040808320938516835292905220545b92915050565b6001600160a01b0381166000908152600260205260409020546104d35760405162461bcd60e51b815260206004820152602660248201527f5061796d656e7453706c69747465723a206163636f756e7420686173206e6f2060448201526573686172657360d01b6064820152608401610333565b60006104df838361066b565b9050806000036105455760405162461bcd60e51b815260206004820152602b60248201527f5061796d656e7453706c69747465723a206163636f756e74206973206e6f742060448201526a191d59481c185e5b595b9d60aa1b6064820152608401610333565b6001600160a01b0383166000908152600560205260408120805483929061056d908490610ba8565b90915550506001600160a01b0380841660009081526006602090815260408083209386168352929052208054820190556105a8838383610848565b604080516001600160a01b038481168252602082018490528516917f3be5b7a71e84ed12875d241991c70855ac5817d847039e17a9d895c1ceb0f18a910160405180910390a2505050565b60006004828154811061060857610608610bbb565b6000918252602090912001546001600160a01b031692915050565b60008061062f60015490565b6106399047610ba8565b9050610664838261065f866001600160a01b031660009081526003602052604090205490565b6108c8565b9392505050565b6001600160a01b03821660009081526005602052604081205481906040517f70a082310000000000000000000000000000000000000000000000000000000081523060048201526001600160a01b038616906370a0823190602401602060405180830381865afa1580156106e3573d6000803e3d6000fd5b505050506040513d601f19601f820116820180604052508101906107079190610bd1565b6107119190610ba8565b9050610722838261065f8787610432565b949350505050565b8047101561077a5760405162461bcd60e51b815260206004820152601d60248201527f416464726573733a20696e73756666696369656e742062616c616e63650000006044820152606401610333565b6000826001600160a01b03168260405160006040518083038185875af1925050503d80600081146107c7576040519150601f19603f3d011682016040523d82523d6000602084013e6107cc565b606091505b50509050806108435760405162461bcd60e51b815260206004820152603a60248201527f416464726573733a20756e61626c6520746f2073656e642076616c75652c207260448201527f6563697069656e74206d617920686176652072657665727465640000000000006064820152608401610333565b505050565b604080516001600160a01b038416602482015260448082018490528251808303909101815260649091019091526020810180517bffffffffffffffffffffffffffffffffffffffffffffffffffffffff167fa9059cbb00000000000000000000000000000000000000000000000000000000179052610843908490610903565b600080546001600160a01b0385168252600260205260408220548391906108ef9086610bea565b6108f99190610c01565b6107229190610c23565b6000610958826040518060400160405280602081526020017f5361666545524332303a206c6f772d6c6576656c2063616c6c206661696c6564815250856001600160a01b03166109e89092919063ffffffff16565b80519091501561084357808060200190518101906109769190610c36565b6108435760405162461bcd60e51b815260206004820152602a60248201527f5361666545524332303a204552433230206f7065726174696f6e20646964206e60448201527f6f742073756363656564000000000000000000000000000000000000000000006064820152608401610333565b6060610722848460008585600080866001600160a01b03168587604051610a0f9190610c7c565b60006040518083038185875af1925050503d8060008114610a4c576040519150601f19603f3d011682016040523d82523d6000602084013e610a51565b606091505b5091509150610a6287838387610a6d565b979650505050505050565b60608315610adc578251600003610ad5576001600160a01b0385163b610ad55760405162461bcd60e51b815260206004820152601d60248201527f416464726573733a2063616c6c20746f206e6f6e2d636f6e74726163740000006044820152606401610333565b5081610722565b6107228383815115610af15781518083602001fd5b8060405162461bcd60e51b81526004016103339190610c98565b6001600160a01b0381168114610b2057600080fd5b50565b600060208284031215610b3557600080fd5b813561066481610b0b565b60008060408385031215610b5357600080fd5b8235610b5e81610b0b565b91506020830135610b6e81610b0b565b809150509250929050565b600060208284031215610b8b57600080fd5b5035919050565b634e487b7160e01b600052601160045260246000fd5b8082018082111561045957610459610b92565b634e487b7160e01b600052603260045260246000fd5b600060208284031215610be357600080fd5b5051919050565b808202811582820484141761045957610459610b92565b600082610c1e57634e487b7160e01b600052601260045260246000fd5b500490565b8181038181111561045957610459610b92565b600060208284031215610c4857600080fd5b8151801515811461066457600080fd5b60005b83811015610c73578181015183820152602001610c5b565b50506000910152565b60008251610c8e818460208701610c58565b9190910192915050565b6020815260008251806020840152610cb7816040850160208701610c58565b601f01601f1916919091016040019291505056fea2646970667358221220ce9a6bcd2b43e1c2ba849e49a590b0148fe0d414edba637b9113e5c3ad3c78c364736f6c63430008130033",
  "devdoc": {
    "events": {
      "ApprovalForAll(address,address,bool)": {
        "details": "Emitted when `account` grants or revokes permission to `operator` to transfer their tokens, according to `approved`."
      },
      "TransferBatch(address,address,address,uint256[],uint256[])": {
        "details": "Equivalent to multiple {TransferSingle} events, where `operator`, `from` and `to` are the same for all transfers."
      },
      "TransferSingle(address,address,address,uint256,uint256)": {
        "details": "Emitted when `value` tokens of token type `id` are transferred from `from` to `to` by `operator`."
      },
      "URI(string,uint256)": {
        "details": "Emitted when the URI for token type `id` changes to `value`, if it is a non-programmatic URI. If an {URI} event was emitted for `id`, the standard https://eips.ethereum.org/EIPS/eip-1155#metadata-extensions[guarantees] that `value` will equal the value returned by {IERC1155MetadataURI-uri}."
      }
    },
    "kind": "dev",
    "methods": {
      "balanceOf(address,uint256)": {
        "details": "See {IERC1155-balanceOf}. Requirements: - `account` cannot be the zero address."
      },
      "balanceOfBatch(address[],uint256[])": {
        "details": "See {IERC1155-balanceOfBatch}. Requirements: - `accounts` and `ids` must have the same length."
      },
      "buyTraits(address,uint256[],uint256[])": {
        "params": {
          "_recipient": "the address to receive the trait tokens",
          "_traitAmounts": "the amounts of each token ID to buy",
          "_traitTokenIds": "the trait token IDs to buy"
        }
      },
      "createTraitsAndTypes(string[],string[],string[],string[],uint256[],uint256[])": {
        "params": {
          "_traitMaxSupplys": "maximum number of mints for each trait",
          "_traitNames": "human readable trait names",
          "_traitTypeIndexes": "trait type indexes each trait belongs to",
          "_traitTypeNames": "human readable trait type names",
          "_traitTypeValues": "trait type values used in the generative scripts",
          "_traitValues": "trait values used in the generative scripts"
        }
      },
      "exists(uint256)": {
        "details": "Indicates whether any token exist with a given id, or not."
      },
      "isApprovedForAll(address,address)": {
        "details": "See {IERC1155-isApprovedForAll}."
      },
      "maxSupply(uint256)": {
        "returns": {
          "_maxSupply": "the max supply of the token"
        }
      },
      "owner()": {
        "details": "Returns the address of the current owner."
      },
      "payee(uint256)": {
        "details": "Getter for the address of the payee number `index`."
      },
      "releasable(address)": {
        "details": "Getter for the amount of payee's releasable Ether."
      },
      "releasable(address,address)": {
        "details": "Getter for the amount of payee's releasable `token` tokens. `token` should be the address of an IERC20 contract."
      },
      "release(address)": {
        "details": "Triggers a transfer to `account` of the amount of Ether they are owed, according to their percentage of the total shares and their previous withdrawals."
      },
      "release(address,address)": {
        "details": "Triggers a transfer to `account` of the amount of `token` tokens they are owed, according to their percentage of the total shares and their previous withdrawals. `token` must be the address of an IERC20 contract."
      },
      "released(address)": {
        "details": "Getter for the amount of Ether already released to a payee."
      },
      "released(address,address)": {
        "details": "Getter for the amount of `token` tokens already released to a payee. `token` should be the address of an IERC20 contract."
      },
      "renounceOwnership()": {
        "details": "Leaves the contract without owner. It will not be possible to call `onlyOwner` functions anymore. Can only be called by the current owner. NOTE: Renouncing ownership will leave the contract without an owner, thereby removing any functionality that is only available to the owner."
      },
      "royaltyInfo(uint256,uint256)": {
        "details": "Returns how much royalty is owed and to whom, based on a sale price that may be denominated in any unit of exchange. The royalty amount is denominated and should be paid in that same unit of exchange."
      },
      "safeBatchTransferFrom(address,address,uint256[],uint256[],bytes)": {
        "details": "See {IERC1155-safeBatchTransferFrom}."
      },
      "safeTransferFrom(address,address,uint256,uint256,bytes)": {
        "details": "See {IERC1155-safeTransferFrom}."
      },
      "scheduleAuction(uint256,uint256,uint256,uint256)": {
        "params": {
          "_auctionEndPrice": "trait price the auction ends at",
          "_auctionEndTime": "timestamp the auction ends at",
          "_auctionStartPrice": "trait price the auction begins at",
          "_auctionStartTime": "timestamp the auction begins at"
        }
      },
      "setApprovalForAll(address,bool)": {
        "details": "See {IERC1155-setApprovalForAll}."
      },
      "shares(address)": {
        "details": "Getter for the amount of shares held by an account."
      },
      "supportsInterface(bytes4)": {
        "params": {
          "interfaceId": "the interface ID to check"
        },
        "returns": {
          "_0": "bool True if the interface is supported, otherwise False"
        }
      },
      "totalReleased()": {
        "details": "Getter for the total amount of Ether already released."
      },
      "totalReleased(address)": {
        "details": "Getter for the total amount of `token` already released. `token` should be the address of an IERC20 contract."
      },
      "totalShares()": {
        "details": "Getter for the total shares held by payees."
      },
      "totalSupply(uint256)": {
        "details": "Total amount of tokens in with a given id."
      },
      "trait(uint256)": {
        "params": {
          "_tokenId": "token ID to get info about"
        },
        "returns": {
          "_traitName": "human readable trait name",
          "_traitTypeName": "human readable trait type name",
          "_traitTypeValue": "trait type value used in the generative script",
          "_traitValue": "trait type value used in the generative script"
        }
      },
      "traitPrice()": {
        "returns": {
          "_price": "the current trait price in ether"
        }
      },
      "traitTypes()": {
        "returns": {
          "_traitTypeNames": "human readable trait type names",
          "_traitTypeValues": "trait type values used in the generative script"
        }
      },
      "traits()": {
        "returns": {
          "_traitMaxSupplys": "max supply of each trait",
          "_traitNames": "human readable trait names",
          "_traitTokenIds": "token IDs of the traits",
          "_traitTotalSupplys": "total supply of each trait",
          "_traitTypeIndexes": "trait type index each trait belongs to",
          "_traitTypeNames": "human readable trait type names",
          "_traitTypeValues": "trait type values used in the generative script",
          "_traitValues": "trait type values used in the generative script"
        }
      },
      "transferOwnership(address)": {
        "details": "Transfers ownership of the contract to a new account (`newOwner`). Can only be called by the current owner."
      },
      "transferTraitsToCreateArtwork(address,uint256[])": {
        "params": {
          "_caller": "the address creating the artwork",
          "_traitTokenIds": "the trait token IDs used to create the artwork"
        }
      },
      "updateURI(string)": {
        "params": {
          "_uri": "the new base URI string"
        }
      },
      "uri(uint256)": {
        "params": {
          "_tokenId": "the token ID to get the URI for"
        },
        "returns": {
          "_0": "string the token specific URI"
        }
      }
    },
    "version": 1
  },
  "userdoc": {
    "kind": "user",
    "methods": {
      "buyTraits(address,uint256[],uint256[])": {
        "notice": "Allows a user to buy any number of traits and amounts using ether"
      },
      "createTraitsAndTypes(string[],string[],string[],string[],uint256[],uint256[])": {
        "notice": "Sets up the traits and trait types"
      },
      "maxSupply(uint256)": {
        "notice": "Returns the max supply of the specified token ID"
      },
      "scheduleAuction(uint256,uint256,uint256,uint256)": {
        "notice": "Schedules the dutch auction start and end time, and the prices the traits will start and end the auction at"
      },
      "supportsInterface(bytes4)": {
        "notice": "Returns whether the specified interface ID is supported by the contract"
      },
      "trait(uint256)": {
        "notice": "Returns info about an individual trait"
      },
      "traitPrice()": {
        "notice": "Returns the current trait price"
      },
      "traitTypes()": {
        "notice": "Returns the trait types"
      },
      "traits()": {
        "notice": "Returns info about all traits"
      },
      "transferTraitsToCreateArtwork(address,uint256[])": {
        "notice": "Called by the Artwork contract to transfer traits from the caller to the Artwork contract to create a new Artwork token"
      },
      "updateURI(string)": {
        "notice": "Updates the base URI string used to get full token URIs"
      },
      "uri(uint256)": {
        "notice": "Returns the URI of the specified token ID"
      }
    },
    "notice": "Implements ERC-1155 standard for trait tokens, and provides Dutch Auction functionality for initial trait sales",
    "version": 1
  },
  "storageLayout": {
    "storage": [
      {
        "astId": 3765,
        "contract": "contracts/Traits.sol:Traits",
        "label": "_defaultRoyaltyInfo",
        "offset": 0,
        "slot": "0",
        "type": "t_struct(RoyaltyInfo)3762_storage"
      },
      {
        "astId": 3770,
        "contract": "contracts/Traits.sol:Traits",
        "label": "_tokenRoyaltyInfo",
        "offset": 0,
        "slot": "1",
        "type": "t_mapping(t_uint256,t_struct(RoyaltyInfo)3762_storage)"
      },
      {
        "astId": 630,
        "contract": "contracts/Traits.sol:Traits",
        "label": "_balances",
        "offset": 0,
        "slot": "2",
        "type": "t_mapping(t_uint256,t_mapping(t_address,t_uint256))"
      },
      {
        "astId": 636,
        "contract": "contracts/Traits.sol:Traits",
        "label": "_operatorApprovals",
        "offset": 0,
        "slot": "3",
        "type": "t_mapping(t_address,t_mapping(t_address,t_bool))"
      },
      {
        "astId": 638,
        "contract": "contracts/Traits.sol:Traits",
        "label": "_uri",
        "offset": 0,
        "slot": "4",
        "type": "t_string_storage"
      },
      {
        "astId": 2000,
        "contract": "contracts/Traits.sol:Traits",
        "label": "_totalSupply",
        "offset": 0,
        "slot": "5",
        "type": "t_mapping(t_uint256,t_uint256)"
      },
      {
        "astId": 7,
        "contract": "contracts/Traits.sol:Traits",
        "label": "_owner",
        "offset": 0,
        "slot": "6",
        "type": "t_address"
      },
      {
        "astId": 149,
        "contract": "contracts/Traits.sol:Traits",
        "label": "_totalShares",
        "offset": 0,
        "slot": "7",
        "type": "t_uint256"
      },
      {
        "astId": 151,
        "contract": "contracts/Traits.sol:Traits",
        "label": "_totalReleased",
        "offset": 0,
        "slot": "8",
        "type": "t_uint256"
      },
      {
        "astId": 155,
        "contract": "contracts/Traits.sol:Traits",
        "label": "_shares",
        "offset": 0,
        "slot": "9",
        "type": "t_mapping(t_address,t_uint256)"
      },
      {
        "astId": 159,
        "contract": "contracts/Traits.sol:Traits",
        "label": "_released",
        "offset": 0,
        "slot": "10",
        "type": "t_mapping(t_address,t_uint256)"
      },
      {
        "astId": 162,
        "contract": "contracts/Traits.sol:Traits",
        "label": "_payees",
        "offset": 0,
        "slot": "11",
        "type": "t_array(t_address)dyn_storage"
      },
      {
        "astId": 167,
        "contract": "contracts/Traits.sol:Traits",
        "label": "_erc20TotalReleased",
        "offset": 0,
        "slot": "12",
        "type": "t_mapping(t_contract(IERC20)2325,t_uint256)"
      },
      {
        "astId": 174,
        "contract": "contracts/Traits.sol:Traits",
        "label": "_erc20Released",
        "offset": 0,
        "slot": "13",
        "type": "t_mapping(t_contract(IERC20)2325,t_mapping(t_address,t_uint256))"
      },
      {
        "astId": 6306,
        "contract": "contracts/Traits.sol:Traits",
        "label": "artwork",
        "offset": 0,
        "slot": "14",
        "type": "t_contract(IArtwork)7398"
      },
      {
        "astId": 6308,
        "contract": "contracts/Traits.sol:Traits",
        "label": "royaltySplitter",
        "offset": 0,
        "slot": "15",
        "type": "t_address"
      },
      {
        "astId": 6313,
        "contract": "contracts/Traits.sol:Traits",
        "label": "auctionStartTime",
        "offset": 0,
        "slot": "16",
        "type": "t_uint256"
      },
      {
        "astId": 6315,
        "contract": "contracts/Traits.sol:Traits",
        "label": "auctionEndTime",
        "offset": 0,
        "slot": "17",
        "type": "t_uint256"
      },
      {
        "astId": 6317,
        "contract": "contracts/Traits.sol:Traits",
        "label": "auctionStartPrice",
        "offset": 0,
        "slot": "18",
        "type": "t_uint256"
      },
      {
        "astId": 6319,
        "contract": "contracts/Traits.sol:Traits",
        "label": "auctionEndPrice",
        "offset": 0,
        "slot": "19",
        "type": "t_uint256"
      },
      {
        "astId": 6323,
        "contract": "contracts/Traits.sol:Traits",
        "label": "_traitTypes",
        "offset": 0,
        "slot": "20",
        "type": "t_array(t_struct(TraitType)7457_storage)dyn_storage"
      },
      {
        "astId": 6327,
        "contract": "contracts/Traits.sol:Traits",
        "label": "_traits",
        "offset": 0,
        "slot": "21",
        "type": "t_array(t_struct(Trait)7466_storage)dyn_storage"
      }
    ],
    "types": {
      "t_address": {
        "encoding": "inplace",
        "label": "address",
        "numberOfBytes": "20"
      },
      "t_array(t_address)dyn_storage": {
        "base": "t_address",
        "encoding": "dynamic_array",
        "label": "address[]",
        "numberOfBytes": "32"
      },
      "t_array(t_struct(Trait)7466_storage)dyn_storage": {
        "base": "t_struct(Trait)7466_storage",
        "encoding": "dynamic_array",
        "label": "struct ITraits.Trait[]",
        "numberOfBytes": "32"
      },
      "t_array(t_struct(TraitType)7457_storage)dyn_storage": {
        "base": "t_struct(TraitType)7457_storage",
        "encoding": "dynamic_array",
        "label": "struct ITraits.TraitType[]",
        "numberOfBytes": "32"
      },
      "t_bool": {
        "encoding": "inplace",
        "label": "bool",
        "numberOfBytes": "1"
      },
      "t_contract(IArtwork)7398": {
        "encoding": "inplace",
        "label": "contract IArtwork",
        "numberOfBytes": "20"
      },
      "t_contract(IERC20)2325": {
        "encoding": "inplace",
        "label": "contract IERC20",
        "numberOfBytes": "20"
      },
      "t_mapping(t_address,t_bool)": {
        "encoding": "mapping",
        "key": "t_address",
        "label": "mapping(address => bool)",
        "numberOfBytes": "32",
        "value": "t_bool"
      },
      "t_mapping(t_address,t_mapping(t_address,t_bool))": {
        "encoding": "mapping",
        "key": "t_address",
        "label": "mapping(address => mapping(address => bool))",
        "numberOfBytes": "32",
        "value": "t_mapping(t_address,t_bool)"
      },
      "t_mapping(t_address,t_uint256)": {
        "encoding": "mapping",
        "key": "t_address",
        "label": "mapping(address => uint256)",
        "numberOfBytes": "32",
        "value": "t_uint256"
      },
      "t_mapping(t_contract(IERC20)2325,t_mapping(t_address,t_uint256))": {
        "encoding": "mapping",
        "key": "t_contract(IERC20)2325",
        "label": "mapping(contract IERC20 => mapping(address => uint256))",
        "numberOfBytes": "32",
        "value": "t_mapping(t_address,t_uint256)"
      },
      "t_mapping(t_contract(IERC20)2325,t_uint256)": {
        "encoding": "mapping",
        "key": "t_contract(IERC20)2325",
        "label": "mapping(contract IERC20 => uint256)",
        "numberOfBytes": "32",
        "value": "t_uint256"
      },
      "t_mapping(t_uint256,t_mapping(t_address,t_uint256))": {
        "encoding": "mapping",
        "key": "t_uint256",
        "label": "mapping(uint256 => mapping(address => uint256))",
        "numberOfBytes": "32",
        "value": "t_mapping(t_address,t_uint256)"
      },
      "t_mapping(t_uint256,t_struct(RoyaltyInfo)3762_storage)": {
        "encoding": "mapping",
        "key": "t_uint256",
        "label": "mapping(uint256 => struct ERC2981.RoyaltyInfo)",
        "numberOfBytes": "32",
        "value": "t_struct(RoyaltyInfo)3762_storage"
      },
      "t_mapping(t_uint256,t_uint256)": {
        "encoding": "mapping",
        "key": "t_uint256",
        "label": "mapping(uint256 => uint256)",
        "numberOfBytes": "32",
        "value": "t_uint256"
      },
      "t_string_storage": {
        "encoding": "bytes",
        "label": "string",
        "numberOfBytes": "32"
      },
      "t_struct(RoyaltyInfo)3762_storage": {
        "encoding": "inplace",
        "label": "struct ERC2981.RoyaltyInfo",
        "members": [
          {
            "astId": 3759,
            "contract": "contracts/Traits.sol:Traits",
            "label": "receiver",
            "offset": 0,
            "slot": "0",
            "type": "t_address"
          },
          {
            "astId": 3761,
            "contract": "contracts/Traits.sol:Traits",
            "label": "royaltyFraction",
            "offset": 20,
            "slot": "0",
            "type": "t_uint96"
          }
        ],
        "numberOfBytes": "32"
      },
      "t_struct(Trait)7466_storage": {
        "encoding": "inplace",
        "label": "struct ITraits.Trait",
        "members": [
          {
            "astId": 7459,
            "contract": "contracts/Traits.sol:Traits",
            "label": "name",
            "offset": 0,
            "slot": "0",
            "type": "t_string_storage"
          },
          {
            "astId": 7461,
            "contract": "contracts/Traits.sol:Traits",
            "label": "value",
            "offset": 0,
            "slot": "1",
            "type": "t_string_storage"
          },
          {
            "astId": 7463,
            "contract": "contracts/Traits.sol:Traits",
            "label": "typeIndex",
            "offset": 0,
            "slot": "2",
            "type": "t_uint256"
          },
          {
            "astId": 7465,
            "contract": "contracts/Traits.sol:Traits",
            "label": "maxSupply",
            "offset": 0,
            "slot": "3",
            "type": "t_uint256"
          }
        ],
        "numberOfBytes": "128"
      },
      "t_struct(TraitType)7457_storage": {
        "encoding": "inplace",
        "label": "struct ITraits.TraitType",
        "members": [
          {
            "astId": 7454,
            "contract": "contracts/Traits.sol:Traits",
            "label": "name",
            "offset": 0,
            "slot": "0",
            "type": "t_string_storage"
          },
          {
            "astId": 7456,
            "contract": "contracts/Traits.sol:Traits",
            "label": "value",
            "offset": 0,
            "slot": "1",
            "type": "t_string_storage"
          }
        ],
        "numberOfBytes": "64"
      },
      "t_uint256": {
        "encoding": "inplace",
        "label": "uint256",
        "numberOfBytes": "32"
      },
      "t_uint96": {
        "encoding": "inplace",
        "label": "uint96",
        "numberOfBytes": "12"
      }
    }
  }
}