{
  "address": "0x9488a5C51bC1B4ddFd853b0e5c76dD0D4BcFBAF8",
  "abi": [
    {
      "inputs": [
        {
          "internalType": "uint96",
          "name": "_royaltyFeeNumerator",
          "type": "uint96"
        },
        {
          "internalType": "string",
          "name": "_uri",
          "type": "string"
        },
        {
          "internalType": "address",
          "name": "_artwork",
          "type": "address"
        },
        {
          "internalType": "address",
          "name": "_owner",
          "type": "address"
        },
        {
          "internalType": "address[]",
          "name": "_primarySalesPayees",
          "type": "address[]"
        },
        {
          "internalType": "uint256[]",
          "name": "_primarySalesShares",
          "type": "uint256[]"
        },
        {
          "internalType": "address[]",
          "name": "_royaltyPayees",
          "type": "address[]"
        },
        {
          "internalType": "uint256[]",
          "name": "_royaltyShares",
          "type": "uint256[]"
        }
      ],
      "stateMutability": "nonpayable",
      "type": "constructor"
    },
    {
      "inputs": [],
      "name": "AuctionNotLive",
      "type": "error"
    },
    {
      "inputs": [],
      "name": "InvalidArrayLengths",
      "type": "error"
    },
    {
      "inputs": [],
      "name": "InvalidAuction",
      "type": "error"
    },
    {
      "inputs": [],
      "name": "InvalidEthAmount",
      "type": "error"
    },
    {
      "inputs": [],
      "name": "InvalidTokenId",
      "type": "error"
    },
    {
      "inputs": [],
      "name": "InvalidTraits",
      "type": "error"
    },
    {
      "inputs": [],
      "name": "Locked",
      "type": "error"
    },
    {
      "inputs": [],
      "name": "MaxSupply",
      "type": "error"
    },
    {
      "inputs": [],
      "name": "NoRevenue",
      "type": "error"
    },
    {
      "inputs": [],
      "name": "NotLocked",
      "type": "error"
    },
    {
      "inputs": [],
      "name": "OnlyArtwork",
      "type": "error"
    },
    {
      "inputs": [],
      "name": "OnlyClaimer",
      "type": "error"
    },
    {
      "inputs": [],
      "name": "TraitsAlreadyCreated",
      "type": "error"
    },
    {
      "inputs": [],
      "name": "TraitsSaleStartTime",
      "type": "error"
    },
    {
      "anonymous": false,
      "inputs": [
        {
          "indexed": true,
          "internalType": "address",
          "name": "account",
          "type": "address"
        },
        {
          "indexed": true,
          "internalType": "address",
          "name": "operator",
          "type": "address"
        },
        {
          "indexed": false,
          "internalType": "bool",
          "name": "approved",
          "type": "bool"
        }
      ],
      "name": "ApprovalForAll",
      "type": "event"
    },
    {
      "anonymous": false,
      "inputs": [
        {
          "indexed": true,
          "internalType": "contract IERC20",
          "name": "token",
          "type": "address"
        },
        {
          "indexed": false,
          "internalType": "address",
          "name": "to",
          "type": "address"
        },
        {
          "indexed": false,
          "internalType": "uint256",
          "name": "amount",
          "type": "uint256"
        }
      ],
      "name": "ERC20PaymentReleased",
      "type": "event"
    },
    {
      "anonymous": false,
      "inputs": [
        {
          "indexed": true,
          "internalType": "address",
          "name": "previousOwner",
          "type": "address"
        },
        {
          "indexed": true,
          "internalType": "address",
          "name": "newOwner",
          "type": "address"
        }
      ],
      "name": "OwnershipTransferred",
      "type": "event"
    },
    {
      "anonymous": false,
      "inputs": [
        {
          "indexed": false,
          "internalType": "address",
          "name": "account",
          "type": "address"
        },
        {
          "indexed": false,
          "internalType": "uint256",
          "name": "shares",
          "type": "uint256"
        }
      ],
      "name": "PayeeAdded",
      "type": "event"
    },
    {
      "anonymous": false,
      "inputs": [
        {
          "indexed": false,
          "internalType": "address",
          "name": "from",
          "type": "address"
        },
        {
          "indexed": false,
          "internalType": "uint256",
          "name": "amount",
          "type": "uint256"
        }
      ],
      "name": "PaymentReceived",
      "type": "event"
    },
    {
      "anonymous": false,
      "inputs": [
        {
          "indexed": false,
          "internalType": "address",
          "name": "to",
          "type": "address"
        },
        {
          "indexed": false,
          "internalType": "uint256",
          "name": "amount",
          "type": "uint256"
        }
      ],
      "name": "PaymentReleased",
      "type": "event"
    },
    {
      "anonymous": false,
      "inputs": [
        {
          "indexed": true,
          "internalType": "address",
          "name": "recipient",
          "type": "address"
        },
        {
          "indexed": false,
          "internalType": "uint256[]",
          "name": "traitTokenIds",
          "type": "uint256[]"
        },
        {
          "indexed": false,
          "internalType": "uint256[]",
          "name": "traitAmounts",
          "type": "uint256[]"
        }
      ],
      "name": "TraitsBought",
      "type": "event"
    },
    {
      "anonymous": false,
      "inputs": [
        {
          "indexed": true,
          "internalType": "address",
          "name": "operator",
          "type": "address"
        },
        {
          "indexed": true,
          "internalType": "address",
          "name": "from",
          "type": "address"
        },
        {
          "indexed": true,
          "internalType": "address",
          "name": "to",
          "type": "address"
        },
        {
          "indexed": false,
          "internalType": "uint256[]",
          "name": "ids",
          "type": "uint256[]"
        },
        {
          "indexed": false,
          "internalType": "uint256[]",
          "name": "values",
          "type": "uint256[]"
        }
      ],
      "name": "TransferBatch",
      "type": "event"
    },
    {
      "anonymous": false,
      "inputs": [
        {
          "indexed": true,
          "internalType": "address",
          "name": "operator",
          "type": "address"
        },
        {
          "indexed": true,
          "internalType": "address",
          "name": "from",
          "type": "address"
        },
        {
          "indexed": true,
          "internalType": "address",
          "name": "to",
          "type": "address"
        },
        {
          "indexed": false,
          "internalType": "uint256",
          "name": "id",
          "type": "uint256"
        },
        {
          "indexed": false,
          "internalType": "uint256",
          "name": "value",
          "type": "uint256"
        }
      ],
      "name": "TransferSingle",
      "type": "event"
    },
    {
      "anonymous": false,
      "inputs": [
        {
          "indexed": false,
          "internalType": "string",
          "name": "value",
          "type": "string"
        },
        {
          "indexed": true,
          "internalType": "uint256",
          "name": "id",
          "type": "uint256"
        }
      ],
      "name": "URI",
      "type": "event"
    },
    {
      "inputs": [],
      "name": "VERSION",
      "outputs": [
        {
          "internalType": "string",
          "name": "",
          "type": "string"
        }
      ],
      "stateMutability": "view",
      "type": "function"
    },
    {
      "inputs": [],
      "name": "artwork",
      "outputs": [
        {
          "internalType": "contract IArtwork",
          "name": "",
          "type": "address"
        }
      ],
      "stateMutability": "view",
      "type": "function"
    },
    {
      "inputs": [],
      "name": "auctionEndPrice",
      "outputs": [
        {
          "internalType": "uint256",
          "name": "",
          "type": "uint256"
        }
      ],
      "stateMutability": "view",
      "type": "function"
    },
    {
      "inputs": [],
      "name": "auctionEndTime",
      "outputs": [
        {
          "internalType": "uint256",
          "name": "",
          "type": "uint256"
        }
      ],
      "stateMutability": "view",
      "type": "function"
    },
    {
      "inputs": [],
      "name": "auctionStartPrice",
      "outputs": [
        {
          "internalType": "uint256",
          "name": "",
          "type": "uint256"
        }
      ],
      "stateMutability": "view",
      "type": "function"
    },
    {
      "inputs": [],
      "name": "auctionStartTime",
      "outputs": [
        {
          "internalType": "uint256",
          "name": "",
          "type": "uint256"
        }
      ],
      "stateMutability": "view",
      "type": "function"
    },
    {
      "inputs": [
        {
          "internalType": "address",
          "name": "account",
          "type": "address"
        },
        {
          "internalType": "uint256",
          "name": "id",
          "type": "uint256"
        }
      ],
      "name": "balanceOf",
      "outputs": [
        {
          "internalType": "uint256",
          "name": "",
          "type": "uint256"
        }
      ],
      "stateMutability": "view",
      "type": "function"
    },
    {
      "inputs": [
        {
          "internalType": "address[]",
          "name": "accounts",
          "type": "address[]"
        },
        {
          "internalType": "uint256[]",
          "name": "ids",
          "type": "uint256[]"
        }
      ],
      "name": "balanceOfBatch",
      "outputs": [
        {
          "internalType": "uint256[]",
          "name": "",
          "type": "uint256[]"
        }
      ],
      "stateMutability": "view",
      "type": "function"
    },
    {
      "inputs": [
        {
          "internalType": "address",
          "name": "_recipient",
          "type": "address"
        },
        {
          "internalType": "uint256[]",
          "name": "_traitTokenIds",
          "type": "uint256[]"
        },
        {
          "internalType": "uint256[]",
          "name": "_traitAmounts",
          "type": "uint256[]"
        }
      ],
      "name": "buyTraits",
      "outputs": [],
      "stateMutability": "payable",
      "type": "function"
    },
    {
      "inputs": [
        {
          "internalType": "string[]",
          "name": "_traitTypeNames",
          "type": "string[]"
        },
        {
          "internalType": "string[]",
          "name": "_traitTypeValues",
          "type": "string[]"
        },
        {
          "internalType": "string[]",
          "name": "_traitNames",
          "type": "string[]"
        },
        {
          "internalType": "string[]",
          "name": "_traitValues",
          "type": "string[]"
        },
        {
          "internalType": "uint256[]",
          "name": "_traitTypeIndexes",
          "type": "uint256[]"
        },
        {
          "internalType": "uint256[]",
          "name": "_traitMaxSupplys",
          "type": "uint256[]"
        }
      ],
      "name": "createTraitsAndTypes",
      "outputs": [],
      "stateMutability": "nonpayable",
      "type": "function"
    },
    {
      "inputs": [
        {
          "internalType": "uint256",
          "name": "id",
          "type": "uint256"
        }
      ],
      "name": "exists",
      "outputs": [
        {
          "internalType": "bool",
          "name": "",
          "type": "bool"
        }
      ],
      "stateMutability": "view",
      "type": "function"
    },
    {
      "inputs": [
        {
          "internalType": "address",
          "name": "account",
          "type": "address"
        },
        {
          "internalType": "address",
          "name": "operator",
          "type": "address"
        }
      ],
      "name": "isApprovedForAll",
      "outputs": [
        {
          "internalType": "bool",
          "name": "",
          "type": "bool"
        }
      ],
      "stateMutability": "view",
      "type": "function"
    },
    {
      "inputs": [
        {
          "internalType": "uint256",
          "name": "_tokenId",
          "type": "uint256"
        }
      ],
      "name": "maxSupply",
      "outputs": [
        {
          "internalType": "uint256",
          "name": "_maxSupply",
          "type": "uint256"
        }
      ],
      "stateMutability": "view",
      "type": "function"
    },
    {
      "inputs": [],
      "name": "owner",
      "outputs": [
        {
          "internalType": "address",
          "name": "",
          "type": "address"
        }
      ],
      "stateMutability": "view",
      "type": "function"
    },
    {
      "inputs": [
        {
          "internalType": "uint256",
          "name": "index",
          "type": "uint256"
        }
      ],
      "name": "payee",
      "outputs": [
        {
          "internalType": "address",
          "name": "",
          "type": "address"
        }
      ],
      "stateMutability": "view",
      "type": "function"
    },
    {
      "inputs": [
        {
          "internalType": "address",
          "name": "account",
          "type": "address"
        }
      ],
      "name": "releasable",
      "outputs": [
        {
          "internalType": "uint256",
          "name": "",
          "type": "uint256"
        }
      ],
      "stateMutability": "view",
      "type": "function"
    },
    {
      "inputs": [
        {
          "internalType": "contract IERC20",
          "name": "token",
          "type": "address"
        },
        {
          "internalType": "address",
          "name": "account",
          "type": "address"
        }
      ],
      "name": "releasable",
      "outputs": [
        {
          "internalType": "uint256",
          "name": "",
          "type": "uint256"
        }
      ],
      "stateMutability": "view",
      "type": "function"
    },
    {
      "inputs": [
        {
          "internalType": "address payable",
          "name": "account",
          "type": "address"
        }
      ],
      "name": "release",
      "outputs": [],
      "stateMutability": "nonpayable",
      "type": "function"
    },
    {
      "inputs": [
        {
          "internalType": "contract IERC20",
          "name": "token",
          "type": "address"
        },
        {
          "internalType": "address",
          "name": "account",
          "type": "address"
        }
      ],
      "name": "release",
      "outputs": [],
      "stateMutability": "nonpayable",
      "type": "function"
    },
    {
      "inputs": [
        {
          "internalType": "contract IERC20",
          "name": "token",
          "type": "address"
        },
        {
          "internalType": "address",
          "name": "account",
          "type": "address"
        }
      ],
      "name": "released",
      "outputs": [
        {
          "internalType": "uint256",
          "name": "",
          "type": "uint256"
        }
      ],
      "stateMutability": "view",
      "type": "function"
    },
    {
      "inputs": [
        {
          "internalType": "address",
          "name": "account",
          "type": "address"
        }
      ],
      "name": "released",
      "outputs": [
        {
          "internalType": "uint256",
          "name": "",
          "type": "uint256"
        }
      ],
      "stateMutability": "view",
      "type": "function"
    },
    {
      "inputs": [],
      "name": "renounceOwnership",
      "outputs": [],
      "stateMutability": "nonpayable",
      "type": "function"
    },
    {
      "inputs": [
        {
          "internalType": "uint256",
          "name": "_tokenId",
          "type": "uint256"
        },
        {
          "internalType": "uint256",
          "name": "_salePrice",
          "type": "uint256"
        }
      ],
      "name": "royaltyInfo",
      "outputs": [
        {
          "internalType": "address",
          "name": "",
          "type": "address"
        },
        {
          "internalType": "uint256",
          "name": "",
          "type": "uint256"
        }
      ],
      "stateMutability": "view",
      "type": "function"
    },
    {
      "inputs": [],
      "name": "royaltySplitter",
      "outputs": [
        {
          "internalType": "address",
          "name": "",
          "type": "address"
        }
      ],
      "stateMutability": "view",
      "type": "function"
    },
    {
      "inputs": [
        {
          "internalType": "address",
          "name": "from",
          "type": "address"
        },
        {
          "internalType": "address",
          "name": "to",
          "type": "address"
        },
        {
          "internalType": "uint256[]",
          "name": "ids",
          "type": "uint256[]"
        },
        {
          "internalType": "uint256[]",
          "name": "amounts",
          "type": "uint256[]"
        },
        {
          "internalType": "bytes",
          "name": "data",
          "type": "bytes"
        }
      ],
      "name": "safeBatchTransferFrom",
      "outputs": [],
      "stateMutability": "nonpayable",
      "type": "function"
    },
    {
      "inputs": [
        {
          "internalType": "address",
          "name": "from",
          "type": "address"
        },
        {
          "internalType": "address",
          "name": "to",
          "type": "address"
        },
        {
          "internalType": "uint256",
          "name": "id",
          "type": "uint256"
        },
        {
          "internalType": "uint256",
          "name": "amount",
          "type": "uint256"
        },
        {
          "internalType": "bytes",
          "name": "data",
          "type": "bytes"
        }
      ],
      "name": "safeTransferFrom",
      "outputs": [],
      "stateMutability": "nonpayable",
      "type": "function"
    },
    {
      "inputs": [
        {
          "internalType": "uint256",
          "name": "_auctionStartTime",
          "type": "uint256"
        },
        {
          "internalType": "uint256",
          "name": "_auctionEndTime",
          "type": "uint256"
        },
        {
          "internalType": "uint256",
          "name": "_auctionStartPrice",
          "type": "uint256"
        },
        {
          "internalType": "uint256",
          "name": "_auctionEndPrice",
          "type": "uint256"
        },
        {
          "internalType": "uint256",
          "name": "_traitsSaleStartTime",
          "type": "uint256"
        }
      ],
      "name": "scheduleAuction",
      "outputs": [],
      "stateMutability": "nonpayable",
      "type": "function"
    },
    {
      "inputs": [
        {
          "internalType": "address",
          "name": "operator",
          "type": "address"
        },
        {
          "internalType": "bool",
          "name": "approved",
          "type": "bool"
        }
      ],
      "name": "setApprovalForAll",
      "outputs": [],
      "stateMutability": "nonpayable",
      "type": "function"
    },
    {
      "inputs": [
        {
          "internalType": "address",
          "name": "account",
          "type": "address"
        }
      ],
      "name": "shares",
      "outputs": [
        {
          "internalType": "uint256",
          "name": "",
          "type": "uint256"
        }
      ],
      "stateMutability": "view",
      "type": "function"
    },
    {
      "inputs": [
        {
          "internalType": "bytes4",
          "name": "interfaceId",
          "type": "bytes4"
        }
      ],
      "name": "supportsInterface",
      "outputs": [
        {
          "internalType": "bool",
          "name": "",
          "type": "bool"
        }
      ],
      "stateMutability": "view",
      "type": "function"
    },
    {
      "inputs": [
        {
          "internalType": "contract IERC20",
          "name": "token",
          "type": "address"
        }
      ],
      "name": "totalReleased",
      "outputs": [
        {
          "internalType": "uint256",
          "name": "",
          "type": "uint256"
        }
      ],
      "stateMutability": "view",
      "type": "function"
    },
    {
      "inputs": [],
      "name": "totalReleased",
      "outputs": [
        {
          "internalType": "uint256",
          "name": "",
          "type": "uint256"
        }
      ],
      "stateMutability": "view",
      "type": "function"
    },
    {
      "inputs": [],
      "name": "totalShares",
      "outputs": [
        {
          "internalType": "uint256",
          "name": "",
          "type": "uint256"
        }
      ],
      "stateMutability": "view",
      "type": "function"
    },
    {
      "inputs": [
        {
          "internalType": "uint256",
          "name": "id",
          "type": "uint256"
        }
      ],
      "name": "totalSupply",
      "outputs": [
        {
          "internalType": "uint256",
          "name": "",
          "type": "uint256"
        }
      ],
      "stateMutability": "view",
      "type": "function"
    },
    {
      "inputs": [
        {
          "internalType": "uint256",
          "name": "_tokenId",
          "type": "uint256"
        }
      ],
      "name": "trait",
      "outputs": [
        {
          "internalType": "string",
          "name": "_traitName",
          "type": "string"
        },
        {
          "internalType": "string",
          "name": "_traitValue",
          "type": "string"
        },
        {
          "internalType": "string",
          "name": "_traitTypeName",
          "type": "string"
        },
        {
          "internalType": "string",
          "name": "_traitTypeValue",
          "type": "string"
        }
      ],
      "stateMutability": "view",
      "type": "function"
    },
    {
      "inputs": [],
      "name": "traitPrice",
      "outputs": [
        {
          "internalType": "uint256",
          "name": "_price",
          "type": "uint256"
        }
      ],
      "stateMutability": "view",
      "type": "function"
    },
    {
      "inputs": [],
      "name": "traitTypes",
      "outputs": [
        {
          "internalType": "string[]",
          "name": "_traitTypeNames",
          "type": "string[]"
        },
        {
          "internalType": "string[]",
          "name": "_traitTypeValues",
          "type": "string[]"
        }
      ],
      "stateMutability": "view",
      "type": "function"
    },
    {
      "inputs": [],
      "name": "traits",
      "outputs": [
        {
          "internalType": "uint256[]",
          "name": "_traitTokenIds",
          "type": "uint256[]"
        },
        {
          "internalType": "string[]",
          "name": "_traitNames",
          "type": "string[]"
        },
        {
          "internalType": "string[]",
          "name": "_traitValues",
          "type": "string[]"
        },
        {
          "internalType": "uint256[]",
          "name": "_traitTypeIndexes",
          "type": "uint256[]"
        },
        {
          "internalType": "string[]",
          "name": "_traitTypeNames",
          "type": "string[]"
        },
        {
          "internalType": "string[]",
          "name": "_traitTypeValues",
          "type": "string[]"
        },
        {
          "internalType": "uint256[]",
          "name": "_traitTotalSupplys",
          "type": "uint256[]"
        },
        {
          "internalType": "uint256[]",
          "name": "_traitMaxSupplys",
          "type": "uint256[]"
        }
      ],
      "stateMutability": "view",
      "type": "function"
    },
    {
      "inputs": [],
      "name": "traitsSaleStartTime",
      "outputs": [
        {
          "internalType": "uint256",
          "name": "",
          "type": "uint256"
        }
      ],
      "stateMutability": "view",
      "type": "function"
    },
    {
      "inputs": [
        {
          "internalType": "address",
          "name": "newOwner",
          "type": "address"
        }
      ],
      "name": "transferOwnership",
      "outputs": [],
      "stateMutability": "nonpayable",
      "type": "function"
    },
    {
      "inputs": [
        {
          "internalType": "address",
          "name": "_caller",
          "type": "address"
        },
        {
          "internalType": "uint256[]",
          "name": "_traitTokenIds",
          "type": "uint256[]"
        }
      ],
      "name": "transferTraitsToCreateArtwork",
      "outputs": [],
      "stateMutability": "nonpayable",
      "type": "function"
    },
    {
      "inputs": [
        {
          "internalType": "string",
          "name": "_uri",
          "type": "string"
        }
      ],
      "name": "updateURI",
      "outputs": [],
      "stateMutability": "nonpayable",
      "type": "function"
    },
    {
      "inputs": [
        {
          "internalType": "uint256",
          "name": "_tokenId",
          "type": "uint256"
        }
      ],
      "name": "uri",
      "outputs": [
        {
          "internalType": "string",
          "name": "",
          "type": "string"
        }
      ],
      "stateMutability": "view",
      "type": "function"
    },
    {
      "stateMutability": "payable",
      "type": "receive"
    }
  ],
  "transactionHash": "0xb13f85272c88fd01426f1b34834c76d5152bade5b0d4f3983f56a73f7677b3f6",
  "args": [
    "1000",
    "https://api.intrinsic.art/",
    "0x6F5Be53Da5010e21ECf653c03A38D0B4a0FD5b64",
    "0xAa9D46AE079851116967c6573f961B304095C34a",
    [
      "0xAa9D46AE079851116967c6573f961B304095C34a"
    ],
    [
      "100"
    ],
    [
      "0xAa9D46AE079851116967c6573f961B304095C34a"
    ],
    [
      "100"
    ]
  ],
  "numDeployments": 1,
  "solcInputHash": "bcf53e5fe0334744f9e867372ff4ca8e",
  "bytecode": "0x60806040523480156200001157600080fd5b5060405162006ac538038062006ac5833981016040819052620000349162000792565b838388620000428162000222565b506200004e3362000234565b8051825114620000c05760405162461bcd60e51b815260206004820152603260248201527f5061796d656e7453706c69747465723a2070617965657320616e6420736861726044820152710cae640d8cadccee8d040dad2e6dac2e8c6d60731b60648201526084015b60405180910390fd5b6000825111620001135760405162461bcd60e51b815260206004820152601a60248201527f5061796d656e7453706c69747465723a206e6f207061796565730000000000006044820152606401620000b7565b60005b82518110156200017f576200016a838281518110620001395762000139620008ac565b6020026020010151838381518110620001565762000156620008ac565b60200260200101516200028660201b60201c565b806200017681620008d8565b91505062000116565b5050600e80546001600160a01b0319166001600160a01b03891617905550620001a88562000234565b60008282604051620001ba9062000575565b620001c7929190620008f4565b604051809103906000f080158015620001e4573d6000803e3d6000fd5b509050620001f3818a62000474565b600f80546001600160a01b0319166001600160a01b03929092169190911790555062000af39650505050505050565b600462000230828262000a0b565b5050565b600680546001600160a01b038381166001600160a01b0319831681179093556040519116919082907f8be0079c531659141344cd1fd0a4f28419497f9722a3daafe3b4186f6b6457e090600090a35050565b6001600160a01b038216620002f35760405162461bcd60e51b815260206004820152602c60248201527f5061796d656e7453706c69747465723a206163636f756e74206973207468652060448201526b7a65726f206164647265737360a01b6064820152608401620000b7565b60008111620003455760405162461bcd60e51b815260206004820152601d60248201527f5061796d656e7453706c69747465723a207368617265732061726520300000006044820152606401620000b7565b6001600160a01b03821660009081526009602052604090205415620003c15760405162461bcd60e51b815260206004820152602b60248201527f5061796d656e7453706c69747465723a206163636f756e7420616c726561647960448201526a206861732073686172657360a81b6064820152608401620000b7565b600b8054600181019091557f0175b7a638427703f0dbe7bb9bbf987a2551717b34e79f33b5b1008d1fa01db90180546001600160a01b0319166001600160a01b03841690811790915560009081526009602052604090208190556007546200042b90829062000ad7565b600755604080516001600160a01b0384168152602081018390527f40c340f65e17194d14ddddb073d3c9f888e3cb52b5aae0c6c7706b4fbc905fac910160405180910390a15050565b6127106001600160601b0382161115620004e45760405162461bcd60e51b815260206004820152602a60248201527f455243323938313a20726f79616c7479206665652077696c6c206578636565646044820152692073616c65507269636560b01b6064820152608401620000b7565b6001600160a01b0382166200053c5760405162461bcd60e51b815260206004820152601960248201527f455243323938313a20696e76616c6964207265636569766572000000000000006044820152606401620000b7565b604080518082019091526001600160a01b039092168083526001600160601b039091166020909201829052600160a01b90910217600055565b611281806200584483390190565b80516001600160601b03811681146200059b57600080fd5b919050565b634e487b7160e01b600052604160045260246000fd5b604051601f8201601f191681016001600160401b0381118282101715620005e157620005e1620005a0565b604052919050565b600082601f830112620005fb57600080fd5b81516001600160401b03811115620006175762000617620005a0565b60206200062d601f8301601f19168201620005b6565b82815285828487010111156200064257600080fd5b60005b838110156200066257858101830151828201840152820162000645565b506000928101909101919091529392505050565b80516001600160a01b03811681146200059b57600080fd5b60006001600160401b03821115620006aa57620006aa620005a0565b5060051b60200190565b600082601f830112620006c657600080fd5b81516020620006df620006d9836200068e565b620005b6565b82815260059290921b84018101918181019086841115620006ff57600080fd5b8286015b848110156200072557620007178162000676565b835291830191830162000703565b509695505050505050565b600082601f8301126200074257600080fd5b8151602062000755620006d9836200068e565b82815260059290921b840181019181810190868411156200077557600080fd5b8286015b8481101562000725578051835291830191830162000779565b600080600080600080600080610100898b031215620007b057600080fd5b620007bb8962000583565b60208a01519098506001600160401b0380821115620007d957600080fd5b620007e78c838d01620005e9565b9850620007f760408c0162000676565b97506200080760608c0162000676565b965060808b01519150808211156200081e57600080fd5b6200082c8c838d01620006b4565b955060a08b01519150808211156200084357600080fd5b620008518c838d0162000730565b945060c08b01519150808211156200086857600080fd5b620008768c838d01620006b4565b935060e08b01519150808211156200088d57600080fd5b506200089c8b828c0162000730565b9150509295985092959890939650565b634e487b7160e01b600052603260045260246000fd5b634e487b7160e01b600052601160045260246000fd5b600060018201620008ed57620008ed620008c2565b5060010190565b604080825283519082018190526000906020906060840190828701845b82811015620009385781516001600160a01b03168452928401929084019060010162000911565b5050508381038285015284518082528583019183019060005b818110156200096f5783518352928401929184019160010162000951565b5090979650505050505050565b600181811c908216806200099157607f821691505b602082108103620009b257634e487b7160e01b600052602260045260246000fd5b50919050565b601f82111562000a0657600081815260208120601f850160051c81016020861015620009e15750805b601f850160051c820191505b8181101562000a0257828155600101620009ed565b5050505b505050565b81516001600160401b0381111562000a275762000a27620005a0565b62000a3f8162000a3884546200097c565b84620009b8565b602080601f83116001811462000a77576000841562000a5e5750858301515b600019600386901b1c1916600185901b17855562000a02565b600085815260208120601f198616915b8281101562000aa85788860151825594840194600190910190840162000a87565b508582101562000ac75787850151600019600388901b60f8161c191681555b5050505050600190811b01905550565b8082018082111562000aed5762000aed620008c2565b92915050565b614d418062000b036000396000f3fe6080604052600436106102de5760003560e01c806388392b5d11610184578063d756985b116100d6578063eb54f9ec1161008a578063f3457fdf11610064578063f3457fdf146108ee578063f8acb75d1461091e578063ffa1ad741461093e57600080fd5b8063eb54f9ec14610898578063f242432a146108ae578063f2fde38b146108ce57600080fd5b8063e1fc334f116100bb578063e1fc334f14610811578063e33b7de31461083a578063e985e9c51461084f57600080fd5b8063d756985b146107c5578063d79779b2146107db57600080fd5b8063a22cb46511610138578063c30f4a5a11610112578063c30f4a5a1461074f578063c45ac0501461076f578063ce7c2ac21461078f57600080fd5b8063a22cb465146106e2578063a3f8eace14610702578063bd85b0391461072257600080fd5b80638da5cb5b116101695780638da5cb5b146106785780639852595c14610696578063a04a6ac8146106cc57600080fd5b806388392b5d146106425780638b83209b1461065857600080fd5b80632eb2c2d61161023d5780634b449cba116101f1578063715018a6116101cb578063715018a6146105fa5780637bedfac01461060f578063869f75941461062257600080fd5b80634b449cba146105885780634e1273f41461059e5780634f558e79146105cb57600080fd5b8063406072a911610222578063406072a914610502578063411d8f2f1461054857806348b750441461056857600080fd5b80632eb2c2d6146104cd5780633a98ef39146104ed57600080fd5b80630e89341c116102945780631f0a595b116102795780631f0a595b1461043357806326cc133e146104565780632a55205a1461048e57600080fd5b80630e89341c146103e6578063191655871461041357600080fd5b806301c8aa4b116102c557806301c8aa4b1461037457806301ffc9a71461039657806302afd1a1146103c657600080fd5b8062a9bb011461032c578062fdd58e1461035457600080fd5b36610327577f6ef95f06320e7a25a04a175ca677b7052bdd97131872c2192525a629f51be77033604080516001600160a01b0390921682523460208301520160405180910390a1005b600080fd5b34801561033857600080fd5b50610341610987565b6040519081526020015b60405180910390f35b34801561036057600080fd5b5061034161036f366004613e65565b610a2a565b34801561038057600080fd5b5061039461038f366004614047565b610ad8565b005b3480156103a257600080fd5b506103b66103b136600461416d565b610e46565b604051901515815260200161034b565b3480156103d257600080fd5b506103946103e136600461418a565b610e84565b3480156103f257600080fd5b506104066104013660046141df565b611042565b60405161034b9190614248565b34801561041f57600080fd5b5061039461042e36600461425b565b6110aa565b34801561043f57600080fd5b50610448611214565b60405161034b9291906142d0565b34801561046257600080fd5b50600e54610476906001600160a01b031681565b6040516001600160a01b03909116815260200161034b565b34801561049a57600080fd5b506104ae6104a93660046142fe565b611467565b604080516001600160a01b03909316835260208301919091520161034b565b3480156104d957600080fd5b506103946104e8366004614386565b611524565b3480156104f957600080fd5b50600754610341565b34801561050e57600080fd5b5061034161051d366004614434565b6001600160a01b039182166000908152600d6020908152604080832093909416825291909152205490565b34801561055457600080fd5b50600f54610476906001600160a01b031681565b34801561057457600080fd5b50610394610583366004614434565b6115c6565b34801561059457600080fd5b5061034160115481565b3480156105aa57600080fd5b506105be6105b936600461446d565b61175a565b60405161034b9190614575565b3480156105d757600080fd5b506103b66105e63660046141df565b600090815260056020526040902054151590565b34801561060657600080fd5b50610394611898565b61039461061d366004614588565b6118ac565b34801561062e57600080fd5b5061034161063d3660046141df565b611b3b565b34801561064e57600080fd5b5061034160145481565b34801561066457600080fd5b506104766106733660046141df565b611b69565b34801561068457600080fd5b506006546001600160a01b0316610476565b3480156106a257600080fd5b506103416106b136600461425b565b6001600160a01b03166000908152600a602052604090205490565b3480156106d857600080fd5b5061034160135481565b3480156106ee57600080fd5b506103946106fd366004614619565b611b99565b34801561070e57600080fd5b5061034161071d36600461425b565b611ba8565b34801561072e57600080fd5b5061034161073d3660046141df565b60009081526005602052604090205490565b34801561075b57600080fd5b5061039461076a366004614647565b611bf0565b34801561077b57600080fd5b5061034161078a366004614434565b611c04565b34801561079b57600080fd5b506103416107aa36600461425b565b6001600160a01b031660009081526009602052604090205490565b3480156107d157600080fd5b5061034160125481565b3480156107e757600080fd5b506103416107f636600461425b565b6001600160a01b03166000908152600c602052604090205490565b34801561081d57600080fd5b50610826611ce8565b60405161034b98979695949392919061467c565b34801561084657600080fd5b50600854610341565b34801561085b57600080fd5b506103b661086a366004614434565b6001600160a01b03918216600090815260036020908152604080832093909416825291909152205460ff1690565b3480156108a457600080fd5b5061034160105481565b3480156108ba57600080fd5b506103946108c936600461472b565b6123b5565b3480156108da57600080fd5b506103946108e936600461425b565b612450565b3480156108fa57600080fd5b5061090e6109093660046141df565b6124dd565b60405161034b9493929190614794565b34801561092a57600080fd5b506103946109393660046147e1565b612813565b34801561094a57600080fd5b506104066040518060400160405280600581526020017f312e302e3000000000000000000000000000000000000000000000000000000081525081565b60006010544210156109c5576040517f58fd8d1100000000000000000000000000000000000000000000000000000000815260040160405180910390fd5b6011544211156109d6575060135490565b6010546011546109e69190614832565b6013546012546109f69190614832565b601054610a039042614832565b610a0d9190614845565b610a17919061485c565b601254610a249190614832565b90505b90565b60006001600160a01b038316610aad5760405162461bcd60e51b815260206004820152602a60248201527f455243313135353a2061646472657373207a65726f206973206e6f742061207660448201527f616c6964206f776e65720000000000000000000000000000000000000000000060648201526084015b60405180910390fd5b5060008181526002602090815260408083206001600160a01b03861684529091529020545b92915050565b610ae061292d565b600e60009054906101000a90046001600160a01b03166001600160a01b031663cf3090126040518163ffffffff1660e01b8152600401602060405180830381865afa158015610b33573d6000803e3d6000fd5b505050506040513d601f19601f82011682018060405250810190610b57919061487e565b15610b8e576040517f0f2e5b6c00000000000000000000000000000000000000000000000000000000815260040160405180910390fd5b601654151580610b9f575060155415155b15610bd6576040517f8c6dac7f00000000000000000000000000000000000000000000000000000000815260040160405180910390fd5b89511580610be2575086155b80610bef575088518a5114155b80610bfa5750868514155b80610c055750868314155b80610c105750868114155b15610c2e5760405163a9854bc960e01b815260040160405180910390fd5b60005b8a51811015610cce57601560405180604001604052808d8481518110610c5957610c5961489b565b602002602001015181526020018c8481518110610c7857610c7861489b565b6020908102919091018101519091528254600181018455600093845292208151919260020201908190610cab9082614931565b5060208201516001820190610cc09082614931565b505050806001019050610c31565b5060005b87811015610e3957601660405180608001604052808b8b85818110610cf957610cf961489b565b9050602002810190610d0b91906149f1565b8080601f016020809104026020016040519081016040528093929190818152602001838380828437600092019190915250505090825250602001898985818110610d5757610d5761489b565b9050602002810190610d6991906149f1565b8080601f016020809104026020016040519081016040528093929190818152602001838380828437600092019190915250505090825250602001878785818110610db557610db561489b565b905060200201358152602001858585818110610dd357610dd361489b565b60209081029290920135909252835460018101855560009485529320825192936004020191829150610e059082614931565b5060208201516001820190610e1a9082614931565b5060408201516002820155606090910151600390910155600101610cd2565b5050505050505050505050565b60006001600160e01b031982167fc7da5ac8000000000000000000000000000000000000000000000000000000001480610ad25750610ad282612987565b600e546001600160a01b03163314610ec8576040517f6447134900000000000000000000000000000000000000000000000000000000815260040160405180910390fd5b6015548114610eea5760405163a9854bc960e01b815260040160405180910390fd5b60008167ffffffffffffffff811115610f0557610f05613e91565b604051908082528060200260200182016040528015610f2e578160200160208202803683370190505b50905060005b82811015610fd857806016858584818110610f5157610f5161489b565b9050602002013581548110610f6857610f6861489b565b90600052602060002090600402016002015414610fb1576040517fc886447400000000000000000000000000000000000000000000000000000000815260040160405180910390fd5b6001828281518110610fc557610fc561489b565b6020908102919091010152600101610f34565b5061103c84600e60009054906101000a90046001600160a01b03168585808060200260200160405190810160405280939291908181526020018383602002808284376000920182905250604080516020810190915290815288935091506129f99050565b50505050565b6016546060908210611067576040516307ed98ed60e31b815260040160405180910390fd5b61107082612c68565b61107930612cfc565b61108284612d12565b60405160200161109493929190614a38565b6040516020818303038152906040529050919050565b6001600160a01b03811660009081526009602052604090205461111e5760405162461bcd60e51b815260206004820152602660248201527f5061796d656e7453706c69747465723a206163636f756e7420686173206e6f2060448201526573686172657360d01b6064820152608401610aa4565b600061112982611ba8565b90508060000361118f5760405162461bcd60e51b815260206004820152602b60248201527f5061796d656e7453706c69747465723a206163636f756e74206973206e6f742060448201526a191d59481c185e5b595b9d60aa1b6064820152608401610aa4565b80600860008282546111a19190614aa4565b90915550506001600160a01b0382166000908152600a602052604090208054820190556111ce8282612db2565b604080516001600160a01b0384168152602081018390527fdf20fd1e76bc69d672e4814fafb2c449bba3a5369d8359adf9e05e6fde87b056910160405180910390a15050565b60155460609081908067ffffffffffffffff81111561123557611235613e91565b60405190808252806020026020018201604052801561126857816020015b60608152602001906001900390816112535790505b5092508067ffffffffffffffff81111561128457611284613e91565b6040519080825280602002602001820160405280156112b757816020015b60608152602001906001900390816112a25790505b50915060005b8181101561146157601581815481106112d8576112d861489b565b906000526020600020906002020160000180546112f4906148b1565b80601f0160208091040260200160405190810160405280929190818152602001828054611320906148b1565b801561136d5780601f106113425761010080835404028352916020019161136d565b820191906000526020600020905b81548152906001019060200180831161135057829003601f168201915b50505050508482815181106113845761138461489b565b6020026020010181905250601581815481106113a2576113a261489b565b906000526020600020906002020160010180546113be906148b1565b80601f01602080910402602001604051908101604052809291908181526020018280546113ea906148b1565b80156114375780601f1061140c57610100808354040283529160200191611437565b820191906000526020600020905b81548152906001019060200180831161141a57829003601f168201915b505050505083828151811061144e5761144e61489b565b60209081029190910101526001016112bd565b50509091565b60008281526001602090815260408083208151808301909252546001600160a01b038116808352600160a01b9091046bffffffffffffffffffffffff169282019290925282916114e65750604080518082019091526000546001600160a01b0381168252600160a01b90046bffffffffffffffffffffffff1660208201525b60208101516000906127109061150a906bffffffffffffffffffffffff1687614845565b611514919061485c565b91519350909150505b9250929050565b6001600160a01b0385163314806115405750611540853361086a565b6115b25760405162461bcd60e51b815260206004820152602e60248201527f455243313135353a2063616c6c6572206973206e6f7420746f6b656e206f776e60448201527f6572206f7220617070726f7665640000000000000000000000000000000000006064820152608401610aa4565b6115bf85858585856129f9565b5050505050565b6001600160a01b03811660009081526009602052604090205461163a5760405162461bcd60e51b815260206004820152602660248201527f5061796d656e7453706c69747465723a206163636f756e7420686173206e6f2060448201526573686172657360d01b6064820152608401610aa4565b60006116468383611c04565b9050806000036116ac5760405162461bcd60e51b815260206004820152602b60248201527f5061796d656e7453706c69747465723a206163636f756e74206973206e6f742060448201526a191d59481c185e5b595b9d60aa1b6064820152608401610aa4565b6001600160a01b0383166000908152600c6020526040812080548392906116d4908490614aa4565b90915550506001600160a01b038084166000908152600d6020908152604080832093861683529290522080548201905561170f838383612ed0565b604080516001600160a01b038481168252602082018490528516917f3be5b7a71e84ed12875d241991c70855ac5817d847039e17a9d895c1ceb0f18a910160405180910390a2505050565b606081518351146117d35760405162461bcd60e51b815260206004820152602960248201527f455243313135353a206163636f756e747320616e6420696473206c656e67746860448201527f206d69736d6174636800000000000000000000000000000000000000000000006064820152608401610aa4565b6000835167ffffffffffffffff8111156117ef576117ef613e91565b604051908082528060200260200182016040528015611818578160200160208202803683370190505b50905060005b84518110156118905761186385828151811061183c5761183c61489b565b60200260200101518583815181106118565761185661489b565b6020026020010151610a2a565b8282815181106118755761187561489b565b602090810291909101015261188981614ab7565b905061181e565b509392505050565b6118a061292d565b6118aa6000612f50565b565b8281146118cc5760405163a9854bc960e01b815260040160405180910390fd5b600e546001600160a01b031633148015906118e8575060145442105b1561191f576040517fac3d4d3900000000000000000000000000000000000000000000000000000000815260040160405180910390fd5b60008061192a610987565b905060005b83811015611a2b578484828181106119495761194961489b565b905060200201358361195b9190614aa4565b925060168787838181106119715761197161489b565b90506020020135815481106119885761198861489b565b9060005260206000209060040201600301548585838181106119ac576119ac61489b565b905060200201356119e18989858181106119c8576119c861489b565b9050602002013560009081526005602052604090205490565b6119eb9190614aa4565b1115611a23576040517fb36c128400000000000000000000000000000000000000000000000000000000815260040160405180910390fd5b60010161192f565b50611a368183614845565b341015611a6f576040517f0772327b00000000000000000000000000000000000000000000000000000000815260040160405180910390fd5b611aeb8787878080602002602001604051908101604052809392919081815260200183836020028082843760009201919091525050604080516020808b0282810182019093528a82529093508a925089918291850190849080828437600092018290525060408051602081019091529081529250612fba915050565b866001600160a01b03167f5e69dace42908bf940c680c4fd1884a926e1e39b2c2a350d9a0b96eeed5d32a687878787604051611b2a9493929190614b1b565b60405180910390a250505050505050565b600060168281548110611b5057611b5061489b565b9060005260206000209060040201600301549050919050565b6000600b8281548110611b7e57611b7e61489b565b6000918252602090912001546001600160a01b031692915050565b611ba43383836131ac565b5050565b600080611bb460085490565b611bbe9047614aa4565b9050611be98382611be4866001600160a01b03166000908152600a602052604090205490565b6132a0565b9392505050565b611bf861292d565b611c01816132de565b50565b6001600160a01b0382166000908152600c602052604081205481906040517f70a082310000000000000000000000000000000000000000000000000000000081523060048201526001600160a01b038616906370a0823190602401602060405180830381865afa158015611c7c573d6000803e3d6000fd5b505050506040513d601f19601f82011682018060405250810190611ca09190614b42565b611caa9190614aa4565b6001600160a01b038086166000908152600d6020908152604080832093881683529290522054909150611ce090849083906132a0565b949350505050565b606080606080606080606080600060168054905090508067ffffffffffffffff811115611d1757611d17613e91565b604051908082528060200260200182016040528015611d40578160200160208202803683370190505b5098508067ffffffffffffffff811115611d5c57611d5c613e91565b604051908082528060200260200182016040528015611d8f57816020015b6060815260200190600190039081611d7a5790505b5097508067ffffffffffffffff811115611dab57611dab613e91565b604051908082528060200260200182016040528015611dde57816020015b6060815260200190600190039081611dc95790505b5096508067ffffffffffffffff811115611dfa57611dfa613e91565b604051908082528060200260200182016040528015611e23578160200160208202803683370190505b5095508067ffffffffffffffff811115611e3f57611e3f613e91565b604051908082528060200260200182016040528015611e7257816020015b6060815260200190600190039081611e5d5790505b5094508067ffffffffffffffff811115611e8e57611e8e613e91565b604051908082528060200260200182016040528015611ec157816020015b6060815260200190600190039081611eac5790505b5093508067ffffffffffffffff811115611edd57611edd613e91565b604051908082528060200260200182016040528015611f06578160200160208202803683370190505b5092508067ffffffffffffffff811115611f2257611f22613e91565b604051908082528060200260200182016040528015611f4b578160200160208202803683370190505b50915060005b818110156123a957808a8281518110611f6c57611f6c61489b565b60200260200101818152505060168181548110611f8b57611f8b61489b565b90600052602060002090600402016000018054611fa7906148b1565b80601f0160208091040260200160405190810160405280929190818152602001828054611fd3906148b1565b80156120205780601f10611ff557610100808354040283529160200191612020565b820191906000526020600020905b81548152906001019060200180831161200357829003601f168201915b50505050508982815181106120375761203761489b565b6020026020010181905250601681815481106120555761205561489b565b90600052602060002090600402016001018054612071906148b1565b80601f016020809104026020016040519081016040528092919081815260200182805461209d906148b1565b80156120ea5780601f106120bf576101008083540402835291602001916120ea565b820191906000526020600020905b8154815290600101906020018083116120cd57829003601f168201915b50505050508882815181106121015761210161489b565b60200260200101819052506016818154811061211f5761211f61489b565b9060005260206000209060040201600201548782815181106121435761214361489b565b6020026020010181815250506015601682815481106121645761216461489b565b906000526020600020906004020160020154815481106121865761218661489b565b906000526020600020906002020160000180546121a2906148b1565b80601f01602080910402602001604051908101604052809291908181526020018280546121ce906148b1565b801561221b5780601f106121f05761010080835404028352916020019161221b565b820191906000526020600020905b8154815290600101906020018083116121fe57829003601f168201915b50505050508682815181106122325761223261489b565b60200260200101819052506015601682815481106122525761225261489b565b906000526020600020906004020160020154815481106122745761227461489b565b90600052602060002090600202016001018054612290906148b1565b80601f01602080910402602001604051908101604052809291908181526020018280546122bc906148b1565b80156123095780601f106122de57610100808354040283529160200191612309565b820191906000526020600020905b8154815290600101906020018083116122ec57829003601f168201915b50505050508582815181106123205761232061489b565b60200260200101819052506123418160009081526005602052604090205490565b8482815181106123535761235361489b565b602002602001018181525050601681815481106123725761237261489b565b9060005260206000209060040201600301548382815181106123965761239661489b565b6020908102919091010152600101611f51565b50509091929394959697565b6001600160a01b0385163314806123d157506123d1853361086a565b6124435760405162461bcd60e51b815260206004820152602e60248201527f455243313135353a2063616c6c6572206973206e6f7420746f6b656e206f776e60448201527f6572206f7220617070726f7665640000000000000000000000000000000000006064820152608401610aa4565b6115bf85858585856132ea565b61245861292d565b6001600160a01b0381166124d45760405162461bcd60e51b815260206004820152602660248201527f4f776e61626c653a206e6577206f776e657220697320746865207a65726f206160448201527f64647265737300000000000000000000000000000000000000000000000000006064820152608401610aa4565b611c0181612f50565b6060806060806016805490508510612508576040516307ed98ed60e31b815260040160405180910390fd5b6016858154811061251b5761251b61489b565b90600052602060002090600402016000018054612537906148b1565b80601f0160208091040260200160405190810160405280929190818152602001828054612563906148b1565b80156125b05780601f10612585576101008083540402835291602001916125b0565b820191906000526020600020905b81548152906001019060200180831161259357829003601f168201915b50505050509350601685815481106125ca576125ca61489b565b906000526020600020906004020160010180546125e6906148b1565b80601f0160208091040260200160405190810160405280929190818152602001828054612612906148b1565b801561265f5780601f106126345761010080835404028352916020019161265f565b820191906000526020600020905b81548152906001019060200180831161264257829003601f168201915b5050505050925060156016868154811061267b5761267b61489b565b9060005260206000209060040201600201548154811061269d5761269d61489b565b906000526020600020906002020160000180546126b9906148b1565b80601f01602080910402602001604051908101604052809291908181526020018280546126e5906148b1565b80156127325780601f1061270757610100808354040283529160200191612732565b820191906000526020600020905b81548152906001019060200180831161271557829003601f168201915b5050505050915060156016868154811061274e5761274e61489b565b906000526020600020906004020160020154815481106127705761277061489b565b9060005260206000209060020201600101805461278c906148b1565b80601f01602080910402602001604051908101604052809291908181526020018280546127b8906148b1565b80156128055780601f106127da57610100808354040283529160200191612805565b820191906000526020600020905b8154815290600101906020018083116127e857829003601f168201915b505050505090509193509193565b61281b61292d565b600e60009054906101000a90046001600160a01b03166001600160a01b031663cf3090126040518163ffffffff1660e01b8152600401602060405180830381865afa15801561286e573d6000803e3d6000fd5b505050506040513d601f19601f82011682018060405250810190612892919061487e565b6128c8576040517f1834e26500000000000000000000000000000000000000000000000000000000815260040160405180910390fd5b848410806128d557508282115b806128df57508481105b15612916576040517f2156216000000000000000000000000000000000000000000000000000000000815260040160405180910390fd5b601094909455601192909255601255601355601455565b6006546001600160a01b031633146118aa5760405162461bcd60e51b815260206004820181905260248201527f4f776e61626c653a2063616c6c6572206973206e6f7420746865206f776e65726044820152606401610aa4565b60006001600160e01b031982167fd9b67a260000000000000000000000000000000000000000000000000000000014806129ea57506001600160e01b031982167f0e89341c00000000000000000000000000000000000000000000000000000000145b80610ad25750610ad2826134a7565b8151835114612a5b5760405162461bcd60e51b815260206004820152602860248201527f455243313135353a2069647320616e6420616d6f756e7473206c656e677468206044820152670dad2e6dac2e8c6d60c31b6064820152608401610aa4565b6001600160a01b038416612abf5760405162461bcd60e51b815260206004820152602560248201527f455243313135353a207472616e7366657220746f20746865207a65726f206164604482015264647265737360d81b6064820152608401610aa4565b33612ace81878787878761350e565b60005b8451811015612bfa576000858281518110612aee57612aee61489b565b602002602001015190506000858381518110612b0c57612b0c61489b565b60209081029190910181015160008481526002835260408082206001600160a01b038e168352909352919091205490915081811015612ba05760405162461bcd60e51b815260206004820152602a60248201527f455243313135353a20696e73756666696369656e742062616c616e636520666f60448201526939103a3930b739b332b960b11b6064820152608401610aa4565b60008381526002602090815260408083206001600160a01b038e8116855292528083208585039055908b16825281208054849290612bdf908490614aa4565b9250508190555050505080612bf390614ab7565b9050612ad1565b50846001600160a01b0316866001600160a01b0316826001600160a01b03167f4a39dc06d4c0dbc64b70af90fd698a233a518aa5d07e595d983b8c0526c8f7fb8787604051612c4a929190614b5b565b60405180910390a4612c6081878787878761351c565b505050505050565b606060048054612c77906148b1565b80601f0160208091040260200160405190810160405280929190818152602001828054612ca3906148b1565b8015612cf05780601f10612cc557610100808354040283529160200191612cf0565b820191906000526020600020905b815481529060010190602001808311612cd357829003601f168201915b50505050509050919050565b6060610ad26001600160a01b03831660146136ca565b60606000612d1f836138ab565b600101905060008167ffffffffffffffff811115612d3f57612d3f613e91565b6040519080825280601f01601f191660200182016040528015612d69576020820181803683370190505b5090508181016020015b600019017f3031323334353637383961626364656600000000000000000000000000000000600a86061a8153600a8504945084612d7357509392505050565b80471015612e025760405162461bcd60e51b815260206004820152601d60248201527f416464726573733a20696e73756666696369656e742062616c616e63650000006044820152606401610aa4565b6000826001600160a01b03168260405160006040518083038185875af1925050503d8060008114612e4f576040519150601f19603f3d011682016040523d82523d6000602084013e612e54565b606091505b5050905080612ecb5760405162461bcd60e51b815260206004820152603a60248201527f416464726573733a20756e61626c6520746f2073656e642076616c75652c207260448201527f6563697069656e74206d617920686176652072657665727465640000000000006064820152608401610aa4565b505050565b604080516001600160a01b038416602482015260448082018490528251808303909101815260649091019091526020810180517bffffffffffffffffffffffffffffffffffffffffffffffffffffffff167fa9059cbb00000000000000000000000000000000000000000000000000000000179052612ecb90849061398d565b600680546001600160a01b038381167fffffffffffffffffffffffff0000000000000000000000000000000000000000831681179093556040519116919082907f8be0079c531659141344cd1fd0a4f28419497f9722a3daafe3b4186f6b6457e090600090a35050565b6001600160a01b0384166130365760405162461bcd60e51b815260206004820152602160248201527f455243313135353a206d696e7420746f20746865207a65726f2061646472657360448201527f73000000000000000000000000000000000000000000000000000000000000006064820152608401610aa4565b81518351146130985760405162461bcd60e51b815260206004820152602860248201527f455243313135353a2069647320616e6420616d6f756e7473206c656e677468206044820152670dad2e6dac2e8c6d60c31b6064820152608401610aa4565b336130a88160008787878761350e565b60005b8451811015613144578381815181106130c6576130c661489b565b6020026020010151600260008784815181106130e4576130e461489b565b602002602001015181526020019081526020016000206000886001600160a01b03166001600160a01b03168152602001908152602001600020600082825461312c9190614aa4565b9091555081905061313c81614ab7565b9150506130ab565b50846001600160a01b031660006001600160a01b0316826001600160a01b03167f4a39dc06d4c0dbc64b70af90fd698a233a518aa5d07e595d983b8c0526c8f7fb8787604051613195929190614b5b565b60405180910390a46115bf8160008787878761351c565b816001600160a01b0316836001600160a01b0316036132335760405162461bcd60e51b815260206004820152602960248201527f455243313135353a2073657474696e6720617070726f76616c2073746174757360448201527f20666f722073656c6600000000000000000000000000000000000000000000006064820152608401610aa4565b6001600160a01b03838116600081815260036020908152604080832094871680845294825291829020805460ff191686151590811790915591519182527f17307eab39ab6107e8899845ad3d59bd9653f200f220920489ca2b5937696c31910160405180910390a3505050565b6007546001600160a01b038416600090815260096020526040812054909183916132ca9086614845565b6132d4919061485c565b611ce09190614832565b6004611ba48282614931565b6001600160a01b03841661334e5760405162461bcd60e51b815260206004820152602560248201527f455243313135353a207472616e7366657220746f20746865207a65726f206164604482015264647265737360d81b6064820152608401610aa4565b33600061335a85613a72565b9050600061336785613a72565b905061337783898985858961350e565b60008681526002602090815260408083206001600160a01b038c168452909152902054858110156133fd5760405162461bcd60e51b815260206004820152602a60248201527f455243313135353a20696e73756666696369656e742062616c616e636520666f60448201526939103a3930b739b332b960b11b6064820152608401610aa4565b60008781526002602090815260408083206001600160a01b038d8116855292528083208985039055908a1682528120805488929061343c908490614aa4565b909155505060408051888152602081018890526001600160a01b03808b16928c821692918816917fc3d58168c5ae7397731d063d5bbf3d657854427343f4c083240f7aacaa2d0f62910160405180910390a461349c848a8a8a8a8a613abd565b505050505050505050565b60006001600160e01b031982167f2a55205a000000000000000000000000000000000000000000000000000000001480610ad257507f01ffc9a7000000000000000000000000000000000000000000000000000000006001600160e01b0319831614610ad2565b612c60868686868686613bb9565b6001600160a01b0384163b15612c605760405163bc197c8160e01b81526001600160a01b0385169063bc197c81906135609089908990889088908890600401614b80565b6020604051808303816000875af192505050801561359b575060408051601f3d908101601f1916820190925261359891810190614bde565b60015b613650576135a7614bfb565b806308c379a0036135e057506135bb614c16565b806135c657506135e2565b8060405162461bcd60e51b8152600401610aa49190614248565b505b60405162461bcd60e51b815260206004820152603460248201527f455243313135353a207472616e7366657220746f206e6f6e2d4552433131353560448201527f526563656976657220696d706c656d656e7465720000000000000000000000006064820152608401610aa4565b6001600160e01b0319811663bc197c8160e01b146136c15760405162461bcd60e51b815260206004820152602860248201527f455243313135353a204552433131353552656365697665722072656a656374656044820152676420746f6b656e7360c01b6064820152608401610aa4565b50505050505050565b606060006136d9836002614845565b6136e4906002614aa4565b67ffffffffffffffff8111156136fc576136fc613e91565b6040519080825280601f01601f191660200182016040528015613726576020820181803683370190505b5090507f30000000000000000000000000000000000000000000000000000000000000008160008151811061375d5761375d61489b565b60200101906001600160f81b031916908160001a9053507f7800000000000000000000000000000000000000000000000000000000000000816001815181106137a8576137a861489b565b60200101906001600160f81b031916908160001a90535060006137cc846002614845565b6137d7906001614aa4565b90505b600181111561385c577f303132333435363738396162636465660000000000000000000000000000000085600f16601081106138185761381861489b565b1a60f81b82828151811061382e5761382e61489b565b60200101906001600160f81b031916908160001a90535060049490941c9361385581614ca0565b90506137da565b508315611be95760405162461bcd60e51b815260206004820181905260248201527f537472696e67733a20686578206c656e67746820696e73756666696369656e746044820152606401610aa4565b6000807a184f03e93ff9f4daa797ed6e38ed64bf6a1f01000000000000000083106138f4577a184f03e93ff9f4daa797ed6e38ed64bf6a1f010000000000000000830492506040015b6d04ee2d6d415b85acef81000000008310613920576d04ee2d6d415b85acef8100000000830492506020015b662386f26fc10000831061393e57662386f26fc10000830492506010015b6305f5e1008310613956576305f5e100830492506008015b612710831061396a57612710830492506004015b6064831061397c576064830492506002015b600a8310610ad25760010192915050565b60006139e2826040518060400160405280602081526020017f5361666545524332303a206c6f772d6c6576656c2063616c6c206661696c6564815250856001600160a01b0316613d479092919063ffffffff16565b805190915015612ecb5780806020019051810190613a00919061487e565b612ecb5760405162461bcd60e51b815260206004820152602a60248201527f5361666545524332303a204552433230206f7065726174696f6e20646964206e60448201527f6f742073756363656564000000000000000000000000000000000000000000006064820152608401610aa4565b60408051600180825281830190925260609160009190602080830190803683370190505090508281600081518110613aac57613aac61489b565b602090810291909101015292915050565b6001600160a01b0384163b15612c605760405163f23a6e6160e01b81526001600160a01b0385169063f23a6e6190613b019089908990889088908890600401614cb7565b6020604051808303816000875af1925050508015613b3c575060408051601f3d908101601f19168201909252613b3991810190614bde565b60015b613b48576135a7614bfb565b6001600160e01b0319811663f23a6e6160e01b146136c15760405162461bcd60e51b815260206004820152602860248201527f455243313135353a204552433131353552656365697665722072656a656374656044820152676420746f6b656e7360c01b6064820152608401610aa4565b6001600160a01b038516613c405760005b8351811015613c3e57828181518110613be557613be561489b565b602002602001015160056000868481518110613c0357613c0361489b565b602002602001015181526020019081526020016000206000828254613c289190614aa4565b90915550613c37905081614ab7565b9050613bca565b505b6001600160a01b038416612c605760005b83518110156136c1576000848281518110613c6e57613c6e61489b565b602002602001015190506000848381518110613c8c57613c8c61489b565b6020026020010151905060006005600084815260200190815260200160002054905081811015613d245760405162461bcd60e51b815260206004820152602860248201527f455243313135353a206275726e20616d6f756e74206578636565647320746f7460448201527f616c537570706c790000000000000000000000000000000000000000000000006064820152608401610aa4565b60009283526005602052604090922091039055613d4081614ab7565b9050613c51565b6060611ce0848460008585600080866001600160a01b03168587604051613d6e9190614cef565b60006040518083038185875af1925050503d8060008114613dab576040519150601f19603f3d011682016040523d82523d6000602084013e613db0565b606091505b5091509150613dc187838387613dcc565b979650505050505050565b60608315613e3b578251600003613e34576001600160a01b0385163b613e345760405162461bcd60e51b815260206004820152601d60248201527f416464726573733a2063616c6c20746f206e6f6e2d636f6e74726163740000006044820152606401610aa4565b5081611ce0565b611ce083838151156135c65781518083602001fd5b6001600160a01b0381168114611c0157600080fd5b60008060408385031215613e7857600080fd5b8235613e8381613e50565b946020939093013593505050565b634e487b7160e01b600052604160045260246000fd5b601f8201601f1916810167ffffffffffffffff81118282101715613ecd57613ecd613e91565b6040525050565b600067ffffffffffffffff821115613eee57613eee613e91565b5060051b60200190565b600082601f830112613f0957600080fd5b813567ffffffffffffffff811115613f2357613f23613e91565b604051613f3a601f8301601f191660200182613ea7565b818152846020838601011115613f4f57600080fd5b816020850160208301376000918101602001919091529392505050565b600082601f830112613f7d57600080fd5b81356020613f8a82613ed4565b604051613f978282613ea7565b83815260059390931b8501820192828101915086841115613fb757600080fd5b8286015b84811015613ff757803567ffffffffffffffff811115613fdb5760008081fd5b613fe98986838b0101613ef8565b845250918301918301613fbb565b509695505050505050565b60008083601f84011261401457600080fd5b50813567ffffffffffffffff81111561402c57600080fd5b6020830191508360208260051b850101111561151d57600080fd5b60008060008060008060008060008060c08b8d03121561406657600080fd5b8a3567ffffffffffffffff8082111561407e57600080fd5b61408a8e838f01613f6c565b9b5060208d01359150808211156140a057600080fd5b6140ac8e838f01613f6c565b9a5060408d01359150808211156140c257600080fd5b6140ce8e838f01614002565b909a50985060608d01359150808211156140e757600080fd5b6140f38e838f01614002565b909850965060808d013591508082111561410c57600080fd5b6141188e838f01614002565b909650945060a08d013591508082111561413157600080fd5b5061413e8d828e01614002565b915080935050809150509295989b9194979a5092959850565b6001600160e01b031981168114611c0157600080fd5b60006020828403121561417f57600080fd5b8135611be981614157565b60008060006040848603121561419f57600080fd5b83356141aa81613e50565b9250602084013567ffffffffffffffff8111156141c657600080fd5b6141d286828701614002565b9497909650939450505050565b6000602082840312156141f157600080fd5b5035919050565b60005b838110156142135781810151838201526020016141fb565b50506000910152565b600081518084526142348160208601602086016141f8565b601f01601f19169290920160200192915050565b602081526000611be9602083018461421c565b60006020828403121561426d57600080fd5b8135611be981613e50565b600082825180855260208086019550808260051b84010181860160005b848110156142c357601f198684030189526142b183835161421c565b98840198925090830190600101614295565b5090979650505050505050565b6040815260006142e36040830185614278565b82810360208401526142f58185614278565b95945050505050565b6000806040838503121561431157600080fd5b50508035926020909101359150565b600082601f83011261433157600080fd5b8135602061433e82613ed4565b60405161434b8282613ea7565b83815260059390931b850182019282810191508684111561436b57600080fd5b8286015b84811015613ff7578035835291830191830161436f565b600080600080600060a0868803121561439e57600080fd5b85356143a981613e50565b945060208601356143b981613e50565b9350604086013567ffffffffffffffff808211156143d657600080fd5b6143e289838a01614320565b945060608801359150808211156143f857600080fd5b61440489838a01614320565b9350608088013591508082111561441a57600080fd5b5061442788828901613ef8565b9150509295509295909350565b6000806040838503121561444757600080fd5b823561445281613e50565b9150602083013561446281613e50565b809150509250929050565b6000806040838503121561448057600080fd5b823567ffffffffffffffff8082111561449857600080fd5b818501915085601f8301126144ac57600080fd5b813560206144b982613ed4565b6040516144c68282613ea7565b83815260059390931b85018201928281019150898411156144e657600080fd5b948201945b8386101561450d5785356144fe81613e50565b825294820194908201906144eb565b9650508601359250508082111561452357600080fd5b5061453085828601614320565b9150509250929050565b600081518084526020808501945080840160005b8381101561456a5781518752958201959082019060010161454e565b509495945050505050565b602081526000611be9602083018461453a565b6000806000806000606086880312156145a057600080fd5b85356145ab81613e50565b9450602086013567ffffffffffffffff808211156145c857600080fd5b6145d489838a01614002565b909650945060408801359150808211156145ed57600080fd5b506145fa88828901614002565b969995985093965092949392505050565b8015158114611c0157600080fd5b6000806040838503121561462c57600080fd5b823561463781613e50565b915060208301356144628161460b565b60006020828403121561465957600080fd5b813567ffffffffffffffff81111561467057600080fd5b611ce084828501613ef8565b60006101008083526146908184018c61453a565b905082810360208401526146a4818b614278565b905082810360408401526146b8818a614278565b905082810360608401526146cc818961453a565b905082810360808401526146e08188614278565b905082810360a08401526146f48187614278565b905082810360c0840152614708818661453a565b905082810360e084015261471c818561453a565b9b9a5050505050505050505050565b600080600080600060a0868803121561474357600080fd5b853561474e81613e50565b9450602086013561475e81613e50565b93506040860135925060608601359150608086013567ffffffffffffffff81111561478857600080fd5b61442788828901613ef8565b6080815260006147a7608083018761421c565b82810360208401526147b9818761421c565b905082810360408401526147cd818661421c565b90508281036060840152613dc1818561421c565b600080600080600060a086880312156147f957600080fd5b505083359560208501359550604085013594606081013594506080013592509050565b634e487b7160e01b600052601160045260246000fd5b81810381811115610ad257610ad261481c565b8082028115828204841417610ad257610ad261481c565b60008261487957634e487b7160e01b600052601260045260246000fd5b500490565b60006020828403121561489057600080fd5b8151611be98161460b565b634e487b7160e01b600052603260045260246000fd5b600181811c908216806148c557607f821691505b6020821081036148e557634e487b7160e01b600052602260045260246000fd5b50919050565b601f821115612ecb57600081815260208120601f850160051c810160208610156149125750805b601f850160051c820191505b81811015612c605782815560010161491e565b815167ffffffffffffffff81111561494b5761494b613e91565b61495f8161495984546148b1565b846148eb565b602080601f831160018114614994576000841561497c5750858301515b600019600386901b1c1916600185901b178555612c60565b600085815260208120601f198616915b828110156149c3578886015182559484019460019091019084016149a4565b50858210156149e15787850151600019600388901b60f8161c191681555b5050505050600190811b01905550565b6000808335601e19843603018112614a0857600080fd5b83018035915067ffffffffffffffff821115614a2357600080fd5b60200191503681900382131561151d57600080fd5b60008451614a4a8184602089016141f8565b845190830190614a5e8183602089016141f8565b7f2f0000000000000000000000000000000000000000000000000000000000000091019081528351614a978160018401602088016141f8565b0160010195945050505050565b80820180821115610ad257610ad261481c565b600060018201614ac957614ac961481c565b5060010190565b81835260007f07ffffffffffffffffffffffffffffffffffffffffffffffffffffffffffffff831115614b0257600080fd5b8260051b80836020870137939093016020019392505050565b604081526000614b2f604083018688614ad0565b8281036020840152613dc1818587614ad0565b600060208284031215614b5457600080fd5b5051919050565b604081526000614b6e604083018561453a565b82810360208401526142f5818561453a565b60006001600160a01b03808816835280871660208401525060a06040830152614bac60a083018661453a565b8281036060840152614bbe818661453a565b90508281036080840152614bd2818561421c565b98975050505050505050565b600060208284031215614bf057600080fd5b8151611be981614157565b600060033d1115610a275760046000803e5060005160e01c90565b600060443d1015614c245790565b6040516003193d81016004833e81513d67ffffffffffffffff8160248401118184111715614c5457505050505090565b8285019150815181811115614c6c5750505050505090565b843d8701016020828501011115614c865750505050505090565b614c9560208286010187613ea7565b509095945050505050565b600081614caf57614caf61481c565b506000190190565b60006001600160a01b03808816835280871660208401525084604083015283606083015260a06080830152613dc160a083018461421c565b60008251614d018184602087016141f8565b919091019291505056fea2646970667358221220d0910c425fb5e828511c20df45aeb876d0991efc057e999db60f5d11338aff8964736f6c634300081300336080604052604051620012813803806200128183398101604081905262000026916200042e565b8051825114620000985760405162461bcd60e51b815260206004820152603260248201527f5061796d656e7453706c69747465723a2070617965657320616e6420736861726044820152710cae640d8cadccee8d040dad2e6dac2e8c6d60731b60648201526084015b60405180910390fd5b6000825111620000eb5760405162461bcd60e51b815260206004820152601a60248201527f5061796d656e7453706c69747465723a206e6f2070617965657300000000000060448201526064016200008f565b60005b82518110156200015757620001428382815181106200011157620001116200050c565b60200260200101518383815181106200012e576200012e6200050c565b60200260200101516200016060201b60201c565b806200014e8162000538565b915050620000ee565b50505062000570565b6001600160a01b038216620001cd5760405162461bcd60e51b815260206004820152602c60248201527f5061796d656e7453706c69747465723a206163636f756e74206973207468652060448201526b7a65726f206164647265737360a01b60648201526084016200008f565b600081116200021f5760405162461bcd60e51b815260206004820152601d60248201527f5061796d656e7453706c69747465723a2073686172657320617265203000000060448201526064016200008f565b6001600160a01b038216600090815260026020526040902054156200029b5760405162461bcd60e51b815260206004820152602b60248201527f5061796d656e7453706c69747465723a206163636f756e7420616c726561647960448201526a206861732073686172657360a81b60648201526084016200008f565b60048054600181019091557f8a35acfbc15ff81a39ae7d344fd709f28e8600b4aa8c65c6b64bfe7fe36bd19b0180546001600160a01b0319166001600160a01b0384169081179091556000908152600260205260408120829055546200030390829062000554565b600055604080516001600160a01b0384168152602081018390527f40c340f65e17194d14ddddb073d3c9f888e3cb52b5aae0c6c7706b4fbc905fac910160405180910390a15050565b634e487b7160e01b600052604160045260246000fd5b604051601f8201601f191681016001600160401b03811182821017156200038d576200038d6200034c565b604052919050565b60006001600160401b03821115620003b157620003b16200034c565b5060051b60200190565b600082601f830112620003cd57600080fd5b81516020620003e6620003e08362000395565b62000362565b82815260059290921b840181019181810190868411156200040657600080fd5b8286015b848110156200042357805183529183019183016200040a565b509695505050505050565b600080604083850312156200044257600080fd5b82516001600160401b03808211156200045a57600080fd5b818501915085601f8301126200046f57600080fd5b8151602062000482620003e08362000395565b82815260059290921b84018101918181019089841115620004a257600080fd5b948201945b83861015620004d95785516001600160a01b0381168114620004c95760008081fd5b82529482019490820190620004a7565b91880151919650909350505080821115620004f357600080fd5b506200050285828601620003bb565b9150509250929050565b634e487b7160e01b600052603260045260246000fd5b634e487b7160e01b600052601160045260246000fd5b6000600182016200054d576200054d62000522565b5060010190565b808201808211156200056a576200056a62000522565b92915050565b610d0180620005806000396000f3fe6080604052600436106100c05760003560e01c80639852595c11610074578063ce7c2ac21161004e578063ce7c2ac214610242578063d79779b214610278578063e33b7de3146102ae57600080fd5b80639852595c146101cc578063a3f8eace14610202578063c45ac0501461022257600080fd5b8063406072a9116100a5578063406072a91461015457806348b75044146101745780638b83209b1461019457600080fd5b8063191655871461010e5780633a98ef391461013057600080fd5b36610109577f6ef95f06320e7a25a04a175ca677b7052bdd97131872c2192525a629f51be77033604080516001600160a01b0390921682523460208301520160405180910390a1005b600080fd5b34801561011a57600080fd5b5061012e610129366004610b23565b6102c3565b005b34801561013c57600080fd5b506000545b6040519081526020015b60405180910390f35b34801561016057600080fd5b5061014161016f366004610b40565b610432565b34801561018057600080fd5b5061012e61018f366004610b40565b61045f565b3480156101a057600080fd5b506101b46101af366004610b79565b6105f3565b6040516001600160a01b03909116815260200161014b565b3480156101d857600080fd5b506101416101e7366004610b23565b6001600160a01b031660009081526003602052604090205490565b34801561020e57600080fd5b5061014161021d366004610b23565b610623565b34801561022e57600080fd5b5061014161023d366004610b40565b61066b565b34801561024e57600080fd5b5061014161025d366004610b23565b6001600160a01b031660009081526002602052604090205490565b34801561028457600080fd5b50610141610293366004610b23565b6001600160a01b031660009081526005602052604090205490565b3480156102ba57600080fd5b50600154610141565b6001600160a01b03811660009081526002602052604090205461033c5760405162461bcd60e51b815260206004820152602660248201527f5061796d656e7453706c69747465723a206163636f756e7420686173206e6f2060448201526573686172657360d01b60648201526084015b60405180910390fd5b600061034782610623565b9050806000036103ad5760405162461bcd60e51b815260206004820152602b60248201527f5061796d656e7453706c69747465723a206163636f756e74206973206e6f742060448201526a191d59481c185e5b595b9d60aa1b6064820152608401610333565b80600160008282546103bf9190610ba8565b90915550506001600160a01b03821660009081526003602052604090208054820190556103ec828261072a565b604080516001600160a01b0384168152602081018390527fdf20fd1e76bc69d672e4814fafb2c449bba3a5369d8359adf9e05e6fde87b056910160405180910390a15050565b6001600160a01b038083166000908152600660209081526040808320938516835292905220545b92915050565b6001600160a01b0381166000908152600260205260409020546104d35760405162461bcd60e51b815260206004820152602660248201527f5061796d656e7453706c69747465723a206163636f756e7420686173206e6f2060448201526573686172657360d01b6064820152608401610333565b60006104df838361066b565b9050806000036105455760405162461bcd60e51b815260206004820152602b60248201527f5061796d656e7453706c69747465723a206163636f756e74206973206e6f742060448201526a191d59481c185e5b595b9d60aa1b6064820152608401610333565b6001600160a01b0383166000908152600560205260408120805483929061056d908490610ba8565b90915550506001600160a01b0380841660009081526006602090815260408083209386168352929052208054820190556105a8838383610848565b604080516001600160a01b038481168252602082018490528516917f3be5b7a71e84ed12875d241991c70855ac5817d847039e17a9d895c1ceb0f18a910160405180910390a2505050565b60006004828154811061060857610608610bbb565b6000918252602090912001546001600160a01b031692915050565b60008061062f60015490565b6106399047610ba8565b9050610664838261065f866001600160a01b031660009081526003602052604090205490565b6108c8565b9392505050565b6001600160a01b03821660009081526005602052604081205481906040517f70a082310000000000000000000000000000000000000000000000000000000081523060048201526001600160a01b038616906370a0823190602401602060405180830381865afa1580156106e3573d6000803e3d6000fd5b505050506040513d601f19601f820116820180604052508101906107079190610bd1565b6107119190610ba8565b9050610722838261065f8787610432565b949350505050565b8047101561077a5760405162461bcd60e51b815260206004820152601d60248201527f416464726573733a20696e73756666696369656e742062616c616e63650000006044820152606401610333565b6000826001600160a01b03168260405160006040518083038185875af1925050503d80600081146107c7576040519150601f19603f3d011682016040523d82523d6000602084013e6107cc565b606091505b50509050806108435760405162461bcd60e51b815260206004820152603a60248201527f416464726573733a20756e61626c6520746f2073656e642076616c75652c207260448201527f6563697069656e74206d617920686176652072657665727465640000000000006064820152608401610333565b505050565b604080516001600160a01b038416602482015260448082018490528251808303909101815260649091019091526020810180517bffffffffffffffffffffffffffffffffffffffffffffffffffffffff167fa9059cbb00000000000000000000000000000000000000000000000000000000179052610843908490610903565b600080546001600160a01b0385168252600260205260408220548391906108ef9086610bea565b6108f99190610c01565b6107229190610c23565b6000610958826040518060400160405280602081526020017f5361666545524332303a206c6f772d6c6576656c2063616c6c206661696c6564815250856001600160a01b03166109e89092919063ffffffff16565b80519091501561084357808060200190518101906109769190610c36565b6108435760405162461bcd60e51b815260206004820152602a60248201527f5361666545524332303a204552433230206f7065726174696f6e20646964206e60448201527f6f742073756363656564000000000000000000000000000000000000000000006064820152608401610333565b6060610722848460008585600080866001600160a01b03168587604051610a0f9190610c7c565b60006040518083038185875af1925050503d8060008114610a4c576040519150601f19603f3d011682016040523d82523d6000602084013e610a51565b606091505b5091509150610a6287838387610a6d565b979650505050505050565b60608315610adc578251600003610ad5576001600160a01b0385163b610ad55760405162461bcd60e51b815260206004820152601d60248201527f416464726573733a2063616c6c20746f206e6f6e2d636f6e74726163740000006044820152606401610333565b5081610722565b6107228383815115610af15781518083602001fd5b8060405162461bcd60e51b81526004016103339190610c98565b6001600160a01b0381168114610b2057600080fd5b50565b600060208284031215610b3557600080fd5b813561066481610b0b565b60008060408385031215610b5357600080fd5b8235610b5e81610b0b565b91506020830135610b6e81610b0b565b809150509250929050565b600060208284031215610b8b57600080fd5b5035919050565b634e487b7160e01b600052601160045260246000fd5b8082018082111561045957610459610b92565b634e487b7160e01b600052603260045260246000fd5b600060208284031215610be357600080fd5b5051919050565b808202811582820484141761045957610459610b92565b600082610c1e57634e487b7160e01b600052601260045260246000fd5b500490565b8181038181111561045957610459610b92565b600060208284031215610c4857600080fd5b8151801515811461066457600080fd5b60005b83811015610c73578181015183820152602001610c5b565b50506000910152565b60008251610c8e818460208701610c58565b9190910192915050565b6020815260008251806020840152610cb7816040850160208701610c58565b601f01601f1916919091016040019291505056fea2646970667358221220ce9a6bcd2b43e1c2ba849e49a590b0148fe0d414edba637b9113e5c3ad3c78c364736f6c63430008130033",
  "devdoc": {
    "events": {
      "ApprovalForAll(address,address,bool)": {
        "details": "Emitted when `account` grants or revokes permission to `operator` to transfer their tokens, according to `approved`."
      },
      "TransferBatch(address,address,address,uint256[],uint256[])": {
        "details": "Equivalent to multiple {TransferSingle} events, where `operator`, `from` and `to` are the same for all transfers."
      },
      "TransferSingle(address,address,address,uint256,uint256)": {
        "details": "Emitted when `value` tokens of token type `id` are transferred from `from` to `to` by `operator`."
      },
      "URI(string,uint256)": {
        "details": "Emitted when the URI for token type `id` changes to `value`, if it is a non-programmatic URI. If an {URI} event was emitted for `id`, the standard https://eips.ethereum.org/EIPS/eip-1155#metadata-extensions[guarantees] that `value` will equal the value returned by {IERC1155MetadataURI-uri}."
      }
    },
    "kind": "dev",
    "methods": {
      "balanceOf(address,uint256)": {
        "details": "See {IERC1155-balanceOf}. Requirements: - `account` cannot be the zero address."
      },
      "balanceOfBatch(address[],uint256[])": {
        "details": "See {IERC1155-balanceOfBatch}. Requirements: - `accounts` and `ids` must have the same length."
      },
      "buyTraits(address,uint256[],uint256[])": {
        "params": {
          "_recipient": "the address to receive the trait tokens",
          "_traitAmounts": "the amounts of each token ID to buy",
          "_traitTokenIds": "the trait token IDs to buy"
        }
      },
      "createTraitsAndTypes(string[],string[],string[],string[],uint256[],uint256[])": {
        "params": {
          "_traitMaxSupplys": "maximum number of mints for each trait",
          "_traitNames": "human readable trait names",
          "_traitTypeIndexes": "trait type indexes each trait belongs to",
          "_traitTypeNames": "human readable trait type names",
          "_traitTypeValues": "trait type values used in the generative scripts",
          "_traitValues": "trait values used in the generative scripts"
        }
      },
      "exists(uint256)": {
        "details": "Indicates whether any token exist with a given id, or not."
      },
      "isApprovedForAll(address,address)": {
        "details": "See {IERC1155-isApprovedForAll}."
      },
      "maxSupply(uint256)": {
        "returns": {
          "_maxSupply": "the max supply of the token"
        }
      },
      "owner()": {
        "details": "Returns the address of the current owner."
      },
      "payee(uint256)": {
        "details": "Getter for the address of the payee number `index`."
      },
      "releasable(address)": {
        "details": "Getter for the amount of payee's releasable Ether."
      },
      "releasable(address,address)": {
        "details": "Getter for the amount of payee's releasable `token` tokens. `token` should be the address of an IERC20 contract."
      },
      "release(address)": {
        "details": "Triggers a transfer to `account` of the amount of Ether they are owed, according to their percentage of the total shares and their previous withdrawals."
      },
      "release(address,address)": {
        "details": "Triggers a transfer to `account` of the amount of `token` tokens they are owed, according to their percentage of the total shares and their previous withdrawals. `token` must be the address of an IERC20 contract."
      },
      "released(address)": {
        "details": "Getter for the amount of Ether already released to a payee."
      },
      "released(address,address)": {
        "details": "Getter for the amount of `token` tokens already released to a payee. `token` should be the address of an IERC20 contract."
      },
      "renounceOwnership()": {
        "details": "Leaves the contract without owner. It will not be possible to call `onlyOwner` functions anymore. Can only be called by the current owner. NOTE: Renouncing ownership will leave the contract without an owner, thereby removing any functionality that is only available to the owner."
      },
      "royaltyInfo(uint256,uint256)": {
        "details": "Returns how much royalty is owed and to whom, based on a sale price that may be denominated in any unit of exchange. The royalty amount is denominated and should be paid in that same unit of exchange."
      },
      "safeBatchTransferFrom(address,address,uint256[],uint256[],bytes)": {
        "details": "See {IERC1155-safeBatchTransferFrom}."
      },
      "safeTransferFrom(address,address,uint256,uint256,bytes)": {
        "details": "See {IERC1155-safeTransferFrom}."
      },
      "scheduleAuction(uint256,uint256,uint256,uint256,uint256)": {
        "params": {
          "_auctionEndPrice": "trait price the auction ends at",
          "_auctionEndTime": "timestamp the auction ends at",
          "_auctionStartPrice": "trait price the auction begins at",
          "_auctionStartTime": "timestamp the auction begins at",
          "_traitsSaleStartTime": "timestamp at which traits can be bought individually"
        }
      },
      "setApprovalForAll(address,bool)": {
        "details": "See {IERC1155-setApprovalForAll}."
      },
      "shares(address)": {
        "details": "Getter for the amount of shares held by an account."
      },
      "supportsInterface(bytes4)": {
        "params": {
          "interfaceId": "the interface ID to check"
        },
        "returns": {
          "_0": "bool True if the interface is supported, otherwise False"
        }
      },
      "totalReleased()": {
        "details": "Getter for the total amount of Ether already released."
      },
      "totalReleased(address)": {
        "details": "Getter for the total amount of `token` already released. `token` should be the address of an IERC20 contract."
      },
      "totalShares()": {
        "details": "Getter for the total shares held by payees."
      },
      "totalSupply(uint256)": {
        "details": "Total amount of tokens in with a given id."
      },
      "trait(uint256)": {
        "params": {
          "_tokenId": "token ID to get info about"
        },
        "returns": {
          "_traitName": "human readable trait name",
          "_traitTypeName": "human readable trait type name",
          "_traitTypeValue": "trait type value used in the generative script",
          "_traitValue": "trait type value used in the generative script"
        }
      },
      "traitPrice()": {
        "returns": {
          "_price": "the current trait price in ether"
        }
      },
      "traitTypes()": {
        "returns": {
          "_traitTypeNames": "human readable trait type names",
          "_traitTypeValues": "trait type values used in the generative script"
        }
      },
      "traits()": {
        "returns": {
          "_traitMaxSupplys": "max supply of each trait",
          "_traitNames": "human readable trait names",
          "_traitTokenIds": "token IDs of the traits",
          "_traitTotalSupplys": "total supply of each trait",
          "_traitTypeIndexes": "trait type index each trait belongs to",
          "_traitTypeNames": "human readable trait type names",
          "_traitTypeValues": "trait type values used in the generative script",
          "_traitValues": "trait type values used in the generative script"
        }
      },
      "transferOwnership(address)": {
        "details": "Transfers ownership of the contract to a new account (`newOwner`). Can only be called by the current owner."
      },
      "transferTraitsToCreateArtwork(address,uint256[])": {
        "params": {
          "_caller": "the address creating the artwork",
          "_traitTokenIds": "the trait token IDs used to create the artwork"
        }
      },
      "updateURI(string)": {
        "params": {
          "_uri": "the new base URI string"
        }
      },
      "uri(uint256)": {
        "params": {
          "_tokenId": "the token ID to get the URI for"
        },
        "returns": {
          "_0": "string the token specific URI"
        }
      }
    },
    "version": 1
  },
  "userdoc": {
    "kind": "user",
    "methods": {
      "buyTraits(address,uint256[],uint256[])": {
        "notice": "Allows a user to buy any number of traits and amounts using ether"
      },
      "createTraitsAndTypes(string[],string[],string[],string[],uint256[],uint256[])": {
        "notice": "Sets up the traits and trait types"
      },
      "maxSupply(uint256)": {
        "notice": "Returns the max supply of the specified token ID"
      },
      "scheduleAuction(uint256,uint256,uint256,uint256,uint256)": {
        "notice": "Schedules the dutch auction start and end time, and the prices the traits will start and end the auction at"
      },
      "supportsInterface(bytes4)": {
        "notice": "Returns whether the specified interface ID is supported by the contract"
      },
      "trait(uint256)": {
        "notice": "Returns info about an individual trait"
      },
      "traitPrice()": {
        "notice": "Returns the current trait price"
      },
      "traitTypes()": {
        "notice": "Returns the trait types"
      },
      "traits()": {
        "notice": "Returns info about all traits"
      },
      "transferTraitsToCreateArtwork(address,uint256[])": {
        "notice": "Called by the Artwork contract to transfer traits from the caller to the Artwork contract to create a new Artwork token"
      },
      "updateURI(string)": {
        "notice": "Updates the base URI string used to get full token URIs"
      },
      "uri(uint256)": {
        "notice": "Returns the URI of the specified token ID"
      }
    },
    "notice": "Implements ERC-1155 standard for trait tokens, and provides Dutch Auction functionality for initial trait sales",
    "version": 1
  },
  "storageLayout": {
    "storage": [
      {
        "astId": 3765,
        "contract": "contracts/Traits.sol:Traits",
        "label": "_defaultRoyaltyInfo",
        "offset": 0,
        "slot": "0",
        "type": "t_struct(RoyaltyInfo)3762_storage"
      },
      {
        "astId": 3770,
        "contract": "contracts/Traits.sol:Traits",
        "label": "_tokenRoyaltyInfo",
        "offset": 0,
        "slot": "1",
        "type": "t_mapping(t_uint256,t_struct(RoyaltyInfo)3762_storage)"
      },
      {
        "astId": 630,
        "contract": "contracts/Traits.sol:Traits",
        "label": "_balances",
        "offset": 0,
        "slot": "2",
        "type": "t_mapping(t_uint256,t_mapping(t_address,t_uint256))"
      },
      {
        "astId": 636,
        "contract": "contracts/Traits.sol:Traits",
        "label": "_operatorApprovals",
        "offset": 0,
        "slot": "3",
        "type": "t_mapping(t_address,t_mapping(t_address,t_bool))"
      },
      {
        "astId": 638,
        "contract": "contracts/Traits.sol:Traits",
        "label": "_uri",
        "offset": 0,
        "slot": "4",
        "type": "t_string_storage"
      },
      {
        "astId": 2000,
        "contract": "contracts/Traits.sol:Traits",
        "label": "_totalSupply",
        "offset": 0,
        "slot": "5",
        "type": "t_mapping(t_uint256,t_uint256)"
      },
      {
        "astId": 7,
        "contract": "contracts/Traits.sol:Traits",
        "label": "_owner",
        "offset": 0,
        "slot": "6",
        "type": "t_address"
      },
      {
        "astId": 149,
        "contract": "contracts/Traits.sol:Traits",
        "label": "_totalShares",
        "offset": 0,
        "slot": "7",
        "type": "t_uint256"
      },
      {
        "astId": 151,
        "contract": "contracts/Traits.sol:Traits",
        "label": "_totalReleased",
        "offset": 0,
        "slot": "8",
        "type": "t_uint256"
      },
      {
        "astId": 155,
        "contract": "contracts/Traits.sol:Traits",
        "label": "_shares",
        "offset": 0,
        "slot": "9",
        "type": "t_mapping(t_address,t_uint256)"
      },
      {
        "astId": 159,
        "contract": "contracts/Traits.sol:Traits",
        "label": "_released",
        "offset": 0,
        "slot": "10",
        "type": "t_mapping(t_address,t_uint256)"
      },
      {
        "astId": 162,
        "contract": "contracts/Traits.sol:Traits",
        "label": "_payees",
        "offset": 0,
        "slot": "11",
        "type": "t_array(t_address)dyn_storage"
      },
      {
        "astId": 167,
        "contract": "contracts/Traits.sol:Traits",
        "label": "_erc20TotalReleased",
        "offset": 0,
        "slot": "12",
        "type": "t_mapping(t_contract(IERC20)2325,t_uint256)"
      },
      {
        "astId": 174,
        "contract": "contracts/Traits.sol:Traits",
        "label": "_erc20Released",
        "offset": 0,
        "slot": "13",
        "type": "t_mapping(t_contract(IERC20)2325,t_mapping(t_address,t_uint256))"
      },
      {
        "astId": 6312,
        "contract": "contracts/Traits.sol:Traits",
        "label": "artwork",
        "offset": 0,
        "slot": "14",
        "type": "t_contract(IArtwork)7436"
      },
      {
        "astId": 6314,
        "contract": "contracts/Traits.sol:Traits",
        "label": "royaltySplitter",
        "offset": 0,
        "slot": "15",
        "type": "t_address"
      },
      {
        "astId": 6319,
        "contract": "contracts/Traits.sol:Traits",
        "label": "auctionStartTime",
        "offset": 0,
        "slot": "16",
        "type": "t_uint256"
      },
      {
        "astId": 6321,
        "contract": "contracts/Traits.sol:Traits",
        "label": "auctionEndTime",
        "offset": 0,
        "slot": "17",
        "type": "t_uint256"
      },
      {
        "astId": 6323,
        "contract": "contracts/Traits.sol:Traits",
        "label": "auctionStartPrice",
        "offset": 0,
        "slot": "18",
        "type": "t_uint256"
      },
      {
        "astId": 6325,
        "contract": "contracts/Traits.sol:Traits",
        "label": "auctionEndPrice",
        "offset": 0,
        "slot": "19",
        "type": "t_uint256"
      },
      {
        "astId": 6327,
        "contract": "contracts/Traits.sol:Traits",
        "label": "traitsSaleStartTime",
        "offset": 0,
        "slot": "20",
        "type": "t_uint256"
      },
      {
        "astId": 6331,
        "contract": "contracts/Traits.sol:Traits",
        "label": "_traitTypes",
        "offset": 0,
        "slot": "21",
        "type": "t_array(t_struct(TraitType)7495_storage)dyn_storage"
      },
      {
        "astId": 6335,
        "contract": "contracts/Traits.sol:Traits",
        "label": "_traits",
        "offset": 0,
        "slot": "22",
        "type": "t_array(t_struct(Trait)7504_storage)dyn_storage"
      }
    ],
    "types": {
      "t_address": {
        "encoding": "inplace",
        "label": "address",
        "numberOfBytes": "20"
      },
      "t_array(t_address)dyn_storage": {
        "base": "t_address",
        "encoding": "dynamic_array",
        "label": "address[]",
        "numberOfBytes": "32"
      },
      "t_array(t_struct(Trait)7504_storage)dyn_storage": {
        "base": "t_struct(Trait)7504_storage",
        "encoding": "dynamic_array",
        "label": "struct ITraits.Trait[]",
        "numberOfBytes": "32"
      },
      "t_array(t_struct(TraitType)7495_storage)dyn_storage": {
        "base": "t_struct(TraitType)7495_storage",
        "encoding": "dynamic_array",
        "label": "struct ITraits.TraitType[]",
        "numberOfBytes": "32"
      },
      "t_bool": {
        "encoding": "inplace",
        "label": "bool",
        "numberOfBytes": "1"
      },
      "t_contract(IArtwork)7436": {
        "encoding": "inplace",
        "label": "contract IArtwork",
        "numberOfBytes": "20"
      },
      "t_contract(IERC20)2325": {
        "encoding": "inplace",
        "label": "contract IERC20",
        "numberOfBytes": "20"
      },
      "t_mapping(t_address,t_bool)": {
        "encoding": "mapping",
        "key": "t_address",
        "label": "mapping(address => bool)",
        "numberOfBytes": "32",
        "value": "t_bool"
      },
      "t_mapping(t_address,t_mapping(t_address,t_bool))": {
        "encoding": "mapping",
        "key": "t_address",
        "label": "mapping(address => mapping(address => bool))",
        "numberOfBytes": "32",
        "value": "t_mapping(t_address,t_bool)"
      },
      "t_mapping(t_address,t_uint256)": {
        "encoding": "mapping",
        "key": "t_address",
        "label": "mapping(address => uint256)",
        "numberOfBytes": "32",
        "value": "t_uint256"
      },
      "t_mapping(t_contract(IERC20)2325,t_mapping(t_address,t_uint256))": {
        "encoding": "mapping",
        "key": "t_contract(IERC20)2325",
        "label": "mapping(contract IERC20 => mapping(address => uint256))",
        "numberOfBytes": "32",
        "value": "t_mapping(t_address,t_uint256)"
      },
      "t_mapping(t_contract(IERC20)2325,t_uint256)": {
        "encoding": "mapping",
        "key": "t_contract(IERC20)2325",
        "label": "mapping(contract IERC20 => uint256)",
        "numberOfBytes": "32",
        "value": "t_uint256"
      },
      "t_mapping(t_uint256,t_mapping(t_address,t_uint256))": {
        "encoding": "mapping",
        "key": "t_uint256",
        "label": "mapping(uint256 => mapping(address => uint256))",
        "numberOfBytes": "32",
        "value": "t_mapping(t_address,t_uint256)"
      },
      "t_mapping(t_uint256,t_struct(RoyaltyInfo)3762_storage)": {
        "encoding": "mapping",
        "key": "t_uint256",
        "label": "mapping(uint256 => struct ERC2981.RoyaltyInfo)",
        "numberOfBytes": "32",
        "value": "t_struct(RoyaltyInfo)3762_storage"
      },
      "t_mapping(t_uint256,t_uint256)": {
        "encoding": "mapping",
        "key": "t_uint256",
        "label": "mapping(uint256 => uint256)",
        "numberOfBytes": "32",
        "value": "t_uint256"
      },
      "t_string_storage": {
        "encoding": "bytes",
        "label": "string",
        "numberOfBytes": "32"
      },
      "t_struct(RoyaltyInfo)3762_storage": {
        "encoding": "inplace",
        "label": "struct ERC2981.RoyaltyInfo",
        "members": [
          {
            "astId": 3759,
            "contract": "contracts/Traits.sol:Traits",
            "label": "receiver",
            "offset": 0,
            "slot": "0",
            "type": "t_address"
          },
          {
            "astId": 3761,
            "contract": "contracts/Traits.sol:Traits",
            "label": "royaltyFraction",
            "offset": 20,
            "slot": "0",
            "type": "t_uint96"
          }
        ],
        "numberOfBytes": "32"
      },
      "t_struct(Trait)7504_storage": {
        "encoding": "inplace",
        "label": "struct ITraits.Trait",
        "members": [
          {
            "astId": 7497,
            "contract": "contracts/Traits.sol:Traits",
            "label": "name",
            "offset": 0,
            "slot": "0",
            "type": "t_string_storage"
          },
          {
            "astId": 7499,
            "contract": "contracts/Traits.sol:Traits",
            "label": "value",
            "offset": 0,
            "slot": "1",
            "type": "t_string_storage"
          },
          {
            "astId": 7501,
            "contract": "contracts/Traits.sol:Traits",
            "label": "typeIndex",
            "offset": 0,
            "slot": "2",
            "type": "t_uint256"
          },
          {
            "astId": 7503,
            "contract": "contracts/Traits.sol:Traits",
            "label": "maxSupply",
            "offset": 0,
            "slot": "3",
            "type": "t_uint256"
          }
        ],
        "numberOfBytes": "128"
      },
      "t_struct(TraitType)7495_storage": {
        "encoding": "inplace",
        "label": "struct ITraits.TraitType",
        "members": [
          {
            "astId": 7492,
            "contract": "contracts/Traits.sol:Traits",
            "label": "name",
            "offset": 0,
            "slot": "0",
            "type": "t_string_storage"
          },
          {
            "astId": 7494,
            "contract": "contracts/Traits.sol:Traits",
            "label": "value",
            "offset": 0,
            "slot": "1",
            "type": "t_string_storage"
          }
        ],
        "numberOfBytes": "64"
      },
      "t_uint256": {
        "encoding": "inplace",
        "label": "uint256",
        "numberOfBytes": "32"
      },
      "t_uint96": {
        "encoding": "inplace",
        "label": "uint96",
        "numberOfBytes": "12"
      }
    }
  }
}