{
  "address": "0x34F997d1CEeA7b2DB6eB7Cafe5fDDe68C3B753FA",
  "abi": [
    {
      "inputs": [
        {
          "internalType": "address",
          "name": "_artwork",
          "type": "address"
        },
        {
          "internalType": "string",
          "name": "_uri",
          "type": "string"
        },
        {
          "internalType": "address",
          "name": "_owner",
          "type": "address"
        },
        {
          "internalType": "address payable",
          "name": "_platformRevenueClaimer",
          "type": "address"
        },
        {
          "internalType": "address payable",
          "name": "_artistRevenueClaimer",
          "type": "address"
        }
      ],
      "stateMutability": "nonpayable",
      "type": "constructor"
    },
    {
      "inputs": [],
      "name": "AuctionNotLive",
      "type": "error"
    },
    {
      "inputs": [],
      "name": "InvalidArrayLengths",
      "type": "error"
    },
    {
      "inputs": [],
      "name": "InvalidAuction",
      "type": "error"
    },
    {
      "inputs": [],
      "name": "InvalidEthAmount",
      "type": "error"
    },
    {
      "inputs": [],
      "name": "InvalidTraits",
      "type": "error"
    },
    {
      "inputs": [],
      "name": "Locked",
      "type": "error"
    },
    {
      "inputs": [],
      "name": "MaxSupply",
      "type": "error"
    },
    {
      "inputs": [],
      "name": "NoRevenue",
      "type": "error"
    },
    {
      "inputs": [],
      "name": "NotLocked",
      "type": "error"
    },
    {
      "inputs": [],
      "name": "OnlyArtwork",
      "type": "error"
    },
    {
      "inputs": [],
      "name": "OnlyClaimer",
      "type": "error"
    },
    {
      "anonymous": false,
      "inputs": [
        {
          "indexed": true,
          "internalType": "address",
          "name": "account",
          "type": "address"
        },
        {
          "indexed": true,
          "internalType": "address",
          "name": "operator",
          "type": "address"
        },
        {
          "indexed": false,
          "internalType": "bool",
          "name": "approved",
          "type": "bool"
        }
      ],
      "name": "ApprovalForAll",
      "type": "event"
    },
    {
      "anonymous": false,
      "inputs": [
        {
          "indexed": false,
          "internalType": "uint256",
          "name": "claimedRevenue",
          "type": "uint256"
        }
      ],
      "name": "ArtistRevenueClaimed",
      "type": "event"
    },
    {
      "anonymous": false,
      "inputs": [
        {
          "indexed": true,
          "internalType": "address",
          "name": "claimer",
          "type": "address"
        }
      ],
      "name": "ArtistRevenueClaimerUpdated",
      "type": "event"
    },
    {
      "anonymous": false,
      "inputs": [
        {
          "indexed": true,
          "internalType": "address",
          "name": "previousOwner",
          "type": "address"
        },
        {
          "indexed": true,
          "internalType": "address",
          "name": "newOwner",
          "type": "address"
        }
      ],
      "name": "OwnershipTransferred",
      "type": "event"
    },
    {
      "anonymous": false,
      "inputs": [
        {
          "indexed": false,
          "internalType": "uint256",
          "name": "claimedRevenue",
          "type": "uint256"
        }
      ],
      "name": "PlatformRevenueClaimed",
      "type": "event"
    },
    {
      "anonymous": false,
      "inputs": [
        {
          "indexed": true,
          "internalType": "address",
          "name": "claimer",
          "type": "address"
        }
      ],
      "name": "PlatormRevenueClaimerUpdated",
      "type": "event"
    },
    {
      "anonymous": false,
      "inputs": [
        {
          "indexed": true,
          "internalType": "address",
          "name": "recipient",
          "type": "address"
        },
        {
          "indexed": false,
          "internalType": "uint256[]",
          "name": "traitTokenIds",
          "type": "uint256[]"
        },
        {
          "indexed": false,
          "internalType": "uint256[]",
          "name": "traitQuantities",
          "type": "uint256[]"
        }
      ],
      "name": "TraitsBought",
      "type": "event"
    },
    {
      "anonymous": false,
      "inputs": [
        {
          "indexed": true,
          "internalType": "address",
          "name": "operator",
          "type": "address"
        },
        {
          "indexed": true,
          "internalType": "address",
          "name": "from",
          "type": "address"
        },
        {
          "indexed": true,
          "internalType": "address",
          "name": "to",
          "type": "address"
        },
        {
          "indexed": false,
          "internalType": "uint256[]",
          "name": "ids",
          "type": "uint256[]"
        },
        {
          "indexed": false,
          "internalType": "uint256[]",
          "name": "values",
          "type": "uint256[]"
        }
      ],
      "name": "TransferBatch",
      "type": "event"
    },
    {
      "anonymous": false,
      "inputs": [
        {
          "indexed": true,
          "internalType": "address",
          "name": "operator",
          "type": "address"
        },
        {
          "indexed": true,
          "internalType": "address",
          "name": "from",
          "type": "address"
        },
        {
          "indexed": true,
          "internalType": "address",
          "name": "to",
          "type": "address"
        },
        {
          "indexed": false,
          "internalType": "uint256",
          "name": "id",
          "type": "uint256"
        },
        {
          "indexed": false,
          "internalType": "uint256",
          "name": "value",
          "type": "uint256"
        }
      ],
      "name": "TransferSingle",
      "type": "event"
    },
    {
      "anonymous": false,
      "inputs": [
        {
          "indexed": false,
          "internalType": "string",
          "name": "value",
          "type": "string"
        },
        {
          "indexed": true,
          "internalType": "uint256",
          "name": "id",
          "type": "uint256"
        }
      ],
      "name": "URI",
      "type": "event"
    },
    {
      "inputs": [],
      "name": "AUCTION_PLATFORM_FEE_NUMERATOR",
      "outputs": [
        {
          "internalType": "uint256",
          "name": "",
          "type": "uint256"
        }
      ],
      "stateMutability": "view",
      "type": "function"
    },
    {
      "inputs": [],
      "name": "FEE_DENOMINATOR",
      "outputs": [
        {
          "internalType": "uint256",
          "name": "",
          "type": "uint256"
        }
      ],
      "stateMutability": "view",
      "type": "function"
    },
    {
      "inputs": [],
      "name": "VERSION",
      "outputs": [
        {
          "internalType": "string",
          "name": "",
          "type": "string"
        }
      ],
      "stateMutability": "view",
      "type": "function"
    },
    {
      "inputs": [],
      "name": "artistClaimableRevenues",
      "outputs": [
        {
          "internalType": "uint256",
          "name": "",
          "type": "uint256"
        }
      ],
      "stateMutability": "view",
      "type": "function"
    },
    {
      "inputs": [],
      "name": "artistRevenueClaimer",
      "outputs": [
        {
          "internalType": "address payable",
          "name": "",
          "type": "address"
        }
      ],
      "stateMutability": "view",
      "type": "function"
    },
    {
      "inputs": [],
      "name": "artwork",
      "outputs": [
        {
          "internalType": "contract IArtwork",
          "name": "",
          "type": "address"
        }
      ],
      "stateMutability": "view",
      "type": "function"
    },
    {
      "inputs": [],
      "name": "auctionEndPrice",
      "outputs": [
        {
          "internalType": "uint256",
          "name": "",
          "type": "uint256"
        }
      ],
      "stateMutability": "view",
      "type": "function"
    },
    {
      "inputs": [],
      "name": "auctionEndTime",
      "outputs": [
        {
          "internalType": "uint256",
          "name": "",
          "type": "uint256"
        }
      ],
      "stateMutability": "view",
      "type": "function"
    },
    {
      "inputs": [],
      "name": "auctionStartPrice",
      "outputs": [
        {
          "internalType": "uint256",
          "name": "",
          "type": "uint256"
        }
      ],
      "stateMutability": "view",
      "type": "function"
    },
    {
      "inputs": [],
      "name": "auctionStartTime",
      "outputs": [
        {
          "internalType": "uint256",
          "name": "",
          "type": "uint256"
        }
      ],
      "stateMutability": "view",
      "type": "function"
    },
    {
      "inputs": [
        {
          "internalType": "address",
          "name": "account",
          "type": "address"
        },
        {
          "internalType": "uint256",
          "name": "id",
          "type": "uint256"
        }
      ],
      "name": "balanceOf",
      "outputs": [
        {
          "internalType": "uint256",
          "name": "",
          "type": "uint256"
        }
      ],
      "stateMutability": "view",
      "type": "function"
    },
    {
      "inputs": [
        {
          "internalType": "address[]",
          "name": "accounts",
          "type": "address[]"
        },
        {
          "internalType": "uint256[]",
          "name": "ids",
          "type": "uint256[]"
        }
      ],
      "name": "balanceOfBatch",
      "outputs": [
        {
          "internalType": "uint256[]",
          "name": "",
          "type": "uint256[]"
        }
      ],
      "stateMutability": "view",
      "type": "function"
    },
    {
      "inputs": [
        {
          "internalType": "address",
          "name": "_recipient",
          "type": "address"
        },
        {
          "internalType": "uint256[]",
          "name": "_traitTokenIds",
          "type": "uint256[]"
        },
        {
          "internalType": "uint256[]",
          "name": "_traitAmounts",
          "type": "uint256[]"
        }
      ],
      "name": "buyTraits",
      "outputs": [],
      "stateMutability": "payable",
      "type": "function"
    },
    {
      "inputs": [],
      "name": "claimArtistRevenue",
      "outputs": [],
      "stateMutability": "nonpayable",
      "type": "function"
    },
    {
      "inputs": [],
      "name": "claimPlatformRevenue",
      "outputs": [],
      "stateMutability": "nonpayable",
      "type": "function"
    },
    {
      "inputs": [
        {
          "internalType": "string[]",
          "name": "_traitTypeNames",
          "type": "string[]"
        },
        {
          "internalType": "string[]",
          "name": "_traitTypeValues",
          "type": "string[]"
        },
        {
          "internalType": "string[]",
          "name": "_traitNames",
          "type": "string[]"
        },
        {
          "internalType": "string[]",
          "name": "_traitValues",
          "type": "string[]"
        },
        {
          "internalType": "uint256[]",
          "name": "_traitTypeIndexes",
          "type": "uint256[]"
        },
        {
          "internalType": "uint256[]",
          "name": "_traitMaxSupplys",
          "type": "uint256[]"
        }
      ],
      "name": "createTraitsAndTypes",
      "outputs": [],
      "stateMutability": "nonpayable",
      "type": "function"
    },
    {
      "inputs": [
        {
          "internalType": "uint256",
          "name": "id",
          "type": "uint256"
        }
      ],
      "name": "exists",
      "outputs": [
        {
          "internalType": "bool",
          "name": "",
          "type": "bool"
        }
      ],
      "stateMutability": "view",
      "type": "function"
    },
    {
      "inputs": [
        {
          "internalType": "address",
          "name": "account",
          "type": "address"
        },
        {
          "internalType": "address",
          "name": "operator",
          "type": "address"
        }
      ],
      "name": "isApprovedForAll",
      "outputs": [
        {
          "internalType": "bool",
          "name": "",
          "type": "bool"
        }
      ],
      "stateMutability": "view",
      "type": "function"
    },
    {
      "inputs": [
        {
          "internalType": "uint256",
          "name": "_tokenId",
          "type": "uint256"
        }
      ],
      "name": "maxSupply",
      "outputs": [
        {
          "internalType": "uint256",
          "name": "_maxSupply",
          "type": "uint256"
        }
      ],
      "stateMutability": "view",
      "type": "function"
    },
    {
      "inputs": [],
      "name": "owner",
      "outputs": [
        {
          "internalType": "address",
          "name": "",
          "type": "address"
        }
      ],
      "stateMutability": "view",
      "type": "function"
    },
    {
      "inputs": [],
      "name": "platformClaimableRevenues",
      "outputs": [
        {
          "internalType": "uint256",
          "name": "",
          "type": "uint256"
        }
      ],
      "stateMutability": "view",
      "type": "function"
    },
    {
      "inputs": [],
      "name": "platformRevenueClaimer",
      "outputs": [
        {
          "internalType": "address payable",
          "name": "",
          "type": "address"
        }
      ],
      "stateMutability": "view",
      "type": "function"
    },
    {
      "inputs": [],
      "name": "renounceOwnership",
      "outputs": [],
      "stateMutability": "nonpayable",
      "type": "function"
    },
    {
      "inputs": [
        {
          "internalType": "address",
          "name": "from",
          "type": "address"
        },
        {
          "internalType": "address",
          "name": "to",
          "type": "address"
        },
        {
          "internalType": "uint256[]",
          "name": "ids",
          "type": "uint256[]"
        },
        {
          "internalType": "uint256[]",
          "name": "amounts",
          "type": "uint256[]"
        },
        {
          "internalType": "bytes",
          "name": "data",
          "type": "bytes"
        }
      ],
      "name": "safeBatchTransferFrom",
      "outputs": [],
      "stateMutability": "nonpayable",
      "type": "function"
    },
    {
      "inputs": [
        {
          "internalType": "address",
          "name": "from",
          "type": "address"
        },
        {
          "internalType": "address",
          "name": "to",
          "type": "address"
        },
        {
          "internalType": "uint256",
          "name": "id",
          "type": "uint256"
        },
        {
          "internalType": "uint256",
          "name": "amount",
          "type": "uint256"
        },
        {
          "internalType": "bytes",
          "name": "data",
          "type": "bytes"
        }
      ],
      "name": "safeTransferFrom",
      "outputs": [],
      "stateMutability": "nonpayable",
      "type": "function"
    },
    {
      "inputs": [
        {
          "internalType": "uint256",
          "name": "_auctionStartTime",
          "type": "uint256"
        },
        {
          "internalType": "uint256",
          "name": "_auctionEndTime",
          "type": "uint256"
        },
        {
          "internalType": "uint256",
          "name": "_auctionStartPrice",
          "type": "uint256"
        },
        {
          "internalType": "uint256",
          "name": "_auctionEndPrice",
          "type": "uint256"
        }
      ],
      "name": "scheduleAuction",
      "outputs": [],
      "stateMutability": "nonpayable",
      "type": "function"
    },
    {
      "inputs": [
        {
          "internalType": "address",
          "name": "operator",
          "type": "address"
        },
        {
          "internalType": "bool",
          "name": "approved",
          "type": "bool"
        }
      ],
      "name": "setApprovalForAll",
      "outputs": [],
      "stateMutability": "nonpayable",
      "type": "function"
    },
    {
      "inputs": [
        {
          "internalType": "bytes4",
          "name": "interfaceId",
          "type": "bytes4"
        }
      ],
      "name": "supportsInterface",
      "outputs": [
        {
          "internalType": "bool",
          "name": "",
          "type": "bool"
        }
      ],
      "stateMutability": "view",
      "type": "function"
    },
    {
      "inputs": [
        {
          "internalType": "uint256",
          "name": "id",
          "type": "uint256"
        }
      ],
      "name": "totalSupply",
      "outputs": [
        {
          "internalType": "uint256",
          "name": "",
          "type": "uint256"
        }
      ],
      "stateMutability": "view",
      "type": "function"
    },
    {
      "inputs": [
        {
          "internalType": "uint256",
          "name": "_tokenId",
          "type": "uint256"
        }
      ],
      "name": "trait",
      "outputs": [
        {
          "internalType": "string",
          "name": "_traitName",
          "type": "string"
        },
        {
          "internalType": "string",
          "name": "_traitValue",
          "type": "string"
        },
        {
          "internalType": "string",
          "name": "_traitTypeName",
          "type": "string"
        },
        {
          "internalType": "string",
          "name": "_traitTypeValue",
          "type": "string"
        }
      ],
      "stateMutability": "view",
      "type": "function"
    },
    {
      "inputs": [],
      "name": "traitPrice",
      "outputs": [
        {
          "internalType": "uint256",
          "name": "_price",
          "type": "uint256"
        }
      ],
      "stateMutability": "view",
      "type": "function"
    },
    {
      "inputs": [],
      "name": "traitTypes",
      "outputs": [
        {
          "internalType": "string[]",
          "name": "_traitTypeNames",
          "type": "string[]"
        },
        {
          "internalType": "string[]",
          "name": "_traitTypeValues",
          "type": "string[]"
        }
      ],
      "stateMutability": "view",
      "type": "function"
    },
    {
      "inputs": [],
      "name": "traits",
      "outputs": [
        {
          "internalType": "uint256[]",
          "name": "_traitTokenIds",
          "type": "uint256[]"
        },
        {
          "internalType": "string[]",
          "name": "_traitNames",
          "type": "string[]"
        },
        {
          "internalType": "string[]",
          "name": "_traitValues",
          "type": "string[]"
        },
        {
          "internalType": "uint256[]",
          "name": "_traitTypeIndexes",
          "type": "uint256[]"
        },
        {
          "internalType": "string[]",
          "name": "_traitTypeNames",
          "type": "string[]"
        },
        {
          "internalType": "string[]",
          "name": "_traitTypeValues",
          "type": "string[]"
        },
        {
          "internalType": "uint256[]",
          "name": "_traitTotalSupplys",
          "type": "uint256[]"
        },
        {
          "internalType": "uint256[]",
          "name": "_traitMaxSupplys",
          "type": "uint256[]"
        }
      ],
      "stateMutability": "view",
      "type": "function"
    },
    {
      "inputs": [
        {
          "internalType": "address",
          "name": "newOwner",
          "type": "address"
        }
      ],
      "name": "transferOwnership",
      "outputs": [],
      "stateMutability": "nonpayable",
      "type": "function"
    },
    {
      "inputs": [
        {
          "internalType": "address",
          "name": "_caller",
          "type": "address"
        },
        {
          "internalType": "uint256[]",
          "name": "_traitTokenIds",
          "type": "uint256[]"
        }
      ],
      "name": "transferTraitsToCreateArtwork",
      "outputs": [],
      "stateMutability": "nonpayable",
      "type": "function"
    },
    {
      "inputs": [
        {
          "internalType": "address payable",
          "name": "_claimer",
          "type": "address"
        }
      ],
      "name": "updateArtistRevenueClaimer",
      "outputs": [],
      "stateMutability": "nonpayable",
      "type": "function"
    },
    {
      "inputs": [
        {
          "internalType": "address payable",
          "name": "_claimer",
          "type": "address"
        }
      ],
      "name": "updatePlatformRevenueClaimer",
      "outputs": [],
      "stateMutability": "nonpayable",
      "type": "function"
    },
    {
      "inputs": [
        {
          "internalType": "string",
          "name": "_uri",
          "type": "string"
        }
      ],
      "name": "updateURI",
      "outputs": [],
      "stateMutability": "nonpayable",
      "type": "function"
    },
    {
      "inputs": [
        {
          "internalType": "uint256",
          "name": "",
          "type": "uint256"
        }
      ],
      "name": "uri",
      "outputs": [
        {
          "internalType": "string",
          "name": "",
          "type": "string"
        }
      ],
      "stateMutability": "view",
      "type": "function"
    }
  ],
  "transactionHash": "0x71de34fae887d43a4cd1c5ae25c881e459ddd0654e6636382ec3a3cf9ecffd03",
  "args": [
    "0x720dD5E7204ea16FbE4C20D4BD4fEDe84119cF96",
    "https://api.intrinsic.art/",
    "0xAa9D46AE079851116967c6573f961B304095C34a",
    "0xAa9D46AE079851116967c6573f961B304095C34a",
    "0xAa9D46AE079851116967c6573f961B304095C34a"
  ],
  "numDeployments": 1,
  "solcInputHash": "114350186cf03c9b9ad1294b38248170",
  "bytecode": "0x60806040523480156200001157600080fd5b50604051620042f0380380620042f083398101604081905262000034916200014d565b836200004081620000a8565b506200004c33620000ba565b600580546001600160a01b0319166001600160a01b0387161790556200007283620000ba565b600680546001600160a01b039384166001600160a01b0319918216179091556007805492909316911617905550620003cb915050565b6002620000b68282620002ff565b5050565b600480546001600160a01b038381166001600160a01b0319831681179093556040519116919082907f8be0079c531659141344cd1fd0a4f28419497f9722a3daafe3b4186f6b6457e090600090a35050565b6001600160a01b03811681146200012257600080fd5b50565b805162000132816200010c565b919050565b634e487b7160e01b600052604160045260246000fd5b600080600080600060a086880312156200016657600080fd5b855162000173816200010c565b602087810151919650906001600160401b03808211156200019357600080fd5b818901915089601f830112620001a857600080fd5b815181811115620001bd57620001bd62000137565b604051601f8201601f19908116603f01168101908382118183101715620001e857620001e862000137565b816040528281528c868487010111156200020157600080fd5b600093505b8284101562000225578484018601518185018701529285019262000206565b6000868483010152809950505050505050620002446040870162000125565b9250620002546060870162000125565b9150620002646080870162000125565b90509295509295909350565b600181811c908216806200028557607f821691505b602082108103620002a657634e487b7160e01b600052602260045260246000fd5b50919050565b601f821115620002fa57600081815260208120601f850160051c81016020861015620002d55750805b601f850160051c820191505b81811015620002f657828155600101620002e1565b5050505b505050565b81516001600160401b038111156200031b576200031b62000137565b62000333816200032c845462000270565b84620002ac565b602080601f8311600181146200036b5760008415620003525750858301515b600019600386901b1c1916600185901b178555620002f6565b600085815260208120601f198616915b828110156200039c578886015182559484019460019091019084016200037b565b5085821015620003bb5787850151600019600388901b60f8161c191681555b5050505050600190811b01905550565b613f1580620003db6000396000f3fe60806040526004361061029e5760003560e01c80638da5cb5b1161016e578063d73792a9116100cb578063eb54f9ec1161007f578063f2fde38b11610064578063f2fde38b14610742578063f3457fdf14610762578063ffa1ad741461079257600080fd5b8063eb54f9ec1461070c578063f242432a1461072257600080fd5b8063da79dbe6116100b0578063da79dbe61461067a578063e1fc334f1461069a578063e985e9c5146106c357600080fd5b8063d73792a91461064d578063d756985b1461066457600080fd5b8063a713b02911610122578063bcfbb61111610107578063bcfbb611146105ea578063bd85b03914610600578063c30f4a5a1461062d57600080fd5b8063a713b029146105b5578063ab50d2cf146105ca57600080fd5b80638ff168fc116101535780638ff168fc1461055f578063a04a6ac81461057f578063a22cb4651461059557600080fd5b80638da5cb5b1461052c5780638ecd89551461054a57600080fd5b80632eb2c2d61161021c57806363539063116101d0578063715018a6116101b5578063715018a6146104e45780637bedfac0146104f9578063869f75941461050c57600080fd5b806363539063146104ad5780636cb80117146104c457600080fd5b80634e1273f4116102015780634e1273f4146104315780634f558e791461045e578063626661fc1461048d57600080fd5b80632eb2c2d6146103fb5780634b449cba1461041b57600080fd5b806302afd1a1116102735780630e89341c116102585780630e89341c146103735780631f0a595b146103a057806326cc133e146103c357600080fd5b806302afd1a11461033d5780630bdc21cb1461035d57600080fd5b8062a9bb01146102a3578062fdd58e146102cb57806301c8aa4b146102eb57806301ffc9a71461030d575b600080fd5b3480156102af57600080fd5b506102b86107db565b6040519081526020015b60405180910390f35b3480156102d757600080fd5b506102b86102e6366004613103565b61087e565b3480156102f757600080fd5b5061030b6103063660046132ec565b61092a565b005b34801561031957600080fd5b5061032d610328366004613412565b610c50565b60405190151581526020016102c2565b34801561034957600080fd5b5061030b610358366004613436565b610ceb565b34801561036957600080fd5b506102b860085481565b34801561037f57600080fd5b5061039361038e36600461348b565b610ea9565b6040516102c291906134ea565b3480156103ac57600080fd5b506103b5610f3d565b6040516102c2929190613552565b3480156103cf57600080fd5b506005546103e3906001600160a01b031681565b6040516001600160a01b0390911681526020016102c2565b34801561040757600080fd5b5061030b6104163660046135e6565b611190565b34801561042757600080fd5b506102b8600b5481565b34801561043d57600080fd5b5061045161044c366004613694565b611232565b6040516102c2919061379c565b34801561046a57600080fd5b5061032d61047936600461348b565b600090815260036020526040902054151590565b34801561049957600080fd5b506006546103e3906001600160a01b031681565b3480156104b957600080fd5b506102b8620186a081565b3480156104d057600080fd5b5061030b6104df3660046137af565b611370565b3480156104f057600080fd5b5061030b61147d565b61030b6105073660046137e1565b611491565b34801561051857600080fd5b506102b861052736600461348b565b61172d565b34801561053857600080fd5b506004546001600160a01b03166103e3565b34801561055657600080fd5b5061030b61175b565b34801561056b57600080fd5b506007546103e3906001600160a01b031681565b34801561058b57600080fd5b506102b8600d5481565b3480156105a157600080fd5b5061030b6105b0366004613872565b611821565b3480156105c157600080fd5b5061030b61182c565b3480156105d657600080fd5b5061030b6105e53660046138ab565b6118ee565b3480156105f657600080fd5b506102b860095481565b34801561060c57600080fd5b506102b861061b36600461348b565b60009081526003602052604090205490565b34801561063957600080fd5b5061030b6106483660046138c8565b611948565b34801561065957600080fd5b506102b8620f424081565b34801561067057600080fd5b506102b8600c5481565b34801561068657600080fd5b5061030b6106953660046138ab565b61195c565b3480156106a657600080fd5b506106af611993565b6040516102c2989796959493929190613905565b3480156106cf57600080fd5b5061032d6106de3660046139b4565b6001600160a01b03918216600090815260016020908152604080832093909416825291909152205460ff1690565b34801561071857600080fd5b506102b8600a5481565b34801561072e57600080fd5b5061030b61073d3660046139e2565b612060565b34801561074e57600080fd5b5061030b61075d3660046138ab565b6120fb565b34801561076e57600080fd5b5061078261077d36600461348b565b612188565b6040516102c29493929190613a4b565b34801561079e57600080fd5b506103936040518060400160405280600581526020017f312e302e3000000000000000000000000000000000000000000000000000000081525081565b6000600a54421015610819576040517f58fd8d1100000000000000000000000000000000000000000000000000000000815260040160405180910390fd5b600b5442111561082a5750600d5490565b600a54600b5461083a9190613ab9565b600d54600c5461084a9190613ab9565b600a546108579042613ab9565b6108619190613acc565b61086b9190613ae3565b600c546108789190613ab9565b90505b90565b60006001600160a01b0383166109015760405162461bcd60e51b815260206004820152602a60248201527f455243313135353a2061646472657373207a65726f206973206e6f742061207660448201527f616c6964206f776e65720000000000000000000000000000000000000000000060648201526084015b60405180910390fd5b506000818152602081815260408083206001600160a01b03861684529091529020545b92915050565b610932612499565b600560009054906101000a90046001600160a01b03166001600160a01b031663cf3090126040518163ffffffff1660e01b8152600401602060405180830381865afa158015610985573d6000803e3d6000fd5b505050506040513d601f19601f820116820180604052508101906109a99190613b05565b156109e0576040517f0f2e5b6c00000000000000000000000000000000000000000000000000000000815260040160405180910390fd5b895115806109ec575086155b806109f9575088518a5114155b80610a045750868514155b80610a0f5750868314155b80610a1a5750868114155b15610a385760405163a9854bc960e01b815260040160405180910390fd5b60005b8a51811015610ad857600e60405180604001604052808d8481518110610a6357610a63613b22565b602002602001015181526020018c8481518110610a8257610a82613b22565b6020908102919091018101519091528254600181018455600093845292208151919260020201908190610ab59082613bbd565b5060208201516001820190610aca9082613bbd565b505050806001019050610a3b565b5060005b87811015610c4357600f60405180608001604052808b8b85818110610b0357610b03613b22565b9050602002810190610b159190613c7d565b8080601f016020809104026020016040519081016040528093929190818152602001838380828437600092019190915250505090825250602001898985818110610b6157610b61613b22565b9050602002810190610b739190613c7d565b8080601f016020809104026020016040519081016040528093929190818152602001838380828437600092019190915250505090825250602001878785818110610bbf57610bbf613b22565b905060200201358152602001858585818110610bdd57610bdd613b22565b60209081029290920135909252835460018101855560009485529320825192936004020191829150610c0f9082613bbd565b5060208201516001820190610c249082613bbd565b5060408201516002820155606090910151600390910155600101610adc565b5050505050505050505050565b60006001600160e01b031982167fd9b67a26000000000000000000000000000000000000000000000000000000001480610cb357506001600160e01b031982167f0e89341c00000000000000000000000000000000000000000000000000000000145b8061092457507f01ffc9a7000000000000000000000000000000000000000000000000000000006001600160e01b0319831614610924565b6005546001600160a01b03163314610d2f576040517f6447134900000000000000000000000000000000000000000000000000000000815260040160405180910390fd5b600e548114610d515760405163a9854bc960e01b815260040160405180910390fd5b60008167ffffffffffffffff811115610d6c57610d6c61312f565b604051908082528060200260200182016040528015610d95578160200160208202803683370190505b50905060005b82811015610e3f5780600f858584818110610db857610db8613b22565b9050602002013581548110610dcf57610dcf613b22565b90600052602060002090600402016002015414610e18576040517fc886447400000000000000000000000000000000000000000000000000000000815260040160405180910390fd5b6001828281518110610e2c57610e2c613b22565b6020908102919091010152600101610d9b565b50610ea384600560009054906101000a90046001600160a01b03168585808060200260200160405190810160405280939291908181526020018383602002808284376000920182905250604080516020810190915290815288935091506124f39050565b50505050565b606060028054610eb890613b38565b80601f0160208091040260200160405190810160405280929190818152602001828054610ee490613b38565b8015610f315780601f10610f0657610100808354040283529160200191610f31565b820191906000526020600020905b815481529060010190602001808311610f1457829003601f168201915b50505050509050919050565b600e5460609081908067ffffffffffffffff811115610f5e57610f5e61312f565b604051908082528060200260200182016040528015610f9157816020015b6060815260200190600190039081610f7c5790505b5092508067ffffffffffffffff811115610fad57610fad61312f565b604051908082528060200260200182016040528015610fe057816020015b6060815260200190600190039081610fcb5790505b50915060005b8181101561118a57600e818154811061100157611001613b22565b9060005260206000209060020201600001805461101d90613b38565b80601f016020809104026020016040519081016040528092919081815260200182805461104990613b38565b80156110965780601f1061106b57610100808354040283529160200191611096565b820191906000526020600020905b81548152906001019060200180831161107957829003601f168201915b50505050508482815181106110ad576110ad613b22565b6020026020010181905250600e81815481106110cb576110cb613b22565b906000526020600020906002020160010180546110e790613b38565b80601f016020809104026020016040519081016040528092919081815260200182805461111390613b38565b80156111605780601f1061113557610100808354040283529160200191611160565b820191906000526020600020905b81548152906001019060200180831161114357829003601f168201915b505050505083828151811061117757611177613b22565b6020908102919091010152600101610fe6565b50509091565b6001600160a01b0385163314806111ac57506111ac85336106de565b61121e5760405162461bcd60e51b815260206004820152602e60248201527f455243313135353a2063616c6c6572206973206e6f7420746f6b656e206f776e60448201527f6572206f7220617070726f76656400000000000000000000000000000000000060648201526084016108f8565b61122b85858585856124f3565b5050505050565b606081518351146112ab5760405162461bcd60e51b815260206004820152602960248201527f455243313135353a206163636f756e747320616e6420696473206c656e67746860448201527f206d69736d61746368000000000000000000000000000000000000000000000060648201526084016108f8565b6000835167ffffffffffffffff8111156112c7576112c761312f565b6040519080825280602002602001820160405280156112f0578160200160208202803683370190505b50905060005b84518110156113685761133b85828151811061131457611314613b22565b602002602001015185838151811061132e5761132e613b22565b602002602001015161087e565b82828151811061134d5761134d613b22565b602090810291909101015261136181613cc4565b90506112f6565b509392505050565b611378612499565b600560009054906101000a90046001600160a01b03166001600160a01b031663cf3090126040518163ffffffff1660e01b8152600401602060405180830381865afa1580156113cb573d6000803e3d6000fd5b505050506040513d601f19601f820116820180604052508101906113ef9190613b05565b611425576040517f1834e26500000000000000000000000000000000000000000000000000000000815260040160405180910390fd5b8383108061143257508181115b15611469576040517f2156216000000000000000000000000000000000000000000000000000000000815260040160405180910390fd5b600a93909355600b91909155600c55600d55565b611485612499565b61148f600061275f565b565b8281146114b15760405163a9854bc960e01b815260040160405180910390fd5b6000806114bc6107db565b905060005b838110156115bd578484828181106114db576114db613b22565b90506020020135836114ed9190613cdd565b9250600f87878381811061150357611503613b22565b905060200201358154811061151a5761151a613b22565b90600052602060002090600402016003015485858381811061153e5761153e613b22565b9050602002013561157389898581811061155a5761155a613b22565b9050602002013560009081526003602052604090205490565b61157d9190613cdd565b11156115b5576040517fb36c128400000000000000000000000000000000000000000000000000000000815260040160405180910390fd5b6001016114c1565b5060006115ca8284613acc565b905080341015611606576040517f0772327b00000000000000000000000000000000000000000000000000000000815260040160405180910390fd5b6000620f4240611619620186a034613acc565b6116239190613ae3565b905080600960008282546116379190613cdd565b9091555061164790508134613ab9565b600860008282546116589190613cdd565b92505081905550886001600160a01b03167f5e69dace42908bf940c680c4fd1884a926e1e39b2c2a350d9a0b96eeed5d32a68989898960405161169e9493929190613d3b565b60405180910390a26117228989898080602002602001604051908101604052809392919081815260200183836020028082843760009201919091525050604080516020808d0282810182019093528c82529093508c92508b9182918501908490808284376000920182905250604080516020810190915290815292506127be915050565b505050505050505050565b6000600f828154811061174257611742613b22565b9060005260206000209060040201600301549050919050565b6006546001600160a01b0316331461178657604051630a34495360e01b815260040160405180910390fd5b60095460008190036117ab5760405163d55eb96360e01b815260040160405180910390fd5b60006009556040518181527f0c8d31947f98bc63af39d31a25af89c65e76f11fa8a8cd4edae335eee677b3cc9060200160405180910390a16006546040516001600160a01b039091169082156108fc029083906000818181858888f1935050505015801561181d573d6000803e3d6000fd5b5050565b61181d3383836129af565b6007546001600160a01b0316331461185757604051630a34495360e01b815260040160405180910390fd5b600854600081900361187c5760405163d55eb96360e01b815260040160405180910390fd5b60006008556040518181527fc63609f37f0a5e3a7ed2911284184dc6ba3a4b8bb831f1e1e469e1ca5dd52ed09060200160405180910390a16007546040516001600160a01b039091169082156108fc029083906000818181858888f1935050505015801561181d573d6000803e3d6000fd5b6007546001600160a01b0316331461191957604051630a34495360e01b815260040160405180910390fd5b6007805473ffffffffffffffffffffffffffffffffffffffff19166001600160a01b0392909216919091179055565b611950612499565b61195981612aa3565b50565b611964612499565b6006805473ffffffffffffffffffffffffffffffffffffffff19166001600160a01b0392909216919091179055565b6060806060806060806060806000600f8054905090508067ffffffffffffffff8111156119c2576119c261312f565b6040519080825280602002602001820160405280156119eb578160200160208202803683370190505b5098508067ffffffffffffffff811115611a0757611a0761312f565b604051908082528060200260200182016040528015611a3a57816020015b6060815260200190600190039081611a255790505b5097508067ffffffffffffffff811115611a5657611a5661312f565b604051908082528060200260200182016040528015611a8957816020015b6060815260200190600190039081611a745790505b5096508067ffffffffffffffff811115611aa557611aa561312f565b604051908082528060200260200182016040528015611ace578160200160208202803683370190505b5095508067ffffffffffffffff811115611aea57611aea61312f565b604051908082528060200260200182016040528015611b1d57816020015b6060815260200190600190039081611b085790505b5094508067ffffffffffffffff811115611b3957611b3961312f565b604051908082528060200260200182016040528015611b6c57816020015b6060815260200190600190039081611b575790505b5093508067ffffffffffffffff811115611b8857611b8861312f565b604051908082528060200260200182016040528015611bb1578160200160208202803683370190505b5092508067ffffffffffffffff811115611bcd57611bcd61312f565b604051908082528060200260200182016040528015611bf6578160200160208202803683370190505b50915060005b8181101561205457808a8281518110611c1757611c17613b22565b602002602001018181525050600f8181548110611c3657611c36613b22565b90600052602060002090600402016000018054611c5290613b38565b80601f0160208091040260200160405190810160405280929190818152602001828054611c7e90613b38565b8015611ccb5780601f10611ca057610100808354040283529160200191611ccb565b820191906000526020600020905b815481529060010190602001808311611cae57829003601f168201915b5050505050898281518110611ce257611ce2613b22565b6020026020010181905250600f8181548110611d0057611d00613b22565b90600052602060002090600402016001018054611d1c90613b38565b80601f0160208091040260200160405190810160405280929190818152602001828054611d4890613b38565b8015611d955780601f10611d6a57610100808354040283529160200191611d95565b820191906000526020600020905b815481529060010190602001808311611d7857829003601f168201915b5050505050888281518110611dac57611dac613b22565b6020026020010181905250600f8181548110611dca57611dca613b22565b906000526020600020906004020160020154878281518110611dee57611dee613b22565b602002602001018181525050600e600f8281548110611e0f57611e0f613b22565b90600052602060002090600402016002015481548110611e3157611e31613b22565b90600052602060002090600202016000018054611e4d90613b38565b80601f0160208091040260200160405190810160405280929190818152602001828054611e7990613b38565b8015611ec65780601f10611e9b57610100808354040283529160200191611ec6565b820191906000526020600020905b815481529060010190602001808311611ea957829003601f168201915b5050505050868281518110611edd57611edd613b22565b6020026020010181905250600e600f8281548110611efd57611efd613b22565b90600052602060002090600402016002015481548110611f1f57611f1f613b22565b90600052602060002090600202016001018054611f3b90613b38565b80601f0160208091040260200160405190810160405280929190818152602001828054611f6790613b38565b8015611fb45780601f10611f8957610100808354040283529160200191611fb4565b820191906000526020600020905b815481529060010190602001808311611f9757829003601f168201915b5050505050858281518110611fcb57611fcb613b22565b6020026020010181905250611fec8160009081526003602052604090205490565b848281518110611ffe57611ffe613b22565b602002602001018181525050600f818154811061201d5761201d613b22565b90600052602060002090600402016003015483828151811061204157612041613b22565b6020908102919091010152600101611bfc565b50509091929394959697565b6001600160a01b03851633148061207c575061207c85336106de565b6120ee5760405162461bcd60e51b815260206004820152602e60248201527f455243313135353a2063616c6c6572206973206e6f7420746f6b656e206f776e60448201527f6572206f7220617070726f76656400000000000000000000000000000000000060648201526084016108f8565b61122b8585858585612aaf565b612103612499565b6001600160a01b03811661217f5760405162461bcd60e51b815260206004820152602660248201527f4f776e61626c653a206e6577206f776e657220697320746865207a65726f206160448201527f646472657373000000000000000000000000000000000000000000000000000060648201526084016108f8565b6119598161275f565b606080606080600f85815481106121a1576121a1613b22565b906000526020600020906004020160000180546121bd90613b38565b80601f01602080910402602001604051908101604052809291908181526020018280546121e990613b38565b80156122365780601f1061220b57610100808354040283529160200191612236565b820191906000526020600020905b81548152906001019060200180831161221957829003601f168201915b50505050509350600f858154811061225057612250613b22565b9060005260206000209060040201600101805461226c90613b38565b80601f016020809104026020016040519081016040528092919081815260200182805461229890613b38565b80156122e55780601f106122ba576101008083540402835291602001916122e5565b820191906000526020600020905b8154815290600101906020018083116122c857829003601f168201915b50505050509250600e600f868154811061230157612301613b22565b9060005260206000209060040201600201548154811061232357612323613b22565b9060005260206000209060020201600001805461233f90613b38565b80601f016020809104026020016040519081016040528092919081815260200182805461236b90613b38565b80156123b85780601f1061238d576101008083540402835291602001916123b8565b820191906000526020600020905b81548152906001019060200180831161239b57829003601f168201915b50505050509150600e600f86815481106123d4576123d4613b22565b906000526020600020906004020160020154815481106123f6576123f6613b22565b9060005260206000209060020201600101805461241290613b38565b80601f016020809104026020016040519081016040528092919081815260200182805461243e90613b38565b801561248b5780601f106124605761010080835404028352916020019161248b565b820191906000526020600020905b81548152906001019060200180831161246e57829003601f168201915b505050505090509193509193565b6004546001600160a01b0316331461148f5760405162461bcd60e51b815260206004820181905260248201527f4f776e61626c653a2063616c6c6572206973206e6f7420746865206f776e657260448201526064016108f8565b81518351146125555760405162461bcd60e51b815260206004820152602860248201527f455243313135353a2069647320616e6420616d6f756e7473206c656e677468206044820152670dad2e6dac2e8c6d60c31b60648201526084016108f8565b6001600160a01b0384166125b95760405162461bcd60e51b815260206004820152602560248201527f455243313135353a207472616e7366657220746f20746865207a65726f206164604482015264647265737360d81b60648201526084016108f8565b336125c8818787878787612c5d565b60005b84518110156126f15760008582815181106125e8576125e8613b22565b60200260200101519050600085838151811061260657612606613b22565b602090810291909101810151600084815280835260408082206001600160a01b038e1683529093529190912054909150818110156126995760405162461bcd60e51b815260206004820152602a60248201527f455243313135353a20696e73756666696369656e742062616c616e636520666f60448201526939103a3930b739b332b960b11b60648201526084016108f8565b6000838152602081815260408083206001600160a01b038e8116855292528083208585039055908b168252812080548492906126d6908490613cdd565b92505081905550505050806126ea90613cc4565b90506125cb565b50846001600160a01b0316866001600160a01b0316826001600160a01b03167f4a39dc06d4c0dbc64b70af90fd698a233a518aa5d07e595d983b8c0526c8f7fb8787604051612741929190613d62565b60405180910390a4612757818787878787612c6b565b505050505050565b600480546001600160a01b0383811673ffffffffffffffffffffffffffffffffffffffff19831681179093556040519116919082907f8be0079c531659141344cd1fd0a4f28419497f9722a3daafe3b4186f6b6457e090600090a35050565b6001600160a01b03841661283a5760405162461bcd60e51b815260206004820152602160248201527f455243313135353a206d696e7420746f20746865207a65726f2061646472657360448201527f730000000000000000000000000000000000000000000000000000000000000060648201526084016108f8565b815183511461289c5760405162461bcd60e51b815260206004820152602860248201527f455243313135353a2069647320616e6420616d6f756e7473206c656e677468206044820152670dad2e6dac2e8c6d60c31b60648201526084016108f8565b336128ac81600087878787612c5d565b60005b8451811015612947578381815181106128ca576128ca613b22565b60200260200101516000808784815181106128e7576128e7613b22565b602002602001015181526020019081526020016000206000886001600160a01b03166001600160a01b03168152602001908152602001600020600082825461292f9190613cdd565b9091555081905061293f81613cc4565b9150506128af565b50846001600160a01b031660006001600160a01b0316826001600160a01b03167f4a39dc06d4c0dbc64b70af90fd698a233a518aa5d07e595d983b8c0526c8f7fb8787604051612998929190613d62565b60405180910390a461122b81600087878787612c6b565b816001600160a01b0316836001600160a01b031603612a365760405162461bcd60e51b815260206004820152602960248201527f455243313135353a2073657474696e6720617070726f76616c2073746174757360448201527f20666f722073656c66000000000000000000000000000000000000000000000060648201526084016108f8565b6001600160a01b03838116600081815260016020908152604080832094871680845294825291829020805460ff191686151590811790915591519182527f17307eab39ab6107e8899845ad3d59bd9653f200f220920489ca2b5937696c31910160405180910390a3505050565b600261181d8282613bbd565b6001600160a01b038416612b135760405162461bcd60e51b815260206004820152602560248201527f455243313135353a207472616e7366657220746f20746865207a65726f206164604482015264647265737360d81b60648201526084016108f8565b336000612b1f85612e19565b90506000612b2c85612e19565b9050612b3c838989858589612c5d565b6000868152602081815260408083206001600160a01b038c16845290915290205485811015612bc05760405162461bcd60e51b815260206004820152602a60248201527f455243313135353a20696e73756666696369656e742062616c616e636520666f60448201526939103a3930b739b332b960b11b60648201526084016108f8565b6000878152602081815260408083206001600160a01b038d8116855292528083208985039055908a16825281208054889290612bfd908490613cdd565b909155505060408051888152602081018890526001600160a01b03808b16928c821692918816917fc3d58168c5ae7397731d063d5bbf3d657854427343f4c083240f7aacaa2d0f62910160405180910390a4611722848a8a8a8a8a612e64565b612757868686868686612f60565b6001600160a01b0384163b156127575760405163bc197c8160e01b81526001600160a01b0385169063bc197c8190612caf9089908990889088908890600401613d87565b6020604051808303816000875af1925050508015612cea575060408051601f3d908101601f19168201909252612ce791810190613de5565b60015b612d9f57612cf6613e02565b806308c379a003612d2f5750612d0a613e1d565b80612d155750612d31565b8060405162461bcd60e51b81526004016108f891906134ea565b505b60405162461bcd60e51b815260206004820152603460248201527f455243313135353a207472616e7366657220746f206e6f6e2d4552433131353560448201527f526563656976657220696d706c656d656e74657200000000000000000000000060648201526084016108f8565b6001600160e01b0319811663bc197c8160e01b14612e105760405162461bcd60e51b815260206004820152602860248201527f455243313135353a204552433131353552656365697665722072656a656374656044820152676420746f6b656e7360c01b60648201526084016108f8565b50505050505050565b60408051600180825281830190925260609160009190602080830190803683370190505090508281600081518110612e5357612e53613b22565b602090810291909101015292915050565b6001600160a01b0384163b156127575760405163f23a6e6160e01b81526001600160a01b0385169063f23a6e6190612ea89089908990889088908890600401613ea7565b6020604051808303816000875af1925050508015612ee3575060408051601f3d908101601f19168201909252612ee091810190613de5565b60015b612eef57612cf6613e02565b6001600160e01b0319811663f23a6e6160e01b14612e105760405162461bcd60e51b815260206004820152602860248201527f455243313135353a204552433131353552656365697665722072656a656374656044820152676420746f6b656e7360c01b60648201526084016108f8565b6001600160a01b038516612fe75760005b8351811015612fe557828181518110612f8c57612f8c613b22565b602002602001015160036000868481518110612faa57612faa613b22565b602002602001015181526020019081526020016000206000828254612fcf9190613cdd565b90915550612fde905081613cc4565b9050612f71565b505b6001600160a01b0384166127575760005b8351811015612e1057600084828151811061301557613015613b22565b60200260200101519050600084838151811061303357613033613b22565b60200260200101519050600060036000848152602001908152602001600020549050818110156130cb5760405162461bcd60e51b815260206004820152602860248201527f455243313135353a206275726e20616d6f756e74206578636565647320746f7460448201527f616c537570706c7900000000000000000000000000000000000000000000000060648201526084016108f8565b600092835260036020526040909220910390556130e781613cc4565b9050612ff8565b6001600160a01b038116811461195957600080fd5b6000806040838503121561311657600080fd5b8235613121816130ee565b946020939093013593505050565b634e487b7160e01b600052604160045260246000fd5b601f8201601f1916810167ffffffffffffffff8111828210171561316b5761316b61312f565b6040525050565b600067ffffffffffffffff82111561318c5761318c61312f565b5060051b60200190565b600082601f8301126131a757600080fd5b813567ffffffffffffffff8111156131c1576131c161312f565b6040516131d8601f8301601f191660200182613145565b8181528460208386010111156131ed57600080fd5b816020850160208301376000918101602001919091529392505050565b600082601f83011261321b57600080fd5b8135602061322882613172565b6040516132358282613145565b83815260059390931b850182019282810191508684111561325557600080fd5b8286015b8481101561329557803567ffffffffffffffff8111156132795760008081fd5b6132878986838b0101613196565b845250918301918301613259565b509695505050505050565b60008083601f8401126132b257600080fd5b50813567ffffffffffffffff8111156132ca57600080fd5b6020830191508360208260051b85010111156132e557600080fd5b9250929050565b60008060008060008060008060008060c08b8d03121561330b57600080fd5b8a3567ffffffffffffffff8082111561332357600080fd5b61332f8e838f0161320a565b9b5060208d013591508082111561334557600080fd5b6133518e838f0161320a565b9a5060408d013591508082111561336757600080fd5b6133738e838f016132a0565b909a50985060608d013591508082111561338c57600080fd5b6133988e838f016132a0565b909850965060808d01359150808211156133b157600080fd5b6133bd8e838f016132a0565b909650945060a08d01359150808211156133d657600080fd5b506133e38d828e016132a0565b915080935050809150509295989b9194979a5092959850565b6001600160e01b03198116811461195957600080fd5b60006020828403121561342457600080fd5b813561342f816133fc565b9392505050565b60008060006040848603121561344b57600080fd5b8335613456816130ee565b9250602084013567ffffffffffffffff81111561347257600080fd5b61347e868287016132a0565b9497909650939450505050565b60006020828403121561349d57600080fd5b5035919050565b6000815180845260005b818110156134ca576020818501810151868301820152016134ae565b506000602082860101526020601f19601f83011685010191505092915050565b60208152600061342f60208301846134a4565b600081518084526020808501808196508360051b8101915082860160005b858110156135455782840389526135338483516134a4565b9885019893509084019060010161351b565b5091979650505050505050565b60408152600061356560408301856134fd565b828103602084015261357781856134fd565b95945050505050565b600082601f83011261359157600080fd5b8135602061359e82613172565b6040516135ab8282613145565b83815260059390931b85018201928281019150868411156135cb57600080fd5b8286015b8481101561329557803583529183019183016135cf565b600080600080600060a086880312156135fe57600080fd5b8535613609816130ee565b94506020860135613619816130ee565b9350604086013567ffffffffffffffff8082111561363657600080fd5b61364289838a01613580565b9450606088013591508082111561365857600080fd5b61366489838a01613580565b9350608088013591508082111561367a57600080fd5b5061368788828901613196565b9150509295509295909350565b600080604083850312156136a757600080fd5b823567ffffffffffffffff808211156136bf57600080fd5b818501915085601f8301126136d357600080fd5b813560206136e082613172565b6040516136ed8282613145565b83815260059390931b850182019282810191508984111561370d57600080fd5b948201945b83861015613734578535613725816130ee565b82529482019490820190613712565b9650508601359250508082111561374a57600080fd5b5061375785828601613580565b9150509250929050565b600081518084526020808501945080840160005b8381101561379157815187529582019590820190600101613775565b509495945050505050565b60208152600061342f6020830184613761565b600080600080608085870312156137c557600080fd5b5050823594602084013594506040840135936060013592509050565b6000806000806000606086880312156137f957600080fd5b8535613804816130ee565b9450602086013567ffffffffffffffff8082111561382157600080fd5b61382d89838a016132a0565b9096509450604088013591508082111561384657600080fd5b50613853888289016132a0565b969995985093965092949392505050565b801515811461195957600080fd5b6000806040838503121561388557600080fd5b8235613890816130ee565b915060208301356138a081613864565b809150509250929050565b6000602082840312156138bd57600080fd5b813561342f816130ee565b6000602082840312156138da57600080fd5b813567ffffffffffffffff8111156138f157600080fd5b6138fd84828501613196565b949350505050565b60006101008083526139198184018c613761565b9050828103602084015261392d818b6134fd565b90508281036040840152613941818a6134fd565b905082810360608401526139558189613761565b9050828103608084015261396981886134fd565b905082810360a084015261397d81876134fd565b905082810360c08401526139918186613761565b905082810360e08401526139a58185613761565b9b9a5050505050505050505050565b600080604083850312156139c757600080fd5b82356139d2816130ee565b915060208301356138a0816130ee565b600080600080600060a086880312156139fa57600080fd5b8535613a05816130ee565b94506020860135613a15816130ee565b93506040860135925060608601359150608086013567ffffffffffffffff811115613a3f57600080fd5b61368788828901613196565b608081526000613a5e60808301876134a4565b8281036020840152613a7081876134a4565b90508281036040840152613a8481866134a4565b90508281036060840152613a9881856134a4565b979650505050505050565b634e487b7160e01b600052601160045260246000fd5b8181038181111561092457610924613aa3565b808202811582820484141761092457610924613aa3565b600082613b0057634e487b7160e01b600052601260045260246000fd5b500490565b600060208284031215613b1757600080fd5b815161342f81613864565b634e487b7160e01b600052603260045260246000fd5b600181811c90821680613b4c57607f821691505b602082108103613b6c57634e487b7160e01b600052602260045260246000fd5b50919050565b601f821115613bb857600081815260208120601f850160051c81016020861015613b995750805b601f850160051c820191505b8181101561275757828155600101613ba5565b505050565b815167ffffffffffffffff811115613bd757613bd761312f565b613beb81613be58454613b38565b84613b72565b602080601f831160018114613c205760008415613c085750858301515b600019600386901b1c1916600185901b178555612757565b600085815260208120601f198616915b82811015613c4f57888601518255948401946001909101908401613c30565b5085821015613c6d5787850151600019600388901b60f8161c191681555b5050505050600190811b01905550565b6000808335601e19843603018112613c9457600080fd5b83018035915067ffffffffffffffff821115613caf57600080fd5b6020019150368190038213156132e557600080fd5b600060018201613cd657613cd6613aa3565b5060010190565b8082018082111561092457610924613aa3565b81835260007f07ffffffffffffffffffffffffffffffffffffffffffffffffffffffffffffff831115613d2257600080fd5b8260051b80836020870137939093016020019392505050565b604081526000613d4f604083018688613cf0565b8281036020840152613a98818587613cf0565b604081526000613d756040830185613761565b82810360208401526135778185613761565b60006001600160a01b03808816835280871660208401525060a06040830152613db360a0830186613761565b8281036060840152613dc58186613761565b90508281036080840152613dd981856134a4565b98975050505050505050565b600060208284031215613df757600080fd5b815161342f816133fc565b600060033d111561087b5760046000803e5060005160e01c90565b600060443d1015613e2b5790565b6040516003193d81016004833e81513d67ffffffffffffffff8160248401118184111715613e5b57505050505090565b8285019150815181811115613e735750505050505090565b843d8701016020828501011115613e8d5750505050505090565b613e9c60208286010187613145565b509095945050505050565b60006001600160a01b03808816835280871660208401525084604083015283606083015260a06080830152613a9860a08301846134a456fea2646970667358221220b6cbd9d14bec03fc12fe90bd97dc69d37f43a6df4dd09feccaab1e13dad9456464736f6c63430008130033",
  "devdoc": {
    "events": {
      "ApprovalForAll(address,address,bool)": {
        "details": "Emitted when `account` grants or revokes permission to `operator` to transfer their tokens, according to `approved`."
      },
      "TransferBatch(address,address,address,uint256[],uint256[])": {
        "details": "Equivalent to multiple {TransferSingle} events, where `operator`, `from` and `to` are the same for all transfers."
      },
      "TransferSingle(address,address,address,uint256,uint256)": {
        "details": "Emitted when `value` tokens of token type `id` are transferred from `from` to `to` by `operator`."
      },
      "URI(string,uint256)": {
        "details": "Emitted when the URI for token type `id` changes to `value`, if it is a non-programmatic URI. If an {URI} event was emitted for `id`, the standard https://eips.ethereum.org/EIPS/eip-1155#metadata-extensions[guarantees] that `value` will equal the value returned by {IERC1155MetadataURI-uri}."
      }
    },
    "kind": "dev",
    "methods": {
      "balanceOf(address,uint256)": {
        "details": "See {IERC1155-balanceOf}. Requirements: - `account` cannot be the zero address."
      },
      "balanceOfBatch(address[],uint256[])": {
        "details": "See {IERC1155-balanceOfBatch}. Requirements: - `accounts` and `ids` must have the same length."
      },
      "exists(uint256)": {
        "details": "Indicates whether any token exist with a given id, or not."
      },
      "isApprovedForAll(address,address)": {
        "details": "See {IERC1155-isApprovedForAll}."
      },
      "owner()": {
        "details": "Returns the address of the current owner."
      },
      "renounceOwnership()": {
        "details": "Leaves the contract without owner. It will not be possible to call `onlyOwner` functions anymore. Can only be called by the current owner. NOTE: Renouncing ownership will leave the contract without an owner, thereby removing any functionality that is only available to the owner."
      },
      "safeBatchTransferFrom(address,address,uint256[],uint256[],bytes)": {
        "details": "See {IERC1155-safeBatchTransferFrom}."
      },
      "safeTransferFrom(address,address,uint256,uint256,bytes)": {
        "details": "See {IERC1155-safeTransferFrom}."
      },
      "setApprovalForAll(address,bool)": {
        "details": "See {IERC1155-setApprovalForAll}."
      },
      "supportsInterface(bytes4)": {
        "details": "See {IERC165-supportsInterface}."
      },
      "totalSupply(uint256)": {
        "details": "Total amount of tokens in with a given id."
      },
      "transferOwnership(address)": {
        "details": "Transfers ownership of the contract to a new account (`newOwner`). Can only be called by the current owner."
      },
      "uri(uint256)": {
        "details": "See {IERC1155MetadataURI-uri}. This implementation returns the same URI for *all* token types. It relies on the token type ID substitution mechanism https://eips.ethereum.org/EIPS/eip-1155#metadata[defined in the EIP]. Clients calling this function must replace the `\\{id\\}` substring with the actual token type ID."
      }
    },
    "version": 1
  },
  "userdoc": {
    "kind": "user",
    "methods": {},
    "version": 1
  },
  "storageLayout": {
    "storage": [
      {
        "astId": 138,
        "contract": "contracts/Traits.sol:Traits",
        "label": "_balances",
        "offset": 0,
        "slot": "0",
        "type": "t_mapping(t_uint256,t_mapping(t_address,t_uint256))"
      },
      {
        "astId": 144,
        "contract": "contracts/Traits.sol:Traits",
        "label": "_operatorApprovals",
        "offset": 0,
        "slot": "1",
        "type": "t_mapping(t_address,t_mapping(t_address,t_bool))"
      },
      {
        "astId": 146,
        "contract": "contracts/Traits.sol:Traits",
        "label": "_uri",
        "offset": 0,
        "slot": "2",
        "type": "t_string_storage"
      },
      {
        "astId": 1508,
        "contract": "contracts/Traits.sol:Traits",
        "label": "_totalSupply",
        "offset": 0,
        "slot": "3",
        "type": "t_mapping(t_uint256,t_uint256)"
      },
      {
        "astId": 7,
        "contract": "contracts/Traits.sol:Traits",
        "label": "_owner",
        "offset": 0,
        "slot": "4",
        "type": "t_address"
      },
      {
        "astId": 5025,
        "contract": "contracts/Traits.sol:Traits",
        "label": "artwork",
        "offset": 0,
        "slot": "5",
        "type": "t_contract(IArtwork)6148"
      },
      {
        "astId": 5027,
        "contract": "contracts/Traits.sol:Traits",
        "label": "platformRevenueClaimer",
        "offset": 0,
        "slot": "6",
        "type": "t_address_payable"
      },
      {
        "astId": 5029,
        "contract": "contracts/Traits.sol:Traits",
        "label": "artistRevenueClaimer",
        "offset": 0,
        "slot": "7",
        "type": "t_address_payable"
      },
      {
        "astId": 5040,
        "contract": "contracts/Traits.sol:Traits",
        "label": "artistClaimableRevenues",
        "offset": 0,
        "slot": "8",
        "type": "t_uint256"
      },
      {
        "astId": 5042,
        "contract": "contracts/Traits.sol:Traits",
        "label": "platformClaimableRevenues",
        "offset": 0,
        "slot": "9",
        "type": "t_uint256"
      },
      {
        "astId": 5044,
        "contract": "contracts/Traits.sol:Traits",
        "label": "auctionStartTime",
        "offset": 0,
        "slot": "10",
        "type": "t_uint256"
      },
      {
        "astId": 5046,
        "contract": "contracts/Traits.sol:Traits",
        "label": "auctionEndTime",
        "offset": 0,
        "slot": "11",
        "type": "t_uint256"
      },
      {
        "astId": 5048,
        "contract": "contracts/Traits.sol:Traits",
        "label": "auctionStartPrice",
        "offset": 0,
        "slot": "12",
        "type": "t_uint256"
      },
      {
        "astId": 5050,
        "contract": "contracts/Traits.sol:Traits",
        "label": "auctionEndPrice",
        "offset": 0,
        "slot": "13",
        "type": "t_uint256"
      },
      {
        "astId": 5054,
        "contract": "contracts/Traits.sol:Traits",
        "label": "_traitTypes",
        "offset": 0,
        "slot": "14",
        "type": "t_array(t_struct(TraitType)6159_storage)dyn_storage"
      },
      {
        "astId": 5058,
        "contract": "contracts/Traits.sol:Traits",
        "label": "_traits",
        "offset": 0,
        "slot": "15",
        "type": "t_array(t_struct(Trait)6168_storage)dyn_storage"
      }
    ],
    "types": {
      "t_address": {
        "encoding": "inplace",
        "label": "address",
        "numberOfBytes": "20"
      },
      "t_address_payable": {
        "encoding": "inplace",
        "label": "address payable",
        "numberOfBytes": "20"
      },
      "t_array(t_struct(Trait)6168_storage)dyn_storage": {
        "base": "t_struct(Trait)6168_storage",
        "encoding": "dynamic_array",
        "label": "struct ITraits.Trait[]",
        "numberOfBytes": "32"
      },
      "t_array(t_struct(TraitType)6159_storage)dyn_storage": {
        "base": "t_struct(TraitType)6159_storage",
        "encoding": "dynamic_array",
        "label": "struct ITraits.TraitType[]",
        "numberOfBytes": "32"
      },
      "t_bool": {
        "encoding": "inplace",
        "label": "bool",
        "numberOfBytes": "1"
      },
      "t_contract(IArtwork)6148": {
        "encoding": "inplace",
        "label": "contract IArtwork",
        "numberOfBytes": "20"
      },
      "t_mapping(t_address,t_bool)": {
        "encoding": "mapping",
        "key": "t_address",
        "label": "mapping(address => bool)",
        "numberOfBytes": "32",
        "value": "t_bool"
      },
      "t_mapping(t_address,t_mapping(t_address,t_bool))": {
        "encoding": "mapping",
        "key": "t_address",
        "label": "mapping(address => mapping(address => bool))",
        "numberOfBytes": "32",
        "value": "t_mapping(t_address,t_bool)"
      },
      "t_mapping(t_address,t_uint256)": {
        "encoding": "mapping",
        "key": "t_address",
        "label": "mapping(address => uint256)",
        "numberOfBytes": "32",
        "value": "t_uint256"
      },
      "t_mapping(t_uint256,t_mapping(t_address,t_uint256))": {
        "encoding": "mapping",
        "key": "t_uint256",
        "label": "mapping(uint256 => mapping(address => uint256))",
        "numberOfBytes": "32",
        "value": "t_mapping(t_address,t_uint256)"
      },
      "t_mapping(t_uint256,t_uint256)": {
        "encoding": "mapping",
        "key": "t_uint256",
        "label": "mapping(uint256 => uint256)",
        "numberOfBytes": "32",
        "value": "t_uint256"
      },
      "t_string_storage": {
        "encoding": "bytes",
        "label": "string",
        "numberOfBytes": "32"
      },
      "t_struct(Trait)6168_storage": {
        "encoding": "inplace",
        "label": "struct ITraits.Trait",
        "members": [
          {
            "astId": 6161,
            "contract": "contracts/Traits.sol:Traits",
            "label": "name",
            "offset": 0,
            "slot": "0",
            "type": "t_string_storage"
          },
          {
            "astId": 6163,
            "contract": "contracts/Traits.sol:Traits",
            "label": "value",
            "offset": 0,
            "slot": "1",
            "type": "t_string_storage"
          },
          {
            "astId": 6165,
            "contract": "contracts/Traits.sol:Traits",
            "label": "typeIndex",
            "offset": 0,
            "slot": "2",
            "type": "t_uint256"
          },
          {
            "astId": 6167,
            "contract": "contracts/Traits.sol:Traits",
            "label": "maxSupply",
            "offset": 0,
            "slot": "3",
            "type": "t_uint256"
          }
        ],
        "numberOfBytes": "128"
      },
      "t_struct(TraitType)6159_storage": {
        "encoding": "inplace",
        "label": "struct ITraits.TraitType",
        "members": [
          {
            "astId": 6156,
            "contract": "contracts/Traits.sol:Traits",
            "label": "name",
            "offset": 0,
            "slot": "0",
            "type": "t_string_storage"
          },
          {
            "astId": 6158,
            "contract": "contracts/Traits.sol:Traits",
            "label": "value",
            "offset": 0,
            "slot": "1",
            "type": "t_string_storage"
          }
        ],
        "numberOfBytes": "64"
      },
      "t_uint256": {
        "encoding": "inplace",
        "label": "uint256",
        "numberOfBytes": "32"
      }
    }
  }
}