{
  "address": "0x7E87982b7a86bFf78ce5d1847fEa574854484593",
  "abi": [
    {
      "anonymous": false,
      "inputs": [
        {
          "indexed": true,
          "internalType": "address",
          "name": "account",
          "type": "address"
        },
        {
          "indexed": true,
          "internalType": "address",
          "name": "operator",
          "type": "address"
        },
        {
          "indexed": false,
          "internalType": "bool",
          "name": "approved",
          "type": "bool"
        }
      ],
      "name": "ApprovalForAll",
      "type": "event"
    },
    {
      "anonymous": false,
      "inputs": [
        {
          "indexed": true,
          "internalType": "address",
          "name": "studio",
          "type": "address"
        },
        {
          "indexed": true,
          "internalType": "string",
          "name": "name",
          "type": "string"
        },
        {
          "indexed": true,
          "internalType": "string",
          "name": "value",
          "type": "string"
        }
      ],
      "name": "TraitCreated",
      "type": "event"
    },
    {
      "anonymous": false,
      "inputs": [
        {
          "indexed": false,
          "internalType": "string[]",
          "name": "traitTypeNames",
          "type": "string[]"
        },
        {
          "indexed": false,
          "internalType": "string[]",
          "name": "traitTypeValues",
          "type": "string[]"
        },
        {
          "indexed": false,
          "internalType": "string[]",
          "name": "traitNames",
          "type": "string[]"
        },
        {
          "indexed": false,
          "internalType": "string[]",
          "name": "traitValues",
          "type": "string[]"
        },
        {
          "indexed": false,
          "internalType": "uint256[]",
          "name": "traitTypeIndexes",
          "type": "uint256[]"
        },
        {
          "indexed": false,
          "internalType": "uint256[]",
          "name": "traitMaxSupplys",
          "type": "uint256[]"
        }
      ],
      "name": "TraitsAndTypesCreated",
      "type": "event"
    },
    {
      "anonymous": false,
      "inputs": [
        {
          "indexed": true,
          "internalType": "address",
          "name": "operator",
          "type": "address"
        },
        {
          "indexed": true,
          "internalType": "address",
          "name": "from",
          "type": "address"
        },
        {
          "indexed": true,
          "internalType": "address",
          "name": "to",
          "type": "address"
        },
        {
          "indexed": false,
          "internalType": "uint256[]",
          "name": "ids",
          "type": "uint256[]"
        },
        {
          "indexed": false,
          "internalType": "uint256[]",
          "name": "values",
          "type": "uint256[]"
        }
      ],
      "name": "TransferBatch",
      "type": "event"
    },
    {
      "anonymous": false,
      "inputs": [
        {
          "indexed": true,
          "internalType": "address",
          "name": "operator",
          "type": "address"
        },
        {
          "indexed": true,
          "internalType": "address",
          "name": "from",
          "type": "address"
        },
        {
          "indexed": true,
          "internalType": "address",
          "name": "to",
          "type": "address"
        },
        {
          "indexed": false,
          "internalType": "uint256",
          "name": "id",
          "type": "uint256"
        },
        {
          "indexed": false,
          "internalType": "uint256",
          "name": "value",
          "type": "uint256"
        }
      ],
      "name": "TransferSingle",
      "type": "event"
    },
    {
      "anonymous": false,
      "inputs": [
        {
          "indexed": false,
          "internalType": "string",
          "name": "value",
          "type": "string"
        },
        {
          "indexed": true,
          "internalType": "uint256",
          "name": "id",
          "type": "uint256"
        }
      ],
      "name": "URI",
      "type": "event"
    },
    {
      "inputs": [
        {
          "internalType": "address",
          "name": "account",
          "type": "address"
        },
        {
          "internalType": "uint256",
          "name": "id",
          "type": "uint256"
        }
      ],
      "name": "balanceOf",
      "outputs": [
        {
          "internalType": "uint256",
          "name": "",
          "type": "uint256"
        }
      ],
      "stateMutability": "view",
      "type": "function"
    },
    {
      "inputs": [
        {
          "internalType": "address[]",
          "name": "accounts",
          "type": "address[]"
        },
        {
          "internalType": "uint256[]",
          "name": "ids",
          "type": "uint256[]"
        }
      ],
      "name": "balanceOfBatch",
      "outputs": [
        {
          "internalType": "uint256[]",
          "name": "",
          "type": "uint256[]"
        }
      ],
      "stateMutability": "view",
      "type": "function"
    },
    {
      "inputs": [
        {
          "internalType": "address",
          "name": "account",
          "type": "address"
        },
        {
          "internalType": "uint256",
          "name": "id",
          "type": "uint256"
        },
        {
          "internalType": "uint256",
          "name": "value",
          "type": "uint256"
        }
      ],
      "name": "burn",
      "outputs": [],
      "stateMutability": "nonpayable",
      "type": "function"
    },
    {
      "inputs": [
        {
          "internalType": "address",
          "name": "account",
          "type": "address"
        },
        {
          "internalType": "uint256[]",
          "name": "ids",
          "type": "uint256[]"
        },
        {
          "internalType": "uint256[]",
          "name": "values",
          "type": "uint256[]"
        }
      ],
      "name": "burnBatch",
      "outputs": [],
      "stateMutability": "nonpayable",
      "type": "function"
    },
    {
      "inputs": [
        {
          "internalType": "string[]",
          "name": "_traitTypeNames",
          "type": "string[]"
        },
        {
          "internalType": "string[]",
          "name": "_traitTypeValues",
          "type": "string[]"
        },
        {
          "internalType": "string[]",
          "name": "_traitNames",
          "type": "string[]"
        },
        {
          "internalType": "string[]",
          "name": "_traitValues",
          "type": "string[]"
        },
        {
          "internalType": "uint256[]",
          "name": "_traitTypeIndexes",
          "type": "uint256[]"
        },
        {
          "internalType": "uint256[]",
          "name": "_traitMaxSupplys",
          "type": "uint256[]"
        }
      ],
      "name": "createTraitsAndTypes",
      "outputs": [],
      "stateMutability": "nonpayable",
      "type": "function"
    },
    {
      "inputs": [
        {
          "internalType": "uint256",
          "name": "id",
          "type": "uint256"
        }
      ],
      "name": "exists",
      "outputs": [
        {
          "internalType": "bool",
          "name": "",
          "type": "bool"
        }
      ],
      "stateMutability": "view",
      "type": "function"
    },
    {
      "inputs": [
        {
          "internalType": "uint256",
          "name": "_tokenId",
          "type": "uint256"
        }
      ],
      "name": "getTraitName",
      "outputs": [
        {
          "internalType": "string",
          "name": "",
          "type": "string"
        }
      ],
      "stateMutability": "view",
      "type": "function"
    },
    {
      "inputs": [
        {
          "internalType": "uint256",
          "name": "_tokenId",
          "type": "uint256"
        }
      ],
      "name": "getTraitTypeName",
      "outputs": [
        {
          "internalType": "string",
          "name": "",
          "type": "string"
        }
      ],
      "stateMutability": "view",
      "type": "function"
    },
    {
      "inputs": [
        {
          "internalType": "uint256",
          "name": "_tokenId",
          "type": "uint256"
        }
      ],
      "name": "getTraitTypeValue",
      "outputs": [
        {
          "internalType": "string",
          "name": "",
          "type": "string"
        }
      ],
      "stateMutability": "view",
      "type": "function"
    },
    {
      "inputs": [
        {
          "internalType": "uint256",
          "name": "_tokenId",
          "type": "uint256"
        }
      ],
      "name": "getTraitValue",
      "outputs": [
        {
          "internalType": "string",
          "name": "",
          "type": "string"
        }
      ],
      "stateMutability": "view",
      "type": "function"
    },
    {
      "inputs": [],
      "name": "getTraits",
      "outputs": [
        {
          "internalType": "uint256[]",
          "name": "_traitTokenIds",
          "type": "uint256[]"
        },
        {
          "internalType": "string[]",
          "name": "_traitNames",
          "type": "string[]"
        },
        {
          "internalType": "string[]",
          "name": "_traitValues",
          "type": "string[]"
        },
        {
          "internalType": "uint256[]",
          "name": "_traitTypeIndexes",
          "type": "uint256[]"
        },
        {
          "internalType": "string[]",
          "name": "_traitTypeNames",
          "type": "string[]"
        },
        {
          "internalType": "string[]",
          "name": "_traitTypeValues",
          "type": "string[]"
        }
      ],
      "stateMutability": "view",
      "type": "function"
    },
    {
      "inputs": [
        {
          "internalType": "address",
          "name": "_studio",
          "type": "address"
        },
        {
          "internalType": "string",
          "name": "_uri",
          "type": "string"
        }
      ],
      "name": "initialize",
      "outputs": [],
      "stateMutability": "nonpayable",
      "type": "function"
    },
    {
      "inputs": [
        {
          "internalType": "address",
          "name": "account",
          "type": "address"
        },
        {
          "internalType": "address",
          "name": "operator",
          "type": "address"
        }
      ],
      "name": "isApprovedForAll",
      "outputs": [
        {
          "internalType": "bool",
          "name": "",
          "type": "bool"
        }
      ],
      "stateMutability": "view",
      "type": "function"
    },
    {
      "inputs": [
        {
          "internalType": "address",
          "name": "_to",
          "type": "address"
        },
        {
          "internalType": "uint256[]",
          "name": "_tokenIds",
          "type": "uint256[]"
        },
        {
          "internalType": "uint256[]",
          "name": "_amounts",
          "type": "uint256[]"
        }
      ],
      "name": "mintBatch",
      "outputs": [],
      "stateMutability": "nonpayable",
      "type": "function"
    },
    {
      "inputs": [],
      "name": "nextTokenId",
      "outputs": [
        {
          "internalType": "uint256",
          "name": "",
          "type": "uint256"
        }
      ],
      "stateMutability": "view",
      "type": "function"
    },
    {
      "inputs": [
        {
          "internalType": "address",
          "name": "from",
          "type": "address"
        },
        {
          "internalType": "address",
          "name": "to",
          "type": "address"
        },
        {
          "internalType": "uint256[]",
          "name": "ids",
          "type": "uint256[]"
        },
        {
          "internalType": "uint256[]",
          "name": "amounts",
          "type": "uint256[]"
        },
        {
          "internalType": "bytes",
          "name": "data",
          "type": "bytes"
        }
      ],
      "name": "safeBatchTransferFrom",
      "outputs": [],
      "stateMutability": "nonpayable",
      "type": "function"
    },
    {
      "inputs": [
        {
          "internalType": "address",
          "name": "from",
          "type": "address"
        },
        {
          "internalType": "address",
          "name": "to",
          "type": "address"
        },
        {
          "internalType": "uint256",
          "name": "id",
          "type": "uint256"
        },
        {
          "internalType": "uint256",
          "name": "amount",
          "type": "uint256"
        },
        {
          "internalType": "bytes",
          "name": "data",
          "type": "bytes"
        }
      ],
      "name": "safeTransferFrom",
      "outputs": [],
      "stateMutability": "nonpayable",
      "type": "function"
    },
    {
      "inputs": [
        {
          "internalType": "address",
          "name": "operator",
          "type": "address"
        },
        {
          "internalType": "bool",
          "name": "approved",
          "type": "bool"
        }
      ],
      "name": "setApprovalForAll",
      "outputs": [],
      "stateMutability": "nonpayable",
      "type": "function"
    },
    {
      "inputs": [],
      "name": "studio",
      "outputs": [
        {
          "internalType": "address",
          "name": "",
          "type": "address"
        }
      ],
      "stateMutability": "view",
      "type": "function"
    },
    {
      "inputs": [
        {
          "internalType": "bytes4",
          "name": "interfaceId",
          "type": "bytes4"
        }
      ],
      "name": "supportsInterface",
      "outputs": [
        {
          "internalType": "bool",
          "name": "",
          "type": "bool"
        }
      ],
      "stateMutability": "view",
      "type": "function"
    },
    {
      "inputs": [
        {
          "internalType": "uint256",
          "name": "id",
          "type": "uint256"
        }
      ],
      "name": "totalSupply",
      "outputs": [
        {
          "internalType": "uint256",
          "name": "",
          "type": "uint256"
        }
      ],
      "stateMutability": "view",
      "type": "function"
    },
    {
      "inputs": [
        {
          "internalType": "uint256",
          "name": "",
          "type": "uint256"
        }
      ],
      "name": "traits",
      "outputs": [
        {
          "internalType": "string",
          "name": "name",
          "type": "string"
        },
        {
          "internalType": "string",
          "name": "value",
          "type": "string"
        },
        {
          "internalType": "uint256",
          "name": "typeIndex",
          "type": "uint256"
        },
        {
          "internalType": "uint256",
          "name": "maxSupply",
          "type": "uint256"
        }
      ],
      "stateMutability": "view",
      "type": "function"
    },
    {
      "inputs": [
        {
          "internalType": "address",
          "name": "_caller",
          "type": "address"
        },
        {
          "internalType": "uint256[]",
          "name": "_traitTokenIds",
          "type": "uint256[]"
        }
      ],
      "name": "transferTraitsToCreateArtwork",
      "outputs": [],
      "stateMutability": "nonpayable",
      "type": "function"
    },
    {
      "inputs": [
        {
          "internalType": "address",
          "name": "_caller",
          "type": "address"
        },
        {
          "internalType": "uint256[]",
          "name": "_traitTokenIds",
          "type": "uint256[]"
        }
      ],
      "name": "transferTraitsToDecomposeArtwork",
      "outputs": [],
      "stateMutability": "nonpayable",
      "type": "function"
    },
    {
      "inputs": [
        {
          "internalType": "uint256",
          "name": "",
          "type": "uint256"
        }
      ],
      "name": "uri",
      "outputs": [
        {
          "internalType": "string",
          "name": "",
          "type": "string"
        }
      ],
      "stateMutability": "view",
      "type": "function"
    }
  ],
  "transactionHash": "0x9c69c589e293cf2163c923f24fe62b82aaf40fc9b3e9af7c30c20bef444d387e",
  "args": [],
  "numDeployments": 1,
  "solcInputHash": "a0ffe0a204b17e0b6eeeecadcef9154b",
  "bytecode": "0x6080604052600160fc5534801561001557600080fd5b50613a6c806100256000396000f3fe608060405234801561001057600080fd5b50600436106101a25760003560e01c806375794a3c116100ee578063d81d0a1511610097578063e985e9c511610071578063e985e9c5146103b6578063f242432a146103f2578063f399e22e14610405578063f5298aca1461041857600080fd5b8063d81d0a151461037d578063db895c3914610390578063e16f9c3d146103a357600080fd5b8063bd85b039116100c8578063bd85b0391461031f578063ca7ee8a01461033f578063d10f99cb1461036a57600080fd5b806375794a3c146102e95780637f0429ef146102f2578063a22cb4651461030c57600080fd5b80632eb2c2d6116101505780635044651d1161012a5780635044651d146102b05780635b2a8efa146102c35780636b20c454146102d657600080fd5b80632eb2c2d61461025b5780634e1273f41461026e5780634f558e791461028e57600080fd5b806302afd1a11161018157806302afd1a1146102055780630e89341c146102185780632d72225b1461023857600080fd5b8062fdd58e146101a757806301c8aa4b146101cd57806301ffc9a7146101e2575b600080fd5b6101ba6101b5366004612b81565b61042b565b6040519081526020015b60405180910390f35b6101e06101db366004612d68565b6104d9565b005b6101f56101f0366004612e8e565b6107b7565b60405190151581526020016101c4565b6101e0610213366004612eb2565b610852565b61022b610226366004612f05565b610a83565b6040516101c49190612f64565b61024b610246366004612f05565b610b17565b6040516101c49493929190612f77565b6101e0610269366004613016565b610c50565b61028161027c3660046130c0565b610cf2565b6040516101c491906131c6565b6101f561029c366004612f05565b600090815260c96020526040902054151590565b6101e06102be366004612eb2565b610e30565b61022b6102d1366004612f05565b611052565b6101e06102e43660046131d9565b611090565b6101ba60fc5481565b6102fa61111a565b6040516101c4969594939291906132a2565b6101e061031a366004613324565b6116e1565b6101ba61032d366004612f05565b600090815260c9602052604090205490565b60fb54610352906001600160a01b031681565b6040516001600160a01b0390911681526020016101c4565b61022b610378366004612f05565b6116f0565b6101e061038b3660046131d9565b611719565b61022b61039e366004612f05565b61188e565b61022b6103b1366004612f05565b6118af565b6101f56103c4366004613360565b6001600160a01b03918216600090815260666020908152604080832093909416825291909152205460ff1690565b6101e0610400366004613393565b6118cd565b6101e06104133660046133f8565b611954565b6101e061042636600461343c565b611a59565b60006001600160a01b0383166104ae5760405162461bcd60e51b815260206004820152602b60248201527f455243313135353a2062616c616e636520717565727920666f7220746865207a60448201527f65726f206164647265737300000000000000000000000000000000000000000060648201526084015b60405180910390fd5b5060008181526065602090815260408083206001600160a01b03861684529091529020545b92915050565b60fb546001600160a01b031633146105425760405162461bcd60e51b815260206004820152602660248201527f4f6e6c79207468652073747564696f2063616e2063616c6c20746869732066756044820152653731ba34b7b760d11b60648201526084016104a5565b88518a51146105795760405162461bcd60e51b815260206004820152600360248201526222981960e91b60448201526064016104a5565b8685146105ae5760405162461bcd60e51b815260206004820152600360248201526222981960e91b60448201526064016104a5565b8683146105e35760405162461bcd60e51b815260206004820152600360248201526222981960e91b60448201526064016104a5565b8681146106185760405162461bcd60e51b815260206004820152600360248201526222981960e91b60448201526064016104a5565b895161062b9060fe9060208d0190612aa8565b50885161063f9060ff9060208c0190612aa8565b5060005b878110156107615760fc8054908190600061065d83613485565b91905055508989838181106106745761067461349e565b905060200281019061068691906134b4565b600083815261010060205260409020916106a191908361357b565b508787838181106106b4576106b461349e565b90506020028101906106c691906134b4565b600083815261010060205260409020600101916106e491908361357b565b508585838181106106f7576106f761349e565b9050602002013561010060008381526020019081526020016000206002018190555083838381811061072b5761072b61349e565b9050602002013561010060008381526020019081526020016000206003018190555050808061075990613485565b915050610643565b507fee616d18e11e65241837d22c3f4a89be02728f429679ba1235035d7a74b77d5f8a8a8a8a8a8a8a8a8a8a6040516107a39a99989796959493929190613734565b60405180910390a150505050505050505050565b60006001600160e01b031982167fd9b67a2600000000000000000000000000000000000000000000000000000000148061081a57506001600160e01b031982167f0e89341c00000000000000000000000000000000000000000000000000000000145b806104d357507f01ffc9a7000000000000000000000000000000000000000000000000000000006001600160e01b03198316146104d3565b60fb546001600160a01b031633146108bb5760405162461bcd60e51b815260206004820152602660248201527f4f6e6c79207468652073747564696f2063616e2063616c6c20746869732066756044820152653731ba34b7b760d11b60648201526084016104a5565b60fe5481146109185760405162461bcd60e51b8152602060048201526024808201527f496e636f7272656374206e756d626572206f6620747261697473207370656369604482015263199a595960e21b60648201526084016104a5565b60008167ffffffffffffffff81111561093357610933612bab565b60405190808252806020026020018201604052801561095c578160200160208202803683370190505b50905060005b82811015610a19578061010060008686858181106109825761098261349e565b90506020020135815260200190815260200160002060020154146109e85760405162461bcd60e51b815260206004820152601760248201527f496e76616c696420747261697420746f6b656e2049447300000000000000000060448201526064016104a5565b60018282815181106109fc576109fc61349e565b602090810291909101015280610a1181613485565b915050610962565b50610a7d8460fb60009054906101000a90046001600160a01b0316858580806020026020016040519081016040528093929190818152602001838360200280828437600092018290525060408051602081019091529081528893509150611ade9050565b50505050565b606060678054610a92906134fb565b80601f0160208091040260200160405190810160405280929190818152602001828054610abe906134fb565b8015610b0b5780601f10610ae057610100808354040283529160200191610b0b565b820191906000526020600020905b815481529060010190602001808311610aee57829003601f168201915b50505050509050919050565b61010060205260009081526040902080548190610b33906134fb565b80601f0160208091040260200160405190810160405280929190818152602001828054610b5f906134fb565b8015610bac5780601f10610b8157610100808354040283529160200191610bac565b820191906000526020600020905b815481529060010190602001808311610b8f57829003601f168201915b505050505090806001018054610bc1906134fb565b80601f0160208091040260200160405190810160405280929190818152602001828054610bed906134fb565b8015610c3a5780601f10610c0f57610100808354040283529160200191610c3a565b820191906000526020600020905b815481529060010190602001808311610c1d57829003601f168201915b5050505050908060020154908060030154905084565b6001600160a01b038516331480610c6c5750610c6c85336103c4565b610cde5760405162461bcd60e51b815260206004820152603260248201527f455243313135353a207472616e736665722063616c6c6572206973206e6f742060448201527f6f776e6572206e6f7220617070726f766564000000000000000000000000000060648201526084016104a5565b610ceb8585858585611ade565b5050505050565b60608151835114610d6b5760405162461bcd60e51b815260206004820152602960248201527f455243313135353a206163636f756e747320616e6420696473206c656e67746860448201527f206d69736d61746368000000000000000000000000000000000000000000000060648201526084016104a5565b6000835167ffffffffffffffff811115610d8757610d87612bab565b604051908082528060200260200182016040528015610db0578160200160208202803683370190505b50905060005b8451811015610e2857610dfb858281518110610dd457610dd461349e565b6020026020010151858381518110610dee57610dee61349e565b602002602001015161042b565b828281518110610e0d57610e0d61349e565b6020908102919091010152610e2181613485565b9050610db6565b509392505050565b60fb546001600160a01b03163314610e995760405162461bcd60e51b815260206004820152602660248201527f4f6e6c79207468652073747564696f2063616e2063616c6c20746869732066756044820152653731ba34b7b760d11b60648201526084016104a5565b60fe548114610ef65760405162461bcd60e51b8152602060048201526024808201527f496e636f7272656374206e756d626572206f6620747261697473207370656369604482015263199a595960e21b60648201526084016104a5565b60008167ffffffffffffffff811115610f1157610f11612bab565b604051908082528060200260200182016040528015610f3a578160200160208202803683370190505b50905060005b82811015610ff757806101006000868685818110610f6057610f6061349e565b9050602002013581526020019081526020016000206002015414610fc65760405162461bcd60e51b815260206004820152601760248201527f496e76616c696420747261697420746f6b656e2049447300000000000000000060448201526064016104a5565b6001828281518110610fda57610fda61349e565b602090810291909101015280610fef81613485565b915050610f40565b5060fb546040805160208086028281018201909352858252610a7d936001600160a01b03169288929188918891829190850190849080828437600092018290525060408051602081019091529081528893509150611ade9050565b6000818152610100602052604090206002015460ff805460609290811061107b5761107b61349e565b906000526020600020018054610a92906134fb565b6001600160a01b0383163314806110ac57506110ac83336103c4565b61110a5760405162461bcd60e51b815260206004820152602960248201527f455243313135353a2063616c6c6572206973206e6f74206f776e6572206e6f7260448201526808185c1c1c9bdd995960ba1b60648201526084016104a5565b611115838383611d4d565b505050565b6060806060806060806000600160fc5461113491906137be565b90508067ffffffffffffffff81111561114f5761114f612bab565b604051908082528060200260200182016040528015611178578160200160208202803683370190505b5096508067ffffffffffffffff81111561119457611194612bab565b6040519080825280602002602001820160405280156111c757816020015b60608152602001906001900390816111b25790505b5095508067ffffffffffffffff8111156111e3576111e3612bab565b60405190808252806020026020018201604052801561121657816020015b60608152602001906001900390816112015790505b5094508067ffffffffffffffff81111561123257611232612bab565b60405190808252806020026020018201604052801561125b578160200160208202803683370190505b5093508067ffffffffffffffff81111561127757611277612bab565b6040519080825280602002602001820160405280156112aa57816020015b60608152602001906001900390816112955790505b5092508067ffffffffffffffff8111156112c6576112c6612bab565b6040519080825280602002602001820160405280156112f957816020015b60608152602001906001900390816112e45790505b50915060005b818110156116d7576113128160016137d1565b8882815181106113245761132461349e565b6020908102919091010152610100600061133f8360016137d1565b8152602001908152602001600020600001805461135b906134fb565b80601f0160208091040260200160405190810160405280929190818152602001828054611387906134fb565b80156113d45780601f106113a9576101008083540402835291602001916113d4565b820191906000526020600020905b8154815290600101906020018083116113b757829003601f168201915b50505050508782815181106113eb576113eb61349e565b602090810291909101015261010060006114068360016137d1565b81526020019081526020016000206001018054611422906134fb565b80601f016020809104026020016040519081016040528092919081815260200182805461144e906134fb565b801561149b5780601f106114705761010080835404028352916020019161149b565b820191906000526020600020905b81548152906001019060200180831161147e57829003601f168201915b50505050508682815181106114b2576114b261349e565b602090810291909101015261010060006114cd8360016137d1565b8152602001908152602001600020600201548582815181106114f1576114f161349e565b602090810291909101015260fe610100600061150e8460016137d1565b815260200190815260200160002060020154815481106115305761153061349e565b906000526020600020018054611545906134fb565b80601f0160208091040260200160405190810160405280929190818152602001828054611571906134fb565b80156115be5780601f10611593576101008083540402835291602001916115be565b820191906000526020600020905b8154815290600101906020018083116115a157829003601f168201915b50505050508482815181106115d5576115d561349e565b602090810291909101015260ff61010060006115f28460016137d1565b815260200190815260200160002060020154815481106116145761161461349e565b906000526020600020018054611629906134fb565b80601f0160208091040260200160405190810160405280929190818152602001828054611655906134fb565b80156116a25780601f10611677576101008083540402835291602001916116a2565b820191906000526020600020905b81548152906001019060200180831161168557829003601f168201915b50505050508382815181106116b9576116b961349e565b602002602001018190525080806116cf90613485565b9150506112ff565b5050909192939495565b6116ec338383611f97565b5050565b6000818152610100602052604090206002015460fe805460609290811061107b5761107b61349e565b60fb546001600160a01b031633146117825760405162461bcd60e51b815260206004820152602660248201527f4f6e6c79207468652073747564696f2063616e2063616c6c20746869732066756044820152653731ba34b7b760d11b60648201526084016104a5565b60005b82518110156118725761010060008483815181106117a5576117a561349e565b60200260200101518152602001908152602001600020600301548282815181106117d1576117d161349e565b60200260200101516118088584815181106117ee576117ee61349e565b6020026020010151600090815260c9602052604090205490565b61181291906137d1565b11156118605760405162461bcd60e51b815260206004820152601860248201527f5472616974206d617820737570706c792072656163686564000000000000000060448201526064016104a5565b8061186a81613485565b915050611785565b506111158383836040518060200160405280600081525061208b565b600081815261010060205260409020600101805460609190610a92906134fb565b600081815261010060205260409020805460609190610a92906134fb565b6001600160a01b0385163314806118e957506118e985336103c4565b6119475760405162461bcd60e51b815260206004820152602960248201527f455243313135353a2063616c6c6572206973206e6f74206f776e6572206e6f7260448201526808185c1c1c9bdd995960ba1b60648201526084016104a5565b610ceb858585858561227d565b600054610100900460ff1661196f5760005460ff1615611973565b303b155b6119e55760405162461bcd60e51b815260206004820152602e60248201527f496e697469616c697a61626c653a20636f6e747261637420697320616c72656160448201527f647920696e697469616c697a656400000000000000000000000000000000000060648201526084016104a5565b600054610100900460ff16158015611a07576000805461ffff19166101011790555b611a108261242e565b60fb80547fffffffffffffffffffffffff0000000000000000000000000000000000000000166001600160a01b0385161790558015611115576000805461ff0019169055505050565b6001600160a01b038316331480611a755750611a7583336103c4565b611ad35760405162461bcd60e51b815260206004820152602960248201527f455243313135353a2063616c6c6572206973206e6f74206f776e6572206e6f7260448201526808185c1c1c9bdd995960ba1b60648201526084016104a5565b6111158383836124a5565b8151835114611b405760405162461bcd60e51b815260206004820152602860248201527f455243313135353a2069647320616e6420616d6f756e7473206c656e677468206044820152670dad2e6dac2e8c6d60c31b60648201526084016104a5565b6001600160a01b038416611ba45760405162461bcd60e51b815260206004820152602560248201527f455243313135353a207472616e7366657220746f20746865207a65726f206164604482015264647265737360d81b60648201526084016104a5565b33611bb3818787878787612622565b60005b8451811015611cdf576000858281518110611bd357611bd361349e565b602002602001015190506000858381518110611bf157611bf161349e565b60209081029190910181015160008481526065835260408082206001600160a01b038e168352909352919091205490915081811015611c855760405162461bcd60e51b815260206004820152602a60248201527f455243313135353a20696e73756666696369656e742062616c616e636520666f60448201526939103a3930b739b332b960b11b60648201526084016104a5565b60008381526065602090815260408083206001600160a01b038e8116855292528083208585039055908b16825281208054849290611cc49084906137d1565b9250508190555050505080611cd890613485565b9050611bb6565b50846001600160a01b0316866001600160a01b0316826001600160a01b03167f4a39dc06d4c0dbc64b70af90fd698a233a518aa5d07e595d983b8c0526c8f7fb8787604051611d2f9291906137e4565b60405180910390a4611d45818787878787612630565b505050505050565b6001600160a01b038316611daf5760405162461bcd60e51b815260206004820152602360248201527f455243313135353a206275726e2066726f6d20746865207a65726f206164647260448201526265737360e81b60648201526084016104a5565b8051825114611e115760405162461bcd60e51b815260206004820152602860248201527f455243313135353a2069647320616e6420616d6f756e7473206c656e677468206044820152670dad2e6dac2e8c6d60c31b60648201526084016104a5565b6000339050611e3481856000868660405180602001604052806000815250612622565b60005b8351811015611f38576000848281518110611e5457611e5461349e565b602002602001015190506000848381518110611e7257611e7261349e565b60209081029190910181015160008481526065835260408082206001600160a01b038c168352909352919091205490915081811015611eff5760405162461bcd60e51b8152602060048201526024808201527f455243313135353a206275726e20616d6f756e7420657863656564732062616c604482015263616e636560e01b60648201526084016104a5565b60009283526065602090815260408085206001600160a01b038b1686529091529092209103905580611f3081613485565b915050611e37565b5060006001600160a01b0316846001600160a01b0316826001600160a01b03167f4a39dc06d4c0dbc64b70af90fd698a233a518aa5d07e595d983b8c0526c8f7fb8686604051611f899291906137e4565b60405180910390a450505050565b816001600160a01b0316836001600160a01b03160361201e5760405162461bcd60e51b815260206004820152602960248201527f455243313135353a2073657474696e6720617070726f76616c2073746174757360448201527f20666f722073656c66000000000000000000000000000000000000000000000060648201526084016104a5565b6001600160a01b03838116600081815260666020908152604080832094871680845294825291829020805460ff191686151590811790915591519182527f17307eab39ab6107e8899845ad3d59bd9653f200f220920489ca2b5937696c31910160405180910390a3505050565b6001600160a01b0384166121075760405162461bcd60e51b815260206004820152602160248201527f455243313135353a206d696e7420746f20746865207a65726f2061646472657360448201527f730000000000000000000000000000000000000000000000000000000000000060648201526084016104a5565b81518351146121695760405162461bcd60e51b815260206004820152602860248201527f455243313135353a2069647320616e6420616d6f756e7473206c656e677468206044820152670dad2e6dac2e8c6d60c31b60648201526084016104a5565b3361217981600087878787612622565b60005b8451811015612215578381815181106121975761219761349e565b6020026020010151606560008784815181106121b5576121b561349e565b602002602001015181526020019081526020016000206000886001600160a01b03166001600160a01b0316815260200190815260200160002060008282546121fd91906137d1565b9091555081905061220d81613485565b91505061217c565b50846001600160a01b031660006001600160a01b0316826001600160a01b03167f4a39dc06d4c0dbc64b70af90fd698a233a518aa5d07e595d983b8c0526c8f7fb87876040516122669291906137e4565b60405180910390a4610ceb81600087878787612630565b6001600160a01b0384166122e15760405162461bcd60e51b815260206004820152602560248201527f455243313135353a207472616e7366657220746f20746865207a65726f206164604482015264647265737360d81b60648201526084016104a5565b336123008187876122f1886127d5565b6122fa886127d5565b87612622565b60008481526065602090815260408083206001600160a01b038a168452909152902054838110156123865760405162461bcd60e51b815260206004820152602a60248201527f455243313135353a20696e73756666696369656e742062616c616e636520666f60448201526939103a3930b739b332b960b11b60648201526084016104a5565b60008581526065602090815260408083206001600160a01b038b81168552925280832087850390559088168252812080548692906123c59084906137d1565b909155505060408051868152602081018690526001600160a01b03808916928a821692918616917fc3d58168c5ae7397731d063d5bbf3d657854427343f4c083240f7aacaa2d0f62910160405180910390a4612425828888888888612820565b50505050505050565b600054610100900460ff166124995760405162461bcd60e51b815260206004820152602b60248201527f496e697469616c697a61626c653a20636f6e7472616374206973206e6f74206960448201526a6e697469616c697a696e6760a81b60648201526084016104a5565b6124a28161291c565b50565b6001600160a01b0383166125075760405162461bcd60e51b815260206004820152602360248201527f455243313135353a206275726e2066726f6d20746865207a65726f206164647260448201526265737360e81b60648201526084016104a5565b3361253681856000612518876127d5565b612521876127d5565b60405180602001604052806000815250612622565b60008381526065602090815260408083206001600160a01b0388168452909152902054828110156125b55760405162461bcd60e51b8152602060048201526024808201527f455243313135353a206275726e20616d6f756e7420657863656564732062616c604482015263616e636560e01b60648201526084016104a5565b60008481526065602090815260408083206001600160a01b03898116808652918452828520888703905582518981529384018890529092908616917fc3d58168c5ae7397731d063d5bbf3d657854427343f4c083240f7aacaa2d0f62910160405180910390a45050505050565b611d45868686868686612990565b6001600160a01b0384163b15611d455760405163bc197c8160e01b81526001600160a01b0385169063bc197c81906126749089908990889088908890600401613812565b6020604051808303816000875af19250505080156126af575060408051601f3d908101601f191682019092526126ac91810190613870565b60015b612764576126bb61388d565b806308c379a0036126f457506126cf6138a9565b806126da57506126f6565b8060405162461bcd60e51b81526004016104a59190612f64565b505b60405162461bcd60e51b815260206004820152603460248201527f455243313135353a207472616e7366657220746f206e6f6e204552433131353560448201527f526563656976657220696d706c656d656e74657200000000000000000000000060648201526084016104a5565b6001600160e01b0319811663bc197c8160e01b146124255760405162461bcd60e51b815260206004820152602860248201527f455243313135353a204552433131353552656365697665722072656a656374656044820152676420746f6b656e7360c01b60648201526084016104a5565b6040805160018082528183019092526060916000919060208083019080368337019050509050828160008151811061280f5761280f61349e565b602090810291909101015292915050565b6001600160a01b0384163b15611d455760405163f23a6e6160e01b81526001600160a01b0385169063f23a6e61906128649089908990889088908890600401613933565b6020604051808303816000875af192505050801561289f575060408051601f3d908101601f1916820190925261289c91810190613870565b60015b6128ab576126bb61388d565b6001600160e01b0319811663f23a6e6160e01b146124255760405162461bcd60e51b815260206004820152602860248201527f455243313135353a204552433131353552656365697665722072656a656374656044820152676420746f6b656e7360c01b60648201526084016104a5565b600054610100900460ff166129875760405162461bcd60e51b815260206004820152602b60248201527f496e697469616c697a61626c653a20636f6e7472616374206973206e6f74206960448201526a6e697469616c697a696e6760a81b60648201526084016104a5565b6124a281612a9c565b6001600160a01b038516612a175760005b8351811015612a15578281815181106129bc576129bc61349e565b602002602001015160c960008684815181106129da576129da61349e565b6020026020010151815260200190815260200160002060008282546129ff91906137d1565b90915550612a0e905081613485565b90506129a1565b505b6001600160a01b038416611d455760005b835181101561242557828181518110612a4357612a4361349e565b602002602001015160c96000868481518110612a6157612a6161349e565b602002602001015181526020019081526020016000206000828254612a8691906137be565b90915550612a95905081613485565b9050612a28565b60676116ec8282613976565b828054828255906000526020600020908101928215612aee579160200282015b82811115612aee5782518290612ade9082613976565b5091602001919060010190612ac8565b50612afa929150612afe565b5090565b80821115612afa576000612b128282612b1b565b50600101612afe565b508054612b27906134fb565b6000825580601f10612b37575050565b601f0160209004906000526020600020908101906124a291905b80821115612afa5760008155600101612b51565b80356001600160a01b0381168114612b7c57600080fd5b919050565b60008060408385031215612b9457600080fd5b612b9d83612b65565b946020939093013593505050565b634e487b7160e01b600052604160045260246000fd5b601f8201601f1916810167ffffffffffffffff81118282101715612be757612be7612bab565b6040525050565b600067ffffffffffffffff821115612c0857612c08612bab565b5060051b60200190565b600082601f830112612c2357600080fd5b813567ffffffffffffffff811115612c3d57612c3d612bab565b604051612c54601f8301601f191660200182612bc1565b818152846020838601011115612c6957600080fd5b816020850160208301376000918101602001919091529392505050565b600082601f830112612c9757600080fd5b81356020612ca482612bee565b604051612cb18282612bc1565b83815260059390931b8501820192828101915086841115612cd157600080fd5b8286015b84811015612d1157803567ffffffffffffffff811115612cf55760008081fd5b612d038986838b0101612c12565b845250918301918301612cd5565b509695505050505050565b60008083601f840112612d2e57600080fd5b50813567ffffffffffffffff811115612d4657600080fd5b6020830191508360208260051b8501011115612d6157600080fd5b9250929050565b60008060008060008060008060008060c08b8d031215612d8757600080fd5b8a3567ffffffffffffffff80821115612d9f57600080fd5b612dab8e838f01612c86565b9b5060208d0135915080821115612dc157600080fd5b612dcd8e838f01612c86565b9a5060408d0135915080821115612de357600080fd5b612def8e838f01612d1c565b909a50985060608d0135915080821115612e0857600080fd5b612e148e838f01612d1c565b909850965060808d0135915080821115612e2d57600080fd5b612e398e838f01612d1c565b909650945060a08d0135915080821115612e5257600080fd5b50612e5f8d828e01612d1c565b915080935050809150509295989b9194979a5092959850565b6001600160e01b0319811681146124a257600080fd5b600060208284031215612ea057600080fd5b8135612eab81612e78565b9392505050565b600080600060408486031215612ec757600080fd5b612ed084612b65565b9250602084013567ffffffffffffffff811115612eec57600080fd5b612ef886828701612d1c565b9497909650939450505050565b600060208284031215612f1757600080fd5b5035919050565b6000815180845260005b81811015612f4457602081850181015186830182015201612f28565b506000602082860101526020601f19601f83011685010191505092915050565b602081526000612eab6020830184612f1e565b608081526000612f8a6080830187612f1e565b8281036020840152612f9c8187612f1e565b604084019590955250506060015292915050565b600082601f830112612fc157600080fd5b81356020612fce82612bee565b604051612fdb8282612bc1565b83815260059390931b8501820192828101915086841115612ffb57600080fd5b8286015b84811015612d115780358352918301918301612fff565b600080600080600060a0868803121561302e57600080fd5b61303786612b65565b945061304560208701612b65565b9350604086013567ffffffffffffffff8082111561306257600080fd5b61306e89838a01612fb0565b9450606088013591508082111561308457600080fd5b61309089838a01612fb0565b935060808801359150808211156130a657600080fd5b506130b388828901612c12565b9150509295509295909350565b600080604083850312156130d357600080fd5b823567ffffffffffffffff808211156130eb57600080fd5b818501915085601f8301126130ff57600080fd5b8135602061310c82612bee565b6040516131198282612bc1565b83815260059390931b850182019282810191508984111561313957600080fd5b948201945b8386101561315e5761314f86612b65565b8252948201949082019061313e565b9650508601359250508082111561317457600080fd5b5061318185828601612fb0565b9150509250929050565b600081518084526020808501945080840160005b838110156131bb5781518752958201959082019060010161319f565b509495945050505050565b602081526000612eab602083018461318b565b6000806000606084860312156131ee57600080fd5b6131f784612b65565b9250602084013567ffffffffffffffff8082111561321457600080fd5b61322087838801612fb0565b9350604086013591508082111561323657600080fd5b5061324386828701612fb0565b9150509250925092565b600081518084526020808501808196508360051b8101915082860160005b85811015613295578284038952613283848351612f1e565b9885019893509084019060010161326b565b5091979650505050505050565b60c0815260006132b560c083018961318b565b82810360208401526132c7818961324d565b905082810360408401526132db818861324d565b905082810360608401526132ef818761318b565b90508281036080840152613303818661324d565b905082810360a0840152613317818561324d565b9998505050505050505050565b6000806040838503121561333757600080fd5b61334083612b65565b91506020830135801515811461335557600080fd5b809150509250929050565b6000806040838503121561337357600080fd5b61337c83612b65565b915061338a60208401612b65565b90509250929050565b600080600080600060a086880312156133ab57600080fd5b6133b486612b65565b94506133c260208701612b65565b93506040860135925060608601359150608086013567ffffffffffffffff8111156133ec57600080fd5b6130b388828901612c12565b6000806040838503121561340b57600080fd5b61341483612b65565b9150602083013567ffffffffffffffff81111561343057600080fd5b61318185828601612c12565b60008060006060848603121561345157600080fd5b61345a84612b65565b95602085013595506040909401359392505050565b634e487b7160e01b600052601160045260246000fd5b6000600182016134975761349761346f565b5060010190565b634e487b7160e01b600052603260045260246000fd5b6000808335601e198436030181126134cb57600080fd5b83018035915067ffffffffffffffff8211156134e657600080fd5b602001915036819003821315612d6157600080fd5b600181811c9082168061350f57607f821691505b60208210810361352f57634e487b7160e01b600052602260045260246000fd5b50919050565b601f82111561111557600081815260208120601f850160051c8101602086101561355c5750805b601f850160051c820191505b81811015611d4557828155600101613568565b67ffffffffffffffff83111561359357613593612bab565b6135a7836135a183546134fb565b83613535565b6000601f8411600181146135db57600085156135c35750838201355b600019600387901b1c1916600186901b178355610ceb565b600083815260209020601f19861690835b8281101561360c57868501358255602094850194600190920191016135ec565b50868210156136295760001960f88860031b161c19848701351681555b505060018560011b0183555050505050565b81835281816020850137506000828201602090810191909152601f909101601f19169091010190565b81835260006020808501808196508560051b810191508460005b878110156132955782840389528135601e1988360301811261369f57600080fd5b8701858101903567ffffffffffffffff8111156136bb57600080fd5b8036038213156136ca57600080fd5b6136d586828461363b565b9a87019a955050509084019060010161367e565b81835260007f07ffffffffffffffffffffffffffffffffffffffffffffffffffffffffffffff83111561371b57600080fd5b8260051b80836020870137939093016020019392505050565b60c08152600061374760c083018d61324d565b8281036020840152613759818d61324d565b9050828103604084015261376e818b8d613664565b9050828103606084015261378381898b613664565b905082810360808401526137988187896136e9565b905082810360a08401526137ad8185876136e9565b9d9c50505050505050505050505050565b818103818111156104d3576104d361346f565b808201808211156104d3576104d361346f565b6040815260006137f7604083018561318b565b8281036020840152613809818561318b565b95945050505050565b60006001600160a01b03808816835280871660208401525060a0604083015261383e60a083018661318b565b8281036060840152613850818661318b565b905082810360808401526138648185612f1e565b98975050505050505050565b60006020828403121561388257600080fd5b8151612eab81612e78565b600060033d11156138a65760046000803e5060005160e01c5b90565b600060443d10156138b75790565b6040516003193d81016004833e81513d67ffffffffffffffff81602484011181841117156138e757505050505090565b82850191508151818111156138ff5750505050505090565b843d87010160208285010111156139195750505050505090565b61392860208286010187612bc1565b509095945050505050565b60006001600160a01b03808816835280871660208401525084604083015283606083015260a0608083015261396b60a0830184612f1e565b979650505050505050565b815167ffffffffffffffff81111561399057613990612bab565b6139a48161399e84546134fb565b84613535565b602080601f8311600181146139d957600084156139c15750858301515b600019600386901b1c1916600185901b178555611d45565b600085815260208120601f198616915b82811015613a08578886015182559484019460019091019084016139e9565b5085821015613a265787850151600019600388901b60f8161c191681555b5050505050600190811b0190555056fea2646970667358221220e1f0eda8bcee531e5748044617ce677f7360413f2f12df7ad70d4bc1d10e3dec64736f6c63430008110033",
  "devdoc": {
    "kind": "dev",
    "methods": {
      "balanceOf(address,uint256)": {
        "details": "See {IERC1155-balanceOf}. Requirements: - `account` cannot be the zero address."
      },
      "balanceOfBatch(address[],uint256[])": {
        "details": "See {IERC1155-balanceOfBatch}. Requirements: - `accounts` and `ids` must have the same length."
      },
      "exists(uint256)": {
        "details": "Indicates whether any token exist with a given id, or not."
      },
      "isApprovedForAll(address,address)": {
        "details": "See {IERC1155-isApprovedForAll}."
      },
      "safeBatchTransferFrom(address,address,uint256[],uint256[],bytes)": {
        "details": "See {IERC1155-safeBatchTransferFrom}."
      },
      "safeTransferFrom(address,address,uint256,uint256,bytes)": {
        "details": "See {IERC1155-safeTransferFrom}."
      },
      "setApprovalForAll(address,bool)": {
        "details": "See {IERC1155-setApprovalForAll}."
      },
      "supportsInterface(bytes4)": {
        "details": "See {IERC165-supportsInterface}."
      },
      "totalSupply(uint256)": {
        "details": "Total amount of tokens in with a given id."
      },
      "uri(uint256)": {
        "details": "See {IERC1155MetadataURI-uri}. This implementation returns the same URI for *all* token types. It relies on the token type ID substitution mechanism https://eips.ethereum.org/EIPS/eip-1155#metadata[defined in the EIP]. Clients calling this function must replace the `\\{id\\}` substring with the actual token type ID."
      }
    },
    "version": 1
  },
  "userdoc": {
    "kind": "user",
    "methods": {},
    "version": 1
  },
  "storageLayout": {
    "storage": [
      {
        "astId": 130,
        "contract": "contracts/Traits.sol:Traits",
        "label": "_initialized",
        "offset": 0,
        "slot": "0",
        "type": "t_bool"
      },
      {
        "astId": 133,
        "contract": "contracts/Traits.sol:Traits",
        "label": "_initializing",
        "offset": 1,
        "slot": "0",
        "type": "t_bool"
      },
      {
        "astId": 3498,
        "contract": "contracts/Traits.sol:Traits",
        "label": "__gap",
        "offset": 0,
        "slot": "1",
        "type": "t_array(t_uint256)50_storage"
      },
      {
        "astId": 3745,
        "contract": "contracts/Traits.sol:Traits",
        "label": "__gap",
        "offset": 0,
        "slot": "51",
        "type": "t_array(t_uint256)50_storage"
      },
      {
        "astId": 226,
        "contract": "contracts/Traits.sol:Traits",
        "label": "_balances",
        "offset": 0,
        "slot": "101",
        "type": "t_mapping(t_uint256,t_mapping(t_address,t_uint256))"
      },
      {
        "astId": 232,
        "contract": "contracts/Traits.sol:Traits",
        "label": "_operatorApprovals",
        "offset": 0,
        "slot": "102",
        "type": "t_mapping(t_address,t_mapping(t_address,t_bool))"
      },
      {
        "astId": 234,
        "contract": "contracts/Traits.sol:Traits",
        "label": "_uri",
        "offset": 0,
        "slot": "103",
        "type": "t_string_storage"
      },
      {
        "astId": 1314,
        "contract": "contracts/Traits.sol:Traits",
        "label": "__gap",
        "offset": 0,
        "slot": "104",
        "type": "t_array(t_uint256)47_storage"
      },
      {
        "astId": 1566,
        "contract": "contracts/Traits.sol:Traits",
        "label": "__gap",
        "offset": 0,
        "slot": "151",
        "type": "t_array(t_uint256)50_storage"
      },
      {
        "astId": 1592,
        "contract": "contracts/Traits.sol:Traits",
        "label": "_totalSupply",
        "offset": 0,
        "slot": "201",
        "type": "t_mapping(t_uint256,t_uint256)"
      },
      {
        "astId": 1719,
        "contract": "contracts/Traits.sol:Traits",
        "label": "__gap",
        "offset": 0,
        "slot": "202",
        "type": "t_array(t_uint256)49_storage"
      },
      {
        "astId": 5737,
        "contract": "contracts/Traits.sol:Traits",
        "label": "studio",
        "offset": 0,
        "slot": "251",
        "type": "t_address"
      },
      {
        "astId": 5740,
        "contract": "contracts/Traits.sol:Traits",
        "label": "nextTokenId",
        "offset": 0,
        "slot": "252",
        "type": "t_uint256"
      },
      {
        "astId": 5742,
        "contract": "contracts/Traits.sol:Traits",
        "label": "traitTypesLength",
        "offset": 0,
        "slot": "253",
        "type": "t_uint256"
      },
      {
        "astId": 5745,
        "contract": "contracts/Traits.sol:Traits",
        "label": "traitTypeNames",
        "offset": 0,
        "slot": "254",
        "type": "t_array(t_string_storage)dyn_storage"
      },
      {
        "astId": 5748,
        "contract": "contracts/Traits.sol:Traits",
        "label": "traitTypeValues",
        "offset": 0,
        "slot": "255",
        "type": "t_array(t_string_storage)dyn_storage"
      },
      {
        "astId": 5753,
        "contract": "contracts/Traits.sol:Traits",
        "label": "traits",
        "offset": 0,
        "slot": "256",
        "type": "t_mapping(t_uint256,t_struct(Trait)5735_storage)"
      }
    ],
    "types": {
      "t_address": {
        "encoding": "inplace",
        "label": "address",
        "numberOfBytes": "20"
      },
      "t_array(t_string_storage)dyn_storage": {
        "base": "t_string_storage",
        "encoding": "dynamic_array",
        "label": "string[]",
        "numberOfBytes": "32"
      },
      "t_array(t_uint256)47_storage": {
        "base": "t_uint256",
        "encoding": "inplace",
        "label": "uint256[47]",
        "numberOfBytes": "1504"
      },
      "t_array(t_uint256)49_storage": {
        "base": "t_uint256",
        "encoding": "inplace",
        "label": "uint256[49]",
        "numberOfBytes": "1568"
      },
      "t_array(t_uint256)50_storage": {
        "base": "t_uint256",
        "encoding": "inplace",
        "label": "uint256[50]",
        "numberOfBytes": "1600"
      },
      "t_bool": {
        "encoding": "inplace",
        "label": "bool",
        "numberOfBytes": "1"
      },
      "t_mapping(t_address,t_bool)": {
        "encoding": "mapping",
        "key": "t_address",
        "label": "mapping(address => bool)",
        "numberOfBytes": "32",
        "value": "t_bool"
      },
      "t_mapping(t_address,t_mapping(t_address,t_bool))": {
        "encoding": "mapping",
        "key": "t_address",
        "label": "mapping(address => mapping(address => bool))",
        "numberOfBytes": "32",
        "value": "t_mapping(t_address,t_bool)"
      },
      "t_mapping(t_address,t_uint256)": {
        "encoding": "mapping",
        "key": "t_address",
        "label": "mapping(address => uint256)",
        "numberOfBytes": "32",
        "value": "t_uint256"
      },
      "t_mapping(t_uint256,t_mapping(t_address,t_uint256))": {
        "encoding": "mapping",
        "key": "t_uint256",
        "label": "mapping(uint256 => mapping(address => uint256))",
        "numberOfBytes": "32",
        "value": "t_mapping(t_address,t_uint256)"
      },
      "t_mapping(t_uint256,t_struct(Trait)5735_storage)": {
        "encoding": "mapping",
        "key": "t_uint256",
        "label": "mapping(uint256 => struct Traits.Trait)",
        "numberOfBytes": "32",
        "value": "t_struct(Trait)5735_storage"
      },
      "t_mapping(t_uint256,t_uint256)": {
        "encoding": "mapping",
        "key": "t_uint256",
        "label": "mapping(uint256 => uint256)",
        "numberOfBytes": "32",
        "value": "t_uint256"
      },
      "t_string_storage": {
        "encoding": "bytes",
        "label": "string",
        "numberOfBytes": "32"
      },
      "t_struct(Trait)5735_storage": {
        "encoding": "inplace",
        "label": "struct Traits.Trait",
        "members": [
          {
            "astId": 5728,
            "contract": "contracts/Traits.sol:Traits",
            "label": "name",
            "offset": 0,
            "slot": "0",
            "type": "t_string_storage"
          },
          {
            "astId": 5730,
            "contract": "contracts/Traits.sol:Traits",
            "label": "value",
            "offset": 0,
            "slot": "1",
            "type": "t_string_storage"
          },
          {
            "astId": 5732,
            "contract": "contracts/Traits.sol:Traits",
            "label": "typeIndex",
            "offset": 0,
            "slot": "2",
            "type": "t_uint256"
          },
          {
            "astId": 5734,
            "contract": "contracts/Traits.sol:Traits",
            "label": "maxSupply",
            "offset": 0,
            "slot": "3",
            "type": "t_uint256"
          }
        ],
        "numberOfBytes": "128"
      },
      "t_uint256": {
        "encoding": "inplace",
        "label": "uint256",
        "numberOfBytes": "32"
      }
    }
  }
}