{
  "address": "0x40430D8170d4E9AFd55C8d10Ed6218Ac43Fa6EF1",
  "abi": [
    {
      "inputs": [
        {
          "internalType": "address",
          "name": "_studio",
          "type": "address"
        },
        {
          "internalType": "string",
          "name": "_uri",
          "type": "string"
        },
        {
          "internalType": "address",
          "name": "_owner",
          "type": "address"
        },
        {
          "internalType": "address payable",
          "name": "_platformRevenueClaimer",
          "type": "address"
        },
        {
          "internalType": "address payable",
          "name": "_artistRevenueClaimer",
          "type": "address"
        }
      ],
      "stateMutability": "nonpayable",
      "type": "constructor"
    },
    {
      "anonymous": false,
      "inputs": [
        {
          "indexed": true,
          "internalType": "address",
          "name": "account",
          "type": "address"
        },
        {
          "indexed": true,
          "internalType": "address",
          "name": "operator",
          "type": "address"
        },
        {
          "indexed": false,
          "internalType": "bool",
          "name": "approved",
          "type": "bool"
        }
      ],
      "name": "ApprovalForAll",
      "type": "event"
    },
    {
      "anonymous": false,
      "inputs": [
        {
          "indexed": false,
          "internalType": "uint256",
          "name": "claimedRevenue",
          "type": "uint256"
        }
      ],
      "name": "ArtistRevenueClaimed",
      "type": "event"
    },
    {
      "anonymous": false,
      "inputs": [
        {
          "indexed": true,
          "internalType": "address",
          "name": "claimer",
          "type": "address"
        }
      ],
      "name": "ArtistRevenueClaimerUpdated",
      "type": "event"
    },
    {
      "anonymous": false,
      "inputs": [
        {
          "indexed": true,
          "internalType": "address",
          "name": "previousOwner",
          "type": "address"
        },
        {
          "indexed": true,
          "internalType": "address",
          "name": "newOwner",
          "type": "address"
        }
      ],
      "name": "OwnershipTransferred",
      "type": "event"
    },
    {
      "anonymous": false,
      "inputs": [
        {
          "indexed": false,
          "internalType": "uint256",
          "name": "claimedRevenue",
          "type": "uint256"
        }
      ],
      "name": "PlatformRevenueClaimed",
      "type": "event"
    },
    {
      "anonymous": false,
      "inputs": [
        {
          "indexed": true,
          "internalType": "address",
          "name": "claimer",
          "type": "address"
        }
      ],
      "name": "PlatormRevenueClaimerUpdated",
      "type": "event"
    },
    {
      "anonymous": false,
      "inputs": [
        {
          "indexed": true,
          "internalType": "address",
          "name": "recipient",
          "type": "address"
        },
        {
          "indexed": false,
          "internalType": "uint256[]",
          "name": "traitTokenIds",
          "type": "uint256[]"
        },
        {
          "indexed": false,
          "internalType": "uint256[]",
          "name": "traitQuantities",
          "type": "uint256[]"
        }
      ],
      "name": "TraitsBought",
      "type": "event"
    },
    {
      "anonymous": false,
      "inputs": [
        {
          "indexed": true,
          "internalType": "address",
          "name": "operator",
          "type": "address"
        },
        {
          "indexed": true,
          "internalType": "address",
          "name": "from",
          "type": "address"
        },
        {
          "indexed": true,
          "internalType": "address",
          "name": "to",
          "type": "address"
        },
        {
          "indexed": false,
          "internalType": "uint256[]",
          "name": "ids",
          "type": "uint256[]"
        },
        {
          "indexed": false,
          "internalType": "uint256[]",
          "name": "values",
          "type": "uint256[]"
        }
      ],
      "name": "TransferBatch",
      "type": "event"
    },
    {
      "anonymous": false,
      "inputs": [
        {
          "indexed": true,
          "internalType": "address",
          "name": "operator",
          "type": "address"
        },
        {
          "indexed": true,
          "internalType": "address",
          "name": "from",
          "type": "address"
        },
        {
          "indexed": true,
          "internalType": "address",
          "name": "to",
          "type": "address"
        },
        {
          "indexed": false,
          "internalType": "uint256",
          "name": "id",
          "type": "uint256"
        },
        {
          "indexed": false,
          "internalType": "uint256",
          "name": "value",
          "type": "uint256"
        }
      ],
      "name": "TransferSingle",
      "type": "event"
    },
    {
      "anonymous": false,
      "inputs": [
        {
          "indexed": false,
          "internalType": "string",
          "name": "value",
          "type": "string"
        },
        {
          "indexed": true,
          "internalType": "uint256",
          "name": "id",
          "type": "uint256"
        }
      ],
      "name": "URI",
      "type": "event"
    },
    {
      "inputs": [],
      "name": "FEE_DENOMINATOR",
      "outputs": [
        {
          "internalType": "uint256",
          "name": "",
          "type": "uint256"
        }
      ],
      "stateMutability": "view",
      "type": "function"
    },
    {
      "inputs": [],
      "name": "artistClaimableRevenues",
      "outputs": [
        {
          "internalType": "uint256",
          "name": "",
          "type": "uint256"
        }
      ],
      "stateMutability": "view",
      "type": "function"
    },
    {
      "inputs": [],
      "name": "artistRevenueClaimer",
      "outputs": [
        {
          "internalType": "address payable",
          "name": "",
          "type": "address"
        }
      ],
      "stateMutability": "view",
      "type": "function"
    },
    {
      "inputs": [],
      "name": "auctionEndPrice",
      "outputs": [
        {
          "internalType": "uint256",
          "name": "",
          "type": "uint256"
        }
      ],
      "stateMutability": "view",
      "type": "function"
    },
    {
      "inputs": [],
      "name": "auctionEndTime",
      "outputs": [
        {
          "internalType": "uint256",
          "name": "",
          "type": "uint256"
        }
      ],
      "stateMutability": "view",
      "type": "function"
    },
    {
      "inputs": [],
      "name": "auctionPlatformFeeNumerator",
      "outputs": [
        {
          "internalType": "uint256",
          "name": "",
          "type": "uint256"
        }
      ],
      "stateMutability": "view",
      "type": "function"
    },
    {
      "inputs": [],
      "name": "auctionStartPrice",
      "outputs": [
        {
          "internalType": "uint256",
          "name": "",
          "type": "uint256"
        }
      ],
      "stateMutability": "view",
      "type": "function"
    },
    {
      "inputs": [],
      "name": "auctionStartTime",
      "outputs": [
        {
          "internalType": "uint256",
          "name": "",
          "type": "uint256"
        }
      ],
      "stateMutability": "view",
      "type": "function"
    },
    {
      "inputs": [
        {
          "internalType": "address",
          "name": "account",
          "type": "address"
        },
        {
          "internalType": "uint256",
          "name": "id",
          "type": "uint256"
        }
      ],
      "name": "balanceOf",
      "outputs": [
        {
          "internalType": "uint256",
          "name": "",
          "type": "uint256"
        }
      ],
      "stateMutability": "view",
      "type": "function"
    },
    {
      "inputs": [
        {
          "internalType": "address[]",
          "name": "accounts",
          "type": "address[]"
        },
        {
          "internalType": "uint256[]",
          "name": "ids",
          "type": "uint256[]"
        }
      ],
      "name": "balanceOfBatch",
      "outputs": [
        {
          "internalType": "uint256[]",
          "name": "",
          "type": "uint256[]"
        }
      ],
      "stateMutability": "view",
      "type": "function"
    },
    {
      "inputs": [
        {
          "internalType": "address",
          "name": "_recipient",
          "type": "address"
        },
        {
          "internalType": "uint256[]",
          "name": "_traitTokenIds",
          "type": "uint256[]"
        },
        {
          "internalType": "uint256[]",
          "name": "_traitAmounts",
          "type": "uint256[]"
        }
      ],
      "name": "buyTraits",
      "outputs": [],
      "stateMutability": "payable",
      "type": "function"
    },
    {
      "inputs": [],
      "name": "claimArtistRevenue",
      "outputs": [],
      "stateMutability": "nonpayable",
      "type": "function"
    },
    {
      "inputs": [],
      "name": "claimPlatformRevenue",
      "outputs": [],
      "stateMutability": "nonpayable",
      "type": "function"
    },
    {
      "inputs": [
        {
          "internalType": "string[]",
          "name": "_traitTypeNames",
          "type": "string[]"
        },
        {
          "internalType": "string[]",
          "name": "_traitTypeValues",
          "type": "string[]"
        },
        {
          "internalType": "string[]",
          "name": "_traitNames",
          "type": "string[]"
        },
        {
          "internalType": "string[]",
          "name": "_traitValues",
          "type": "string[]"
        },
        {
          "internalType": "uint256[]",
          "name": "_traitTypeIndexes",
          "type": "uint256[]"
        },
        {
          "internalType": "uint256[]",
          "name": "_traitMaxRevenues",
          "type": "uint256[]"
        }
      ],
      "name": "createTraitsAndTypes",
      "outputs": [],
      "stateMutability": "nonpayable",
      "type": "function"
    },
    {
      "inputs": [
        {
          "internalType": "uint256",
          "name": "id",
          "type": "uint256"
        }
      ],
      "name": "exists",
      "outputs": [
        {
          "internalType": "bool",
          "name": "",
          "type": "bool"
        }
      ],
      "stateMutability": "view",
      "type": "function"
    },
    {
      "inputs": [
        {
          "internalType": "address",
          "name": "account",
          "type": "address"
        },
        {
          "internalType": "address",
          "name": "operator",
          "type": "address"
        }
      ],
      "name": "isApprovedForAll",
      "outputs": [
        {
          "internalType": "bool",
          "name": "",
          "type": "bool"
        }
      ],
      "stateMutability": "view",
      "type": "function"
    },
    {
      "inputs": [
        {
          "internalType": "uint256",
          "name": "_tokenId",
          "type": "uint256"
        }
      ],
      "name": "maxSupply",
      "outputs": [
        {
          "internalType": "uint256",
          "name": "",
          "type": "uint256"
        }
      ],
      "stateMutability": "view",
      "type": "function"
    },
    {
      "inputs": [],
      "name": "owner",
      "outputs": [
        {
          "internalType": "address",
          "name": "",
          "type": "address"
        }
      ],
      "stateMutability": "view",
      "type": "function"
    },
    {
      "inputs": [],
      "name": "platformClaimableRevenues",
      "outputs": [
        {
          "internalType": "uint256",
          "name": "",
          "type": "uint256"
        }
      ],
      "stateMutability": "view",
      "type": "function"
    },
    {
      "inputs": [],
      "name": "platformRevenueClaimer",
      "outputs": [
        {
          "internalType": "address payable",
          "name": "",
          "type": "address"
        }
      ],
      "stateMutability": "view",
      "type": "function"
    },
    {
      "inputs": [],
      "name": "renounceOwnership",
      "outputs": [],
      "stateMutability": "nonpayable",
      "type": "function"
    },
    {
      "inputs": [
        {
          "internalType": "address",
          "name": "from",
          "type": "address"
        },
        {
          "internalType": "address",
          "name": "to",
          "type": "address"
        },
        {
          "internalType": "uint256[]",
          "name": "ids",
          "type": "uint256[]"
        },
        {
          "internalType": "uint256[]",
          "name": "amounts",
          "type": "uint256[]"
        },
        {
          "internalType": "bytes",
          "name": "data",
          "type": "bytes"
        }
      ],
      "name": "safeBatchTransferFrom",
      "outputs": [],
      "stateMutability": "nonpayable",
      "type": "function"
    },
    {
      "inputs": [
        {
          "internalType": "address",
          "name": "from",
          "type": "address"
        },
        {
          "internalType": "address",
          "name": "to",
          "type": "address"
        },
        {
          "internalType": "uint256",
          "name": "id",
          "type": "uint256"
        },
        {
          "internalType": "uint256",
          "name": "amount",
          "type": "uint256"
        },
        {
          "internalType": "bytes",
          "name": "data",
          "type": "bytes"
        }
      ],
      "name": "safeTransferFrom",
      "outputs": [],
      "stateMutability": "nonpayable",
      "type": "function"
    },
    {
      "inputs": [
        {
          "internalType": "uint256",
          "name": "_auctionStartTime",
          "type": "uint256"
        },
        {
          "internalType": "uint256",
          "name": "_auctionEndTime",
          "type": "uint256"
        },
        {
          "internalType": "uint256",
          "name": "_auctionStartPrice",
          "type": "uint256"
        },
        {
          "internalType": "uint256",
          "name": "_auctionEndPrice",
          "type": "uint256"
        }
      ],
      "name": "scheduleAuction",
      "outputs": [],
      "stateMutability": "nonpayable",
      "type": "function"
    },
    {
      "inputs": [
        {
          "internalType": "address",
          "name": "operator",
          "type": "address"
        },
        {
          "internalType": "bool",
          "name": "approved",
          "type": "bool"
        }
      ],
      "name": "setApprovalForAll",
      "outputs": [],
      "stateMutability": "nonpayable",
      "type": "function"
    },
    {
      "inputs": [],
      "name": "studio",
      "outputs": [
        {
          "internalType": "contract IStudio",
          "name": "",
          "type": "address"
        }
      ],
      "stateMutability": "view",
      "type": "function"
    },
    {
      "inputs": [
        {
          "internalType": "bytes4",
          "name": "interfaceId",
          "type": "bytes4"
        }
      ],
      "name": "supportsInterface",
      "outputs": [
        {
          "internalType": "bool",
          "name": "",
          "type": "bool"
        }
      ],
      "stateMutability": "view",
      "type": "function"
    },
    {
      "inputs": [
        {
          "internalType": "uint256",
          "name": "id",
          "type": "uint256"
        }
      ],
      "name": "totalSupply",
      "outputs": [
        {
          "internalType": "uint256",
          "name": "",
          "type": "uint256"
        }
      ],
      "stateMutability": "view",
      "type": "function"
    },
    {
      "inputs": [
        {
          "internalType": "uint256",
          "name": "_tokenId",
          "type": "uint256"
        }
      ],
      "name": "trait",
      "outputs": [
        {
          "internalType": "string",
          "name": "_traitName",
          "type": "string"
        },
        {
          "internalType": "string",
          "name": "_traitValue",
          "type": "string"
        },
        {
          "internalType": "string",
          "name": "_traitTypeName",
          "type": "string"
        },
        {
          "internalType": "string",
          "name": "_traitTypeValue",
          "type": "string"
        }
      ],
      "stateMutability": "view",
      "type": "function"
    },
    {
      "inputs": [],
      "name": "traitPrice",
      "outputs": [
        {
          "internalType": "uint256",
          "name": "_price",
          "type": "uint256"
        }
      ],
      "stateMutability": "view",
      "type": "function"
    },
    {
      "inputs": [],
      "name": "traitTypes",
      "outputs": [
        {
          "internalType": "string[]",
          "name": "_traitTypeNames",
          "type": "string[]"
        },
        {
          "internalType": "string[]",
          "name": "_traitTypeValues",
          "type": "string[]"
        }
      ],
      "stateMutability": "view",
      "type": "function"
    },
    {
      "inputs": [],
      "name": "traits",
      "outputs": [
        {
          "internalType": "uint256[]",
          "name": "_traitTokenIds",
          "type": "uint256[]"
        },
        {
          "internalType": "string[]",
          "name": "_traitNames",
          "type": "string[]"
        },
        {
          "internalType": "string[]",
          "name": "_traitValues",
          "type": "string[]"
        },
        {
          "internalType": "uint256[]",
          "name": "_traitTypeIndexes",
          "type": "uint256[]"
        },
        {
          "internalType": "string[]",
          "name": "_traitTypeNames",
          "type": "string[]"
        },
        {
          "internalType": "string[]",
          "name": "_traitTypeValues",
          "type": "string[]"
        }
      ],
      "stateMutability": "view",
      "type": "function"
    },
    {
      "inputs": [
        {
          "internalType": "address",
          "name": "newOwner",
          "type": "address"
        }
      ],
      "name": "transferOwnership",
      "outputs": [],
      "stateMutability": "nonpayable",
      "type": "function"
    },
    {
      "inputs": [
        {
          "internalType": "address",
          "name": "_caller",
          "type": "address"
        },
        {
          "internalType": "uint256[]",
          "name": "_traitTokenIds",
          "type": "uint256[]"
        }
      ],
      "name": "transferTraitsToCreateArtwork",
      "outputs": [],
      "stateMutability": "nonpayable",
      "type": "function"
    },
    {
      "inputs": [
        {
          "internalType": "address",
          "name": "_caller",
          "type": "address"
        },
        {
          "internalType": "uint256[]",
          "name": "_traitTokenIds",
          "type": "uint256[]"
        }
      ],
      "name": "transferTraitsToDecomposeArtwork",
      "outputs": [],
      "stateMutability": "nonpayable",
      "type": "function"
    },
    {
      "inputs": [
        {
          "internalType": "address payable",
          "name": "_claimer",
          "type": "address"
        }
      ],
      "name": "updateArtistRevenueClaimer",
      "outputs": [],
      "stateMutability": "nonpayable",
      "type": "function"
    },
    {
      "inputs": [
        {
          "internalType": "address payable",
          "name": "_claimer",
          "type": "address"
        }
      ],
      "name": "updatePlatformRevenueClaimer",
      "outputs": [],
      "stateMutability": "nonpayable",
      "type": "function"
    },
    {
      "inputs": [
        {
          "internalType": "string",
          "name": "_uri",
          "type": "string"
        }
      ],
      "name": "updateURI",
      "outputs": [],
      "stateMutability": "nonpayable",
      "type": "function"
    },
    {
      "inputs": [
        {
          "internalType": "uint256",
          "name": "",
          "type": "uint256"
        }
      ],
      "name": "uri",
      "outputs": [
        {
          "internalType": "string",
          "name": "",
          "type": "string"
        }
      ],
      "stateMutability": "view",
      "type": "function"
    },
    {
      "inputs": [],
      "name": "version",
      "outputs": [
        {
          "internalType": "string",
          "name": "",
          "type": "string"
        }
      ],
      "stateMutability": "view",
      "type": "function"
    }
  ],
  "transactionHash": "0x36cf18e9b4170a439fe5c5d280ab83c6e33973595e8e61f32d0049578ded806d",
  "args": [
    "0xC2F6f15b0A6A13845586881fe17E313151d22dec",
    "https://api.intrinsic.art/",
    "0xAa9D46AE079851116967c6573f961B304095C34a",
    "0xAa9D46AE079851116967c6573f961B304095C34a",
    "0xAa9D46AE079851116967c6573f961B304095C34a"
  ],
  "numDeployments": 1,
  "solcInputHash": "730e06a0dc78782c3342f567f95b4d34",
  "bytecode": "0x60806040523480156200001157600080fd5b50604051620048073803806200480783398101604081905262000034916200014d565b836200004081620000a8565b506200004c33620000ba565b600780546001600160a01b0319166001600160a01b0387161790556200007283620000ba565b600c80546001600160a01b039384166001600160a01b031991821617909155600d805492909316911617905550620003cb915050565b6002620000b68282620002ff565b5050565b600480546001600160a01b038381166001600160a01b0319831681179093556040519116919082907f8be0079c531659141344cd1fd0a4f28419497f9722a3daafe3b4186f6b6457e090600090a35050565b6001600160a01b03811681146200012257600080fd5b50565b805162000132816200010c565b919050565b634e487b7160e01b600052604160045260246000fd5b600080600080600060a086880312156200016657600080fd5b855162000173816200010c565b602087810151919650906001600160401b03808211156200019357600080fd5b818901915089601f830112620001a857600080fd5b815181811115620001bd57620001bd62000137565b604051601f8201601f19908116603f01168101908382118183101715620001e857620001e862000137565b816040528281528c868487010111156200020157600080fd5b600093505b8284101562000225578484018601518185018701529285019262000206565b6000868483010152809950505050505050620002446040870162000125565b9250620002546060870162000125565b9150620002646080870162000125565b90509295509295909350565b600181811c908216806200028557607f821691505b602082108103620002a657634e487b7160e01b600052602260045260246000fd5b50919050565b601f821115620002fa57600081815260208120601f850160051c81016020861015620002d55750805b601f850160051c820191505b81811015620002f657828155600101620002e1565b5050505b505050565b81516001600160401b038111156200031b576200031b62000137565b62000333816200032c845462000270565b84620002ac565b602080601f8311600181146200036b5760008415620003525750858301515b600019600386901b1c1916600185901b178555620002f6565b600085815260208120601f198616915b828110156200039c578886015182559484019460019091019084016200037b565b5085821015620003bb5787850151600019600388901b60f8161c191681555b5050505050600190811b01905550565b61442c80620003db6000396000f3fe6080604052600436106102b95760003560e01c80638da5cb5b1161016e578063ca7ee8a0116100cb578063e985e9c51161007f578063f242432a11610064578063f242432a146107a4578063f2fde38b146107c4578063f3457fdf146107e457600080fd5b8063e985e9c514610745578063eb54f9ec1461078e57600080fd5b8063d756985b116100b0578063d756985b146106e8578063da79dbe6146106fe578063e1fc334f1461071e57600080fd5b8063ca7ee8a0146106b1578063d73792a9146106d157600080fd5b8063a713b02911610122578063bcfbb61111610107578063bcfbb6111461064e578063bd85b03914610664578063c30f4a5a1461069157600080fd5b8063a713b02914610619578063ab50d2cf1461062e57600080fd5b80638ff168fc116101535780638ff168fc146105c3578063a04a6ac8146105e3578063a22cb465146105f957600080fd5b80638da5cb5b146105905780638ecd8955146105ae57600080fd5b80634e1273f41161021c5780636cb80117116101d05780637bedfac0116101b55780637bedfac014610546578063869f7594146105595780638705e6a41461057957600080fd5b80636cb8011714610511578063715018a61461053157600080fd5b80635044651d116102015780635044651d1461047057806354fd4d5014610490578063626661fc146104d957600080fd5b80634e1273f4146104145780634f558e791461044157600080fd5b80630bdc21cb116102735780631f0a595b116102585780631f0a595b146103bb5780632eb2c2d6146103de5780634b449cba146103fe57600080fd5b80630bdc21cb146103785780630e89341c1461038e57600080fd5b806301c8aa4b116102a457806301c8aa4b1461030657806301ffc9a71461032857806302afd1a11461035857600080fd5b8062a9bb01146102be578062fdd58e146102e6575b600080fd5b3480156102ca57600080fd5b506102d3610814565b6040519081526020015b60405180910390f35b3480156102f257600080fd5b506102d3610301366004613647565b6108d2565b34801561031257600080fd5b50610326610321366004613830565b610979565b005b34801561033457600080fd5b50610348610343366004613956565b610dd6565b60405190151581526020016102dd565b34801561036457600080fd5b5061032661037336600461397a565b610e71565b34801561038457600080fd5b506102d360055481565b34801561039a57600080fd5b506103ae6103a93660046139cf565b61107a565b6040516102dd9190613a2e565b3480156103c757600080fd5b506103d061110e565b6040516102dd929190613a96565b3480156103ea57600080fd5b506103266103f9366004613b2a565b61136c565b34801561040a57600080fd5b506102d360095481565b34801561042057600080fd5b5061043461042f366004613bd8565b61140e565b6040516102dd9190613ce0565b34801561044d57600080fd5b5061034861045c3660046139cf565b600090815260036020526040902054151590565b34801561047c57600080fd5b5061032661048b36600461397a565b61154c565b34801561049c57600080fd5b506103ae6040518060400160405280600581526020017f312e302e3000000000000000000000000000000000000000000000000000000081525081565b3480156104e557600080fd5b50600c546104f9906001600160a01b031681565b6040516001600160a01b0390911681526020016102dd565b34801561051d57600080fd5b5061032661052c366004613cf3565b611746565b34801561053d57600080fd5b506103266118c5565b610326610554366004613d25565b6118d9565b34801561056557600080fd5b506102d36105743660046139cf565b611c3a565b34801561058557600080fd5b506102d3620186a081565b34801561059c57600080fd5b506004546001600160a01b03166104f9565b3480156105ba57600080fd5b50610326611cb6565b3480156105cf57600080fd5b50600d546104f9906001600160a01b031681565b3480156105ef57600080fd5b506102d3600b5481565b34801561060557600080fd5b50610326610614366004613db6565b611dd6565b34801561062557600080fd5b50610326611de1565b34801561063a57600080fd5b50610326610649366004613def565b611efd565b34801561065a57600080fd5b506102d360065481565b34801561067057600080fd5b506102d361067f3660046139cf565b60009081526003602052604090205490565b34801561069d57600080fd5b506103266106ac366004613e0c565b611f86565b3480156106bd57600080fd5b506007546104f9906001600160a01b031681565b3480156106dd57600080fd5b506102d3620f424081565b3480156106f457600080fd5b506102d3600a5481565b34801561070a57600080fd5b50610326610719366004613def565b611f9a565b34801561072a57600080fd5b50610733611fd1565b6040516102dd96959493929190613e49565b34801561075157600080fd5b50610348610760366004613ecb565b6001600160a01b03918216600090815260016020908152604080832093909416825291909152205460ff1690565b34801561079a57600080fd5b506102d360085481565b3480156107b057600080fd5b506103266107bf366004613ef9565b6125a4565b3480156107d057600080fd5b506103266107df366004613def565b61263f565b3480156107f057600080fd5b506108046107ff3660046139cf565b6126cc565b6040516102dd9493929190613f62565b600060085442101561086d5760405162461bcd60e51b815260206004820152600360248201527f543232000000000000000000000000000000000000000000000000000000000060448201526064015b60405180910390fd5b60095442111561087e5750600b5490565b60085460095461088e9190613fd0565b600b54600a5461089e9190613fd0565b6008546108ab9042613fd0565b6108b59190613fe3565b6108bf9190613ffa565b600a546108cc9190613fd0565b90505b90565b60006001600160a01b0383166109505760405162461bcd60e51b815260206004820152602a60248201527f455243313135353a2061646472657373207a65726f206973206e6f742061207660448201527f616c6964206f776e6572000000000000000000000000000000000000000000006064820152608401610864565b506000818152602081815260408083206001600160a01b03861684529091529020545b92915050565b6109816129dd565b600760009054906101000a90046001600160a01b03166001600160a01b031663cf3090126040518163ffffffff1660e01b8152600401602060405180830381865afa1580156109d4573d6000803e3d6000fd5b505050506040513d601f19601f820116820180604052508101906109f8919061401c565b15610a455760405162461bcd60e51b815260206004820152600360248201527f54303200000000000000000000000000000000000000000000000000000000006044820152606401610864565b8951600003610a965760405162461bcd60e51b815260206004820152600360248201527f54303300000000000000000000000000000000000000000000000000000000006044820152606401610864565b6000879003610ae75760405162461bcd60e51b815260206004820152600360248201527f54303400000000000000000000000000000000000000000000000000000000006044820152606401610864565b88518a5114610b385760405162461bcd60e51b815260206004820152600360248201527f54303500000000000000000000000000000000000000000000000000000000006044820152606401610864565b8685148015610b4657508683145b8015610b5157508681145b610b9d5760405162461bcd60e51b815260206004820152600360248201527f54303600000000000000000000000000000000000000000000000000000000006044820152606401610864565b60005b8a51811015610c4557600e60405180604001604052808d8481518110610bc857610bc8614039565b602002602001015181526020018c8481518110610be757610be7614039565b6020908102919091018101519091528254600181018455600093845292208151919260020201908190610c1a90826140d4565b5060208201516001820190610c2f90826140d4565b5050508080610c3d90614194565b915050610ba0565b5060005b87811015610dc957600f6040518060a001604052808b8b85818110610c7057610c70614039565b9050602002810190610c8291906141ad565b8080601f016020809104026020016040519081016040528093929190818152602001838380828437600092019190915250505090825250602001898985818110610cce57610cce614039565b9050602002810190610ce091906141ad565b8080601f016020809104026020016040519081016040528093929190818152602001838380828437600092019190915250505090825250602001878785818110610d2c57610d2c614039565b905060200201358152602001858585818110610d4a57610d4a614039565b602090810292909201358352506000918101829052835460018101855593825290208151919260050201908190610d8190826140d4565b5060208201516001820190610d9690826140d4565b50604082015160028201556060820151600382015560809091015160049091015580610dc181614194565b915050610c49565b5050505050505050505050565b60006001600160e01b031982167fd9b67a26000000000000000000000000000000000000000000000000000000001480610e3957506001600160e01b031982167f0e89341c00000000000000000000000000000000000000000000000000000000145b8061097357507f01ffc9a7000000000000000000000000000000000000000000000000000000006001600160e01b0319831614610973565b6007546001600160a01b03163314610eb15760405162461bcd60e51b815260206004820152600360248201526254303160e81b6044820152606401610864565b600e548114610f025760405162461bcd60e51b815260206004820152600360248201527f54313400000000000000000000000000000000000000000000000000000000006044820152606401610864565b60008167ffffffffffffffff811115610f1d57610f1d613673565b604051908082528060200260200182016040528015610f46578160200160208202803683370190505b50905060005b828110156110105780600f858584818110610f6957610f69614039565b9050602002013581548110610f8057610f80614039565b90600052602060002090600502016002015414610fdf5760405162461bcd60e51b815260206004820152600360248201527f54313500000000000000000000000000000000000000000000000000000000006044820152606401610864565b6001828281518110610ff357610ff3614039565b60209081029190910101528061100881614194565b915050610f4c565b5061107484600760009054906101000a90046001600160a01b0316858580806020026020016040519081016040528093929190818152602001838360200280828437600092018290525060408051602081019091529081528893509150612a379050565b50505050565b6060600280546110899061404f565b80601f01602080910402602001604051908101604052809291908181526020018280546110b59061404f565b80156111025780601f106110d757610100808354040283529160200191611102565b820191906000526020600020905b8154815290600101906020018083116110e557829003601f168201915b50505050509050919050565b600e5460609081908067ffffffffffffffff81111561112f5761112f613673565b60405190808252806020026020018201604052801561116257816020015b606081526020019060019003908161114d5790505b5092508067ffffffffffffffff81111561117e5761117e613673565b6040519080825280602002602001820160405280156111b157816020015b606081526020019060019003908161119c5790505b50915060005b8181101561136657600e81815481106111d2576111d2614039565b906000526020600020906002020160000180546111ee9061404f565b80601f016020809104026020016040519081016040528092919081815260200182805461121a9061404f565b80156112675780601f1061123c57610100808354040283529160200191611267565b820191906000526020600020905b81548152906001019060200180831161124a57829003601f168201915b505050505084828151811061127e5761127e614039565b6020026020010181905250600e818154811061129c5761129c614039565b906000526020600020906002020160010180546112b89061404f565b80601f01602080910402602001604051908101604052809291908181526020018280546112e49061404f565b80156113315780601f1061130657610100808354040283529160200191611331565b820191906000526020600020905b81548152906001019060200180831161131457829003601f168201915b505050505083828151811061134857611348614039565b6020026020010181905250808061135e90614194565b9150506111b7565b50509091565b6001600160a01b03851633148061138857506113888533610760565b6113fa5760405162461bcd60e51b815260206004820152602e60248201527f455243313135353a2063616c6c6572206973206e6f7420746f6b656e206f776e60448201527f6572206f7220617070726f7665640000000000000000000000000000000000006064820152608401610864565b6114078585858585612a37565b5050505050565b606081518351146114875760405162461bcd60e51b815260206004820152602960248201527f455243313135353a206163636f756e747320616e6420696473206c656e67746860448201527f206d69736d6174636800000000000000000000000000000000000000000000006064820152608401610864565b6000835167ffffffffffffffff8111156114a3576114a3613673565b6040519080825280602002602001820160405280156114cc578160200160208202803683370190505b50905060005b8451811015611544576115178582815181106114f0576114f0614039565b602002602001015185838151811061150a5761150a614039565b60200260200101516108d2565b82828151811061152957611529614039565b602090810291909101015261153d81614194565b90506114d2565b509392505050565b6007546001600160a01b0316331461158c5760405162461bcd60e51b815260206004820152600360248201526254303160e81b6044820152606401610864565b600e5481146115dd5760405162461bcd60e51b815260206004820152600360248201527f54313600000000000000000000000000000000000000000000000000000000006044820152606401610864565b60008167ffffffffffffffff8111156115f8576115f8613673565b604051908082528060200260200182016040528015611621578160200160208202803683370190505b50905060005b828110156116eb5780600f85858481811061164457611644614039565b905060200201358154811061165b5761165b614039565b906000526020600020906005020160020154146116ba5760405162461bcd60e51b815260206004820152600360248201527f54313700000000000000000000000000000000000000000000000000000000006044820152606401610864565b60018282815181106116ce576116ce614039565b6020908102919091010152806116e381614194565b915050611627565b506007546040805160208086028281018201909352858252611074936001600160a01b03169288929188918891829190850190849080828437600092018290525060408051602081019091529081528893509150612a379050565b61174e6129dd565b600760009054906101000a90046001600160a01b03166001600160a01b031663cf3090126040518163ffffffff1660e01b8152600401602060405180830381865afa1580156117a1573d6000803e3d6000fd5b505050506040513d601f19601f820116820180604052508101906117c5919061401c565b6118115760405162461bcd60e51b815260206004820152600360248201527f54303700000000000000000000000000000000000000000000000000000000006044820152606401610864565b838310156118615760405162461bcd60e51b815260206004820152600360248201527f54303800000000000000000000000000000000000000000000000000000000006044820152606401610864565b818111156118b15760405162461bcd60e51b815260206004820152600360248201527f54303900000000000000000000000000000000000000000000000000000000006044820152606401610864565b600893909355600991909155600a55600b55565b6118cd6129dd565b6118d76000612ca3565b565b8281146119285760405162461bcd60e51b815260206004820152600360248201527f54313100000000000000000000000000000000000000000000000000000000006044820152606401610864565b600080611933610814565b905060005b83811015611ab45784848281811061195257611952614039565b905060200201358361196491906141f4565b9250600085858381811061197a5761197a614039565b905060200201358361198c9190613fe3565b600f8989858181106119a0576119a0614039565b90506020020135815481106119b7576119b7614039565b9060005260206000209060050201600401546119d391906141f4565b9050600f8888848181106119e9576119e9614039565b9050602002013581548110611a0057611a00614039565b906000526020600020906005020160030154811115611a615760405162461bcd60e51b815260206004820152600360248201527f54313200000000000000000000000000000000000000000000000000000000006044820152606401610864565b80600f898985818110611a7657611a76614039565b9050602002013581548110611a8d57611a8d614039565b60009182526020909120600460059092020101555080611aac81614194565b915050611938565b506000611ac18284613fe3565b905080341015611b135760405162461bcd60e51b815260206004820152600360248201527f54313300000000000000000000000000000000000000000000000000000000006044820152606401610864565b6000620f4240611b26620186a034613fe3565b611b309190613ffa565b90508060066000828254611b4491906141f4565b90915550611b5490508134613fd0565b60056000828254611b6591906141f4565b92505081905550886001600160a01b03167f5e69dace42908bf940c680c4fd1884a926e1e39b2c2a350d9a0b96eeed5d32a689898989604051611bab9493929190614252565b60405180910390a2611c2f8989898080602002602001604051908101604052809392919081815260200183836020028082843760009201919091525050604080516020808d0282810182019093528c82529093508c92508b918291850190849080828437600092018290525060408051602081019091529081529250612d02915050565b505050505050505050565b6000600b54600f8381548110611c5257611c52614039565b906000526020600020906005020160040154600f8481548110611c7757611c77614039565b906000526020600020906005020160030154611c939190613fd0565b611c9d9190613ffa565b60008381526003602052604090205461097391906141f4565b600c546001600160a01b03163314611d105760405162461bcd60e51b815260206004820152600360248201527f54313800000000000000000000000000000000000000000000000000000000006044820152606401610864565b60065480611d605760405162461bcd60e51b815260206004820152600360248201527f54313900000000000000000000000000000000000000000000000000000000006044820152606401610864565b60006006556040518181527f0c8d31947f98bc63af39d31a25af89c65e76f11fa8a8cd4edae335eee677b3cc9060200160405180910390a1600c546040516001600160a01b039091169082156108fc029083906000818181858888f19350505050158015611dd2573d6000803e3d6000fd5b5050565b611dd2338383612ef3565b600d546001600160a01b03163314611e3b5760405162461bcd60e51b815260206004820152600360248201527f54323000000000000000000000000000000000000000000000000000000000006044820152606401610864565b60055480611e8b5760405162461bcd60e51b815260206004820152600360248201527f54323100000000000000000000000000000000000000000000000000000000006044820152606401610864565b60006005556040518181527fc63609f37f0a5e3a7ed2911284184dc6ba3a4b8bb831f1e1e469e1ca5dd52ed09060200160405180910390a1600d546040516001600160a01b039091169082156108fc029083906000818181858888f19350505050158015611dd2573d6000803e3d6000fd5b600d546001600160a01b03163314611f575760405162461bcd60e51b815260206004820152600360248201527f54313000000000000000000000000000000000000000000000000000000000006044820152606401610864565b600d805473ffffffffffffffffffffffffffffffffffffffff19166001600160a01b0392909216919091179055565b611f8e6129dd565b611f9781612fe7565b50565b611fa26129dd565b600c805473ffffffffffffffffffffffffffffffffffffffff19166001600160a01b0392909216919091179055565b6060806060806060806000600f8054905090508067ffffffffffffffff811115611ffd57611ffd613673565b604051908082528060200260200182016040528015612026578160200160208202803683370190505b5096508067ffffffffffffffff81111561204257612042613673565b60405190808252806020026020018201604052801561207557816020015b60608152602001906001900390816120605790505b5095508067ffffffffffffffff81111561209157612091613673565b6040519080825280602002602001820160405280156120c457816020015b60608152602001906001900390816120af5790505b5094508067ffffffffffffffff8111156120e0576120e0613673565b604051908082528060200260200182016040528015612109578160200160208202803683370190505b5093508067ffffffffffffffff81111561212557612125613673565b60405190808252806020026020018201604052801561215857816020015b60608152602001906001900390816121435790505b5092508067ffffffffffffffff81111561217457612174613673565b6040519080825280602002602001820160405280156121a757816020015b60608152602001906001900390816121925790505b50915060005b8181101561259a57808882815181106121c8576121c8614039565b602002602001018181525050600f81815481106121e7576121e7614039565b906000526020600020906005020160000180546122039061404f565b80601f016020809104026020016040519081016040528092919081815260200182805461222f9061404f565b801561227c5780601f106122515761010080835404028352916020019161227c565b820191906000526020600020905b81548152906001019060200180831161225f57829003601f168201915b505050505087828151811061229357612293614039565b6020026020010181905250600f81815481106122b1576122b1614039565b906000526020600020906005020160010180546122cd9061404f565b80601f01602080910402602001604051908101604052809291908181526020018280546122f99061404f565b80156123465780601f1061231b57610100808354040283529160200191612346565b820191906000526020600020905b81548152906001019060200180831161232957829003601f168201915b505050505086828151811061235d5761235d614039565b6020026020010181905250600f818154811061237b5761237b614039565b90600052602060002090600502016002015485828151811061239f5761239f614039565b602002602001018181525050600e600f82815481106123c0576123c0614039565b906000526020600020906005020160020154815481106123e2576123e2614039565b906000526020600020906002020160000180546123fe9061404f565b80601f016020809104026020016040519081016040528092919081815260200182805461242a9061404f565b80156124775780601f1061244c57610100808354040283529160200191612477565b820191906000526020600020905b81548152906001019060200180831161245a57829003601f168201915b505050505084828151811061248e5761248e614039565b6020026020010181905250600e600f82815481106124ae576124ae614039565b906000526020600020906005020160020154815481106124d0576124d0614039565b906000526020600020906002020160010180546124ec9061404f565b80601f01602080910402602001604051908101604052809291908181526020018280546125189061404f565b80156125655780601f1061253a57610100808354040283529160200191612565565b820191906000526020600020905b81548152906001019060200180831161254857829003601f168201915b505050505083828151811061257c5761257c614039565b6020026020010181905250808061259290614194565b9150506121ad565b5050909192939495565b6001600160a01b0385163314806125c057506125c08533610760565b6126325760405162461bcd60e51b815260206004820152602e60248201527f455243313135353a2063616c6c6572206973206e6f7420746f6b656e206f776e60448201527f6572206f7220617070726f7665640000000000000000000000000000000000006064820152608401610864565b6114078585858585612ff3565b6126476129dd565b6001600160a01b0381166126c35760405162461bcd60e51b815260206004820152602660248201527f4f776e61626c653a206e6577206f776e657220697320746865207a65726f206160448201527f64647265737300000000000000000000000000000000000000000000000000006064820152608401610864565b611f9781612ca3565b606080606080600f85815481106126e5576126e5614039565b906000526020600020906005020160000180546127019061404f565b80601f016020809104026020016040519081016040528092919081815260200182805461272d9061404f565b801561277a5780601f1061274f5761010080835404028352916020019161277a565b820191906000526020600020905b81548152906001019060200180831161275d57829003601f168201915b50505050509350600f858154811061279457612794614039565b906000526020600020906005020160010180546127b09061404f565b80601f01602080910402602001604051908101604052809291908181526020018280546127dc9061404f565b80156128295780601f106127fe57610100808354040283529160200191612829565b820191906000526020600020905b81548152906001019060200180831161280c57829003601f168201915b50505050509250600e600f868154811061284557612845614039565b9060005260206000209060050201600201548154811061286757612867614039565b906000526020600020906002020160000180546128839061404f565b80601f01602080910402602001604051908101604052809291908181526020018280546128af9061404f565b80156128fc5780601f106128d1576101008083540402835291602001916128fc565b820191906000526020600020905b8154815290600101906020018083116128df57829003601f168201915b50505050509150600e600f868154811061291857612918614039565b9060005260206000209060050201600201548154811061293a5761293a614039565b906000526020600020906002020160010180546129569061404f565b80601f01602080910402602001604051908101604052809291908181526020018280546129829061404f565b80156129cf5780601f106129a4576101008083540402835291602001916129cf565b820191906000526020600020905b8154815290600101906020018083116129b257829003601f168201915b505050505090509193509193565b6004546001600160a01b031633146118d75760405162461bcd60e51b815260206004820181905260248201527f4f776e61626c653a2063616c6c6572206973206e6f7420746865206f776e65726044820152606401610864565b8151835114612a995760405162461bcd60e51b815260206004820152602860248201527f455243313135353a2069647320616e6420616d6f756e7473206c656e677468206044820152670dad2e6dac2e8c6d60c31b6064820152608401610864565b6001600160a01b038416612afd5760405162461bcd60e51b815260206004820152602560248201527f455243313135353a207472616e7366657220746f20746865207a65726f206164604482015264647265737360d81b6064820152608401610864565b33612b0c8187878787876131a1565b60005b8451811015612c35576000858281518110612b2c57612b2c614039565b602002602001015190506000858381518110612b4a57612b4a614039565b602090810291909101810151600084815280835260408082206001600160a01b038e168352909352919091205490915081811015612bdd5760405162461bcd60e51b815260206004820152602a60248201527f455243313135353a20696e73756666696369656e742062616c616e636520666f60448201526939103a3930b739b332b960b11b6064820152608401610864565b6000838152602081815260408083206001600160a01b038e8116855292528083208585039055908b16825281208054849290612c1a9084906141f4565b9250508190555050505080612c2e90614194565b9050612b0f565b50846001600160a01b0316866001600160a01b0316826001600160a01b03167f4a39dc06d4c0dbc64b70af90fd698a233a518aa5d07e595d983b8c0526c8f7fb8787604051612c85929190614279565b60405180910390a4612c9b8187878787876131af565b505050505050565b600480546001600160a01b0383811673ffffffffffffffffffffffffffffffffffffffff19831681179093556040519116919082907f8be0079c531659141344cd1fd0a4f28419497f9722a3daafe3b4186f6b6457e090600090a35050565b6001600160a01b038416612d7e5760405162461bcd60e51b815260206004820152602160248201527f455243313135353a206d696e7420746f20746865207a65726f2061646472657360448201527f73000000000000000000000000000000000000000000000000000000000000006064820152608401610864565b8151835114612de05760405162461bcd60e51b815260206004820152602860248201527f455243313135353a2069647320616e6420616d6f756e7473206c656e677468206044820152670dad2e6dac2e8c6d60c31b6064820152608401610864565b33612df0816000878787876131a1565b60005b8451811015612e8b57838181518110612e0e57612e0e614039565b6020026020010151600080878481518110612e2b57612e2b614039565b602002602001015181526020019081526020016000206000886001600160a01b03166001600160a01b031681526020019081526020016000206000828254612e7391906141f4565b90915550819050612e8381614194565b915050612df3565b50846001600160a01b031660006001600160a01b0316826001600160a01b03167f4a39dc06d4c0dbc64b70af90fd698a233a518aa5d07e595d983b8c0526c8f7fb8787604051612edc929190614279565b60405180910390a4611407816000878787876131af565b816001600160a01b0316836001600160a01b031603612f7a5760405162461bcd60e51b815260206004820152602960248201527f455243313135353a2073657474696e6720617070726f76616c2073746174757360448201527f20666f722073656c6600000000000000000000000000000000000000000000006064820152608401610864565b6001600160a01b03838116600081815260016020908152604080832094871680845294825291829020805460ff191686151590811790915591519182527f17307eab39ab6107e8899845ad3d59bd9653f200f220920489ca2b5937696c31910160405180910390a3505050565b6002611dd282826140d4565b6001600160a01b0384166130575760405162461bcd60e51b815260206004820152602560248201527f455243313135353a207472616e7366657220746f20746865207a65726f206164604482015264647265737360d81b6064820152608401610864565b3360006130638561335d565b905060006130708561335d565b90506130808389898585896131a1565b6000868152602081815260408083206001600160a01b038c168452909152902054858110156131045760405162461bcd60e51b815260206004820152602a60248201527f455243313135353a20696e73756666696369656e742062616c616e636520666f60448201526939103a3930b739b332b960b11b6064820152608401610864565b6000878152602081815260408083206001600160a01b038d8116855292528083208985039055908a168252812080548892906131419084906141f4565b909155505060408051888152602081018890526001600160a01b03808b16928c821692918816917fc3d58168c5ae7397731d063d5bbf3d657854427343f4c083240f7aacaa2d0f62910160405180910390a4611c2f848a8a8a8a8a6133a8565b612c9b8686868686866134a4565b6001600160a01b0384163b15612c9b5760405163bc197c8160e01b81526001600160a01b0385169063bc197c81906131f3908990899088908890889060040161429e565b6020604051808303816000875af192505050801561322e575060408051601f3d908101601f1916820190925261322b918101906142fc565b60015b6132e35761323a614319565b806308c379a003613273575061324e614334565b806132595750613275565b8060405162461bcd60e51b81526004016108649190613a2e565b505b60405162461bcd60e51b815260206004820152603460248201527f455243313135353a207472616e7366657220746f206e6f6e2d4552433131353560448201527f526563656976657220696d706c656d656e7465720000000000000000000000006064820152608401610864565b6001600160e01b0319811663bc197c8160e01b146133545760405162461bcd60e51b815260206004820152602860248201527f455243313135353a204552433131353552656365697665722072656a656374656044820152676420746f6b656e7360c01b6064820152608401610864565b50505050505050565b6040805160018082528183019092526060916000919060208083019080368337019050509050828160008151811061339757613397614039565b602090810291909101015292915050565b6001600160a01b0384163b15612c9b5760405163f23a6e6160e01b81526001600160a01b0385169063f23a6e61906133ec90899089908890889088906004016143be565b6020604051808303816000875af1925050508015613427575060408051601f3d908101601f19168201909252613424918101906142fc565b60015b6134335761323a614319565b6001600160e01b0319811663f23a6e6160e01b146133545760405162461bcd60e51b815260206004820152602860248201527f455243313135353a204552433131353552656365697665722072656a656374656044820152676420746f6b656e7360c01b6064820152608401610864565b6001600160a01b03851661352b5760005b8351811015613529578281815181106134d0576134d0614039565b6020026020010151600360008684815181106134ee576134ee614039565b60200260200101518152602001908152602001600020600082825461351391906141f4565b90915550613522905081614194565b90506134b5565b505b6001600160a01b038416612c9b5760005b835181101561335457600084828151811061355957613559614039565b60200260200101519050600084838151811061357757613577614039565b602002602001015190506000600360008481526020019081526020016000205490508181101561360f5760405162461bcd60e51b815260206004820152602860248201527f455243313135353a206275726e20616d6f756e74206578636565647320746f7460448201527f616c537570706c790000000000000000000000000000000000000000000000006064820152608401610864565b6000928352600360205260409092209103905561362b81614194565b905061353c565b6001600160a01b0381168114611f9757600080fd5b6000806040838503121561365a57600080fd5b823561366581613632565b946020939093013593505050565b634e487b7160e01b600052604160045260246000fd5b601f8201601f1916810167ffffffffffffffff811182821017156136af576136af613673565b6040525050565b600067ffffffffffffffff8211156136d0576136d0613673565b5060051b60200190565b600082601f8301126136eb57600080fd5b813567ffffffffffffffff81111561370557613705613673565b60405161371c601f8301601f191660200182613689565b81815284602083860101111561373157600080fd5b816020850160208301376000918101602001919091529392505050565b600082601f83011261375f57600080fd5b8135602061376c826136b6565b6040516137798282613689565b83815260059390931b850182019282810191508684111561379957600080fd5b8286015b848110156137d957803567ffffffffffffffff8111156137bd5760008081fd5b6137cb8986838b01016136da565b84525091830191830161379d565b509695505050505050565b60008083601f8401126137f657600080fd5b50813567ffffffffffffffff81111561380e57600080fd5b6020830191508360208260051b850101111561382957600080fd5b9250929050565b60008060008060008060008060008060c08b8d03121561384f57600080fd5b8a3567ffffffffffffffff8082111561386757600080fd5b6138738e838f0161374e565b9b5060208d013591508082111561388957600080fd5b6138958e838f0161374e565b9a5060408d01359150808211156138ab57600080fd5b6138b78e838f016137e4565b909a50985060608d01359150808211156138d057600080fd5b6138dc8e838f016137e4565b909850965060808d01359150808211156138f557600080fd5b6139018e838f016137e4565b909650945060a08d013591508082111561391a57600080fd5b506139278d828e016137e4565b915080935050809150509295989b9194979a5092959850565b6001600160e01b031981168114611f9757600080fd5b60006020828403121561396857600080fd5b813561397381613940565b9392505050565b60008060006040848603121561398f57600080fd5b833561399a81613632565b9250602084013567ffffffffffffffff8111156139b657600080fd5b6139c2868287016137e4565b9497909650939450505050565b6000602082840312156139e157600080fd5b5035919050565b6000815180845260005b81811015613a0e576020818501810151868301820152016139f2565b506000602082860101526020601f19601f83011685010191505092915050565b60208152600061397360208301846139e8565b600081518084526020808501808196508360051b8101915082860160005b85811015613a89578284038952613a778483516139e8565b98850198935090840190600101613a5f565b5091979650505050505050565b604081526000613aa96040830185613a41565b8281036020840152613abb8185613a41565b95945050505050565b600082601f830112613ad557600080fd5b81356020613ae2826136b6565b604051613aef8282613689565b83815260059390931b8501820192828101915086841115613b0f57600080fd5b8286015b848110156137d95780358352918301918301613b13565b600080600080600060a08688031215613b4257600080fd5b8535613b4d81613632565b94506020860135613b5d81613632565b9350604086013567ffffffffffffffff80821115613b7a57600080fd5b613b8689838a01613ac4565b94506060880135915080821115613b9c57600080fd5b613ba889838a01613ac4565b93506080880135915080821115613bbe57600080fd5b50613bcb888289016136da565b9150509295509295909350565b60008060408385031215613beb57600080fd5b823567ffffffffffffffff80821115613c0357600080fd5b818501915085601f830112613c1757600080fd5b81356020613c24826136b6565b604051613c318282613689565b83815260059390931b8501820192828101915089841115613c5157600080fd5b948201945b83861015613c78578535613c6981613632565b82529482019490820190613c56565b96505086013592505080821115613c8e57600080fd5b50613c9b85828601613ac4565b9150509250929050565b600081518084526020808501945080840160005b83811015613cd557815187529582019590820190600101613cb9565b509495945050505050565b6020815260006139736020830184613ca5565b60008060008060808587031215613d0957600080fd5b5050823594602084013594506040840135936060013592509050565b600080600080600060608688031215613d3d57600080fd5b8535613d4881613632565b9450602086013567ffffffffffffffff80821115613d6557600080fd5b613d7189838a016137e4565b90965094506040880135915080821115613d8a57600080fd5b50613d97888289016137e4565b969995985093965092949392505050565b8015158114611f9757600080fd5b60008060408385031215613dc957600080fd5b8235613dd481613632565b91506020830135613de481613da8565b809150509250929050565b600060208284031215613e0157600080fd5b813561397381613632565b600060208284031215613e1e57600080fd5b813567ffffffffffffffff811115613e3557600080fd5b613e41848285016136da565b949350505050565b60c081526000613e5c60c0830189613ca5565b8281036020840152613e6e8189613a41565b90508281036040840152613e828188613a41565b90508281036060840152613e968187613ca5565b90508281036080840152613eaa8186613a41565b905082810360a0840152613ebe8185613a41565b9998505050505050505050565b60008060408385031215613ede57600080fd5b8235613ee981613632565b91506020830135613de481613632565b600080600080600060a08688031215613f1157600080fd5b8535613f1c81613632565b94506020860135613f2c81613632565b93506040860135925060608601359150608086013567ffffffffffffffff811115613f5657600080fd5b613bcb888289016136da565b608081526000613f7560808301876139e8565b8281036020840152613f8781876139e8565b90508281036040840152613f9b81866139e8565b90508281036060840152613faf81856139e8565b979650505050505050565b634e487b7160e01b600052601160045260246000fd5b8181038181111561097357610973613fba565b808202811582820484141761097357610973613fba565b60008261401757634e487b7160e01b600052601260045260246000fd5b500490565b60006020828403121561402e57600080fd5b815161397381613da8565b634e487b7160e01b600052603260045260246000fd5b600181811c9082168061406357607f821691505b60208210810361408357634e487b7160e01b600052602260045260246000fd5b50919050565b601f8211156140cf57600081815260208120601f850160051c810160208610156140b05750805b601f850160051c820191505b81811015612c9b578281556001016140bc565b505050565b815167ffffffffffffffff8111156140ee576140ee613673565b614102816140fc845461404f565b84614089565b602080601f831160018114614137576000841561411f5750858301515b600019600386901b1c1916600185901b178555612c9b565b600085815260208120601f198616915b8281101561416657888601518255948401946001909101908401614147565b50858210156141845787850151600019600388901b60f8161c191681555b5050505050600190811b01905550565b6000600182016141a6576141a6613fba565b5060010190565b6000808335601e198436030181126141c457600080fd5b83018035915067ffffffffffffffff8211156141df57600080fd5b60200191503681900382131561382957600080fd5b8082018082111561097357610973613fba565b81835260007f07ffffffffffffffffffffffffffffffffffffffffffffffffffffffffffffff83111561423957600080fd5b8260051b80836020870137939093016020019392505050565b604081526000614266604083018688614207565b8281036020840152613faf818587614207565b60408152600061428c6040830185613ca5565b8281036020840152613abb8185613ca5565b60006001600160a01b03808816835280871660208401525060a060408301526142ca60a0830186613ca5565b82810360608401526142dc8186613ca5565b905082810360808401526142f081856139e8565b98975050505050505050565b60006020828403121561430e57600080fd5b815161397381613940565b600060033d11156108cf5760046000803e5060005160e01c90565b600060443d10156143425790565b6040516003193d81016004833e81513d67ffffffffffffffff816024840111818411171561437257505050505090565b828501915081518181111561438a5750505050505090565b843d87010160208285010111156143a45750505050505090565b6143b360208286010187613689565b509095945050505050565b60006001600160a01b03808816835280871660208401525084604083015283606083015260a06080830152613faf60a08301846139e856fea26469706673582212205b26e179fe23fbad5d41edd0582f4efa1319d8915291521104c87e64557d58e864736f6c63430008120033",
  "devdoc": {
    "events": {
      "ApprovalForAll(address,address,bool)": {
        "details": "Emitted when `account` grants or revokes permission to `operator` to transfer their tokens, according to `approved`."
      },
      "TransferBatch(address,address,address,uint256[],uint256[])": {
        "details": "Equivalent to multiple {TransferSingle} events, where `operator`, `from` and `to` are the same for all transfers."
      },
      "TransferSingle(address,address,address,uint256,uint256)": {
        "details": "Emitted when `value` tokens of token type `id` are transferred from `from` to `to` by `operator`."
      },
      "URI(string,uint256)": {
        "details": "Emitted when the URI for token type `id` changes to `value`, if it is a non-programmatic URI. If an {URI} event was emitted for `id`, the standard https://eips.ethereum.org/EIPS/eip-1155#metadata-extensions[guarantees] that `value` will equal the value returned by {IERC1155MetadataURI-uri}."
      }
    },
    "kind": "dev",
    "methods": {
      "balanceOf(address,uint256)": {
        "details": "See {IERC1155-balanceOf}. Requirements: - `account` cannot be the zero address."
      },
      "balanceOfBatch(address[],uint256[])": {
        "details": "See {IERC1155-balanceOfBatch}. Requirements: - `accounts` and `ids` must have the same length."
      },
      "exists(uint256)": {
        "details": "Indicates whether any token exist with a given id, or not."
      },
      "isApprovedForAll(address,address)": {
        "details": "See {IERC1155-isApprovedForAll}."
      },
      "owner()": {
        "details": "Returns the address of the current owner."
      },
      "renounceOwnership()": {
        "details": "Leaves the contract without owner. It will not be possible to call `onlyOwner` functions anymore. Can only be called by the current owner. NOTE: Renouncing ownership will leave the contract without an owner, thereby removing any functionality that is only available to the owner."
      },
      "safeBatchTransferFrom(address,address,uint256[],uint256[],bytes)": {
        "details": "See {IERC1155-safeBatchTransferFrom}."
      },
      "safeTransferFrom(address,address,uint256,uint256,bytes)": {
        "details": "See {IERC1155-safeTransferFrom}."
      },
      "setApprovalForAll(address,bool)": {
        "details": "See {IERC1155-setApprovalForAll}."
      },
      "supportsInterface(bytes4)": {
        "details": "See {IERC165-supportsInterface}."
      },
      "totalSupply(uint256)": {
        "details": "Total amount of tokens in with a given id."
      },
      "transferOwnership(address)": {
        "details": "Transfers ownership of the contract to a new account (`newOwner`). Can only be called by the current owner."
      },
      "uri(uint256)": {
        "details": "See {IERC1155MetadataURI-uri}. This implementation returns the same URI for *all* token types. It relies on the token type ID substitution mechanism https://eips.ethereum.org/EIPS/eip-1155#metadata[defined in the EIP]. Clients calling this function must replace the `\\{id\\}` substring with the actual token type ID."
      }
    },
    "version": 1
  },
  "userdoc": {
    "kind": "user",
    "methods": {},
    "version": 1
  },
  "storageLayout": {
    "storage": [
      {
        "astId": 138,
        "contract": "contracts/Traits.sol:Traits",
        "label": "_balances",
        "offset": 0,
        "slot": "0",
        "type": "t_mapping(t_uint256,t_mapping(t_address,t_uint256))"
      },
      {
        "astId": 144,
        "contract": "contracts/Traits.sol:Traits",
        "label": "_operatorApprovals",
        "offset": 0,
        "slot": "1",
        "type": "t_mapping(t_address,t_mapping(t_address,t_bool))"
      },
      {
        "astId": 146,
        "contract": "contracts/Traits.sol:Traits",
        "label": "_uri",
        "offset": 0,
        "slot": "2",
        "type": "t_string_storage"
      },
      {
        "astId": 1508,
        "contract": "contracts/Traits.sol:Traits",
        "label": "_totalSupply",
        "offset": 0,
        "slot": "3",
        "type": "t_mapping(t_uint256,t_uint256)"
      },
      {
        "astId": 7,
        "contract": "contracts/Traits.sol:Traits",
        "label": "_owner",
        "offset": 0,
        "slot": "4",
        "type": "t_address"
      },
      {
        "astId": 4964,
        "contract": "contracts/Traits.sol:Traits",
        "label": "artistClaimableRevenues",
        "offset": 0,
        "slot": "5",
        "type": "t_uint256"
      },
      {
        "astId": 4966,
        "contract": "contracts/Traits.sol:Traits",
        "label": "platformClaimableRevenues",
        "offset": 0,
        "slot": "6",
        "type": "t_uint256"
      },
      {
        "astId": 4969,
        "contract": "contracts/Traits.sol:Traits",
        "label": "studio",
        "offset": 0,
        "slot": "7",
        "type": "t_contract(IStudio)6133"
      },
      {
        "astId": 4971,
        "contract": "contracts/Traits.sol:Traits",
        "label": "auctionStartTime",
        "offset": 0,
        "slot": "8",
        "type": "t_uint256"
      },
      {
        "astId": 4973,
        "contract": "contracts/Traits.sol:Traits",
        "label": "auctionEndTime",
        "offset": 0,
        "slot": "9",
        "type": "t_uint256"
      },
      {
        "astId": 4975,
        "contract": "contracts/Traits.sol:Traits",
        "label": "auctionStartPrice",
        "offset": 0,
        "slot": "10",
        "type": "t_uint256"
      },
      {
        "astId": 4977,
        "contract": "contracts/Traits.sol:Traits",
        "label": "auctionEndPrice",
        "offset": 0,
        "slot": "11",
        "type": "t_uint256"
      },
      {
        "astId": 4979,
        "contract": "contracts/Traits.sol:Traits",
        "label": "platformRevenueClaimer",
        "offset": 0,
        "slot": "12",
        "type": "t_address_payable"
      },
      {
        "astId": 4981,
        "contract": "contracts/Traits.sol:Traits",
        "label": "artistRevenueClaimer",
        "offset": 0,
        "slot": "13",
        "type": "t_address_payable"
      },
      {
        "astId": 4988,
        "contract": "contracts/Traits.sol:Traits",
        "label": "_traitTypes",
        "offset": 0,
        "slot": "14",
        "type": "t_array(t_struct(TraitType)6166_storage)dyn_storage"
      },
      {
        "astId": 4992,
        "contract": "contracts/Traits.sol:Traits",
        "label": "_traits",
        "offset": 0,
        "slot": "15",
        "type": "t_array(t_struct(Trait)6177_storage)dyn_storage"
      }
    ],
    "types": {
      "t_address": {
        "encoding": "inplace",
        "label": "address",
        "numberOfBytes": "20"
      },
      "t_address_payable": {
        "encoding": "inplace",
        "label": "address payable",
        "numberOfBytes": "20"
      },
      "t_array(t_struct(Trait)6177_storage)dyn_storage": {
        "base": "t_struct(Trait)6177_storage",
        "encoding": "dynamic_array",
        "label": "struct ITraits.Trait[]",
        "numberOfBytes": "32"
      },
      "t_array(t_struct(TraitType)6166_storage)dyn_storage": {
        "base": "t_struct(TraitType)6166_storage",
        "encoding": "dynamic_array",
        "label": "struct ITraits.TraitType[]",
        "numberOfBytes": "32"
      },
      "t_bool": {
        "encoding": "inplace",
        "label": "bool",
        "numberOfBytes": "1"
      },
      "t_contract(IStudio)6133": {
        "encoding": "inplace",
        "label": "contract IStudio",
        "numberOfBytes": "20"
      },
      "t_mapping(t_address,t_bool)": {
        "encoding": "mapping",
        "key": "t_address",
        "label": "mapping(address => bool)",
        "numberOfBytes": "32",
        "value": "t_bool"
      },
      "t_mapping(t_address,t_mapping(t_address,t_bool))": {
        "encoding": "mapping",
        "key": "t_address",
        "label": "mapping(address => mapping(address => bool))",
        "numberOfBytes": "32",
        "value": "t_mapping(t_address,t_bool)"
      },
      "t_mapping(t_address,t_uint256)": {
        "encoding": "mapping",
        "key": "t_address",
        "label": "mapping(address => uint256)",
        "numberOfBytes": "32",
        "value": "t_uint256"
      },
      "t_mapping(t_uint256,t_mapping(t_address,t_uint256))": {
        "encoding": "mapping",
        "key": "t_uint256",
        "label": "mapping(uint256 => mapping(address => uint256))",
        "numberOfBytes": "32",
        "value": "t_mapping(t_address,t_uint256)"
      },
      "t_mapping(t_uint256,t_uint256)": {
        "encoding": "mapping",
        "key": "t_uint256",
        "label": "mapping(uint256 => uint256)",
        "numberOfBytes": "32",
        "value": "t_uint256"
      },
      "t_string_storage": {
        "encoding": "bytes",
        "label": "string",
        "numberOfBytes": "32"
      },
      "t_struct(Trait)6177_storage": {
        "encoding": "inplace",
        "label": "struct ITraits.Trait",
        "members": [
          {
            "astId": 6168,
            "contract": "contracts/Traits.sol:Traits",
            "label": "name",
            "offset": 0,
            "slot": "0",
            "type": "t_string_storage"
          },
          {
            "astId": 6170,
            "contract": "contracts/Traits.sol:Traits",
            "label": "value",
            "offset": 0,
            "slot": "1",
            "type": "t_string_storage"
          },
          {
            "astId": 6172,
            "contract": "contracts/Traits.sol:Traits",
            "label": "typeIndex",
            "offset": 0,
            "slot": "2",
            "type": "t_uint256"
          },
          {
            "astId": 6174,
            "contract": "contracts/Traits.sol:Traits",
            "label": "maxRevenue",
            "offset": 0,
            "slot": "3",
            "type": "t_uint256"
          },
          {
            "astId": 6176,
            "contract": "contracts/Traits.sol:Traits",
            "label": "totalRevenue",
            "offset": 0,
            "slot": "4",
            "type": "t_uint256"
          }
        ],
        "numberOfBytes": "160"
      },
      "t_struct(TraitType)6166_storage": {
        "encoding": "inplace",
        "label": "struct ITraits.TraitType",
        "members": [
          {
            "astId": 6163,
            "contract": "contracts/Traits.sol:Traits",
            "label": "name",
            "offset": 0,
            "slot": "0",
            "type": "t_string_storage"
          },
          {
            "astId": 6165,
            "contract": "contracts/Traits.sol:Traits",
            "label": "value",
            "offset": 0,
            "slot": "1",
            "type": "t_string_storage"
          }
        ],
        "numberOfBytes": "64"
      },
      "t_uint256": {
        "encoding": "inplace",
        "label": "uint256",
        "numberOfBytes": "32"
      }
    }
  }
}